{"contracts/Config.sol":{"Config":{"abi":[{"inputs":[],"name":"InvalidInitialization","type":"error"},{"inputs":[],"name":"NotInitializing","type":"error"},{"inputs":[],"name":"ReentrancyGuardReentrantCall","type":"error"},{"inputs":[{"internalType":"uint256","name":"value","type":"uint256"},{"internalType":"uint256","name":"length","type":"uint256"}],"name":"StringsInsufficientHexLength","type":"error"},{"anonymous":false,"inputs":[{"indexed":false,"internalType":"uint64","name":"oldValue","type":"uint64"},{"indexed":false,"internalType":"uint64","name":"newValue","type":"uint64"}],"name":"CancelRedemptionFeeSet","type":"event"},{"anonymous":false,"inputs":[{"indexed":false,"internalType":"uint64","name":"version","type":"uint64"}],"name":"Initialized","type":"event"},{"anonymous":false,"inputs":[{"indexed":false,"internalType":"uint64","name":"oldValue","type":"uint64"},{"indexed":false,"internalType":"uint64","name":"newValue","type":"uint64"}],"name":"MinQueueLengthSecs","type":"event"},{"anonymous":false,"inputs":[{"indexed":false,"internalType":"bool","name":"oldValue","type":"bool"},{"indexed":false,"internalType":"bool","name":"newValue","type":"bool"}],"name":"PausedSet","type":"event"},{"anonymous":false,"inputs":[{"indexed":false,"internalType":"uint64","name":"oldValue","type":"uint64"},{"indexed":false,"internalType":"uint64","name":"newValue","type":"uint64"}],"name":"QueueLengthSecsSet","type":"event"},{"anonymous":false,"inputs":[{"indexed":false,"internalType":"uint64","name":"oldValue","type":"uint64"},{"indexed":false,"internalType":"uint64","name":"newValue","type":"uint64"}],"name":"ReduceMaturityStakeSecsSet","type":"event"},{"anonymous":false,"inputs":[{"indexed":true,"internalType":"bytes32","name":"role","type":"bytes32"},{"indexed":true,"internalType":"bytes32","name":"previousAdminRole","type":"bytes32"},{"indexed":true,"internalType":"bytes32","name":"newAdminRole","type":"bytes32"}],"name":"RoleAdminChanged","type":"event"},{"anonymous":false,"inputs":[{"indexed":true,"internalType":"bytes32","name":"role","type":"bytes32"},{"indexed":true,"internalType":"address","name":"account","type":"address"},{"indexed":true,"internalType":"address","name":"senderFini","type":"address"}],"name":"RoleGranted","type":"event"},{"anonymous":false,"inputs":[{"indexed":true,"internalType":"bytes32","name":"role","type":"bytes32"},{"indexed":true,"internalType":"address","name":"account","type":"address"},{"indexed":true,"internalType":"address","name":"sender","type":"address"}],"name":"RoleRevoked","type":"event"},{"inputs":[],"name":"ADDRESS_BRIDGE","outputs":[{"internalType":"uint256","name":"","type":"uint256"}],"stateMutability":"view","type":"function"},{"inputs":[],"name":"ADDRESS_L1_DEALER","outputs":[{"internalType":"uint256","name":"","type":"uint256"}],"stateMutability":"view","type":"function"},{"inputs":[],"name":"ADDRESS_METIS","outputs":[{"internalType":"uint256","name":"","type":"uint256"}],"stateMutability":"view","type":"function"},{"inputs":[],"name":"ADDRESS_PROTOCOL_TREASURY","outputs":[{"internalType":"uint256","name":"","type":"uint256"}],"stateMutability":"view","type":"function"},{"inputs":[],"name":"ADDRESS_REDEMPTION_QUEUE","outputs":[{"internalType":"uint256","name":"","type":"uint256"}],"stateMutability":"view","type":"function"},{"inputs":[],"name":"ADDRESS_REWARD_DISPATCHER","outputs":[{"internalType":"uint256","name":"","type":"uint256"}],"stateMutability":"view","type":"function"},{"inputs":[],"name":"ADDRESS_SVEMETIS","outputs":[{"internalType":"uint256","name":"","type":"uint256"}],"stateMutability":"view","type":"function"},{"inputs":[],"name":"ADDRESS_VEMETIS","outputs":[{"internalType":"uint256","name":"","type":"uint256"}],"stateMutability":"view","type":"function"},{"inputs":[],"name":"ADDRESS_VEMETIS_MINTER","outputs":[{"internalType":"uint256","name":"","type":"uint256"}],"stateMutability":"view","type":"function"},{"inputs":[],"name":"ADMIN_ROLE","outputs":[{"internalType":"bytes32","name":"","type":"bytes32"}],"stateMutability":"view","type":"function"},{"inputs":[],"name":"BACKEND_ROLE","outputs":[{"internalType":"bytes32","name":"","type":"bytes32"}],"stateMutability":"view","type":"function"},{"inputs":[],"name":"DEFAULT_ADMIN_ROLE","outputs":[{"internalType":"bytes32","name":"","type":"bytes32"}],"stateMutability":"view","type":"function"},{"inputs":[],"name":"FEE_PRECISION","outputs":[{"internalType":"uint64","name":"","type":"uint64"}],"stateMutability":"view","type":"function"},{"inputs":[],"name":"INITIAL_DEPOSIT_AMOUNT","outputs":[{"internalType":"uint256","name":"","type":"uint256"}],"stateMutability":"view","type":"function"},{"inputs":[],"name":"TIMELOCK_ROLE","outputs":[{"internalType":"bytes32","name":"","type":"bytes32"}],"stateMutability":"view","type":"function"},{"inputs":[],"name":"UINT32_PROTOCOL_TREASURY_RATIO","outputs":[{"internalType":"uint256","name":"","type":"uint256"}],"stateMutability":"view","type":"function"},{"inputs":[],"name":"UINT64_CANCEL_REDEMPTION_FEE","outputs":[{"internalType":"uint256","name":"","type":"uint256"}],"stateMutability":"view","type":"function"},{"inputs":[],"name":"UINT64_MIN_QUEUE_LENGTH_SECS","outputs":[{"internalType":"uint256","name":"","type":"uint256"}],"stateMutability":"view","type":"function"},{"inputs":[],"name":"UINT64_QUEUE_LENGTH_SECS","outputs":[{"internalType":"uint256","name":"","type":"uint256"}],"stateMutability":"view","type":"function"},{"inputs":[],"name":"UINT64_REDEMPTION_FEE","outputs":[{"internalType":"uint256","name":"","type":"uint256"}],"stateMutability":"view","type":"function"},{"inputs":[],"name":"UINT64_REDUCE_MATURITY_STAKE_SECS","outputs":[{"internalType":"uint256","name":"","type":"uint256"}],"stateMutability":"view","type":"function"},{"inputs":[{"internalType":"bytes32","name":"","type":"bytes32"}],"name":"_roles","outputs":[{"internalType":"bytes32","name":"adminRole","type":"bytes32"},{"internalType":"bool","name":"allowAll","type":"bool"}],"stateMutability":"view","type":"function"},{"inputs":[],"name":"bridge","outputs":[{"internalType":"address","name":"","type":"address"}],"stateMutability":"view","type":"function"},{"inputs":[],"name":"config","outputs":[{"internalType":"contract IConfig","name":"","type":"address"}],"stateMutability":"view","type":"function"},{"inputs":[{"internalType":"uint256","name":"","type":"uint256"}],"name":"configMap","outputs":[{"internalType":"uint256","name":"","type":"uint256"}],"stateMutability":"view","type":"function"},{"inputs":[{"internalType":"bytes32","name":"role","type":"bytes32"}],"name":"getRoleAdmin","outputs":[{"internalType":"bytes32","name":"","type":"bytes32"}],"stateMutability":"view","type":"function"},{"inputs":[{"internalType":"bytes32","name":"role","type":"bytes32"},{"internalType":"address","name":"account","type":"address"}],"name":"grantRole","outputs":[],"stateMutability":"nonpayable","type":"function"},{"inputs":[{"internalType":"bytes32","name":"role","type":"bytes32"},{"internalType":"address","name":"account","type":"address"}],"name":"hasRole","outputs":[{"internalType":"bool","name":"","type":"bool"}],"stateMutability":"view","type":"function"},{"inputs":[],"name":"initialize","outputs":[],"stateMutability":"nonpayable","type":"function"},{"inputs":[],"name":"l1Dealer","outputs":[{"internalType":"address","name":"","type":"address"}],"stateMutability":"view","type":"function"},{"inputs":[],"name":"metis","outputs":[{"internalType":"address","name":"","type":"address"}],"stateMutability":"view","type":"function"},{"inputs":[],"name":"protocolTreasury","outputs":[{"internalType":"address","name":"","type":"address"}],"stateMutability":"view","type":"function"},{"inputs":[],"name":"protocolTreasuryRatio","outputs":[{"internalType":"uint32","name":"","type":"uint32"}],"stateMutability":"view","type":"function"},{"inputs":[],"name":"queueLengthSecs","outputs":[{"internalType":"uint64","name":"","type":"uint64"}],"stateMutability":"view","type":"function"},{"inputs":[],"name":"redemptionQueue","outputs":[{"internalType":"address","name":"","type":"address"}],"stateMutability":"view","type":"function"},{"inputs":[{"internalType":"bytes32","name":"role","type":"bytes32"},{"internalType":"address","name":"account","type":"address"}],"name":"renounceRole","outputs":[],"stateMutability":"nonpayable","type":"function"},{"inputs":[{"internalType":"bytes32","name":"role","type":"bytes32"},{"internalType":"address","name":"account","type":"address"}],"name":"revokeRole","outputs":[],"stateMutability":"nonpayable","type":"function"},{"inputs":[],"name":"rewardDispatcher","outputs":[{"internalType":"address","name":"","type":"address"}],"stateMutability":"view","type":"function"},{"inputs":[{"internalType":"address","name":"_metis","type":"address"},{"internalType":"address","name":"_bridge","type":"address"},{"internalType":"address","name":"_protocolTreasury","type":"address"},{"internalType":"uint32","name":"_protocolTreasuryRatio","type":"uint32"}],"name":"setIntialValues","outputs":[],"stateMutability":"nonpayable","type":"function"},{"inputs":[{"internalType":"address","name":"_l1Dealer","type":"address"}],"name":"setL1Dealer","outputs":[],"stateMutability":"nonpayable","type":"function"},{"inputs":[{"internalType":"address","name":"_protocolTreasury","type":"address"}],"name":"setProtocolTreasury","outputs":[],"stateMutability":"nonpayable","type":"function"},{"inputs":[{"internalType":"uint32","name":"_protocolTreasuryRatio","type":"uint32"}],"name":"setProtocolTreasuryRatio","outputs":[],"stateMutability":"nonpayable","type":"function"},{"inputs":[{"internalType":"uint64","name":"_queueLengthSecs","type":"uint64"}],"name":"setQueueLengthSecs","outputs":[],"stateMutability":"nonpayable","type":"function"},{"inputs":[{"internalType":"address","name":"_redemptionQueueAddress","type":"address"}],"name":"setRedemptionQueue","outputs":[],"stateMutability":"nonpayable","type":"function"},{"inputs":[{"internalType":"address","name":"_rewardDispatcher","type":"address"}],"name":"setRewardDispatcher","outputs":[],"stateMutability":"nonpayable","type":"function"},{"inputs":[{"internalType":"bytes32","name":"role","type":"bytes32"},{"internalType":"bytes32","name":"adminRole","type":"bytes32"}],"name":"setRoleAdmin","outputs":[],"stateMutability":"nonpayable","type":"function"},{"inputs":[{"internalType":"address","name":"_sveMetis","type":"address"}],"name":"setSveMetis","outputs":[],"stateMutability":"nonpayable","type":"function"},{"inputs":[{"internalType":"address","name":"_veMetis","type":"address"}],"name":"setVeMetis","outputs":[],"stateMutability":"nonpayable","type":"function"},{"inputs":[{"internalType":"address","name":"_veMetisMinter","type":"address"}],"name":"setVeMetisMinterAddress","outputs":[],"stateMutability":"nonpayable","type":"function"},{"inputs":[],"name":"sveMetis","outputs":[{"internalType":"address","name":"","type":"address"}],"stateMutability":"view","type":"function"},{"inputs":[],"name":"veMetis","outputs":[{"internalType":"address","name":"","type":"address"}],"stateMutability":"view","type":"function"},{"inputs":[],"name":"veMetisMinter","outputs":[{"internalType":"address","name":"","type":"address"}],"stateMutability":"view","type":"function"},{"stateMutability":"payable","type":"receive"}],"devdoc":{"details":"Manages configuration settings and roles for the protocol.","errors":{"InvalidInitialization()":[{"details":"The contract is already initialized."}],"NotInitializing()":[{"details":"The contract is not initializing."}],"ReentrancyGuardReentrantCall()":[{"details":"Unauthorized reentrant call."}],"StringsInsufficientHexLength(uint256,uint256)":[{"details":"The `value` string doesn't fit in the specified `length`."}]},"events":{"CancelRedemptionFeeSet(uint64,uint64)":{"params":{"newValue":"new value of `cancelRedemptionFee`","oldValue":"old value of `cancelRedemptionFee`"}},"Initialized(uint64)":{"details":"Triggered when the contract has been initialized or reinitialized."},"MinQueueLengthSecs(uint64,uint64)":{"params":{"newValue":"new value of `minQueueLengthSecs`","oldValue":"old value of `minQueueLengthSecs`"}},"PausedSet(bool,bool)":{"params":{"newValue":"new value of `isPaused`","oldValue":"old value of `isPaused`"}},"QueueLengthSecsSet(uint64,uint64)":{"params":{"newValue":"new value of `queueLengthSecs`","oldValue":"old value of `queueLengthSecs`"}},"ReduceMaturityStakeSecsSet(uint64,uint64)":{"params":{"newValue":"new value of `reduceMaturityStakeSecs`","oldValue":"old value of `reduceMaturityStakeSecs`"}}},"kind":"dev","methods":{"bridge()":{"details":"Returns the bridge address."},"getRoleAdmin(bytes32)":{"details":"Returns the admin role that controls `role`.","params":{"role":"Role identifier."},"returns":{"_0":"Admin role identifier."}},"grantRole(bytes32,address)":{"details":"Grants `role` to `account`."},"hasRole(bytes32,address)":{"details":"Checks if an account has a specific role.","params":{"account":"Address to check.","role":"Role identifier."},"returns":{"_0":"True if the account has the role, false otherwise."}},"initialize()":{"details":"Initializes the contract by setting the default admin role to the deployer."},"l1Dealer()":{"details":"Returns the L1 dealer address."},"metis()":{"details":"Returns the Metis address."},"protocolTreasury()":{"details":"Returns the protocol treasury address."},"protocolTreasuryRatio()":{"details":"Returns the protocol treasury ratio."},"renounceRole(bytes32,address)":{"details":"Revokes `role` from the calling account.","params":{"account":"Address to renounce role for.","role":"Role identifier."}},"revokeRole(bytes32,address)":{"details":"Revokes `role` from `account`.","params":{"account":"Address to revoke role from.","role":"Role identifier."}},"rewardDispatcher()":{"details":"Returns the reward dispatcher address."},"setIntialValues(address,address,address,uint32)":{"details":"Sets initial values for the configuration.","params":{"_bridge":"Address of the bridge contract.","_metis":"Address of the Metis token.","_protocolTreasury":"Address of the protocol treasury.","_protocolTreasuryRatio":"Ratio for the protocol treasury."}},"setL1Dealer(address)":{"details":"Sets the L1 dealer address.","params":{"_l1Dealer":"Address of the L1 dealer."}},"setProtocolTreasury(address)":{"details":"Sets the protocol treasury address.","params":{"_protocolTreasury":"Address of the protocol treasury."}},"setProtocolTreasuryRatio(uint32)":{"details":"Sets the protocol treasury ratio.","params":{"_protocolTreasuryRatio":"Ratio for the protocol treasury."}},"setQueueLengthSecs(uint64)":{"params":{"_queueLengthSecs":"queue length in seconds"}},"setRewardDispatcher(address)":{"details":"Sets the reward dispatcher address.","params":{"_rewardDispatcher":"Address of the reward dispatcher contract."}},"setRoleAdmin(bytes32,bytes32)":{"details":"Sets `adminRole` as `role`'s admin role."},"setSveMetis(address)":{"details":"Sets the sVeMetis address.","params":{"_sveMetis":"Address of the sVeMetis contract."}},"setVeMetis(address)":{"details":"Sets the veMetis address.","params":{"_veMetis":"Address of the veMetis contract."}},"setVeMetisMinterAddress(address)":{"details":"Sets the veMetis minter address.","params":{"_veMetisMinter":"Address of the veMetis minter contract."}},"sveMetis()":{"details":"Returns the sVE Metis address."},"veMetis()":{"details":"Returns the veMetis address."},"veMetisMinter()":{"details":"Returns the veMetis minter address."}},"title":"Config","version":1},"evm":{"bytecode":{"linkReferences":{},"object":"608060405234801561001057600080fd5b50613717806100206000396000f3fe6080604052600436106103035760003560e01c80638d40bd3511610190578063bf27726c116100dc578063e52083c611610095578063e78cea921161006f578063e78cea9214610b73578063f288a2e214610b9e578063f9aa973f14610bc9578063fda42e2114610bf457610343565b8063e52083c614610af2578063e597455414610b1d578063e63a391f14610b4857610343565b8063bf27726c146109f6578063cb9edeb114610a21578063d27bc94a14610a4c578063d547741f14610a75578063d862e8d914610a9e578063de55db9d14610ac957610343565b8063a217fddf11610149578063a7d6181911610123578063a7d6181914610937578063bad1e13914610962578063bbadf4271461098d578063bd99d7e1146109b857610343565b8063a217fddf146108b6578063a2191470146108e1578063a2be57ad1461090c57610343565b80638d40bd35146107a457806391d14854146107cd57806392c2becc1461080a5780639336ce801461083557806397ec19be1461086057806397fc71771461088b57610343565b80633b4c46d01161024f57806372ef154011610208578063803db96d116101e2578063803db96d1461070c5780638129fc1c1461073757806388ef06be1461074e5780638b587b9c1461077957610343565b806372ef15401461068b57806375b238fc146106b657806379502c55146106e157610343565b80633b4c46d01461058d5780633b8ad07f146105b657806343606f75146105e15780634d19eaf11461060a57806350c4a8a21461063557806371a1ea981461066057610343565b806324059831116102bc5780632d76710b116102965780632d76710b146104e55780632f2ff15d1461051057806336568abe1461053957806339ee2c3d1461056257610343565b80632405983114610454578063248a9ca31461047f5780632c59155a146104bc57610343565b8063046bafdd14610348578063093c4e21146103715780630c5a61f81461039a5780630e9429ba146103c35780631e4e009114610400578063219519551461042957610343565b36610343576040517f08c379a000000000000000000000000000000000000000000000000000000000815260040161033a90612c48565b60405180910390fd5b600080fd5b34801561035457600080fd5b5061036f600480360381019061036a9190612ccb565b610c1d565b005b34801561037d57600080fd5b5061039860048036038101906103939190612d38565b610d44565b005b3480156103a657600080fd5b506103c160048036038101906103bc9190612ccb565b610ed4565b005b3480156103cf57600080fd5b506103ea60048036038101906103e59190612d9b565b61106a565b6040516103f79190612dd7565b60405180910390f35b34801561040c57600080fd5b5061042760048036038101906104229190612e28565b611081565b005b34801561043557600080fd5b5061043e611162565b60405161044b9190612e77565b60405180910390f35b34801561046057600080fd5b506104696111a0565b6040516104769190612dd7565b60405180910390f35b34801561048b57600080fd5b506104a660048036038101906104a19190612e92565b6111c7565b6040516104b39190612ece565b60405180910390f35b3480156104c857600080fd5b506104e360048036038101906104de9190612ccb565b6111e7565b005b3480156104f157600080fd5b506104fa61130e565b6040516105079190612ef8565b60405180910390f35b34801561051c57600080fd5b5061053760048036038101906105329190612f13565b61134c565b005b34801561054557600080fd5b50610560600480360381019061055b9190612f13565b61142d565b005b34801561056e57600080fd5b506105776114b0565b6040516105849190612dd7565b60405180910390f35b34801561059957600080fd5b506105b460048036038101906105af9190612ccb565b6114d7565b005b3480156105c257600080fd5b506105cb6115fe565b6040516105d89190612dd7565b60405180910390f35b3480156105ed57600080fd5b5061060860048036038101906106039190612ccb565b611625565b005b34801561061657600080fd5b5061061f61174c565b60405161062c9190612dd7565b60405180910390f35b34801561064157600080fd5b5061064a611773565b6040516106579190612dd7565b60405180910390f35b34801561066c57600080fd5b5061067561179a565b6040516106829190612dd7565b60405180910390f35b34801561069757600080fd5b506106a06117c1565b6040516106ad9190612dd7565b60405180910390f35b3480156106c257600080fd5b506106cb6117e8565b6040516106d89190612ece565b60405180910390f35b3480156106ed57600080fd5b506106f661180c565b6040516107039190612fb2565b60405180910390f35b34801561071857600080fd5b50610721611830565b60405161072e9190612e77565b60405180910390f35b34801561074357600080fd5b5061074c61186e565b005b34801561075a57600080fd5b50610763611a26565b6040516107709190612dd7565b60405180910390f35b34801561078557600080fd5b5061078e611a4d565b60405161079b9190612fec565b60405180910390f35b3480156107b057600080fd5b506107cb60048036038101906107c69190612ccb565b611a8b565b005b3480156107d957600080fd5b506107f460048036038101906107ef9190612f13565b611bb2565b6040516108019190613022565b60405180910390f35b34801561081657600080fd5b5061081f611c48565b60405161082c9190612ece565b60405180910390f35b34801561084157600080fd5b5061084a611c6c565b6040516108579190612e77565b60405180910390f35b34801561086c57600080fd5b50610875611caa565b6040516108829190612e77565b60405180910390f35b34801561089757600080fd5b506108a0611ce8565b6040516108ad9190612dd7565b60405180910390f35b3480156108c257600080fd5b506108cb611d0f565b6040516108d89190612ece565b60405180910390f35b3480156108ed57600080fd5b506108f6611d16565b6040516109039190612e77565b60405180910390f35b34801561091857600080fd5b50610921611d54565b60405161092e9190612e77565b60405180910390f35b34801561094357600080fd5b5061094c611d92565b6040516109599190612dd7565b60405180910390f35b34801561096e57600080fd5b50610977611db9565b6040516109849190612dd7565b60405180910390f35b34801561099957600080fd5b506109a2611de0565b6040516109af9190612dd7565b60405180910390f35b3480156109c457600080fd5b506109df60048036038101906109da9190612e92565b611e07565b6040516109ed92919061303d565b60405180910390f35b348015610a0257600080fd5b50610a0b611e38565b604051610a189190612e77565b60405180910390f35b348015610a2d57600080fd5b50610a36611e76565b604051610a439190612dd7565b60405180910390f35b348015610a5857600080fd5b50610a736004803603810190610a6e9190613092565b611e9d565b005b348015610a8157600080fd5b50610a9c6004803603810190610a979190612f13565b612000565b005b348015610aaa57600080fd5b50610ab36120e1565b604051610ac09190612dd7565b60405180910390f35b348015610ad557600080fd5b50610af06004803603810190610aeb9190612ccb565b612108565b005b348015610afe57600080fd5b50610b0761222f565b604051610b149190612dd7565b60405180910390f35b348015610b2957600080fd5b50610b3261223b565b604051610b3f9190612e77565b60405180910390f35b348015610b5457600080fd5b50610b5d612279565b604051610b6a9190612ef8565b60405180910390f35b348015610b7f57600080fd5b50610b88612280565b604051610b959190612e77565b60405180910390f35b348015610baa57600080fd5b50610bb36122be565b604051610bc09190612ece565b60405180910390f35b348015610bd557600080fd5b50610bde6122e2565b604051610beb9190612dd7565b60405180910390f35b348015610c0057600080fd5b50610c1b6004803603810190610c1691906130bf565b612309565b005b7fa49807205ce4d355092ef5a8a18f56e8913cf4a201fbe287825b095693c2177560008054906101000a900473ffffffffffffffffffffffffffffffffffffffff1673ffffffffffffffffffffffffffffffffffffffff166391d1485482610c836124de565b6040518363ffffffff1660e01b8152600401610ca0929190613126565b602060405180830381865afa158015610cbd573d6000803e3d6000fd5b505050506040513d601f19601f82011682018060405250810190610ce1919061317b565b610cef57610cee816124e6565b5b8173ffffffffffffffffffffffffffffffffffffffff16602060007f6fc77dba7c1971f6af1f32b3c7728da581e8b9fe553e83800c1e287b9288663860001c8152602001908152602001600020819055505050565b7fa49807205ce4d355092ef5a8a18f56e8913cf4a201fbe287825b095693c2177560008054906101000a900473ffffffffffffffffffffffffffffffffffffffff1673ffffffffffffffffffffffffffffffffffffffff166391d1485482610daa6124de565b6040518363ffffffff1660e01b8152600401610dc7929190613126565b602060405180830381865afa158015610de4573d6000803e3d6000fd5b505050506040513d601f19601f82011682018060405250810190610e08919061317b565b610e1657610e15816124e6565b5b6000602060007f1ec8339790254679015c7b4db055ec6bb45de4d3ff3193d766a1cc6ce145728d60001c81526020019081526020016000205490508267ffffffffffffffff16602060007f1ec8339790254679015c7b4db055ec6bb45de4d3ff3193d766a1cc6ce145728d60001c8152602001908152602001600020819055507fc177a0244f4a8707676367719773686001fba49fd7289a82ac5b48ad94c2f6338184604051610ec79291906131a8565b60405180910390a1505050565b7fa49807205ce4d355092ef5a8a18f56e8913cf4a201fbe287825b095693c2177560008054906101000a900473ffffffffffffffffffffffffffffffffffffffff1673ffffffffffffffffffffffffffffffffffffffff166391d1485482610f3a6124de565b6040518363ffffffff1660e01b8152600401610f57929190613126565b602060405180830381865afa158015610f74573d6000803e3d6000fd5b505050506040513d601f19601f82011682018060405250810190610f98919061317b565b610fa657610fa5816124e6565b5b600073ffffffffffffffffffffffffffffffffffffffff168273ffffffffffffffffffffffffffffffffffffffff1603611015576040517f08c379a000000000000000000000000000000000000000000000000000000000815260040161100c90613243565b60405180910390fd5b8173ffffffffffffffffffffffffffffffffffffffff16602060007f6ea4018daf79dd2b85ff55e23caa9708d35a5af81f862526e25c36407a95ad8160001c8152602001908152602001600020819055505050565b602080528060005260406000206000915090505481565b7fa49807205ce4d355092ef5a8a18f56e8913cf4a201fbe287825b095693c2177560008054906101000a900473ffffffffffffffffffffffffffffffffffffffff1673ffffffffffffffffffffffffffffffffffffffff166391d14854826110e76124de565b6040518363ffffffff1660e01b8152600401611104929190613126565b602060405180830381865afa158015611121573d6000803e3d6000fd5b505050506040513d601f19601f82011682018060405250810190611145919061317b565b61115357611152816124e6565b5b61115d83836124fa565b505050565b6000602060007ffa6557a51a133888544923dacdca355721a35fbeebe974f1e7d28d3105e033cf60001c815260200190815260200160002054905090565b7fcaa210682aa7d6b03d19b857c87a6e4c61b2ea999c417f0652a36447d144f23860001c81565b600060216000838152602001908152602001600020600101549050919050565b7fa49807205ce4d355092ef5a8a18f56e8913cf4a201fbe287825b095693c2177560008054906101000a900473ffffffffffffffffffffffffffffffffffffffff1673ffffffffffffffffffffffffffffffffffffffff166391d148548261124d6124de565b6040518363ffffffff1660e01b815260040161126a929190613126565b602060405180830381865afa158015611287573d6000803e3d6000fd5b505050506040513d601f19601f820116820180604052508101906112ab919061317b565b6112b9576112b8816124e6565b5b8173ffffffffffffffffffffffffffffffffffffffff16602060007f3beeeeb89724bb62c1be7636d1b77a4ca5096701b9f62a5b667ba95489c0648f60001c8152602001908152602001600020819055505050565b6000602060007f1ec8339790254679015c7b4db055ec6bb45de4d3ff3193d766a1cc6ce145728d60001c815260200190815260200160002054905090565b7fa49807205ce4d355092ef5a8a18f56e8913cf4a201fbe287825b095693c2177560008054906101000a900473ffffffffffffffffffffffffffffffffffffffff1673ffffffffffffffffffffffffffffffffffffffff166391d14854826113b26124de565b6040518363ffffffff1660e01b81526004016113cf929190613126565b602060405180830381865afa1580156113ec573d6000803e3d6000fd5b505050506040513d601f19601f82011682018060405250810190611410919061317b565b61141e5761141d816124e6565b5b6114288383612556565b505050565b6114356124de565b73ffffffffffffffffffffffffffffffffffffffff168173ffffffffffffffffffffffffffffffffffffffff16146114a2576040517f08c379a0000000000000000000000000000000000000000000000000000000008152600401611499906132d5565b60405180910390fd5b6114ac8282612637565b5050565b7fe4a4e5425e0f84d8d68c8433df2512e8e48969299d032314614356a42435a73960001c81565b7fa49807205ce4d355092ef5a8a18f56e8913cf4a201fbe287825b095693c2177560008054906101000a900473ffffffffffffffffffffffffffffffffffffffff1673ffffffffffffffffffffffffffffffffffffffff166391d148548261153d6124de565b6040518363ffffffff1660e01b815260040161155a929190613126565b602060405180830381865afa158015611577573d6000803e3d6000fd5b505050506040513d601f19601f8201168201806040525081019061159b919061317b565b6115a9576115a8816124e6565b5b8173ffffffffffffffffffffffffffffffffffffffff16602060007fcaa210682aa7d6b03d19b857c87a6e4c61b2ea999c417f0652a36447d144f23860001c8152602001908152602001600020819055505050565b7f69661401bd068c022c278f73b3789a33e22d5eafe981e9265041b6fe72a122fe60001c81565b7fa49807205ce4d355092ef5a8a18f56e8913cf4a201fbe287825b095693c2177560008054906101000a900473ffffffffffffffffffffffffffffffffffffffff1673ffffffffffffffffffffffffffffffffffffffff166391d148548261168b6124de565b6040518363ffffffff1660e01b81526004016116a8929190613126565b602060405180830381865afa1580156116c5573d6000803e3d6000fd5b505050506040513d601f19601f820116820180604052508101906116e9919061317b565b6116f7576116f6816124e6565b5b8173ffffffffffffffffffffffffffffffffffffffff16602060007fee0b41063c9b42cf4cb1e7f8c47f5eeb6d29cf430aef897afc1cd2888dda3e0460001c8152602001908152602001600020819055505050565b7f1ec8339790254679015c7b4db055ec6bb45de4d3ff3193d766a1cc6ce145728d60001c81565b7f6fede10a232b276bc7c310abfbe151b58ba2286d825bc9e66c6e5fd488844e1060001c81565b7f3beeeeb89724bb62c1be7636d1b77a4ca5096701b9f62a5b667ba95489c0648f60001c81565b7f36051e26b7ee9ab8bfe79486c0d7a7a2112864a57aa54065540eccb3c4a4452260001c81565b7fa49807205ce4d355092ef5a8a18f56e8913cf4a201fbe287825b095693c2177581565b60008054906101000a900473ffffffffffffffffffffffffffffffffffffffff1681565b6000602060007f6ea4018daf79dd2b85ff55e23caa9708d35a5af81f862526e25c36407a95ad8160001c815260200190815260200160002054905090565b6000611878612719565b905060008160000160089054906101000a900460ff1615905060008260000160009054906101000a900467ffffffffffffffff1690506000808267ffffffffffffffff161480156118c65750825b9050600060018367ffffffffffffffff161480156118fb575060003073ffffffffffffffffffffffffffffffffffffffff163b145b905081158015611909575080155b15611940576040517ff92ee8a900000000000000000000000000000000000000000000000000000000815260040160405180910390fd5b60018560000160006101000a81548167ffffffffffffffff021916908367ffffffffffffffff16021790555083156119905760018560000160086101000a81548160ff0219169083151502179055505b61199930612741565b6119c37fa49807205ce4d355092ef5a8a18f56e8913cf4a201fbe287825b095693c2177533612556565b8315611a1f5760008560000160086101000a81548160ff0219169083151502179055507fc7f505b2f371ae2175ee4913f4499e1f2633a7b5936321eed1cdaeb6115181d26001604051611a169190613330565b60405180910390a15b5050505050565b7ffa6557a51a133888544923dacdca355721a35fbeebe974f1e7d28d3105e033cf60001c81565b6000602060007f6fede10a232b276bc7c310abfbe151b58ba2286d825bc9e66c6e5fd488844e1060001c815260200190815260200160002054905090565b7fa49807205ce4d355092ef5a8a18f56e8913cf4a201fbe287825b095693c2177560008054906101000a900473ffffffffffffffffffffffffffffffffffffffff1673ffffffffffffffffffffffffffffffffffffffff166391d1485482611af16124de565b6040518363ffffffff1660e01b8152600401611b0e929190613126565b602060405180830381865afa158015611b2b573d6000803e3d6000fd5b505050506040513d601f19601f82011682018060405250810190611b4f919061317b565b611b5d57611b5c816124e6565b5b8173ffffffffffffffffffffffffffffffffffffffff16602060007f69661401bd068c022c278f73b3789a33e22d5eafe981e9265041b6fe72a122fe60001c8152602001908152602001600020819055505050565b60006021600084815260200190815260200160002060020160009054906101000a900460ff1680611c4057506021600084815260200190815260200160002060000160008373ffffffffffffffffffffffffffffffffffffffff1673ffffffffffffffffffffffffffffffffffffffff16815260200190815260200160002060009054906101000a900460ff165b905092915050565b7f25cf2b509f2a7f322675b2a5322b182f44ad2c03ac941a0af17c9b178f5d5d5f81565b6000602060007f3beeeeb89724bb62c1be7636d1b77a4ca5096701b9f62a5b667ba95489c0648f60001c815260200190815260200160002054905090565b6000602060007fcaa210682aa7d6b03d19b857c87a6e4c61b2ea999c417f0652a36447d144f23860001c815260200190815260200160002054905090565b7fe3fb0f89bf43754026f5df1c4a405631deca482f630ed00c4f9897a30ea0764260001c81565b6000801b81565b6000602060007fee0b41063c9b42cf4cb1e7f8c47f5eeb6d29cf430aef897afc1cd2888dda3e0460001c815260200190815260200160002054905090565b6000602060007f69661401bd068c022c278f73b3789a33e22d5eafe981e9265041b6fe72a122fe60001c815260200190815260200160002054905090565b7f6ea4018daf79dd2b85ff55e23caa9708d35a5af81f862526e25c36407a95ad8160001c81565b7f454c90bb89af48c9c15cd0acb46e1f05be34b6d27d24973b724e6ff6477e129f60001c81565b7f9fb48ff2476bdf82119573e311cab5a3bbdadc90cac7a17cbe16c403581c2c3060001c81565b60216020528060005260406000206000915090508060010154908060020160009054906101000a900460ff16905082565b6000602060007f6fc77dba7c1971f6af1f32b3c7728da581e8b9fe553e83800c1e287b9288663860001c815260200190815260200160002054905090565b7fee0b41063c9b42cf4cb1e7f8c47f5eeb6d29cf430aef897afc1cd2888dda3e0460001c81565b7fa49807205ce4d355092ef5a8a18f56e8913cf4a201fbe287825b095693c2177560008054906101000a900473ffffffffffffffffffffffffffffffffffffffff1673ffffffffffffffffffffffffffffffffffffffff166391d1485482611f036124de565b6040518363ffffffff1660e01b8152600401611f20929190613126565b602060405180830381865afa158015611f3d573d6000803e3d6000fd5b505050506040513d601f19601f82011682018060405250810190611f61919061317b565b611f6f57611f6e816124e6565b5b620186a08263ffffffff161115611fbb576040517f08c379a0000000000000000000000000000000000000000000000000000000008152600401611fb2906133bd565b60405180910390fd5b8163ffffffff16602060007f6fede10a232b276bc7c310abfbe151b58ba2286d825bc9e66c6e5fd488844e1060001c8152602001908152602001600020819055505050565b7fa49807205ce4d355092ef5a8a18f56e8913cf4a201fbe287825b095693c2177560008054906101000a900473ffffffffffffffffffffffffffffffffffffffff1673ffffffffffffffffffffffffffffffffffffffff166391d14854826120666124de565b6040518363ffffffff1660e01b8152600401612083929190613126565b602060405180830381865afa1580156120a0573d6000803e3d6000fd5b505050506040513d601f19601f820116820180604052508101906120c4919061317b565b6120d2576120d1816124e6565b5b6120dc8383612637565b505050565b7f6fc77dba7c1971f6af1f32b3c7728da581e8b9fe553e83800c1e287b9288663860001c81565b7fa49807205ce4d355092ef5a8a18f56e8913cf4a201fbe287825b095693c2177560008054906101000a900473ffffffffffffffffffffffffffffffffffffffff1673ffffffffffffffffffffffffffffffffffffffff166391d148548261216e6124de565b6040518363ffffffff1660e01b815260040161218b929190613126565b602060405180830381865afa1580156121a8573d6000803e3d6000fd5b505050506040513d601f19601f820116820180604052508101906121cc919061317b565b6121da576121d9816124e6565b5b8173ffffffffffffffffffffffffffffffffffffffff16602060007ffa6557a51a133888544923dacdca355721a35fbeebe974f1e7d28d3105e033cf60001c8152602001908152602001600020819055505050565b670de0b6b3a764000081565b6000602060007f36051e26b7ee9ab8bfe79486c0d7a7a2112864a57aa54065540eccb3c4a4452260001c815260200190815260200160002054905090565b620f424081565b6000602060007fe4a4e5425e0f84d8d68c8433df2512e8e48969299d032314614356a42435a73960001c815260200190815260200160002054905090565b7ff66846415d2bf9eabda9e84793ff9c0ea96d87f50fc41e66aa16469c6a442f0581565b7fe01bea03000f908384fec12f1bb9cff12e05a5d91a94bfedd901d5696153a5a360001c81565b7fa49807205ce4d355092ef5a8a18f56e8913cf4a201fbe287825b095693c2177560008054906101000a900473ffffffffffffffffffffffffffffffffffffffff1673ffffffffffffffffffffffffffffffffffffffff166391d148548261236f6124de565b6040518363ffffffff1660e01b815260040161238c929190613126565b602060405180830381865afa1580156123a9573d6000803e3d6000fd5b505050506040513d601f19601f820116820180604052508101906123cd919061317b565b6123db576123da816124e6565b5b8473ffffffffffffffffffffffffffffffffffffffff16602060007f36051e26b7ee9ab8bfe79486c0d7a7a2112864a57aa54065540eccb3c4a4452260001c8152602001908152602001600020819055508373ffffffffffffffffffffffffffffffffffffffff16602060007fe4a4e5425e0f84d8d68c8433df2512e8e48969299d032314614356a42435a73960001c8152602001908152602001600020819055508273ffffffffffffffffffffffffffffffffffffffff16602060007f6ea4018daf79dd2b85ff55e23caa9708d35a5af81f862526e25c36407a95ad8160001c8152602001908152602001600020819055506124d782611e9d565b5050505050565b600033905090565b6124f7816124f26124de565b61279c565b50565b6000612505836111c7565b90508160216000858152602001908152602001600020600101819055508181847fbd79b86ffe0ab8e8776151514217cd7cacd52c909f66475c3af44e129f0b00ff60405160405180910390a4505050565b6125608282611bb2565b6126335760016021600084815260200190815260200160002060000160008373ffffffffffffffffffffffffffffffffffffffff1673ffffffffffffffffffffffffffffffffffffffff16815260200190815260200160002060006101000a81548160ff0219169083151502179055506125d86124de565b73ffffffffffffffffffffffffffffffffffffffff168173ffffffffffffffffffffffffffffffffffffffff16837f2f8788117e7eff1d82e926ec794901d17c78024a50270940304540a733656f0d60405160405180910390a45b5050565b6126418282611bb2565b156127155760006021600084815260200190815260200160002060000160008373ffffffffffffffffffffffffffffffffffffffff1673ffffffffffffffffffffffffffffffffffffffff16815260200190815260200160002060006101000a81548160ff0219169083151502179055506126ba6124de565b73ffffffffffffffffffffffffffffffffffffffff168173ffffffffffffffffffffffffffffffffffffffff16837ff6391f5c32d9c69d2a47ea670b442974b53935d1edc7fd64eb21e047a839171b60405160405180910390a45b5050565b60007ff0c57e16840df040f15088dc2f81fe391c3923bec73e23a9662efc9c229c6a00905090565b6127496128b3565b806000806101000a81548173ffffffffffffffffffffffffffffffffffffffff021916908373ffffffffffffffffffffffffffffffffffffffff1602179055506127916128f3565b612799612905565b50565b60008054906101000a900473ffffffffffffffffffffffffffffffffffffffff1673ffffffffffffffffffffffffffffffffffffffff166391d1485483836040518363ffffffff1660e01b81526004016127f7929190613126565b602060405180830381865afa158015612814573d6000803e3d6000fd5b505050506040513d601f19601f82011682018060405250810190612838919061317b565b6128af576128458161290f565b6128538360001c602061293c565b6040516020016128649291906134e6565b6040516020818303038152906040526040517f08c379a00000000000000000000000000000000000000000000000000000000081526004016128a6919061356a565b60405180910390fd5b5050565b6128bb612b82565b6128f1576040517fd7e6bcf800000000000000000000000000000000000000000000000000000000815260040160405180910390fd5b565b6128fb6128b3565b612903612ba2565b565b61290d6128b3565b565b60606129358273ffffffffffffffffffffffffffffffffffffffff16601460ff1661293c565b9050919050565b606060008390506000600284600261295491906135bb565b61295e91906135fd565b67ffffffffffffffff81111561297757612976613631565b5b6040519080825280601f01601f1916602001820160405280156129a95781602001600182028036833780820191505090505b5090507f3000000000000000000000000000000000000000000000000000000000000000816000815181106129e1576129e0613660565b5b60200101907effffffffffffffffffffffffffffffffffffffffffffffffffffffffffffff1916908160001a9053507f780000000000000000000000000000000000000000000000000000000000000081600181518110612a4557612a44613660565b5b60200101907effffffffffffffffffffffffffffffffffffffffffffffffffffffffffffff1916908160001a90535060006001856002612a8591906135bb565b612a8f91906135fd565b90505b6001811115612b2f577f3031323334353637383961626364656600000000000000000000000000000000600f841660108110612ad157612ad0613660565b5b1a60f81b828281518110612ae857612ae7613660565b5b60200101907effffffffffffffffffffffffffffffffffffffffffffffffffffffffffffff1916908160001a905350600483901c925080612b289061368f565b9050612a92565b5060008214612b775784846040517fe22e27eb000000000000000000000000000000000000000000000000000000008152600401612b6e9291906136b8565b60405180910390fd5b809250505092915050565b6000612b8c612719565b60000160089054906101000a900460ff16905090565b612baa6128b3565b6000612bb4612bc3565b90506001816000018190555050565b60007f9b779b17422d0df92223018b32b4d1fa46e071723d6817e2486d003becc55f00905090565b600082825260208201905092915050565b7f426173653a206e6f7420737570706f7274204d65746973207472616e73666572600082015250565b6000612c32602083612beb565b9150612c3d82612bfc565b602082019050919050565b60006020820190508181036000830152612c6181612c25565b9050919050565b600080fd5b600073ffffffffffffffffffffffffffffffffffffffff82169050919050565b6000612c9882612c6d565b9050919050565b612ca881612c8d565b8114612cb357600080fd5b50565b600081359050612cc581612c9f565b92915050565b600060208284031215612ce157612ce0612c68565b5b6000612cef84828501612cb6565b91505092915050565b600067ffffffffffffffff82169050919050565b612d1581612cf8565b8114612d2057600080fd5b50565b600081359050612d3281612d0c565b92915050565b600060208284031215612d4e57612d4d612c68565b5b6000612d5c84828501612d23565b91505092915050565b6000819050919050565b612d7881612d65565b8114612d8357600080fd5b50565b600081359050612d9581612d6f565b92915050565b600060208284031215612db157612db0612c68565b5b6000612dbf84828501612d86565b91505092915050565b612dd181612d65565b82525050565b6000602082019050612dec6000830184612dc8565b92915050565b6000819050919050565b612e0581612df2565b8114612e1057600080fd5b50565b600081359050612e2281612dfc565b92915050565b60008060408385031215612e3f57612e3e612c68565b5b6000612e4d85828601612e13565b9250506020612e5e85828601612e13565b9150509250929050565b612e7181612c8d565b82525050565b6000602082019050612e8c6000830184612e68565b92915050565b600060208284031215612ea857612ea7612c68565b5b6000612eb684828501612e13565b91505092915050565b612ec881612df2565b82525050565b6000602082019050612ee36000830184612ebf565b92915050565b612ef281612cf8565b82525050565b6000602082019050612f0d6000830184612ee9565b92915050565b60008060408385031215612f2a57612f29612c68565b5b6000612f3885828601612e13565b9250506020612f4985828601612cb6565b9150509250929050565b6000819050919050565b6000612f78612f73612f6e84612c6d565b612f53565b612c6d565b9050919050565b6000612f8a82612f5d565b9050919050565b6000612f9c82612f7f565b9050919050565b612fac81612f91565b82525050565b6000602082019050612fc76000830184612fa3565b92915050565b600063ffffffff82169050919050565b612fe681612fcd565b82525050565b60006020820190506130016000830184612fdd565b92915050565b60008115159050919050565b61301c81613007565b82525050565b60006020820190506130376000830184613013565b92915050565b60006040820190506130526000830185612ebf565b61305f6020830184613013565b9392505050565b61306f81612fcd565b811461307a57600080fd5b50565b60008135905061308c81613066565b92915050565b6000602082840312156130a8576130a7612c68565b5b60006130b68482850161307d565b91505092915050565b600080600080608085870312156130d9576130d8612c68565b5b60006130e787828801612cb6565b94505060206130f887828801612cb6565b935050604061310987828801612cb6565b925050606061311a8782880161307d565b91505092959194509250565b600060408201905061313b6000830185612ebf565b6131486020830184612e68565b9392505050565b61315881613007565b811461316357600080fd5b50565b6000815190506131758161314f565b92915050565b60006020828403121561319157613190612c68565b5b600061319f84828501613166565b91505092915050565b60006040820190506131bd6000830185612ee9565b6131ca6020830184612ee9565b9392505050565b7f436f6e6669673a2070726f746f636f6c5472656173757279206973207a65726f60008201527f2061646472657373000000000000000000000000000000000000000000000000602082015250565b600061322d602883612beb565b9150613238826131d1565b604082019050919050565b6000602082019050818103600083015261325c81613220565b9050919050565b7f416363657373436f6e74726f6c3a2063616e206f6e6c792072656e6f756e636560008201527f20726f6c657320666f722073656c660000000000000000000000000000000000602082015250565b60006132bf602f83612beb565b91506132ca82613263565b604082019050919050565b600060208201905081810360008301526132ee816132b2565b9050919050565b6000819050919050565b600061331a613315613310846132f5565b612f53565b612cf8565b9050919050565b61332a816132ff565b82525050565b60006020820190506133456000830184613321565b92915050565b7f436f6e6669673a2070726f746f636f6c5472656173757279526174696f206d7560008201527f7374206265206c657373207468616e2031303030300000000000000000000000602082015250565b60006133a7603583612beb565b91506133b28261334b565b604082019050919050565b600060208201905081810360008301526133d68161339a565b9050919050565b600081905092915050565b7f416363657373436f6e74726f6c3a206163636f756e7420000000000000000000600082015250565b600061341e6017836133dd565b9150613429826133e8565b601782019050919050565b600081519050919050565b60005b8381101561345d578082015181840152602081019050613442565b60008484015250505050565b600061347482613434565b61347e81856133dd565b935061348e81856020860161343f565b80840191505092915050565b7f206973206d697373696e6720726f6c6520000000000000000000000000000000600082015250565b60006134d06011836133dd565b91506134db8261349a565b601182019050919050565b60006134f182613411565b91506134fd8285613469565b9150613508826134c3565b91506135148284613469565b91508190509392505050565b6000601f19601f8301169050919050565b600061353c82613434565b6135468185612beb565b935061355681856020860161343f565b61355f81613520565b840191505092915050565b600060208201905081810360008301526135848184613531565b905092915050565b7f4e487b7100000000000000000000000000000000000000000000000000000000600052601160045260246000fd5b60006135c682612d65565b91506135d183612d65565b92508282026135df81612d65565b915082820484148315176135f6576135f561358c565b5b5092915050565b600061360882612d65565b915061361383612d65565b925082820190508082111561362b5761362a61358c565b5b92915050565b7f4e487b7100000000000000000000000000000000000000000000000000000000600052604160045260246000fd5b7f4e487b7100000000000000000000000000000000000000000000000000000000600052603260045260246000fd5b600061369a82612d65565b9150600082036136ad576136ac61358c565b5b600182039050919050565b60006040820190506136cd6000830185612dc8565b6136da6020830184612dc8565b939250505056fea26469706673582212205d06ec489dcf14d74c50be7f913115a0d4f70c7907a23d639527f75b5d3f4b2264736f6c63430008140033","opcodes":"PUSH1 0x80 PUSH1 0x40 MSTORE CALLVALUE DUP1 ISZERO PUSH2 0x10 JUMPI PUSH1 0x0 DUP1 REVERT JUMPDEST POP PUSH2 0x3717 DUP1 PUSH2 0x20 PUSH1 0x0 CODECOPY PUSH1 0x0 RETURN INVALID PUSH1 0x80 PUSH1 0x40 MSTORE PUSH1 0x4 CALLDATASIZE LT PUSH2 0x303 JUMPI PUSH1 0x0 CALLDATALOAD PUSH1 0xE0 SHR DUP1 PUSH4 0x8D40BD35 GT PUSH2 0x190 JUMPI DUP1 PUSH4 0xBF27726C GT PUSH2 0xDC JUMPI DUP1 PUSH4 0xE52083C6 GT PUSH2 0x95 JUMPI DUP1 PUSH4 0xE78CEA92 GT PUSH2 0x6F JUMPI DUP1 PUSH4 0xE78CEA92 EQ PUSH2 0xB73 JUMPI DUP1 PUSH4 0xF288A2E2 EQ PUSH2 0xB9E JUMPI DUP1 PUSH4 0xF9AA973F EQ PUSH2 0xBC9 JUMPI DUP1 PUSH4 0xFDA42E21 EQ PUSH2 0xBF4 JUMPI PUSH2 0x343 JUMP JUMPDEST DUP1 PUSH4 0xE52083C6 EQ PUSH2 0xAF2 JUMPI DUP1 PUSH4 0xE5974554 EQ PUSH2 0xB1D JUMPI DUP1 PUSH4 0xE63A391F EQ PUSH2 0xB48 JUMPI PUSH2 0x343 JUMP JUMPDEST DUP1 PUSH4 0xBF27726C EQ PUSH2 0x9F6 JUMPI DUP1 PUSH4 0xCB9EDEB1 EQ PUSH2 0xA21 JUMPI DUP1 PUSH4 0xD27BC94A EQ PUSH2 0xA4C JUMPI DUP1 PUSH4 0xD547741F EQ PUSH2 0xA75 JUMPI DUP1 PUSH4 0xD862E8D9 EQ PUSH2 0xA9E JUMPI DUP1 PUSH4 0xDE55DB9D EQ PUSH2 0xAC9 JUMPI PUSH2 0x343 JUMP JUMPDEST DUP1 PUSH4 0xA217FDDF GT PUSH2 0x149 JUMPI DUP1 PUSH4 0xA7D61819 GT PUSH2 0x123 JUMPI DUP1 PUSH4 0xA7D61819 EQ PUSH2 0x937 JUMPI DUP1 PUSH4 0xBAD1E139 EQ PUSH2 0x962 JUMPI DUP1 PUSH4 0xBBADF427 EQ PUSH2 0x98D JUMPI DUP1 PUSH4 0xBD99D7E1 EQ PUSH2 0x9B8 JUMPI PUSH2 0x343 JUMP JUMPDEST DUP1 PUSH4 0xA217FDDF EQ PUSH2 0x8B6 JUMPI DUP1 PUSH4 0xA2191470 EQ PUSH2 0x8E1 JUMPI DUP1 PUSH4 0xA2BE57AD EQ PUSH2 0x90C JUMPI PUSH2 0x343 JUMP JUMPDEST DUP1 PUSH4 0x8D40BD35 EQ PUSH2 0x7A4 JUMPI DUP1 PUSH4 0x91D14854 EQ PUSH2 0x7CD JUMPI DUP1 PUSH4 0x92C2BECC EQ PUSH2 0x80A JUMPI DUP1 PUSH4 0x9336CE80 EQ PUSH2 0x835 JUMPI DUP1 PUSH4 0x97EC19BE EQ PUSH2 0x860 JUMPI DUP1 PUSH4 0x97FC7177 EQ PUSH2 0x88B JUMPI PUSH2 0x343 JUMP JUMPDEST DUP1 PUSH4 0x3B4C46D0 GT PUSH2 0x24F JUMPI DUP1 PUSH4 0x72EF1540 GT PUSH2 0x208 JUMPI DUP1 PUSH4 0x803DB96D GT PUSH2 0x1E2 JUMPI DUP1 PUSH4 0x803DB96D EQ PUSH2 0x70C JUMPI DUP1 PUSH4 0x8129FC1C EQ PUSH2 0x737 JUMPI DUP1 PUSH4 0x88EF06BE EQ PUSH2 0x74E JUMPI DUP1 PUSH4 0x8B587B9C EQ PUSH2 0x779 JUMPI PUSH2 0x343 JUMP JUMPDEST DUP1 PUSH4 0x72EF1540 EQ PUSH2 0x68B JUMPI DUP1 PUSH4 0x75B238FC EQ PUSH2 0x6B6 JUMPI DUP1 PUSH4 0x79502C55 EQ PUSH2 0x6E1 JUMPI PUSH2 0x343 JUMP JUMPDEST DUP1 PUSH4 0x3B4C46D0 EQ PUSH2 0x58D JUMPI DUP1 PUSH4 0x3B8AD07F EQ PUSH2 0x5B6 JUMPI DUP1 PUSH4 0x43606F75 EQ PUSH2 0x5E1 JUMPI DUP1 PUSH4 0x4D19EAF1 EQ PUSH2 0x60A JUMPI DUP1 PUSH4 0x50C4A8A2 EQ PUSH2 0x635 JUMPI DUP1 PUSH4 0x71A1EA98 EQ PUSH2 0x660 JUMPI PUSH2 0x343 JUMP JUMPDEST DUP1 PUSH4 0x24059831 GT PUSH2 0x2BC JUMPI DUP1 PUSH4 0x2D76710B GT PUSH2 0x296 JUMPI DUP1 PUSH4 0x2D76710B EQ PUSH2 0x4E5 JUMPI DUP1 PUSH4 0x2F2FF15D EQ PUSH2 0x510 JUMPI DUP1 PUSH4 0x36568ABE EQ PUSH2 0x539 JUMPI DUP1 PUSH4 0x39EE2C3D EQ PUSH2 0x562 JUMPI PUSH2 0x343 JUMP JUMPDEST DUP1 PUSH4 0x24059831 EQ PUSH2 0x454 JUMPI DUP1 PUSH4 0x248A9CA3 EQ PUSH2 0x47F JUMPI DUP1 PUSH4 0x2C59155A EQ PUSH2 0x4BC JUMPI PUSH2 0x343 JUMP JUMPDEST DUP1 PUSH4 0x46BAFDD EQ PUSH2 0x348 JUMPI DUP1 PUSH4 0x93C4E21 EQ PUSH2 0x371 JUMPI DUP1 PUSH4 0xC5A61F8 EQ PUSH2 0x39A JUMPI DUP1 PUSH4 0xE9429BA EQ PUSH2 0x3C3 JUMPI DUP1 PUSH4 0x1E4E0091 EQ PUSH2 0x400 JUMPI DUP1 PUSH4 0x21951955 EQ PUSH2 0x429 JUMPI PUSH2 0x343 JUMP JUMPDEST CALLDATASIZE PUSH2 0x343 JUMPI PUSH1 0x40 MLOAD PUSH32 0x8C379A000000000000000000000000000000000000000000000000000000000 DUP2 MSTORE PUSH1 0x4 ADD PUSH2 0x33A SWAP1 PUSH2 0x2C48 JUMP JUMPDEST PUSH1 0x40 MLOAD DUP1 SWAP2 SUB SWAP1 REVERT JUMPDEST PUSH1 0x0 DUP1 REVERT JUMPDEST CALLVALUE DUP1 ISZERO PUSH2 0x354 JUMPI PUSH1 0x0 DUP1 REVERT JUMPDEST POP PUSH2 0x36F PUSH1 0x4 DUP1 CALLDATASIZE SUB DUP2 ADD SWAP1 PUSH2 0x36A SWAP2 SWAP1 PUSH2 0x2CCB JUMP JUMPDEST PUSH2 0xC1D JUMP JUMPDEST STOP JUMPDEST CALLVALUE DUP1 ISZERO PUSH2 0x37D JUMPI PUSH1 0x0 DUP1 REVERT JUMPDEST POP PUSH2 0x398 PUSH1 0x4 DUP1 CALLDATASIZE SUB DUP2 ADD SWAP1 PUSH2 0x393 SWAP2 SWAP1 PUSH2 0x2D38 JUMP JUMPDEST PUSH2 0xD44 JUMP JUMPDEST STOP JUMPDEST CALLVALUE DUP1 ISZERO PUSH2 0x3A6 JUMPI PUSH1 0x0 DUP1 REVERT JUMPDEST POP PUSH2 0x3C1 PUSH1 0x4 DUP1 CALLDATASIZE SUB DUP2 ADD SWAP1 PUSH2 0x3BC SWAP2 SWAP1 PUSH2 0x2CCB JUMP JUMPDEST PUSH2 0xED4 JUMP JUMPDEST STOP JUMPDEST CALLVALUE DUP1 ISZERO PUSH2 0x3CF JUMPI PUSH1 0x0 DUP1 REVERT JUMPDEST POP PUSH2 0x3EA PUSH1 0x4 DUP1 CALLDATASIZE SUB DUP2 ADD SWAP1 PUSH2 0x3E5 SWAP2 SWAP1 PUSH2 0x2D9B JUMP JUMPDEST PUSH2 0x106A JUMP JUMPDEST PUSH1 0x40 MLOAD PUSH2 0x3F7 SWAP2 SWAP1 PUSH2 0x2DD7 JUMP JUMPDEST PUSH1 0x40 MLOAD DUP1 SWAP2 SUB SWAP1 RETURN JUMPDEST CALLVALUE DUP1 ISZERO PUSH2 0x40C JUMPI PUSH1 0x0 DUP1 REVERT JUMPDEST POP PUSH2 0x427 PUSH1 0x4 DUP1 CALLDATASIZE SUB DUP2 ADD SWAP1 PUSH2 0x422 SWAP2 SWAP1 PUSH2 0x2E28 JUMP JUMPDEST PUSH2 0x1081 JUMP JUMPDEST STOP JUMPDEST CALLVALUE DUP1 ISZERO PUSH2 0x435 JUMPI PUSH1 0x0 DUP1 REVERT JUMPDEST POP PUSH2 0x43E PUSH2 0x1162 JUMP JUMPDEST PUSH1 0x40 MLOAD PUSH2 0x44B SWAP2 SWAP1 PUSH2 0x2E77 JUMP JUMPDEST PUSH1 0x40 MLOAD DUP1 SWAP2 SUB SWAP1 RETURN JUMPDEST CALLVALUE DUP1 ISZERO PUSH2 0x460 JUMPI PUSH1 0x0 DUP1 REVERT JUMPDEST POP PUSH2 0x469 PUSH2 0x11A0 JUMP JUMPDEST PUSH1 0x40 MLOAD PUSH2 0x476 SWAP2 SWAP1 PUSH2 0x2DD7 JUMP JUMPDEST PUSH1 0x40 MLOAD DUP1 SWAP2 SUB SWAP1 RETURN JUMPDEST CALLVALUE DUP1 ISZERO PUSH2 0x48B JUMPI PUSH1 0x0 DUP1 REVERT JUMPDEST POP PUSH2 0x4A6 PUSH1 0x4 DUP1 CALLDATASIZE SUB DUP2 ADD SWAP1 PUSH2 0x4A1 SWAP2 SWAP1 PUSH2 0x2E92 JUMP JUMPDEST PUSH2 0x11C7 JUMP JUMPDEST PUSH1 0x40 MLOAD PUSH2 0x4B3 SWAP2 SWAP1 PUSH2 0x2ECE JUMP JUMPDEST PUSH1 0x40 MLOAD DUP1 SWAP2 SUB SWAP1 RETURN JUMPDEST CALLVALUE DUP1 ISZERO PUSH2 0x4C8 JUMPI PUSH1 0x0 DUP1 REVERT JUMPDEST POP PUSH2 0x4E3 PUSH1 0x4 DUP1 CALLDATASIZE SUB DUP2 ADD SWAP1 PUSH2 0x4DE SWAP2 SWAP1 PUSH2 0x2CCB JUMP JUMPDEST PUSH2 0x11E7 JUMP JUMPDEST STOP JUMPDEST CALLVALUE DUP1 ISZERO PUSH2 0x4F1 JUMPI PUSH1 0x0 DUP1 REVERT JUMPDEST POP PUSH2 0x4FA PUSH2 0x130E JUMP JUMPDEST PUSH1 0x40 MLOAD PUSH2 0x507 SWAP2 SWAP1 PUSH2 0x2EF8 JUMP JUMPDEST PUSH1 0x40 MLOAD DUP1 SWAP2 SUB SWAP1 RETURN JUMPDEST CALLVALUE DUP1 ISZERO PUSH2 0x51C JUMPI PUSH1 0x0 DUP1 REVERT JUMPDEST POP PUSH2 0x537 PUSH1 0x4 DUP1 CALLDATASIZE SUB DUP2 ADD SWAP1 PUSH2 0x532 SWAP2 SWAP1 PUSH2 0x2F13 JUMP JUMPDEST PUSH2 0x134C JUMP JUMPDEST STOP JUMPDEST CALLVALUE DUP1 ISZERO PUSH2 0x545 JUMPI PUSH1 0x0 DUP1 REVERT JUMPDEST POP PUSH2 0x560 PUSH1 0x4 DUP1 CALLDATASIZE SUB DUP2 ADD SWAP1 PUSH2 0x55B SWAP2 SWAP1 PUSH2 0x2F13 JUMP JUMPDEST PUSH2 0x142D JUMP JUMPDEST STOP JUMPDEST CALLVALUE DUP1 ISZERO PUSH2 0x56E JUMPI PUSH1 0x0 DUP1 REVERT JUMPDEST POP PUSH2 0x577 PUSH2 0x14B0 JUMP JUMPDEST PUSH1 0x40 MLOAD PUSH2 0x584 SWAP2 SWAP1 PUSH2 0x2DD7 JUMP JUMPDEST PUSH1 0x40 MLOAD DUP1 SWAP2 SUB SWAP1 RETURN JUMPDEST CALLVALUE DUP1 ISZERO PUSH2 0x599 JUMPI PUSH1 0x0 DUP1 REVERT JUMPDEST POP PUSH2 0x5B4 PUSH1 0x4 DUP1 CALLDATASIZE SUB DUP2 ADD SWAP1 PUSH2 0x5AF SWAP2 SWAP1 PUSH2 0x2CCB JUMP JUMPDEST PUSH2 0x14D7 JUMP JUMPDEST STOP JUMPDEST CALLVALUE DUP1 ISZERO PUSH2 0x5C2 JUMPI PUSH1 0x0 DUP1 REVERT JUMPDEST POP PUSH2 0x5CB PUSH2 0x15FE JUMP JUMPDEST PUSH1 0x40 MLOAD PUSH2 0x5D8 SWAP2 SWAP1 PUSH2 0x2DD7 JUMP JUMPDEST PUSH1 0x40 MLOAD DUP1 SWAP2 SUB SWAP1 RETURN JUMPDEST CALLVALUE DUP1 ISZERO PUSH2 0x5ED JUMPI PUSH1 0x0 DUP1 REVERT JUMPDEST POP PUSH2 0x608 PUSH1 0x4 DUP1 CALLDATASIZE SUB DUP2 ADD SWAP1 PUSH2 0x603 SWAP2 SWAP1 PUSH2 0x2CCB JUMP JUMPDEST PUSH2 0x1625 JUMP JUMPDEST STOP JUMPDEST CALLVALUE DUP1 ISZERO PUSH2 0x616 JUMPI PUSH1 0x0 DUP1 REVERT JUMPDEST POP PUSH2 0x61F PUSH2 0x174C JUMP JUMPDEST PUSH1 0x40 MLOAD PUSH2 0x62C SWAP2 SWAP1 PUSH2 0x2DD7 JUMP JUMPDEST PUSH1 0x40 MLOAD DUP1 SWAP2 SUB SWAP1 RETURN JUMPDEST CALLVALUE DUP1 ISZERO PUSH2 0x641 JUMPI PUSH1 0x0 DUP1 REVERT JUMPDEST POP PUSH2 0x64A PUSH2 0x1773 JUMP JUMPDEST PUSH1 0x40 MLOAD PUSH2 0x657 SWAP2 SWAP1 PUSH2 0x2DD7 JUMP JUMPDEST PUSH1 0x40 MLOAD DUP1 SWAP2 SUB SWAP1 RETURN JUMPDEST CALLVALUE DUP1 ISZERO PUSH2 0x66C JUMPI PUSH1 0x0 DUP1 REVERT JUMPDEST POP PUSH2 0x675 PUSH2 0x179A JUMP JUMPDEST PUSH1 0x40 MLOAD PUSH2 0x682 SWAP2 SWAP1 PUSH2 0x2DD7 JUMP JUMPDEST PUSH1 0x40 MLOAD DUP1 SWAP2 SUB SWAP1 RETURN JUMPDEST CALLVALUE DUP1 ISZERO PUSH2 0x697 JUMPI PUSH1 0x0 DUP1 REVERT JUMPDEST POP PUSH2 0x6A0 PUSH2 0x17C1 JUMP JUMPDEST PUSH1 0x40 MLOAD PUSH2 0x6AD SWAP2 SWAP1 PUSH2 0x2DD7 JUMP JUMPDEST PUSH1 0x40 MLOAD DUP1 SWAP2 SUB SWAP1 RETURN JUMPDEST CALLVALUE DUP1 ISZERO PUSH2 0x6C2 JUMPI PUSH1 0x0 DUP1 REVERT JUMPDEST POP PUSH2 0x6CB PUSH2 0x17E8 JUMP JUMPDEST PUSH1 0x40 MLOAD PUSH2 0x6D8 SWAP2 SWAP1 PUSH2 0x2ECE JUMP JUMPDEST PUSH1 0x40 MLOAD DUP1 SWAP2 SUB SWAP1 RETURN JUMPDEST CALLVALUE DUP1 ISZERO PUSH2 0x6ED JUMPI PUSH1 0x0 DUP1 REVERT JUMPDEST POP PUSH2 0x6F6 PUSH2 0x180C JUMP JUMPDEST PUSH1 0x40 MLOAD PUSH2 0x703 SWAP2 SWAP1 PUSH2 0x2FB2 JUMP JUMPDEST PUSH1 0x40 MLOAD DUP1 SWAP2 SUB SWAP1 RETURN JUMPDEST CALLVALUE DUP1 ISZERO PUSH2 0x718 JUMPI PUSH1 0x0 DUP1 REVERT JUMPDEST POP PUSH2 0x721 PUSH2 0x1830 JUMP JUMPDEST PUSH1 0x40 MLOAD PUSH2 0x72E SWAP2 SWAP1 PUSH2 0x2E77 JUMP JUMPDEST PUSH1 0x40 MLOAD DUP1 SWAP2 SUB SWAP1 RETURN JUMPDEST CALLVALUE DUP1 ISZERO PUSH2 0x743 JUMPI PUSH1 0x0 DUP1 REVERT JUMPDEST POP PUSH2 0x74C PUSH2 0x186E JUMP JUMPDEST STOP JUMPDEST CALLVALUE DUP1 ISZERO PUSH2 0x75A JUMPI PUSH1 0x0 DUP1 REVERT JUMPDEST POP PUSH2 0x763 PUSH2 0x1A26 JUMP JUMPDEST PUSH1 0x40 MLOAD PUSH2 0x770 SWAP2 SWAP1 PUSH2 0x2DD7 JUMP JUMPDEST PUSH1 0x40 MLOAD DUP1 SWAP2 SUB SWAP1 RETURN JUMPDEST CALLVALUE DUP1 ISZERO PUSH2 0x785 JUMPI PUSH1 0x0 DUP1 REVERT JUMPDEST POP PUSH2 0x78E PUSH2 0x1A4D JUMP JUMPDEST PUSH1 0x40 MLOAD PUSH2 0x79B SWAP2 SWAP1 PUSH2 0x2FEC JUMP JUMPDEST PUSH1 0x40 MLOAD DUP1 SWAP2 SUB SWAP1 RETURN JUMPDEST CALLVALUE DUP1 ISZERO PUSH2 0x7B0 JUMPI PUSH1 0x0 DUP1 REVERT JUMPDEST POP PUSH2 0x7CB PUSH1 0x4 DUP1 CALLDATASIZE SUB DUP2 ADD SWAP1 PUSH2 0x7C6 SWAP2 SWAP1 PUSH2 0x2CCB JUMP JUMPDEST PUSH2 0x1A8B JUMP JUMPDEST STOP JUMPDEST CALLVALUE DUP1 ISZERO PUSH2 0x7D9 JUMPI PUSH1 0x0 DUP1 REVERT JUMPDEST POP PUSH2 0x7F4 PUSH1 0x4 DUP1 CALLDATASIZE SUB DUP2 ADD SWAP1 PUSH2 0x7EF SWAP2 SWAP1 PUSH2 0x2F13 JUMP JUMPDEST PUSH2 0x1BB2 JUMP JUMPDEST PUSH1 0x40 MLOAD PUSH2 0x801 SWAP2 SWAP1 PUSH2 0x3022 JUMP JUMPDEST PUSH1 0x40 MLOAD DUP1 SWAP2 SUB SWAP1 RETURN JUMPDEST CALLVALUE DUP1 ISZERO PUSH2 0x816 JUMPI PUSH1 0x0 DUP1 REVERT JUMPDEST POP PUSH2 0x81F PUSH2 0x1C48 JUMP JUMPDEST PUSH1 0x40 MLOAD PUSH2 0x82C SWAP2 SWAP1 PUSH2 0x2ECE JUMP JUMPDEST PUSH1 0x40 MLOAD DUP1 SWAP2 SUB SWAP1 RETURN JUMPDEST CALLVALUE DUP1 ISZERO PUSH2 0x841 JUMPI PUSH1 0x0 DUP1 REVERT JUMPDEST POP PUSH2 0x84A PUSH2 0x1C6C JUMP JUMPDEST PUSH1 0x40 MLOAD PUSH2 0x857 SWAP2 SWAP1 PUSH2 0x2E77 JUMP JUMPDEST PUSH1 0x40 MLOAD DUP1 SWAP2 SUB SWAP1 RETURN JUMPDEST CALLVALUE DUP1 ISZERO PUSH2 0x86C JUMPI PUSH1 0x0 DUP1 REVERT JUMPDEST POP PUSH2 0x875 PUSH2 0x1CAA JUMP JUMPDEST PUSH1 0x40 MLOAD PUSH2 0x882 SWAP2 SWAP1 PUSH2 0x2E77 JUMP JUMPDEST PUSH1 0x40 MLOAD DUP1 SWAP2 SUB SWAP1 RETURN JUMPDEST CALLVALUE DUP1 ISZERO PUSH2 0x897 JUMPI PUSH1 0x0 DUP1 REVERT JUMPDEST POP PUSH2 0x8A0 PUSH2 0x1CE8 JUMP JUMPDEST PUSH1 0x40 MLOAD PUSH2 0x8AD SWAP2 SWAP1 PUSH2 0x2DD7 JUMP JUMPDEST PUSH1 0x40 MLOAD DUP1 SWAP2 SUB SWAP1 RETURN JUMPDEST CALLVALUE DUP1 ISZERO PUSH2 0x8C2 JUMPI PUSH1 0x0 DUP1 REVERT JUMPDEST POP PUSH2 0x8CB PUSH2 0x1D0F JUMP JUMPDEST PUSH1 0x40 MLOAD PUSH2 0x8D8 SWAP2 SWAP1 PUSH2 0x2ECE JUMP JUMPDEST PUSH1 0x40 MLOAD DUP1 SWAP2 SUB SWAP1 RETURN JUMPDEST CALLVALUE DUP1 ISZERO PUSH2 0x8ED JUMPI PUSH1 0x0 DUP1 REVERT JUMPDEST POP PUSH2 0x8F6 PUSH2 0x1D16 JUMP JUMPDEST PUSH1 0x40 MLOAD PUSH2 0x903 SWAP2 SWAP1 PUSH2 0x2E77 JUMP JUMPDEST PUSH1 0x40 MLOAD DUP1 SWAP2 SUB SWAP1 RETURN JUMPDEST CALLVALUE DUP1 ISZERO PUSH2 0x918 JUMPI PUSH1 0x0 DUP1 REVERT JUMPDEST POP PUSH2 0x921 PUSH2 0x1D54 JUMP JUMPDEST PUSH1 0x40 MLOAD PUSH2 0x92E SWAP2 SWAP1 PUSH2 0x2E77 JUMP JUMPDEST PUSH1 0x40 MLOAD DUP1 SWAP2 SUB SWAP1 RETURN JUMPDEST CALLVALUE DUP1 ISZERO PUSH2 0x943 JUMPI PUSH1 0x0 DUP1 REVERT JUMPDEST POP PUSH2 0x94C PUSH2 0x1D92 JUMP JUMPDEST PUSH1 0x40 MLOAD PUSH2 0x959 SWAP2 SWAP1 PUSH2 0x2DD7 JUMP JUMPDEST PUSH1 0x40 MLOAD DUP1 SWAP2 SUB SWAP1 RETURN JUMPDEST CALLVALUE DUP1 ISZERO PUSH2 0x96E JUMPI PUSH1 0x0 DUP1 REVERT JUMPDEST POP PUSH2 0x977 PUSH2 0x1DB9 JUMP JUMPDEST PUSH1 0x40 MLOAD PUSH2 0x984 SWAP2 SWAP1 PUSH2 0x2DD7 JUMP JUMPDEST PUSH1 0x40 MLOAD DUP1 SWAP2 SUB SWAP1 RETURN JUMPDEST CALLVALUE DUP1 ISZERO PUSH2 0x999 JUMPI PUSH1 0x0 DUP1 REVERT JUMPDEST POP PUSH2 0x9A2 PUSH2 0x1DE0 JUMP JUMPDEST PUSH1 0x40 MLOAD PUSH2 0x9AF SWAP2 SWAP1 PUSH2 0x2DD7 JUMP JUMPDEST PUSH1 0x40 MLOAD DUP1 SWAP2 SUB SWAP1 RETURN JUMPDEST CALLVALUE DUP1 ISZERO PUSH2 0x9C4 JUMPI PUSH1 0x0 DUP1 REVERT JUMPDEST POP PUSH2 0x9DF PUSH1 0x4 DUP1 CALLDATASIZE SUB DUP2 ADD SWAP1 PUSH2 0x9DA SWAP2 SWAP1 PUSH2 0x2E92 JUMP JUMPDEST PUSH2 0x1E07 JUMP JUMPDEST PUSH1 0x40 MLOAD PUSH2 0x9ED SWAP3 SWAP2 SWAP1 PUSH2 0x303D JUMP JUMPDEST PUSH1 0x40 MLOAD DUP1 SWAP2 SUB SWAP1 RETURN JUMPDEST CALLVALUE DUP1 ISZERO PUSH2 0xA02 JUMPI PUSH1 0x0 DUP1 REVERT JUMPDEST POP PUSH2 0xA0B PUSH2 0x1E38 JUMP JUMPDEST PUSH1 0x40 MLOAD PUSH2 0xA18 SWAP2 SWAP1 PUSH2 0x2E77 JUMP JUMPDEST PUSH1 0x40 MLOAD DUP1 SWAP2 SUB SWAP1 RETURN JUMPDEST CALLVALUE DUP1 ISZERO PUSH2 0xA2D JUMPI PUSH1 0x0 DUP1 REVERT JUMPDEST POP PUSH2 0xA36 PUSH2 0x1E76 JUMP JUMPDEST PUSH1 0x40 MLOAD PUSH2 0xA43 SWAP2 SWAP1 PUSH2 0x2DD7 JUMP JUMPDEST PUSH1 0x40 MLOAD DUP1 SWAP2 SUB SWAP1 RETURN JUMPDEST CALLVALUE DUP1 ISZERO PUSH2 0xA58 JUMPI PUSH1 0x0 DUP1 REVERT JUMPDEST POP PUSH2 0xA73 PUSH1 0x4 DUP1 CALLDATASIZE SUB DUP2 ADD SWAP1 PUSH2 0xA6E SWAP2 SWAP1 PUSH2 0x3092 JUMP JUMPDEST PUSH2 0x1E9D JUMP JUMPDEST STOP JUMPDEST CALLVALUE DUP1 ISZERO PUSH2 0xA81 JUMPI PUSH1 0x0 DUP1 REVERT JUMPDEST POP PUSH2 0xA9C PUSH1 0x4 DUP1 CALLDATASIZE SUB DUP2 ADD SWAP1 PUSH2 0xA97 SWAP2 SWAP1 PUSH2 0x2F13 JUMP JUMPDEST PUSH2 0x2000 JUMP JUMPDEST STOP JUMPDEST CALLVALUE DUP1 ISZERO PUSH2 0xAAA JUMPI PUSH1 0x0 DUP1 REVERT JUMPDEST POP PUSH2 0xAB3 PUSH2 0x20E1 JUMP JUMPDEST PUSH1 0x40 MLOAD PUSH2 0xAC0 SWAP2 SWAP1 PUSH2 0x2DD7 JUMP JUMPDEST PUSH1 0x40 MLOAD DUP1 SWAP2 SUB SWAP1 RETURN JUMPDEST CALLVALUE DUP1 ISZERO PUSH2 0xAD5 JUMPI PUSH1 0x0 DUP1 REVERT JUMPDEST POP PUSH2 0xAF0 PUSH1 0x4 DUP1 CALLDATASIZE SUB DUP2 ADD SWAP1 PUSH2 0xAEB SWAP2 SWAP1 PUSH2 0x2CCB JUMP JUMPDEST PUSH2 0x2108 JUMP JUMPDEST STOP JUMPDEST CALLVALUE DUP1 ISZERO PUSH2 0xAFE JUMPI PUSH1 0x0 DUP1 REVERT JUMPDEST POP PUSH2 0xB07 PUSH2 0x222F JUMP JUMPDEST PUSH1 0x40 MLOAD PUSH2 0xB14 SWAP2 SWAP1 PUSH2 0x2DD7 JUMP JUMPDEST PUSH1 0x40 MLOAD DUP1 SWAP2 SUB SWAP1 RETURN JUMPDEST CALLVALUE DUP1 ISZERO PUSH2 0xB29 JUMPI PUSH1 0x0 DUP1 REVERT JUMPDEST POP PUSH2 0xB32 PUSH2 0x223B JUMP JUMPDEST PUSH1 0x40 MLOAD PUSH2 0xB3F SWAP2 SWAP1 PUSH2 0x2E77 JUMP JUMPDEST PUSH1 0x40 MLOAD DUP1 SWAP2 SUB SWAP1 RETURN JUMPDEST CALLVALUE DUP1 ISZERO PUSH2 0xB54 JUMPI PUSH1 0x0 DUP1 REVERT JUMPDEST POP PUSH2 0xB5D PUSH2 0x2279 JUMP JUMPDEST PUSH1 0x40 MLOAD PUSH2 0xB6A SWAP2 SWAP1 PUSH2 0x2EF8 JUMP JUMPDEST PUSH1 0x40 MLOAD DUP1 SWAP2 SUB SWAP1 RETURN JUMPDEST CALLVALUE DUP1 ISZERO PUSH2 0xB7F JUMPI PUSH1 0x0 DUP1 REVERT JUMPDEST POP PUSH2 0xB88 PUSH2 0x2280 JUMP JUMPDEST PUSH1 0x40 MLOAD PUSH2 0xB95 SWAP2 SWAP1 PUSH2 0x2E77 JUMP JUMPDEST PUSH1 0x40 MLOAD DUP1 SWAP2 SUB SWAP1 RETURN JUMPDEST CALLVALUE DUP1 ISZERO PUSH2 0xBAA JUMPI PUSH1 0x0 DUP1 REVERT JUMPDEST POP PUSH2 0xBB3 PUSH2 0x22BE JUMP JUMPDEST PUSH1 0x40 MLOAD PUSH2 0xBC0 SWAP2 SWAP1 PUSH2 0x2ECE JUMP JUMPDEST PUSH1 0x40 MLOAD DUP1 SWAP2 SUB SWAP1 RETURN JUMPDEST CALLVALUE DUP1 ISZERO PUSH2 0xBD5 JUMPI PUSH1 0x0 DUP1 REVERT JUMPDEST POP PUSH2 0xBDE PUSH2 0x22E2 JUMP JUMPDEST PUSH1 0x40 MLOAD PUSH2 0xBEB SWAP2 SWAP1 PUSH2 0x2DD7 JUMP JUMPDEST PUSH1 0x40 MLOAD DUP1 SWAP2 SUB SWAP1 RETURN JUMPDEST CALLVALUE DUP1 ISZERO PUSH2 0xC00 JUMPI PUSH1 0x0 DUP1 REVERT JUMPDEST POP PUSH2 0xC1B PUSH1 0x4 DUP1 CALLDATASIZE SUB DUP2 ADD SWAP1 PUSH2 0xC16 SWAP2 SWAP1 PUSH2 0x30BF JUMP JUMPDEST PUSH2 0x2309 JUMP JUMPDEST STOP JUMPDEST PUSH32 0xA49807205CE4D355092EF5A8A18F56E8913CF4A201FBE287825B095693C21775 PUSH1 0x0 DUP1 SLOAD SWAP1 PUSH2 0x100 EXP SWAP1 DIV PUSH20 0xFFFFFFFFFFFFFFFFFFFFFFFFFFFFFFFFFFFFFFFF AND PUSH20 0xFFFFFFFFFFFFFFFFFFFFFFFFFFFFFFFFFFFFFFFF AND PUSH4 0x91D14854 DUP3 PUSH2 0xC83 PUSH2 0x24DE JUMP JUMPDEST PUSH1 0x40 MLOAD DUP4 PUSH4 0xFFFFFFFF AND PUSH1 0xE0 SHL DUP2 MSTORE PUSH1 0x4 ADD PUSH2 0xCA0 SWAP3 SWAP2 SWAP1 PUSH2 0x3126 JUMP JUMPDEST PUSH1 0x20 PUSH1 0x40 MLOAD DUP1 DUP4 SUB DUP2 DUP7 GAS STATICCALL ISZERO DUP1 ISZERO PUSH2 0xCBD JUMPI RETURNDATASIZE PUSH1 0x0 DUP1 RETURNDATACOPY RETURNDATASIZE PUSH1 0x0 REVERT JUMPDEST POP POP POP POP PUSH1 0x40 MLOAD RETURNDATASIZE PUSH1 0x1F NOT PUSH1 0x1F DUP3 ADD AND DUP3 ADD DUP1 PUSH1 0x40 MSTORE POP DUP2 ADD SWAP1 PUSH2 0xCE1 SWAP2 SWAP1 PUSH2 0x317B JUMP JUMPDEST PUSH2 0xCEF JUMPI PUSH2 0xCEE DUP2 PUSH2 0x24E6 JUMP JUMPDEST JUMPDEST DUP2 PUSH20 0xFFFFFFFFFFFFFFFFFFFFFFFFFFFFFFFFFFFFFFFF AND PUSH1 0x20 PUSH1 0x0 PUSH32 0x6FC77DBA7C1971F6AF1F32B3C7728DA581E8B9FE553E83800C1E287B92886638 PUSH1 0x0 SHR DUP2 MSTORE PUSH1 0x20 ADD SWAP1 DUP2 MSTORE PUSH1 0x20 ADD PUSH1 0x0 KECCAK256 DUP2 SWAP1 SSTORE POP POP POP JUMP JUMPDEST PUSH32 0xA49807205CE4D355092EF5A8A18F56E8913CF4A201FBE287825B095693C21775 PUSH1 0x0 DUP1 SLOAD SWAP1 PUSH2 0x100 EXP SWAP1 DIV PUSH20 0xFFFFFFFFFFFFFFFFFFFFFFFFFFFFFFFFFFFFFFFF AND PUSH20 0xFFFFFFFFFFFFFFFFFFFFFFFFFFFFFFFFFFFFFFFF AND PUSH4 0x91D14854 DUP3 PUSH2 0xDAA PUSH2 0x24DE JUMP JUMPDEST PUSH1 0x40 MLOAD DUP4 PUSH4 0xFFFFFFFF AND PUSH1 0xE0 SHL DUP2 MSTORE PUSH1 0x4 ADD PUSH2 0xDC7 SWAP3 SWAP2 SWAP1 PUSH2 0x3126 JUMP JUMPDEST PUSH1 0x20 PUSH1 0x40 MLOAD DUP1 DUP4 SUB DUP2 DUP7 GAS STATICCALL ISZERO DUP1 ISZERO PUSH2 0xDE4 JUMPI RETURNDATASIZE PUSH1 0x0 DUP1 RETURNDATACOPY RETURNDATASIZE PUSH1 0x0 REVERT JUMPDEST POP POP POP POP PUSH1 0x40 MLOAD RETURNDATASIZE PUSH1 0x1F NOT PUSH1 0x1F DUP3 ADD AND DUP3 ADD DUP1 PUSH1 0x40 MSTORE POP DUP2 ADD SWAP1 PUSH2 0xE08 SWAP2 SWAP1 PUSH2 0x317B JUMP JUMPDEST PUSH2 0xE16 JUMPI PUSH2 0xE15 DUP2 PUSH2 0x24E6 JUMP JUMPDEST JUMPDEST PUSH1 0x0 PUSH1 0x20 PUSH1 0x0 PUSH32 0x1EC8339790254679015C7B4DB055EC6BB45DE4D3FF3193D766A1CC6CE145728D PUSH1 0x0 SHR DUP2 MSTORE PUSH1 0x20 ADD SWAP1 DUP2 MSTORE PUSH1 0x20 ADD PUSH1 0x0 KECCAK256 SLOAD SWAP1 POP DUP3 PUSH8 0xFFFFFFFFFFFFFFFF AND PUSH1 0x20 PUSH1 0x0 PUSH32 0x1EC8339790254679015C7B4DB055EC6BB45DE4D3FF3193D766A1CC6CE145728D PUSH1 0x0 SHR DUP2 MSTORE PUSH1 0x20 ADD SWAP1 DUP2 MSTORE PUSH1 0x20 ADD PUSH1 0x0 KECCAK256 DUP2 SWAP1 SSTORE POP PUSH32 0xC177A0244F4A8707676367719773686001FBA49FD7289A82AC5B48AD94C2F633 DUP2 DUP5 PUSH1 0x40 MLOAD PUSH2 0xEC7 SWAP3 SWAP2 SWAP1 PUSH2 0x31A8 JUMP JUMPDEST PUSH1 0x40 MLOAD DUP1 SWAP2 SUB SWAP1 LOG1 POP POP POP JUMP JUMPDEST PUSH32 0xA49807205CE4D355092EF5A8A18F56E8913CF4A201FBE287825B095693C21775 PUSH1 0x0 DUP1 SLOAD SWAP1 PUSH2 0x100 EXP SWAP1 DIV PUSH20 0xFFFFFFFFFFFFFFFFFFFFFFFFFFFFFFFFFFFFFFFF AND PUSH20 0xFFFFFFFFFFFFFFFFFFFFFFFFFFFFFFFFFFFFFFFF AND PUSH4 0x91D14854 DUP3 PUSH2 0xF3A PUSH2 0x24DE JUMP JUMPDEST PUSH1 0x40 MLOAD DUP4 PUSH4 0xFFFFFFFF AND PUSH1 0xE0 SHL DUP2 MSTORE PUSH1 0x4 ADD PUSH2 0xF57 SWAP3 SWAP2 SWAP1 PUSH2 0x3126 JUMP JUMPDEST PUSH1 0x20 PUSH1 0x40 MLOAD DUP1 DUP4 SUB DUP2 DUP7 GAS STATICCALL ISZERO DUP1 ISZERO PUSH2 0xF74 JUMPI RETURNDATASIZE PUSH1 0x0 DUP1 RETURNDATACOPY RETURNDATASIZE PUSH1 0x0 REVERT JUMPDEST POP POP POP POP PUSH1 0x40 MLOAD RETURNDATASIZE PUSH1 0x1F NOT PUSH1 0x1F DUP3 ADD AND DUP3 ADD DUP1 PUSH1 0x40 MSTORE POP DUP2 ADD SWAP1 PUSH2 0xF98 SWAP2 SWAP1 PUSH2 0x317B JUMP JUMPDEST PUSH2 0xFA6 JUMPI PUSH2 0xFA5 DUP2 PUSH2 0x24E6 JUMP JUMPDEST JUMPDEST PUSH1 0x0 PUSH20 0xFFFFFFFFFFFFFFFFFFFFFFFFFFFFFFFFFFFFFFFF AND DUP3 PUSH20 0xFFFFFFFFFFFFFFFFFFFFFFFFFFFFFFFFFFFFFFFF AND SUB PUSH2 0x1015 JUMPI PUSH1 0x40 MLOAD PUSH32 0x8C379A000000000000000000000000000000000000000000000000000000000 DUP2 MSTORE PUSH1 0x4 ADD PUSH2 0x100C SWAP1 PUSH2 0x3243 JUMP JUMPDEST PUSH1 0x40 MLOAD DUP1 SWAP2 SUB SWAP1 REVERT JUMPDEST DUP2 PUSH20 0xFFFFFFFFFFFFFFFFFFFFFFFFFFFFFFFFFFFFFFFF AND PUSH1 0x20 PUSH1 0x0 PUSH32 0x6EA4018DAF79DD2B85FF55E23CAA9708D35A5AF81F862526E25C36407A95AD81 PUSH1 0x0 SHR DUP2 MSTORE PUSH1 0x20 ADD SWAP1 DUP2 MSTORE PUSH1 0x20 ADD PUSH1 0x0 KECCAK256 DUP2 SWAP1 SSTORE POP POP POP JUMP JUMPDEST PUSH1 0x20 DUP1 MSTORE DUP1 PUSH1 0x0 MSTORE PUSH1 0x40 PUSH1 0x0 KECCAK256 PUSH1 0x0 SWAP2 POP SWAP1 POP SLOAD DUP2 JUMP JUMPDEST PUSH32 0xA49807205CE4D355092EF5A8A18F56E8913CF4A201FBE287825B095693C21775 PUSH1 0x0 DUP1 SLOAD SWAP1 PUSH2 0x100 EXP SWAP1 DIV PUSH20 0xFFFFFFFFFFFFFFFFFFFFFFFFFFFFFFFFFFFFFFFF AND PUSH20 0xFFFFFFFFFFFFFFFFFFFFFFFFFFFFFFFFFFFFFFFF AND PUSH4 0x91D14854 DUP3 PUSH2 0x10E7 PUSH2 0x24DE JUMP JUMPDEST PUSH1 0x40 MLOAD DUP4 PUSH4 0xFFFFFFFF AND PUSH1 0xE0 SHL DUP2 MSTORE PUSH1 0x4 ADD PUSH2 0x1104 SWAP3 SWAP2 SWAP1 PUSH2 0x3126 JUMP JUMPDEST PUSH1 0x20 PUSH1 0x40 MLOAD DUP1 DUP4 SUB DUP2 DUP7 GAS STATICCALL ISZERO DUP1 ISZERO PUSH2 0x1121 JUMPI RETURNDATASIZE PUSH1 0x0 DUP1 RETURNDATACOPY RETURNDATASIZE PUSH1 0x0 REVERT JUMPDEST POP POP POP POP PUSH1 0x40 MLOAD RETURNDATASIZE PUSH1 0x1F NOT PUSH1 0x1F DUP3 ADD AND DUP3 ADD DUP1 PUSH1 0x40 MSTORE POP DUP2 ADD SWAP1 PUSH2 0x1145 SWAP2 SWAP1 PUSH2 0x317B JUMP JUMPDEST PUSH2 0x1153 JUMPI PUSH2 0x1152 DUP2 PUSH2 0x24E6 JUMP JUMPDEST JUMPDEST PUSH2 0x115D DUP4 DUP4 PUSH2 0x24FA JUMP JUMPDEST POP POP POP JUMP JUMPDEST PUSH1 0x0 PUSH1 0x20 PUSH1 0x0 PUSH32 0xFA6557A51A133888544923DACDCA355721A35FBEEBE974F1E7D28D3105E033CF PUSH1 0x0 SHR DUP2 MSTORE PUSH1 0x20 ADD SWAP1 DUP2 MSTORE PUSH1 0x20 ADD PUSH1 0x0 KECCAK256 SLOAD SWAP1 POP SWAP1 JUMP JUMPDEST PUSH32 0xCAA210682AA7D6B03D19B857C87A6E4C61B2EA999C417F0652A36447D144F238 PUSH1 0x0 SHR DUP2 JUMP JUMPDEST PUSH1 0x0 PUSH1 0x21 PUSH1 0x0 DUP4 DUP2 MSTORE PUSH1 0x20 ADD SWAP1 DUP2 MSTORE PUSH1 0x20 ADD PUSH1 0x0 KECCAK256 PUSH1 0x1 ADD SLOAD SWAP1 POP SWAP2 SWAP1 POP JUMP JUMPDEST PUSH32 0xA49807205CE4D355092EF5A8A18F56E8913CF4A201FBE287825B095693C21775 PUSH1 0x0 DUP1 SLOAD SWAP1 PUSH2 0x100 EXP SWAP1 DIV PUSH20 0xFFFFFFFFFFFFFFFFFFFFFFFFFFFFFFFFFFFFFFFF AND PUSH20 0xFFFFFFFFFFFFFFFFFFFFFFFFFFFFFFFFFFFFFFFF AND PUSH4 0x91D14854 DUP3 PUSH2 0x124D PUSH2 0x24DE JUMP JUMPDEST PUSH1 0x40 MLOAD DUP4 PUSH4 0xFFFFFFFF AND PUSH1 0xE0 SHL DUP2 MSTORE PUSH1 0x4 ADD PUSH2 0x126A SWAP3 SWAP2 SWAP1 PUSH2 0x3126 JUMP JUMPDEST PUSH1 0x20 PUSH1 0x40 MLOAD DUP1 DUP4 SUB DUP2 DUP7 GAS STATICCALL ISZERO DUP1 ISZERO PUSH2 0x1287 JUMPI RETURNDATASIZE PUSH1 0x0 DUP1 RETURNDATACOPY RETURNDATASIZE PUSH1 0x0 REVERT JUMPDEST POP POP POP POP PUSH1 0x40 MLOAD RETURNDATASIZE PUSH1 0x1F NOT PUSH1 0x1F DUP3 ADD AND DUP3 ADD DUP1 PUSH1 0x40 MSTORE POP DUP2 ADD SWAP1 PUSH2 0x12AB SWAP2 SWAP1 PUSH2 0x317B JUMP JUMPDEST PUSH2 0x12B9 JUMPI PUSH2 0x12B8 DUP2 PUSH2 0x24E6 JUMP JUMPDEST JUMPDEST DUP2 PUSH20 0xFFFFFFFFFFFFFFFFFFFFFFFFFFFFFFFFFFFFFFFF AND PUSH1 0x20 PUSH1 0x0 PUSH32 0x3BEEEEB89724BB62C1BE7636D1B77A4CA5096701B9F62A5B667BA95489C0648F PUSH1 0x0 SHR DUP2 MSTORE PUSH1 0x20 ADD SWAP1 DUP2 MSTORE PUSH1 0x20 ADD PUSH1 0x0 KECCAK256 DUP2 SWAP1 SSTORE POP POP POP JUMP JUMPDEST PUSH1 0x0 PUSH1 0x20 PUSH1 0x0 PUSH32 0x1EC8339790254679015C7B4DB055EC6BB45DE4D3FF3193D766A1CC6CE145728D PUSH1 0x0 SHR DUP2 MSTORE PUSH1 0x20 ADD SWAP1 DUP2 MSTORE PUSH1 0x20 ADD PUSH1 0x0 KECCAK256 SLOAD SWAP1 POP SWAP1 JUMP JUMPDEST PUSH32 0xA49807205CE4D355092EF5A8A18F56E8913CF4A201FBE287825B095693C21775 PUSH1 0x0 DUP1 SLOAD SWAP1 PUSH2 0x100 EXP SWAP1 DIV PUSH20 0xFFFFFFFFFFFFFFFFFFFFFFFFFFFFFFFFFFFFFFFF AND PUSH20 0xFFFFFFFFFFFFFFFFFFFFFFFFFFFFFFFFFFFFFFFF AND PUSH4 0x91D14854 DUP3 PUSH2 0x13B2 PUSH2 0x24DE JUMP JUMPDEST PUSH1 0x40 MLOAD DUP4 PUSH4 0xFFFFFFFF AND PUSH1 0xE0 SHL DUP2 MSTORE PUSH1 0x4 ADD PUSH2 0x13CF SWAP3 SWAP2 SWAP1 PUSH2 0x3126 JUMP JUMPDEST PUSH1 0x20 PUSH1 0x40 MLOAD DUP1 DUP4 SUB DUP2 DUP7 GAS STATICCALL ISZERO DUP1 ISZERO PUSH2 0x13EC JUMPI RETURNDATASIZE PUSH1 0x0 DUP1 RETURNDATACOPY RETURNDATASIZE PUSH1 0x0 REVERT JUMPDEST POP POP POP POP PUSH1 0x40 MLOAD RETURNDATASIZE PUSH1 0x1F NOT PUSH1 0x1F DUP3 ADD AND DUP3 ADD DUP1 PUSH1 0x40 MSTORE POP DUP2 ADD SWAP1 PUSH2 0x1410 SWAP2 SWAP1 PUSH2 0x317B JUMP JUMPDEST PUSH2 0x141E JUMPI PUSH2 0x141D DUP2 PUSH2 0x24E6 JUMP JUMPDEST JUMPDEST PUSH2 0x1428 DUP4 DUP4 PUSH2 0x2556 JUMP JUMPDEST POP POP POP JUMP JUMPDEST PUSH2 0x1435 PUSH2 0x24DE JUMP JUMPDEST PUSH20 0xFFFFFFFFFFFFFFFFFFFFFFFFFFFFFFFFFFFFFFFF AND DUP2 PUSH20 0xFFFFFFFFFFFFFFFFFFFFFFFFFFFFFFFFFFFFFFFF AND EQ PUSH2 0x14A2 JUMPI PUSH1 0x40 MLOAD PUSH32 0x8C379A000000000000000000000000000000000000000000000000000000000 DUP2 MSTORE PUSH1 0x4 ADD PUSH2 0x1499 SWAP1 PUSH2 0x32D5 JUMP JUMPDEST PUSH1 0x40 MLOAD DUP1 SWAP2 SUB SWAP1 REVERT JUMPDEST PUSH2 0x14AC DUP3 DUP3 PUSH2 0x2637 JUMP JUMPDEST POP POP JUMP JUMPDEST PUSH32 0xE4A4E5425E0F84D8D68C8433DF2512E8E48969299D032314614356A42435A739 PUSH1 0x0 SHR DUP2 JUMP JUMPDEST PUSH32 0xA49807205CE4D355092EF5A8A18F56E8913CF4A201FBE287825B095693C21775 PUSH1 0x0 DUP1 SLOAD SWAP1 PUSH2 0x100 EXP SWAP1 DIV PUSH20 0xFFFFFFFFFFFFFFFFFFFFFFFFFFFFFFFFFFFFFFFF AND PUSH20 0xFFFFFFFFFFFFFFFFFFFFFFFFFFFFFFFFFFFFFFFF AND PUSH4 0x91D14854 DUP3 PUSH2 0x153D PUSH2 0x24DE JUMP JUMPDEST PUSH1 0x40 MLOAD DUP4 PUSH4 0xFFFFFFFF AND PUSH1 0xE0 SHL DUP2 MSTORE PUSH1 0x4 ADD PUSH2 0x155A SWAP3 SWAP2 SWAP1 PUSH2 0x3126 JUMP JUMPDEST PUSH1 0x20 PUSH1 0x40 MLOAD DUP1 DUP4 SUB DUP2 DUP7 GAS STATICCALL ISZERO DUP1 ISZERO PUSH2 0x1577 JUMPI RETURNDATASIZE PUSH1 0x0 DUP1 RETURNDATACOPY RETURNDATASIZE PUSH1 0x0 REVERT JUMPDEST POP POP POP POP PUSH1 0x40 MLOAD RETURNDATASIZE PUSH1 0x1F NOT PUSH1 0x1F DUP3 ADD AND DUP3 ADD DUP1 PUSH1 0x40 MSTORE POP DUP2 ADD SWAP1 PUSH2 0x159B SWAP2 SWAP1 PUSH2 0x317B JUMP JUMPDEST PUSH2 0x15A9 JUMPI PUSH2 0x15A8 DUP2 PUSH2 0x24E6 JUMP JUMPDEST JUMPDEST DUP2 PUSH20 0xFFFFFFFFFFFFFFFFFFFFFFFFFFFFFFFFFFFFFFFF AND PUSH1 0x20 PUSH1 0x0 PUSH32 0xCAA210682AA7D6B03D19B857C87A6E4C61B2EA999C417F0652A36447D144F238 PUSH1 0x0 SHR DUP2 MSTORE PUSH1 0x20 ADD SWAP1 DUP2 MSTORE PUSH1 0x20 ADD PUSH1 0x0 KECCAK256 DUP2 SWAP1 SSTORE POP POP POP JUMP JUMPDEST PUSH32 0x69661401BD068C022C278F73B3789A33E22D5EAFE981E9265041B6FE72A122FE PUSH1 0x0 SHR DUP2 JUMP JUMPDEST PUSH32 0xA49807205CE4D355092EF5A8A18F56E8913CF4A201FBE287825B095693C21775 PUSH1 0x0 DUP1 SLOAD SWAP1 PUSH2 0x100 EXP SWAP1 DIV PUSH20 0xFFFFFFFFFFFFFFFFFFFFFFFFFFFFFFFFFFFFFFFF AND PUSH20 0xFFFFFFFFFFFFFFFFFFFFFFFFFFFFFFFFFFFFFFFF AND PUSH4 0x91D14854 DUP3 PUSH2 0x168B PUSH2 0x24DE JUMP JUMPDEST PUSH1 0x40 MLOAD DUP4 PUSH4 0xFFFFFFFF AND PUSH1 0xE0 SHL DUP2 MSTORE PUSH1 0x4 ADD PUSH2 0x16A8 SWAP3 SWAP2 SWAP1 PUSH2 0x3126 JUMP JUMPDEST PUSH1 0x20 PUSH1 0x40 MLOAD DUP1 DUP4 SUB DUP2 DUP7 GAS STATICCALL ISZERO DUP1 ISZERO PUSH2 0x16C5 JUMPI RETURNDATASIZE PUSH1 0x0 DUP1 RETURNDATACOPY RETURNDATASIZE PUSH1 0x0 REVERT JUMPDEST POP POP POP POP PUSH1 0x40 MLOAD RETURNDATASIZE PUSH1 0x1F NOT PUSH1 0x1F DUP3 ADD AND DUP3 ADD DUP1 PUSH1 0x40 MSTORE POP DUP2 ADD SWAP1 PUSH2 0x16E9 SWAP2 SWAP1 PUSH2 0x317B JUMP JUMPDEST PUSH2 0x16F7 JUMPI PUSH2 0x16F6 DUP2 PUSH2 0x24E6 JUMP JUMPDEST JUMPDEST DUP2 PUSH20 0xFFFFFFFFFFFFFFFFFFFFFFFFFFFFFFFFFFFFFFFF AND PUSH1 0x20 PUSH1 0x0 PUSH32 0xEE0B41063C9B42CF4CB1E7F8C47F5EEB6D29CF430AEF897AFC1CD2888DDA3E04 PUSH1 0x0 SHR DUP2 MSTORE PUSH1 0x20 ADD SWAP1 DUP2 MSTORE PUSH1 0x20 ADD PUSH1 0x0 KECCAK256 DUP2 SWAP1 SSTORE POP POP POP JUMP JUMPDEST PUSH32 0x1EC8339790254679015C7B4DB055EC6BB45DE4D3FF3193D766A1CC6CE145728D PUSH1 0x0 SHR DUP2 JUMP JUMPDEST PUSH32 0x6FEDE10A232B276BC7C310ABFBE151B58BA2286D825BC9E66C6E5FD488844E10 PUSH1 0x0 SHR DUP2 JUMP JUMPDEST PUSH32 0x3BEEEEB89724BB62C1BE7636D1B77A4CA5096701B9F62A5B667BA95489C0648F PUSH1 0x0 SHR DUP2 JUMP JUMPDEST PUSH32 0x36051E26B7EE9AB8BFE79486C0D7A7A2112864A57AA54065540ECCB3C4A44522 PUSH1 0x0 SHR DUP2 JUMP JUMPDEST PUSH32 0xA49807205CE4D355092EF5A8A18F56E8913CF4A201FBE287825B095693C21775 DUP2 JUMP JUMPDEST PUSH1 0x0 DUP1 SLOAD SWAP1 PUSH2 0x100 EXP SWAP1 DIV PUSH20 0xFFFFFFFFFFFFFFFFFFFFFFFFFFFFFFFFFFFFFFFF AND DUP2 JUMP JUMPDEST PUSH1 0x0 PUSH1 0x20 PUSH1 0x0 PUSH32 0x6EA4018DAF79DD2B85FF55E23CAA9708D35A5AF81F862526E25C36407A95AD81 PUSH1 0x0 SHR DUP2 MSTORE PUSH1 0x20 ADD SWAP1 DUP2 MSTORE PUSH1 0x20 ADD PUSH1 0x0 KECCAK256 SLOAD SWAP1 POP SWAP1 JUMP JUMPDEST PUSH1 0x0 PUSH2 0x1878 PUSH2 0x2719 JUMP JUMPDEST SWAP1 POP PUSH1 0x0 DUP2 PUSH1 0x0 ADD PUSH1 0x8 SWAP1 SLOAD SWAP1 PUSH2 0x100 EXP SWAP1 DIV PUSH1 0xFF AND ISZERO SWAP1 POP PUSH1 0x0 DUP3 PUSH1 0x0 ADD PUSH1 0x0 SWAP1 SLOAD SWAP1 PUSH2 0x100 EXP SWAP1 DIV PUSH8 0xFFFFFFFFFFFFFFFF AND SWAP1 POP PUSH1 0x0 DUP1 DUP3 PUSH8 0xFFFFFFFFFFFFFFFF AND EQ DUP1 ISZERO PUSH2 0x18C6 JUMPI POP DUP3 JUMPDEST SWAP1 POP PUSH1 0x0 PUSH1 0x1 DUP4 PUSH8 0xFFFFFFFFFFFFFFFF AND EQ DUP1 ISZERO PUSH2 0x18FB JUMPI POP PUSH1 0x0 ADDRESS PUSH20 0xFFFFFFFFFFFFFFFFFFFFFFFFFFFFFFFFFFFFFFFF AND EXTCODESIZE EQ JUMPDEST SWAP1 POP DUP2 ISZERO DUP1 ISZERO PUSH2 0x1909 JUMPI POP DUP1 ISZERO JUMPDEST ISZERO PUSH2 0x1940 JUMPI PUSH1 0x40 MLOAD PUSH32 0xF92EE8A900000000000000000000000000000000000000000000000000000000 DUP2 MSTORE PUSH1 0x4 ADD PUSH1 0x40 MLOAD DUP1 SWAP2 SUB SWAP1 REVERT JUMPDEST PUSH1 0x1 DUP6 PUSH1 0x0 ADD PUSH1 0x0 PUSH2 0x100 EXP DUP2 SLOAD DUP2 PUSH8 0xFFFFFFFFFFFFFFFF MUL NOT AND SWAP1 DUP4 PUSH8 0xFFFFFFFFFFFFFFFF AND MUL OR SWAP1 SSTORE POP DUP4 ISZERO PUSH2 0x1990 JUMPI PUSH1 0x1 DUP6 PUSH1 0x0 ADD PUSH1 0x8 PUSH2 0x100 EXP DUP2 SLOAD DUP2 PUSH1 0xFF MUL NOT AND SWAP1 DUP4 ISZERO ISZERO MUL OR SWAP1 SSTORE POP JUMPDEST PUSH2 0x1999 ADDRESS PUSH2 0x2741 JUMP JUMPDEST PUSH2 0x19C3 PUSH32 0xA49807205CE4D355092EF5A8A18F56E8913CF4A201FBE287825B095693C21775 CALLER PUSH2 0x2556 JUMP JUMPDEST DUP4 ISZERO PUSH2 0x1A1F JUMPI PUSH1 0x0 DUP6 PUSH1 0x0 ADD PUSH1 0x8 PUSH2 0x100 EXP DUP2 SLOAD DUP2 PUSH1 0xFF MUL NOT AND SWAP1 DUP4 ISZERO ISZERO MUL OR SWAP1 SSTORE POP PUSH32 0xC7F505B2F371AE2175EE4913F4499E1F2633A7B5936321EED1CDAEB6115181D2 PUSH1 0x1 PUSH1 0x40 MLOAD PUSH2 0x1A16 SWAP2 SWAP1 PUSH2 0x3330 JUMP JUMPDEST PUSH1 0x40 MLOAD DUP1 SWAP2 SUB SWAP1 LOG1 JUMPDEST POP POP POP POP POP JUMP JUMPDEST PUSH32 0xFA6557A51A133888544923DACDCA355721A35FBEEBE974F1E7D28D3105E033CF PUSH1 0x0 SHR DUP2 JUMP JUMPDEST PUSH1 0x0 PUSH1 0x20 PUSH1 0x0 PUSH32 0x6FEDE10A232B276BC7C310ABFBE151B58BA2286D825BC9E66C6E5FD488844E10 PUSH1 0x0 SHR DUP2 MSTORE PUSH1 0x20 ADD SWAP1 DUP2 MSTORE PUSH1 0x20 ADD PUSH1 0x0 KECCAK256 SLOAD SWAP1 POP SWAP1 JUMP JUMPDEST PUSH32 0xA49807205CE4D355092EF5A8A18F56E8913CF4A201FBE287825B095693C21775 PUSH1 0x0 DUP1 SLOAD SWAP1 PUSH2 0x100 EXP SWAP1 DIV PUSH20 0xFFFFFFFFFFFFFFFFFFFFFFFFFFFFFFFFFFFFFFFF AND PUSH20 0xFFFFFFFFFFFFFFFFFFFFFFFFFFFFFFFFFFFFFFFF AND PUSH4 0x91D14854 DUP3 PUSH2 0x1AF1 PUSH2 0x24DE JUMP JUMPDEST PUSH1 0x40 MLOAD DUP4 PUSH4 0xFFFFFFFF AND PUSH1 0xE0 SHL DUP2 MSTORE PUSH1 0x4 ADD PUSH2 0x1B0E SWAP3 SWAP2 SWAP1 PUSH2 0x3126 JUMP JUMPDEST PUSH1 0x20 PUSH1 0x40 MLOAD DUP1 DUP4 SUB DUP2 DUP7 GAS STATICCALL ISZERO DUP1 ISZERO PUSH2 0x1B2B JUMPI RETURNDATASIZE PUSH1 0x0 DUP1 RETURNDATACOPY RETURNDATASIZE PUSH1 0x0 REVERT JUMPDEST POP POP POP POP PUSH1 0x40 MLOAD RETURNDATASIZE PUSH1 0x1F NOT PUSH1 0x1F DUP3 ADD AND DUP3 ADD DUP1 PUSH1 0x40 MSTORE POP DUP2 ADD SWAP1 PUSH2 0x1B4F SWAP2 SWAP1 PUSH2 0x317B JUMP JUMPDEST PUSH2 0x1B5D JUMPI PUSH2 0x1B5C DUP2 PUSH2 0x24E6 JUMP JUMPDEST JUMPDEST DUP2 PUSH20 0xFFFFFFFFFFFFFFFFFFFFFFFFFFFFFFFFFFFFFFFF AND PUSH1 0x20 PUSH1 0x0 PUSH32 0x69661401BD068C022C278F73B3789A33E22D5EAFE981E9265041B6FE72A122FE PUSH1 0x0 SHR DUP2 MSTORE PUSH1 0x20 ADD SWAP1 DUP2 MSTORE PUSH1 0x20 ADD PUSH1 0x0 KECCAK256 DUP2 SWAP1 SSTORE POP POP POP JUMP JUMPDEST PUSH1 0x0 PUSH1 0x21 PUSH1 0x0 DUP5 DUP2 MSTORE PUSH1 0x20 ADD SWAP1 DUP2 MSTORE PUSH1 0x20 ADD PUSH1 0x0 KECCAK256 PUSH1 0x2 ADD PUSH1 0x0 SWAP1 SLOAD SWAP1 PUSH2 0x100 EXP SWAP1 DIV PUSH1 0xFF AND DUP1 PUSH2 0x1C40 JUMPI POP PUSH1 0x21 PUSH1 0x0 DUP5 DUP2 MSTORE PUSH1 0x20 ADD SWAP1 DUP2 MSTORE PUSH1 0x20 ADD PUSH1 0x0 KECCAK256 PUSH1 0x0 ADD PUSH1 0x0 DUP4 PUSH20 0xFFFFFFFFFFFFFFFFFFFFFFFFFFFFFFFFFFFFFFFF AND PUSH20 0xFFFFFFFFFFFFFFFFFFFFFFFFFFFFFFFFFFFFFFFF AND DUP2 MSTORE PUSH1 0x20 ADD SWAP1 DUP2 MSTORE PUSH1 0x20 ADD PUSH1 0x0 KECCAK256 PUSH1 0x0 SWAP1 SLOAD SWAP1 PUSH2 0x100 EXP SWAP1 DIV PUSH1 0xFF AND JUMPDEST SWAP1 POP SWAP3 SWAP2 POP POP JUMP JUMPDEST PUSH32 0x25CF2B509F2A7F322675B2A5322B182F44AD2C03AC941A0AF17C9B178F5D5D5F DUP2 JUMP JUMPDEST PUSH1 0x0 PUSH1 0x20 PUSH1 0x0 PUSH32 0x3BEEEEB89724BB62C1BE7636D1B77A4CA5096701B9F62A5B667BA95489C0648F PUSH1 0x0 SHR DUP2 MSTORE PUSH1 0x20 ADD SWAP1 DUP2 MSTORE PUSH1 0x20 ADD PUSH1 0x0 KECCAK256 SLOAD SWAP1 POP SWAP1 JUMP JUMPDEST PUSH1 0x0 PUSH1 0x20 PUSH1 0x0 PUSH32 0xCAA210682AA7D6B03D19B857C87A6E4C61B2EA999C417F0652A36447D144F238 PUSH1 0x0 SHR DUP2 MSTORE PUSH1 0x20 ADD SWAP1 DUP2 MSTORE PUSH1 0x20 ADD PUSH1 0x0 KECCAK256 SLOAD SWAP1 POP SWAP1 JUMP JUMPDEST PUSH32 0xE3FB0F89BF43754026F5DF1C4A405631DECA482F630ED00C4F9897A30EA07642 PUSH1 0x0 SHR DUP2 JUMP JUMPDEST PUSH1 0x0 DUP1 SHL DUP2 JUMP JUMPDEST PUSH1 0x0 PUSH1 0x20 PUSH1 0x0 PUSH32 0xEE0B41063C9B42CF4CB1E7F8C47F5EEB6D29CF430AEF897AFC1CD2888DDA3E04 PUSH1 0x0 SHR DUP2 MSTORE PUSH1 0x20 ADD SWAP1 DUP2 MSTORE PUSH1 0x20 ADD PUSH1 0x0 KECCAK256 SLOAD SWAP1 POP SWAP1 JUMP JUMPDEST PUSH1 0x0 PUSH1 0x20 PUSH1 0x0 PUSH32 0x69661401BD068C022C278F73B3789A33E22D5EAFE981E9265041B6FE72A122FE PUSH1 0x0 SHR DUP2 MSTORE PUSH1 0x20 ADD SWAP1 DUP2 MSTORE PUSH1 0x20 ADD PUSH1 0x0 KECCAK256 SLOAD SWAP1 POP SWAP1 JUMP JUMPDEST PUSH32 0x6EA4018DAF79DD2B85FF55E23CAA9708D35A5AF81F862526E25C36407A95AD81 PUSH1 0x0 SHR DUP2 JUMP JUMPDEST PUSH32 0x454C90BB89AF48C9C15CD0ACB46E1F05BE34B6D27D24973B724E6FF6477E129F PUSH1 0x0 SHR DUP2 JUMP JUMPDEST PUSH32 0x9FB48FF2476BDF82119573E311CAB5A3BBDADC90CAC7A17CBE16C403581C2C30 PUSH1 0x0 SHR DUP2 JUMP JUMPDEST PUSH1 0x21 PUSH1 0x20 MSTORE DUP1 PUSH1 0x0 MSTORE PUSH1 0x40 PUSH1 0x0 KECCAK256 PUSH1 0x0 SWAP2 POP SWAP1 POP DUP1 PUSH1 0x1 ADD SLOAD SWAP1 DUP1 PUSH1 0x2 ADD PUSH1 0x0 SWAP1 SLOAD SWAP1 PUSH2 0x100 EXP SWAP1 DIV PUSH1 0xFF AND SWAP1 POP DUP3 JUMP JUMPDEST PUSH1 0x0 PUSH1 0x20 PUSH1 0x0 PUSH32 0x6FC77DBA7C1971F6AF1F32B3C7728DA581E8B9FE553E83800C1E287B92886638 PUSH1 0x0 SHR DUP2 MSTORE PUSH1 0x20 ADD SWAP1 DUP2 MSTORE PUSH1 0x20 ADD PUSH1 0x0 KECCAK256 SLOAD SWAP1 POP SWAP1 JUMP JUMPDEST PUSH32 0xEE0B41063C9B42CF4CB1E7F8C47F5EEB6D29CF430AEF897AFC1CD2888DDA3E04 PUSH1 0x0 SHR DUP2 JUMP JUMPDEST PUSH32 0xA49807205CE4D355092EF5A8A18F56E8913CF4A201FBE287825B095693C21775 PUSH1 0x0 DUP1 SLOAD SWAP1 PUSH2 0x100 EXP SWAP1 DIV PUSH20 0xFFFFFFFFFFFFFFFFFFFFFFFFFFFFFFFFFFFFFFFF AND PUSH20 0xFFFFFFFFFFFFFFFFFFFFFFFFFFFFFFFFFFFFFFFF AND PUSH4 0x91D14854 DUP3 PUSH2 0x1F03 PUSH2 0x24DE JUMP JUMPDEST PUSH1 0x40 MLOAD DUP4 PUSH4 0xFFFFFFFF AND PUSH1 0xE0 SHL DUP2 MSTORE PUSH1 0x4 ADD PUSH2 0x1F20 SWAP3 SWAP2 SWAP1 PUSH2 0x3126 JUMP JUMPDEST PUSH1 0x20 PUSH1 0x40 MLOAD DUP1 DUP4 SUB DUP2 DUP7 GAS STATICCALL ISZERO DUP1 ISZERO PUSH2 0x1F3D JUMPI RETURNDATASIZE PUSH1 0x0 DUP1 RETURNDATACOPY RETURNDATASIZE PUSH1 0x0 REVERT JUMPDEST POP POP POP POP PUSH1 0x40 MLOAD RETURNDATASIZE PUSH1 0x1F NOT PUSH1 0x1F DUP3 ADD AND DUP3 ADD DUP1 PUSH1 0x40 MSTORE POP DUP2 ADD SWAP1 PUSH2 0x1F61 SWAP2 SWAP1 PUSH2 0x317B JUMP JUMPDEST PUSH2 0x1F6F JUMPI PUSH2 0x1F6E DUP2 PUSH2 0x24E6 JUMP JUMPDEST JUMPDEST PUSH3 0x186A0 DUP3 PUSH4 0xFFFFFFFF AND GT ISZERO PUSH2 0x1FBB JUMPI PUSH1 0x40 MLOAD PUSH32 0x8C379A000000000000000000000000000000000000000000000000000000000 DUP2 MSTORE PUSH1 0x4 ADD PUSH2 0x1FB2 SWAP1 PUSH2 0x33BD JUMP JUMPDEST PUSH1 0x40 MLOAD DUP1 SWAP2 SUB SWAP1 REVERT JUMPDEST DUP2 PUSH4 0xFFFFFFFF AND PUSH1 0x20 PUSH1 0x0 PUSH32 0x6FEDE10A232B276BC7C310ABFBE151B58BA2286D825BC9E66C6E5FD488844E10 PUSH1 0x0 SHR DUP2 MSTORE PUSH1 0x20 ADD SWAP1 DUP2 MSTORE PUSH1 0x20 ADD PUSH1 0x0 KECCAK256 DUP2 SWAP1 SSTORE POP POP POP JUMP JUMPDEST PUSH32 0xA49807205CE4D355092EF5A8A18F56E8913CF4A201FBE287825B095693C21775 PUSH1 0x0 DUP1 SLOAD SWAP1 PUSH2 0x100 EXP SWAP1 DIV PUSH20 0xFFFFFFFFFFFFFFFFFFFFFFFFFFFFFFFFFFFFFFFF AND PUSH20 0xFFFFFFFFFFFFFFFFFFFFFFFFFFFFFFFFFFFFFFFF AND PUSH4 0x91D14854 DUP3 PUSH2 0x2066 PUSH2 0x24DE JUMP JUMPDEST PUSH1 0x40 MLOAD DUP4 PUSH4 0xFFFFFFFF AND PUSH1 0xE0 SHL DUP2 MSTORE PUSH1 0x4 ADD PUSH2 0x2083 SWAP3 SWAP2 SWAP1 PUSH2 0x3126 JUMP JUMPDEST PUSH1 0x20 PUSH1 0x40 MLOAD DUP1 DUP4 SUB DUP2 DUP7 GAS STATICCALL ISZERO DUP1 ISZERO PUSH2 0x20A0 JUMPI RETURNDATASIZE PUSH1 0x0 DUP1 RETURNDATACOPY RETURNDATASIZE PUSH1 0x0 REVERT JUMPDEST POP POP POP POP PUSH1 0x40 MLOAD RETURNDATASIZE PUSH1 0x1F NOT PUSH1 0x1F DUP3 ADD AND DUP3 ADD DUP1 PUSH1 0x40 MSTORE POP DUP2 ADD SWAP1 PUSH2 0x20C4 SWAP2 SWAP1 PUSH2 0x317B JUMP JUMPDEST PUSH2 0x20D2 JUMPI PUSH2 0x20D1 DUP2 PUSH2 0x24E6 JUMP JUMPDEST JUMPDEST PUSH2 0x20DC DUP4 DUP4 PUSH2 0x2637 JUMP JUMPDEST POP POP POP JUMP JUMPDEST PUSH32 0x6FC77DBA7C1971F6AF1F32B3C7728DA581E8B9FE553E83800C1E287B92886638 PUSH1 0x0 SHR DUP2 JUMP JUMPDEST PUSH32 0xA49807205CE4D355092EF5A8A18F56E8913CF4A201FBE287825B095693C21775 PUSH1 0x0 DUP1 SLOAD SWAP1 PUSH2 0x100 EXP SWAP1 DIV PUSH20 0xFFFFFFFFFFFFFFFFFFFFFFFFFFFFFFFFFFFFFFFF AND PUSH20 0xFFFFFFFFFFFFFFFFFFFFFFFFFFFFFFFFFFFFFFFF AND PUSH4 0x91D14854 DUP3 PUSH2 0x216E PUSH2 0x24DE JUMP JUMPDEST PUSH1 0x40 MLOAD DUP4 PUSH4 0xFFFFFFFF AND PUSH1 0xE0 SHL DUP2 MSTORE PUSH1 0x4 ADD PUSH2 0x218B SWAP3 SWAP2 SWAP1 PUSH2 0x3126 JUMP JUMPDEST PUSH1 0x20 PUSH1 0x40 MLOAD DUP1 DUP4 SUB DUP2 DUP7 GAS STATICCALL ISZERO DUP1 ISZERO PUSH2 0x21A8 JUMPI RETURNDATASIZE PUSH1 0x0 DUP1 RETURNDATACOPY RETURNDATASIZE PUSH1 0x0 REVERT JUMPDEST POP POP POP POP PUSH1 0x40 MLOAD RETURNDATASIZE PUSH1 0x1F NOT PUSH1 0x1F DUP3 ADD AND DUP3 ADD DUP1 PUSH1 0x40 MSTORE POP DUP2 ADD SWAP1 PUSH2 0x21CC SWAP2 SWAP1 PUSH2 0x317B JUMP JUMPDEST PUSH2 0x21DA JUMPI PUSH2 0x21D9 DUP2 PUSH2 0x24E6 JUMP JUMPDEST JUMPDEST DUP2 PUSH20 0xFFFFFFFFFFFFFFFFFFFFFFFFFFFFFFFFFFFFFFFF AND PUSH1 0x20 PUSH1 0x0 PUSH32 0xFA6557A51A133888544923DACDCA355721A35FBEEBE974F1E7D28D3105E033CF PUSH1 0x0 SHR DUP2 MSTORE PUSH1 0x20 ADD SWAP1 DUP2 MSTORE PUSH1 0x20 ADD PUSH1 0x0 KECCAK256 DUP2 SWAP1 SSTORE POP POP POP JUMP JUMPDEST PUSH8 0xDE0B6B3A7640000 DUP2 JUMP JUMPDEST PUSH1 0x0 PUSH1 0x20 PUSH1 0x0 PUSH32 0x36051E26B7EE9AB8BFE79486C0D7A7A2112864A57AA54065540ECCB3C4A44522 PUSH1 0x0 SHR DUP2 MSTORE PUSH1 0x20 ADD SWAP1 DUP2 MSTORE PUSH1 0x20 ADD PUSH1 0x0 KECCAK256 SLOAD SWAP1 POP SWAP1 JUMP JUMPDEST PUSH3 0xF4240 DUP2 JUMP JUMPDEST PUSH1 0x0 PUSH1 0x20 PUSH1 0x0 PUSH32 0xE4A4E5425E0F84D8D68C8433DF2512E8E48969299D032314614356A42435A739 PUSH1 0x0 SHR DUP2 MSTORE PUSH1 0x20 ADD SWAP1 DUP2 MSTORE PUSH1 0x20 ADD PUSH1 0x0 KECCAK256 SLOAD SWAP1 POP SWAP1 JUMP JUMPDEST PUSH32 0xF66846415D2BF9EABDA9E84793FF9C0EA96D87F50FC41E66AA16469C6A442F05 DUP2 JUMP JUMPDEST PUSH32 0xE01BEA03000F908384FEC12F1BB9CFF12E05A5D91A94BFEDD901D5696153A5A3 PUSH1 0x0 SHR DUP2 JUMP JUMPDEST PUSH32 0xA49807205CE4D355092EF5A8A18F56E8913CF4A201FBE287825B095693C21775 PUSH1 0x0 DUP1 SLOAD SWAP1 PUSH2 0x100 EXP SWAP1 DIV PUSH20 0xFFFFFFFFFFFFFFFFFFFFFFFFFFFFFFFFFFFFFFFF AND PUSH20 0xFFFFFFFFFFFFFFFFFFFFFFFFFFFFFFFFFFFFFFFF AND PUSH4 0x91D14854 DUP3 PUSH2 0x236F PUSH2 0x24DE JUMP JUMPDEST PUSH1 0x40 MLOAD DUP4 PUSH4 0xFFFFFFFF AND PUSH1 0xE0 SHL DUP2 MSTORE PUSH1 0x4 ADD PUSH2 0x238C SWAP3 SWAP2 SWAP1 PUSH2 0x3126 JUMP JUMPDEST PUSH1 0x20 PUSH1 0x40 MLOAD DUP1 DUP4 SUB DUP2 DUP7 GAS STATICCALL ISZERO DUP1 ISZERO PUSH2 0x23A9 JUMPI RETURNDATASIZE PUSH1 0x0 DUP1 RETURNDATACOPY RETURNDATASIZE PUSH1 0x0 REVERT JUMPDEST POP POP POP POP PUSH1 0x40 MLOAD RETURNDATASIZE PUSH1 0x1F NOT PUSH1 0x1F DUP3 ADD AND DUP3 ADD DUP1 PUSH1 0x40 MSTORE POP DUP2 ADD SWAP1 PUSH2 0x23CD SWAP2 SWAP1 PUSH2 0x317B JUMP JUMPDEST PUSH2 0x23DB JUMPI PUSH2 0x23DA DUP2 PUSH2 0x24E6 JUMP JUMPDEST JUMPDEST DUP5 PUSH20 0xFFFFFFFFFFFFFFFFFFFFFFFFFFFFFFFFFFFFFFFF AND PUSH1 0x20 PUSH1 0x0 PUSH32 0x36051E26B7EE9AB8BFE79486C0D7A7A2112864A57AA54065540ECCB3C4A44522 PUSH1 0x0 SHR DUP2 MSTORE PUSH1 0x20 ADD SWAP1 DUP2 MSTORE PUSH1 0x20 ADD PUSH1 0x0 KECCAK256 DUP2 SWAP1 SSTORE POP DUP4 PUSH20 0xFFFFFFFFFFFFFFFFFFFFFFFFFFFFFFFFFFFFFFFF AND PUSH1 0x20 PUSH1 0x0 PUSH32 0xE4A4E5425E0F84D8D68C8433DF2512E8E48969299D032314614356A42435A739 PUSH1 0x0 SHR DUP2 MSTORE PUSH1 0x20 ADD SWAP1 DUP2 MSTORE PUSH1 0x20 ADD PUSH1 0x0 KECCAK256 DUP2 SWAP1 SSTORE POP DUP3 PUSH20 0xFFFFFFFFFFFFFFFFFFFFFFFFFFFFFFFFFFFFFFFF AND PUSH1 0x20 PUSH1 0x0 PUSH32 0x6EA4018DAF79DD2B85FF55E23CAA9708D35A5AF81F862526E25C36407A95AD81 PUSH1 0x0 SHR DUP2 MSTORE PUSH1 0x20 ADD SWAP1 DUP2 MSTORE PUSH1 0x20 ADD PUSH1 0x0 KECCAK256 DUP2 SWAP1 SSTORE POP PUSH2 0x24D7 DUP3 PUSH2 0x1E9D JUMP JUMPDEST POP POP POP POP POP JUMP JUMPDEST PUSH1 0x0 CALLER SWAP1 POP SWAP1 JUMP JUMPDEST PUSH2 0x24F7 DUP2 PUSH2 0x24F2 PUSH2 0x24DE JUMP JUMPDEST PUSH2 0x279C JUMP JUMPDEST POP JUMP JUMPDEST PUSH1 0x0 PUSH2 0x2505 DUP4 PUSH2 0x11C7 JUMP JUMPDEST SWAP1 POP DUP2 PUSH1 0x21 PUSH1 0x0 DUP6 DUP2 MSTORE PUSH1 0x20 ADD SWAP1 DUP2 MSTORE PUSH1 0x20 ADD PUSH1 0x0 KECCAK256 PUSH1 0x1 ADD DUP2 SWAP1 SSTORE POP DUP2 DUP2 DUP5 PUSH32 0xBD79B86FFE0AB8E8776151514217CD7CACD52C909F66475C3AF44E129F0B00FF PUSH1 0x40 MLOAD PUSH1 0x40 MLOAD DUP1 SWAP2 SUB SWAP1 LOG4 POP POP POP JUMP JUMPDEST PUSH2 0x2560 DUP3 DUP3 PUSH2 0x1BB2 JUMP JUMPDEST PUSH2 0x2633 JUMPI PUSH1 0x1 PUSH1 0x21 PUSH1 0x0 DUP5 DUP2 MSTORE PUSH1 0x20 ADD SWAP1 DUP2 MSTORE PUSH1 0x20 ADD PUSH1 0x0 KECCAK256 PUSH1 0x0 ADD PUSH1 0x0 DUP4 PUSH20 0xFFFFFFFFFFFFFFFFFFFFFFFFFFFFFFFFFFFFFFFF AND PUSH20 0xFFFFFFFFFFFFFFFFFFFFFFFFFFFFFFFFFFFFFFFF AND DUP2 MSTORE PUSH1 0x20 ADD SWAP1 DUP2 MSTORE PUSH1 0x20 ADD PUSH1 0x0 KECCAK256 PUSH1 0x0 PUSH2 0x100 EXP DUP2 SLOAD DUP2 PUSH1 0xFF MUL NOT AND SWAP1 DUP4 ISZERO ISZERO MUL OR SWAP1 SSTORE POP PUSH2 0x25D8 PUSH2 0x24DE JUMP JUMPDEST PUSH20 0xFFFFFFFFFFFFFFFFFFFFFFFFFFFFFFFFFFFFFFFF AND DUP2 PUSH20 0xFFFFFFFFFFFFFFFFFFFFFFFFFFFFFFFFFFFFFFFF AND DUP4 PUSH32 0x2F8788117E7EFF1D82E926EC794901D17C78024A50270940304540A733656F0D PUSH1 0x40 MLOAD PUSH1 0x40 MLOAD DUP1 SWAP2 SUB SWAP1 LOG4 JUMPDEST POP POP JUMP JUMPDEST PUSH2 0x2641 DUP3 DUP3 PUSH2 0x1BB2 JUMP JUMPDEST ISZERO PUSH2 0x2715 JUMPI PUSH1 0x0 PUSH1 0x21 PUSH1 0x0 DUP5 DUP2 MSTORE PUSH1 0x20 ADD SWAP1 DUP2 MSTORE PUSH1 0x20 ADD PUSH1 0x0 KECCAK256 PUSH1 0x0 ADD PUSH1 0x0 DUP4 PUSH20 0xFFFFFFFFFFFFFFFFFFFFFFFFFFFFFFFFFFFFFFFF AND PUSH20 0xFFFFFFFFFFFFFFFFFFFFFFFFFFFFFFFFFFFFFFFF AND DUP2 MSTORE PUSH1 0x20 ADD SWAP1 DUP2 MSTORE PUSH1 0x20 ADD PUSH1 0x0 KECCAK256 PUSH1 0x0 PUSH2 0x100 EXP DUP2 SLOAD DUP2 PUSH1 0xFF MUL NOT AND SWAP1 DUP4 ISZERO ISZERO MUL OR SWAP1 SSTORE POP PUSH2 0x26BA PUSH2 0x24DE JUMP JUMPDEST PUSH20 0xFFFFFFFFFFFFFFFFFFFFFFFFFFFFFFFFFFFFFFFF AND DUP2 PUSH20 0xFFFFFFFFFFFFFFFFFFFFFFFFFFFFFFFFFFFFFFFF AND DUP4 PUSH32 0xF6391F5C32D9C69D2A47EA670B442974B53935D1EDC7FD64EB21E047A839171B PUSH1 0x40 MLOAD PUSH1 0x40 MLOAD DUP1 SWAP2 SUB SWAP1 LOG4 JUMPDEST POP POP JUMP JUMPDEST PUSH1 0x0 PUSH32 0xF0C57E16840DF040F15088DC2F81FE391C3923BEC73E23A9662EFC9C229C6A00 SWAP1 POP SWAP1 JUMP JUMPDEST PUSH2 0x2749 PUSH2 0x28B3 JUMP JUMPDEST DUP1 PUSH1 0x0 DUP1 PUSH2 0x100 EXP DUP2 SLOAD DUP2 PUSH20 0xFFFFFFFFFFFFFFFFFFFFFFFFFFFFFFFFFFFFFFFF MUL NOT AND SWAP1 DUP4 PUSH20 0xFFFFFFFFFFFFFFFFFFFFFFFFFFFFFFFFFFFFFFFF AND MUL OR SWAP1 SSTORE POP PUSH2 0x2791 PUSH2 0x28F3 JUMP JUMPDEST PUSH2 0x2799 PUSH2 0x2905 JUMP JUMPDEST POP JUMP JUMPDEST PUSH1 0x0 DUP1 SLOAD SWAP1 PUSH2 0x100 EXP SWAP1 DIV PUSH20 0xFFFFFFFFFFFFFFFFFFFFFFFFFFFFFFFFFFFFFFFF AND PUSH20 0xFFFFFFFFFFFFFFFFFFFFFFFFFFFFFFFFFFFFFFFF AND PUSH4 0x91D14854 DUP4 DUP4 PUSH1 0x40 MLOAD DUP4 PUSH4 0xFFFFFFFF AND PUSH1 0xE0 SHL DUP2 MSTORE PUSH1 0x4 ADD PUSH2 0x27F7 SWAP3 SWAP2 SWAP1 PUSH2 0x3126 JUMP JUMPDEST PUSH1 0x20 PUSH1 0x40 MLOAD DUP1 DUP4 SUB DUP2 DUP7 GAS STATICCALL ISZERO DUP1 ISZERO PUSH2 0x2814 JUMPI RETURNDATASIZE PUSH1 0x0 DUP1 RETURNDATACOPY RETURNDATASIZE PUSH1 0x0 REVERT JUMPDEST POP POP POP POP PUSH1 0x40 MLOAD RETURNDATASIZE PUSH1 0x1F NOT PUSH1 0x1F DUP3 ADD AND DUP3 ADD DUP1 PUSH1 0x40 MSTORE POP DUP2 ADD SWAP1 PUSH2 0x2838 SWAP2 SWAP1 PUSH2 0x317B JUMP JUMPDEST PUSH2 0x28AF JUMPI PUSH2 0x2845 DUP2 PUSH2 0x290F JUMP JUMPDEST PUSH2 0x2853 DUP4 PUSH1 0x0 SHR PUSH1 0x20 PUSH2 0x293C JUMP JUMPDEST PUSH1 0x40 MLOAD PUSH1 0x20 ADD PUSH2 0x2864 SWAP3 SWAP2 SWAP1 PUSH2 0x34E6 JUMP JUMPDEST PUSH1 0x40 MLOAD PUSH1 0x20 DUP2 DUP4 SUB SUB DUP2 MSTORE SWAP1 PUSH1 0x40 MSTORE PUSH1 0x40 MLOAD PUSH32 0x8C379A000000000000000000000000000000000000000000000000000000000 DUP2 MSTORE PUSH1 0x4 ADD PUSH2 0x28A6 SWAP2 SWAP1 PUSH2 0x356A JUMP JUMPDEST PUSH1 0x40 MLOAD DUP1 SWAP2 SUB SWAP1 REVERT JUMPDEST POP POP JUMP JUMPDEST PUSH2 0x28BB PUSH2 0x2B82 JUMP JUMPDEST PUSH2 0x28F1 JUMPI PUSH1 0x40 MLOAD PUSH32 0xD7E6BCF800000000000000000000000000000000000000000000000000000000 DUP2 MSTORE PUSH1 0x4 ADD PUSH1 0x40 MLOAD DUP1 SWAP2 SUB SWAP1 REVERT JUMPDEST JUMP JUMPDEST PUSH2 0x28FB PUSH2 0x28B3 JUMP JUMPDEST PUSH2 0x2903 PUSH2 0x2BA2 JUMP JUMPDEST JUMP JUMPDEST PUSH2 0x290D PUSH2 0x28B3 JUMP JUMPDEST JUMP JUMPDEST PUSH1 0x60 PUSH2 0x2935 DUP3 PUSH20 0xFFFFFFFFFFFFFFFFFFFFFFFFFFFFFFFFFFFFFFFF AND PUSH1 0x14 PUSH1 0xFF AND PUSH2 0x293C JUMP JUMPDEST SWAP1 POP SWAP2 SWAP1 POP JUMP JUMPDEST PUSH1 0x60 PUSH1 0x0 DUP4 SWAP1 POP PUSH1 0x0 PUSH1 0x2 DUP5 PUSH1 0x2 PUSH2 0x2954 SWAP2 SWAP1 PUSH2 0x35BB JUMP JUMPDEST PUSH2 0x295E SWAP2 SWAP1 PUSH2 0x35FD JUMP JUMPDEST PUSH8 0xFFFFFFFFFFFFFFFF DUP2 GT ISZERO PUSH2 0x2977 JUMPI PUSH2 0x2976 PUSH2 0x3631 JUMP JUMPDEST JUMPDEST PUSH1 0x40 MLOAD SWAP1 DUP1 DUP3 MSTORE DUP1 PUSH1 0x1F ADD PUSH1 0x1F NOT AND PUSH1 0x20 ADD DUP3 ADD PUSH1 0x40 MSTORE DUP1 ISZERO PUSH2 0x29A9 JUMPI DUP2 PUSH1 0x20 ADD PUSH1 0x1 DUP3 MUL DUP1 CALLDATASIZE DUP4 CALLDATACOPY DUP1 DUP3 ADD SWAP2 POP POP SWAP1 POP JUMPDEST POP SWAP1 POP PUSH32 0x3000000000000000000000000000000000000000000000000000000000000000 DUP2 PUSH1 0x0 DUP2 MLOAD DUP2 LT PUSH2 0x29E1 JUMPI PUSH2 0x29E0 PUSH2 0x3660 JUMP JUMPDEST JUMPDEST PUSH1 0x20 ADD ADD SWAP1 PUSH31 0xFFFFFFFFFFFFFFFFFFFFFFFFFFFFFFFFFFFFFFFFFFFFFFFFFFFFFFFFFFFFFF NOT AND SWAP1 DUP2 PUSH1 0x0 BYTE SWAP1 MSTORE8 POP PUSH32 0x7800000000000000000000000000000000000000000000000000000000000000 DUP2 PUSH1 0x1 DUP2 MLOAD DUP2 LT PUSH2 0x2A45 JUMPI PUSH2 0x2A44 PUSH2 0x3660 JUMP JUMPDEST JUMPDEST PUSH1 0x20 ADD ADD SWAP1 PUSH31 0xFFFFFFFFFFFFFFFFFFFFFFFFFFFFFFFFFFFFFFFFFFFFFFFFFFFFFFFFFFFFFF NOT AND SWAP1 DUP2 PUSH1 0x0 BYTE SWAP1 MSTORE8 POP PUSH1 0x0 PUSH1 0x1 DUP6 PUSH1 0x2 PUSH2 0x2A85 SWAP2 SWAP1 PUSH2 0x35BB JUMP JUMPDEST PUSH2 0x2A8F SWAP2 SWAP1 PUSH2 0x35FD JUMP JUMPDEST SWAP1 POP JUMPDEST PUSH1 0x1 DUP2 GT ISZERO PUSH2 0x2B2F JUMPI PUSH32 0x3031323334353637383961626364656600000000000000000000000000000000 PUSH1 0xF DUP5 AND PUSH1 0x10 DUP2 LT PUSH2 0x2AD1 JUMPI PUSH2 0x2AD0 PUSH2 0x3660 JUMP JUMPDEST JUMPDEST BYTE PUSH1 0xF8 SHL DUP3 DUP3 DUP2 MLOAD DUP2 LT PUSH2 0x2AE8 JUMPI PUSH2 0x2AE7 PUSH2 0x3660 JUMP JUMPDEST JUMPDEST PUSH1 0x20 ADD ADD SWAP1 PUSH31 0xFFFFFFFFFFFFFFFFFFFFFFFFFFFFFFFFFFFFFFFFFFFFFFFFFFFFFFFFFFFFFF NOT AND SWAP1 DUP2 PUSH1 0x0 BYTE SWAP1 MSTORE8 POP PUSH1 0x4 DUP4 SWAP1 SHR SWAP3 POP DUP1 PUSH2 0x2B28 SWAP1 PUSH2 0x368F JUMP JUMPDEST SWAP1 POP PUSH2 0x2A92 JUMP JUMPDEST POP PUSH1 0x0 DUP3 EQ PUSH2 0x2B77 JUMPI DUP5 DUP5 PUSH1 0x40 MLOAD PUSH32 0xE22E27EB00000000000000000000000000000000000000000000000000000000 DUP2 MSTORE PUSH1 0x4 ADD PUSH2 0x2B6E SWAP3 SWAP2 SWAP1 PUSH2 0x36B8 JUMP JUMPDEST PUSH1 0x40 MLOAD DUP1 SWAP2 SUB SWAP1 REVERT JUMPDEST DUP1 SWAP3 POP POP POP SWAP3 SWAP2 POP POP JUMP JUMPDEST PUSH1 0x0 PUSH2 0x2B8C PUSH2 0x2719 JUMP JUMPDEST PUSH1 0x0 ADD PUSH1 0x8 SWAP1 SLOAD SWAP1 PUSH2 0x100 EXP SWAP1 DIV PUSH1 0xFF AND SWAP1 POP SWAP1 JUMP JUMPDEST PUSH2 0x2BAA PUSH2 0x28B3 JUMP JUMPDEST PUSH1 0x0 PUSH2 0x2BB4 PUSH2 0x2BC3 JUMP JUMPDEST SWAP1 POP PUSH1 0x1 DUP2 PUSH1 0x0 ADD DUP2 SWAP1 SSTORE POP POP JUMP JUMPDEST PUSH1 0x0 PUSH32 0x9B779B17422D0DF92223018B32B4D1FA46E071723D6817E2486D003BECC55F00 SWAP1 POP SWAP1 JUMP JUMPDEST PUSH1 0x0 DUP3 DUP3 MSTORE PUSH1 0x20 DUP3 ADD SWAP1 POP SWAP3 SWAP2 POP POP JUMP JUMPDEST PUSH32 0x426173653A206E6F7420737570706F7274204D65746973207472616E73666572 PUSH1 0x0 DUP3 ADD MSTORE POP JUMP JUMPDEST PUSH1 0x0 PUSH2 0x2C32 PUSH1 0x20 DUP4 PUSH2 0x2BEB JUMP JUMPDEST SWAP2 POP PUSH2 0x2C3D DUP3 PUSH2 0x2BFC JUMP JUMPDEST PUSH1 0x20 DUP3 ADD SWAP1 POP SWAP2 SWAP1 POP JUMP JUMPDEST PUSH1 0x0 PUSH1 0x20 DUP3 ADD SWAP1 POP DUP2 DUP2 SUB PUSH1 0x0 DUP4 ADD MSTORE PUSH2 0x2C61 DUP2 PUSH2 0x2C25 JUMP JUMPDEST SWAP1 POP SWAP2 SWAP1 POP JUMP JUMPDEST PUSH1 0x0 DUP1 REVERT JUMPDEST PUSH1 0x0 PUSH20 0xFFFFFFFFFFFFFFFFFFFFFFFFFFFFFFFFFFFFFFFF DUP3 AND SWAP1 POP SWAP2 SWAP1 POP JUMP JUMPDEST PUSH1 0x0 PUSH2 0x2C98 DUP3 PUSH2 0x2C6D JUMP JUMPDEST SWAP1 POP SWAP2 SWAP1 POP JUMP JUMPDEST PUSH2 0x2CA8 DUP2 PUSH2 0x2C8D JUMP JUMPDEST DUP2 EQ PUSH2 0x2CB3 JUMPI PUSH1 0x0 DUP1 REVERT JUMPDEST POP JUMP JUMPDEST PUSH1 0x0 DUP2 CALLDATALOAD SWAP1 POP PUSH2 0x2CC5 DUP2 PUSH2 0x2C9F JUMP JUMPDEST SWAP3 SWAP2 POP POP JUMP JUMPDEST PUSH1 0x0 PUSH1 0x20 DUP3 DUP5 SUB SLT ISZERO PUSH2 0x2CE1 JUMPI PUSH2 0x2CE0 PUSH2 0x2C68 JUMP JUMPDEST JUMPDEST PUSH1 0x0 PUSH2 0x2CEF DUP5 DUP3 DUP6 ADD PUSH2 0x2CB6 JUMP JUMPDEST SWAP2 POP POP SWAP3 SWAP2 POP POP JUMP JUMPDEST PUSH1 0x0 PUSH8 0xFFFFFFFFFFFFFFFF DUP3 AND SWAP1 POP SWAP2 SWAP1 POP JUMP JUMPDEST PUSH2 0x2D15 DUP2 PUSH2 0x2CF8 JUMP JUMPDEST DUP2 EQ PUSH2 0x2D20 JUMPI PUSH1 0x0 DUP1 REVERT JUMPDEST POP JUMP JUMPDEST PUSH1 0x0 DUP2 CALLDATALOAD SWAP1 POP PUSH2 0x2D32 DUP2 PUSH2 0x2D0C JUMP JUMPDEST SWAP3 SWAP2 POP POP JUMP JUMPDEST PUSH1 0x0 PUSH1 0x20 DUP3 DUP5 SUB SLT ISZERO PUSH2 0x2D4E JUMPI PUSH2 0x2D4D PUSH2 0x2C68 JUMP JUMPDEST JUMPDEST PUSH1 0x0 PUSH2 0x2D5C DUP5 DUP3 DUP6 ADD PUSH2 0x2D23 JUMP JUMPDEST SWAP2 POP POP SWAP3 SWAP2 POP POP JUMP JUMPDEST PUSH1 0x0 DUP2 SWAP1 POP SWAP2 SWAP1 POP JUMP JUMPDEST PUSH2 0x2D78 DUP2 PUSH2 0x2D65 JUMP JUMPDEST DUP2 EQ PUSH2 0x2D83 JUMPI PUSH1 0x0 DUP1 REVERT JUMPDEST POP JUMP JUMPDEST PUSH1 0x0 DUP2 CALLDATALOAD SWAP1 POP PUSH2 0x2D95 DUP2 PUSH2 0x2D6F JUMP JUMPDEST SWAP3 SWAP2 POP POP JUMP JUMPDEST PUSH1 0x0 PUSH1 0x20 DUP3 DUP5 SUB SLT ISZERO PUSH2 0x2DB1 JUMPI PUSH2 0x2DB0 PUSH2 0x2C68 JUMP JUMPDEST JUMPDEST PUSH1 0x0 PUSH2 0x2DBF DUP5 DUP3 DUP6 ADD PUSH2 0x2D86 JUMP JUMPDEST SWAP2 POP POP SWAP3 SWAP2 POP POP JUMP JUMPDEST PUSH2 0x2DD1 DUP2 PUSH2 0x2D65 JUMP JUMPDEST DUP3 MSTORE POP POP JUMP JUMPDEST PUSH1 0x0 PUSH1 0x20 DUP3 ADD SWAP1 POP PUSH2 0x2DEC PUSH1 0x0 DUP4 ADD DUP5 PUSH2 0x2DC8 JUMP JUMPDEST SWAP3 SWAP2 POP POP JUMP JUMPDEST PUSH1 0x0 DUP2 SWAP1 POP SWAP2 SWAP1 POP JUMP JUMPDEST PUSH2 0x2E05 DUP2 PUSH2 0x2DF2 JUMP JUMPDEST DUP2 EQ PUSH2 0x2E10 JUMPI PUSH1 0x0 DUP1 REVERT JUMPDEST POP JUMP JUMPDEST PUSH1 0x0 DUP2 CALLDATALOAD SWAP1 POP PUSH2 0x2E22 DUP2 PUSH2 0x2DFC JUMP JUMPDEST SWAP3 SWAP2 POP POP JUMP JUMPDEST PUSH1 0x0 DUP1 PUSH1 0x40 DUP4 DUP6 SUB SLT ISZERO PUSH2 0x2E3F JUMPI PUSH2 0x2E3E PUSH2 0x2C68 JUMP JUMPDEST JUMPDEST PUSH1 0x0 PUSH2 0x2E4D DUP6 DUP3 DUP7 ADD PUSH2 0x2E13 JUMP JUMPDEST SWAP3 POP POP PUSH1 0x20 PUSH2 0x2E5E DUP6 DUP3 DUP7 ADD PUSH2 0x2E13 JUMP JUMPDEST SWAP2 POP POP SWAP3 POP SWAP3 SWAP1 POP JUMP JUMPDEST PUSH2 0x2E71 DUP2 PUSH2 0x2C8D JUMP JUMPDEST DUP3 MSTORE POP POP JUMP JUMPDEST PUSH1 0x0 PUSH1 0x20 DUP3 ADD SWAP1 POP PUSH2 0x2E8C PUSH1 0x0 DUP4 ADD DUP5 PUSH2 0x2E68 JUMP JUMPDEST SWAP3 SWAP2 POP POP JUMP JUMPDEST PUSH1 0x0 PUSH1 0x20 DUP3 DUP5 SUB SLT ISZERO PUSH2 0x2EA8 JUMPI PUSH2 0x2EA7 PUSH2 0x2C68 JUMP JUMPDEST JUMPDEST PUSH1 0x0 PUSH2 0x2EB6 DUP5 DUP3 DUP6 ADD PUSH2 0x2E13 JUMP JUMPDEST SWAP2 POP POP SWAP3 SWAP2 POP POP JUMP JUMPDEST PUSH2 0x2EC8 DUP2 PUSH2 0x2DF2 JUMP JUMPDEST DUP3 MSTORE POP POP JUMP JUMPDEST PUSH1 0x0 PUSH1 0x20 DUP3 ADD SWAP1 POP PUSH2 0x2EE3 PUSH1 0x0 DUP4 ADD DUP5 PUSH2 0x2EBF JUMP JUMPDEST SWAP3 SWAP2 POP POP JUMP JUMPDEST PUSH2 0x2EF2 DUP2 PUSH2 0x2CF8 JUMP JUMPDEST DUP3 MSTORE POP POP JUMP JUMPDEST PUSH1 0x0 PUSH1 0x20 DUP3 ADD SWAP1 POP PUSH2 0x2F0D PUSH1 0x0 DUP4 ADD DUP5 PUSH2 0x2EE9 JUMP JUMPDEST SWAP3 SWAP2 POP POP JUMP JUMPDEST PUSH1 0x0 DUP1 PUSH1 0x40 DUP4 DUP6 SUB SLT ISZERO PUSH2 0x2F2A JUMPI PUSH2 0x2F29 PUSH2 0x2C68 JUMP JUMPDEST JUMPDEST PUSH1 0x0 PUSH2 0x2F38 DUP6 DUP3 DUP7 ADD PUSH2 0x2E13 JUMP JUMPDEST SWAP3 POP POP PUSH1 0x20 PUSH2 0x2F49 DUP6 DUP3 DUP7 ADD PUSH2 0x2CB6 JUMP JUMPDEST SWAP2 POP POP SWAP3 POP SWAP3 SWAP1 POP JUMP JUMPDEST PUSH1 0x0 DUP2 SWAP1 POP SWAP2 SWAP1 POP JUMP JUMPDEST PUSH1 0x0 PUSH2 0x2F78 PUSH2 0x2F73 PUSH2 0x2F6E DUP5 PUSH2 0x2C6D JUMP JUMPDEST PUSH2 0x2F53 JUMP JUMPDEST PUSH2 0x2C6D JUMP JUMPDEST SWAP1 POP SWAP2 SWAP1 POP JUMP JUMPDEST PUSH1 0x0 PUSH2 0x2F8A DUP3 PUSH2 0x2F5D JUMP JUMPDEST SWAP1 POP SWAP2 SWAP1 POP JUMP JUMPDEST PUSH1 0x0 PUSH2 0x2F9C DUP3 PUSH2 0x2F7F JUMP JUMPDEST SWAP1 POP SWAP2 SWAP1 POP JUMP JUMPDEST PUSH2 0x2FAC DUP2 PUSH2 0x2F91 JUMP JUMPDEST DUP3 MSTORE POP POP JUMP JUMPDEST PUSH1 0x0 PUSH1 0x20 DUP3 ADD SWAP1 POP PUSH2 0x2FC7 PUSH1 0x0 DUP4 ADD DUP5 PUSH2 0x2FA3 JUMP JUMPDEST SWAP3 SWAP2 POP POP JUMP JUMPDEST PUSH1 0x0 PUSH4 0xFFFFFFFF DUP3 AND SWAP1 POP SWAP2 SWAP1 POP JUMP JUMPDEST PUSH2 0x2FE6 DUP2 PUSH2 0x2FCD JUMP JUMPDEST DUP3 MSTORE POP POP JUMP JUMPDEST PUSH1 0x0 PUSH1 0x20 DUP3 ADD SWAP1 POP PUSH2 0x3001 PUSH1 0x0 DUP4 ADD DUP5 PUSH2 0x2FDD JUMP JUMPDEST SWAP3 SWAP2 POP POP JUMP JUMPDEST PUSH1 0x0 DUP2 ISZERO ISZERO SWAP1 POP SWAP2 SWAP1 POP JUMP JUMPDEST PUSH2 0x301C DUP2 PUSH2 0x3007 JUMP JUMPDEST DUP3 MSTORE POP POP JUMP JUMPDEST PUSH1 0x0 PUSH1 0x20 DUP3 ADD SWAP1 POP PUSH2 0x3037 PUSH1 0x0 DUP4 ADD DUP5 PUSH2 0x3013 JUMP JUMPDEST SWAP3 SWAP2 POP POP JUMP JUMPDEST PUSH1 0x0 PUSH1 0x40 DUP3 ADD SWAP1 POP PUSH2 0x3052 PUSH1 0x0 DUP4 ADD DUP6 PUSH2 0x2EBF JUMP JUMPDEST PUSH2 0x305F PUSH1 0x20 DUP4 ADD DUP5 PUSH2 0x3013 JUMP JUMPDEST SWAP4 SWAP3 POP POP POP JUMP JUMPDEST PUSH2 0x306F DUP2 PUSH2 0x2FCD JUMP JUMPDEST DUP2 EQ PUSH2 0x307A JUMPI PUSH1 0x0 DUP1 REVERT JUMPDEST POP JUMP JUMPDEST PUSH1 0x0 DUP2 CALLDATALOAD SWAP1 POP PUSH2 0x308C DUP2 PUSH2 0x3066 JUMP JUMPDEST SWAP3 SWAP2 POP POP JUMP JUMPDEST PUSH1 0x0 PUSH1 0x20 DUP3 DUP5 SUB SLT ISZERO PUSH2 0x30A8 JUMPI PUSH2 0x30A7 PUSH2 0x2C68 JUMP JUMPDEST JUMPDEST PUSH1 0x0 PUSH2 0x30B6 DUP5 DUP3 DUP6 ADD PUSH2 0x307D JUMP JUMPDEST SWAP2 POP POP SWAP3 SWAP2 POP POP JUMP JUMPDEST PUSH1 0x0 DUP1 PUSH1 0x0 DUP1 PUSH1 0x80 DUP6 DUP8 SUB SLT ISZERO PUSH2 0x30D9 JUMPI PUSH2 0x30D8 PUSH2 0x2C68 JUMP JUMPDEST JUMPDEST PUSH1 0x0 PUSH2 0x30E7 DUP8 DUP3 DUP9 ADD PUSH2 0x2CB6 JUMP JUMPDEST SWAP5 POP POP PUSH1 0x20 PUSH2 0x30F8 DUP8 DUP3 DUP9 ADD PUSH2 0x2CB6 JUMP JUMPDEST SWAP4 POP POP PUSH1 0x40 PUSH2 0x3109 DUP8 DUP3 DUP9 ADD PUSH2 0x2CB6 JUMP JUMPDEST SWAP3 POP POP PUSH1 0x60 PUSH2 0x311A DUP8 DUP3 DUP9 ADD PUSH2 0x307D JUMP JUMPDEST SWAP2 POP POP SWAP3 SWAP6 SWAP2 SWAP5 POP SWAP3 POP JUMP JUMPDEST PUSH1 0x0 PUSH1 0x40 DUP3 ADD SWAP1 POP PUSH2 0x313B PUSH1 0x0 DUP4 ADD DUP6 PUSH2 0x2EBF JUMP JUMPDEST PUSH2 0x3148 PUSH1 0x20 DUP4 ADD DUP5 PUSH2 0x2E68 JUMP JUMPDEST SWAP4 SWAP3 POP POP POP JUMP JUMPDEST PUSH2 0x3158 DUP2 PUSH2 0x3007 JUMP JUMPDEST DUP2 EQ PUSH2 0x3163 JUMPI PUSH1 0x0 DUP1 REVERT JUMPDEST POP JUMP JUMPDEST PUSH1 0x0 DUP2 MLOAD SWAP1 POP PUSH2 0x3175 DUP2 PUSH2 0x314F JUMP JUMPDEST SWAP3 SWAP2 POP POP JUMP JUMPDEST PUSH1 0x0 PUSH1 0x20 DUP3 DUP5 SUB SLT ISZERO PUSH2 0x3191 JUMPI PUSH2 0x3190 PUSH2 0x2C68 JUMP JUMPDEST JUMPDEST PUSH1 0x0 PUSH2 0x319F DUP5 DUP3 DUP6 ADD PUSH2 0x3166 JUMP JUMPDEST SWAP2 POP POP SWAP3 SWAP2 POP POP JUMP JUMPDEST PUSH1 0x0 PUSH1 0x40 DUP3 ADD SWAP1 POP PUSH2 0x31BD PUSH1 0x0 DUP4 ADD DUP6 PUSH2 0x2EE9 JUMP JUMPDEST PUSH2 0x31CA PUSH1 0x20 DUP4 ADD DUP5 PUSH2 0x2EE9 JUMP JUMPDEST SWAP4 SWAP3 POP POP POP JUMP JUMPDEST PUSH32 0x436F6E6669673A2070726F746F636F6C5472656173757279206973207A65726F PUSH1 0x0 DUP3 ADD MSTORE PUSH32 0x2061646472657373000000000000000000000000000000000000000000000000 PUSH1 0x20 DUP3 ADD MSTORE POP JUMP JUMPDEST PUSH1 0x0 PUSH2 0x322D PUSH1 0x28 DUP4 PUSH2 0x2BEB JUMP JUMPDEST SWAP2 POP PUSH2 0x3238 DUP3 PUSH2 0x31D1 JUMP JUMPDEST PUSH1 0x40 DUP3 ADD SWAP1 POP SWAP2 SWAP1 POP JUMP JUMPDEST PUSH1 0x0 PUSH1 0x20 DUP3 ADD SWAP1 POP DUP2 DUP2 SUB PUSH1 0x0 DUP4 ADD MSTORE PUSH2 0x325C DUP2 PUSH2 0x3220 JUMP JUMPDEST SWAP1 POP SWAP2 SWAP1 POP JUMP JUMPDEST PUSH32 0x416363657373436F6E74726F6C3A2063616E206F6E6C792072656E6F756E6365 PUSH1 0x0 DUP3 ADD MSTORE PUSH32 0x20726F6C657320666F722073656C660000000000000000000000000000000000 PUSH1 0x20 DUP3 ADD MSTORE POP JUMP JUMPDEST PUSH1 0x0 PUSH2 0x32BF PUSH1 0x2F DUP4 PUSH2 0x2BEB JUMP JUMPDEST SWAP2 POP PUSH2 0x32CA DUP3 PUSH2 0x3263 JUMP JUMPDEST PUSH1 0x40 DUP3 ADD SWAP1 POP SWAP2 SWAP1 POP JUMP JUMPDEST PUSH1 0x0 PUSH1 0x20 DUP3 ADD SWAP1 POP DUP2 DUP2 SUB PUSH1 0x0 DUP4 ADD MSTORE PUSH2 0x32EE DUP2 PUSH2 0x32B2 JUMP JUMPDEST SWAP1 POP SWAP2 SWAP1 POP JUMP JUMPDEST PUSH1 0x0 DUP2 SWAP1 POP SWAP2 SWAP1 POP JUMP JUMPDEST PUSH1 0x0 PUSH2 0x331A PUSH2 0x3315 PUSH2 0x3310 DUP5 PUSH2 0x32F5 JUMP JUMPDEST PUSH2 0x2F53 JUMP JUMPDEST PUSH2 0x2CF8 JUMP JUMPDEST SWAP1 POP SWAP2 SWAP1 POP JUMP JUMPDEST PUSH2 0x332A DUP2 PUSH2 0x32FF JUMP JUMPDEST DUP3 MSTORE POP POP JUMP JUMPDEST PUSH1 0x0 PUSH1 0x20 DUP3 ADD SWAP1 POP PUSH2 0x3345 PUSH1 0x0 DUP4 ADD DUP5 PUSH2 0x3321 JUMP JUMPDEST SWAP3 SWAP2 POP POP JUMP JUMPDEST PUSH32 0x436F6E6669673A2070726F746F636F6C5472656173757279526174696F206D75 PUSH1 0x0 DUP3 ADD MSTORE PUSH32 0x7374206265206C657373207468616E2031303030300000000000000000000000 PUSH1 0x20 DUP3 ADD MSTORE POP JUMP JUMPDEST PUSH1 0x0 PUSH2 0x33A7 PUSH1 0x35 DUP4 PUSH2 0x2BEB JUMP JUMPDEST SWAP2 POP PUSH2 0x33B2 DUP3 PUSH2 0x334B JUMP JUMPDEST PUSH1 0x40 DUP3 ADD SWAP1 POP SWAP2 SWAP1 POP JUMP JUMPDEST PUSH1 0x0 PUSH1 0x20 DUP3 ADD SWAP1 POP DUP2 DUP2 SUB PUSH1 0x0 DUP4 ADD MSTORE PUSH2 0x33D6 DUP2 PUSH2 0x339A JUMP JUMPDEST SWAP1 POP SWAP2 SWAP1 POP JUMP JUMPDEST PUSH1 0x0 DUP2 SWAP1 POP SWAP3 SWAP2 POP POP JUMP JUMPDEST PUSH32 0x416363657373436F6E74726F6C3A206163636F756E7420000000000000000000 PUSH1 0x0 DUP3 ADD MSTORE POP JUMP JUMPDEST PUSH1 0x0 PUSH2 0x341E PUSH1 0x17 DUP4 PUSH2 0x33DD JUMP JUMPDEST SWAP2 POP PUSH2 0x3429 DUP3 PUSH2 0x33E8 JUMP JUMPDEST PUSH1 0x17 DUP3 ADD SWAP1 POP SWAP2 SWAP1 POP JUMP JUMPDEST PUSH1 0x0 DUP2 MLOAD SWAP1 POP SWAP2 SWAP1 POP JUMP JUMPDEST PUSH1 0x0 JUMPDEST DUP4 DUP2 LT ISZERO PUSH2 0x345D JUMPI DUP1 DUP3 ADD MLOAD DUP2 DUP5 ADD MSTORE PUSH1 0x20 DUP2 ADD SWAP1 POP PUSH2 0x3442 JUMP JUMPDEST PUSH1 0x0 DUP5 DUP5 ADD MSTORE POP POP POP POP JUMP JUMPDEST PUSH1 0x0 PUSH2 0x3474 DUP3 PUSH2 0x3434 JUMP JUMPDEST PUSH2 0x347E DUP2 DUP6 PUSH2 0x33DD JUMP JUMPDEST SWAP4 POP PUSH2 0x348E DUP2 DUP6 PUSH1 0x20 DUP7 ADD PUSH2 0x343F JUMP JUMPDEST DUP1 DUP5 ADD SWAP2 POP POP SWAP3 SWAP2 POP POP JUMP JUMPDEST PUSH32 0x206973206D697373696E6720726F6C6520000000000000000000000000000000 PUSH1 0x0 DUP3 ADD MSTORE POP JUMP JUMPDEST PUSH1 0x0 PUSH2 0x34D0 PUSH1 0x11 DUP4 PUSH2 0x33DD JUMP JUMPDEST SWAP2 POP PUSH2 0x34DB DUP3 PUSH2 0x349A JUMP JUMPDEST PUSH1 0x11 DUP3 ADD SWAP1 POP SWAP2 SWAP1 POP JUMP JUMPDEST PUSH1 0x0 PUSH2 0x34F1 DUP3 PUSH2 0x3411 JUMP JUMPDEST SWAP2 POP PUSH2 0x34FD DUP3 DUP6 PUSH2 0x3469 JUMP JUMPDEST SWAP2 POP PUSH2 0x3508 DUP3 PUSH2 0x34C3 JUMP JUMPDEST SWAP2 POP PUSH2 0x3514 DUP3 DUP5 PUSH2 0x3469 JUMP JUMPDEST SWAP2 POP DUP2 SWAP1 POP SWAP4 SWAP3 POP POP POP JUMP JUMPDEST PUSH1 0x0 PUSH1 0x1F NOT PUSH1 0x1F DUP4 ADD AND SWAP1 POP SWAP2 SWAP1 POP JUMP JUMPDEST PUSH1 0x0 PUSH2 0x353C DUP3 PUSH2 0x3434 JUMP JUMPDEST PUSH2 0x3546 DUP2 DUP6 PUSH2 0x2BEB JUMP JUMPDEST SWAP4 POP PUSH2 0x3556 DUP2 DUP6 PUSH1 0x20 DUP7 ADD PUSH2 0x343F JUMP JUMPDEST PUSH2 0x355F DUP2 PUSH2 0x3520 JUMP JUMPDEST DUP5 ADD SWAP2 POP POP SWAP3 SWAP2 POP POP JUMP JUMPDEST PUSH1 0x0 PUSH1 0x20 DUP3 ADD SWAP1 POP DUP2 DUP2 SUB PUSH1 0x0 DUP4 ADD MSTORE PUSH2 0x3584 DUP2 DUP5 PUSH2 0x3531 JUMP JUMPDEST SWAP1 POP SWAP3 SWAP2 POP POP JUMP JUMPDEST PUSH32 0x4E487B7100000000000000000000000000000000000000000000000000000000 PUSH1 0x0 MSTORE PUSH1 0x11 PUSH1 0x4 MSTORE PUSH1 0x24 PUSH1 0x0 REVERT JUMPDEST PUSH1 0x0 PUSH2 0x35C6 DUP3 PUSH2 0x2D65 JUMP JUMPDEST SWAP2 POP PUSH2 0x35D1 DUP4 PUSH2 0x2D65 JUMP JUMPDEST SWAP3 POP DUP3 DUP3 MUL PUSH2 0x35DF DUP2 PUSH2 0x2D65 JUMP JUMPDEST SWAP2 POP DUP3 DUP3 DIV DUP5 EQ DUP4 ISZERO OR PUSH2 0x35F6 JUMPI PUSH2 0x35F5 PUSH2 0x358C JUMP JUMPDEST JUMPDEST POP SWAP3 SWAP2 POP POP JUMP JUMPDEST PUSH1 0x0 PUSH2 0x3608 DUP3 PUSH2 0x2D65 JUMP JUMPDEST SWAP2 POP PUSH2 0x3613 DUP4 PUSH2 0x2D65 JUMP JUMPDEST SWAP3 POP DUP3 DUP3 ADD SWAP1 POP DUP1 DUP3 GT ISZERO PUSH2 0x362B JUMPI PUSH2 0x362A PUSH2 0x358C JUMP JUMPDEST JUMPDEST SWAP3 SWAP2 POP POP JUMP JUMPDEST PUSH32 0x4E487B7100000000000000000000000000000000000000000000000000000000 PUSH1 0x0 MSTORE PUSH1 0x41 PUSH1 0x4 MSTORE PUSH1 0x24 PUSH1 0x0 REVERT JUMPDEST PUSH32 0x4E487B7100000000000000000000000000000000000000000000000000000000 PUSH1 0x0 MSTORE PUSH1 0x32 PUSH1 0x4 MSTORE PUSH1 0x24 PUSH1 0x0 REVERT JUMPDEST PUSH1 0x0 PUSH2 0x369A DUP3 PUSH2 0x2D65 JUMP JUMPDEST SWAP2 POP PUSH1 0x0 DUP3 SUB PUSH2 0x36AD JUMPI PUSH2 0x36AC PUSH2 0x358C JUMP JUMPDEST JUMPDEST PUSH1 0x1 DUP3 SUB SWAP1 POP SWAP2 SWAP1 POP JUMP JUMPDEST PUSH1 0x0 PUSH1 0x40 DUP3 ADD SWAP1 POP PUSH2 0x36CD PUSH1 0x0 DUP4 ADD DUP6 PUSH2 0x2DC8 JUMP JUMPDEST PUSH2 0x36DA PUSH1 0x20 DUP4 ADD DUP5 PUSH2 0x2DC8 JUMP JUMPDEST SWAP4 SWAP3 POP POP POP JUMP INVALID LOG2 PUSH5 0x6970667358 0x22 SLT KECCAK256 0x5D MOD 0xEC BASEFEE SWAP14 0xCF EQ 0xD7 0x4C POP 0xBE PUSH32 0x913115A0D4F70C7907A23D639527F75B5D3F4B2264736F6C6343000814003300 "},"gasEstimates":{"creation":{"codeDepositCost":"2820600","executionCost":"3076","totalCost":"2823676"},"external":{"ADDRESS_BRIDGE()":"469","ADDRESS_L1_DEALER()":"403","ADDRESS_METIS()":"403","ADDRESS_PROTOCOL_TREASURY()":"402","ADDRESS_REDEMPTION_QUEUE()":"404","ADDRESS_REWARD_DISPATCHER()":"446","ADDRESS_SVEMETIS()":"402","ADDRESS_VEMETIS()":"491","ADDRESS_VEMETIS_MINTER()":"468","ADMIN_ROLE()":"419","BACKEND_ROLE()":"419","DEFAULT_ADMIN_ROLE()":"403","FEE_PRECISION()":"446","INITIAL_DEPOSIT_AMOUNT()":"396","TIMELOCK_ROLE()":"417","UINT32_PROTOCOL_TREASURY_RATIO()":"469","UINT64_CANCEL_REDEMPTION_FEE()":"424","UINT64_MIN_QUEUE_LENGTH_SECS()":"445","UINT64_QUEUE_LENGTH_SECS()":"447","UINT64_REDEMPTION_FEE()":"491","UINT64_REDUCE_MATURITY_STAKE_SECS()":"446","_roles(bytes32)":"infinite","bridge()":"2636","config()":"infinite","configMap(uint256)":"infinite","getRoleAdmin(bytes32)":"infinite","grantRole(bytes32,address)":"infinite","hasRole(bytes32,address)":"5450","initialize()":"infinite","l1Dealer()":"2682","metis()":"2659","protocolTreasury()":"2637","protocolTreasuryRatio()":"2660","queueLengthSecs()":"2595","redemptionQueue()":"2704","renounceRole(bytes32,address)":"infinite","revokeRole(bytes32,address)":"infinite","rewardDispatcher()":"2727","setIntialValues(address,address,address,uint32)":"infinite","setL1Dealer(address)":"infinite","setProtocolTreasury(address)":"infinite","setProtocolTreasuryRatio(uint32)":"infinite","setQueueLengthSecs(uint64)":"infinite","setRedemptionQueue(address)":"infinite","setRewardDispatcher(address)":"infinite","setRoleAdmin(bytes32,bytes32)":"infinite","setSveMetis(address)":"infinite","setVeMetis(address)":"infinite","setVeMetisMinterAddress(address)":"infinite","sveMetis()":"2660","veMetis()":"2682","veMetisMinter()":"2615"},"internal":{"_grantRole(bytes32,address)":"31037","_revokeRole(bytes32,address)":"31040","_setRoleAdmin(bytes32,bytes32)":"26371"}},"methodIdentifiers":{"ADDRESS_BRIDGE()":"39ee2c3d","ADDRESS_L1_DEALER()":"3b8ad07f","ADDRESS_METIS()":"72ef1540","ADDRESS_PROTOCOL_TREASURY()":"a7d61819","ADDRESS_REDEMPTION_QUEUE()":"24059831","ADDRESS_REWARD_DISPATCHER()":"88ef06be","ADDRESS_SVEMETIS()":"cb9edeb1","ADDRESS_VEMETIS()":"71a1ea98","ADDRESS_VEMETIS_MINTER()":"d862e8d9","ADMIN_ROLE()":"75b238fc","BACKEND_ROLE()":"92c2becc","DEFAULT_ADMIN_ROLE()":"a217fddf","FEE_PRECISION()":"e63a391f","INITIAL_DEPOSIT_AMOUNT()":"e52083c6","TIMELOCK_ROLE()":"f288a2e2","UINT32_PROTOCOL_TREASURY_RATIO()":"50c4a8a2","UINT64_CANCEL_REDEMPTION_FEE()":"bad1e139","UINT64_MIN_QUEUE_LENGTH_SECS()":"f9aa973f","UINT64_QUEUE_LENGTH_SECS()":"4d19eaf1","UINT64_REDEMPTION_FEE()":"97fc7177","UINT64_REDUCE_MATURITY_STAKE_SECS()":"bbadf427","_roles(bytes32)":"bd99d7e1","bridge()":"e78cea92","config()":"79502c55","configMap(uint256)":"0e9429ba","getRoleAdmin(bytes32)":"248a9ca3","grantRole(bytes32,address)":"2f2ff15d","hasRole(bytes32,address)":"91d14854","initialize()":"8129fc1c","l1Dealer()":"a2be57ad","metis()":"e5974554","protocolTreasury()":"803db96d","protocolTreasuryRatio()":"8b587b9c","queueLengthSecs()":"2d76710b","redemptionQueue()":"97ec19be","renounceRole(bytes32,address)":"36568abe","revokeRole(bytes32,address)":"d547741f","rewardDispatcher()":"21951955","setIntialValues(address,address,address,uint32)":"fda42e21","setL1Dealer(address)":"8d40bd35","setProtocolTreasury(address)":"0c5a61f8","setProtocolTreasuryRatio(uint32)":"d27bc94a","setQueueLengthSecs(uint64)":"093c4e21","setRedemptionQueue(address)":"3b4c46d0","setRewardDispatcher(address)":"de55db9d","setRoleAdmin(bytes32,bytes32)":"1e4e0091","setSveMetis(address)":"43606f75","setVeMetis(address)":"2c59155a","setVeMetisMinterAddress(address)":"046bafdd","sveMetis()":"a2191470","veMetis()":"9336ce80","veMetisMinter()":"bf27726c"}},"storageLayout":{"storage":[{"astId":4359,"contract":"contracts/Config.sol:Config","label":"config","offset":0,"slot":"0","type":"t_contract(IConfig)5527"},{"astId":4361,"contract":"contracts/Config.sol:Config","label":"internalCalling","offset":0,"slot":"1","type":"t_address"},{"astId":4501,"contract":"contracts/Config.sol:Config","label":"__gap","offset":0,"slot":"2","type":"t_array(t_uint256)30_storage"},{"astId":4707,"contract":"contracts/Config.sol:Config","label":"configMap","offset":0,"slot":"32","type":"t_mapping(t_uint256,t_uint256)"},{"astId":4712,"contract":"contracts/Config.sol:Config","label":"_roles","offset":0,"slot":"33","type":"t_mapping(t_bytes32,t_struct(RoleData)4583_storage)"}],"types":{"t_address":{"encoding":"inplace","label":"address","numberOfBytes":"20"},"t_array(t_uint256)30_storage":{"base":"t_uint256","encoding":"inplace","label":"uint256[30]","numberOfBytes":"960"},"t_bool":{"encoding":"inplace","label":"bool","numberOfBytes":"1"},"t_bytes32":{"encoding":"inplace","label":"bytes32","numberOfBytes":"32"},"t_contract(IConfig)5527":{"encoding":"inplace","label":"contract IConfig","numberOfBytes":"20"},"t_mapping(t_address,t_bool)":{"encoding":"mapping","key":"t_address","label":"mapping(address => bool)","numberOfBytes":"32","value":"t_bool"},"t_mapping(t_bytes32,t_struct(RoleData)4583_storage)":{"encoding":"mapping","key":"t_bytes32","label":"mapping(bytes32 => struct Config.RoleData)","numberOfBytes":"32","value":"t_struct(RoleData)4583_storage"},"t_mapping(t_uint256,t_uint256)":{"encoding":"mapping","key":"t_uint256","label":"mapping(uint256 => uint256)","numberOfBytes":"32","value":"t_uint256"},"t_struct(RoleData)4583_storage":{"encoding":"inplace","label":"struct Config.RoleData","members":[{"astId":4578,"contract":"contracts/Config.sol:Config","label":"members","offset":0,"slot":"0","type":"t_mapping(t_address,t_bool)"},{"astId":4580,"contract":"contracts/Config.sol:Config","label":"adminRole","offset":0,"slot":"1","type":"t_bytes32"},{"astId":4582,"contract":"contracts/Config.sol:Config","label":"allowAll","offset":0,"slot":"2","type":"t_bool"}],"numberOfBytes":"96"},"t_uint256":{"encoding":"inplace","label":"uint256","numberOfBytes":"32"}}},"userdoc":{"events":{"CancelRedemptionFeeSet(uint64,uint64)":{"notice":"Emits when `cancelRedemptionFee` is set to `newValue`"},"MinQueueLengthSecs(uint64,uint64)":{"notice":"Emits when `minQueueLengthSecs` is set to `newValue`"},"PausedSet(bool,bool)":{"notice":"Emits when `isPaused` is set to `newValue`"},"QueueLengthSecsSet(uint64,uint64)":{"notice":"Emits when `queueLengthSecs` is set to `newValue`"},"ReduceMaturityStakeSecsSet(uint64,uint64)":{"notice":"Emits when `reduceMaturityStakeSecs` is set to `newValue`"}},"kind":"user","methods":{"ADMIN_ROLE()":{"notice":"The role for the admin"},"BACKEND_ROLE()":{"notice":"The role for the backend"},"DEFAULT_ADMIN_ROLE()":{"notice":"The default admin role"},"FEE_PRECISION()":{"notice":"The precision of the fee"},"INITIAL_DEPOSIT_AMOUNT()":{"notice":"sveMetis vault initial deposit amount"},"TIMELOCK_ROLE()":{"notice":"The role for the tmelock"},"config()":{"notice":"holds the address of the config contract"},"queueLengthSecs()":{"notice":"get queue length in seconds "},"redemptionQueue()":{"notice":"get redemptionQueue address"},"setQueueLengthSecs(uint64)":{"notice":"set queue length in seconds"}},"version":1}}}}