{
  "_format": "hh-sol-artifact-1",
  "contractName": "VeMetis",
  "sourceName": "contracts/VeMetis.sol",
  "abi": [
    {
      "inputs": [
        {
          "internalType": "address",
          "name": "spender",
          "type": "address"
        },
        {
          "internalType": "uint256",
          "name": "allowance",
          "type": "uint256"
        },
        {
          "internalType": "uint256",
          "name": "needed",
          "type": "uint256"
        }
      ],
      "name": "ERC20InsufficientAllowance",
      "type": "error"
    },
    {
      "inputs": [
        {
          "internalType": "address",
          "name": "sender",
          "type": "address"
        },
        {
          "internalType": "uint256",
          "name": "balance",
          "type": "uint256"
        },
        {
          "internalType": "uint256",
          "name": "needed",
          "type": "uint256"
        }
      ],
      "name": "ERC20InsufficientBalance",
      "type": "error"
    },
    {
      "inputs": [
        {
          "internalType": "address",
          "name": "approver",
          "type": "address"
        }
      ],
      "name": "ERC20InvalidApprover",
      "type": "error"
    },
    {
      "inputs": [
        {
          "internalType": "address",
          "name": "receiver",
          "type": "address"
        }
      ],
      "name": "ERC20InvalidReceiver",
      "type": "error"
    },
    {
      "inputs": [
        {
          "internalType": "address",
          "name": "sender",
          "type": "address"
        }
      ],
      "name": "ERC20InvalidSender",
      "type": "error"
    },
    {
      "inputs": [
        {
          "internalType": "address",
          "name": "spender",
          "type": "address"
        }
      ],
      "name": "ERC20InvalidSpender",
      "type": "error"
    },
    {
      "inputs": [],
      "name": "InvalidInitialization",
      "type": "error"
    },
    {
      "inputs": [],
      "name": "NotInitializing",
      "type": "error"
    },
    {
      "inputs": [
        {
          "internalType": "uint256",
          "name": "value",
          "type": "uint256"
        },
        {
          "internalType": "uint256",
          "name": "length",
          "type": "uint256"
        }
      ],
      "name": "StringsInsufficientHexLength",
      "type": "error"
    },
    {
      "anonymous": false,
      "inputs": [
        {
          "indexed": true,
          "internalType": "address",
          "name": "owner",
          "type": "address"
        },
        {
          "indexed": true,
          "internalType": "address",
          "name": "spender",
          "type": "address"
        },
        {
          "indexed": false,
          "internalType": "uint256",
          "name": "value",
          "type": "uint256"
        }
      ],
      "name": "Approval",
      "type": "event"
    },
    {
      "anonymous": false,
      "inputs": [
        {
          "indexed": false,
          "internalType": "uint64",
          "name": "version",
          "type": "uint64"
        }
      ],
      "name": "Initialized",
      "type": "event"
    },
    {
      "anonymous": false,
      "inputs": [
        {
          "indexed": true,
          "internalType": "address",
          "name": "from",
          "type": "address"
        },
        {
          "indexed": true,
          "internalType": "address",
          "name": "to",
          "type": "address"
        },
        {
          "indexed": false,
          "internalType": "uint256",
          "name": "value",
          "type": "uint256"
        }
      ],
      "name": "Transfer",
      "type": "event"
    },
    {
      "inputs": [],
      "name": "BETA_USER_ROLE",
      "outputs": [
        {
          "internalType": "bytes32",
          "name": "",
          "type": "bytes32"
        }
      ],
      "stateMutability": "view",
      "type": "function"
    },
    {
      "inputs": [],
      "name": "DEFAULT_ADMIN_ROLE",
      "outputs": [
        {
          "internalType": "bytes32",
          "name": "",
          "type": "bytes32"
        }
      ],
      "stateMutability": "view",
      "type": "function"
    },
    {
      "inputs": [],
      "name": "INTERNAL_ROLE",
      "outputs": [
        {
          "internalType": "bytes32",
          "name": "",
          "type": "bytes32"
        }
      ],
      "stateMutability": "view",
      "type": "function"
    },
    {
      "inputs": [
        {
          "internalType": "address",
          "name": "owner",
          "type": "address"
        },
        {
          "internalType": "address",
          "name": "spender",
          "type": "address"
        }
      ],
      "name": "allowance",
      "outputs": [
        {
          "internalType": "uint256",
          "name": "",
          "type": "uint256"
        }
      ],
      "stateMutability": "view",
      "type": "function"
    },
    {
      "inputs": [
        {
          "internalType": "address",
          "name": "spender",
          "type": "address"
        },
        {
          "internalType": "uint256",
          "name": "value",
          "type": "uint256"
        }
      ],
      "name": "approve",
      "outputs": [
        {
          "internalType": "bool",
          "name": "",
          "type": "bool"
        }
      ],
      "stateMutability": "nonpayable",
      "type": "function"
    },
    {
      "inputs": [
        {
          "internalType": "address",
          "name": "account",
          "type": "address"
        }
      ],
      "name": "balanceOf",
      "outputs": [
        {
          "internalType": "uint256",
          "name": "",
          "type": "uint256"
        }
      ],
      "stateMutability": "view",
      "type": "function"
    },
    {
      "inputs": [],
      "name": "config",
      "outputs": [
        {
          "internalType": "contract IConfig",
          "name": "",
          "type": "address"
        }
      ],
      "stateMutability": "view",
      "type": "function"
    },
    {
      "inputs": [],
      "name": "decimals",
      "outputs": [
        {
          "internalType": "uint8",
          "name": "",
          "type": "uint8"
        }
      ],
      "stateMutability": "view",
      "type": "function"
    },
    {
      "inputs": [
        {
          "internalType": "address",
          "name": "_config",
          "type": "address"
        }
      ],
      "name": "initialize",
      "outputs": [],
      "stateMutability": "nonpayable",
      "type": "function"
    },
    {
      "inputs": [
        {
          "internalType": "address",
          "name": "account",
          "type": "address"
        },
        {
          "internalType": "uint256",
          "name": "amount",
          "type": "uint256"
        }
      ],
      "name": "mint",
      "outputs": [],
      "stateMutability": "nonpayable",
      "type": "function"
    },
    {
      "inputs": [],
      "name": "minter",
      "outputs": [
        {
          "internalType": "address",
          "name": "",
          "type": "address"
        }
      ],
      "stateMutability": "view",
      "type": "function"
    },
    {
      "inputs": [],
      "name": "name",
      "outputs": [
        {
          "internalType": "string",
          "name": "",
          "type": "string"
        }
      ],
      "stateMutability": "view",
      "type": "function"
    },
    {
      "inputs": [],
      "name": "setMinter",
      "outputs": [],
      "stateMutability": "nonpayable",
      "type": "function"
    },
    {
      "inputs": [],
      "name": "symbol",
      "outputs": [
        {
          "internalType": "string",
          "name": "",
          "type": "string"
        }
      ],
      "stateMutability": "view",
      "type": "function"
    },
    {
      "inputs": [],
      "name": "totalSupply",
      "outputs": [
        {
          "internalType": "uint256",
          "name": "",
          "type": "uint256"
        }
      ],
      "stateMutability": "view",
      "type": "function"
    },
    {
      "inputs": [
        {
          "internalType": "address",
          "name": "to",
          "type": "address"
        },
        {
          "internalType": "uint256",
          "name": "value",
          "type": "uint256"
        }
      ],
      "name": "transfer",
      "outputs": [
        {
          "internalType": "bool",
          "name": "",
          "type": "bool"
        }
      ],
      "stateMutability": "nonpayable",
      "type": "function"
    },
    {
      "inputs": [
        {
          "internalType": "address",
          "name": "from",
          "type": "address"
        },
        {
          "internalType": "address",
          "name": "to",
          "type": "address"
        },
        {
          "internalType": "uint256",
          "name": "value",
          "type": "uint256"
        }
      ],
      "name": "transferFrom",
      "outputs": [
        {
          "internalType": "bool",
          "name": "",
          "type": "bool"
        }
      ],
      "stateMutability": "nonpayable",
      "type": "function"
    }
  ],
  "bytecode": "0x608060405234801561001057600080fd5b506112e9806100206000396000f3fe608060405234801561001057600080fd5b506004361061011b5760003560e01c806370a08231116100b2578063a217fddf11610081578063beff682411610066578063beff6824146102a1578063c4d66de8146102c8578063dd62ed3e146102db57600080fd5b8063a217fddf14610286578063a9059cbb1461028e57600080fd5b806370a082311461021b57806379502c551461026357806395d89b41146102765780639b5adea21461027e57600080fd5b806323b872dd116100ee57806323b872dd146101bd578063313ce567146101d057806340c10f19146101df5780635629ffd0146101f457600080fd5b806306fdde0314610120578063075461721461013e578063095ea7b31461016957806318160ddd1461018c575b600080fd5b610128610333565b6040516101359190610f47565b60405180910390f35b601f54610151906001600160a01b031681565b6040516001600160a01b039091168152602001610135565b61017c610177366004610f8f565b610408565b6040519015158152602001610135565b7f52c63247e1f47db19d5ce0460030c497f067ca4cebf71ba98eeadabe20bace02545b604051908152602001610135565b61017c6101cb366004610fbb565b610422565b60405160128152602001610135565b6101f26101ed366004610f8f565b610446565b005b6101af7feac7d12e691a65e32c753f5314b9ac42acdb8dd77f0033b2f2a2e2e012122a0d81565b6101af610229366004610ffc565b6001600160a01b031660009081527f52c63247e1f47db19d5ce0460030c497f067ca4cebf71ba98eeadabe20bace00602052604090205490565b600054610151906001600160a01b031681565b6101286104c6565b6101f2610517565b6101af600081565b61017c61029c366004610f8f565b610683565b6101af7fddd94edc7da5bca8f576c77964a4737ba5172c728e2d539e672f0229d1e9ec2d81565b6101f26102d6366004610ffc565b610691565b6101af6102e9366004611020565b6001600160a01b0391821660009081527f52c63247e1f47db19d5ce0460030c497f067ca4cebf71ba98eeadabe20bace016020908152604080832093909416825291909152205490565b7f52c63247e1f47db19d5ce0460030c497f067ca4cebf71ba98eeadabe20bace0380546060917f52c63247e1f47db19d5ce0460030c497f067ca4cebf71ba98eeadabe20bace009161038490611059565b80601f01602080910402602001604051908101604052809291908181526020018280546103b090611059565b80156103fd5780601f106103d2576101008083540402835291602001916103fd565b820191906000526020600020905b8154815290600101906020018083116103e057829003601f168201915b505050505091505090565b600033610416818585610829565b60019150505b92915050565b60003361043085828561083b565b61043b8585856108d8565b506001949350505050565b601f546001600160a01b0316336001600160a01b0316146104b85760405162461bcd60e51b815260206004820152602160248201527f56654d455449533a2063616c6c6572206973206e6f7420746865206d696e74656044820152603960f91b60648201526084015b60405180910390fd5b6104c28282610937565b5050565b7f52c63247e1f47db19d5ce0460030c497f067ca4cebf71ba98eeadabe20bace0480546060917f52c63247e1f47db19d5ce0460030c497f067ca4cebf71ba98eeadabe20bace009161038490611059565b600080546001600160a01b03166391d148547fddd94edc7da5bca8f576c77964a4737ba5172c728e2d539e672f0229d1e9ec2d336040517fffffffff0000000000000000000000000000000000000000000000000000000060e085901b16815260048101929092526001600160a01b03166024820152604401602060405180830381865afa1580156105ad573d6000803e3d6000fd5b505050506040513d601f19601f820116820180604052508101906105d19190611093565b6105de576105de8161096d565b60008054906101000a90046001600160a01b03166001600160a01b031663bf27726c6040518163ffffffff1660e01b8152600401602060405180830381865afa15801561062f573d6000803e3d6000fd5b505050506040513d601f19601f8201168201806040525081019061065391906110b5565b601f805473ffffffffffffffffffffffffffffffffffffffff19166001600160a01b039290921691909117905550565b6000336104168185856108d8565b7ff0c57e16840df040f15088dc2f81fe391c3923bec73e23a9662efc9c229c6a00805468010000000000000000810460ff16159067ffffffffffffffff166000811580156106dc5750825b905060008267ffffffffffffffff1660011480156106f95750303b155b905081158015610707575080155b156107255760405163f92ee8a960e01b815260040160405180910390fd5b845467ffffffffffffffff19166001178555831561075957845468ff00000000000000001916680100000000000000001785555b6107628661097a565b6107d66040518060400160405280600b81526020017f56656c6978204d657469730000000000000000000000000000000000000000008152506040518060400160405280600781526020017f76654d45544953000000000000000000000000000000000000000000000000008152506109b1565b831561082157845468ff000000000000000019168555604051600181527fc7f505b2f371ae2175ee4913f4499e1f2633a7b5936321eed1cdaeb6115181d29060200160405180910390a15b505050505050565b61083683838360016109c3565b505050565b6001600160a01b0383811660009081527f52c63247e1f47db19d5ce0460030c497f067ca4cebf71ba98eeadabe20bace01602090815260408083209386168352929052205460001981146108d257818110156108c357604051637dc7a0d960e11b81526001600160a01b038416600482015260248101829052604481018390526064016104af565b6108d2848484840360006109c3565b50505050565b6001600160a01b03831661090257604051634b637e8f60e11b8152600060048201526024016104af565b6001600160a01b03821661092c5760405163ec442f0560e01b8152600060048201526024016104af565b610836838383610abd565b6001600160a01b0382166109615760405163ec442f0560e01b8152600060048201526024016104af565b6104c260008383610abd565b6109778133610c0d565b50565b610982610cd1565b6000805473ffffffffffffffffffffffffffffffffffffffff19166001600160a01b0392909216919091179055565b6109b9610cd1565b6104c28282610d21565b7f52c63247e1f47db19d5ce0460030c497f067ca4cebf71ba98eeadabe20bace006001600160a01b038516610a0e5760405163e602df0560e01b8152600060048201526024016104af565b6001600160a01b038416610a3857604051634a1406b160e11b8152600060048201526024016104af565b6001600160a01b03808616600090815260018301602090815260408083209388168352929052208390558115610ab657836001600160a01b0316856001600160a01b03167f8c5be1e5ebec7d5bd14f71427d1e84f3dd0314c0f7b2291e5b200ac8c7c3b92585604051610aad91815260200190565b60405180910390a35b5050505050565b7f52c63247e1f47db19d5ce0460030c497f067ca4cebf71ba98eeadabe20bace006001600160a01b038416610b0b5781816002016000828254610b0091906110e8565b90915550610b7d9050565b6001600160a01b03841660009081526020829052604090205482811015610b5e5760405163391434e360e21b81526001600160a01b038616600482015260248101829052604481018490526064016104af565b6001600160a01b03851660009081526020839052604090209083900390555b6001600160a01b038316610b9b576002810180548390039055610bba565b6001600160a01b03831660009081526020829052604090208054830190555b826001600160a01b0316846001600160a01b03167fddf252ad1be2c89b69c2b068fc378daa952ba7f163c4a11628f55a4df523b3ef84604051610bff91815260200190565b60405180910390a350505050565b600054604051632474521560e21b8152600481018490526001600160a01b038381166024830152909116906391d1485490604401602060405180830381865afa158015610c5e573d6000803e3d6000fd5b505050506040513d601f19601f82011682018060405250810190610c829190611093565b6104c257610c8f81610d84565b610c9a836020610d96565b604051602001610cab9291906110fb565b60408051601f198184030181529082905262461bcd60e51b82526104af91600401610f47565b7ff0c57e16840df040f15088dc2f81fe391c3923bec73e23a9662efc9c229c6a005468010000000000000000900460ff16610d1f57604051631afcd79f60e31b815260040160405180910390fd5b565b610d29610cd1565b7f52c63247e1f47db19d5ce0460030c497f067ca4cebf71ba98eeadabe20bace007f52c63247e1f47db19d5ce0460030c497f067ca4cebf71ba98eeadabe20bace03610d7584826111d8565b50600481016108d283826111d8565b606061041c6001600160a01b03831660145b6060826000610da6846002611298565b610db19060026110e8565b67ffffffffffffffff811115610dc957610dc961117c565b6040519080825280601f01601f191660200182016040528015610df3576020820181803683370190505b509050600360fc1b81600081518110610e0e57610e0e6112af565b60200101906001600160f81b031916908160001a905350600f60fb1b81600181518110610e3d57610e3d6112af565b60200101906001600160f81b031916908160001a9053506000610e61856002611298565b610e6c9060016110e8565b90505b6001811115610ef1577f303132333435363738396162636465660000000000000000000000000000000083600f1660108110610ead57610ead6112af565b1a60f81b828281518110610ec357610ec36112af565b60200101906001600160f81b031916908160001a90535060049290921c91610eea816112c5565b9050610e6f565b508115610f1b5760405163e22e27eb60e01b815260048101869052602481018590526044016104af565b949350505050565b60005b83811015610f3e578181015183820152602001610f26565b50506000910152565b6020815260008251806020840152610f66816040850160208701610f23565b601f01601f19169190910160400192915050565b6001600160a01b038116811461097757600080fd5b60008060408385031215610fa257600080fd5b8235610fad81610f7a565b946020939093013593505050565b600080600060608486031215610fd057600080fd5b8335610fdb81610f7a565b92506020840135610feb81610f7a565b929592945050506040919091013590565b60006020828403121561100e57600080fd5b813561101981610f7a565b9392505050565b6000806040838503121561103357600080fd5b823561103e81610f7a565b9150602083013561104e81610f7a565b809150509250929050565b600181811c9082168061106d57607f821691505b60208210810361108d57634e487b7160e01b600052602260045260246000fd5b50919050565b6000602082840312156110a557600080fd5b8151801515811461101957600080fd5b6000602082840312156110c757600080fd5b815161101981610f7a565b634e487b7160e01b600052601160045260246000fd5b8082018082111561041c5761041c6110d2565b7f416363657373436f6e74726f6c3a206163636f756e7420000000000000000000815260008351611133816017850160208801610f23565b7f206973206d697373696e6720726f6c65200000000000000000000000000000006017918401918201528351611170816028840160208801610f23565b01602801949350505050565b634e487b7160e01b600052604160045260246000fd5b601f82111561083657600081815260208120601f850160051c810160208610156111b95750805b601f850160051c820191505b81811015610821578281556001016111c5565b815167ffffffffffffffff8111156111f2576111f261117c565b611206816112008454611059565b84611192565b602080601f83116001811461123b57600084156112235750858301515b600019600386901b1c1916600185901b178555610821565b600085815260208120601f198616915b8281101561126a5788860151825594840194600190910190840161124b565b50858210156112885787850151600019600388901b60f8161c191681555b5050505050600190811b01905550565b808202811582820484141761041c5761041c6110d2565b634e487b7160e01b600052603260045260246000fd5b6000816112d4576112d46110d2565b50600019019056fea164736f6c6343000814000a",
  "linkReferences": {},
  "deployedLinkReferences": {}
}