{
  "_format": "hh-sol-artifact-1",
  "contractName": "Config",
  "sourceName": "contracts/Config.sol",
  "abi": [
    {
      "inputs": [],
      "name": "InvalidInitialization",
      "type": "error"
    },
    {
      "inputs": [],
      "name": "NotInitializing",
      "type": "error"
    },
    {
      "inputs": [
        {
          "internalType": "uint256",
          "name": "value",
          "type": "uint256"
        },
        {
          "internalType": "uint256",
          "name": "length",
          "type": "uint256"
        }
      ],
      "name": "StringsInsufficientHexLength",
      "type": "error"
    },
    {
      "anonymous": false,
      "inputs": [
        {
          "indexed": false,
          "internalType": "uint64",
          "name": "version",
          "type": "uint64"
        }
      ],
      "name": "Initialized",
      "type": "event"
    },
    {
      "anonymous": false,
      "inputs": [
        {
          "indexed": true,
          "internalType": "bytes32",
          "name": "role",
          "type": "bytes32"
        },
        {
          "indexed": true,
          "internalType": "bytes32",
          "name": "previousAdminRole",
          "type": "bytes32"
        },
        {
          "indexed": true,
          "internalType": "bytes32",
          "name": "newAdminRole",
          "type": "bytes32"
        }
      ],
      "name": "RoleAdminChanged",
      "type": "event"
    },
    {
      "anonymous": false,
      "inputs": [
        {
          "indexed": true,
          "internalType": "bytes32",
          "name": "role",
          "type": "bytes32"
        },
        {
          "indexed": true,
          "internalType": "address",
          "name": "account",
          "type": "address"
        },
        {
          "indexed": true,
          "internalType": "address",
          "name": "sender",
          "type": "address"
        }
      ],
      "name": "RoleGranted",
      "type": "event"
    },
    {
      "anonymous": false,
      "inputs": [
        {
          "indexed": true,
          "internalType": "bytes32",
          "name": "role",
          "type": "bytes32"
        },
        {
          "indexed": true,
          "internalType": "address",
          "name": "account",
          "type": "address"
        },
        {
          "indexed": true,
          "internalType": "address",
          "name": "sender",
          "type": "address"
        }
      ],
      "name": "RoleRevoked",
      "type": "event"
    },
    {
      "inputs": [],
      "name": "ADDRESS_BRIDGE",
      "outputs": [
        {
          "internalType": "uint256",
          "name": "",
          "type": "uint256"
        }
      ],
      "stateMutability": "view",
      "type": "function"
    },
    {
      "inputs": [],
      "name": "ADDRESS_L1_DEALER",
      "outputs": [
        {
          "internalType": "uint256",
          "name": "",
          "type": "uint256"
        }
      ],
      "stateMutability": "view",
      "type": "function"
    },
    {
      "inputs": [],
      "name": "ADDRESS_METIS",
      "outputs": [
        {
          "internalType": "uint256",
          "name": "",
          "type": "uint256"
        }
      ],
      "stateMutability": "view",
      "type": "function"
    },
    {
      "inputs": [],
      "name": "ADDRESS_PROTOCOL_TREASURY",
      "outputs": [
        {
          "internalType": "uint256",
          "name": "",
          "type": "uint256"
        }
      ],
      "stateMutability": "view",
      "type": "function"
    },
    {
      "inputs": [],
      "name": "ADDRESS_REWARD_DISPATCHER",
      "outputs": [
        {
          "internalType": "uint256",
          "name": "",
          "type": "uint256"
        }
      ],
      "stateMutability": "view",
      "type": "function"
    },
    {
      "inputs": [],
      "name": "ADDRESS_SVEMETIS",
      "outputs": [
        {
          "internalType": "uint256",
          "name": "",
          "type": "uint256"
        }
      ],
      "stateMutability": "view",
      "type": "function"
    },
    {
      "inputs": [],
      "name": "ADDRESS_VEMETIS",
      "outputs": [
        {
          "internalType": "uint256",
          "name": "",
          "type": "uint256"
        }
      ],
      "stateMutability": "view",
      "type": "function"
    },
    {
      "inputs": [],
      "name": "ADDRESS_VEMETIS_MINTER",
      "outputs": [
        {
          "internalType": "uint256",
          "name": "",
          "type": "uint256"
        }
      ],
      "stateMutability": "view",
      "type": "function"
    },
    {
      "inputs": [],
      "name": "BETA_USER_ROLE",
      "outputs": [
        {
          "internalType": "bytes32",
          "name": "",
          "type": "bytes32"
        }
      ],
      "stateMutability": "view",
      "type": "function"
    },
    {
      "inputs": [],
      "name": "DEFAULT_ADMIN_ROLE",
      "outputs": [
        {
          "internalType": "bytes32",
          "name": "",
          "type": "bytes32"
        }
      ],
      "stateMutability": "view",
      "type": "function"
    },
    {
      "inputs": [],
      "name": "INTERNAL_ROLE",
      "outputs": [
        {
          "internalType": "bytes32",
          "name": "",
          "type": "bytes32"
        }
      ],
      "stateMutability": "view",
      "type": "function"
    },
    {
      "inputs": [],
      "name": "UINT32_PROTOCOL_TREASURY_RATIO",
      "outputs": [
        {
          "internalType": "uint256",
          "name": "",
          "type": "uint256"
        }
      ],
      "stateMutability": "view",
      "type": "function"
    },
    {
      "inputs": [
        {
          "internalType": "bytes32",
          "name": "",
          "type": "bytes32"
        }
      ],
      "name": "_roles",
      "outputs": [
        {
          "internalType": "bytes32",
          "name": "adminRole",
          "type": "bytes32"
        },
        {
          "internalType": "bool",
          "name": "allowAll",
          "type": "bool"
        }
      ],
      "stateMutability": "view",
      "type": "function"
    },
    {
      "inputs": [
        {
          "internalType": "bytes32",
          "name": "role",
          "type": "bytes32"
        },
        {
          "internalType": "bool",
          "name": "allow",
          "type": "bool"
        }
      ],
      "name": "allowAll",
      "outputs": [],
      "stateMutability": "nonpayable",
      "type": "function"
    },
    {
      "inputs": [],
      "name": "bridge",
      "outputs": [
        {
          "internalType": "address",
          "name": "",
          "type": "address"
        }
      ],
      "stateMutability": "view",
      "type": "function"
    },
    {
      "inputs": [],
      "name": "config",
      "outputs": [
        {
          "internalType": "contract IConfig",
          "name": "",
          "type": "address"
        }
      ],
      "stateMutability": "view",
      "type": "function"
    },
    {
      "inputs": [
        {
          "internalType": "uint256",
          "name": "",
          "type": "uint256"
        }
      ],
      "name": "configMap",
      "outputs": [
        {
          "internalType": "uint256",
          "name": "",
          "type": "uint256"
        }
      ],
      "stateMutability": "view",
      "type": "function"
    },
    {
      "inputs": [
        {
          "internalType": "bytes32",
          "name": "role",
          "type": "bytes32"
        }
      ],
      "name": "getRoleAdmin",
      "outputs": [
        {
          "internalType": "bytes32",
          "name": "",
          "type": "bytes32"
        }
      ],
      "stateMutability": "view",
      "type": "function"
    },
    {
      "inputs": [
        {
          "internalType": "bytes32",
          "name": "role",
          "type": "bytes32"
        },
        {
          "internalType": "address",
          "name": "account",
          "type": "address"
        }
      ],
      "name": "grantRole",
      "outputs": [],
      "stateMutability": "nonpayable",
      "type": "function"
    },
    {
      "inputs": [
        {
          "internalType": "bytes32",
          "name": "role",
          "type": "bytes32"
        },
        {
          "internalType": "address",
          "name": "account",
          "type": "address"
        }
      ],
      "name": "hasRole",
      "outputs": [
        {
          "internalType": "bool",
          "name": "",
          "type": "bool"
        }
      ],
      "stateMutability": "view",
      "type": "function"
    },
    {
      "inputs": [],
      "name": "initialize",
      "outputs": [],
      "stateMutability": "nonpayable",
      "type": "function"
    },
    {
      "inputs": [],
      "name": "l1Dealer",
      "outputs": [
        {
          "internalType": "address",
          "name": "",
          "type": "address"
        }
      ],
      "stateMutability": "view",
      "type": "function"
    },
    {
      "inputs": [],
      "name": "metis",
      "outputs": [
        {
          "internalType": "address",
          "name": "",
          "type": "address"
        }
      ],
      "stateMutability": "view",
      "type": "function"
    },
    {
      "inputs": [],
      "name": "protocolTreasury",
      "outputs": [
        {
          "internalType": "address",
          "name": "",
          "type": "address"
        }
      ],
      "stateMutability": "view",
      "type": "function"
    },
    {
      "inputs": [],
      "name": "protocolTreasuryRatio",
      "outputs": [
        {
          "internalType": "uint32",
          "name": "",
          "type": "uint32"
        }
      ],
      "stateMutability": "view",
      "type": "function"
    },
    {
      "inputs": [
        {
          "internalType": "bytes32",
          "name": "role",
          "type": "bytes32"
        },
        {
          "internalType": "address",
          "name": "account",
          "type": "address"
        }
      ],
      "name": "renounceRole",
      "outputs": [],
      "stateMutability": "nonpayable",
      "type": "function"
    },
    {
      "inputs": [
        {
          "internalType": "bytes32",
          "name": "role",
          "type": "bytes32"
        },
        {
          "internalType": "address",
          "name": "account",
          "type": "address"
        }
      ],
      "name": "revokeRole",
      "outputs": [],
      "stateMutability": "nonpayable",
      "type": "function"
    },
    {
      "inputs": [],
      "name": "rewardDispatcher",
      "outputs": [
        {
          "internalType": "address",
          "name": "",
          "type": "address"
        }
      ],
      "stateMutability": "view",
      "type": "function"
    },
    {
      "inputs": [
        {
          "internalType": "address",
          "name": "_metis",
          "type": "address"
        },
        {
          "internalType": "address",
          "name": "_bridge",
          "type": "address"
        },
        {
          "internalType": "address",
          "name": "_protocolTreasury",
          "type": "address"
        },
        {
          "internalType": "uint32",
          "name": "_protocolTreasuryRatio",
          "type": "uint32"
        }
      ],
      "name": "setIntialValues",
      "outputs": [],
      "stateMutability": "nonpayable",
      "type": "function"
    },
    {
      "inputs": [
        {
          "internalType": "address",
          "name": "_l1Dealer",
          "type": "address"
        }
      ],
      "name": "setL1Dealer",
      "outputs": [],
      "stateMutability": "nonpayable",
      "type": "function"
    },
    {
      "inputs": [
        {
          "internalType": "address",
          "name": "_protocolTreasury",
          "type": "address"
        }
      ],
      "name": "setProtocolTreasury",
      "outputs": [],
      "stateMutability": "nonpayable",
      "type": "function"
    },
    {
      "inputs": [
        {
          "internalType": "uint32",
          "name": "_protocolTreasuryRatio",
          "type": "uint32"
        }
      ],
      "name": "setProtocolTreasuryRatio",
      "outputs": [],
      "stateMutability": "nonpayable",
      "type": "function"
    },
    {
      "inputs": [
        {
          "internalType": "address",
          "name": "_rewardDispatcher",
          "type": "address"
        }
      ],
      "name": "setRewardDispatcher",
      "outputs": [],
      "stateMutability": "nonpayable",
      "type": "function"
    },
    {
      "inputs": [
        {
          "internalType": "bytes32",
          "name": "role",
          "type": "bytes32"
        },
        {
          "internalType": "bytes32",
          "name": "adminRole",
          "type": "bytes32"
        }
      ],
      "name": "setRoleAdmin",
      "outputs": [],
      "stateMutability": "nonpayable",
      "type": "function"
    },
    {
      "inputs": [
        {
          "internalType": "address",
          "name": "_sveMetis",
          "type": "address"
        }
      ],
      "name": "setSveMetis",
      "outputs": [],
      "stateMutability": "nonpayable",
      "type": "function"
    },
    {
      "inputs": [
        {
          "internalType": "address",
          "name": "_veMetis",
          "type": "address"
        }
      ],
      "name": "setVeMetis",
      "outputs": [],
      "stateMutability": "nonpayable",
      "type": "function"
    },
    {
      "inputs": [
        {
          "internalType": "address",
          "name": "_veMetisMinter",
          "type": "address"
        }
      ],
      "name": "setVeMetisMinterAddress",
      "outputs": [],
      "stateMutability": "nonpayable",
      "type": "function"
    },
    {
      "inputs": [],
      "name": "sveMetis",
      "outputs": [
        {
          "internalType": "address",
          "name": "",
          "type": "address"
        }
      ],
      "stateMutability": "view",
      "type": "function"
    },
    {
      "inputs": [],
      "name": "veMetis",
      "outputs": [
        {
          "internalType": "address",
          "name": "",
          "type": "address"
        }
      ],
      "stateMutability": "view",
      "type": "function"
    },
    {
      "inputs": [],
      "name": "veMetisMinter",
      "outputs": [
        {
          "internalType": "address",
          "name": "",
          "type": "address"
        }
      ],
      "stateMutability": "view",
      "type": "function"
    }
  ],
  "bytecode": "0x608060405234801561001057600080fd5b50611f15806100206000396000f3fe608060405234801561001057600080fd5b50600436106102c85760003560e01c806388ef06be1161017b578063beff6824116100d8578063d862e8d91161008c578063e597455411610071578063e597455414610878578063e78cea92146108c7578063fda42e211461091657600080fd5b8063d862e8d91461083e578063de55db9d1461086557600080fd5b8063cb9edeb1116100bd578063cb9edeb1146107f1578063d27bc94a14610818578063d547741f1461082b57600080fd5b8063beff68241461078d578063bf27726c146107a257600080fd5b8063a217fddf1161012f578063a2be57ad11610114578063a2be57ad146106d5578063a7d6181914610724578063bd99d7e11461074b57600080fd5b8063a217fddf1461067e578063a21914701461068657600080fd5b80638d40bd35116101605780638d40bd35146105f957806391d148541461060c5780639336ce801461062f57600080fd5b806388ef06be146105735780638b587b9c1461059a57600080fd5b80633b8ad07f1161022957806371a1ea98116101dd57806379502c55116101c257806379502c5514610509578063803db96d1461051c5780638129fc1c1461056b57600080fd5b806371a1ea98146104bb57806372ef1540146104e257600080fd5b806350c4a8a21161020e57806350c4a8a21461045a5780635629ffd01461048157806359ece0bb146104a857600080fd5b80633b8ad07f1461042057806343606f751461044757600080fd5b8063248a9ca3116102805780632f2ff15d116102655780632f2ff15d146103d357806336568abe146103e657806339ee2c3d146103f957600080fd5b8063248a9ca31461039d5780632c59155a146103c057600080fd5b80630e9429ba116102b15780630e9429ba146102f55780631e4e009114610327578063219519551461033a57600080fd5b8063046bafdd146102cd5780630c5a61f8146102e2575b600080fd5b6102e06102db366004611c26565b610929565b005b6102e06102f0366004611c26565b610a36565b610314610303366004611c41565b602080526000908152604090205481565b6040519081526020015b60405180910390f35b6102e0610335366004611c5a565b610baa565b7ffa6557a51a133888544923dacdca355721a35fbeebe974f1e7d28d3105e033cf600052602080527f6b4b900a76ee9d78397d660346dde6e269341af26e2e3d7e860254061598b4e1545b6040516001600160a01b03909116815260200161031e565b6103146103ab366004611c41565b6000908152601f602052604090206001015490565b6102e06103ce366004611c26565b610c80565b6102e06103e1366004611c7c565b610d89565b6102e06103f4366004611c7c565b610e41565b6103147fe4a4e5425e0f84d8d68c8433df2512e8e48969299d032314614356a42435a73981565b6103147f69661401bd068c022c278f73b3789a33e22d5eafe981e9265041b6fe72a122fe81565b6102e0610455366004611c26565b610ec9565b6103147f6fede10a232b276bc7c310abfbe151b58ba2286d825bc9e66c6e5fd488844e1081565b6103147feac7d12e691a65e32c753f5314b9ac42acdb8dd77f0033b2f2a2e2e012122a0d81565b6102e06104b6366004611cb6565b610fd2565b6103147f3beeeeb89724bb62c1be7636d1b77a4ca5096701b9f62a5b667ba95489c0648f81565b6103147f36051e26b7ee9ab8bfe79486c0d7a7a2112864a57aa54065540eccb3c4a4452281565b600054610385906001600160a01b031681565b7f6ea4018daf79dd2b85ff55e23caa9708d35a5af81f862526e25c36407a95ad81600052602080527f363159153f087a0f84f9ea16b1d11c35219f7bf329d301ab0ef3b49faf6c671454610385565b6102e0611093565b6103147ffa6557a51a133888544923dacdca355721a35fbeebe974f1e7d28d3105e033cf81565b7f6fede10a232b276bc7c310abfbe151b58ba2286d825bc9e66c6e5fd488844e10600052602080527f38da50f459e2651ca06e5f390e9994c8002d28d32ab0e4fc445384c4c9ce4eb55460405163ffffffff909116815260200161031e565b6102e0610607366004611c26565b6111c1565b61061f61061a366004611c7c565b6112ca565b604051901515815260200161031e565b7f3beeeeb89724bb62c1be7636d1b77a4ca5096701b9f62a5b667ba95489c0648f600052602080527fdefef0a207e624a84767d8c3d73202102659f4fc33947243d2618a67c7b2099b54610385565b610314600081565b7fee0b41063c9b42cf4cb1e7f8c47f5eeb6d29cf430aef897afc1cd2888dda3e04600052602080527fe77b3c13587f8b5573c18df5c0e173d8f74f18f8ed97a484ff39939911ea650f54610385565b7f69661401bd068c022c278f73b3789a33e22d5eafe981e9265041b6fe72a122fe600052602080527f528cbc6506b75417ccf898c79eccea2d82abdc387d7b9592ffac3c8eb6e5b81a54610385565b6103147f6ea4018daf79dd2b85ff55e23caa9708d35a5af81f862526e25c36407a95ad8181565b610778610759366004611c41565b601f602052600090815260409020600181015460029091015460ff1682565b6040805192835290151560208301520161031e565b610314600080516020611ee983398151915281565b7f6fc77dba7c1971f6af1f32b3c7728da581e8b9fe553e83800c1e287b92886638600052602080527fc307daaad178ba6a8f0f9e64949d6cd28dccacd8d79671c926c9c5d4fd7226c654610385565b6103147fee0b41063c9b42cf4cb1e7f8c47f5eeb6d29cf430aef897afc1cd2888dda3e0481565b6102e0610826366004611cfa565b611315565b6102e0610839366004611c7c565b611483565b6103147f6fc77dba7c1971f6af1f32b3c7728da581e8b9fe553e83800c1e287b9288663881565b6102e0610873366004611c26565b61153b565b7f36051e26b7ee9ab8bfe79486c0d7a7a2112864a57aa54065540eccb3c4a44522600052602080527f705f7ceffec7a8bbf7df07ddf75d3e738b60addc24e1ec8b7f8790c6a515b71654610385565b7fe4a4e5425e0f84d8d68c8433df2512e8e48969299d032314614356a42435a739600052602080527f51056645967c4be230fedff94b20fab38b7a16c96193014207b8e9925d4286e254610385565b6102e0610924366004611d15565b611644565b600080546001600160a01b03166391d14854600080516020611ee9833981519152336040516001600160e01b031960e085901b16815260048101929092526001600160a01b03166024820152604401602060405180830381865afa158015610995573d6000803e3d6000fd5b505050506040513d601f19601f820116820180604052508101906109b99190611d69565b6109c6576109c6816117d0565b7f6fc77dba7c1971f6af1f32b3c7728da581e8b9fe553e83800c1e287b92886638600052602080526001600160a01b0382167fc307daaad178ba6a8f0f9e64949d6cd28dccacd8d79671c926c9c5d4fd7226c655610a32600080516020611ee9833981519152836117dd565b5050565b600080546001600160a01b03166391d14854600080516020611ee9833981519152336040516001600160e01b031960e085901b16815260048101929092526001600160a01b03166024820152604401602060405180830381865afa158015610aa2573d6000803e3d6000fd5b505050506040513d601f19601f82011682018060405250810190610ac69190611d69565b610ad357610ad3816117d0565b6001600160a01b038216610b545760405162461bcd60e51b815260206004820152602860248201527f436f6e6669673a2070726f746f636f6c5472656173757279206973207a65726f60448201527f206164647265737300000000000000000000000000000000000000000000000060648201526084015b60405180910390fd5b507f6ea4018daf79dd2b85ff55e23caa9708d35a5af81f862526e25c36407a95ad81600052602080526001600160a01b03167f363159153f087a0f84f9ea16b1d11c35219f7bf329d301ab0ef3b49faf6c671455565b60008052601f6020527f8c60882dec3cf54096060609fdd16c336781b436ca34f3f27a220dfcfa1d4856546000546001600160a01b03166391d14854600080516020611ee9833981519152336040516001600160e01b031960e085901b16815260048101929092526001600160a01b03166024820152604401602060405180830381865afa158015610c40573d6000803e3d6000fd5b505050506040513d601f19601f82011682018060405250810190610c649190611d69565b610c7157610c71816117d0565b610c7b8383611863565b505050565b600080546001600160a01b03166391d14854600080516020611ee9833981519152336040516001600160e01b031960e085901b16815260048101929092526001600160a01b03166024820152604401602060405180830381865afa158015610cec573d6000803e3d6000fd5b505050506040513d601f19601f82011682018060405250810190610d109190611d69565b610d1d57610d1d816117d0565b7f3beeeeb89724bb62c1be7636d1b77a4ca5096701b9f62a5b667ba95489c0648f600052602080526001600160a01b0382167fdefef0a207e624a84767d8c3d73202102659f4fc33947243d2618a67c7b2099b55610a32600080516020611ee9833981519152836117dd565b6000828152601f60205260409020600101546000546001600160a01b03166391d14854600080516020611ee9833981519152336040516001600160e01b031960e085901b16815260048101929092526001600160a01b03166024820152604401602060405180830381865afa158015610e06573d6000803e3d6000fd5b505050506040513d601f19601f82011682018060405250810190610e2a9190611d69565b610e3757610e37816117d0565b610c7b83836117dd565b6001600160a01b0381163314610ebf5760405162461bcd60e51b815260206004820152602f60248201527f416363657373436f6e74726f6c3a2063616e206f6e6c792072656e6f756e636560448201527f20726f6c657320666f722073656c6600000000000000000000000000000000006064820152608401610b4b565b610a3282826118ae565b600080546001600160a01b03166391d14854600080516020611ee9833981519152336040516001600160e01b031960e085901b16815260048101929092526001600160a01b03166024820152604401602060405180830381865afa158015610f35573d6000803e3d6000fd5b505050506040513d601f19601f82011682018060405250810190610f599190611d69565b610f6657610f66816117d0565b7fee0b41063c9b42cf4cb1e7f8c47f5eeb6d29cf430aef897afc1cd2888dda3e04600052602080526001600160a01b0382167fe77b3c13587f8b5573c18df5c0e173d8f74f18f8ed97a484ff39939911ea650f55610a32600080516020611ee9833981519152836117dd565b600080546001600160a01b03166391d14854600080516020611ee9833981519152336040516001600160e01b031960e085901b16815260048101929092526001600160a01b03166024820152604401602060405180830381865afa15801561103e573d6000803e3d6000fd5b505050506040513d601f19601f820116820180604052508101906110629190611d69565b61106f5761106f816117d0565b506000918252601f6020526040909120600201805460ff1916911515919091179055565b7ff0c57e16840df040f15088dc2f81fe391c3923bec73e23a9662efc9c229c6a00805468010000000000000000810460ff16159067ffffffffffffffff166000811580156110de5750825b905060008267ffffffffffffffff1660011480156110fb5750303b155b905081158015611109575080155b156111275760405163f92ee8a960e01b815260040160405180910390fd5b845467ffffffffffffffff19166001178555831561115b57845468ff00000000000000001916680100000000000000001785555b61116430611915565b61116f6000336117dd565b83156111ba57845468ff000000000000000019168555604051600181527fc7f505b2f371ae2175ee4913f4499e1f2633a7b5936321eed1cdaeb6115181d29060200160405180910390a15b5050505050565b600080546001600160a01b03166391d14854600080516020611ee9833981519152336040516001600160e01b031960e085901b16815260048101929092526001600160a01b03166024820152604401602060405180830381865afa15801561122d573d6000803e3d6000fd5b505050506040513d601f19601f820116820180604052508101906112519190611d69565b61125e5761125e816117d0565b7f69661401bd068c022c278f73b3789a33e22d5eafe981e9265041b6fe72a122fe600052602080526001600160a01b0382167f528cbc6506b75417ccf898c79eccea2d82abdc387d7b9592ffac3c8eb6e5b81a55610a32600080516020611ee9833981519152836117dd565b6000828152601f602052604081206002015460ff168061130c57506000838152601f602090815260408083206001600160a01b038616845290915290205460ff165b90505b92915050565b600080546001600160a01b03166391d14854600080516020611ee9833981519152336040516001600160e01b031960e085901b16815260048101929092526001600160a01b03166024820152604401602060405180830381865afa158015611381573d6000803e3d6000fd5b505050506040513d601f19601f820116820180604052508101906113a59190611d69565b6113b2576113b2816117d0565b6127108263ffffffff1611156114305760405162461bcd60e51b815260206004820152603560248201527f436f6e6669673a2070726f746f636f6c5472656173757279526174696f206d7560448201527f7374206265206c657373207468616e20313030303000000000000000000000006064820152608401610b4b565b507f6fede10a232b276bc7c310abfbe151b58ba2286d825bc9e66c6e5fd488844e106000526020805263ffffffff167f38da50f459e2651ca06e5f390e9994c8002d28d32ab0e4fc445384c4c9ce4eb555565b6000828152601f60205260409020600101546000546001600160a01b03166391d14854600080516020611ee9833981519152336040516001600160e01b031960e085901b16815260048101929092526001600160a01b03166024820152604401602060405180830381865afa158015611500573d6000803e3d6000fd5b505050506040513d601f19601f820116820180604052508101906115249190611d69565b61153157611531816117d0565b610c7b83836118ae565b600080546001600160a01b03166391d14854600080516020611ee9833981519152336040516001600160e01b031960e085901b16815260048101929092526001600160a01b03166024820152604401602060405180830381865afa1580156115a7573d6000803e3d6000fd5b505050506040513d601f19601f820116820180604052508101906115cb9190611d69565b6115d8576115d8816117d0565b7ffa6557a51a133888544923dacdca355721a35fbeebe974f1e7d28d3105e033cf600052602080526001600160a01b0382167f6b4b900a76ee9d78397d660346dde6e269341af26e2e3d7e860254061598b4e155610a32600080516020611ee9833981519152836117dd565b600080546001600160a01b03166391d14854600080516020611ee9833981519152336040516001600160e01b031960e085901b16815260048101929092526001600160a01b03166024820152604401602060405180830381865afa1580156116b0573d6000803e3d6000fd5b505050506040513d601f19601f820116820180604052508101906116d49190611d69565b6116e1576116e1816117d0565b602080526001600160a01b038086167f705f7ceffec7a8bbf7df07ddf75d3e738b60addc24e1ec8b7f8790c6a515b716558481167f51056645967c4be230fedff94b20fab38b7a16c96193014207b8e9925d4286e2557f6ea4018daf79dd2b85ff55e23caa9708d35a5af81f862526e25c36407a95ad8160005283167f363159153f087a0f84f9ea16b1d11c35219f7bf329d301ab0ef3b49faf6c67145561178882611315565b6117a0600080516020611ee9833981519152866117dd565b6117b8600080516020611ee9833981519152856117dd565b6111ba600080516020611ee9833981519152846117dd565b6117da8133611957565b50565b6117e782826112ca565b610a32576000828152601f602090815260408083206001600160a01b03851684529091529020805460ff1916600117905561181f3390565b6001600160a01b0316816001600160a01b0316837f2f8788117e7eff1d82e926ec794901d17c78024a50270940304540a733656f0d60405160405180910390a45050565b6000828152601f6020526040808220600101805490849055905190918391839186917fbd79b86ffe0ab8e8776151514217cd7cacd52c909f66475c3af44e129f0b00ff9190a4505050565b6118b882826112ca565b15610a32576000828152601f602090815260408083206001600160a01b0385168085529252808320805460ff1916905551339285917ff6391f5c32d9c69d2a47ea670b442974b53935d1edc7fd64eb21e047a839171b9190a45050565b61191d611a1b565b600080547fffffffffffffffffffffffff0000000000000000000000000000000000000000166001600160a01b0392909216919091179055565b600054604051632474521560e21b8152600481018490526001600160a01b038381166024830152909116906391d1485490604401602060405180830381865afa1580156119a8573d6000803e3d6000fd5b505050506040513d601f19601f820116820180604052508101906119cc9190611d69565b610a32576119d981611a6b565b6119e4836020611a7d565b6040516020016119f5929190611db1565b60408051601f198184030181529082905262461bcd60e51b8252610b4b91600401611e32565b7ff0c57e16840df040f15088dc2f81fe391c3923bec73e23a9662efc9c229c6a005468010000000000000000900460ff16611a6957604051631afcd79f60e31b815260040160405180910390fd5b565b606061130f6001600160a01b03831660145b6060826000611a8d846002611e7b565b611a98906002611e92565b67ffffffffffffffff811115611ab057611ab0611ea5565b6040519080825280601f01601f191660200182016040528015611ada576020820181803683370190505b509050600360fc1b81600081518110611af557611af5611ebb565b60200101906001600160f81b031916908160001a905350600f60fb1b81600181518110611b2457611b24611ebb565b60200101906001600160f81b031916908160001a9053506000611b48856002611e7b565b611b53906001611e92565b90505b6001811115611bd8577f303132333435363738396162636465660000000000000000000000000000000083600f1660108110611b9457611b94611ebb565b1a60f81b828281518110611baa57611baa611ebb565b60200101906001600160f81b031916908160001a90535060049290921c91611bd181611ed1565b9050611b56565b508115611c025760405163e22e27eb60e01b81526004810186905260248101859052604401610b4b565b949350505050565b80356001600160a01b0381168114611c2157600080fd5b919050565b600060208284031215611c3857600080fd5b61130c82611c0a565b600060208284031215611c5357600080fd5b5035919050565b60008060408385031215611c6d57600080fd5b50508035926020909101359150565b60008060408385031215611c8f57600080fd5b82359150611c9f60208401611c0a565b90509250929050565b80151581146117da57600080fd5b60008060408385031215611cc957600080fd5b823591506020830135611cdb81611ca8565b809150509250929050565b803563ffffffff81168114611c2157600080fd5b600060208284031215611d0c57600080fd5b61130c82611ce6565b60008060008060808587031215611d2b57600080fd5b611d3485611c0a565b9350611d4260208601611c0a565b9250611d5060408601611c0a565b9150611d5e60608601611ce6565b905092959194509250565b600060208284031215611d7b57600080fd5b8151611d8681611ca8565b9392505050565b60005b83811015611da8578181015183820152602001611d90565b50506000910152565b7f416363657373436f6e74726f6c3a206163636f756e7420000000000000000000815260008351611de9816017850160208801611d8d565b7f206973206d697373696e6720726f6c65200000000000000000000000000000006017918401918201528351611e26816028840160208801611d8d565b01602801949350505050565b6020815260008251806020840152611e51816040850160208701611d8d565b601f01601f19169190910160400192915050565b634e487b7160e01b600052601160045260246000fd5b808202811582820484141761130f5761130f611e65565b8082018082111561130f5761130f611e65565b634e487b7160e01b600052604160045260246000fd5b634e487b7160e01b600052603260045260246000fd5b600081611ee057611ee0611e65565b50600019019056feddd94edc7da5bca8f576c77964a4737ba5172c728e2d539e672f0229d1e9ec2da164736f6c6343000814000a",
  "linkReferences": {},
  "deployedLinkReferences": {}
}