{
  "_format": "hh-sol-artifact-1",
  "contractName": "VeMetis",
  "sourceName": "contracts/VeMetis.sol",
  "abi": [
    {
      "inputs": [
        {
          "internalType": "address",
          "name": "spender",
          "type": "address"
        },
        {
          "internalType": "uint256",
          "name": "allowance",
          "type": "uint256"
        },
        {
          "internalType": "uint256",
          "name": "needed",
          "type": "uint256"
        }
      ],
      "name": "ERC20InsufficientAllowance",
      "type": "error"
    },
    {
      "inputs": [
        {
          "internalType": "address",
          "name": "sender",
          "type": "address"
        },
        {
          "internalType": "uint256",
          "name": "balance",
          "type": "uint256"
        },
        {
          "internalType": "uint256",
          "name": "needed",
          "type": "uint256"
        }
      ],
      "name": "ERC20InsufficientBalance",
      "type": "error"
    },
    {
      "inputs": [
        {
          "internalType": "address",
          "name": "approver",
          "type": "address"
        }
      ],
      "name": "ERC20InvalidApprover",
      "type": "error"
    },
    {
      "inputs": [
        {
          "internalType": "address",
          "name": "receiver",
          "type": "address"
        }
      ],
      "name": "ERC20InvalidReceiver",
      "type": "error"
    },
    {
      "inputs": [
        {
          "internalType": "address",
          "name": "sender",
          "type": "address"
        }
      ],
      "name": "ERC20InvalidSender",
      "type": "error"
    },
    {
      "inputs": [
        {
          "internalType": "address",
          "name": "spender",
          "type": "address"
        }
      ],
      "name": "ERC20InvalidSpender",
      "type": "error"
    },
    {
      "inputs": [],
      "name": "InvalidInitialization",
      "type": "error"
    },
    {
      "inputs": [],
      "name": "NotInitializing",
      "type": "error"
    },
    {
      "inputs": [],
      "name": "ReentrancyGuardReentrantCall",
      "type": "error"
    },
    {
      "anonymous": false,
      "inputs": [
        {
          "indexed": true,
          "internalType": "address",
          "name": "owner",
          "type": "address"
        },
        {
          "indexed": true,
          "internalType": "address",
          "name": "spender",
          "type": "address"
        },
        {
          "indexed": false,
          "internalType": "uint256",
          "name": "value",
          "type": "uint256"
        }
      ],
      "name": "Approval",
      "type": "event"
    },
    {
      "anonymous": false,
      "inputs": [
        {
          "indexed": false,
          "internalType": "uint64",
          "name": "version",
          "type": "uint64"
        }
      ],
      "name": "Initialized",
      "type": "event"
    },
    {
      "anonymous": false,
      "inputs": [
        {
          "indexed": true,
          "internalType": "address",
          "name": "from",
          "type": "address"
        },
        {
          "indexed": true,
          "internalType": "address",
          "name": "to",
          "type": "address"
        },
        {
          "indexed": false,
          "internalType": "uint256",
          "name": "value",
          "type": "uint256"
        }
      ],
      "name": "Transfer",
      "type": "event"
    },
    {
      "inputs": [],
      "name": "ADMIN_ROLE",
      "outputs": [
        {
          "internalType": "bytes32",
          "name": "",
          "type": "bytes32"
        }
      ],
      "stateMutability": "view",
      "type": "function"
    },
    {
      "inputs": [],
      "name": "BACKEND_ROLE",
      "outputs": [
        {
          "internalType": "bytes32",
          "name": "",
          "type": "bytes32"
        }
      ],
      "stateMutability": "view",
      "type": "function"
    },
    {
      "inputs": [],
      "name": "DEFAULT_ADMIN_ROLE",
      "outputs": [
        {
          "internalType": "bytes32",
          "name": "",
          "type": "bytes32"
        }
      ],
      "stateMutability": "view",
      "type": "function"
    },
    {
      "inputs": [],
      "name": "FEE_PRECISION",
      "outputs": [
        {
          "internalType": "uint64",
          "name": "",
          "type": "uint64"
        }
      ],
      "stateMutability": "view",
      "type": "function"
    },
    {
      "inputs": [],
      "name": "INITIAL_DEPOSIT_AMOUNT",
      "outputs": [
        {
          "internalType": "uint256",
          "name": "",
          "type": "uint256"
        }
      ],
      "stateMutability": "view",
      "type": "function"
    },
    {
      "inputs": [],
      "name": "TIMELOCK_ROLE",
      "outputs": [
        {
          "internalType": "bytes32",
          "name": "",
          "type": "bytes32"
        }
      ],
      "stateMutability": "view",
      "type": "function"
    },
    {
      "inputs": [
        {
          "internalType": "address",
          "name": "owner",
          "type": "address"
        },
        {
          "internalType": "address",
          "name": "spender",
          "type": "address"
        }
      ],
      "name": "allowance",
      "outputs": [
        {
          "internalType": "uint256",
          "name": "",
          "type": "uint256"
        }
      ],
      "stateMutability": "view",
      "type": "function"
    },
    {
      "inputs": [
        {
          "internalType": "address",
          "name": "spender",
          "type": "address"
        },
        {
          "internalType": "uint256",
          "name": "value",
          "type": "uint256"
        }
      ],
      "name": "approve",
      "outputs": [
        {
          "internalType": "bool",
          "name": "",
          "type": "bool"
        }
      ],
      "stateMutability": "nonpayable",
      "type": "function"
    },
    {
      "inputs": [
        {
          "internalType": "address",
          "name": "account",
          "type": "address"
        }
      ],
      "name": "balanceOf",
      "outputs": [
        {
          "internalType": "uint256",
          "name": "",
          "type": "uint256"
        }
      ],
      "stateMutability": "view",
      "type": "function"
    },
    {
      "inputs": [
        {
          "internalType": "address",
          "name": "_from",
          "type": "address"
        },
        {
          "internalType": "uint256",
          "name": "_amount",
          "type": "uint256"
        }
      ],
      "name": "burn",
      "outputs": [],
      "stateMutability": "nonpayable",
      "type": "function"
    },
    {
      "inputs": [],
      "name": "config",
      "outputs": [
        {
          "internalType": "contract IConfig",
          "name": "",
          "type": "address"
        }
      ],
      "stateMutability": "view",
      "type": "function"
    },
    {
      "inputs": [],
      "name": "decimals",
      "outputs": [
        {
          "internalType": "uint8",
          "name": "",
          "type": "uint8"
        }
      ],
      "stateMutability": "view",
      "type": "function"
    },
    {
      "inputs": [
        {
          "internalType": "address",
          "name": "_config",
          "type": "address"
        }
      ],
      "name": "initialize",
      "outputs": [],
      "stateMutability": "nonpayable",
      "type": "function"
    },
    {
      "inputs": [
        {
          "internalType": "address",
          "name": "account",
          "type": "address"
        },
        {
          "internalType": "uint256",
          "name": "amount",
          "type": "uint256"
        }
      ],
      "name": "mint",
      "outputs": [],
      "stateMutability": "nonpayable",
      "type": "function"
    },
    {
      "inputs": [],
      "name": "name",
      "outputs": [
        {
          "internalType": "string",
          "name": "",
          "type": "string"
        }
      ],
      "stateMutability": "view",
      "type": "function"
    },
    {
      "inputs": [],
      "name": "symbol",
      "outputs": [
        {
          "internalType": "string",
          "name": "",
          "type": "string"
        }
      ],
      "stateMutability": "view",
      "type": "function"
    },
    {
      "inputs": [],
      "name": "totalSupply",
      "outputs": [
        {
          "internalType": "uint256",
          "name": "",
          "type": "uint256"
        }
      ],
      "stateMutability": "view",
      "type": "function"
    },
    {
      "inputs": [
        {
          "internalType": "address",
          "name": "to",
          "type": "address"
        },
        {
          "internalType": "uint256",
          "name": "value",
          "type": "uint256"
        }
      ],
      "name": "transfer",
      "outputs": [
        {
          "internalType": "bool",
          "name": "",
          "type": "bool"
        }
      ],
      "stateMutability": "nonpayable",
      "type": "function"
    },
    {
      "inputs": [
        {
          "internalType": "address",
          "name": "from",
          "type": "address"
        },
        {
          "internalType": "address",
          "name": "to",
          "type": "address"
        },
        {
          "internalType": "uint256",
          "name": "value",
          "type": "uint256"
        }
      ],
      "name": "transferFrom",
      "outputs": [
        {
          "internalType": "bool",
          "name": "",
          "type": "bool"
        }
      ],
      "stateMutability": "nonpayable",
      "type": "function"
    },
    {
      "stateMutability": "payable",
      "type": "receive"
    }
  ],
  "bytecode": "0x608060405234801561001057600080fd5b50611ef6806100206000396000f3fe6080604052600436106101185760003560e01c806392c2becc116100a0578063c4d66de811610064578063c4d66de8146103fb578063dd62ed3e14610424578063e52083c614610461578063e63a391f1461048c578063f288a2e2146104b757610158565b806392c2becc1461031457806395d89b411461033f5780639dc29fac1461036a578063a217fddf14610393578063a9059cbb146103be57610158565b8063313ce567116100e7578063313ce5671461022d57806340c10f191461025857806370a082311461028157806375b238fc146102be57806379502c55146102e957610158565b806306fdde031461015d578063095ea7b31461018857806318160ddd146101c557806323b872dd146101f057610158565b36610158576040517f08c379a000000000000000000000000000000000000000000000000000000000815260040161014f90611560565b60405180910390fd5b600080fd5b34801561016957600080fd5b506101726104e2565b60405161017f91906115ff565b60405180910390f35b34801561019457600080fd5b506101af60048036038101906101aa91906116ba565b610583565b6040516101bc9190611715565b60405180910390f35b3480156101d157600080fd5b506101da6105a6565b6040516101e7919061173f565b60405180910390f35b3480156101fc57600080fd5b506102176004803603810190610212919061175a565b6105be565b6040516102249190611715565b60405180910390f35b34801561023957600080fd5b506102426105ed565b60405161024f91906117c9565b60405180910390f35b34801561026457600080fd5b5061027f600480360381019061027a91906116ba565b6105f6565b005b34801561028d57600080fd5b506102a860048036038101906102a391906117e4565b610707565b6040516102b5919061173f565b60405180910390f35b3480156102ca57600080fd5b506102d361075e565b6040516102e0919061182a565b60405180910390f35b3480156102f557600080fd5b506102fe610782565b60405161030b91906118a4565b60405180910390f35b34801561032057600080fd5b506103296107a6565b604051610336919061182a565b60405180910390f35b34801561034b57600080fd5b506103546107ca565b60405161036191906115ff565b60405180910390f35b34801561037657600080fd5b50610391600480360381019061038c91906116ba565b61086b565b005b34801561039f57600080fd5b506103a861097c565b6040516103b5919061182a565b60405180910390f35b3480156103ca57600080fd5b506103e560048036038101906103e091906116ba565b610983565b6040516103f29190611715565b60405180910390f35b34801561040757600080fd5b50610422600480360381019061041d91906117e4565b6109a6565b005b34801561043057600080fd5b5061044b600480360381019061044691906118bf565b610ba9565b604051610458919061173f565b60405180910390f35b34801561046d57600080fd5b50610476610c3e565b604051610483919061173f565b60405180910390f35b34801561049857600080fd5b506104a1610c4a565b6040516104ae9190611922565b60405180910390f35b3480156104c357600080fd5b506104cc610c51565b6040516104d9919061182a565b60405180910390f35b606060006104ee610c75565b90508060030180546104ff9061196c565b80601f016020809104026020016040519081016040528092919081815260200182805461052b9061196c565b80156105785780601f1061054d57610100808354040283529160200191610578565b820191906000526020600020905b81548152906001019060200180831161055b57829003601f168201915b505050505091505090565b60008061058e610c9d565b905061059b818585610ca5565b600191505092915050565b6000806105b1610c75565b9050806002015491505090565b6000806105c9610c9d565b90506105d6858285610cb7565b6105e1858585610d4b565b60019150509392505050565b60006012905090565b60008054906101000a900473ffffffffffffffffffffffffffffffffffffffff1673ffffffffffffffffffffffffffffffffffffffff1663bf27726c6040518163ffffffff1660e01b8152600401602060405180830381865afa158015610661573d6000803e3d6000fd5b505050506040513d601f19601f8201168201806040525081019061068591906119b2565b73ffffffffffffffffffffffffffffffffffffffff166106a3610c9d565b73ffffffffffffffffffffffffffffffffffffffff16146106f9576040517f08c379a00000000000000000000000000000000000000000000000000000000081526004016106f090611a51565b60405180910390fd5b6107038282610e3f565b5050565b600080610712610c75565b90508060000160008473ffffffffffffffffffffffffffffffffffffffff1673ffffffffffffffffffffffffffffffffffffffff16815260200190815260200160002054915050919050565b7fa49807205ce4d355092ef5a8a18f56e8913cf4a201fbe287825b095693c2177581565b60008054906101000a900473ffffffffffffffffffffffffffffffffffffffff1681565b7f25cf2b509f2a7f322675b2a5322b182f44ad2c03ac941a0af17c9b178f5d5d5f81565b606060006107d6610c75565b90508060040180546107e79061196c565b80601f01602080910402602001604051908101604052809291908181526020018280546108139061196c565b80156108605780601f1061083557610100808354040283529160200191610860565b820191906000526020600020905b81548152906001019060200180831161084357829003601f168201915b505050505091505090565b60008054906101000a900473ffffffffffffffffffffffffffffffffffffffff1673ffffffffffffffffffffffffffffffffffffffff166397ec19be6040518163ffffffff1660e01b8152600401602060405180830381865afa1580156108d6573d6000803e3d6000fd5b505050506040513d601f19601f820116820180604052508101906108fa91906119b2565b73ffffffffffffffffffffffffffffffffffffffff16610918610c9d565b73ffffffffffffffffffffffffffffffffffffffff161461096e576040517f08c379a000000000000000000000000000000000000000000000000000000000815260040161096590611ae3565b60405180910390fd5b6109788282610ec1565b5050565b6000801b81565b60008061098e610c9d565b905061099b818585610d4b565b600191505092915050565b60006109b0610f43565b905060008160000160089054906101000a900460ff1615905060008260000160009054906101000a900467ffffffffffffffff1690506000808267ffffffffffffffff161480156109fe5750825b9050600060018367ffffffffffffffff16148015610a33575060003073ffffffffffffffffffffffffffffffffffffffff163b145b905081158015610a41575080155b15610a78576040517ff92ee8a900000000000000000000000000000000000000000000000000000000815260040160405180910390fd5b60018560000160006101000a81548167ffffffffffffffff021916908367ffffffffffffffff1602179055508315610ac85760018560000160086101000a81548160ff0219169083151502179055505b610ad186610f6b565b610b456040518060400160405280600b81526020017f56656c6978204d657469730000000000000000000000000000000000000000008152506040518060400160405280600781526020017f76654d6574697300000000000000000000000000000000000000000000000000815250610fc6565b8315610ba15760008560000160086101000a81548160ff0219169083151502179055507fc7f505b2f371ae2175ee4913f4499e1f2633a7b5936321eed1cdaeb6115181d26001604051610b989190611b3e565b60405180910390a15b505050505050565b600080610bb4610c75565b90508060010160008573ffffffffffffffffffffffffffffffffffffffff1673ffffffffffffffffffffffffffffffffffffffff16815260200190815260200160002060008473ffffffffffffffffffffffffffffffffffffffff1673ffffffffffffffffffffffffffffffffffffffff1681526020019081526020016000205491505092915050565b670de0b6b3a764000081565b620f424081565b7ff66846415d2bf9eabda9e84793ff9c0ea96d87f50fc41e66aa16469c6a442f0581565b60007f52c63247e1f47db19d5ce0460030c497f067ca4cebf71ba98eeadabe20bace00905090565b600033905090565b610cb28383836001610fdc565b505050565b6000610cc38484610ba9565b90507fffffffffffffffffffffffffffffffffffffffffffffffffffffffffffffffff8114610d455781811015610d35578281836040517ffb8f41b2000000000000000000000000000000000000000000000000000000008152600401610d2c93929190611b68565b60405180910390fd5b610d4484848484036000610fdc565b5b50505050565b600073ffffffffffffffffffffffffffffffffffffffff168373ffffffffffffffffffffffffffffffffffffffff1603610dbd5760006040517f96c6fd1e000000000000000000000000000000000000000000000000000000008152600401610db49190611b9f565b60405180910390fd5b600073ffffffffffffffffffffffffffffffffffffffff168273ffffffffffffffffffffffffffffffffffffffff1603610e2f5760006040517fec442f05000000000000000000000000000000000000000000000000000000008152600401610e269190611b9f565b60405180910390fd5b610e3a8383836111c2565b505050565b600073ffffffffffffffffffffffffffffffffffffffff168273ffffffffffffffffffffffffffffffffffffffff1603610eb15760006040517fec442f05000000000000000000000000000000000000000000000000000000008152600401610ea89190611b9f565b60405180910390fd5b610ebd600083836111c2565b5050565b600073ffffffffffffffffffffffffffffffffffffffff168273ffffffffffffffffffffffffffffffffffffffff1603610f335760006040517f96c6fd1e000000000000000000000000000000000000000000000000000000008152600401610f2a9190611b9f565b60405180910390fd5b610f3f826000836111c2565b5050565b60007ff0c57e16840df040f15088dc2f81fe391c3923bec73e23a9662efc9c229c6a00905090565b610f73611401565b806000806101000a81548173ffffffffffffffffffffffffffffffffffffffff021916908373ffffffffffffffffffffffffffffffffffffffff160217905550610fbb611441565b610fc3611453565b50565b610fce611401565b610fd8828261145d565b5050565b6000610fe6610c75565b9050600073ffffffffffffffffffffffffffffffffffffffff168573ffffffffffffffffffffffffffffffffffffffff160361105a5760006040517fe602df050000000000000000000000000000000000000000000000000000000081526004016110519190611b9f565b60405180910390fd5b600073ffffffffffffffffffffffffffffffffffffffff168473ffffffffffffffffffffffffffffffffffffffff16036110cc5760006040517f94280d620000000000000000000000000000000000000000000000000000000081526004016110c39190611b9f565b60405180910390fd5b828160010160008773ffffffffffffffffffffffffffffffffffffffff1673ffffffffffffffffffffffffffffffffffffffff16815260200190815260200160002060008673ffffffffffffffffffffffffffffffffffffffff1673ffffffffffffffffffffffffffffffffffffffff1681526020019081526020016000208190555081156111bb578373ffffffffffffffffffffffffffffffffffffffff168573ffffffffffffffffffffffffffffffffffffffff167f8c5be1e5ebec7d5bd14f71427d1e84f3dd0314c0f7b2291e5b200ac8c7c3b925856040516111b2919061173f565b60405180910390a35b5050505050565b60006111cc610c75565b9050600073ffffffffffffffffffffffffffffffffffffffff168473ffffffffffffffffffffffffffffffffffffffff160361122257818160020160008282546112169190611be9565b925050819055506112fb565b60008160000160008673ffffffffffffffffffffffffffffffffffffffff1673ffffffffffffffffffffffffffffffffffffffff168152602001908152602001600020549050828110156112b1578481846040517fe450d38c0000000000000000000000000000000000000000000000000000000081526004016112a893929190611b68565b60405180910390fd5b8281038260000160008773ffffffffffffffffffffffffffffffffffffffff1673ffffffffffffffffffffffffffffffffffffffff16815260200190815260200160002081905550505b600073ffffffffffffffffffffffffffffffffffffffff168373ffffffffffffffffffffffffffffffffffffffff160361134657818160020160008282540392505081905550611396565b818160000160008573ffffffffffffffffffffffffffffffffffffffff1673ffffffffffffffffffffffffffffffffffffffff168152602001908152602001600020600082825401925050819055505b8273ffffffffffffffffffffffffffffffffffffffff168473ffffffffffffffffffffffffffffffffffffffff167fddf252ad1be2c89b69c2b068fc378daa952ba7f163c4a11628f55a4df523b3ef846040516113f3919061173f565b60405180910390a350505050565b61140961149a565b61143f576040517fd7e6bcf800000000000000000000000000000000000000000000000000000000815260040160405180910390fd5b565b611449611401565b6114516114ba565b565b61145b611401565b565b611465611401565b600061146f610c75565b9050828160030190816114829190611dee565b50818160040190816114949190611dee565b50505050565b60006114a4610f43565b60000160089054906101000a900460ff16905090565b6114c2611401565b60006114cc6114db565b90506001816000018190555050565b60007f9b779b17422d0df92223018b32b4d1fa46e071723d6817e2486d003becc55f00905090565b600082825260208201905092915050565b7f426173653a206e6f7420737570706f7274204d65746973207472616e73666572600082015250565b600061154a602083611503565b915061155582611514565b602082019050919050565b600060208201905081810360008301526115798161153d565b9050919050565b600081519050919050565b60005b838110156115a957808201518184015260208101905061158e565b60008484015250505050565b6000601f19601f8301169050919050565b60006115d182611580565b6115db8185611503565b93506115eb81856020860161158b565b6115f4816115b5565b840191505092915050565b6000602082019050818103600083015261161981846115c6565b905092915050565b600080fd5b600073ffffffffffffffffffffffffffffffffffffffff82169050919050565b600061165182611626565b9050919050565b61166181611646565b811461166c57600080fd5b50565b60008135905061167e81611658565b92915050565b6000819050919050565b61169781611684565b81146116a257600080fd5b50565b6000813590506116b48161168e565b92915050565b600080604083850312156116d1576116d0611621565b5b60006116df8582860161166f565b92505060206116f0858286016116a5565b9150509250929050565b60008115159050919050565b61170f816116fa565b82525050565b600060208201905061172a6000830184611706565b92915050565b61173981611684565b82525050565b60006020820190506117546000830184611730565b92915050565b60008060006060848603121561177357611772611621565b5b60006117818682870161166f565b93505060206117928682870161166f565b92505060406117a3868287016116a5565b9150509250925092565b600060ff82169050919050565b6117c3816117ad565b82525050565b60006020820190506117de60008301846117ba565b92915050565b6000602082840312156117fa576117f9611621565b5b60006118088482850161166f565b91505092915050565b6000819050919050565b61182481611811565b82525050565b600060208201905061183f600083018461181b565b92915050565b6000819050919050565b600061186a61186561186084611626565b611845565b611626565b9050919050565b600061187c8261184f565b9050919050565b600061188e82611871565b9050919050565b61189e81611883565b82525050565b60006020820190506118b96000830184611895565b92915050565b600080604083850312156118d6576118d5611621565b5b60006118e48582860161166f565b92505060206118f58582860161166f565b9150509250929050565b600067ffffffffffffffff82169050919050565b61191c816118ff565b82525050565b60006020820190506119376000830184611913565b92915050565b7f4e487b7100000000000000000000000000000000000000000000000000000000600052602260045260246000fd5b6000600282049050600182168061198457607f821691505b6020821081036119975761199661193d565b5b50919050565b6000815190506119ac81611658565b92915050565b6000602082840312156119c8576119c7611621565b5b60006119d68482850161199d565b91505092915050565b7f76654d657469733a2063616c6c6572206973206e6f742076654d657469734d6960008201527f6e74657200000000000000000000000000000000000000000000000000000000602082015250565b6000611a3b602483611503565b9150611a46826119df565b604082019050919050565b60006020820190508181036000830152611a6a81611a2e565b9050919050565b7f76654d657469733a2063616c6c6572206973206e6f7420726564656d7074696f60008201527f6e51756575650000000000000000000000000000000000000000000000000000602082015250565b6000611acd602683611503565b9150611ad882611a71565b604082019050919050565b60006020820190508181036000830152611afc81611ac0565b9050919050565b6000819050919050565b6000611b28611b23611b1e84611b03565b611845565b6118ff565b9050919050565b611b3881611b0d565b82525050565b6000602082019050611b536000830184611b2f565b92915050565b611b6281611646565b82525050565b6000606082019050611b7d6000830186611b59565b611b8a6020830185611730565b611b976040830184611730565b949350505050565b6000602082019050611bb46000830184611b59565b92915050565b7f4e487b7100000000000000000000000000000000000000000000000000000000600052601160045260246000fd5b6000611bf482611684565b9150611bff83611684565b9250828201905080821115611c1757611c16611bba565b5b92915050565b7f4e487b7100000000000000000000000000000000000000000000000000000000600052604160045260246000fd5b60008190508160005260206000209050919050565b60006020601f8301049050919050565b600082821b905092915050565b600060088302611cae7fffffffffffffffffffffffffffffffffffffffffffffffffffffffffffffffff82611c71565b611cb88683611c71565b95508019841693508086168417925050509392505050565b6000611ceb611ce6611ce184611684565b611845565b611684565b9050919050565b6000819050919050565b611d0583611cd0565b611d19611d1182611cf2565b848454611c7e565b825550505050565b600090565b611d2e611d21565b611d39818484611cfc565b505050565b5b81811015611d5d57611d52600082611d26565b600181019050611d3f565b5050565b601f821115611da257611d7381611c4c565b611d7c84611c61565b81016020851015611d8b578190505b611d9f611d9785611c61565b830182611d3e565b50505b505050565b600082821c905092915050565b6000611dc560001984600802611da7565b1980831691505092915050565b6000611dde8383611db4565b9150826002028217905092915050565b611df782611580565b67ffffffffffffffff811115611e1057611e0f611c1d565b5b611e1a825461196c565b611e25828285611d61565b600060209050601f831160018114611e585760008415611e46578287015190505b611e508582611dd2565b865550611eb8565b601f198416611e6686611c4c565b60005b82811015611e8e57848901518255600182019150602085019450602081019050611e69565b86831015611eab5784890151611ea7601f891682611db4565b8355505b6001600288020188555050505b50505050505056fea2646970667358221220714088cf88eb1787fd6e36b1136e8ceb8b848a32aa6bc54c9f8e8066fb765d2a64736f6c63430008140033",
  "linkReferences": {},
  "deployedLinkReferences": {}
}