{
  "_format": "hh-sol-artifact-1",
  "contractName": "Faucet",
  "sourceName": "contracts/Faucet.sol",
  "abi": [
    {
      "inputs": [],
      "stateMutability": "nonpayable",
      "type": "constructor"
    },
    {
      "anonymous": false,
      "inputs": [
        {
          "indexed": true,
          "internalType": "address",
          "name": "recipient",
          "type": "address"
        },
        {
          "indexed": false,
          "internalType": "uint256",
          "name": "amount",
          "type": "uint256"
        }
      ],
      "name": "EtherClaimed",
      "type": "event"
    },
    {
      "anonymous": false,
      "inputs": [
        {
          "indexed": false,
          "internalType": "uint256",
          "name": "amount",
          "type": "uint256"
        }
      ],
      "name": "LiquidityAdded",
      "type": "event"
    },
    {
      "anonymous": false,
      "inputs": [
        {
          "indexed": false,
          "internalType": "uint256",
          "name": "amount",
          "type": "uint256"
        }
      ],
      "name": "LiquidityRemoved",
      "type": "event"
    },
    {
      "inputs": [],
      "name": "addLiquidity",
      "outputs": [],
      "stateMutability": "payable",
      "type": "function"
    },
    {
      "inputs": [],
      "name": "admin",
      "outputs": [
        {
          "internalType": "address",
          "name": "",
          "type": "address"
        }
      ],
      "stateMutability": "view",
      "type": "function"
    },
    {
      "inputs": [],
      "name": "claim",
      "outputs": [],
      "stateMutability": "nonpayable",
      "type": "function"
    },
    {
      "inputs": [],
      "name": "getContractBalance",
      "outputs": [
        {
          "internalType": "uint256",
          "name": "",
          "type": "uint256"
        }
      ],
      "stateMutability": "view",
      "type": "function"
    },
    {
      "inputs": [
        {
          "internalType": "address",
          "name": "",
          "type": "address"
        }
      ],
      "name": "lastClaimedTime",
      "outputs": [
        {
          "internalType": "uint256",
          "name": "",
          "type": "uint256"
        }
      ],
      "stateMutability": "view",
      "type": "function"
    },
    {
      "inputs": [
        {
          "internalType": "uint256",
          "name": "amount",
          "type": "uint256"
        }
      ],
      "name": "removeLiquidity",
      "outputs": [],
      "stateMutability": "nonpayable",
      "type": "function"
    }
  ],
  "bytecode": "0x608060405234801561001057600080fd5b50600080546001600160a01b031916331790556104ce806100326000396000f3fe6080604052600436106100655760003560e01c8063e8078d9411610043578063e8078d94146100c3578063f3f91fa0146100cb578063f851a440146100f857600080fd5b80634e71d92d1461006a5780636f9fb98a146100815780639c8f9f23146100a3575b600080fd5b34801561007657600080fd5b5061007f610130565b005b34801561008d57600080fd5b50475b6040519081526020015b60405180910390f35b3480156100af57600080fd5b5061007f6100be366004610451565b610244565b61007f610368565b3480156100d757600080fd5b506100906100e636600461046a565b60016020526000908152604090205481565b34801561010457600080fd5b50600054610118906001600160a01b031681565b6040516001600160a01b03909116815260200161009a565b3360009081526001602052604090205461014e90620151809061049a565b4210156101c85760405162461bcd60e51b815260206004820152602660248201527f596f752063616e206f6e6c7920636c61696d206f6e636520657665727920323460448201527f20686f757273000000000000000000000000000000000000000000000000000060648201526084015b60405180910390fd5b33600081815260016020526040808220429055516706f05b59d3b200009082818181858883f19350505050158015610204573d6000803e3d6000fd5b506040516706f05b59d3b20000815233907f226f2ed2045df309d60b060a0198375a157dc82920c6a8c08279166c051990349060200160405180910390a2565b6000546001600160a01b031633146102a85760405162461bcd60e51b815260206004820152602160248201527f4f6e6c792061646d696e2063616e2063616c6c20746869732066756e6374696f6044820152603760f91b60648201526084016101bf565b804710156102f85760405162461bcd60e51b815260206004820152601660248201527f496e73756666696369656e74206c69717569646974790000000000000000000060448201526064016101bf565b600080546040516001600160a01b039091169183156108fc02918491818181858888f19350505050158015610331573d6000803e3d6000fd5b506040518181527f0a2ac2d0ff5dd766a6215edf0289e7aedf3647514518fb2694c0c0584902e7cc9060200160405180910390a150565b6000546001600160a01b031633146103cc5760405162461bcd60e51b815260206004820152602160248201527f4f6e6c792061646d696e2063616e2063616c6c20746869732066756e6374696f6044820152603760f91b60648201526084016101bf565b6000341161041c5760405162461bcd60e51b815260206004820152601160248201527f596f752063616e206e6f7420616464203000000000000000000000000000000060448201526064016101bf565b6040513481527ffdb748c915e4e67b4bb23287bf4295a4595ce48b50343214369f72ccfb974cfa9060200160405180910390a1565b60006020828403121561046357600080fd5b5035919050565b60006020828403121561047c57600080fd5b81356001600160a01b038116811461049357600080fd5b9392505050565b808201808211156104bb57634e487b7160e01b600052601160045260246000fd5b9291505056fea164736f6c6343000814000a",
  "linkReferences": {},
  "deployedLinkReferences": {}
}