{
  "_format": "hh-sol-artifact-1",
  "contractName": "NFTMinter",
  "sourceName": "contracts/NFTMinter.sol",
  "abi": [
    {
      "inputs": [
        {
          "internalType": "address",
          "name": "sender",
          "type": "address"
        },
        {
          "internalType": "uint256",
          "name": "tokenId",
          "type": "uint256"
        },
        {
          "internalType": "address",
          "name": "owner",
          "type": "address"
        }
      ],
      "name": "ERC721IncorrectOwner",
      "type": "error"
    },
    {
      "inputs": [
        {
          "internalType": "address",
          "name": "operator",
          "type": "address"
        },
        {
          "internalType": "uint256",
          "name": "tokenId",
          "type": "uint256"
        }
      ],
      "name": "ERC721InsufficientApproval",
      "type": "error"
    },
    {
      "inputs": [
        {
          "internalType": "address",
          "name": "approver",
          "type": "address"
        }
      ],
      "name": "ERC721InvalidApprover",
      "type": "error"
    },
    {
      "inputs": [
        {
          "internalType": "address",
          "name": "operator",
          "type": "address"
        }
      ],
      "name": "ERC721InvalidOperator",
      "type": "error"
    },
    {
      "inputs": [
        {
          "internalType": "address",
          "name": "owner",
          "type": "address"
        }
      ],
      "name": "ERC721InvalidOwner",
      "type": "error"
    },
    {
      "inputs": [
        {
          "internalType": "address",
          "name": "receiver",
          "type": "address"
        }
      ],
      "name": "ERC721InvalidReceiver",
      "type": "error"
    },
    {
      "inputs": [
        {
          "internalType": "address",
          "name": "sender",
          "type": "address"
        }
      ],
      "name": "ERC721InvalidSender",
      "type": "error"
    },
    {
      "inputs": [
        {
          "internalType": "uint256",
          "name": "tokenId",
          "type": "uint256"
        }
      ],
      "name": "ERC721NonexistentToken",
      "type": "error"
    },
    {
      "inputs": [],
      "name": "InvalidInitialization",
      "type": "error"
    },
    {
      "inputs": [],
      "name": "NotInitializing",
      "type": "error"
    },
    {
      "anonymous": false,
      "inputs": [
        {
          "indexed": true,
          "internalType": "address",
          "name": "owner",
          "type": "address"
        },
        {
          "indexed": true,
          "internalType": "address",
          "name": "approved",
          "type": "address"
        },
        {
          "indexed": true,
          "internalType": "uint256",
          "name": "tokenId",
          "type": "uint256"
        }
      ],
      "name": "Approval",
      "type": "event"
    },
    {
      "anonymous": false,
      "inputs": [
        {
          "indexed": true,
          "internalType": "address",
          "name": "owner",
          "type": "address"
        },
        {
          "indexed": true,
          "internalType": "address",
          "name": "operator",
          "type": "address"
        },
        {
          "indexed": false,
          "internalType": "bool",
          "name": "approved",
          "type": "bool"
        }
      ],
      "name": "ApprovalForAll",
      "type": "event"
    },
    {
      "anonymous": false,
      "inputs": [
        {
          "indexed": false,
          "internalType": "uint256",
          "name": "_fromTokenId",
          "type": "uint256"
        },
        {
          "indexed": false,
          "internalType": "uint256",
          "name": "_toTokenId",
          "type": "uint256"
        }
      ],
      "name": "BatchMetadataUpdate",
      "type": "event"
    },
    {
      "anonymous": false,
      "inputs": [
        {
          "indexed": false,
          "internalType": "uint64",
          "name": "version",
          "type": "uint64"
        }
      ],
      "name": "Initialized",
      "type": "event"
    },
    {
      "anonymous": false,
      "inputs": [
        {
          "indexed": false,
          "internalType": "uint256",
          "name": "_tokenId",
          "type": "uint256"
        }
      ],
      "name": "MetadataUpdate",
      "type": "event"
    },
    {
      "anonymous": false,
      "inputs": [
        {
          "indexed": true,
          "internalType": "address",
          "name": "from",
          "type": "address"
        },
        {
          "indexed": true,
          "internalType": "address",
          "name": "to",
          "type": "address"
        },
        {
          "indexed": true,
          "internalType": "uint256",
          "name": "tokenId",
          "type": "uint256"
        }
      ],
      "name": "Transfer",
      "type": "event"
    },
    {
      "inputs": [
        {
          "internalType": "address",
          "name": "_address",
          "type": "address"
        }
      ],
      "name": "addEligibleAddress",
      "outputs": [],
      "stateMutability": "nonpayable",
      "type": "function"
    },
    {
      "inputs": [
        {
          "internalType": "address",
          "name": "to",
          "type": "address"
        },
        {
          "internalType": "uint256",
          "name": "tokenId",
          "type": "uint256"
        }
      ],
      "name": "approve",
      "outputs": [],
      "stateMutability": "nonpayable",
      "type": "function"
    },
    {
      "inputs": [
        {
          "internalType": "address",
          "name": "owner",
          "type": "address"
        }
      ],
      "name": "balanceOf",
      "outputs": [
        {
          "internalType": "uint256",
          "name": "",
          "type": "uint256"
        }
      ],
      "stateMutability": "view",
      "type": "function"
    },
    {
      "inputs": [
        {
          "internalType": "address",
          "name": "",
          "type": "address"
        }
      ],
      "name": "eligibleAddresses",
      "outputs": [
        {
          "internalType": "bool",
          "name": "",
          "type": "bool"
        }
      ],
      "stateMutability": "view",
      "type": "function"
    },
    {
      "inputs": [
        {
          "internalType": "uint256",
          "name": "tokenId",
          "type": "uint256"
        }
      ],
      "name": "getApproved",
      "outputs": [
        {
          "internalType": "address",
          "name": "",
          "type": "address"
        }
      ],
      "stateMutability": "view",
      "type": "function"
    },
    {
      "inputs": [],
      "name": "initialize",
      "outputs": [],
      "stateMutability": "nonpayable",
      "type": "function"
    },
    {
      "inputs": [
        {
          "internalType": "address",
          "name": "owner",
          "type": "address"
        },
        {
          "internalType": "address",
          "name": "operator",
          "type": "address"
        }
      ],
      "name": "isApprovedForAll",
      "outputs": [
        {
          "internalType": "bool",
          "name": "",
          "type": "bool"
        }
      ],
      "stateMutability": "view",
      "type": "function"
    },
    {
      "inputs": [
        {
          "internalType": "address",
          "name": "user",
          "type": "address"
        }
      ],
      "name": "mintsByUser",
      "outputs": [
        {
          "components": [
            {
              "internalType": "uint256",
              "name": "nftId",
              "type": "uint256"
            },
            {
              "internalType": "uint256",
              "name": "token_id",
              "type": "uint256"
            }
          ],
          "internalType": "struct NFTMinter.mintedNft[]",
          "name": "",
          "type": "tuple[]"
        }
      ],
      "stateMutability": "view",
      "type": "function"
    },
    {
      "inputs": [],
      "name": "name",
      "outputs": [
        {
          "internalType": "string",
          "name": "",
          "type": "string"
        }
      ],
      "stateMutability": "view",
      "type": "function"
    },
    {
      "inputs": [
        {
          "internalType": "uint256",
          "name": "tokenId",
          "type": "uint256"
        }
      ],
      "name": "ownerOf",
      "outputs": [
        {
          "internalType": "address",
          "name": "",
          "type": "address"
        }
      ],
      "stateMutability": "view",
      "type": "function"
    },
    {
      "inputs": [
        {
          "internalType": "address",
          "name": "to",
          "type": "address"
        },
        {
          "internalType": "uint256",
          "name": "nftId",
          "type": "uint256"
        },
        {
          "internalType": "string",
          "name": "uri",
          "type": "string"
        }
      ],
      "name": "safeMint",
      "outputs": [],
      "stateMutability": "nonpayable",
      "type": "function"
    },
    {
      "inputs": [
        {
          "internalType": "address",
          "name": "from",
          "type": "address"
        },
        {
          "internalType": "address",
          "name": "to",
          "type": "address"
        },
        {
          "internalType": "uint256",
          "name": "tokenId",
          "type": "uint256"
        }
      ],
      "name": "safeTransferFrom",
      "outputs": [],
      "stateMutability": "nonpayable",
      "type": "function"
    },
    {
      "inputs": [
        {
          "internalType": "address",
          "name": "from",
          "type": "address"
        },
        {
          "internalType": "address",
          "name": "to",
          "type": "address"
        },
        {
          "internalType": "uint256",
          "name": "tokenId",
          "type": "uint256"
        },
        {
          "internalType": "bytes",
          "name": "data",
          "type": "bytes"
        }
      ],
      "name": "safeTransferFrom",
      "outputs": [],
      "stateMutability": "nonpayable",
      "type": "function"
    },
    {
      "inputs": [
        {
          "internalType": "address",
          "name": "operator",
          "type": "address"
        },
        {
          "internalType": "bool",
          "name": "approved",
          "type": "bool"
        }
      ],
      "name": "setApprovalForAll",
      "outputs": [],
      "stateMutability": "nonpayable",
      "type": "function"
    },
    {
      "inputs": [
        {
          "internalType": "bytes4",
          "name": "interfaceId",
          "type": "bytes4"
        }
      ],
      "name": "supportsInterface",
      "outputs": [
        {
          "internalType": "bool",
          "name": "",
          "type": "bool"
        }
      ],
      "stateMutability": "view",
      "type": "function"
    },
    {
      "inputs": [],
      "name": "symbol",
      "outputs": [
        {
          "internalType": "string",
          "name": "",
          "type": "string"
        }
      ],
      "stateMutability": "view",
      "type": "function"
    },
    {
      "inputs": [
        {
          "internalType": "uint256",
          "name": "tokenId",
          "type": "uint256"
        }
      ],
      "name": "tokenURI",
      "outputs": [
        {
          "internalType": "string",
          "name": "",
          "type": "string"
        }
      ],
      "stateMutability": "view",
      "type": "function"
    },
    {
      "inputs": [
        {
          "internalType": "address",
          "name": "from",
          "type": "address"
        },
        {
          "internalType": "address",
          "name": "to",
          "type": "address"
        },
        {
          "internalType": "uint256",
          "name": "tokenId",
          "type": "uint256"
        }
      ],
      "name": "transferFrom",
      "outputs": [],
      "stateMutability": "nonpayable",
      "type": "function"
    }
  ],
  "bytecode": "0x608060405234801561001057600080fd5b50611a30806100206000396000f3fe608060405234801561001057600080fd5b50600436106101365760003560e01c806385af4649116100b2578063b88d4fde11610081578063c87b56dd11610066578063c87b56dd146102bd578063cd279c7c146102d0578063e985e9c5146102e357600080fd5b8063b88d4fde1461028a578063bb76f8f91461029d57600080fd5b806385af46491461021a5780638aa75ed41461023d57806395d89b411461026f578063a22cb4651461027757600080fd5b806323b872dd116101095780636352211e116100ee5780636352211e146101de57806370a08231146101f15780638129fc1c1461021257600080fd5b806323b872dd146101b857806342842e0e146101cb57600080fd5b806301ffc9a71461013b57806306fdde0314610163578063081812fc14610178578063095ea7b3146101a3575b600080fd5b61014e6101493660046114c5565b61033e565b60405190151581526020015b60405180910390f35b61016b61034f565b60405161015a9190611532565b61018b610186366004611545565b610405565b6040516001600160a01b03909116815260200161015a565b6101b66101b136600461157a565b61044d565b005b6101b66101c63660046115a4565b61045c565b6101b66101d93660046115a4565b6104ec565b61018b6101ec366004611545565b61050c565b6102046101ff3660046115e0565b610517565b60405190815260200161015a565b6101b6610585565b61014e6102283660046115e0565b60026020526000908152604090205460ff1681565b6101b661024b3660046115e0565b6001600160a01b03166000908152600260205260409020805460ff19166001179055565b61016b610713565b6101b66102853660046115fb565b610764565b6101b66102983660046116c3565b61076f565b6102b06102ab3660046115e0565b610786565b60405161015a919061173f565b61016b6102cb366004611545565b61080f565b6101b66102de36600461178e565b61081a565b61014e6102f13660046117f9565b6001600160a01b0391821660009081527f80bb2b638cc20bc4d0a60d66940f3ab4a00c1d7b313497ca82fb0b4ab00793056020908152604080832093909416825291909152205460ff1690565b60006103498261095b565b92915050565b7f80bb2b638cc20bc4d0a60d66940f3ab4a00c1d7b313497ca82fb0b4ab007930080546060919081906103819061182c565b80601f01602080910402602001604051908101604052809291908181526020018280546103ad9061182c565b80156103fa5780601f106103cf576101008083540402835291602001916103fa565b820191906000526020600020905b8154815290600101906020018083116103dd57829003601f168201915b505050505091505090565b600061041082610980565b5060008281527f80bb2b638cc20bc4d0a60d66940f3ab4a00c1d7b313497ca82fb0b4ab007930460205260409020546001600160a01b0316610349565b6104588282336109d8565b5050565b6001600160a01b03821661048b57604051633250574960e11b8152600060048201526024015b60405180910390fd5b60006104988383336109e5565b9050836001600160a01b0316816001600160a01b0316146104e6576040516364283d7b60e01b81526001600160a01b0380861660048301526024820184905282166044820152606401610482565b50505050565b6105078383836040518060200160405280600081525061076f565b505050565b600061034982610980565b60007f80bb2b638cc20bc4d0a60d66940f3ab4a00c1d7b313497ca82fb0b4ab00793006001600160a01b038316610564576040516322718ad960e21b815260006004820152602401610482565b6001600160a01b039092166000908152600390920160205250604090205490565b7ff0c57e16840df040f15088dc2f81fe391c3923bec73e23a9662efc9c229c6a00805468010000000000000000810460ff16159067ffffffffffffffff166000811580156105d05750825b905060008267ffffffffffffffff1660011480156105ed5750303b155b9050811580156105fb575080155b156106195760405163f92ee8a960e01b815260040160405180910390fd5b845467ffffffffffffffff19166001178555831561064d57845468ff00000000000000001916680100000000000000001785555b6106c16040518060400160405280601381526020017f56656c697820537570657253746172204e4654000000000000000000000000008152506040518060400160405280600581526020017f56534e4654000000000000000000000000000000000000000000000000000000815250610b33565b831561070c57845468ff000000000000000019168555604051600181527fc7f505b2f371ae2175ee4913f4499e1f2633a7b5936321eed1cdaeb6115181d29060200160405180910390a15b5050505050565b7f80bb2b638cc20bc4d0a60d66940f3ab4a00c1d7b313497ca82fb0b4ab007930180546060917f80bb2b638cc20bc4d0a60d66940f3ab4a00c1d7b313497ca82fb0b4ab0079300916103819061182c565b610458338383610b45565b61077a84848461045c565b6104e684848484610c08565b6001600160a01b0381166000908152600160209081526040808320805482518185028101850190935280835260609492939192909184015b82821015610804578382906000526020600020906002020160405180604001604052908160008201548152602001600182015481525050815260200190600101906107be565b505050509050919050565b606061034982610d2a565b3360009081526002602052604090205460ff166108855760405162461bcd60e51b815260206004820152602360248201527f41646472657373206973206e6f7420656c696769626c6520666f72206d696e74604482015262696e6760e81b6064820152608401610482565b6001600160a01b03831633146108dd5760405162461bcd60e51b815260206004820152601760248201527f596f752063616e2774206d696e742074686973204e46540000000000000000006044820152606401610482565b6000805490806108ec83611866565b91905055506108fd83600054610e5f565b61090960005482610ec4565b506001600160a01b039091166000908152600160208181526040808420815180830190925294815283548183019081528554808501875595855291909320925160029094029092019283559051910155565b60006001600160e01b03198216632483248360e11b1480610349575061034982610f37565b60008181527f80bb2b638cc20bc4d0a60d66940f3ab4a00c1d7b313497ca82fb0b4ab007930260205260408120546001600160a01b03168061034957604051637e27328960e01b815260048101849052602401610482565b6105078383836001610f87565b60008281527f80bb2b638cc20bc4d0a60d66940f3ab4a00c1d7b313497ca82fb0b4ab007930260205260408120547f80bb2b638cc20bc4d0a60d66940f3ab4a00c1d7b313497ca82fb0b4ab0079300906001600160a01b0390811690841615610a5357610a538185876110fa565b6001600160a01b03811615610a9357610a70600086600080610f87565b6001600160a01b0381166000908152600383016020526040902080546000190190555b6001600160a01b03861615610ac4576001600160a01b03861660009081526003830160205260409020805460010190555b6000858152600283016020526040808220805473ffffffffffffffffffffffffffffffffffffffff19166001600160a01b038a811691821790925591518893918516917fddf252ad1be2c89b69c2b068fc378daa952ba7f163c4a11628f55a4df523b3ef91a495945050505050565b610b3b61115e565b61045882826111ae565b7f80bb2b638cc20bc4d0a60d66940f3ab4a00c1d7b313497ca82fb0b4ab00793006001600160a01b038316610b9857604051630b61174360e31b81526001600160a01b0384166004820152602401610482565b6001600160a01b038481166000818152600584016020908152604080832094881680845294825291829020805460ff191687151590811790915591519182527f17307eab39ab6107e8899845ad3d59bd9653f200f220920489ca2b5937696c31910160405180910390a350505050565b6001600160a01b0383163b156104e657604051630a85bd0160e11b81526001600160a01b0384169063150b7a0290610c4a90339088908790879060040161188d565b6020604051808303816000875af1925050508015610c85575060408051601f3d908101601f19168201909252610c82918101906118c9565b60015b610cee573d808015610cb3576040519150601f19603f3d011682016040523d82523d6000602084013e610cb8565b606091505b508051600003610ce657604051633250574960e11b81526001600160a01b0385166004820152602401610482565b805181602001fd5b6001600160e01b03198116630a85bd0160e11b1461070c57604051633250574960e11b81526001600160a01b0385166004820152602401610482565b60607f0542a41881ee128a365a727b282c86fa859579490b9bb45aab8503648c8e7900610d5683610980565b5060008381526020829052604081208054610d709061182c565b80601f0160208091040260200160405190810160405280929190818152602001828054610d9c9061182c565b8015610de95780601f10610dbe57610100808354040283529160200191610de9565b820191906000526020600020905b815481529060010190602001808311610dcc57829003601f168201915b505050505090506000610e0760408051602081019091526000815290565b90508051600003610e1a57509392505050565b815115610e4d578082604051602001610e349291906118e6565b6040516020818303038152906040529350505050919050565b610e56856111f1565b95945050505050565b6001600160a01b038216610e8957604051633250574960e11b815260006004820152602401610482565b6000610e97838360006109e5565b90506001600160a01b03811615610507576040516339e3563760e11b815260006004820152602401610482565b60008281527f0542a41881ee128a365a727b282c86fa859579490b9bb45aab8503648c8e790060208190526040909120610efe8382611963565b506040518381527ff8e1a15aba9398e019f0b49df1a4fde98ee17ae345cb5f6b5e2c27f5033e8ce79060200160405180910390a1505050565b60006001600160e01b031982166380ac58cd60e01b1480610f6857506001600160e01b03198216635b5e139f60e01b145b8061034957506301ffc9a760e01b6001600160e01b0319831614610349565b7f80bb2b638cc20bc4d0a60d66940f3ab4a00c1d7b313497ca82fb0b4ab00793008180610fbc57506001600160a01b03831615155b156110bc576000610fcc85610980565b90506001600160a01b03841615801590610ff85750836001600160a01b0316816001600160a01b031614155b801561104957506001600160a01b0380821660009081527f80bb2b638cc20bc4d0a60d66940f3ab4a00c1d7b313497ca82fb0b4ab0079305602090815260408083209388168352929052205460ff16155b156110725760405163a9fbf51f60e01b81526001600160a01b0385166004820152602401610482565b82156110ba5784866001600160a01b0316826001600160a01b03167f8c5be1e5ebec7d5bd14f71427d1e84f3dd0314c0f7b2291e5b200ac8c7c3b92560405160405180910390a45b505b6000938452600401602052505060409020805473ffffffffffffffffffffffffffffffffffffffff19166001600160a01b0392909216919091179055565b611105838383611266565b610507576001600160a01b03831661113357604051637e27328960e01b815260048101829052602401610482565b60405163177e802f60e01b81526001600160a01b038316600482015260248101829052604401610482565b7ff0c57e16840df040f15088dc2f81fe391c3923bec73e23a9662efc9c229c6a005468010000000000000000900460ff166111ac57604051631afcd79f60e31b815260040160405180910390fd5b565b6111b661115e565b7f80bb2b638cc20bc4d0a60d66940f3ab4a00c1d7b313497ca82fb0b4ab0079300806111e28482611963565b50600181016104e68382611963565b60606111fc82610980565b50600061121460408051602081019091526000815290565b90506000815111611234576040518060200160405280600081525061125f565b8061123e8461132a565b60405160200161124f9291906118e6565b6040516020818303038152906040525b9392505050565b60006001600160a01b038316158015906113225750826001600160a01b0316846001600160a01b031614806112df57506001600160a01b0380851660009081527f80bb2b638cc20bc4d0a60d66940f3ab4a00c1d7b313497ca82fb0b4ab0079305602090815260408083209387168352929052205460ff165b80611322575060008281527f80bb2b638cc20bc4d0a60d66940f3ab4a00c1d7b313497ca82fb0b4ab007930460205260409020546001600160a01b038481169116145b949350505050565b60606000611337836113ca565b600101905060008167ffffffffffffffff81111561135757611357611637565b6040519080825280601f01601f191660200182016040528015611381576020820181803683370190505b5090508181016020015b600019017f3031323334353637383961626364656600000000000000000000000000000000600a86061a8153600a850494508461138b57509392505050565b6000807a184f03e93ff9f4daa797ed6e38ed64bf6a1f0100000000000000008310611413577a184f03e93ff9f4daa797ed6e38ed64bf6a1f010000000000000000830492506040015b6d04ee2d6d415b85acef8100000000831061143f576d04ee2d6d415b85acef8100000000830492506020015b662386f26fc10000831061145d57662386f26fc10000830492506010015b6305f5e1008310611475576305f5e100830492506008015b612710831061148957612710830492506004015b6064831061149b576064830492506002015b600a83106103495760010192915050565b6001600160e01b0319811681146114c257600080fd5b50565b6000602082840312156114d757600080fd5b813561125f816114ac565b60005b838110156114fd5781810151838201526020016114e5565b50506000910152565b6000815180845261151e8160208601602086016114e2565b601f01601f19169290920160200192915050565b60208152600061125f6020830184611506565b60006020828403121561155757600080fd5b5035919050565b80356001600160a01b038116811461157557600080fd5b919050565b6000806040838503121561158d57600080fd5b6115968361155e565b946020939093013593505050565b6000806000606084860312156115b957600080fd5b6115c28461155e565b92506115d06020850161155e565b9150604084013590509250925092565b6000602082840312156115f257600080fd5b61125f8261155e565b6000806040838503121561160e57600080fd5b6116178361155e565b91506020830135801515811461162c57600080fd5b809150509250929050565b634e487b7160e01b600052604160045260246000fd5b600067ffffffffffffffff8084111561166857611668611637565b604051601f8501601f19908116603f0116810190828211818310171561169057611690611637565b816040528093508581528686860111156116a957600080fd5b858560208301376000602087830101525050509392505050565b600080600080608085870312156116d957600080fd5b6116e28561155e565b93506116f06020860161155e565b925060408501359150606085013567ffffffffffffffff81111561171357600080fd5b8501601f8101871361172457600080fd5b6117338782356020840161164d565b91505092959194509250565b602080825282518282018190526000919060409081850190868401855b828110156117815781518051855286015186850152928401929085019060010161175c565b5091979650505050505050565b6000806000606084860312156117a357600080fd5b6117ac8461155e565b925060208401359150604084013567ffffffffffffffff8111156117cf57600080fd5b8401601f810186136117e057600080fd5b6117ef8682356020840161164d565b9150509250925092565b6000806040838503121561180c57600080fd5b6118158361155e565b91506118236020840161155e565b90509250929050565b600181811c9082168061184057607f821691505b60208210810361186057634e487b7160e01b600052602260045260246000fd5b50919050565b60006001820161188657634e487b7160e01b600052601160045260246000fd5b5060010190565b60006001600160a01b038087168352808616602084015250836040830152608060608301526118bf6080830184611506565b9695505050505050565b6000602082840312156118db57600080fd5b815161125f816114ac565b600083516118f88184602088016114e2565b83519083019061190c8183602088016114e2565b01949350505050565b601f82111561050757600081815260208120601f850160051c8101602086101561193c5750805b601f850160051c820191505b8181101561195b57828155600101611948565b505050505050565b815167ffffffffffffffff81111561197d5761197d611637565b6119918161198b845461182c565b84611915565b602080601f8311600181146119c657600084156119ae5750858301515b600019600386901b1c1916600185901b17855561195b565b600085815260208120601f198616915b828110156119f5578886015182559484019460019091019084016119d6565b5085821015611a135787850151600019600388901b60f8161c191681555b5050505050600190811b0190555056fea164736f6c6343000814000a",
  "linkReferences": {},
  "deployedLinkReferences": {}
}