{
  "_format": "hh-sol-artifact-1",
  "contractName": "NFTMinter",
  "sourceName": "contracts/NFTMinter.sol",
  "abi": [
    {
      "inputs": [
        {
          "internalType": "address",
          "name": "sender",
          "type": "address"
        },
        {
          "internalType": "uint256",
          "name": "tokenId",
          "type": "uint256"
        },
        {
          "internalType": "address",
          "name": "owner",
          "type": "address"
        }
      ],
      "name": "ERC721IncorrectOwner",
      "type": "error"
    },
    {
      "inputs": [
        {
          "internalType": "address",
          "name": "operator",
          "type": "address"
        },
        {
          "internalType": "uint256",
          "name": "tokenId",
          "type": "uint256"
        }
      ],
      "name": "ERC721InsufficientApproval",
      "type": "error"
    },
    {
      "inputs": [
        {
          "internalType": "address",
          "name": "approver",
          "type": "address"
        }
      ],
      "name": "ERC721InvalidApprover",
      "type": "error"
    },
    {
      "inputs": [
        {
          "internalType": "address",
          "name": "operator",
          "type": "address"
        }
      ],
      "name": "ERC721InvalidOperator",
      "type": "error"
    },
    {
      "inputs": [
        {
          "internalType": "address",
          "name": "owner",
          "type": "address"
        }
      ],
      "name": "ERC721InvalidOwner",
      "type": "error"
    },
    {
      "inputs": [
        {
          "internalType": "address",
          "name": "receiver",
          "type": "address"
        }
      ],
      "name": "ERC721InvalidReceiver",
      "type": "error"
    },
    {
      "inputs": [
        {
          "internalType": "address",
          "name": "sender",
          "type": "address"
        }
      ],
      "name": "ERC721InvalidSender",
      "type": "error"
    },
    {
      "inputs": [
        {
          "internalType": "uint256",
          "name": "tokenId",
          "type": "uint256"
        }
      ],
      "name": "ERC721NonexistentToken",
      "type": "error"
    },
    {
      "inputs": [],
      "name": "InvalidInitialization",
      "type": "error"
    },
    {
      "inputs": [],
      "name": "NotInitializing",
      "type": "error"
    },
    {
      "anonymous": false,
      "inputs": [
        {
          "indexed": true,
          "internalType": "address",
          "name": "owner",
          "type": "address"
        },
        {
          "indexed": true,
          "internalType": "address",
          "name": "approved",
          "type": "address"
        },
        {
          "indexed": true,
          "internalType": "uint256",
          "name": "tokenId",
          "type": "uint256"
        }
      ],
      "name": "Approval",
      "type": "event"
    },
    {
      "anonymous": false,
      "inputs": [
        {
          "indexed": true,
          "internalType": "address",
          "name": "owner",
          "type": "address"
        },
        {
          "indexed": true,
          "internalType": "address",
          "name": "operator",
          "type": "address"
        },
        {
          "indexed": false,
          "internalType": "bool",
          "name": "approved",
          "type": "bool"
        }
      ],
      "name": "ApprovalForAll",
      "type": "event"
    },
    {
      "anonymous": false,
      "inputs": [
        {
          "indexed": false,
          "internalType": "uint256",
          "name": "_fromTokenId",
          "type": "uint256"
        },
        {
          "indexed": false,
          "internalType": "uint256",
          "name": "_toTokenId",
          "type": "uint256"
        }
      ],
      "name": "BatchMetadataUpdate",
      "type": "event"
    },
    {
      "anonymous": false,
      "inputs": [
        {
          "indexed": false,
          "internalType": "uint64",
          "name": "version",
          "type": "uint64"
        }
      ],
      "name": "Initialized",
      "type": "event"
    },
    {
      "anonymous": false,
      "inputs": [
        {
          "indexed": false,
          "internalType": "uint256",
          "name": "_tokenId",
          "type": "uint256"
        }
      ],
      "name": "MetadataUpdate",
      "type": "event"
    },
    {
      "anonymous": false,
      "inputs": [
        {
          "indexed": true,
          "internalType": "address",
          "name": "from",
          "type": "address"
        },
        {
          "indexed": true,
          "internalType": "address",
          "name": "to",
          "type": "address"
        },
        {
          "indexed": true,
          "internalType": "uint256",
          "name": "tokenId",
          "type": "uint256"
        }
      ],
      "name": "Transfer",
      "type": "event"
    },
    {
      "inputs": [
        {
          "internalType": "address",
          "name": "_address",
          "type": "address"
        }
      ],
      "name": "addEligibleAddress",
      "outputs": [],
      "stateMutability": "nonpayable",
      "type": "function"
    },
    {
      "inputs": [],
      "name": "admin",
      "outputs": [
        {
          "internalType": "address",
          "name": "",
          "type": "address"
        }
      ],
      "stateMutability": "view",
      "type": "function"
    },
    {
      "inputs": [
        {
          "internalType": "address",
          "name": "to",
          "type": "address"
        },
        {
          "internalType": "uint256",
          "name": "tokenId",
          "type": "uint256"
        }
      ],
      "name": "approve",
      "outputs": [],
      "stateMutability": "nonpayable",
      "type": "function"
    },
    {
      "inputs": [
        {
          "internalType": "address",
          "name": "owner",
          "type": "address"
        }
      ],
      "name": "balanceOf",
      "outputs": [
        {
          "internalType": "uint256",
          "name": "",
          "type": "uint256"
        }
      ],
      "stateMutability": "view",
      "type": "function"
    },
    {
      "inputs": [
        {
          "internalType": "address",
          "name": "",
          "type": "address"
        }
      ],
      "name": "eligibleAddresses",
      "outputs": [
        {
          "internalType": "bool",
          "name": "",
          "type": "bool"
        }
      ],
      "stateMutability": "view",
      "type": "function"
    },
    {
      "inputs": [
        {
          "internalType": "uint256",
          "name": "tokenId",
          "type": "uint256"
        }
      ],
      "name": "getApproved",
      "outputs": [
        {
          "internalType": "address",
          "name": "",
          "type": "address"
        }
      ],
      "stateMutability": "view",
      "type": "function"
    },
    {
      "inputs": [
        {
          "internalType": "string",
          "name": "_name",
          "type": "string"
        },
        {
          "internalType": "string",
          "name": "_symbol",
          "type": "string"
        }
      ],
      "name": "initialize",
      "outputs": [],
      "stateMutability": "nonpayable",
      "type": "function"
    },
    {
      "inputs": [
        {
          "internalType": "address",
          "name": "owner",
          "type": "address"
        },
        {
          "internalType": "address",
          "name": "operator",
          "type": "address"
        }
      ],
      "name": "isApprovedForAll",
      "outputs": [
        {
          "internalType": "bool",
          "name": "",
          "type": "bool"
        }
      ],
      "stateMutability": "view",
      "type": "function"
    },
    {
      "inputs": [
        {
          "internalType": "address",
          "name": "user",
          "type": "address"
        }
      ],
      "name": "mintsByUser",
      "outputs": [
        {
          "components": [
            {
              "internalType": "uint256",
              "name": "nftId",
              "type": "uint256"
            },
            {
              "internalType": "uint256",
              "name": "token_id",
              "type": "uint256"
            }
          ],
          "internalType": "struct NFTMinter.mintedNft[]",
          "name": "",
          "type": "tuple[]"
        }
      ],
      "stateMutability": "view",
      "type": "function"
    },
    {
      "inputs": [],
      "name": "name",
      "outputs": [
        {
          "internalType": "string",
          "name": "",
          "type": "string"
        }
      ],
      "stateMutability": "view",
      "type": "function"
    },
    {
      "inputs": [
        {
          "internalType": "uint256",
          "name": "tokenId",
          "type": "uint256"
        }
      ],
      "name": "ownerOf",
      "outputs": [
        {
          "internalType": "address",
          "name": "",
          "type": "address"
        }
      ],
      "stateMutability": "view",
      "type": "function"
    },
    {
      "inputs": [
        {
          "internalType": "address",
          "name": "to",
          "type": "address"
        },
        {
          "internalType": "uint256",
          "name": "nftId",
          "type": "uint256"
        },
        {
          "internalType": "string",
          "name": "uri",
          "type": "string"
        }
      ],
      "name": "safeMint",
      "outputs": [],
      "stateMutability": "nonpayable",
      "type": "function"
    },
    {
      "inputs": [
        {
          "internalType": "address",
          "name": "from",
          "type": "address"
        },
        {
          "internalType": "address",
          "name": "to",
          "type": "address"
        },
        {
          "internalType": "uint256",
          "name": "tokenId",
          "type": "uint256"
        }
      ],
      "name": "safeTransferFrom",
      "outputs": [],
      "stateMutability": "nonpayable",
      "type": "function"
    },
    {
      "inputs": [
        {
          "internalType": "address",
          "name": "from",
          "type": "address"
        },
        {
          "internalType": "address",
          "name": "to",
          "type": "address"
        },
        {
          "internalType": "uint256",
          "name": "tokenId",
          "type": "uint256"
        },
        {
          "internalType": "bytes",
          "name": "data",
          "type": "bytes"
        }
      ],
      "name": "safeTransferFrom",
      "outputs": [],
      "stateMutability": "nonpayable",
      "type": "function"
    },
    {
      "inputs": [
        {
          "internalType": "address",
          "name": "operator",
          "type": "address"
        },
        {
          "internalType": "bool",
          "name": "approved",
          "type": "bool"
        }
      ],
      "name": "setApprovalForAll",
      "outputs": [],
      "stateMutability": "nonpayable",
      "type": "function"
    },
    {
      "inputs": [
        {
          "internalType": "bytes4",
          "name": "interfaceId",
          "type": "bytes4"
        }
      ],
      "name": "supportsInterface",
      "outputs": [
        {
          "internalType": "bool",
          "name": "",
          "type": "bool"
        }
      ],
      "stateMutability": "view",
      "type": "function"
    },
    {
      "inputs": [],
      "name": "symbol",
      "outputs": [
        {
          "internalType": "string",
          "name": "",
          "type": "string"
        }
      ],
      "stateMutability": "view",
      "type": "function"
    },
    {
      "inputs": [
        {
          "internalType": "uint256",
          "name": "tokenId",
          "type": "uint256"
        }
      ],
      "name": "tokenURI",
      "outputs": [
        {
          "internalType": "string",
          "name": "",
          "type": "string"
        }
      ],
      "stateMutability": "view",
      "type": "function"
    },
    {
      "inputs": [
        {
          "internalType": "address",
          "name": "from",
          "type": "address"
        },
        {
          "internalType": "address",
          "name": "to",
          "type": "address"
        },
        {
          "internalType": "uint256",
          "name": "tokenId",
          "type": "uint256"
        }
      ],
      "name": "transferFrom",
      "outputs": [],
      "stateMutability": "nonpayable",
      "type": "function"
    }
  ],
  "bytecode": "0x608060405234801561001057600080fd5b50611a98806100206000396000f3fe608060405234801561001057600080fd5b50600436106101515760003560e01c806385af4649116100cd578063bb76f8f911610081578063cd279c7c11610066578063cd279c7c146102f6578063e985e9c514610309578063f851a4401461036457600080fd5b8063bb76f8f9146102c3578063c87b56dd146102e357600080fd5b806395d89b41116100b257806395d89b4114610295578063a22cb4651461029d578063b88d4fde146102b057600080fd5b806385af4649146102405780638aa75ed41461026357600080fd5b806323b872dd116101245780634cd88b76116101095780634cd88b76146101f95780636352211e1461020c57806370a082311461021f57600080fd5b806323b872dd146101d357806342842e0e146101e657600080fd5b806301ffc9a71461015657806306fdde031461017e578063081812fc14610193578063095ea7b3146101be575b600080fd5b6101696101643660046114bd565b610377565b60405190151581526020015b60405180910390f35b610186610388565b604051610175919061152a565b6101a66101a136600461153d565b61043e565b6040516001600160a01b039091168152602001610175565b6101d16101cc366004611572565b610486565b005b6101d16101e136600461159c565b610495565b6101d16101f436600461159c565b610525565b6101d1610207366004611684565b610545565b6101a661021a36600461153d565b61068a565b61023261022d3660046116e8565b610695565b604051908152602001610175565b61016961024e3660046116e8565b60036020526000908152604090205460ff1681565b6101d16102713660046116e8565b6001600160a01b03166000908152600360205260409020805460ff19166001179055565b610186610703565b6101d16102ab366004611703565b610754565b6101d16102be36600461173f565b61075f565b6102d66102d13660046116e8565b610776565b60405161017591906117bb565b6101866102f136600461153d565b6107ff565b6101d161030436600461180a565b61080a565b610169610317366004611861565b6001600160a01b0391821660009081527f80bb2b638cc20bc4d0a60d66940f3ab4a00c1d7b313497ca82fb0b4ab00793056020908152604080832093909416825291909152205460ff1690565b6000546101a6906001600160a01b031681565b60006103828261094c565b92915050565b7f80bb2b638cc20bc4d0a60d66940f3ab4a00c1d7b313497ca82fb0b4ab007930080546060919081906103ba90611894565b80601f01602080910402602001604051908101604052809291908181526020018280546103e690611894565b80156104335780601f1061040857610100808354040283529160200191610433565b820191906000526020600020905b81548152906001019060200180831161041657829003601f168201915b505050505091505090565b600061044982610971565b5060008281527f80bb2b638cc20bc4d0a60d66940f3ab4a00c1d7b313497ca82fb0b4ab007930460205260409020546001600160a01b0316610382565b6104918282336109c9565b5050565b6001600160a01b0382166104c457604051633250574960e11b8152600060048201526024015b60405180910390fd5b60006104d18383336109d6565b9050836001600160a01b0316816001600160a01b03161461051f576040516364283d7b60e01b81526001600160a01b03808616600483015260248201849052821660448201526064016104bb565b50505050565b6105408383836040518060200160405280600081525061075f565b505050565b7ff0c57e16840df040f15088dc2f81fe391c3923bec73e23a9662efc9c229c6a00805468010000000000000000810460ff16159067ffffffffffffffff166000811580156105905750825b905060008267ffffffffffffffff1660011480156105ad5750303b155b9050811580156105bb575080155b156105d95760405163f92ee8a960e01b815260040160405180910390fd5b845467ffffffffffffffff19166001178555831561060d57845468ff00000000000000001916680100000000000000001785555b6106178787610b24565b6000805473ffffffffffffffffffffffffffffffffffffffff191633179055831561068157845468ff000000000000000019168555604051600181527fc7f505b2f371ae2175ee4913f4499e1f2633a7b5936321eed1cdaeb6115181d29060200160405180910390a15b50505050505050565b600061038282610971565b60007f80bb2b638cc20bc4d0a60d66940f3ab4a00c1d7b313497ca82fb0b4ab00793006001600160a01b0383166106e2576040516322718ad960e21b8152600060048201526024016104bb565b6001600160a01b039092166000908152600390920160205250604090205490565b7f80bb2b638cc20bc4d0a60d66940f3ab4a00c1d7b313497ca82fb0b4ab007930180546060917f80bb2b638cc20bc4d0a60d66940f3ab4a00c1d7b313497ca82fb0b4ab0079300916103ba90611894565b610491338383610b36565b61076a848484610495565b61051f84848484610bf9565b6001600160a01b0381166000908152600260209081526040808320805482518185028101850190935280835260609492939192909184015b828210156107f4578382906000526020600020906002020160405180604001604052908160008201548152602001600182015481525050815260200190600101906107ae565b505050509050919050565b606061038282610d22565b3360009081526003602052604090205460ff166108755760405162461bcd60e51b815260206004820152602360248201527f41646472657373206973206e6f7420656c696769626c6520666f72206d696e74604482015262696e6760e81b60648201526084016104bb565b6001600160a01b03831633146108cd5760405162461bcd60e51b815260206004820152601760248201527f596f752063616e2774206d696e742074686973204e465400000000000000000060448201526064016104bb565b600180549060006108dd836118ce565b91905055506108ee83600154610e57565b6108fa60015482610ebc565b506001600160a01b039091166000908152600260208181526040808420815180830190925294815260018054828401908152865480830188559686529290942090519490920290910192835551910155565b60006001600160e01b03198216632483248360e11b1480610382575061038282610f2f565b60008181527f80bb2b638cc20bc4d0a60d66940f3ab4a00c1d7b313497ca82fb0b4ab007930260205260408120546001600160a01b03168061038257604051637e27328960e01b8152600481018490526024016104bb565b6105408383836001610f7f565b60008281527f80bb2b638cc20bc4d0a60d66940f3ab4a00c1d7b313497ca82fb0b4ab007930260205260408120547f80bb2b638cc20bc4d0a60d66940f3ab4a00c1d7b313497ca82fb0b4ab0079300906001600160a01b0390811690841615610a4457610a448185876110f2565b6001600160a01b03811615610a8457610a61600086600080610f7f565b6001600160a01b0381166000908152600383016020526040902080546000190190555b6001600160a01b03861615610ab5576001600160a01b03861660009081526003830160205260409020805460010190555b6000858152600283016020526040808220805473ffffffffffffffffffffffffffffffffffffffff19166001600160a01b038a811691821790925591518893918516917fddf252ad1be2c89b69c2b068fc378daa952ba7f163c4a11628f55a4df523b3ef91a495945050505050565b610b2c611156565b61049182826111a6565b7f80bb2b638cc20bc4d0a60d66940f3ab4a00c1d7b313497ca82fb0b4ab00793006001600160a01b038316610b8957604051630b61174360e31b81526001600160a01b03841660048201526024016104bb565b6001600160a01b038481166000818152600584016020908152604080832094881680845294825291829020805460ff191687151590811790915591519182527f17307eab39ab6107e8899845ad3d59bd9653f200f220920489ca2b5937696c31910160405180910390a350505050565b6001600160a01b0383163b1561051f57604051630a85bd0160e11b81526001600160a01b0384169063150b7a0290610c3b9033908890879087906004016118f5565b6020604051808303816000875af1925050508015610c76575060408051601f3d908101601f19168201909252610c7391810190611931565b60015b610cdf573d808015610ca4576040519150601f19603f3d011682016040523d82523d6000602084013e610ca9565b606091505b508051600003610cd757604051633250574960e11b81526001600160a01b03851660048201526024016104bb565b805181602001fd5b6001600160e01b03198116630a85bd0160e11b14610d1b57604051633250574960e11b81526001600160a01b03851660048201526024016104bb565b5050505050565b60607f0542a41881ee128a365a727b282c86fa859579490b9bb45aab8503648c8e7900610d4e83610971565b5060008381526020829052604081208054610d6890611894565b80601f0160208091040260200160405190810160405280929190818152602001828054610d9490611894565b8015610de15780601f10610db657610100808354040283529160200191610de1565b820191906000526020600020905b815481529060010190602001808311610dc457829003601f168201915b505050505090506000610dff60408051602081019091526000815290565b90508051600003610e1257509392505050565b815115610e45578082604051602001610e2c92919061194e565b6040516020818303038152906040529350505050919050565b610e4e856111e9565b95945050505050565b6001600160a01b038216610e8157604051633250574960e11b8152600060048201526024016104bb565b6000610e8f838360006109d6565b90506001600160a01b03811615610540576040516339e3563760e11b8152600060048201526024016104bb565b60008281527f0542a41881ee128a365a727b282c86fa859579490b9bb45aab8503648c8e790060208190526040909120610ef683826119cb565b506040518381527ff8e1a15aba9398e019f0b49df1a4fde98ee17ae345cb5f6b5e2c27f5033e8ce79060200160405180910390a1505050565b60006001600160e01b031982166380ac58cd60e01b1480610f6057506001600160e01b03198216635b5e139f60e01b145b8061038257506301ffc9a760e01b6001600160e01b0319831614610382565b7f80bb2b638cc20bc4d0a60d66940f3ab4a00c1d7b313497ca82fb0b4ab00793008180610fb457506001600160a01b03831615155b156110b4576000610fc485610971565b90506001600160a01b03841615801590610ff05750836001600160a01b0316816001600160a01b031614155b801561104157506001600160a01b0380821660009081527f80bb2b638cc20bc4d0a60d66940f3ab4a00c1d7b313497ca82fb0b4ab0079305602090815260408083209388168352929052205460ff16155b1561106a5760405163a9fbf51f60e01b81526001600160a01b03851660048201526024016104bb565b82156110b25784866001600160a01b0316826001600160a01b03167f8c5be1e5ebec7d5bd14f71427d1e84f3dd0314c0f7b2291e5b200ac8c7c3b92560405160405180910390a45b505b6000938452600401602052505060409020805473ffffffffffffffffffffffffffffffffffffffff19166001600160a01b0392909216919091179055565b6110fd83838361125e565b610540576001600160a01b03831661112b57604051637e27328960e01b8152600481018290526024016104bb565b60405163177e802f60e01b81526001600160a01b0383166004820152602481018290526044016104bb565b7ff0c57e16840df040f15088dc2f81fe391c3923bec73e23a9662efc9c229c6a005468010000000000000000900460ff166111a457604051631afcd79f60e31b815260040160405180910390fd5b565b6111ae611156565b7f80bb2b638cc20bc4d0a60d66940f3ab4a00c1d7b313497ca82fb0b4ab0079300806111da84826119cb565b506001810161051f83826119cb565b60606111f482610971565b50600061120c60408051602081019091526000815290565b9050600081511161122c5760405180602001604052806000815250611257565b8061123684611322565b60405160200161124792919061194e565b6040516020818303038152906040525b9392505050565b60006001600160a01b0383161580159061131a5750826001600160a01b0316846001600160a01b031614806112d757506001600160a01b0380851660009081527f80bb2b638cc20bc4d0a60d66940f3ab4a00c1d7b313497ca82fb0b4ab0079305602090815260408083209387168352929052205460ff165b8061131a575060008281527f80bb2b638cc20bc4d0a60d66940f3ab4a00c1d7b313497ca82fb0b4ab007930460205260409020546001600160a01b038481169116145b949350505050565b6060600061132f836113c2565b600101905060008167ffffffffffffffff81111561134f5761134f6115d8565b6040519080825280601f01601f191660200182016040528015611379576020820181803683370190505b5090508181016020015b600019017f3031323334353637383961626364656600000000000000000000000000000000600a86061a8153600a850494508461138357509392505050565b6000807a184f03e93ff9f4daa797ed6e38ed64bf6a1f010000000000000000831061140b577a184f03e93ff9f4daa797ed6e38ed64bf6a1f010000000000000000830492506040015b6d04ee2d6d415b85acef81000000008310611437576d04ee2d6d415b85acef8100000000830492506020015b662386f26fc10000831061145557662386f26fc10000830492506010015b6305f5e100831061146d576305f5e100830492506008015b612710831061148157612710830492506004015b60648310611493576064830492506002015b600a83106103825760010192915050565b6001600160e01b0319811681146114ba57600080fd5b50565b6000602082840312156114cf57600080fd5b8135611257816114a4565b60005b838110156114f55781810151838201526020016114dd565b50506000910152565b600081518084526115168160208601602086016114da565b601f01601f19169290920160200192915050565b60208152600061125760208301846114fe565b60006020828403121561154f57600080fd5b5035919050565b80356001600160a01b038116811461156d57600080fd5b919050565b6000806040838503121561158557600080fd5b61158e83611556565b946020939093013593505050565b6000806000606084860312156115b157600080fd5b6115ba84611556565b92506115c860208501611556565b9150604084013590509250925092565b634e487b7160e01b600052604160045260246000fd5b600067ffffffffffffffff80841115611609576116096115d8565b604051601f8501601f19908116603f01168101908282118183101715611631576116316115d8565b8160405280935085815286868601111561164a57600080fd5b858560208301376000602087830101525050509392505050565b600082601f83011261167557600080fd5b611257838335602085016115ee565b6000806040838503121561169757600080fd5b823567ffffffffffffffff808211156116af57600080fd5b6116bb86838701611664565b935060208501359150808211156116d157600080fd5b506116de85828601611664565b9150509250929050565b6000602082840312156116fa57600080fd5b61125782611556565b6000806040838503121561171657600080fd5b61171f83611556565b91506020830135801515811461173457600080fd5b809150509250929050565b6000806000806080858703121561175557600080fd5b61175e85611556565b935061176c60208601611556565b925060408501359150606085013567ffffffffffffffff81111561178f57600080fd5b8501601f810187136117a057600080fd5b6117af878235602084016115ee565b91505092959194509250565b602080825282518282018190526000919060409081850190868401855b828110156117fd578151805185528601518685015292840192908501906001016117d8565b5091979650505050505050565b60008060006060848603121561181f57600080fd5b61182884611556565b925060208401359150604084013567ffffffffffffffff81111561184b57600080fd5b61185786828701611664565b9150509250925092565b6000806040838503121561187457600080fd5b61187d83611556565b915061188b60208401611556565b90509250929050565b600181811c908216806118a857607f821691505b6020821081036118c857634e487b7160e01b600052602260045260246000fd5b50919050565b6000600182016118ee57634e487b7160e01b600052601160045260246000fd5b5060010190565b60006001600160a01b0380871683528086166020840152508360408301526080606083015261192760808301846114fe565b9695505050505050565b60006020828403121561194357600080fd5b8151611257816114a4565b600083516119608184602088016114da565b8351908301906119748183602088016114da565b01949350505050565b601f82111561054057600081815260208120601f850160051c810160208610156119a45750805b601f850160051c820191505b818110156119c3578281556001016119b0565b505050505050565b815167ffffffffffffffff8111156119e5576119e56115d8565b6119f9816119f38454611894565b8461197d565b602080601f831160018114611a2e5760008415611a165750858301515b600019600386901b1c1916600185901b1785556119c3565b600085815260208120601f198616915b82811015611a5d57888601518255948401946001909101908401611a3e565b5085821015611a7b5787850151600019600388901b60f8161c191681555b5050505050600190811b0190555056fea164736f6c6343000814000a",
  "linkReferences": {},
  "deployedLinkReferences": {}
}