{
  "_format": "hh-sol-artifact-1",
  "contractName": "VeMetisMinter",
  "sourceName": "contracts/VeMetisMinter.sol",
  "abi": [
    {
      "inputs": [],
      "name": "InvalidInitialization",
      "type": "error"
    },
    {
      "inputs": [],
      "name": "NotInitializing",
      "type": "error"
    },
    {
      "inputs": [],
      "name": "ReentrancyGuardReentrantCall",
      "type": "error"
    },
    {
      "inputs": [
        {
          "internalType": "address",
          "name": "token",
          "type": "address"
        }
      ],
      "name": "SafeERC20FailedOperation",
      "type": "error"
    },
    {
      "inputs": [
        {
          "internalType": "uint256",
          "name": "value",
          "type": "uint256"
        },
        {
          "internalType": "uint256",
          "name": "length",
          "type": "uint256"
        }
      ],
      "name": "StringsInsufficientHexLength",
      "type": "error"
    },
    {
      "anonymous": false,
      "inputs": [
        {
          "indexed": false,
          "internalType": "uint256",
          "name": "amount",
          "type": "uint256"
        }
      ],
      "name": "DepositToL1Dealer",
      "type": "event"
    },
    {
      "anonymous": false,
      "inputs": [
        {
          "indexed": false,
          "internalType": "uint64",
          "name": "version",
          "type": "uint64"
        }
      ],
      "name": "Initialized",
      "type": "event"
    },
    {
      "anonymous": false,
      "inputs": [
        {
          "indexed": true,
          "internalType": "address",
          "name": "account",
          "type": "address"
        },
        {
          "indexed": false,
          "internalType": "uint256",
          "name": "amount",
          "type": "uint256"
        }
      ],
      "name": "Minted",
      "type": "event"
    },
    {
      "inputs": [],
      "name": "ADMIN_ROLE",
      "outputs": [
        {
          "internalType": "bytes32",
          "name": "",
          "type": "bytes32"
        }
      ],
      "stateMutability": "view",
      "type": "function"
    },
    {
      "inputs": [],
      "name": "BACKEND_ROLE",
      "outputs": [
        {
          "internalType": "bytes32",
          "name": "",
          "type": "bytes32"
        }
      ],
      "stateMutability": "view",
      "type": "function"
    },
    {
      "inputs": [],
      "name": "DEFAULT_ADMIN_ROLE",
      "outputs": [
        {
          "internalType": "bytes32",
          "name": "",
          "type": "bytes32"
        }
      ],
      "stateMutability": "view",
      "type": "function"
    },
    {
      "inputs": [],
      "name": "FEE_PRECISION",
      "outputs": [
        {
          "internalType": "uint64",
          "name": "",
          "type": "uint64"
        }
      ],
      "stateMutability": "view",
      "type": "function"
    },
    {
      "inputs": [],
      "name": "INITIAL_DEPOSIT_AMOUNT",
      "outputs": [
        {
          "internalType": "uint256",
          "name": "",
          "type": "uint256"
        }
      ],
      "stateMutability": "view",
      "type": "function"
    },
    {
      "inputs": [],
      "name": "TIMELOCK_ROLE",
      "outputs": [
        {
          "internalType": "bytes32",
          "name": "",
          "type": "bytes32"
        }
      ],
      "stateMutability": "view",
      "type": "function"
    },
    {
      "inputs": [],
      "name": "bridge",
      "outputs": [
        {
          "internalType": "address",
          "name": "",
          "type": "address"
        }
      ],
      "stateMutability": "view",
      "type": "function"
    },
    {
      "inputs": [],
      "name": "config",
      "outputs": [
        {
          "internalType": "contract IConfig",
          "name": "",
          "type": "address"
        }
      ],
      "stateMutability": "view",
      "type": "function"
    },
    {
      "inputs": [],
      "name": "crossDomainMessenger",
      "outputs": [
        {
          "internalType": "address",
          "name": "",
          "type": "address"
        }
      ],
      "stateMutability": "view",
      "type": "function"
    },
    {
      "inputs": [
        {
          "internalType": "uint256",
          "name": "amount",
          "type": "uint256"
        }
      ],
      "name": "depositToL1Dealer",
      "outputs": [],
      "stateMutability": "payable",
      "type": "function"
    },
    {
      "inputs": [
        {
          "internalType": "address",
          "name": "_config",
          "type": "address"
        }
      ],
      "name": "initialize",
      "outputs": [],
      "stateMutability": "nonpayable",
      "type": "function"
    },
    {
      "inputs": [],
      "name": "metis",
      "outputs": [
        {
          "internalType": "address",
          "name": "",
          "type": "address"
        }
      ],
      "stateMutability": "view",
      "type": "function"
    },
    {
      "inputs": [
        {
          "internalType": "address",
          "name": "account",
          "type": "address"
        },
        {
          "internalType": "uint256",
          "name": "amount",
          "type": "uint256"
        }
      ],
      "name": "mint",
      "outputs": [],
      "stateMutability": "nonpayable",
      "type": "function"
    },
    {
      "inputs": [
        {
          "internalType": "uint256",
          "name": "amount",
          "type": "uint256"
        }
      ],
      "name": "mintFromL1",
      "outputs": [],
      "stateMutability": "nonpayable",
      "type": "function"
    },
    {
      "inputs": [
        {
          "internalType": "uint256",
          "name": "amount",
          "type": "uint256"
        }
      ],
      "name": "redeemToTreasury",
      "outputs": [],
      "stateMutability": "nonpayable",
      "type": "function"
    },
    {
      "stateMutability": "payable",
      "type": "receive"
    }
  ],
  "bytecode": "0x608060405234801561001057600080fd5b50612919806100206000396000f3fe6080604052600436106100ec5760003560e01c8063ce40eb301161008a578063e78cea9211610059578063e78cea92146102f5578063eb82afb314610320578063f288a2e214610349578063f43b3613146103745761012c565b8063ce40eb3014610258578063e52083c614610274578063e59745541461029f578063e63a391f146102ca5761012c565b806392c2becc116100c657806392c2becc146101b0578063a217fddf146101db578063bdb6a62214610206578063c4d66de81461022f5761012c565b806340c10f191461013157806375b238fc1461015a57806379502c55146101855761012c565b3661012c576040517f08c379a000000000000000000000000000000000000000000000000000000000815260040161012390611df3565b60405180910390fd5b600080fd5b34801561013d57600080fd5b5061015860048036038101906101539190611eac565b61039f565b005b34801561016657600080fd5b5061016f610559565b60405161017c9190611f05565b60405180910390f35b34801561019157600080fd5b5061019a61057d565b6040516101a79190611f7f565b60405180910390f35b3480156101bc57600080fd5b506101c56105a1565b6040516101d29190611f05565b60405180910390f35b3480156101e757600080fd5b506101f06105c5565b6040516101fd9190611f05565b60405180910390f35b34801561021257600080fd5b5061022d60048036038101906102289190611f9a565b6105cc565b005b34801561023b57600080fd5b5061025660048036038101906102519190611fc7565b610adc565b005b610272600480360381019061026d9190611f9a565b610eda565b005b34801561028057600080fd5b5061028961122d565b6040516102969190612003565b60405180910390f35b3480156102ab57600080fd5b506102b4611239565b6040516102c1919061202d565b60405180910390f35b3480156102d657600080fd5b506102df61125f565b6040516102ec919061206b565b60405180910390f35b34801561030157600080fd5b5061030a611266565b604051610317919061202d565b60405180910390f35b34801561032c57600080fd5b5061034760048036038101906103429190611f9a565b61128c565b005b34801561035557600080fd5b5061035e61164b565b60405161036b9190611f05565b60405180910390f35b34801561038057600080fd5b5061038961166f565b604051610396919061202d565b60405180910390f35b6103a7611695565b6103fd6103b26116ec565b3083602060009054906101000a900473ffffffffffffffffffffffffffffffffffffffff1673ffffffffffffffffffffffffffffffffffffffff166116f4909392919063ffffffff16565b60008054906101000a900473ffffffffffffffffffffffffffffffffffffffff1673ffffffffffffffffffffffffffffffffffffffff16639336ce806040518163ffffffff1660e01b8152600401602060405180830381865afa158015610468573d6000803e3d6000fd5b505050506040513d601f19601f8201168201806040525081019061048c919061209b565b73ffffffffffffffffffffffffffffffffffffffff166340c10f1983836040518363ffffffff1660e01b81526004016104c69291906120c8565b600060405180830381600087803b1580156104e057600080fd5b505af11580156104f4573d6000803e3d6000fd5b505050506105006116ec565b73ffffffffffffffffffffffffffffffffffffffff167f30385c845b448a36257a6a1716e6ad2e1bc2cbe333cde1e69fe849ad6511adfe826040516105459190612003565b60405180910390a2610555611776565b5050565b7fa49807205ce4d355092ef5a8a18f56e8913cf4a201fbe287825b095693c2177581565b60008054906101000a900473ffffffffffffffffffffffffffffffffffffffff1681565b7f25cf2b509f2a7f322675b2a5322b182f44ad2c03ac941a0af17c9b178f5d5d5f81565b6000801b81565b60008054906101000a900473ffffffffffffffffffffffffffffffffffffffff1673ffffffffffffffffffffffffffffffffffffffff1663219519556040518163ffffffff1660e01b8152600401602060405180830381865afa158015610637573d6000803e3d6000fd5b505050506040513d601f19601f8201168201806040525081019061065b919061209b565b8073ffffffffffffffffffffffffffffffffffffffff1661067a6116ec565b73ffffffffffffffffffffffffffffffffffffffff16146106d0576040517f08c379a00000000000000000000000000000000000000000000000000000000081526004016106c79061213d565b60405180910390fd5b80600160006101000a81548173ffffffffffffffffffffffffffffffffffffffff021916908373ffffffffffffffffffffffffffffffffffffffff16021790555060008211610754576040517f08c379a000000000000000000000000000000000000000000000000000000000815260040161074b906121a9565b60405180910390fd5b81602060009054906101000a900473ffffffffffffffffffffffffffffffffffffffff1673ffffffffffffffffffffffffffffffffffffffff166370a08231306040518263ffffffff1660e01b81526004016107b0919061202d565b602060405180830381865afa1580156107cd573d6000803e3d6000fd5b505050506040513d601f19601f820116820180604052508101906107f191906121de565b1015610832576040517f08c379a00000000000000000000000000000000000000000000000000000000081526004016108299061227d565b60405180910390fd5b60008054906101000a900473ffffffffffffffffffffffffffffffffffffffff1673ffffffffffffffffffffffffffffffffffffffff16639336ce806040518163ffffffff1660e01b8152600401602060405180830381865afa15801561089d573d6000803e3d6000fd5b505050506040513d601f19601f820116820180604052508101906108c1919061209b565b73ffffffffffffffffffffffffffffffffffffffff16639dc29fac60008054906101000a900473ffffffffffffffffffffffffffffffffffffffff1673ffffffffffffffffffffffffffffffffffffffff1663219519556040518163ffffffff1660e01b8152600401602060405180830381865afa158015610947573d6000803e3d6000fd5b505050506040513d601f19601f8201168201806040525081019061096b919061209b565b846040518363ffffffff1660e01b81526004016109899291906120c8565b600060405180830381600087803b1580156109a357600080fd5b505af11580156109b7573d6000803e3d6000fd5b50505050610a9660008054906101000a900473ffffffffffffffffffffffffffffffffffffffff1673ffffffffffffffffffffffffffffffffffffffff1663803db96d6040518163ffffffff1660e01b8152600401602060405180830381865afa158015610a29573d6000803e3d6000fd5b505050506040513d601f19601f82011682018060405250810190610a4d919061209b565b83602060009054906101000a900473ffffffffffffffffffffffffffffffffffffffff1673ffffffffffffffffffffffffffffffffffffffff1661178f9092919063ffffffff16565b6000600160006101000a81548173ffffffffffffffffffffffffffffffffffffffff021916908373ffffffffffffffffffffffffffffffffffffffff1602179055505050565b6000610ae661180e565b905060008160000160089054906101000a900460ff1615905060008260000160009054906101000a900467ffffffffffffffff1690506000808267ffffffffffffffff16148015610b345750825b9050600060018367ffffffffffffffff16148015610b69575060003073ffffffffffffffffffffffffffffffffffffffff163b145b905081158015610b77575080155b15610bae576040517ff92ee8a900000000000000000000000000000000000000000000000000000000815260040160405180910390fd5b60018560000160006101000a81548167ffffffffffffffff021916908367ffffffffffffffff1602179055508315610bfe5760018560000160086101000a81548160ff0219169083151502179055505b610c0786611836565b60008054906101000a900473ffffffffffffffffffffffffffffffffffffffff1673ffffffffffffffffffffffffffffffffffffffff1663e59745546040518163ffffffff1660e01b8152600401602060405180830381865afa158015610c72573d6000803e3d6000fd5b505050506040513d601f19601f82011682018060405250810190610c96919061209b565b602060006101000a81548173ffffffffffffffffffffffffffffffffffffffff021916908373ffffffffffffffffffffffffffffffffffffffff16021790555060008054906101000a900473ffffffffffffffffffffffffffffffffffffffff1673ffffffffffffffffffffffffffffffffffffffff1663e78cea926040518163ffffffff1660e01b8152600401602060405180830381865afa158015610d41573d6000803e3d6000fd5b505050506040513d601f19601f82011682018060405250810190610d65919061209b565b602160006101000a81548173ffffffffffffffffffffffffffffffffffffffff021916908373ffffffffffffffffffffffffffffffffffffffff160217905550602160009054906101000a900473ffffffffffffffffffffffffffffffffffffffff1673ffffffffffffffffffffffffffffffffffffffff16633cb747bf6040518163ffffffff1660e01b8152600401602060405180830381865afa158015610e12573d6000803e3d6000fd5b505050506040513d601f19601f82011682018060405250810190610e36919061209b565b602260006101000a81548173ffffffffffffffffffffffffffffffffffffffff021916908373ffffffffffffffffffffffffffffffffffffffff1602179055508315610ed25760008560000160086101000a81548160ff0219169083151502179055507fc7f505b2f371ae2175ee4913f4499e1f2633a7b5936321eed1cdaeb6115181d26001604051610ec991906122d8565b60405180910390a15b505050505050565b610f037f25cf2b509f2a7f322675b2a5322b182f44ad2c03ac941a0af17c9b178f5d5d5f611891565b80602060009054906101000a900473ffffffffffffffffffffffffffffffffffffffff1673ffffffffffffffffffffffffffffffffffffffff1663dd62ed3e30602160009054906101000a900473ffffffffffffffffffffffffffffffffffffffff166040518363ffffffff1660e01b8152600401610f839291906122f3565b602060405180830381865afa158015610fa0573d6000803e3d6000fd5b505050506040513d601f19601f82011682018060405250810190610fc491906121de565b10156110ae57602060009054906101000a900473ffffffffffffffffffffffffffffffffffffffff1673ffffffffffffffffffffffffffffffffffffffff1663095ea7b3602160009054906101000a900473ffffffffffffffffffffffffffffffffffffffff167fffffffffffffffffffffffffffffffffffffffffffffffffffffffffffffffff6040518363ffffffff1660e01b81526004016110699291906120c8565b6020604051808303816000875af1158015611088573d6000803e3d6000fd5b505050506040513d601f19601f820116820180604052508101906110ac9190612354565b505b602160009054906101000a900473ffffffffffffffffffffffffffffffffffffffff1673ffffffffffffffffffffffffffffffffffffffff1663a3a7954834602060009054906101000a900473ffffffffffffffffffffffffffffffffffffffff1660008054906101000a900473ffffffffffffffffffffffffffffffffffffffff1673ffffffffffffffffffffffffffffffffffffffff1663a2be57ad6040518163ffffffff1660e01b8152600401602060405180830381865afa15801561117b573d6000803e3d6000fd5b505050506040513d601f19601f8201168201806040525081019061119f919061209b565b8560006040518663ffffffff1660e01b81526004016111c19493929190612403565b6000604051808303818588803b1580156111da57600080fd5b505af11580156111ee573d6000803e3d6000fd5b50505050507f63d055acece0ee34be8519ce7bbed8c78507ab47ed5896dee842a6bae30ec978816040516112229190612003565b60405180910390a150565b670de0b6b3a764000081565b602060009054906101000a900473ffffffffffffffffffffffffffffffffffffffff1681565b620f424081565b602160009054906101000a900473ffffffffffffffffffffffffffffffffffffffff1681565b611294611695565b602260009054906101000a900473ffffffffffffffffffffffffffffffffffffffff1673ffffffffffffffffffffffffffffffffffffffff166112d56116ec565b73ffffffffffffffffffffffffffffffffffffffff161461132b576040517f08c379a0000000000000000000000000000000000000000000000000000000008152600401611322906124cd565b60405180910390fd5b60008054906101000a900473ffffffffffffffffffffffffffffffffffffffff1673ffffffffffffffffffffffffffffffffffffffff1663a2be57ad6040518163ffffffff1660e01b8152600401602060405180830381865afa158015611396573d6000803e3d6000fd5b505050506040513d601f19601f820116820180604052508101906113ba919061209b565b73ffffffffffffffffffffffffffffffffffffffff16602260009054906101000a900473ffffffffffffffffffffffffffffffffffffffff1673ffffffffffffffffffffffffffffffffffffffff16636e296e456040518163ffffffff1660e01b8152600401602060405180830381865afa15801561143d573d6000803e3d6000fd5b505050506040513d601f19601f82011682018060405250810190611461919061209b565b73ffffffffffffffffffffffffffffffffffffffff16146114b7576040517f08c379a00000000000000000000000000000000000000000000000000000000081526004016114ae9061255f565b60405180910390fd5b60008054906101000a900473ffffffffffffffffffffffffffffffffffffffff1673ffffffffffffffffffffffffffffffffffffffff16639336ce806040518163ffffffff1660e01b8152600401602060405180830381865afa158015611522573d6000803e3d6000fd5b505050506040513d601f19601f82011682018060405250810190611546919061209b565b73ffffffffffffffffffffffffffffffffffffffff166340c10f1960008054906101000a900473ffffffffffffffffffffffffffffffffffffffff1673ffffffffffffffffffffffffffffffffffffffff1663219519556040518163ffffffff1660e01b8152600401602060405180830381865afa1580156115cc573d6000803e3d6000fd5b505050506040513d601f19601f820116820180604052508101906115f0919061209b565b836040518363ffffffff1660e01b815260040161160e9291906120c8565b600060405180830381600087803b15801561162857600080fd5b505af115801561163c573d6000803e3d6000fd5b50505050611648611776565b50565b7ff66846415d2bf9eabda9e84793ff9c0ea96d87f50fc41e66aa16469c6a442f0581565b602260009054906101000a900473ffffffffffffffffffffffffffffffffffffffff1681565b600061169f6118a5565b905060028160000154036116df576040517f3ee5aeb500000000000000000000000000000000000000000000000000000000815260040160405180910390fd5b6002816000018190555050565b600033905090565b611770848573ffffffffffffffffffffffffffffffffffffffff166323b872dd8686866040516024016117299392919061257f565b604051602081830303815290604052915060e01b6020820180517bffffffffffffffffffffffffffffffffffffffffffffffffffffffff83818316178352505050506118cd565b50505050565b60006117806118a5565b90506001816000018190555050565b611809838473ffffffffffffffffffffffffffffffffffffffff1663a9059cbb85856040516024016117c29291906120c8565b604051602081830303815290604052915060e01b6020820180517bffffffffffffffffffffffffffffffffffffffffffffffffffffffff83818316178352505050506118cd565b505050565b60007ff0c57e16840df040f15088dc2f81fe391c3923bec73e23a9662efc9c229c6a00905090565b61183e61196f565b806000806101000a81548173ffffffffffffffffffffffffffffffffffffffff021916908373ffffffffffffffffffffffffffffffffffffffff1602179055506118866119af565b61188e6119c1565b50565b6118a28161189d6116ec565b6119cb565b50565b60007f9b779b17422d0df92223018b32b4d1fa46e071723d6817e2486d003becc55f00905090565b600080602060008451602086016000885af1806118f0576040513d6000823e3d81fd5b3d92506000519150506000821461190b576001811415611927565b60008473ffffffffffffffffffffffffffffffffffffffff163b145b1561196957836040517f5274afe7000000000000000000000000000000000000000000000000000000008152600401611960919061202d565b60405180910390fd5b50505050565b611977611ae2565b6119ad576040517fd7e6bcf800000000000000000000000000000000000000000000000000000000815260040160405180910390fd5b565b6119b761196f565b6119bf611b02565b565b6119c961196f565b565b60008054906101000a900473ffffffffffffffffffffffffffffffffffffffff1673ffffffffffffffffffffffffffffffffffffffff166391d1485483836040518363ffffffff1660e01b8152600401611a269291906125b6565b602060405180830381865afa158015611a43573d6000803e3d6000fd5b505050506040513d601f19601f82011682018060405250810190611a679190612354565b611ade57611a7481611b23565b611a828360001c6020611b50565b604051602001611a939291906126e8565b6040516020818303038152906040526040517f08c379a0000000000000000000000000000000000000000000000000000000008152600401611ad5919061276c565b60405180910390fd5b5050565b6000611aec61180e565b60000160089054906101000a900460ff16905090565b611b0a61196f565b6000611b146118a5565b90506001816000018190555050565b6060611b498273ffffffffffffffffffffffffffffffffffffffff16601460ff16611b50565b9050919050565b6060600083905060006002846002611b6891906127bd565b611b7291906127ff565b67ffffffffffffffff811115611b8b57611b8a612833565b5b6040519080825280601f01601f191660200182016040528015611bbd5781602001600182028036833780820191505090505b5090507f300000000000000000000000000000000000000000000000000000000000000081600081518110611bf557611bf4612862565b5b60200101907effffffffffffffffffffffffffffffffffffffffffffffffffffffffffffff1916908160001a9053507f780000000000000000000000000000000000000000000000000000000000000081600181518110611c5957611c58612862565b5b60200101907effffffffffffffffffffffffffffffffffffffffffffffffffffffffffffff1916908160001a90535060006001856002611c9991906127bd565b611ca391906127ff565b90505b6001811115611d43577f3031323334353637383961626364656600000000000000000000000000000000600f841660108110611ce557611ce4612862565b5b1a60f81b828281518110611cfc57611cfb612862565b5b60200101907effffffffffffffffffffffffffffffffffffffffffffffffffffffffffffff1916908160001a905350600483901c925080611d3c90612891565b9050611ca6565b5060008214611d8b5784846040517fe22e27eb000000000000000000000000000000000000000000000000000000008152600401611d829291906128ba565b60405180910390fd5b809250505092915050565b600082825260208201905092915050565b7f426173653a206e6f7420737570706f7274204d65746973207472616e73666572600082015250565b6000611ddd602083611d96565b9150611de882611da7565b602082019050919050565b60006020820190508181036000830152611e0c81611dd0565b9050919050565b600080fd5b600073ffffffffffffffffffffffffffffffffffffffff82169050919050565b6000611e4382611e18565b9050919050565b611e5381611e38565b8114611e5e57600080fd5b50565b600081359050611e7081611e4a565b92915050565b6000819050919050565b611e8981611e76565b8114611e9457600080fd5b50565b600081359050611ea681611e80565b92915050565b60008060408385031215611ec357611ec2611e13565b5b6000611ed185828601611e61565b9250506020611ee285828601611e97565b9150509250929050565b6000819050919050565b611eff81611eec565b82525050565b6000602082019050611f1a6000830184611ef6565b92915050565b6000819050919050565b6000611f45611f40611f3b84611e18565b611f20565b611e18565b9050919050565b6000611f5782611f2a565b9050919050565b6000611f6982611f4c565b9050919050565b611f7981611f5e565b82525050565b6000602082019050611f946000830184611f70565b92915050565b600060208284031215611fb057611faf611e13565b5b6000611fbe84828501611e97565b91505092915050565b600060208284031215611fdd57611fdc611e13565b5b6000611feb84828501611e61565b91505092915050565b611ffd81611e76565b82525050565b60006020820190506120186000830184611ff4565b92915050565b61202781611e38565b82525050565b6000602082019050612042600083018461201e565b92915050565b600067ffffffffffffffff82169050919050565b61206581612048565b82525050565b6000602082019050612080600083018461205c565b92915050565b60008151905061209581611e4a565b92915050565b6000602082840312156120b1576120b0611e13565b5b60006120bf84828501612086565b91505092915050565b60006040820190506120dd600083018561201e565b6120ea6020830184611ff4565b9392505050565b7f696e7465726e616c206f6e6c7900000000000000000000000000000000000000600082015250565b6000612127600d83611d96565b9150612132826120f1565b602082019050919050565b600060208201905081810360008301526121568161211a565b9050919050565b7f56654d657469734d696e7465723a20616d6f756e74206973207a65726f000000600082015250565b6000612193601d83611d96565b915061219e8261215d565b602082019050919050565b600060208201905081810360008301526121c281612186565b9050919050565b6000815190506121d881611e80565b92915050565b6000602082840312156121f4576121f3611e13565b5b6000612202848285016121c9565b91505092915050565b7f56654d657469734d696e7465723a20696e73756666696369656e742062616c6160008201527f6e63650000000000000000000000000000000000000000000000000000000000602082015250565b6000612267602383611d96565b91506122728261220b565b604082019050919050565b600060208201905081810360008301526122968161225a565b9050919050565b6000819050919050565b60006122c26122bd6122b88461229d565b611f20565b612048565b9050919050565b6122d2816122a7565b82525050565b60006020820190506122ed60008301846122c9565b92915050565b6000604082019050612308600083018561201e565b612315602083018461201e565b9392505050565b60008115159050919050565b6123318161231c565b811461233c57600080fd5b50565b60008151905061234e81612328565b92915050565b60006020828403121561236a57612369611e13565b5b60006123788482850161233f565b91505092915050565b6000819050919050565b600063ffffffff82169050919050565b60006123b66123b16123ac84612381565b611f20565b61238b565b9050919050565b6123c68161239b565b82525050565b600082825260208201905092915050565b50565b60006123ed6000836123cc565b91506123f8826123dd565b600082019050919050565b600060a082019050612418600083018761201e565b612425602083018661201e565b6124326040830185611ff4565b61243f60608301846123bd565b8181036080830152612450816123e0565b905095945050505050565b7f56654d657469734d696e7465723a2063616c6c6572206973206e6f742074686560008201527f2063726f7373446f6d61696e4d657373656e6765720000000000000000000000602082015250565b60006124b7603583611d96565b91506124c28261245b565b604082019050919050565b600060208201905081810360008301526124e6816124aa565b9050919050565b7f56654d657469734d696e7465723a2063616c6c6572206973206e6f742074686560008201527f206c314465616c65720000000000000000000000000000000000000000000000602082015250565b6000612549602983611d96565b9150612554826124ed565b604082019050919050565b600060208201905081810360008301526125788161253c565b9050919050565b6000606082019050612594600083018661201e565b6125a1602083018561201e565b6125ae6040830184611ff4565b949350505050565b60006040820190506125cb6000830185611ef6565b6125d8602083018461201e565b9392505050565b600081905092915050565b7f416363657373436f6e74726f6c3a206163636f756e7420000000000000000000600082015250565b60006126206017836125df565b915061262b826125ea565b601782019050919050565b600081519050919050565b60005b8381101561265f578082015181840152602081019050612644565b60008484015250505050565b600061267682612636565b61268081856125df565b9350612690818560208601612641565b80840191505092915050565b7f206973206d697373696e6720726f6c6520000000000000000000000000000000600082015250565b60006126d26011836125df565b91506126dd8261269c565b601182019050919050565b60006126f382612613565b91506126ff828561266b565b915061270a826126c5565b9150612716828461266b565b91508190509392505050565b6000601f19601f8301169050919050565b600061273e82612636565b6127488185611d96565b9350612758818560208601612641565b61276181612722565b840191505092915050565b600060208201905081810360008301526127868184612733565b905092915050565b7f4e487b7100000000000000000000000000000000000000000000000000000000600052601160045260246000fd5b60006127c882611e76565b91506127d383611e76565b92508282026127e181611e76565b915082820484148315176127f8576127f761278e565b5b5092915050565b600061280a82611e76565b915061281583611e76565b925082820190508082111561282d5761282c61278e565b5b92915050565b7f4e487b7100000000000000000000000000000000000000000000000000000000600052604160045260246000fd5b7f4e487b7100000000000000000000000000000000000000000000000000000000600052603260045260246000fd5b600061289c82611e76565b9150600082036128af576128ae61278e565b5b600182039050919050565b60006040820190506128cf6000830185611ff4565b6128dc6020830184611ff4565b939250505056fea2646970667358221220d297c893ae9f515f1d6e8b6c4b561e3c0c8d0a064815ad53ed229f3df69a51db64736f6c63430008140033",
  "linkReferences": {},
  "deployedLinkReferences": {}
}