{
  "_format": "hh-sol-artifact-1",
  "contractName": "VeMetisMinter",
  "sourceName": "contracts/VeMetisMinter.sol",
  "abi": [
    {
      "inputs": [],
      "name": "InvalidInitialization",
      "type": "error"
    },
    {
      "inputs": [],
      "name": "NotInitializing",
      "type": "error"
    },
    {
      "inputs": [],
      "name": "ReentrancyGuardReentrantCall",
      "type": "error"
    },
    {
      "inputs": [
        {
          "internalType": "address",
          "name": "token",
          "type": "address"
        }
      ],
      "name": "SafeERC20FailedOperation",
      "type": "error"
    },
    {
      "inputs": [
        {
          "internalType": "uint256",
          "name": "value",
          "type": "uint256"
        },
        {
          "internalType": "uint256",
          "name": "length",
          "type": "uint256"
        }
      ],
      "name": "StringsInsufficientHexLength",
      "type": "error"
    },
    {
      "anonymous": false,
      "inputs": [
        {
          "indexed": false,
          "internalType": "uint256",
          "name": "amount",
          "type": "uint256"
        }
      ],
      "name": "DepositToL1Dealer",
      "type": "event"
    },
    {
      "anonymous": false,
      "inputs": [
        {
          "indexed": false,
          "internalType": "uint64",
          "name": "version",
          "type": "uint64"
        }
      ],
      "name": "Initialized",
      "type": "event"
    },
    {
      "anonymous": false,
      "inputs": [
        {
          "indexed": true,
          "internalType": "address",
          "name": "account",
          "type": "address"
        },
        {
          "indexed": false,
          "internalType": "uint256",
          "name": "amount",
          "type": "uint256"
        }
      ],
      "name": "Minted",
      "type": "event"
    },
    {
      "inputs": [],
      "name": "ADMIN_ROLE",
      "outputs": [
        {
          "internalType": "bytes32",
          "name": "",
          "type": "bytes32"
        }
      ],
      "stateMutability": "view",
      "type": "function"
    },
    {
      "inputs": [],
      "name": "BACKEND_ROLE",
      "outputs": [
        {
          "internalType": "bytes32",
          "name": "",
          "type": "bytes32"
        }
      ],
      "stateMutability": "view",
      "type": "function"
    },
    {
      "inputs": [],
      "name": "DEFAULT_ADMIN_ROLE",
      "outputs": [
        {
          "internalType": "bytes32",
          "name": "",
          "type": "bytes32"
        }
      ],
      "stateMutability": "view",
      "type": "function"
    },
    {
      "inputs": [],
      "name": "FEE_PRECISION",
      "outputs": [
        {
          "internalType": "uint64",
          "name": "",
          "type": "uint64"
        }
      ],
      "stateMutability": "view",
      "type": "function"
    },
    {
      "inputs": [],
      "name": "INITIAL_DEPOSIT_AMOUNT",
      "outputs": [
        {
          "internalType": "uint256",
          "name": "",
          "type": "uint256"
        }
      ],
      "stateMutability": "view",
      "type": "function"
    },
    {
      "inputs": [],
      "name": "TIMELOCK_ROLE",
      "outputs": [
        {
          "internalType": "bytes32",
          "name": "",
          "type": "bytes32"
        }
      ],
      "stateMutability": "view",
      "type": "function"
    },
    {
      "inputs": [],
      "name": "bridge",
      "outputs": [
        {
          "internalType": "address",
          "name": "",
          "type": "address"
        }
      ],
      "stateMutability": "view",
      "type": "function"
    },
    {
      "inputs": [],
      "name": "config",
      "outputs": [
        {
          "internalType": "contract IConfig",
          "name": "",
          "type": "address"
        }
      ],
      "stateMutability": "view",
      "type": "function"
    },
    {
      "inputs": [],
      "name": "crossDomainMessenger",
      "outputs": [
        {
          "internalType": "address",
          "name": "",
          "type": "address"
        }
      ],
      "stateMutability": "view",
      "type": "function"
    },
    {
      "inputs": [
        {
          "internalType": "uint256",
          "name": "amount",
          "type": "uint256"
        }
      ],
      "name": "depositToL1Dealer",
      "outputs": [],
      "stateMutability": "payable",
      "type": "function"
    },
    {
      "inputs": [
        {
          "internalType": "uint256",
          "name": "amount",
          "type": "uint256"
        }
      ],
      "name": "depositToRedemptionQueue",
      "outputs": [],
      "stateMutability": "payable",
      "type": "function"
    },
    {
      "inputs": [],
      "name": "getVeMetisMinterAddress",
      "outputs": [
        {
          "internalType": "address",
          "name": "",
          "type": "address"
        }
      ],
      "stateMutability": "view",
      "type": "function"
    },
    {
      "inputs": [
        {
          "internalType": "address",
          "name": "_config",
          "type": "address"
        }
      ],
      "name": "initialize",
      "outputs": [],
      "stateMutability": "nonpayable",
      "type": "function"
    },
    {
      "inputs": [],
      "name": "metis",
      "outputs": [
        {
          "internalType": "address",
          "name": "",
          "type": "address"
        }
      ],
      "stateMutability": "view",
      "type": "function"
    },
    {
      "inputs": [
        {
          "internalType": "address",
          "name": "account",
          "type": "address"
        },
        {
          "internalType": "uint256",
          "name": "amount",
          "type": "uint256"
        }
      ],
      "name": "mint",
      "outputs": [],
      "stateMutability": "nonpayable",
      "type": "function"
    },
    {
      "inputs": [
        {
          "internalType": "uint256",
          "name": "amount",
          "type": "uint256"
        }
      ],
      "name": "mintFromL1",
      "outputs": [],
      "stateMutability": "nonpayable",
      "type": "function"
    },
    {
      "inputs": [
        {
          "internalType": "uint256",
          "name": "amount",
          "type": "uint256"
        }
      ],
      "name": "redeemToTreasury",
      "outputs": [],
      "stateMutability": "nonpayable",
      "type": "function"
    },
    {
      "stateMutability": "payable",
      "type": "receive"
    }
  ],
  "bytecode": "0x608060405234801561001057600080fd5b50612ac8806100206000396000f3fe6080604052600436106101025760003560e01c8063ce40eb3011610095578063e78cea9211610064578063e78cea9214610327578063eb82afb314610352578063ed0b136f1461037b578063f288a2e2146103a6578063f43b3613146103d157610142565b8063ce40eb301461028a578063e52083c6146102a6578063e5974554146102d1578063e63a391f146102fc57610142565b806392c2becc116100d157806392c2becc146101e2578063a217fddf1461020d578063bdb6a62214610238578063c4d66de81461026157610142565b806328c9edcd1461014757806340c10f191461016357806375b238fc1461018c57806379502c55146101b757610142565b36610142576040517f08c379a000000000000000000000000000000000000000000000000000000000815260040161013990611fa2565b60405180910390fd5b600080fd5b610161600480360381019061015c9190611ffd565b6103fc565b005b34801561016f57600080fd5b5061018a60048036038101906101859190612088565b610546565b005b34801561019857600080fd5b506101a1610700565b6040516101ae91906120e1565b60405180910390f35b3480156101c357600080fd5b506101cc610724565b6040516101d9919061215b565b60405180910390f35b3480156101ee57600080fd5b506101f7610748565b60405161020491906120e1565b60405180910390f35b34801561021957600080fd5b5061022261076c565b60405161022f91906120e1565b60405180910390f35b34801561024457600080fd5b5061025f600480360381019061025a9190611ffd565b610773565b005b34801561026d57600080fd5b5061028860048036038101906102839190612176565b610c83565b005b6102a4600480360381019061029f9190611ffd565b611081565b005b3480156102b257600080fd5b506102bb6113d4565b6040516102c891906121b2565b60405180910390f35b3480156102dd57600080fd5b506102e66113e0565b6040516102f391906121dc565b60405180910390f35b34801561030857600080fd5b50610311611406565b60405161031e919061221a565b60405180910390f35b34801561033357600080fd5b5061033c61140d565b60405161034991906121dc565b60405180910390f35b34801561035e57600080fd5b5061037960048036038101906103749190611ffd565b611433565b005b34801561038757600080fd5b506103906117f2565b60405161039d91906121dc565b60405180910390f35b3480156103b257600080fd5b506103bb6117fa565b6040516103c891906120e1565b60405180910390f35b3480156103dd57600080fd5b506103e661181e565b6040516103f391906121dc565b60405180910390f35b6104257f25cf2b509f2a7f322675b2a5322b182f44ad2c03ac941a0af17c9b178f5d5d5f611844565b60008111610468576040517f08c379a000000000000000000000000000000000000000000000000000000000815260040161045f90612281565b60405180910390fd5b61054360008054906101000a900473ffffffffffffffffffffffffffffffffffffffff1673ffffffffffffffffffffffffffffffffffffffff166397ec19be6040518163ffffffff1660e01b8152600401602060405180830381865afa1580156104d6573d6000803e3d6000fd5b505050506040513d601f19601f820116820180604052508101906104fa91906122b6565b82602060009054906101000a900473ffffffffffffffffffffffffffffffffffffffff1673ffffffffffffffffffffffffffffffffffffffff166118589092919063ffffffff16565b50565b61054e6118d7565b6105a461055961192e565b3083602060009054906101000a900473ffffffffffffffffffffffffffffffffffffffff1673ffffffffffffffffffffffffffffffffffffffff16611936909392919063ffffffff16565b60008054906101000a900473ffffffffffffffffffffffffffffffffffffffff1673ffffffffffffffffffffffffffffffffffffffff16639336ce806040518163ffffffff1660e01b8152600401602060405180830381865afa15801561060f573d6000803e3d6000fd5b505050506040513d601f19601f8201168201806040525081019061063391906122b6565b73ffffffffffffffffffffffffffffffffffffffff166340c10f1983836040518363ffffffff1660e01b815260040161066d9291906122e3565b600060405180830381600087803b15801561068757600080fd5b505af115801561069b573d6000803e3d6000fd5b505050506106a761192e565b73ffffffffffffffffffffffffffffffffffffffff167f30385c845b448a36257a6a1716e6ad2e1bc2cbe333cde1e69fe849ad6511adfe826040516106ec91906121b2565b60405180910390a26106fc6119b8565b5050565b7fa49807205ce4d355092ef5a8a18f56e8913cf4a201fbe287825b095693c2177581565b60008054906101000a900473ffffffffffffffffffffffffffffffffffffffff1681565b7f25cf2b509f2a7f322675b2a5322b182f44ad2c03ac941a0af17c9b178f5d5d5f81565b6000801b81565b60008054906101000a900473ffffffffffffffffffffffffffffffffffffffff1673ffffffffffffffffffffffffffffffffffffffff1663219519556040518163ffffffff1660e01b8152600401602060405180830381865afa1580156107de573d6000803e3d6000fd5b505050506040513d601f19601f8201168201806040525081019061080291906122b6565b8073ffffffffffffffffffffffffffffffffffffffff1661082161192e565b73ffffffffffffffffffffffffffffffffffffffff1614610877576040517f08c379a000000000000000000000000000000000000000000000000000000000815260040161086e90612358565b60405180910390fd5b80600160006101000a81548173ffffffffffffffffffffffffffffffffffffffff021916908373ffffffffffffffffffffffffffffffffffffffff160217905550600082116108fb576040517f08c379a00000000000000000000000000000000000000000000000000000000081526004016108f290612281565b60405180910390fd5b81602060009054906101000a900473ffffffffffffffffffffffffffffffffffffffff1673ffffffffffffffffffffffffffffffffffffffff166370a08231306040518263ffffffff1660e01b815260040161095791906121dc565b602060405180830381865afa158015610974573d6000803e3d6000fd5b505050506040513d601f19601f82011682018060405250810190610998919061238d565b10156109d9576040517f08c379a00000000000000000000000000000000000000000000000000000000081526004016109d09061242c565b60405180910390fd5b60008054906101000a900473ffffffffffffffffffffffffffffffffffffffff1673ffffffffffffffffffffffffffffffffffffffff16639336ce806040518163ffffffff1660e01b8152600401602060405180830381865afa158015610a44573d6000803e3d6000fd5b505050506040513d601f19601f82011682018060405250810190610a6891906122b6565b73ffffffffffffffffffffffffffffffffffffffff16639dc29fac60008054906101000a900473ffffffffffffffffffffffffffffffffffffffff1673ffffffffffffffffffffffffffffffffffffffff1663219519556040518163ffffffff1660e01b8152600401602060405180830381865afa158015610aee573d6000803e3d6000fd5b505050506040513d601f19601f82011682018060405250810190610b1291906122b6565b846040518363ffffffff1660e01b8152600401610b309291906122e3565b600060405180830381600087803b158015610b4a57600080fd5b505af1158015610b5e573d6000803e3d6000fd5b50505050610c3d60008054906101000a900473ffffffffffffffffffffffffffffffffffffffff1673ffffffffffffffffffffffffffffffffffffffff1663803db96d6040518163ffffffff1660e01b8152600401602060405180830381865afa158015610bd0573d6000803e3d6000fd5b505050506040513d601f19601f82011682018060405250810190610bf491906122b6565b83602060009054906101000a900473ffffffffffffffffffffffffffffffffffffffff1673ffffffffffffffffffffffffffffffffffffffff166118589092919063ffffffff16565b6000600160006101000a81548173ffffffffffffffffffffffffffffffffffffffff021916908373ffffffffffffffffffffffffffffffffffffffff1602179055505050565b6000610c8d6119d1565b905060008160000160089054906101000a900460ff1615905060008260000160009054906101000a900467ffffffffffffffff1690506000808267ffffffffffffffff16148015610cdb5750825b9050600060018367ffffffffffffffff16148015610d10575060003073ffffffffffffffffffffffffffffffffffffffff163b145b905081158015610d1e575080155b15610d55576040517ff92ee8a900000000000000000000000000000000000000000000000000000000815260040160405180910390fd5b60018560000160006101000a81548167ffffffffffffffff021916908367ffffffffffffffff1602179055508315610da55760018560000160086101000a81548160ff0219169083151502179055505b610dae866119f9565b60008054906101000a900473ffffffffffffffffffffffffffffffffffffffff1673ffffffffffffffffffffffffffffffffffffffff1663e59745546040518163ffffffff1660e01b8152600401602060405180830381865afa158015610e19573d6000803e3d6000fd5b505050506040513d601f19601f82011682018060405250810190610e3d91906122b6565b602060006101000a81548173ffffffffffffffffffffffffffffffffffffffff021916908373ffffffffffffffffffffffffffffffffffffffff16021790555060008054906101000a900473ffffffffffffffffffffffffffffffffffffffff1673ffffffffffffffffffffffffffffffffffffffff1663e78cea926040518163ffffffff1660e01b8152600401602060405180830381865afa158015610ee8573d6000803e3d6000fd5b505050506040513d601f19601f82011682018060405250810190610f0c91906122b6565b602160006101000a81548173ffffffffffffffffffffffffffffffffffffffff021916908373ffffffffffffffffffffffffffffffffffffffff160217905550602160009054906101000a900473ffffffffffffffffffffffffffffffffffffffff1673ffffffffffffffffffffffffffffffffffffffff16633cb747bf6040518163ffffffff1660e01b8152600401602060405180830381865afa158015610fb9573d6000803e3d6000fd5b505050506040513d601f19601f82011682018060405250810190610fdd91906122b6565b602260006101000a81548173ffffffffffffffffffffffffffffffffffffffff021916908373ffffffffffffffffffffffffffffffffffffffff16021790555083156110795760008560000160086101000a81548160ff0219169083151502179055507fc7f505b2f371ae2175ee4913f4499e1f2633a7b5936321eed1cdaeb6115181d260016040516110709190612487565b60405180910390a15b505050505050565b6110aa7f25cf2b509f2a7f322675b2a5322b182f44ad2c03ac941a0af17c9b178f5d5d5f611844565b80602060009054906101000a900473ffffffffffffffffffffffffffffffffffffffff1673ffffffffffffffffffffffffffffffffffffffff1663dd62ed3e30602160009054906101000a900473ffffffffffffffffffffffffffffffffffffffff166040518363ffffffff1660e01b815260040161112a9291906124a2565b602060405180830381865afa158015611147573d6000803e3d6000fd5b505050506040513d601f19601f8201168201806040525081019061116b919061238d565b101561125557602060009054906101000a900473ffffffffffffffffffffffffffffffffffffffff1673ffffffffffffffffffffffffffffffffffffffff1663095ea7b3602160009054906101000a900473ffffffffffffffffffffffffffffffffffffffff167fffffffffffffffffffffffffffffffffffffffffffffffffffffffffffffffff6040518363ffffffff1660e01b81526004016112109291906122e3565b6020604051808303816000875af115801561122f573d6000803e3d6000fd5b505050506040513d601f19601f820116820180604052508101906112539190612503565b505b602160009054906101000a900473ffffffffffffffffffffffffffffffffffffffff1673ffffffffffffffffffffffffffffffffffffffff1663a3a7954834602060009054906101000a900473ffffffffffffffffffffffffffffffffffffffff1660008054906101000a900473ffffffffffffffffffffffffffffffffffffffff1673ffffffffffffffffffffffffffffffffffffffff1663a2be57ad6040518163ffffffff1660e01b8152600401602060405180830381865afa158015611322573d6000803e3d6000fd5b505050506040513d601f19601f8201168201806040525081019061134691906122b6565b8560006040518663ffffffff1660e01b815260040161136894939291906125b2565b6000604051808303818588803b15801561138157600080fd5b505af1158015611395573d6000803e3d6000fd5b50505050507f63d055acece0ee34be8519ce7bbed8c78507ab47ed5896dee842a6bae30ec978816040516113c991906121b2565b60405180910390a150565b670de0b6b3a764000081565b602060009054906101000a900473ffffffffffffffffffffffffffffffffffffffff1681565b620f424081565b602160009054906101000a900473ffffffffffffffffffffffffffffffffffffffff1681565b61143b6118d7565b602260009054906101000a900473ffffffffffffffffffffffffffffffffffffffff1673ffffffffffffffffffffffffffffffffffffffff1661147c61192e565b73ffffffffffffffffffffffffffffffffffffffff16146114d2576040517f08c379a00000000000000000000000000000000000000000000000000000000081526004016114c99061267c565b60405180910390fd5b60008054906101000a900473ffffffffffffffffffffffffffffffffffffffff1673ffffffffffffffffffffffffffffffffffffffff1663a2be57ad6040518163ffffffff1660e01b8152600401602060405180830381865afa15801561153d573d6000803e3d6000fd5b505050506040513d601f19601f8201168201806040525081019061156191906122b6565b73ffffffffffffffffffffffffffffffffffffffff16602260009054906101000a900473ffffffffffffffffffffffffffffffffffffffff1673ffffffffffffffffffffffffffffffffffffffff16636e296e456040518163ffffffff1660e01b8152600401602060405180830381865afa1580156115e4573d6000803e3d6000fd5b505050506040513d601f19601f8201168201806040525081019061160891906122b6565b73ffffffffffffffffffffffffffffffffffffffff161461165e576040517f08c379a00000000000000000000000000000000000000000000000000000000081526004016116559061270e565b60405180910390fd5b60008054906101000a900473ffffffffffffffffffffffffffffffffffffffff1673ffffffffffffffffffffffffffffffffffffffff16639336ce806040518163ffffffff1660e01b8152600401602060405180830381865afa1580156116c9573d6000803e3d6000fd5b505050506040513d601f19601f820116820180604052508101906116ed91906122b6565b73ffffffffffffffffffffffffffffffffffffffff166340c10f1960008054906101000a900473ffffffffffffffffffffffffffffffffffffffff1673ffffffffffffffffffffffffffffffffffffffff1663219519556040518163ffffffff1660e01b8152600401602060405180830381865afa158015611773573d6000803e3d6000fd5b505050506040513d601f19601f8201168201806040525081019061179791906122b6565b836040518363ffffffff1660e01b81526004016117b59291906122e3565b600060405180830381600087803b1580156117cf57600080fd5b505af11580156117e3573d6000803e3d6000fd5b505050506117ef6119b8565b50565b600030905090565b7ff66846415d2bf9eabda9e84793ff9c0ea96d87f50fc41e66aa16469c6a442f0581565b602260009054906101000a900473ffffffffffffffffffffffffffffffffffffffff1681565b6118558161185061192e565b611a54565b50565b6118d2838473ffffffffffffffffffffffffffffffffffffffff1663a9059cbb858560405160240161188b9291906122e3565b604051602081830303815290604052915060e01b6020820180517bffffffffffffffffffffffffffffffffffffffffffffffffffffffff8381831617835250505050611b6b565b505050565b60006118e1611c0d565b90506002816000015403611921576040517f3ee5aeb500000000000000000000000000000000000000000000000000000000815260040160405180910390fd5b6002816000018190555050565b600033905090565b6119b2848573ffffffffffffffffffffffffffffffffffffffff166323b872dd86868660405160240161196b9392919061272e565b604051602081830303815290604052915060e01b6020820180517bffffffffffffffffffffffffffffffffffffffffffffffffffffffff8381831617835250505050611b6b565b50505050565b60006119c2611c0d565b90506001816000018190555050565b60007ff0c57e16840df040f15088dc2f81fe391c3923bec73e23a9662efc9c229c6a00905090565b611a01611c35565b806000806101000a81548173ffffffffffffffffffffffffffffffffffffffff021916908373ffffffffffffffffffffffffffffffffffffffff160217905550611a49611c75565b611a51611c87565b50565b60008054906101000a900473ffffffffffffffffffffffffffffffffffffffff1673ffffffffffffffffffffffffffffffffffffffff166391d1485483836040518363ffffffff1660e01b8152600401611aaf929190612765565b602060405180830381865afa158015611acc573d6000803e3d6000fd5b505050506040513d601f19601f82011682018060405250810190611af09190612503565b611b6757611afd81611c91565b611b0b8360001c6020611cbe565b604051602001611b1c929190612897565b6040516020818303038152906040526040517f08c379a0000000000000000000000000000000000000000000000000000000008152600401611b5e919061291b565b60405180910390fd5b5050565b600080602060008451602086016000885af180611b8e576040513d6000823e3d81fd5b3d925060005191505060008214611ba9576001811415611bc5565b60008473ffffffffffffffffffffffffffffffffffffffff163b145b15611c0757836040517f5274afe7000000000000000000000000000000000000000000000000000000008152600401611bfe91906121dc565b60405180910390fd5b50505050565b60007f9b779b17422d0df92223018b32b4d1fa46e071723d6817e2486d003becc55f00905090565b611c3d611f04565b611c73576040517fd7e6bcf800000000000000000000000000000000000000000000000000000000815260040160405180910390fd5b565b611c7d611c35565b611c85611f24565b565b611c8f611c35565b565b6060611cb78273ffffffffffffffffffffffffffffffffffffffff16601460ff16611cbe565b9050919050565b6060600083905060006002846002611cd6919061296c565b611ce091906129ae565b67ffffffffffffffff811115611cf957611cf86129e2565b5b6040519080825280601f01601f191660200182016040528015611d2b5781602001600182028036833780820191505090505b5090507f300000000000000000000000000000000000000000000000000000000000000081600081518110611d6357611d62612a11565b5b60200101907effffffffffffffffffffffffffffffffffffffffffffffffffffffffffffff1916908160001a9053507f780000000000000000000000000000000000000000000000000000000000000081600181518110611dc757611dc6612a11565b5b60200101907effffffffffffffffffffffffffffffffffffffffffffffffffffffffffffff1916908160001a90535060006001856002611e07919061296c565b611e1191906129ae565b90505b6001811115611eb1577f3031323334353637383961626364656600000000000000000000000000000000600f841660108110611e5357611e52612a11565b5b1a60f81b828281518110611e6a57611e69612a11565b5b60200101907effffffffffffffffffffffffffffffffffffffffffffffffffffffffffffff1916908160001a905350600483901c925080611eaa90612a40565b9050611e14565b5060008214611ef95784846040517fe22e27eb000000000000000000000000000000000000000000000000000000008152600401611ef0929190612a69565b60405180910390fd5b809250505092915050565b6000611f0e6119d1565b60000160089054906101000a900460ff16905090565b611f2c611c35565b6000611f36611c0d565b90506001816000018190555050565b600082825260208201905092915050565b7f426173653a206e6f7420737570706f7274204d65746973207472616e73666572600082015250565b6000611f8c602083611f45565b9150611f9782611f56565b602082019050919050565b60006020820190508181036000830152611fbb81611f7f565b9050919050565b600080fd5b6000819050919050565b611fda81611fc7565b8114611fe557600080fd5b50565b600081359050611ff781611fd1565b92915050565b60006020828403121561201357612012611fc2565b5b600061202184828501611fe8565b91505092915050565b600073ffffffffffffffffffffffffffffffffffffffff82169050919050565b60006120558261202a565b9050919050565b6120658161204a565b811461207057600080fd5b50565b6000813590506120828161205c565b92915050565b6000806040838503121561209f5761209e611fc2565b5b60006120ad85828601612073565b92505060206120be85828601611fe8565b9150509250929050565b6000819050919050565b6120db816120c8565b82525050565b60006020820190506120f660008301846120d2565b92915050565b6000819050919050565b600061212161211c6121178461202a565b6120fc565b61202a565b9050919050565b600061213382612106565b9050919050565b600061214582612128565b9050919050565b6121558161213a565b82525050565b6000602082019050612170600083018461214c565b92915050565b60006020828403121561218c5761218b611fc2565b5b600061219a84828501612073565b91505092915050565b6121ac81611fc7565b82525050565b60006020820190506121c760008301846121a3565b92915050565b6121d68161204a565b82525050565b60006020820190506121f160008301846121cd565b92915050565b600067ffffffffffffffff82169050919050565b612214816121f7565b82525050565b600060208201905061222f600083018461220b565b92915050565b7f56654d657469734d696e7465723a20616d6f756e74206973207a65726f000000600082015250565b600061226b601d83611f45565b915061227682612235565b602082019050919050565b6000602082019050818103600083015261229a8161225e565b9050919050565b6000815190506122b08161205c565b92915050565b6000602082840312156122cc576122cb611fc2565b5b60006122da848285016122a1565b91505092915050565b60006040820190506122f860008301856121cd565b61230560208301846121a3565b9392505050565b7f696e7465726e616c206f6e6c7900000000000000000000000000000000000000600082015250565b6000612342600d83611f45565b915061234d8261230c565b602082019050919050565b6000602082019050818103600083015261237181612335565b9050919050565b60008151905061238781611fd1565b92915050565b6000602082840312156123a3576123a2611fc2565b5b60006123b184828501612378565b91505092915050565b7f56654d657469734d696e7465723a20696e73756666696369656e742062616c6160008201527f6e63650000000000000000000000000000000000000000000000000000000000602082015250565b6000612416602383611f45565b9150612421826123ba565b604082019050919050565b6000602082019050818103600083015261244581612409565b9050919050565b6000819050919050565b600061247161246c6124678461244c565b6120fc565b6121f7565b9050919050565b61248181612456565b82525050565b600060208201905061249c6000830184612478565b92915050565b60006040820190506124b760008301856121cd565b6124c460208301846121cd565b9392505050565b60008115159050919050565b6124e0816124cb565b81146124eb57600080fd5b50565b6000815190506124fd816124d7565b92915050565b60006020828403121561251957612518611fc2565b5b6000612527848285016124ee565b91505092915050565b6000819050919050565b600063ffffffff82169050919050565b600061256561256061255b84612530565b6120fc565b61253a565b9050919050565b6125758161254a565b82525050565b600082825260208201905092915050565b50565b600061259c60008361257b565b91506125a78261258c565b600082019050919050565b600060a0820190506125c760008301876121cd565b6125d460208301866121cd565b6125e160408301856121a3565b6125ee606083018461256c565b81810360808301526125ff8161258f565b905095945050505050565b7f56654d657469734d696e7465723a2063616c6c6572206973206e6f742074686560008201527f2063726f7373446f6d61696e4d657373656e6765720000000000000000000000602082015250565b6000612666603583611f45565b91506126718261260a565b604082019050919050565b6000602082019050818103600083015261269581612659565b9050919050565b7f56654d657469734d696e7465723a2063616c6c6572206973206e6f742074686560008201527f206c314465616c65720000000000000000000000000000000000000000000000602082015250565b60006126f8602983611f45565b91506127038261269c565b604082019050919050565b60006020820190508181036000830152612727816126eb565b9050919050565b600060608201905061274360008301866121cd565b61275060208301856121cd565b61275d60408301846121a3565b949350505050565b600060408201905061277a60008301856120d2565b61278760208301846121cd565b9392505050565b600081905092915050565b7f416363657373436f6e74726f6c3a206163636f756e7420000000000000000000600082015250565b60006127cf60178361278e565b91506127da82612799565b601782019050919050565b600081519050919050565b60005b8381101561280e5780820151818401526020810190506127f3565b60008484015250505050565b6000612825826127e5565b61282f818561278e565b935061283f8185602086016127f0565b80840191505092915050565b7f206973206d697373696e6720726f6c6520000000000000000000000000000000600082015250565b600061288160118361278e565b915061288c8261284b565b601182019050919050565b60006128a2826127c2565b91506128ae828561281a565b91506128b982612874565b91506128c5828461281a565b91508190509392505050565b6000601f19601f8301169050919050565b60006128ed826127e5565b6128f78185611f45565b93506129078185602086016127f0565b612910816128d1565b840191505092915050565b6000602082019050818103600083015261293581846128e2565b905092915050565b7f4e487b7100000000000000000000000000000000000000000000000000000000600052601160045260246000fd5b600061297782611fc7565b915061298283611fc7565b925082820261299081611fc7565b915082820484148315176129a7576129a661293d565b5b5092915050565b60006129b982611fc7565b91506129c483611fc7565b92508282019050808211156129dc576129db61293d565b5b92915050565b7f4e487b7100000000000000000000000000000000000000000000000000000000600052604160045260246000fd5b7f4e487b7100000000000000000000000000000000000000000000000000000000600052603260045260246000fd5b6000612a4b82611fc7565b915060008203612a5e57612a5d61293d565b5b600182039050919050565b6000604082019050612a7e60008301856121a3565b612a8b60208301846121a3565b939250505056fea2646970667358221220c16313877188fa87674718300a096c445b464d82211c93d32c862b070285617464736f6c63430008140033",
  "linkReferences": {},
  "deployedLinkReferences": {}
}