{
  "_format": "hh-sol-artifact-1",
  "contractName": "VeMetisMinter",
  "sourceName": "contracts/VeMetisMinter.sol",
  "abi": [
    {
      "inputs": [],
      "name": "InvalidInitialization",
      "type": "error"
    },
    {
      "inputs": [],
      "name": "NotInitializing",
      "type": "error"
    },
    {
      "inputs": [],
      "name": "ReentrancyGuardReentrantCall",
      "type": "error"
    },
    {
      "inputs": [
        {
          "internalType": "address",
          "name": "token",
          "type": "address"
        }
      ],
      "name": "SafeERC20FailedOperation",
      "type": "error"
    },
    {
      "inputs": [
        {
          "internalType": "uint256",
          "name": "value",
          "type": "uint256"
        },
        {
          "internalType": "uint256",
          "name": "length",
          "type": "uint256"
        }
      ],
      "name": "StringsInsufficientHexLength",
      "type": "error"
    },
    {
      "anonymous": false,
      "inputs": [
        {
          "indexed": false,
          "internalType": "uint256",
          "name": "amount",
          "type": "uint256"
        }
      ],
      "name": "DepositToL1Dealer",
      "type": "event"
    },
    {
      "anonymous": false,
      "inputs": [
        {
          "indexed": false,
          "internalType": "uint64",
          "name": "version",
          "type": "uint64"
        }
      ],
      "name": "Initialized",
      "type": "event"
    },
    {
      "anonymous": false,
      "inputs": [
        {
          "indexed": true,
          "internalType": "address",
          "name": "account",
          "type": "address"
        },
        {
          "indexed": false,
          "internalType": "uint256",
          "name": "amount",
          "type": "uint256"
        }
      ],
      "name": "Minted",
      "type": "event"
    },
    {
      "inputs": [],
      "name": "ADMIN_ROLE",
      "outputs": [
        {
          "internalType": "bytes32",
          "name": "",
          "type": "bytes32"
        }
      ],
      "stateMutability": "view",
      "type": "function"
    },
    {
      "inputs": [],
      "name": "BACKEND_ROLE",
      "outputs": [
        {
          "internalType": "bytes32",
          "name": "",
          "type": "bytes32"
        }
      ],
      "stateMutability": "view",
      "type": "function"
    },
    {
      "inputs": [],
      "name": "DEFAULT_ADMIN_ROLE",
      "outputs": [
        {
          "internalType": "bytes32",
          "name": "",
          "type": "bytes32"
        }
      ],
      "stateMutability": "view",
      "type": "function"
    },
    {
      "inputs": [],
      "name": "FEE_PRECISION",
      "outputs": [
        {
          "internalType": "uint64",
          "name": "",
          "type": "uint64"
        }
      ],
      "stateMutability": "view",
      "type": "function"
    },
    {
      "inputs": [],
      "name": "INITIAL_DEPOSIT_AMOUNT",
      "outputs": [
        {
          "internalType": "uint256",
          "name": "",
          "type": "uint256"
        }
      ],
      "stateMutability": "view",
      "type": "function"
    },
    {
      "inputs": [],
      "name": "TIMELOCK_ROLE",
      "outputs": [
        {
          "internalType": "bytes32",
          "name": "",
          "type": "bytes32"
        }
      ],
      "stateMutability": "view",
      "type": "function"
    },
    {
      "inputs": [],
      "name": "bridge",
      "outputs": [
        {
          "internalType": "address",
          "name": "",
          "type": "address"
        }
      ],
      "stateMutability": "view",
      "type": "function"
    },
    {
      "inputs": [],
      "name": "config",
      "outputs": [
        {
          "internalType": "contract IConfig",
          "name": "",
          "type": "address"
        }
      ],
      "stateMutability": "view",
      "type": "function"
    },
    {
      "inputs": [],
      "name": "crossDomainMessenger",
      "outputs": [
        {
          "internalType": "address",
          "name": "",
          "type": "address"
        }
      ],
      "stateMutability": "view",
      "type": "function"
    },
    {
      "inputs": [
        {
          "internalType": "uint256",
          "name": "amount",
          "type": "uint256"
        }
      ],
      "name": "depositToL1Dealer",
      "outputs": [],
      "stateMutability": "payable",
      "type": "function"
    },
    {
      "inputs": [
        {
          "internalType": "address",
          "name": "_config",
          "type": "address"
        }
      ],
      "name": "initialize",
      "outputs": [],
      "stateMutability": "nonpayable",
      "type": "function"
    },
    {
      "inputs": [],
      "name": "metis",
      "outputs": [
        {
          "internalType": "address",
          "name": "",
          "type": "address"
        }
      ],
      "stateMutability": "view",
      "type": "function"
    },
    {
      "inputs": [
        {
          "internalType": "address",
          "name": "account",
          "type": "address"
        },
        {
          "internalType": "uint256",
          "name": "amount",
          "type": "uint256"
        }
      ],
      "name": "mint",
      "outputs": [],
      "stateMutability": "nonpayable",
      "type": "function"
    },
    {
      "inputs": [
        {
          "internalType": "uint256",
          "name": "amount",
          "type": "uint256"
        }
      ],
      "name": "redeemToTreasury",
      "outputs": [],
      "stateMutability": "nonpayable",
      "type": "function"
    },
    {
      "inputs": [
        {
          "internalType": "uint256",
          "name": "_amount",
          "type": "uint256"
        }
      ],
      "name": "sendMetisRewards",
      "outputs": [],
      "stateMutability": "payable",
      "type": "function"
    },
    {
      "stateMutability": "payable",
      "type": "receive"
    }
  ],
  "bytecode": "0x608060405234801561001057600080fd5b50612761806100206000396000f3fe6080604052600436106100ec5760003560e01c8063c4d66de81161008a578063e63a391f11610059578063e63a391f146102e6578063e78cea9214610311578063f288a2e21461033c578063f43b3613146103675761012c565b8063c4d66de81461024b578063ce40eb3014610274578063e52083c614610290578063e5974554146102bb5761012c565b806379502c55116100c657806379502c55146101a157806392c2becc146101cc578063a217fddf146101f7578063bdb6a622146102225761012c565b806340c10f19146101315780636d0c9d811461015a57806375b238fc146101765761012c565b3661012c576040517f08c379a000000000000000000000000000000000000000000000000000000000815260040161012390611c61565b60405180910390fd5b600080fd5b34801561013d57600080fd5b5061015860048036038101906101539190611d1a565b610392565b005b610174600480360381019061016f9190611d5a565b61054c565b005b34801561018257600080fd5b5061018b610786565b6040516101989190611da0565b60405180910390f35b3480156101ad57600080fd5b506101b66107aa565b6040516101c39190611e1a565b60405180910390f35b3480156101d857600080fd5b506101e16107ce565b6040516101ee9190611da0565b60405180910390f35b34801561020357600080fd5b5061020c6107f2565b6040516102199190611da0565b60405180910390f35b34801561022e57600080fd5b5061024960048036038101906102449190611d5a565b6107f9565b005b34801561025757600080fd5b50610272600480360381019061026d9190611e35565b610d09565b005b61028e60048036038101906102899190611d5a565b611107565b005b34801561029c57600080fd5b506102a561145a565b6040516102b29190611e71565b60405180910390f35b3480156102c757600080fd5b506102d0611466565b6040516102dd9190611e9b565b60405180910390f35b3480156102f257600080fd5b506102fb61148c565b6040516103089190611ed9565b60405180910390f35b34801561031d57600080fd5b50610326611493565b6040516103339190611e9b565b60405180910390f35b34801561034857600080fd5b506103516114b9565b60405161035e9190611da0565b60405180910390f35b34801561037357600080fd5b5061037c6114dd565b6040516103899190611e9b565b60405180910390f35b61039a611503565b6103f06103a561155a565b3083602060009054906101000a900473ffffffffffffffffffffffffffffffffffffffff1673ffffffffffffffffffffffffffffffffffffffff16611562909392919063ffffffff16565b60008054906101000a900473ffffffffffffffffffffffffffffffffffffffff1673ffffffffffffffffffffffffffffffffffffffff16639336ce806040518163ffffffff1660e01b8152600401602060405180830381865afa15801561045b573d6000803e3d6000fd5b505050506040513d601f19601f8201168201806040525081019061047f9190611f09565b73ffffffffffffffffffffffffffffffffffffffff166340c10f1983836040518363ffffffff1660e01b81526004016104b9929190611f36565b600060405180830381600087803b1580156104d357600080fd5b505af11580156104e7573d6000803e3d6000fd5b505050506104f361155a565b73ffffffffffffffffffffffffffffffffffffffff167f30385c845b448a36257a6a1716e6ad2e1bc2cbe333cde1e69fe849ad6511adfe826040516105389190611e71565b60405180910390a26105486115e4565b5050565b610554611503565b61057d7f25cf2b509f2a7f322675b2a5322b182f44ad2c03ac941a0af17c9b178f5d5d5f6115fd565b600081116105c0576040517f08c379a00000000000000000000000000000000000000000000000000000000081526004016105b790611fab565b60405180910390fd5b80602060009054906101000a900473ffffffffffffffffffffffffffffffffffffffff1673ffffffffffffffffffffffffffffffffffffffff166370a08231306040518263ffffffff1660e01b815260040161061c9190611e9b565b602060405180830381865afa158015610639573d6000803e3d6000fd5b505050506040513d601f19601f8201168201806040525081019061065d9190611fe0565b101561069e576040517f08c379a00000000000000000000000000000000000000000000000000000000081526004016106959061207f565b60405180910390fd5b61077b3060008054906101000a900473ffffffffffffffffffffffffffffffffffffffff1673ffffffffffffffffffffffffffffffffffffffff1663219519556040518163ffffffff1660e01b8152600401602060405180830381865afa15801561070d573d6000803e3d6000fd5b505050506040513d601f19601f820116820180604052508101906107319190611f09565b83602060009054906101000a900473ffffffffffffffffffffffffffffffffffffffff1673ffffffffffffffffffffffffffffffffffffffff16611562909392919063ffffffff16565b6107836115e4565b50565b7fa49807205ce4d355092ef5a8a18f56e8913cf4a201fbe287825b095693c2177581565b60008054906101000a900473ffffffffffffffffffffffffffffffffffffffff1681565b7f25cf2b509f2a7f322675b2a5322b182f44ad2c03ac941a0af17c9b178f5d5d5f81565b6000801b81565b60008054906101000a900473ffffffffffffffffffffffffffffffffffffffff1673ffffffffffffffffffffffffffffffffffffffff1663219519556040518163ffffffff1660e01b8152600401602060405180830381865afa158015610864573d6000803e3d6000fd5b505050506040513d601f19601f820116820180604052508101906108889190611f09565b8073ffffffffffffffffffffffffffffffffffffffff166108a761155a565b73ffffffffffffffffffffffffffffffffffffffff16146108fd576040517f08c379a00000000000000000000000000000000000000000000000000000000081526004016108f4906120eb565b60405180910390fd5b80600160006101000a81548173ffffffffffffffffffffffffffffffffffffffff021916908373ffffffffffffffffffffffffffffffffffffffff16021790555060008211610981576040517f08c379a000000000000000000000000000000000000000000000000000000000815260040161097890612157565b60405180910390fd5b81602060009054906101000a900473ffffffffffffffffffffffffffffffffffffffff1673ffffffffffffffffffffffffffffffffffffffff166370a08231306040518263ffffffff1660e01b81526004016109dd9190611e9b565b602060405180830381865afa1580156109fa573d6000803e3d6000fd5b505050506040513d601f19601f82011682018060405250810190610a1e9190611fe0565b1015610a5f576040517f08c379a0000000000000000000000000000000000000000000000000000000008152600401610a56906121e9565b60405180910390fd5b60008054906101000a900473ffffffffffffffffffffffffffffffffffffffff1673ffffffffffffffffffffffffffffffffffffffff16639336ce806040518163ffffffff1660e01b8152600401602060405180830381865afa158015610aca573d6000803e3d6000fd5b505050506040513d601f19601f82011682018060405250810190610aee9190611f09565b73ffffffffffffffffffffffffffffffffffffffff16639dc29fac60008054906101000a900473ffffffffffffffffffffffffffffffffffffffff1673ffffffffffffffffffffffffffffffffffffffff1663219519556040518163ffffffff1660e01b8152600401602060405180830381865afa158015610b74573d6000803e3d6000fd5b505050506040513d601f19601f82011682018060405250810190610b989190611f09565b846040518363ffffffff1660e01b8152600401610bb6929190611f36565b600060405180830381600087803b158015610bd057600080fd5b505af1158015610be4573d6000803e3d6000fd5b50505050610cc360008054906101000a900473ffffffffffffffffffffffffffffffffffffffff1673ffffffffffffffffffffffffffffffffffffffff1663803db96d6040518163ffffffff1660e01b8152600401602060405180830381865afa158015610c56573d6000803e3d6000fd5b505050506040513d601f19601f82011682018060405250810190610c7a9190611f09565b83602060009054906101000a900473ffffffffffffffffffffffffffffffffffffffff1673ffffffffffffffffffffffffffffffffffffffff166116119092919063ffffffff16565b6000600160006101000a81548173ffffffffffffffffffffffffffffffffffffffff021916908373ffffffffffffffffffffffffffffffffffffffff1602179055505050565b6000610d13611690565b905060008160000160089054906101000a900460ff1615905060008260000160009054906101000a900467ffffffffffffffff1690506000808267ffffffffffffffff16148015610d615750825b9050600060018367ffffffffffffffff16148015610d96575060003073ffffffffffffffffffffffffffffffffffffffff163b145b905081158015610da4575080155b15610ddb576040517ff92ee8a900000000000000000000000000000000000000000000000000000000815260040160405180910390fd5b60018560000160006101000a81548167ffffffffffffffff021916908367ffffffffffffffff1602179055508315610e2b5760018560000160086101000a81548160ff0219169083151502179055505b610e34866116b8565b60008054906101000a900473ffffffffffffffffffffffffffffffffffffffff1673ffffffffffffffffffffffffffffffffffffffff1663e59745546040518163ffffffff1660e01b8152600401602060405180830381865afa158015610e9f573d6000803e3d6000fd5b505050506040513d601f19601f82011682018060405250810190610ec39190611f09565b602060006101000a81548173ffffffffffffffffffffffffffffffffffffffff021916908373ffffffffffffffffffffffffffffffffffffffff16021790555060008054906101000a900473ffffffffffffffffffffffffffffffffffffffff1673ffffffffffffffffffffffffffffffffffffffff1663e78cea926040518163ffffffff1660e01b8152600401602060405180830381865afa158015610f6e573d6000803e3d6000fd5b505050506040513d601f19601f82011682018060405250810190610f929190611f09565b602160006101000a81548173ffffffffffffffffffffffffffffffffffffffff021916908373ffffffffffffffffffffffffffffffffffffffff160217905550602160009054906101000a900473ffffffffffffffffffffffffffffffffffffffff1673ffffffffffffffffffffffffffffffffffffffff16633cb747bf6040518163ffffffff1660e01b8152600401602060405180830381865afa15801561103f573d6000803e3d6000fd5b505050506040513d601f19601f820116820180604052508101906110639190611f09565b602260006101000a81548173ffffffffffffffffffffffffffffffffffffffff021916908373ffffffffffffffffffffffffffffffffffffffff16021790555083156110ff5760008560000160086101000a81548160ff0219169083151502179055507fc7f505b2f371ae2175ee4913f4499e1f2633a7b5936321eed1cdaeb6115181d260016040516110f69190612244565b60405180910390a15b505050505050565b6111307f25cf2b509f2a7f322675b2a5322b182f44ad2c03ac941a0af17c9b178f5d5d5f6115fd565b80602060009054906101000a900473ffffffffffffffffffffffffffffffffffffffff1673ffffffffffffffffffffffffffffffffffffffff1663dd62ed3e30602160009054906101000a900473ffffffffffffffffffffffffffffffffffffffff166040518363ffffffff1660e01b81526004016111b092919061225f565b602060405180830381865afa1580156111cd573d6000803e3d6000fd5b505050506040513d601f19601f820116820180604052508101906111f19190611fe0565b10156112db57602060009054906101000a900473ffffffffffffffffffffffffffffffffffffffff1673ffffffffffffffffffffffffffffffffffffffff1663095ea7b3602160009054906101000a900473ffffffffffffffffffffffffffffffffffffffff167fffffffffffffffffffffffffffffffffffffffffffffffffffffffffffffffff6040518363ffffffff1660e01b8152600401611296929190611f36565b6020604051808303816000875af11580156112b5573d6000803e3d6000fd5b505050506040513d601f19601f820116820180604052508101906112d991906122c0565b505b602160009054906101000a900473ffffffffffffffffffffffffffffffffffffffff1673ffffffffffffffffffffffffffffffffffffffff1663a3a7954834602060009054906101000a900473ffffffffffffffffffffffffffffffffffffffff1660008054906101000a900473ffffffffffffffffffffffffffffffffffffffff1673ffffffffffffffffffffffffffffffffffffffff1663a2be57ad6040518163ffffffff1660e01b8152600401602060405180830381865afa1580156113a8573d6000803e3d6000fd5b505050506040513d601f19601f820116820180604052508101906113cc9190611f09565b8560006040518663ffffffff1660e01b81526004016113ee949392919061236f565b6000604051808303818588803b15801561140757600080fd5b505af115801561141b573d6000803e3d6000fd5b50505050507f63d055acece0ee34be8519ce7bbed8c78507ab47ed5896dee842a6bae30ec9788160405161144f9190611e71565b60405180910390a150565b670de0b6b3a764000081565b602060009054906101000a900473ffffffffffffffffffffffffffffffffffffffff1681565b620f424081565b602160009054906101000a900473ffffffffffffffffffffffffffffffffffffffff1681565b7ff66846415d2bf9eabda9e84793ff9c0ea96d87f50fc41e66aa16469c6a442f0581565b602260009054906101000a900473ffffffffffffffffffffffffffffffffffffffff1681565b600061150d611713565b9050600281600001540361154d576040517f3ee5aeb500000000000000000000000000000000000000000000000000000000815260040160405180910390fd5b6002816000018190555050565b600033905090565b6115de848573ffffffffffffffffffffffffffffffffffffffff166323b872dd868686604051602401611597939291906123c7565b604051602081830303815290604052915060e01b6020820180517bffffffffffffffffffffffffffffffffffffffffffffffffffffffff838183161783525050505061173b565b50505050565b60006115ee611713565b90506001816000018190555050565b61160e8161160961155a565b6117dd565b50565b61168b838473ffffffffffffffffffffffffffffffffffffffff1663a9059cbb8585604051602401611644929190611f36565b604051602081830303815290604052915060e01b6020820180517bffffffffffffffffffffffffffffffffffffffffffffffffffffffff838183161783525050505061173b565b505050565b60007ff0c57e16840df040f15088dc2f81fe391c3923bec73e23a9662efc9c229c6a00905090565b6116c06118f4565b806000806101000a81548173ffffffffffffffffffffffffffffffffffffffff021916908373ffffffffffffffffffffffffffffffffffffffff160217905550611708611934565b611710611946565b50565b60007f9b779b17422d0df92223018b32b4d1fa46e071723d6817e2486d003becc55f00905090565b600080602060008451602086016000885af18061175e576040513d6000823e3d81fd5b3d925060005191505060008214611779576001811415611795565b60008473ffffffffffffffffffffffffffffffffffffffff163b145b156117d757836040517f5274afe70000000000000000000000000000000000000000000000000000000081526004016117ce9190611e9b565b60405180910390fd5b50505050565b60008054906101000a900473ffffffffffffffffffffffffffffffffffffffff1673ffffffffffffffffffffffffffffffffffffffff166391d1485483836040518363ffffffff1660e01b81526004016118389291906123fe565b602060405180830381865afa158015611855573d6000803e3d6000fd5b505050506040513d601f19601f8201168201806040525081019061187991906122c0565b6118f05761188681611950565b6118948360001c602061197d565b6040516020016118a5929190612530565b6040516020818303038152906040526040517f08c379a00000000000000000000000000000000000000000000000000000000081526004016118e791906125b4565b60405180910390fd5b5050565b6118fc611bc3565b611932576040517fd7e6bcf800000000000000000000000000000000000000000000000000000000815260040160405180910390fd5b565b61193c6118f4565b611944611be3565b565b61194e6118f4565b565b60606119768273ffffffffffffffffffffffffffffffffffffffff16601460ff1661197d565b9050919050565b60606000839050600060028460026119959190612605565b61199f9190612647565b67ffffffffffffffff8111156119b8576119b761267b565b5b6040519080825280601f01601f1916602001820160405280156119ea5781602001600182028036833780820191505090505b5090507f300000000000000000000000000000000000000000000000000000000000000081600081518110611a2257611a216126aa565b5b60200101907effffffffffffffffffffffffffffffffffffffffffffffffffffffffffffff1916908160001a9053507f780000000000000000000000000000000000000000000000000000000000000081600181518110611a8657611a856126aa565b5b60200101907effffffffffffffffffffffffffffffffffffffffffffffffffffffffffffff1916908160001a90535060006001856002611ac69190612605565b611ad09190612647565b90505b6001811115611b70577f3031323334353637383961626364656600000000000000000000000000000000600f841660108110611b1257611b116126aa565b5b1a60f81b828281518110611b2957611b286126aa565b5b60200101907effffffffffffffffffffffffffffffffffffffffffffffffffffffffffffff1916908160001a905350600483901c925080611b69906126d9565b9050611ad3565b5060008214611bb85784846040517fe22e27eb000000000000000000000000000000000000000000000000000000008152600401611baf929190612702565b60405180910390fd5b809250505092915050565b6000611bcd611690565b60000160089054906101000a900460ff16905090565b611beb6118f4565b6000611bf5611713565b90506001816000018190555050565b600082825260208201905092915050565b7f426173653a206e6f7420737570706f7274204d65746973207472616e73666572600082015250565b6000611c4b602083611c04565b9150611c5682611c15565b602082019050919050565b60006020820190508181036000830152611c7a81611c3e565b9050919050565b600080fd5b600073ffffffffffffffffffffffffffffffffffffffff82169050919050565b6000611cb182611c86565b9050919050565b611cc181611ca6565b8114611ccc57600080fd5b50565b600081359050611cde81611cb8565b92915050565b6000819050919050565b611cf781611ce4565b8114611d0257600080fd5b50565b600081359050611d1481611cee565b92915050565b60008060408385031215611d3157611d30611c81565b5b6000611d3f85828601611ccf565b9250506020611d5085828601611d05565b9150509250929050565b600060208284031215611d7057611d6f611c81565b5b6000611d7e84828501611d05565b91505092915050565b6000819050919050565b611d9a81611d87565b82525050565b6000602082019050611db56000830184611d91565b92915050565b6000819050919050565b6000611de0611ddb611dd684611c86565b611dbb565b611c86565b9050919050565b6000611df282611dc5565b9050919050565b6000611e0482611de7565b9050919050565b611e1481611df9565b82525050565b6000602082019050611e2f6000830184611e0b565b92915050565b600060208284031215611e4b57611e4a611c81565b5b6000611e5984828501611ccf565b91505092915050565b611e6b81611ce4565b82525050565b6000602082019050611e866000830184611e62565b92915050565b611e9581611ca6565b82525050565b6000602082019050611eb06000830184611e8c565b92915050565b600067ffffffffffffffff82169050919050565b611ed381611eb6565b82525050565b6000602082019050611eee6000830184611eca565b92915050565b600081519050611f0381611cb8565b92915050565b600060208284031215611f1f57611f1e611c81565b5b6000611f2d84828501611ef4565b91505092915050565b6000604082019050611f4b6000830185611e8c565b611f586020830184611e62565b9392505050565b7f4d657469735472616e736665723a20496e76616c696420616d6f756e74000000600082015250565b6000611f95601d83611c04565b9150611fa082611f5f565b602082019050919050565b60006020820190508181036000830152611fc481611f88565b9050919050565b600081519050611fda81611cee565b92915050565b600060208284031215611ff657611ff5611c81565b5b600061200484828501611fcb565b91505092915050565b7f4d657469735472616e736665723a20496e73756666696369656e742062616c6160008201527f6e63650000000000000000000000000000000000000000000000000000000000602082015250565b6000612069602383611c04565b91506120748261200d565b604082019050919050565b600060208201905081810360008301526120988161205c565b9050919050565b7f696e7465726e616c206f6e6c7900000000000000000000000000000000000000600082015250565b60006120d5600d83611c04565b91506120e08261209f565b602082019050919050565b60006020820190508181036000830152612104816120c8565b9050919050565b7f56654d657469734d696e7465723a20616d6f756e74206973207a65726f000000600082015250565b6000612141601d83611c04565b915061214c8261210b565b602082019050919050565b6000602082019050818103600083015261217081612134565b9050919050565b7f56654d657469734d696e7465723a20696e73756666696369656e742062616c6160008201527f6e63650000000000000000000000000000000000000000000000000000000000602082015250565b60006121d3602383611c04565b91506121de82612177565b604082019050919050565b60006020820190508181036000830152612202816121c6565b9050919050565b6000819050919050565b600061222e61222961222484612209565b611dbb565b611eb6565b9050919050565b61223e81612213565b82525050565b60006020820190506122596000830184612235565b92915050565b60006040820190506122746000830185611e8c565b6122816020830184611e8c565b9392505050565b60008115159050919050565b61229d81612288565b81146122a857600080fd5b50565b6000815190506122ba81612294565b92915050565b6000602082840312156122d6576122d5611c81565b5b60006122e4848285016122ab565b91505092915050565b6000819050919050565b600063ffffffff82169050919050565b600061232261231d612318846122ed565b611dbb565b6122f7565b9050919050565b61233281612307565b82525050565b600082825260208201905092915050565b50565b6000612359600083612338565b915061236482612349565b600082019050919050565b600060a0820190506123846000830187611e8c565b6123916020830186611e8c565b61239e6040830185611e62565b6123ab6060830184612329565b81810360808301526123bc8161234c565b905095945050505050565b60006060820190506123dc6000830186611e8c565b6123e96020830185611e8c565b6123f66040830184611e62565b949350505050565b60006040820190506124136000830185611d91565b6124206020830184611e8c565b9392505050565b600081905092915050565b7f416363657373436f6e74726f6c3a206163636f756e7420000000000000000000600082015250565b6000612468601783612427565b915061247382612432565b601782019050919050565b600081519050919050565b60005b838110156124a757808201518184015260208101905061248c565b60008484015250505050565b60006124be8261247e565b6124c88185612427565b93506124d8818560208601612489565b80840191505092915050565b7f206973206d697373696e6720726f6c6520000000000000000000000000000000600082015250565b600061251a601183612427565b9150612525826124e4565b601182019050919050565b600061253b8261245b565b915061254782856124b3565b91506125528261250d565b915061255e82846124b3565b91508190509392505050565b6000601f19601f8301169050919050565b60006125868261247e565b6125908185611c04565b93506125a0818560208601612489565b6125a98161256a565b840191505092915050565b600060208201905081810360008301526125ce818461257b565b905092915050565b7f4e487b7100000000000000000000000000000000000000000000000000000000600052601160045260246000fd5b600061261082611ce4565b915061261b83611ce4565b925082820261262981611ce4565b915082820484148315176126405761263f6125d6565b5b5092915050565b600061265282611ce4565b915061265d83611ce4565b9250828201905080821115612675576126746125d6565b5b92915050565b7f4e487b7100000000000000000000000000000000000000000000000000000000600052604160045260246000fd5b7f4e487b7100000000000000000000000000000000000000000000000000000000600052603260045260246000fd5b60006126e482611ce4565b9150600082036126f7576126f66125d6565b5b600182039050919050565b60006040820190506127176000830185611e62565b6127246020830184611e62565b939250505056fea2646970667358221220f46ee281b4ab0b88474fd9a25900739616c2e0a55261942b26fb7733632f8cbf64736f6c63430008140033",
  "linkReferences": {},
  "deployedLinkReferences": {}
}