{
  "_format": "hh-sol-artifact-1",
  "contractName": "VelixVault",
  "sourceName": "contracts/VelixVault.sol",
  "abi": [
    {
      "inputs": [
        {
          "internalType": "address",
          "name": "spender",
          "type": "address"
        },
        {
          "internalType": "uint256",
          "name": "allowance",
          "type": "uint256"
        },
        {
          "internalType": "uint256",
          "name": "needed",
          "type": "uint256"
        }
      ],
      "name": "ERC20InsufficientAllowance",
      "type": "error"
    },
    {
      "inputs": [
        {
          "internalType": "address",
          "name": "sender",
          "type": "address"
        },
        {
          "internalType": "uint256",
          "name": "balance",
          "type": "uint256"
        },
        {
          "internalType": "uint256",
          "name": "needed",
          "type": "uint256"
        }
      ],
      "name": "ERC20InsufficientBalance",
      "type": "error"
    },
    {
      "inputs": [
        {
          "internalType": "address",
          "name": "approver",
          "type": "address"
        }
      ],
      "name": "ERC20InvalidApprover",
      "type": "error"
    },
    {
      "inputs": [
        {
          "internalType": "address",
          "name": "receiver",
          "type": "address"
        }
      ],
      "name": "ERC20InvalidReceiver",
      "type": "error"
    },
    {
      "inputs": [
        {
          "internalType": "address",
          "name": "sender",
          "type": "address"
        }
      ],
      "name": "ERC20InvalidSender",
      "type": "error"
    },
    {
      "inputs": [
        {
          "internalType": "address",
          "name": "spender",
          "type": "address"
        }
      ],
      "name": "ERC20InvalidSpender",
      "type": "error"
    },
    {
      "inputs": [
        {
          "internalType": "address",
          "name": "receiver",
          "type": "address"
        },
        {
          "internalType": "uint256",
          "name": "assets",
          "type": "uint256"
        },
        {
          "internalType": "uint256",
          "name": "max",
          "type": "uint256"
        }
      ],
      "name": "ERC4626ExceededMaxDeposit",
      "type": "error"
    },
    {
      "inputs": [
        {
          "internalType": "address",
          "name": "receiver",
          "type": "address"
        },
        {
          "internalType": "uint256",
          "name": "shares",
          "type": "uint256"
        },
        {
          "internalType": "uint256",
          "name": "max",
          "type": "uint256"
        }
      ],
      "name": "ERC4626ExceededMaxMint",
      "type": "error"
    },
    {
      "inputs": [
        {
          "internalType": "address",
          "name": "owner",
          "type": "address"
        },
        {
          "internalType": "uint256",
          "name": "shares",
          "type": "uint256"
        },
        {
          "internalType": "uint256",
          "name": "max",
          "type": "uint256"
        }
      ],
      "name": "ERC4626ExceededMaxRedeem",
      "type": "error"
    },
    {
      "inputs": [
        {
          "internalType": "address",
          "name": "owner",
          "type": "address"
        },
        {
          "internalType": "uint256",
          "name": "assets",
          "type": "uint256"
        },
        {
          "internalType": "uint256",
          "name": "max",
          "type": "uint256"
        }
      ],
      "name": "ERC4626ExceededMaxWithdraw",
      "type": "error"
    },
    {
      "inputs": [],
      "name": "InvalidInitialization",
      "type": "error"
    },
    {
      "inputs": [],
      "name": "NotInitializing",
      "type": "error"
    },
    {
      "inputs": [],
      "name": "ReentrancyGuardReentrantCall",
      "type": "error"
    },
    {
      "inputs": [
        {
          "internalType": "address",
          "name": "token",
          "type": "address"
        }
      ],
      "name": "SafeERC20FailedOperation",
      "type": "error"
    },
    {
      "inputs": [
        {
          "internalType": "uint256",
          "name": "value",
          "type": "uint256"
        },
        {
          "internalType": "uint256",
          "name": "length",
          "type": "uint256"
        }
      ],
      "name": "StringsInsufficientHexLength",
      "type": "error"
    },
    {
      "anonymous": false,
      "inputs": [
        {
          "indexed": true,
          "internalType": "address",
          "name": "owner",
          "type": "address"
        },
        {
          "indexed": true,
          "internalType": "address",
          "name": "spender",
          "type": "address"
        },
        {
          "indexed": false,
          "internalType": "uint256",
          "name": "value",
          "type": "uint256"
        }
      ],
      "name": "Approval",
      "type": "event"
    },
    {
      "anonymous": false,
      "inputs": [
        {
          "indexed": true,
          "internalType": "address",
          "name": "caller",
          "type": "address"
        },
        {
          "indexed": false,
          "internalType": "uint256",
          "name": "assets",
          "type": "uint256"
        }
      ],
      "name": "AssetsAdded",
      "type": "event"
    },
    {
      "anonymous": false,
      "inputs": [
        {
          "indexed": true,
          "internalType": "address",
          "name": "sender",
          "type": "address"
        },
        {
          "indexed": true,
          "internalType": "address",
          "name": "owner",
          "type": "address"
        },
        {
          "indexed": false,
          "internalType": "uint256",
          "name": "assets",
          "type": "uint256"
        },
        {
          "indexed": false,
          "internalType": "uint256",
          "name": "shares",
          "type": "uint256"
        }
      ],
      "name": "Deposit",
      "type": "event"
    },
    {
      "anonymous": false,
      "inputs": [
        {
          "indexed": false,
          "internalType": "uint256",
          "name": "amount",
          "type": "uint256"
        }
      ],
      "name": "DepositToL1Dealer",
      "type": "event"
    },
    {
      "anonymous": false,
      "inputs": [
        {
          "indexed": false,
          "internalType": "uint64",
          "name": "version",
          "type": "uint64"
        }
      ],
      "name": "Initialized",
      "type": "event"
    },
    {
      "anonymous": false,
      "inputs": [
        {
          "indexed": true,
          "internalType": "address",
          "name": "account",
          "type": "address"
        },
        {
          "indexed": false,
          "internalType": "uint256",
          "name": "amount",
          "type": "uint256"
        }
      ],
      "name": "Minted",
      "type": "event"
    },
    {
      "anonymous": false,
      "inputs": [
        {
          "indexed": true,
          "internalType": "address",
          "name": "from",
          "type": "address"
        },
        {
          "indexed": true,
          "internalType": "address",
          "name": "to",
          "type": "address"
        },
        {
          "indexed": false,
          "internalType": "uint256",
          "name": "value",
          "type": "uint256"
        }
      ],
      "name": "Transfer",
      "type": "event"
    },
    {
      "anonymous": false,
      "inputs": [
        {
          "indexed": true,
          "internalType": "address",
          "name": "sender",
          "type": "address"
        },
        {
          "indexed": true,
          "internalType": "address",
          "name": "receiver",
          "type": "address"
        },
        {
          "indexed": true,
          "internalType": "address",
          "name": "owner",
          "type": "address"
        },
        {
          "indexed": false,
          "internalType": "uint256",
          "name": "assets",
          "type": "uint256"
        },
        {
          "indexed": false,
          "internalType": "uint256",
          "name": "shares",
          "type": "uint256"
        }
      ],
      "name": "Withdraw",
      "type": "event"
    },
    {
      "inputs": [],
      "name": "ADMIN_ROLE",
      "outputs": [
        {
          "internalType": "bytes32",
          "name": "",
          "type": "bytes32"
        }
      ],
      "stateMutability": "view",
      "type": "function"
    },
    {
      "inputs": [],
      "name": "BACKEND_ROLE",
      "outputs": [
        {
          "internalType": "bytes32",
          "name": "",
          "type": "bytes32"
        }
      ],
      "stateMutability": "view",
      "type": "function"
    },
    {
      "inputs": [],
      "name": "DEFAULT_ADMIN_ROLE",
      "outputs": [
        {
          "internalType": "bytes32",
          "name": "",
          "type": "bytes32"
        }
      ],
      "stateMutability": "view",
      "type": "function"
    },
    {
      "inputs": [],
      "name": "FEE_PRECISION",
      "outputs": [
        {
          "internalType": "uint64",
          "name": "",
          "type": "uint64"
        }
      ],
      "stateMutability": "view",
      "type": "function"
    },
    {
      "inputs": [],
      "name": "INITIAL_DEPOSIT_AMOUNT",
      "outputs": [
        {
          "internalType": "uint256",
          "name": "",
          "type": "uint256"
        }
      ],
      "stateMutability": "view",
      "type": "function"
    },
    {
      "inputs": [],
      "name": "TIMELOCK_ROLE",
      "outputs": [
        {
          "internalType": "bytes32",
          "name": "",
          "type": "bytes32"
        }
      ],
      "stateMutability": "view",
      "type": "function"
    },
    {
      "inputs": [],
      "name": "_totalAssets",
      "outputs": [
        {
          "internalType": "uint256",
          "name": "",
          "type": "uint256"
        }
      ],
      "stateMutability": "view",
      "type": "function"
    },
    {
      "inputs": [
        {
          "internalType": "uint256",
          "name": "assets",
          "type": "uint256"
        }
      ],
      "name": "addAssets",
      "outputs": [],
      "stateMutability": "nonpayable",
      "type": "function"
    },
    {
      "inputs": [
        {
          "internalType": "address",
          "name": "owner",
          "type": "address"
        },
        {
          "internalType": "address",
          "name": "spender",
          "type": "address"
        }
      ],
      "name": "allowance",
      "outputs": [
        {
          "internalType": "uint256",
          "name": "",
          "type": "uint256"
        }
      ],
      "stateMutability": "view",
      "type": "function"
    },
    {
      "inputs": [
        {
          "internalType": "address",
          "name": "spender",
          "type": "address"
        },
        {
          "internalType": "uint256",
          "name": "value",
          "type": "uint256"
        }
      ],
      "name": "approve",
      "outputs": [
        {
          "internalType": "bool",
          "name": "",
          "type": "bool"
        }
      ],
      "stateMutability": "nonpayable",
      "type": "function"
    },
    {
      "inputs": [],
      "name": "asset",
      "outputs": [
        {
          "internalType": "address",
          "name": "",
          "type": "address"
        }
      ],
      "stateMutability": "view",
      "type": "function"
    },
    {
      "inputs": [
        {
          "internalType": "address",
          "name": "account",
          "type": "address"
        }
      ],
      "name": "balanceOf",
      "outputs": [
        {
          "internalType": "uint256",
          "name": "",
          "type": "uint256"
        }
      ],
      "stateMutability": "view",
      "type": "function"
    },
    {
      "inputs": [
        {
          "internalType": "address",
          "name": "_from",
          "type": "address"
        },
        {
          "internalType": "uint256",
          "name": "_amount",
          "type": "uint256"
        }
      ],
      "name": "burn",
      "outputs": [],
      "stateMutability": "nonpayable",
      "type": "function"
    },
    {
      "inputs": [],
      "name": "config",
      "outputs": [
        {
          "internalType": "contract IConfig",
          "name": "",
          "type": "address"
        }
      ],
      "stateMutability": "view",
      "type": "function"
    },
    {
      "inputs": [
        {
          "internalType": "uint256",
          "name": "shares",
          "type": "uint256"
        }
      ],
      "name": "convertToAssets",
      "outputs": [
        {
          "internalType": "uint256",
          "name": "",
          "type": "uint256"
        }
      ],
      "stateMutability": "view",
      "type": "function"
    },
    {
      "inputs": [
        {
          "internalType": "uint256",
          "name": "assets",
          "type": "uint256"
        }
      ],
      "name": "convertToShares",
      "outputs": [
        {
          "internalType": "uint256",
          "name": "",
          "type": "uint256"
        }
      ],
      "stateMutability": "view",
      "type": "function"
    },
    {
      "inputs": [],
      "name": "decimals",
      "outputs": [
        {
          "internalType": "uint8",
          "name": "",
          "type": "uint8"
        }
      ],
      "stateMutability": "view",
      "type": "function"
    },
    {
      "inputs": [
        {
          "internalType": "uint256",
          "name": "assets",
          "type": "uint256"
        },
        {
          "internalType": "address",
          "name": "receiver",
          "type": "address"
        }
      ],
      "name": "deposit",
      "outputs": [
        {
          "internalType": "uint256",
          "name": "",
          "type": "uint256"
        }
      ],
      "stateMutability": "nonpayable",
      "type": "function"
    },
    {
      "inputs": [
        {
          "internalType": "uint256",
          "name": "amount",
          "type": "uint256"
        }
      ],
      "name": "depositToL1Dealer",
      "outputs": [],
      "stateMutability": "payable",
      "type": "function"
    },
    {
      "inputs": [
        {
          "internalType": "address",
          "name": "_config",
          "type": "address"
        }
      ],
      "name": "initialize",
      "outputs": [],
      "stateMutability": "nonpayable",
      "type": "function"
    },
    {
      "inputs": [
        {
          "internalType": "address",
          "name": "",
          "type": "address"
        }
      ],
      "name": "maxDeposit",
      "outputs": [
        {
          "internalType": "uint256",
          "name": "",
          "type": "uint256"
        }
      ],
      "stateMutability": "view",
      "type": "function"
    },
    {
      "inputs": [
        {
          "internalType": "address",
          "name": "",
          "type": "address"
        }
      ],
      "name": "maxMint",
      "outputs": [
        {
          "internalType": "uint256",
          "name": "",
          "type": "uint256"
        }
      ],
      "stateMutability": "view",
      "type": "function"
    },
    {
      "inputs": [
        {
          "internalType": "address",
          "name": "owner",
          "type": "address"
        }
      ],
      "name": "maxRedeem",
      "outputs": [
        {
          "internalType": "uint256",
          "name": "",
          "type": "uint256"
        }
      ],
      "stateMutability": "view",
      "type": "function"
    },
    {
      "inputs": [
        {
          "internalType": "address",
          "name": "owner",
          "type": "address"
        }
      ],
      "name": "maxWithdraw",
      "outputs": [
        {
          "internalType": "uint256",
          "name": "",
          "type": "uint256"
        }
      ],
      "stateMutability": "view",
      "type": "function"
    },
    {
      "inputs": [
        {
          "internalType": "uint256",
          "name": "shares",
          "type": "uint256"
        },
        {
          "internalType": "address",
          "name": "receiver",
          "type": "address"
        }
      ],
      "name": "mint",
      "outputs": [
        {
          "internalType": "uint256",
          "name": "",
          "type": "uint256"
        }
      ],
      "stateMutability": "nonpayable",
      "type": "function"
    },
    {
      "inputs": [],
      "name": "name",
      "outputs": [
        {
          "internalType": "string",
          "name": "",
          "type": "string"
        }
      ],
      "stateMutability": "view",
      "type": "function"
    },
    {
      "inputs": [
        {
          "internalType": "uint256",
          "name": "assets",
          "type": "uint256"
        }
      ],
      "name": "previewDeposit",
      "outputs": [
        {
          "internalType": "uint256",
          "name": "",
          "type": "uint256"
        }
      ],
      "stateMutability": "view",
      "type": "function"
    },
    {
      "inputs": [
        {
          "internalType": "uint256",
          "name": "shares",
          "type": "uint256"
        }
      ],
      "name": "previewMint",
      "outputs": [
        {
          "internalType": "uint256",
          "name": "",
          "type": "uint256"
        }
      ],
      "stateMutability": "view",
      "type": "function"
    },
    {
      "inputs": [
        {
          "internalType": "uint256",
          "name": "shares",
          "type": "uint256"
        }
      ],
      "name": "previewRedeem",
      "outputs": [
        {
          "internalType": "uint256",
          "name": "",
          "type": "uint256"
        }
      ],
      "stateMutability": "view",
      "type": "function"
    },
    {
      "inputs": [
        {
          "internalType": "uint256",
          "name": "assets",
          "type": "uint256"
        }
      ],
      "name": "previewWithdraw",
      "outputs": [
        {
          "internalType": "uint256",
          "name": "",
          "type": "uint256"
        }
      ],
      "stateMutability": "view",
      "type": "function"
    },
    {
      "inputs": [
        {
          "internalType": "uint256",
          "name": "shares",
          "type": "uint256"
        },
        {
          "internalType": "address",
          "name": "receiver",
          "type": "address"
        },
        {
          "internalType": "address",
          "name": "owner",
          "type": "address"
        }
      ],
      "name": "redeem",
      "outputs": [
        {
          "internalType": "uint256",
          "name": "",
          "type": "uint256"
        }
      ],
      "stateMutability": "nonpayable",
      "type": "function"
    },
    {
      "inputs": [
        {
          "internalType": "uint256",
          "name": "_amount",
          "type": "uint256"
        }
      ],
      "name": "sendMetisRewards",
      "outputs": [],
      "stateMutability": "payable",
      "type": "function"
    },
    {
      "inputs": [],
      "name": "symbol",
      "outputs": [
        {
          "internalType": "string",
          "name": "",
          "type": "string"
        }
      ],
      "stateMutability": "view",
      "type": "function"
    },
    {
      "inputs": [],
      "name": "totalAssets",
      "outputs": [
        {
          "internalType": "uint256",
          "name": "",
          "type": "uint256"
        }
      ],
      "stateMutability": "view",
      "type": "function"
    },
    {
      "inputs": [],
      "name": "totalSupply",
      "outputs": [
        {
          "internalType": "uint256",
          "name": "",
          "type": "uint256"
        }
      ],
      "stateMutability": "view",
      "type": "function"
    },
    {
      "inputs": [
        {
          "internalType": "address",
          "name": "to",
          "type": "address"
        },
        {
          "internalType": "uint256",
          "name": "value",
          "type": "uint256"
        }
      ],
      "name": "transfer",
      "outputs": [
        {
          "internalType": "bool",
          "name": "",
          "type": "bool"
        }
      ],
      "stateMutability": "nonpayable",
      "type": "function"
    },
    {
      "inputs": [
        {
          "internalType": "address",
          "name": "from",
          "type": "address"
        },
        {
          "internalType": "address",
          "name": "to",
          "type": "address"
        },
        {
          "internalType": "uint256",
          "name": "value",
          "type": "uint256"
        }
      ],
      "name": "transferFrom",
      "outputs": [
        {
          "internalType": "bool",
          "name": "",
          "type": "bool"
        }
      ],
      "stateMutability": "nonpayable",
      "type": "function"
    },
    {
      "inputs": [
        {
          "internalType": "uint256",
          "name": "assets",
          "type": "uint256"
        },
        {
          "internalType": "address",
          "name": "receiver",
          "type": "address"
        },
        {
          "internalType": "address",
          "name": "owner",
          "type": "address"
        }
      ],
      "name": "withdraw",
      "outputs": [
        {
          "internalType": "uint256",
          "name": "",
          "type": "uint256"
        }
      ],
      "stateMutability": "nonpayable",
      "type": "function"
    },
    {
      "stateMutability": "payable",
      "type": "receive"
    }
  ],
  "bytecode": "0x608060405234801561001057600080fd5b50614733806100206000396000f3fe6080604052600436106102295760003560e01c806395d89b4111610123578063c6e6f592116100ab578063dd62ed3e1161006f578063dd62ed3e14610907578063e52083c614610944578063e63a391f1461096f578063ef8b30f71461099a578063f288a2e2146109d757610269565b8063c6e6f59214610809578063ce04bebb14610846578063ce40eb3014610871578063ce96cb771461088d578063d905777e146108ca57610269565b8063b3d7f6b9116100f2578063b3d7f6b9146106ec578063b460af9414610729578063ba08765214610766578063c4d66de8146107a3578063c63d75b6146107cc57610269565b806395d89b41146106305780639dc29fac1461065b578063a217fddf14610684578063a9059cbb146106af57610269565b806338d52e0f116101b157806370a082311161017557806370a082311461053557806375b238fc1461057257806379502c551461059d57806392c2becc146105c857806394bf804d146105f357610269565b806338d52e0f14610437578063402d267d146104625780634cdad5061461049f5780636d0c9d81146104dc5780636e553f65146104f857610269565b80630a28a477116101f85780630a28a4771461033e57806311217d551461037b57806318160ddd146103a457806323b872dd146103cf578063313ce5671461040c57610269565b806301e1d1141461026e57806306fdde031461029957806307a2d13a146102c4578063095ea7b31461030157610269565b36610269576040517f08c379a000000000000000000000000000000000000000000000000000000000815260040161026090613539565b60405180910390fd5b600080fd5b34801561027a57600080fd5b50610283610a02565b6040516102909190613572565b60405180910390f35b3480156102a557600080fd5b506102ae610a0c565b6040516102bb919061360c565b60405180910390f35b3480156102d057600080fd5b506102eb60048036038101906102e6919061365f565b610aad565b6040516102f89190613572565b60405180910390f35b34801561030d57600080fd5b50610328600480360381019061032391906136ea565b610ac1565b6040516103359190613745565b60405180910390f35b34801561034a57600080fd5b506103656004803603810190610360919061365f565b610ae4565b6040516103729190613572565b60405180910390f35b34801561038757600080fd5b506103a2600480360381019061039d919061365f565b610af8565b005b3480156103b057600080fd5b506103b9610d32565b6040516103c69190613572565b60405180910390f35b3480156103db57600080fd5b506103f660048036038101906103f19190613760565b610d4a565b6040516104039190613745565b60405180910390f35b34801561041857600080fd5b50610421610d79565b60405161042e91906137cf565b60405180910390f35b34801561044357600080fd5b5061044c610db0565b60405161045991906137f9565b60405180910390f35b34801561046e57600080fd5b5061048960048036038101906104849190613814565b610de8565b6040516104969190613572565b60405180910390f35b3480156104ab57600080fd5b506104c660048036038101906104c1919061365f565b610e12565b6040516104d39190613572565b60405180910390f35b6104f660048036038101906104f1919061365f565b610e26565b005b34801561050457600080fd5b5061051f600480360381019061051a9190613841565b611138565b60405161052c9190613572565b60405180910390f35b34801561054157600080fd5b5061055c60048036038101906105579190613814565b6111ba565b6040516105699190613572565b60405180910390f35b34801561057e57600080fd5b50610587611211565b604051610594919061389a565b60405180910390f35b3480156105a957600080fd5b506105b2611235565b6040516105bf9190613914565b60405180910390f35b3480156105d457600080fd5b506105dd611259565b6040516105ea919061389a565b60405180910390f35b3480156105ff57600080fd5b5061061a60048036038101906106159190613841565b61127d565b6040516106279190613572565b60405180910390f35b34801561063c57600080fd5b506106456112ff565b604051610652919061360c565b60405180910390f35b34801561066757600080fd5b50610682600480360381019061067d91906136ea565b6113a0565b005b34801561069057600080fd5b506106996114b1565b6040516106a6919061389a565b60405180910390f35b3480156106bb57600080fd5b506106d660048036038101906106d191906136ea565b6114b8565b6040516106e39190613745565b60405180910390f35b3480156106f857600080fd5b50610713600480360381019061070e919061365f565b6114db565b6040516107209190613572565b60405180910390f35b34801561073557600080fd5b50610750600480360381019061074b919061392f565b6114ef565b60405161075d9190613572565b60405180910390f35b34801561077257600080fd5b5061078d6004803603810190610788919061392f565b611573565b60405161079a9190613572565b60405180910390f35b3480156107af57600080fd5b506107ca60048036038101906107c59190613814565b6115f7565b005b3480156107d857600080fd5b506107f360048036038101906107ee9190613814565b611891565b6040516108009190613572565b60405180910390f35b34801561081557600080fd5b50610830600480360381019061082b919061365f565b6118bb565b60405161083d9190613572565b60405180910390f35b34801561085257600080fd5b5061085b6118cf565b6040516108689190613572565b60405180910390f35b61088b6004803603810190610886919061365f565b6118d5565b005b34801561089957600080fd5b506108b460048036038101906108af9190613814565b611eb0565b6040516108c19190613572565b60405180910390f35b3480156108d657600080fd5b506108f160048036038101906108ec9190613814565b611ecc565b6040516108fe9190613572565b60405180910390f35b34801561091357600080fd5b5061092e60048036038101906109299190613982565b611ede565b60405161093b9190613572565b60405180910390f35b34801561095057600080fd5b50610959611f73565b6040516109669190613572565b60405180910390f35b34801561097b57600080fd5b50610984611f7f565b60405161099191906139e5565b60405180910390f35b3480156109a657600080fd5b506109c160048036038101906109bc919061365f565b611f86565b6040516109ce9190613572565b60405180910390f35b3480156109e357600080fd5b506109ec611f9a565b6040516109f9919061389a565b60405180910390f35b6000600254905090565b60606000610a18611fbe565b9050806003018054610a2990613a2f565b80601f0160208091040260200160405190810160405280929190818152602001828054610a5590613a2f565b8015610aa25780601f10610a7757610100808354040283529160200191610aa2565b820191906000526020600020905b815481529060010190602001808311610a8557829003601f168201915b505050505091505090565b6000610aba826000611fe6565b9050919050565b600080610acc61203f565b9050610ad9818585612047565b600191505092915050565b6000610af1826001612059565b9050919050565b60008054906101000a900473ffffffffffffffffffffffffffffffffffffffff1673ffffffffffffffffffffffffffffffffffffffff1663219519556040518163ffffffff1660e01b8152600401602060405180830381865afa158015610b63573d6000803e3d6000fd5b505050506040513d601f19601f82011682018060405250810190610b879190613a75565b8073ffffffffffffffffffffffffffffffffffffffff16610ba661203f565b73ffffffffffffffffffffffffffffffffffffffff1614610bfc576040517f08c379a0000000000000000000000000000000000000000000000000000000008152600401610bf390613aee565b60405180910390fd5b80600160006101000a81548173ffffffffffffffffffffffffffffffffffffffff021916908373ffffffffffffffffffffffffffffffffffffffff1602179055506000610c47610db0565b9050610c7d610c5461203f565b30858473ffffffffffffffffffffffffffffffffffffffff166120b2909392919063ffffffff16565b8260026000828254610c8f9190613b3d565b92505081905550610c9e61203f565b73ffffffffffffffffffffffffffffffffffffffff167fc378fe46345084151dff4a66b9b76df7c4f769260bb3bb47fa7a4d3d932fdc6984604051610ce39190613572565b60405180910390a2506000600160006101000a81548173ffffffffffffffffffffffffffffffffffffffff021916908373ffffffffffffffffffffffffffffffffffffffff1602179055505050565b600080610d3d611fbe565b9050806002015491505090565b600080610d5561203f565b9050610d62858285612134565b610d6d8585856121c8565b60019150509392505050565b600080610d846122bc565b9050610d8e6122e4565b8160000160149054906101000a900460ff16610daa9190613b71565b91505090565b600080610dbb6122bc565b90508060000160009054906101000a900473ffffffffffffffffffffffffffffffffffffffff1691505090565b60007fffffffffffffffffffffffffffffffffffffffffffffffffffffffffffffffff9050919050565b6000610e1f826000611fe6565b9050919050565b610e2e6122e9565b610e577f25cf2b509f2a7f322675b2a5322b182f44ad2c03ac941a0af17c9b178f5d5d5f612340565b60008111610e9a576040517f08c379a0000000000000000000000000000000000000000000000000000000008152600401610e9190613bf2565b60405180910390fd5b8060008054906101000a900473ffffffffffffffffffffffffffffffffffffffff1673ffffffffffffffffffffffffffffffffffffffff1663e59745546040518163ffffffff1660e01b8152600401602060405180830381865afa158015610f06573d6000803e3d6000fd5b505050506040513d601f19601f82011682018060405250810190610f2a9190613a75565b73ffffffffffffffffffffffffffffffffffffffff166370a08231306040518263ffffffff1660e01b8152600401610f6291906137f9565b602060405180830381865afa158015610f7f573d6000803e3d6000fd5b505050506040513d601f19601f82011682018060405250810190610fa39190613c27565b1015610fe4576040517f08c379a0000000000000000000000000000000000000000000000000000000008152600401610fdb90613cc6565b60405180910390fd5b61112d3060008054906101000a900473ffffffffffffffffffffffffffffffffffffffff1673ffffffffffffffffffffffffffffffffffffffff1663219519556040518163ffffffff1660e01b8152600401602060405180830381865afa158015611053573d6000803e3d6000fd5b505050506040513d601f19601f820116820180604052508101906110779190613a75565b8360008054906101000a900473ffffffffffffffffffffffffffffffffffffffff1673ffffffffffffffffffffffffffffffffffffffff1663e59745546040518163ffffffff1660e01b8152600401602060405180830381865afa1580156110e3573d6000803e3d6000fd5b505050506040513d601f19601f820116820180604052508101906111079190613a75565b73ffffffffffffffffffffffffffffffffffffffff166120b2909392919063ffffffff16565b611135612354565b50565b60008061114483610de8565b90508084111561118f578284826040517f79012fb200000000000000000000000000000000000000000000000000000000815260040161118693929190613ce6565b60405180910390fd5b600061119a85611f86565b90506111af6111a761203f565b85878461236d565b809250505092915050565b6000806111c5611fbe565b90508060000160008473ffffffffffffffffffffffffffffffffffffffff1673ffffffffffffffffffffffffffffffffffffffff16815260200190815260200160002054915050919050565b7fa49807205ce4d355092ef5a8a18f56e8913cf4a201fbe287825b095693c2177581565b60008054906101000a900473ffffffffffffffffffffffffffffffffffffffff1681565b7f25cf2b509f2a7f322675b2a5322b182f44ad2c03ac941a0af17c9b178f5d5d5f81565b60008061128983611891565b9050808411156112d4578284826040517f284ff6670000000000000000000000000000000000000000000000000000000081526004016112cb93929190613ce6565b60405180910390fd5b60006112df856114db565b90506112f46112ec61203f565b85838861236d565b809250505092915050565b6060600061130b611fbe565b905080600401805461131c90613a2f565b80601f016020809104026020016040519081016040528092919081815260200182805461134890613a2f565b80156113955780601f1061136a57610100808354040283529160200191611395565b820191906000526020600020905b81548152906001019060200180831161137857829003601f168201915b505050505091505090565b60008054906101000a900473ffffffffffffffffffffffffffffffffffffffff1673ffffffffffffffffffffffffffffffffffffffff166397ec19be6040518163ffffffff1660e01b8152600401602060405180830381865afa15801561140b573d6000803e3d6000fd5b505050506040513d601f19601f8201168201806040525081019061142f9190613a75565b73ffffffffffffffffffffffffffffffffffffffff1661144d61203f565b73ffffffffffffffffffffffffffffffffffffffff16146114a3576040517f08c379a000000000000000000000000000000000000000000000000000000000815260040161149a90613d8f565b60405180910390fd5b6114ad82826123e6565b5050565b6000801b81565b6000806114c361203f565b90506114d08185856121c8565b600191505092915050565b60006114e8826001611fe6565b9050919050565b6000806114fb83611eb0565b905080851115611546578285826040517ffe9cceec00000000000000000000000000000000000000000000000000000000815260040161153d93929190613ce6565b60405180910390fd5b600061155186610ae4565b905061156761155e61203f565b86868985612468565b80925050509392505050565b60008061157f83611ecc565b9050808511156115ca578285826040517fb94abeec0000000000000000000000000000000000000000000000000000000081526004016115c193929190613ce6565b60405180910390fd5b60006115d586610e12565b90506115eb6115e261203f565b8686848a612468565b80925050509392505050565b600061160161265c565b905060008160000160089054906101000a900460ff1615905060008260000160009054906101000a900467ffffffffffffffff1690506000808267ffffffffffffffff1614801561164f5750825b9050600060018367ffffffffffffffff16148015611684575060003073ffffffffffffffffffffffffffffffffffffffff163b145b905081158015611692575080155b156116c9576040517ff92ee8a900000000000000000000000000000000000000000000000000000000815260040160405180910390fd5b60018560000160006101000a81548167ffffffffffffffff021916908367ffffffffffffffff16021790555083156117195760018560000160086101000a81548160ff0219169083151502179055505b61172286612684565b6117966040518060400160405280600881526020017f2076654d657469730000000000000000000000000000000000000000000000008152506040518060400160405280600781526020017f76654d65746973000000000000000000000000000000000000000000000000008152506126df565b61182d60008054906101000a900473ffffffffffffffffffffffffffffffffffffffff1673ffffffffffffffffffffffffffffffffffffffff1663e59745546040518163ffffffff1660e01b8152600401602060405180830381865afa158015611804573d6000803e3d6000fd5b505050506040513d601f19601f820116820180604052508101906118289190613a75565b6126f5565b83156118895760008560000160086101000a81548160ff0219169083151502179055507fc7f505b2f371ae2175ee4913f4499e1f2633a7b5936321eed1cdaeb6115181d260016040516118809190613dea565b60405180910390a15b505050505050565b60007fffffffffffffffffffffffffffffffffffffffffffffffffffffffffffffffff9050919050565b60006118c8826000612059565b9050919050565b60025481565b6118fe7f25cf2b509f2a7f322675b2a5322b182f44ad2c03ac941a0af17c9b178f5d5d5f612340565b8060008054906101000a900473ffffffffffffffffffffffffffffffffffffffff1673ffffffffffffffffffffffffffffffffffffffff1663e59745546040518163ffffffff1660e01b8152600401602060405180830381865afa15801561196a573d6000803e3d6000fd5b505050506040513d601f19601f8201168201806040525081019061198e9190613a75565b73ffffffffffffffffffffffffffffffffffffffff1663dd62ed3e3060008054906101000a900473ffffffffffffffffffffffffffffffffffffffff1673ffffffffffffffffffffffffffffffffffffffff1663e78cea926040518163ffffffff1660e01b8152600401602060405180830381865afa158015611a15573d6000803e3d6000fd5b505050506040513d601f19601f82011682018060405250810190611a399190613a75565b6040518363ffffffff1660e01b8152600401611a56929190613e05565b602060405180830381865afa158015611a73573d6000803e3d6000fd5b505050506040513d601f19601f82011682018060405250810190611a979190613c27565b1015611c595760008054906101000a900473ffffffffffffffffffffffffffffffffffffffff1673ffffffffffffffffffffffffffffffffffffffff1663e59745546040518163ffffffff1660e01b8152600401602060405180830381865afa158015611b08573d6000803e3d6000fd5b505050506040513d601f19601f82011682018060405250810190611b2c9190613a75565b73ffffffffffffffffffffffffffffffffffffffff1663095ea7b360008054906101000a900473ffffffffffffffffffffffffffffffffffffffff1673ffffffffffffffffffffffffffffffffffffffff1663e78cea926040518163ffffffff1660e01b8152600401602060405180830381865afa158015611bb2573d6000803e3d6000fd5b505050506040513d601f19601f82011682018060405250810190611bd69190613a75565b7fffffffffffffffffffffffffffffffffffffffffffffffffffffffffffffffff6040518363ffffffff1660e01b8152600401611c14929190613e2e565b6020604051808303816000875af1158015611c33573d6000803e3d6000fd5b505050506040513d601f19601f82011682018060405250810190611c579190613e83565b505b60008054906101000a900473ffffffffffffffffffffffffffffffffffffffff1673ffffffffffffffffffffffffffffffffffffffff1663e78cea926040518163ffffffff1660e01b8152600401602060405180830381865afa158015611cc4573d6000803e3d6000fd5b505050506040513d601f19601f82011682018060405250810190611ce89190613a75565b73ffffffffffffffffffffffffffffffffffffffff1663a3a795483460008054906101000a900473ffffffffffffffffffffffffffffffffffffffff1673ffffffffffffffffffffffffffffffffffffffff1663e59745546040518163ffffffff1660e01b8152600401602060405180830381865afa158015611d6f573d6000803e3d6000fd5b505050506040513d601f19601f82011682018060405250810190611d939190613a75565b60008054906101000a900473ffffffffffffffffffffffffffffffffffffffff1673ffffffffffffffffffffffffffffffffffffffff1663a2be57ad6040518163ffffffff1660e01b8152600401602060405180830381865afa158015611dfe573d6000803e3d6000fd5b505050506040513d601f19601f82011682018060405250810190611e229190613a75565b8560006040518663ffffffff1660e01b8152600401611e449493929190613f32565b6000604051808303818588803b158015611e5d57600080fd5b505af1158015611e71573d6000803e3d6000fd5b50505050507f63d055acece0ee34be8519ce7bbed8c78507ab47ed5896dee842a6bae30ec97881604051611ea59190613572565b60405180910390a150565b6000611ec5611ebe836111ba565b6000611fe6565b9050919050565b6000611ed7826111ba565b9050919050565b600080611ee9611fbe565b90508060010160008573ffffffffffffffffffffffffffffffffffffffff1673ffffffffffffffffffffffffffffffffffffffff16815260200190815260200160002060008473ffffffffffffffffffffffffffffffffffffffff1673ffffffffffffffffffffffffffffffffffffffff1681526020019081526020016000205491505092915050565b670de0b6b3a764000081565b620f424081565b6000611f93826000612059565b9050919050565b7ff66846415d2bf9eabda9e84793ff9c0ea96d87f50fc41e66aa16469c6a442f0581565b60007f52c63247e1f47db19d5ce0460030c497f067ca4cebf71ba98eeadabe20bace00905090565b60006120376001611ff5610a02565b611fff9190613b3d565b6120076122e4565b600a61201391906140bd565b61201b610d32565b6120259190613b3d565b8486612709909392919063ffffffff16565b905092915050565b600033905090565b6120548383836001612758565b505050565b60006120aa6120666122e4565b600a61207291906140bd565b61207a610d32565b6120849190613b3d565b600161208e610a02565b6120989190613b3d565b8486612709909392919063ffffffff16565b905092915050565b61212e848573ffffffffffffffffffffffffffffffffffffffff166323b872dd8686866040516024016120e793929190614108565b604051602081830303815290604052915060e01b6020820180517bffffffffffffffffffffffffffffffffffffffffffffffffffffffff838183161783525050505061293e565b50505050565b60006121408484611ede565b90507fffffffffffffffffffffffffffffffffffffffffffffffffffffffffffffffff81146121c257818110156121b2578281836040517ffb8f41b20000000000000000000000000000000000000000000000000000000081526004016121a993929190613ce6565b60405180910390fd5b6121c184848484036000612758565b5b50505050565b600073ffffffffffffffffffffffffffffffffffffffff168373ffffffffffffffffffffffffffffffffffffffff160361223a5760006040517f96c6fd1e00000000000000000000000000000000000000000000000000000000815260040161223191906137f9565b60405180910390fd5b600073ffffffffffffffffffffffffffffffffffffffff168273ffffffffffffffffffffffffffffffffffffffff16036122ac5760006040517fec442f050000000000000000000000000000000000000000000000000000000081526004016122a391906137f9565b60405180910390fd5b6122b78383836129e0565b505050565b60007f0773e532dfede91f04b12a73d3d2acd361424f41f76b4fb79f090161e36b4e00905090565b600090565b60006122f3612c1f565b90506002816000015403612333576040517f3ee5aeb500000000000000000000000000000000000000000000000000000000815260040160405180910390fd5b6002816000018190555050565b6123518161234c61203f565b612c47565b50565b600061235e612c1f565b90506001816000018190555050565b61237984848484612d5e565b816002600082825461238b9190613b3d565b925050819055508373ffffffffffffffffffffffffffffffffffffffff167fc378fe46345084151dff4a66b9b76df7c4f769260bb3bb47fa7a4d3d932fdc69836040516123d89190613572565b60405180910390a250505050565b600073ffffffffffffffffffffffffffffffffffffffff168273ffffffffffffffffffffffffffffffffffffffff16036124585760006040517f96c6fd1e00000000000000000000000000000000000000000000000000000000815260040161244f91906137f9565b60405180910390fd5b612464826000836129e0565b5050565b8273ffffffffffffffffffffffffffffffffffffffff168573ffffffffffffffffffffffffffffffffffffffff16146124a7576124a6838683612134565b5b81600260008282546124b9919061413f565b925050819055506124ca83826123e6565b60008054906101000a900473ffffffffffffffffffffffffffffffffffffffff1673ffffffffffffffffffffffffffffffffffffffff166397ec19be6040518163ffffffff1660e01b8152600401602060405180830381865afa158015612535573d6000803e3d6000fd5b505050506040513d601f19601f820116820180604052508101906125599190613a75565b73ffffffffffffffffffffffffffffffffffffffff1663a47be30b33836040518363ffffffff1660e01b8152600401612593929190613e2e565b6020604051808303816000875af11580156125b2573d6000803e3d6000fd5b505050506040513d601f19601f820116820180604052508101906125d69190613c27565b508273ffffffffffffffffffffffffffffffffffffffff168473ffffffffffffffffffffffffffffffffffffffff168673ffffffffffffffffffffffffffffffffffffffff167ffbde797d201c681b91056529119e0b02407c7bb96a4a2c75c01fc9667232c8db858560405161264d929190614173565b60405180910390a45050505050565b60007ff0c57e16840df040f15088dc2f81fe391c3923bec73e23a9662efc9c229c6a00905090565b61268c612e12565b806000806101000a81548173ffffffffffffffffffffffffffffffffffffffff021916908373ffffffffffffffffffffffffffffffffffffffff1602179055506126d4612e52565b6126dc612e64565b50565b6126e7612e12565b6126f18282612e6e565b5050565b6126fd612e12565b61270681612eab565b50565b600061273961271783612f42565b801561273457506000848061272f5761272e61419c565b5b868809115b612f70565b612744868686612f7c565b61274e9190613b3d565b9050949350505050565b6000612762611fbe565b9050600073ffffffffffffffffffffffffffffffffffffffff168573ffffffffffffffffffffffffffffffffffffffff16036127d65760006040517fe602df050000000000000000000000000000000000000000000000000000000081526004016127cd91906137f9565b60405180910390fd5b600073ffffffffffffffffffffffffffffffffffffffff168473ffffffffffffffffffffffffffffffffffffffff16036128485760006040517f94280d6200000000000000000000000000000000000000000000000000000000815260040161283f91906137f9565b60405180910390fd5b828160010160008773ffffffffffffffffffffffffffffffffffffffff1673ffffffffffffffffffffffffffffffffffffffff16815260200190815260200160002060008673ffffffffffffffffffffffffffffffffffffffff1673ffffffffffffffffffffffffffffffffffffffff168152602001908152602001600020819055508115612937578373ffffffffffffffffffffffffffffffffffffffff168573ffffffffffffffffffffffffffffffffffffffff167f8c5be1e5ebec7d5bd14f71427d1e84f3dd0314c0f7b2291e5b200ac8c7c3b9258560405161292e9190613572565b60405180910390a35b5050505050565b600080602060008451602086016000885af180612961576040513d6000823e3d81fd5b3d92506000519150506000821461297c576001811415612998565b60008473ffffffffffffffffffffffffffffffffffffffff163b145b156129da57836040517f5274afe70000000000000000000000000000000000000000000000000000000081526004016129d191906137f9565b60405180910390fd5b50505050565b60006129ea611fbe565b9050600073ffffffffffffffffffffffffffffffffffffffff168473ffffffffffffffffffffffffffffffffffffffff1603612a405781816002016000828254612a349190613b3d565b92505081905550612b19565b60008160000160008673ffffffffffffffffffffffffffffffffffffffff1673ffffffffffffffffffffffffffffffffffffffff16815260200190815260200160002054905082811015612acf578481846040517fe450d38c000000000000000000000000000000000000000000000000000000008152600401612ac693929190613ce6565b60405180910390fd5b8281038260000160008773ffffffffffffffffffffffffffffffffffffffff1673ffffffffffffffffffffffffffffffffffffffff16815260200190815260200160002081905550505b600073ffffffffffffffffffffffffffffffffffffffff168373ffffffffffffffffffffffffffffffffffffffff1603612b6457818160020160008282540392505081905550612bb4565b818160000160008573ffffffffffffffffffffffffffffffffffffffff1673ffffffffffffffffffffffffffffffffffffffff168152602001908152602001600020600082825401925050819055505b8273ffffffffffffffffffffffffffffffffffffffff168473ffffffffffffffffffffffffffffffffffffffff167fddf252ad1be2c89b69c2b068fc378daa952ba7f163c4a11628f55a4df523b3ef84604051612c119190613572565b60405180910390a350505050565b60007f9b779b17422d0df92223018b32b4d1fa46e071723d6817e2486d003becc55f00905090565b60008054906101000a900473ffffffffffffffffffffffffffffffffffffffff1673ffffffffffffffffffffffffffffffffffffffff166391d1485483836040518363ffffffff1660e01b8152600401612ca29291906141cb565b602060405180830381865afa158015612cbf573d6000803e3d6000fd5b505050506040513d601f19601f82011682018060405250810190612ce39190613e83565b612d5a57612cf08161306a565b612cfe8360001c6020613097565b604051602001612d0f9291906142c8565b6040516020818303038152906040526040517f08c379a0000000000000000000000000000000000000000000000000000000008152600401612d51919061360c565b60405180910390fd5b5050565b6000612d686122bc565b9050612d9a8160000160009054906101000a900473ffffffffffffffffffffffffffffffffffffffff168630866120b2565b612da484836132dd565b8373ffffffffffffffffffffffffffffffffffffffff168573ffffffffffffffffffffffffffffffffffffffff167fdcbc1c05240f31ff3ad067ef1ee35ce4997762752e3a095284754544f4c709d78585604051612e03929190614173565b60405180910390a35050505050565b612e1a61335f565b612e50576040517fd7e6bcf800000000000000000000000000000000000000000000000000000000815260040160405180910390fd5b565b612e5a612e12565b612e6261337f565b565b612e6c612e12565b565b612e76612e12565b6000612e80611fbe565b905082816003019081612e9391906144d3565b5081816004019081612ea591906144d3565b50505050565b612eb3612e12565b6000612ebd6122bc565b9050600080612ecb846133a0565b9150915081612edb576012612edd565b805b8360000160146101000a81548160ff021916908360ff160217905550838360000160006101000a81548173ffffffffffffffffffffffffffffffffffffffff021916908373ffffffffffffffffffffffffffffffffffffffff16021790555050505050565b600060016002836003811115612f5b57612f5a6145a5565b5b612f6591906145d4565b60ff16149050919050565b60008115159050919050565b6000808385029050600080198587098281108382030391505060008103612fb757838281612fad57612fac61419c565b5b0492505050613063565b808411612fd757612fd6612fd160008614601260116134b0565b6134ca565b5b600084868809905082811182039150808303925060008560000386169050808604955080840493506001818260000304019050808302841793506000600287600302189050808702600203810290508087026002038102905080870260020381029050808702600203810290508087026002038102905080870260020381029050808502955050505050505b9392505050565b60606130908273ffffffffffffffffffffffffffffffffffffffff16601460ff16613097565b9050919050565b60606000839050600060028460026130af9190614605565b6130b99190613b3d565b67ffffffffffffffff8111156130d2576130d1614302565b5b6040519080825280601f01601f1916602001820160405280156131045781602001600182028036833780820191505090505b5090507f30000000000000000000000000000000000000000000000000000000000000008160008151811061313c5761313b614647565b5b60200101907effffffffffffffffffffffffffffffffffffffffffffffffffffffffffffff1916908160001a9053507f7800000000000000000000000000000000000000000000000000000000000000816001815181106131a05761319f614647565b5b60200101907effffffffffffffffffffffffffffffffffffffffffffffffffffffffffffff1916908160001a905350600060018560026131e09190614605565b6131ea9190613b3d565b90505b600181111561328a577f3031323334353637383961626364656600000000000000000000000000000000600f84166010811061322c5761322b614647565b5b1a60f81b82828151811061324357613242614647565b5b60200101907effffffffffffffffffffffffffffffffffffffffffffffffffffffffffffff1916908160001a905350600483901c92508061328390614676565b90506131ed565b50600082146132d25784846040517fe22e27eb0000000000000000000000000000000000000000000000000000000081526004016132c9929190614173565b60405180910390fd5b809250505092915050565b600073ffffffffffffffffffffffffffffffffffffffff168273ffffffffffffffffffffffffffffffffffffffff160361334f5760006040517fec442f0500000000000000000000000000000000000000000000000000000000815260040161334691906137f9565b60405180910390fd5b61335b600083836129e0565b5050565b600061336961265c565b60000160089054906101000a900460ff16905090565b613387612e12565b6000613391612c1f565b90506001816000018190555050565b6000806000808473ffffffffffffffffffffffffffffffffffffffff1660405160240160405160208183030381529060405263313ce56760e01b6020820180517bffffffffffffffffffffffffffffffffffffffffffffffffffffffff838183161783525050505060405161341591906146e6565b600060405180830381855afa9150503d8060008114613450576040519150601f19603f3d011682016040523d82523d6000602084013e613455565b606091505b509150915081801561346957506020815110155b156134a1576000818060200190518101906134849190613c27565b905060ff8016811161349f57600181945094505050506134ab565b505b6000809350935050505b915091565b60006134bb84612f70565b82841802821890509392505050565b634e487b71600052806020526024601cfd5b600082825260208201905092915050565b7f426173653a206e6f7420737570706f7274204d65746973207472616e73666572600082015250565b60006135236020836134dc565b915061352e826134ed565b602082019050919050565b6000602082019050818103600083015261355281613516565b9050919050565b6000819050919050565b61356c81613559565b82525050565b60006020820190506135876000830184613563565b92915050565b600081519050919050565b60005b838110156135b657808201518184015260208101905061359b565b60008484015250505050565b6000601f19601f8301169050919050565b60006135de8261358d565b6135e881856134dc565b93506135f8818560208601613598565b613601816135c2565b840191505092915050565b6000602082019050818103600083015261362681846135d3565b905092915050565b600080fd5b61363c81613559565b811461364757600080fd5b50565b60008135905061365981613633565b92915050565b6000602082840312156136755761367461362e565b5b60006136838482850161364a565b91505092915050565b600073ffffffffffffffffffffffffffffffffffffffff82169050919050565b60006136b78261368c565b9050919050565b6136c7816136ac565b81146136d257600080fd5b50565b6000813590506136e4816136be565b92915050565b600080604083850312156137015761370061362e565b5b600061370f858286016136d5565b92505060206137208582860161364a565b9150509250929050565b60008115159050919050565b61373f8161372a565b82525050565b600060208201905061375a6000830184613736565b92915050565b6000806000606084860312156137795761377861362e565b5b6000613787868287016136d5565b9350506020613798868287016136d5565b92505060406137a98682870161364a565b9150509250925092565b600060ff82169050919050565b6137c9816137b3565b82525050565b60006020820190506137e460008301846137c0565b92915050565b6137f3816136ac565b82525050565b600060208201905061380e60008301846137ea565b92915050565b60006020828403121561382a5761382961362e565b5b6000613838848285016136d5565b91505092915050565b600080604083850312156138585761385761362e565b5b60006138668582860161364a565b9250506020613877858286016136d5565b9150509250929050565b6000819050919050565b61389481613881565b82525050565b60006020820190506138af600083018461388b565b92915050565b6000819050919050565b60006138da6138d56138d08461368c565b6138b5565b61368c565b9050919050565b60006138ec826138bf565b9050919050565b60006138fe826138e1565b9050919050565b61390e816138f3565b82525050565b60006020820190506139296000830184613905565b92915050565b6000806000606084860312156139485761394761362e565b5b60006139568682870161364a565b9350506020613967868287016136d5565b9250506040613978868287016136d5565b9150509250925092565b600080604083850312156139995761399861362e565b5b60006139a7858286016136d5565b92505060206139b8858286016136d5565b9150509250929050565b600067ffffffffffffffff82169050919050565b6139df816139c2565b82525050565b60006020820190506139fa60008301846139d6565b92915050565b7f4e487b7100000000000000000000000000000000000000000000000000000000600052602260045260246000fd5b60006002820490506001821680613a4757607f821691505b602082108103613a5a57613a59613a00565b5b50919050565b600081519050613a6f816136be565b92915050565b600060208284031215613a8b57613a8a61362e565b5b6000613a9984828501613a60565b91505092915050565b7f696e7465726e616c206f6e6c7900000000000000000000000000000000000000600082015250565b6000613ad8600d836134dc565b9150613ae382613aa2565b602082019050919050565b60006020820190508181036000830152613b0781613acb565b9050919050565b7f4e487b7100000000000000000000000000000000000000000000000000000000600052601160045260246000fd5b6000613b4882613559565b9150613b5383613559565b9250828201905080821115613b6b57613b6a613b0e565b5b92915050565b6000613b7c826137b3565b9150613b87836137b3565b9250828201905060ff811115613ba057613b9f613b0e565b5b92915050565b7f4d657469735472616e736665723a20496e76616c696420616d6f756e74000000600082015250565b6000613bdc601d836134dc565b9150613be782613ba6565b602082019050919050565b60006020820190508181036000830152613c0b81613bcf565b9050919050565b600081519050613c2181613633565b92915050565b600060208284031215613c3d57613c3c61362e565b5b6000613c4b84828501613c12565b91505092915050565b7f4d657469735472616e736665723a20496e73756666696369656e742062616c6160008201527f6e63650000000000000000000000000000000000000000000000000000000000602082015250565b6000613cb06023836134dc565b9150613cbb82613c54565b604082019050919050565b60006020820190508181036000830152613cdf81613ca3565b9050919050565b6000606082019050613cfb60008301866137ea565b613d086020830185613563565b613d156040830184613563565b949350505050565b7f56656c69785661756c743a2063616c6c6572206973206e6f7420726564656d7060008201527f74696f6e51756575650000000000000000000000000000000000000000000000602082015250565b6000613d796029836134dc565b9150613d8482613d1d565b604082019050919050565b60006020820190508181036000830152613da881613d6c565b9050919050565b6000819050919050565b6000613dd4613dcf613dca84613daf565b6138b5565b6139c2565b9050919050565b613de481613db9565b82525050565b6000602082019050613dff6000830184613ddb565b92915050565b6000604082019050613e1a60008301856137ea565b613e2760208301846137ea565b9392505050565b6000604082019050613e4360008301856137ea565b613e506020830184613563565b9392505050565b613e608161372a565b8114613e6b57600080fd5b50565b600081519050613e7d81613e57565b92915050565b600060208284031215613e9957613e9861362e565b5b6000613ea784828501613e6e565b91505092915050565b6000819050919050565b600063ffffffff82169050919050565b6000613ee5613ee0613edb84613eb0565b6138b5565b613eba565b9050919050565b613ef581613eca565b82525050565b600082825260208201905092915050565b50565b6000613f1c600083613efb565b9150613f2782613f0c565b600082019050919050565b600060a082019050613f4760008301876137ea565b613f5460208301866137ea565b613f616040830185613563565b613f6e6060830184613eec565b8181036080830152613f7f81613f0f565b905095945050505050565b60008160011c9050919050565b6000808291508390505b6001851115613fe157808604811115613fbd57613fbc613b0e565b5b6001851615613fcc5780820291505b8081029050613fda85613f8a565b9450613fa1565b94509492505050565b600082613ffa57600190506140b6565b8161400857600090506140b6565b816001811461401e576002811461402857614057565b60019150506140b6565b60ff84111561403a57614039613b0e565b5b8360020a91508482111561405157614050613b0e565b5b506140b6565b5060208310610133831016604e8410600b841016171561408c5782820a90508381111561408757614086613b0e565b5b6140b6565b6140998484846001613f97565b925090508184048111156140b0576140af613b0e565b5b81810290505b9392505050565b60006140c882613559565b91506140d3836137b3565b92506141007fffffffffffffffffffffffffffffffffffffffffffffffffffffffffffffffff8484613fea565b905092915050565b600060608201905061411d60008301866137ea565b61412a60208301856137ea565b6141376040830184613563565b949350505050565b600061414a82613559565b915061415583613559565b925082820390508181111561416d5761416c613b0e565b5b92915050565b60006040820190506141886000830185613563565b6141956020830184613563565b9392505050565b7f4e487b7100000000000000000000000000000000000000000000000000000000600052601260045260246000fd5b60006040820190506141e0600083018561388b565b6141ed60208301846137ea565b9392505050565b600081905092915050565b7f416363657373436f6e74726f6c3a206163636f756e7420000000000000000000600082015250565b60006142356017836141f4565b9150614240826141ff565b601782019050919050565b60006142568261358d565b61426081856141f4565b9350614270818560208601613598565b80840191505092915050565b7f206973206d697373696e6720726f6c6520000000000000000000000000000000600082015250565b60006142b26011836141f4565b91506142bd8261427c565b601182019050919050565b60006142d382614228565b91506142df828561424b565b91506142ea826142a5565b91506142f6828461424b565b91508190509392505050565b7f4e487b7100000000000000000000000000000000000000000000000000000000600052604160045260246000fd5b60008190508160005260206000209050919050565b60006020601f8301049050919050565b600082821b905092915050565b6000600883026143937fffffffffffffffffffffffffffffffffffffffffffffffffffffffffffffffff82614356565b61439d8683614356565b95508019841693508086168417925050509392505050565b60006143d06143cb6143c684613559565b6138b5565b613559565b9050919050565b6000819050919050565b6143ea836143b5565b6143fe6143f6826143d7565b848454614363565b825550505050565b600090565b614413614406565b61441e8184846143e1565b505050565b5b818110156144425761443760008261440b565b600181019050614424565b5050565b601f8211156144875761445881614331565b61446184614346565b81016020851015614470578190505b61448461447c85614346565b830182614423565b50505b505050565b600082821c905092915050565b60006144aa6000198460080261448c565b1980831691505092915050565b60006144c38383614499565b9150826002028217905092915050565b6144dc8261358d565b67ffffffffffffffff8111156144f5576144f4614302565b5b6144ff8254613a2f565b61450a828285614446565b600060209050601f83116001811461453d576000841561452b578287015190505b61453585826144b7565b86555061459d565b601f19841661454b86614331565b60005b828110156145735784890151825560018201915060208501945060208101905061454e565b86831015614590578489015161458c601f891682614499565b8355505b6001600288020188555050505b505050505050565b7f4e487b7100000000000000000000000000000000000000000000000000000000600052602160045260246000fd5b60006145df826137b3565b91506145ea836137b3565b9250826145fa576145f961419c565b5b828206905092915050565b600061461082613559565b915061461b83613559565b925082820261462981613559565b915082820484148315176146405761463f613b0e565b5b5092915050565b7f4e487b7100000000000000000000000000000000000000000000000000000000600052603260045260246000fd5b600061468182613559565b91506000820361469457614693613b0e565b5b600182039050919050565b600081519050919050565b600081905092915050565b60006146c08261469f565b6146ca81856146aa565b93506146da818560208601613598565b80840191505092915050565b60006146f282846146b5565b91508190509291505056fea2646970667358221220df18394ab991376a1dd163f4cec373d673a73bd0db4dbf79b07b048f9d63eea864736f6c63430008140033",
  "linkReferences": {},
  "deployedLinkReferences": {}
}