{
  "_format": "hh-sol-artifact-1",
  "contractName": "VeMetisMinter",
  "sourceName": "contracts/VeMetisMinter.sol",
  "abi": [
    {
      "inputs": [
        {
          "internalType": "address",
          "name": "target",
          "type": "address"
        }
      ],
      "name": "AddressEmptyCode",
      "type": "error"
    },
    {
      "inputs": [
        {
          "internalType": "address",
          "name": "account",
          "type": "address"
        }
      ],
      "name": "AddressInsufficientBalance",
      "type": "error"
    },
    {
      "inputs": [],
      "name": "FailedInnerCall",
      "type": "error"
    },
    {
      "inputs": [],
      "name": "InvalidInitialization",
      "type": "error"
    },
    {
      "inputs": [],
      "name": "NotInitializing",
      "type": "error"
    },
    {
      "inputs": [
        {
          "internalType": "address",
          "name": "token",
          "type": "address"
        }
      ],
      "name": "SafeERC20FailedOperation",
      "type": "error"
    },
    {
      "inputs": [
        {
          "internalType": "uint256",
          "name": "value",
          "type": "uint256"
        },
        {
          "internalType": "uint256",
          "name": "length",
          "type": "uint256"
        }
      ],
      "name": "StringsInsufficientHexLength",
      "type": "error"
    },
    {
      "anonymous": false,
      "inputs": [
        {
          "indexed": false,
          "internalType": "uint64",
          "name": "version",
          "type": "uint64"
        }
      ],
      "name": "Initialized",
      "type": "event"
    },
    {
      "anonymous": false,
      "inputs": [
        {
          "indexed": false,
          "internalType": "uint256",
          "name": "amount",
          "type": "uint256"
        }
      ],
      "name": "Staked",
      "type": "event"
    },
    {
      "inputs": [],
      "name": "BETA_USER_ROLE",
      "outputs": [
        {
          "internalType": "bytes32",
          "name": "",
          "type": "bytes32"
        }
      ],
      "stateMutability": "view",
      "type": "function"
    },
    {
      "inputs": [],
      "name": "DEFAULT_ADMIN_ROLE",
      "outputs": [
        {
          "internalType": "bytes32",
          "name": "",
          "type": "bytes32"
        }
      ],
      "stateMutability": "view",
      "type": "function"
    },
    {
      "inputs": [],
      "name": "INTERNAL_ROLE",
      "outputs": [
        {
          "internalType": "bytes32",
          "name": "",
          "type": "bytes32"
        }
      ],
      "stateMutability": "view",
      "type": "function"
    },
    {
      "inputs": [],
      "name": "bridge",
      "outputs": [
        {
          "internalType": "address",
          "name": "",
          "type": "address"
        }
      ],
      "stateMutability": "view",
      "type": "function"
    },
    {
      "inputs": [],
      "name": "config",
      "outputs": [
        {
          "internalType": "contract IConfig",
          "name": "",
          "type": "address"
        }
      ],
      "stateMutability": "view",
      "type": "function"
    },
    {
      "inputs": [],
      "name": "crossDomainMessenger",
      "outputs": [
        {
          "internalType": "address",
          "name": "",
          "type": "address"
        }
      ],
      "stateMutability": "view",
      "type": "function"
    },
    {
      "inputs": [
        {
          "internalType": "address",
          "name": "_config",
          "type": "address"
        }
      ],
      "name": "initialize",
      "outputs": [],
      "stateMutability": "nonpayable",
      "type": "function"
    },
    {
      "inputs": [],
      "name": "metis",
      "outputs": [
        {
          "internalType": "address",
          "name": "",
          "type": "address"
        }
      ],
      "stateMutability": "view",
      "type": "function"
    },
    {
      "inputs": [
        {
          "internalType": "address",
          "name": "account",
          "type": "address"
        },
        {
          "internalType": "uint256",
          "name": "amount",
          "type": "uint256"
        }
      ],
      "name": "mint",
      "outputs": [],
      "stateMutability": "nonpayable",
      "type": "function"
    },
    {
      "inputs": [
        {
          "internalType": "uint256",
          "name": "amount",
          "type": "uint256"
        }
      ],
      "name": "mintFromL1",
      "outputs": [],
      "stateMutability": "nonpayable",
      "type": "function"
    },
    {
      "inputs": [],
      "name": "rewardDispatcher",
      "outputs": [
        {
          "internalType": "address",
          "name": "",
          "type": "address"
        }
      ],
      "stateMutability": "view",
      "type": "function"
    },
    {
      "inputs": [],
      "name": "setRewardDispatcher",
      "outputs": [],
      "stateMutability": "nonpayable",
      "type": "function"
    },
    {
      "inputs": [
        {
          "internalType": "uint256",
          "name": "amount",
          "type": "uint256"
        }
      ],
      "name": "stake",
      "outputs": [],
      "stateMutability": "payable",
      "type": "function"
    },
    {
      "inputs": [],
      "name": "sveMetis",
      "outputs": [
        {
          "internalType": "address",
          "name": "",
          "type": "address"
        }
      ],
      "stateMutability": "view",
      "type": "function"
    },
    {
      "inputs": [],
      "name": "veMetis",
      "outputs": [
        {
          "internalType": "address",
          "name": "",
          "type": "address"
        }
      ],
      "stateMutability": "view",
      "type": "function"
    },
    {
      "stateMutability": "payable",
      "type": "receive"
    }
  ],
  "bytecode": "0x608060405234801561001057600080fd5b50611522806100206000396000f3fe6080604052600436106100ec5760003560e01c8063a694fc3a1161008a578063e78cea9211610059578063e78cea9214610306578063eb82afb314610326578063ed34566414610346578063f43b36131461035b57600080fd5b8063a694fc3a1461027f578063beff682414610292578063c4d66de8146102c6578063e5974554146102e657600080fd5b806379502c55116100c657806379502c551461020a5780639336ce801461022a578063a217fddf1461024a578063a21914701461025f57600080fd5b8063219519551461016957806340c10f19146101a65780635629ffd0146101c857600080fd5b366101645760405162461bcd60e51b815260206004820152602760248201527f56654d657469734d696e7465723a206e6f7420737570706f727420455448207460448201527f72616e736665720000000000000000000000000000000000000000000000000060648201526084015b60405180910390fd5b600080fd5b34801561017557600080fd5b50601f54610189906001600160a01b031681565b6040516001600160a01b0390911681526020015b60405180910390f35b3480156101b257600080fd5b506101c66101c13660046112e4565b61037b565b005b3480156101d457600080fd5b506101fc7feac7d12e691a65e32c753f5314b9ac42acdb8dd77f0033b2f2a2e2e012122a0d81565b60405190815260200161019d565b34801561021657600080fd5b50600054610189906001600160a01b031681565b34801561023657600080fd5b50602054610189906001600160a01b031681565b34801561025657600080fd5b506101fc600081565b34801561026b57600080fd5b50602154610189906001600160a01b031681565b6101c661028d366004611310565b6103fd565b34801561029e57600080fd5b506101fc7fddd94edc7da5bca8f576c77964a4737ba5172c728e2d539e672f0229d1e9ec2d81565b3480156102d257600080fd5b506101c66102e1366004611329565b61064c565b3480156102f257600080fd5b50602254610189906001600160a01b031681565b34801561031257600080fd5b50602354610189906001600160a01b031681565b34801561033257600080fd5b506101c6610341366004611310565b610a05565b34801561035257600080fd5b506101c6610c6a565b34801561036757600080fd5b50602454610189906001600160a01b031681565b610393336022546001600160a01b0316903084610dc9565b6020546040516340c10f1960e01b81526001600160a01b03848116600483015260248201849052909116906340c10f1990604401600060405180830381600087803b1580156103e157600080fd5b505af11580156103f5573d6000803e3d6000fd5b505050505050565b602254602354604051636eb1769f60e11b81523060048201526001600160a01b0391821660248201528392919091169063dd62ed3e90604401602060405180830381865afa158015610453573d6000803e3d6000fd5b505050506040513d601f19601f820116820180604052508101906104779190611346565b10156104f95760225460235460405163095ea7b360e01b81526001600160a01b039182166004820152600019602482015291169063095ea7b3906044016020604051808303816000875af11580156104d3573d6000803e3d6000fd5b505050506040513d601f19601f820116820180604052508101906104f7919061135f565b505b6023546022546000546040805163a2be57ad60e01b815290516001600160a01b039485169463a3a795489434949082169391169163a2be57ad916004808201926020929091908290030181865afa158015610558573d6000803e3d6000fd5b505050506040513d601f19601f8201168201806040525081019061057c9190611381565b6040517fffffffff0000000000000000000000000000000000000000000000000000000060e086901b1681526001600160a01b039283166004820152911660248201526044810185905260006064820181905260a0608483015260a482015260c4016000604051808303818588803b1580156105f757600080fd5b505af115801561060b573d6000803e3d6000fd5b50505050507feebbaa86c348cb664e392b180fd0ff2e1998af9fa833ef69a778cb0b42d3ca278160405161064191815260200190565b60405180910390a150565b7ff0c57e16840df040f15088dc2f81fe391c3923bec73e23a9662efc9c229c6a00805468010000000000000000810460ff16159067ffffffffffffffff166000811580156106975750825b905060008267ffffffffffffffff1660011480156106b45750303b155b9050811580156106c2575080155b156106e05760405163f92ee8a960e01b815260040160405180910390fd5b845467ffffffffffffffff19166001178555831561071457845468ff00000000000000001916680100000000000000001785555b61071d86610e3e565b60008054906101000a90046001600160a01b03166001600160a01b0316639336ce806040518163ffffffff1660e01b8152600401602060405180830381865afa15801561076e573d6000803e3d6000fd5b505050506040513d601f19601f820116820180604052508101906107929190611381565b602080546001600160a01b0319166001600160a01b0392831617815560005460408051630a21914760e41b81529051919093169263a21914709260048083019391928290030181865afa1580156107ed573d6000803e3d6000fd5b505050506040513d601f19601f820116820180604052508101906108119190611381565b602180546001600160a01b0319166001600160a01b0392831617905560005460408051633965d15560e21b81529051919092169163e59745549160048083019260209291908290030181865afa15801561086f573d6000803e3d6000fd5b505050506040513d601f19601f820116820180604052508101906108939190611381565b602280546001600160a01b0319166001600160a01b03928316179055600054604080516373c6754960e11b81529051919092169163e78cea929160048083019260209291908290030181865afa1580156108f1573d6000803e3d6000fd5b505050506040513d601f19601f820116820180604052508101906109159190611381565b602380546001600160a01b0319166001600160a01b0392909216918217905560408051633cb747bf60e01b81529051633cb747bf916004808201926020929091908290030181865afa15801561096f573d6000803e3d6000fd5b505050506040513d601f19601f820116820180604052508101906109939190611381565b602480546001600160a01b0319166001600160a01b039290921691909117905583156103f557845468ff000000000000000019168555604051600181527fc7f505b2f371ae2175ee4913f4499e1f2633a7b5936321eed1cdaeb6115181d29060200160405180910390a1505050505050565b6024546001600160a01b0316336001600160a01b031614610a8e5760405162461bcd60e51b815260206004820152603560248201527f56654d657469734d696e7465723a2063616c6c6572206973206e6f742074686560448201527f2063726f7373446f6d61696e4d657373656e6765720000000000000000000000606482015260840161015b565b60008054906101000a90046001600160a01b03166001600160a01b031663a2be57ad6040518163ffffffff1660e01b8152600401602060405180830381865afa158015610adf573d6000803e3d6000fd5b505050506040513d601f19601f82011682018060405250810190610b039190611381565b6001600160a01b0316602460009054906101000a90046001600160a01b03166001600160a01b0316636e296e456040518163ffffffff1660e01b8152600401602060405180830381865afa158015610b5f573d6000803e3d6000fd5b505050506040513d601f19601f82011682018060405250810190610b839190611381565b6001600160a01b031614610bff5760405162461bcd60e51b815260206004820152602960248201527f56654d657469734d696e7465723a2063616c6c6572206973206e6f742074686560448201527f206c314465616c65720000000000000000000000000000000000000000000000606482015260840161015b565b602054601f546040516340c10f1960e01b81526001600160a01b039182166004820152602481018490529116906340c10f1990604401600060405180830381600087803b158015610c4f57600080fd5b505af1158015610c63573d6000803e3d6000fd5b5050505050565b600080546001600160a01b03166391d148547fddd94edc7da5bca8f576c77964a4737ba5172c728e2d539e672f0229d1e9ec2d336040517fffffffff0000000000000000000000000000000000000000000000000000000060e085901b16815260048101929092526001600160a01b03166024820152604401602060405180830381865afa158015610d00573d6000803e3d6000fd5b505050506040513d601f19601f82011682018060405250810190610d24919061135f565b610d3157610d3181610e68565b60008054906101000a90046001600160a01b03166001600160a01b031663219519556040518163ffffffff1660e01b8152600401602060405180830381865afa158015610d82573d6000803e3d6000fd5b505050506040513d601f19601f82011682018060405250810190610da69190611381565b601f80546001600160a01b0319166001600160a01b039290921691909117905550565b604080516001600160a01b0385811660248301528416604482015260648082018490528251808303909101815260849091019091526020810180517bffffffffffffffffffffffffffffffffffffffffffffffffffffffff166323b872dd60e01b179052610e38908590610e75565b50505050565b610e46610edd565b600080546001600160a01b0319166001600160a01b0392909216919091179055565b610e728133610f2d565b50565b6000610e8a6001600160a01b03841683610ff5565b90508051600014158015610eaf575080806020019051810190610ead919061135f565b155b15610ed857604051635274afe760e01b81526001600160a01b038416600482015260240161015b565b505050565b7ff0c57e16840df040f15088dc2f81fe391c3923bec73e23a9662efc9c229c6a005468010000000000000000900460ff16610f2b57604051631afcd79f60e31b815260040160405180910390fd5b565b600054604051632474521560e21b8152600481018490526001600160a01b038381166024830152909116906391d1485490604401602060405180830381865afa158015610f7e573d6000803e3d6000fd5b505050506040513d601f19601f82011682018060405250810190610fa2919061135f565b610ff157610faf8161100c565b610fba83602061101e565b604051602001610fcb9291906113c2565b60408051601f198184030181529082905262461bcd60e51b825261015b91600401611443565b5050565b6060611003838360006111ab565b90505b92915050565b60606110066001600160a01b03831660145b606082600061102e84600261148c565b6110399060026114a3565b67ffffffffffffffff811115611051576110516114b6565b6040519080825280601f01601f19166020018201604052801561107b576020820181803683370190505b509050600360fc1b81600081518110611096576110966114cc565b60200101906001600160f81b031916908160001a905350600f60fb1b816001815181106110c5576110c56114cc565b60200101906001600160f81b031916908160001a90535060006110e985600261148c565b6110f49060016114a3565b90505b6001811115611179577f303132333435363738396162636465660000000000000000000000000000000083600f1660108110611135576111356114cc565b1a60f81b82828151811061114b5761114b6114cc565b60200101906001600160f81b031916908160001a90535060049290921c91611172816114e2565b90506110f7565b5081156111a35760405163e22e27eb60e01b8152600481018690526024810185905260440161015b565b949350505050565b6060814710156111d05760405163cd78605960e01b815230600482015260240161015b565b600080856001600160a01b031684866040516111ec91906114f9565b60006040518083038185875af1925050503d8060008114611229576040519150601f19603f3d011682016040523d82523d6000602084013e61122e565b606091505b509150915061123e86838361124a565b925050505b9392505050565b60608261125f5761125a826112a6565b611243565b815115801561127657506001600160a01b0384163b155b1561129f57604051639996b31560e01b81526001600160a01b038516600482015260240161015b565b5080611243565b8051156112b65780518082602001fd5b604051630a12f52160e11b815260040160405180910390fd5b6001600160a01b0381168114610e7257600080fd5b600080604083850312156112f757600080fd5b8235611302816112cf565b946020939093013593505050565b60006020828403121561132257600080fd5b5035919050565b60006020828403121561133b57600080fd5b8135611243816112cf565b60006020828403121561135857600080fd5b5051919050565b60006020828403121561137157600080fd5b8151801515811461124357600080fd5b60006020828403121561139357600080fd5b8151611243816112cf565b60005b838110156113b95781810151838201526020016113a1565b50506000910152565b7f416363657373436f6e74726f6c3a206163636f756e74200000000000000000008152600083516113fa81601785016020880161139e565b7f206973206d697373696e6720726f6c6520000000000000000000000000000000601791840191820152835161143781602884016020880161139e565b01602801949350505050565b602081526000825180602084015261146281604085016020870161139e565b601f01601f19169190910160400192915050565b634e487b7160e01b600052601160045260246000fd5b808202811582820484141761100657611006611476565b8082018082111561100657611006611476565b634e487b7160e01b600052604160045260246000fd5b634e487b7160e01b600052603260045260246000fd5b6000816114f1576114f1611476565b506000190190565b6000825161150b81846020870161139e565b919091019291505056fea164736f6c6343000814000a",
  "linkReferences": {},
  "deployedLinkReferences": {}
}