{
  "_format": "hh-sol-artifact-1",
  "contractName": "Config",
  "sourceName": "contracts/Config.sol",
  "abi": [
    {
      "inputs": [],
      "name": "InvalidInitialization",
      "type": "error"
    },
    {
      "inputs": [],
      "name": "NotInitializing",
      "type": "error"
    },
    {
      "inputs": [],
      "name": "ReentrancyGuardReentrantCall",
      "type": "error"
    },
    {
      "inputs": [
        {
          "internalType": "uint256",
          "name": "value",
          "type": "uint256"
        },
        {
          "internalType": "uint256",
          "name": "length",
          "type": "uint256"
        }
      ],
      "name": "StringsInsufficientHexLength",
      "type": "error"
    },
    {
      "anonymous": false,
      "inputs": [
        {
          "indexed": false,
          "internalType": "uint64",
          "name": "oldValue",
          "type": "uint64"
        },
        {
          "indexed": false,
          "internalType": "uint64",
          "name": "newValue",
          "type": "uint64"
        }
      ],
      "name": "CancelRedemptionFeeSet",
      "type": "event"
    },
    {
      "anonymous": false,
      "inputs": [
        {
          "indexed": false,
          "internalType": "uint64",
          "name": "version",
          "type": "uint64"
        }
      ],
      "name": "Initialized",
      "type": "event"
    },
    {
      "anonymous": false,
      "inputs": [
        {
          "indexed": false,
          "internalType": "uint64",
          "name": "oldValue",
          "type": "uint64"
        },
        {
          "indexed": false,
          "internalType": "uint64",
          "name": "newValue",
          "type": "uint64"
        }
      ],
      "name": "MinQueueLengthSecs",
      "type": "event"
    },
    {
      "anonymous": false,
      "inputs": [
        {
          "indexed": false,
          "internalType": "bool",
          "name": "oldValue",
          "type": "bool"
        },
        {
          "indexed": false,
          "internalType": "bool",
          "name": "newValue",
          "type": "bool"
        }
      ],
      "name": "PausedSet",
      "type": "event"
    },
    {
      "anonymous": false,
      "inputs": [
        {
          "indexed": false,
          "internalType": "uint64",
          "name": "oldValue",
          "type": "uint64"
        },
        {
          "indexed": false,
          "internalType": "uint64",
          "name": "newValue",
          "type": "uint64"
        }
      ],
      "name": "QueueLengthSecsSet",
      "type": "event"
    },
    {
      "anonymous": false,
      "inputs": [
        {
          "indexed": false,
          "internalType": "uint64",
          "name": "oldValue",
          "type": "uint64"
        },
        {
          "indexed": false,
          "internalType": "uint64",
          "name": "newValue",
          "type": "uint64"
        }
      ],
      "name": "ReduceMaturityStakeSecsSet",
      "type": "event"
    },
    {
      "anonymous": false,
      "inputs": [
        {
          "indexed": true,
          "internalType": "bytes32",
          "name": "role",
          "type": "bytes32"
        },
        {
          "indexed": true,
          "internalType": "bytes32",
          "name": "previousAdminRole",
          "type": "bytes32"
        },
        {
          "indexed": true,
          "internalType": "bytes32",
          "name": "newAdminRole",
          "type": "bytes32"
        }
      ],
      "name": "RoleAdminChanged",
      "type": "event"
    },
    {
      "anonymous": false,
      "inputs": [
        {
          "indexed": true,
          "internalType": "bytes32",
          "name": "role",
          "type": "bytes32"
        },
        {
          "indexed": true,
          "internalType": "address",
          "name": "account",
          "type": "address"
        },
        {
          "indexed": true,
          "internalType": "address",
          "name": "senderFini",
          "type": "address"
        }
      ],
      "name": "RoleGranted",
      "type": "event"
    },
    {
      "anonymous": false,
      "inputs": [
        {
          "indexed": true,
          "internalType": "bytes32",
          "name": "role",
          "type": "bytes32"
        },
        {
          "indexed": true,
          "internalType": "address",
          "name": "account",
          "type": "address"
        },
        {
          "indexed": true,
          "internalType": "address",
          "name": "sender",
          "type": "address"
        }
      ],
      "name": "RoleRevoked",
      "type": "event"
    },
    {
      "inputs": [],
      "name": "ADDRESS_BRIDGE",
      "outputs": [
        {
          "internalType": "uint256",
          "name": "",
          "type": "uint256"
        }
      ],
      "stateMutability": "view",
      "type": "function"
    },
    {
      "inputs": [],
      "name": "ADDRESS_L1_DEALER",
      "outputs": [
        {
          "internalType": "uint256",
          "name": "",
          "type": "uint256"
        }
      ],
      "stateMutability": "view",
      "type": "function"
    },
    {
      "inputs": [],
      "name": "ADDRESS_METIS",
      "outputs": [
        {
          "internalType": "uint256",
          "name": "",
          "type": "uint256"
        }
      ],
      "stateMutability": "view",
      "type": "function"
    },
    {
      "inputs": [],
      "name": "ADDRESS_PROTOCOL_TREASURY",
      "outputs": [
        {
          "internalType": "uint256",
          "name": "",
          "type": "uint256"
        }
      ],
      "stateMutability": "view",
      "type": "function"
    },
    {
      "inputs": [],
      "name": "ADDRESS_REDEMPTION_QUEUE",
      "outputs": [
        {
          "internalType": "uint256",
          "name": "",
          "type": "uint256"
        }
      ],
      "stateMutability": "view",
      "type": "function"
    },
    {
      "inputs": [],
      "name": "ADDRESS_REWARD_DISPATCHER",
      "outputs": [
        {
          "internalType": "uint256",
          "name": "",
          "type": "uint256"
        }
      ],
      "stateMutability": "view",
      "type": "function"
    },
    {
      "inputs": [],
      "name": "ADDRESS_SVEMETIS",
      "outputs": [
        {
          "internalType": "uint256",
          "name": "",
          "type": "uint256"
        }
      ],
      "stateMutability": "view",
      "type": "function"
    },
    {
      "inputs": [],
      "name": "ADDRESS_VEMETIS",
      "outputs": [
        {
          "internalType": "uint256",
          "name": "",
          "type": "uint256"
        }
      ],
      "stateMutability": "view",
      "type": "function"
    },
    {
      "inputs": [],
      "name": "ADDRESS_VEMETIS_MINTER",
      "outputs": [
        {
          "internalType": "uint256",
          "name": "",
          "type": "uint256"
        }
      ],
      "stateMutability": "view",
      "type": "function"
    },
    {
      "inputs": [],
      "name": "ADMIN_ROLE",
      "outputs": [
        {
          "internalType": "bytes32",
          "name": "",
          "type": "bytes32"
        }
      ],
      "stateMutability": "view",
      "type": "function"
    },
    {
      "inputs": [],
      "name": "BACKEND_ROLE",
      "outputs": [
        {
          "internalType": "bytes32",
          "name": "",
          "type": "bytes32"
        }
      ],
      "stateMutability": "view",
      "type": "function"
    },
    {
      "inputs": [],
      "name": "DEFAULT_ADMIN_ROLE",
      "outputs": [
        {
          "internalType": "bytes32",
          "name": "",
          "type": "bytes32"
        }
      ],
      "stateMutability": "view",
      "type": "function"
    },
    {
      "inputs": [],
      "name": "FEE_PRECISION",
      "outputs": [
        {
          "internalType": "uint64",
          "name": "",
          "type": "uint64"
        }
      ],
      "stateMutability": "view",
      "type": "function"
    },
    {
      "inputs": [],
      "name": "INITIAL_DEPOSIT_AMOUNT",
      "outputs": [
        {
          "internalType": "uint256",
          "name": "",
          "type": "uint256"
        }
      ],
      "stateMutability": "view",
      "type": "function"
    },
    {
      "inputs": [],
      "name": "TIMELOCK_ROLE",
      "outputs": [
        {
          "internalType": "bytes32",
          "name": "",
          "type": "bytes32"
        }
      ],
      "stateMutability": "view",
      "type": "function"
    },
    {
      "inputs": [],
      "name": "UINT32_PROTOCOL_TREASURY_RATIO",
      "outputs": [
        {
          "internalType": "uint256",
          "name": "",
          "type": "uint256"
        }
      ],
      "stateMutability": "view",
      "type": "function"
    },
    {
      "inputs": [],
      "name": "UINT64_CANCEL_REDEMPTION_FEE",
      "outputs": [
        {
          "internalType": "uint256",
          "name": "",
          "type": "uint256"
        }
      ],
      "stateMutability": "view",
      "type": "function"
    },
    {
      "inputs": [],
      "name": "UINT64_MIN_QUEUE_LENGTH_SECS",
      "outputs": [
        {
          "internalType": "uint256",
          "name": "",
          "type": "uint256"
        }
      ],
      "stateMutability": "view",
      "type": "function"
    },
    {
      "inputs": [],
      "name": "UINT64_QUEUE_LENGTH_SECS",
      "outputs": [
        {
          "internalType": "uint256",
          "name": "",
          "type": "uint256"
        }
      ],
      "stateMutability": "view",
      "type": "function"
    },
    {
      "inputs": [],
      "name": "UINT64_REDEMPTION_FEE",
      "outputs": [
        {
          "internalType": "uint256",
          "name": "",
          "type": "uint256"
        }
      ],
      "stateMutability": "view",
      "type": "function"
    },
    {
      "inputs": [],
      "name": "UINT64_REDUCE_MATURITY_STAKE_SECS",
      "outputs": [
        {
          "internalType": "uint256",
          "name": "",
          "type": "uint256"
        }
      ],
      "stateMutability": "view",
      "type": "function"
    },
    {
      "inputs": [
        {
          "internalType": "bytes32",
          "name": "",
          "type": "bytes32"
        }
      ],
      "name": "_roles",
      "outputs": [
        {
          "internalType": "bytes32",
          "name": "adminRole",
          "type": "bytes32"
        },
        {
          "internalType": "bool",
          "name": "allowAll",
          "type": "bool"
        }
      ],
      "stateMutability": "view",
      "type": "function"
    },
    {
      "inputs": [],
      "name": "bridge",
      "outputs": [
        {
          "internalType": "address",
          "name": "",
          "type": "address"
        }
      ],
      "stateMutability": "view",
      "type": "function"
    },
    {
      "inputs": [],
      "name": "config",
      "outputs": [
        {
          "internalType": "contract IConfig",
          "name": "",
          "type": "address"
        }
      ],
      "stateMutability": "view",
      "type": "function"
    },
    {
      "inputs": [
        {
          "internalType": "uint256",
          "name": "",
          "type": "uint256"
        }
      ],
      "name": "configMap",
      "outputs": [
        {
          "internalType": "uint256",
          "name": "",
          "type": "uint256"
        }
      ],
      "stateMutability": "view",
      "type": "function"
    },
    {
      "inputs": [
        {
          "internalType": "bytes32",
          "name": "role",
          "type": "bytes32"
        }
      ],
      "name": "getRoleAdmin",
      "outputs": [
        {
          "internalType": "bytes32",
          "name": "",
          "type": "bytes32"
        }
      ],
      "stateMutability": "view",
      "type": "function"
    },
    {
      "inputs": [
        {
          "internalType": "bytes32",
          "name": "role",
          "type": "bytes32"
        },
        {
          "internalType": "address",
          "name": "account",
          "type": "address"
        }
      ],
      "name": "grantRole",
      "outputs": [],
      "stateMutability": "nonpayable",
      "type": "function"
    },
    {
      "inputs": [
        {
          "internalType": "bytes32",
          "name": "role",
          "type": "bytes32"
        },
        {
          "internalType": "address",
          "name": "account",
          "type": "address"
        }
      ],
      "name": "hasRole",
      "outputs": [
        {
          "internalType": "bool",
          "name": "",
          "type": "bool"
        }
      ],
      "stateMutability": "view",
      "type": "function"
    },
    {
      "inputs": [],
      "name": "initialize",
      "outputs": [],
      "stateMutability": "nonpayable",
      "type": "function"
    },
    {
      "inputs": [],
      "name": "l1Dealer",
      "outputs": [
        {
          "internalType": "address",
          "name": "",
          "type": "address"
        }
      ],
      "stateMutability": "view",
      "type": "function"
    },
    {
      "inputs": [],
      "name": "metis",
      "outputs": [
        {
          "internalType": "address",
          "name": "",
          "type": "address"
        }
      ],
      "stateMutability": "view",
      "type": "function"
    },
    {
      "inputs": [],
      "name": "protocolTreasury",
      "outputs": [
        {
          "internalType": "address",
          "name": "",
          "type": "address"
        }
      ],
      "stateMutability": "view",
      "type": "function"
    },
    {
      "inputs": [],
      "name": "protocolTreasuryRatio",
      "outputs": [
        {
          "internalType": "uint32",
          "name": "",
          "type": "uint32"
        }
      ],
      "stateMutability": "view",
      "type": "function"
    },
    {
      "inputs": [],
      "name": "queueLengthSecs",
      "outputs": [
        {
          "internalType": "uint64",
          "name": "",
          "type": "uint64"
        }
      ],
      "stateMutability": "view",
      "type": "function"
    },
    {
      "inputs": [],
      "name": "redemptionQueue",
      "outputs": [
        {
          "internalType": "address",
          "name": "",
          "type": "address"
        }
      ],
      "stateMutability": "view",
      "type": "function"
    },
    {
      "inputs": [
        {
          "internalType": "bytes32",
          "name": "role",
          "type": "bytes32"
        },
        {
          "internalType": "address",
          "name": "account",
          "type": "address"
        }
      ],
      "name": "renounceRole",
      "outputs": [],
      "stateMutability": "nonpayable",
      "type": "function"
    },
    {
      "inputs": [
        {
          "internalType": "bytes32",
          "name": "role",
          "type": "bytes32"
        },
        {
          "internalType": "address",
          "name": "account",
          "type": "address"
        }
      ],
      "name": "revokeRole",
      "outputs": [],
      "stateMutability": "nonpayable",
      "type": "function"
    },
    {
      "inputs": [],
      "name": "rewardDispatcher",
      "outputs": [
        {
          "internalType": "address",
          "name": "",
          "type": "address"
        }
      ],
      "stateMutability": "view",
      "type": "function"
    },
    {
      "inputs": [
        {
          "internalType": "address",
          "name": "_metis",
          "type": "address"
        },
        {
          "internalType": "address",
          "name": "_bridge",
          "type": "address"
        },
        {
          "internalType": "address",
          "name": "_protocolTreasury",
          "type": "address"
        },
        {
          "internalType": "uint32",
          "name": "_protocolTreasuryRatio",
          "type": "uint32"
        }
      ],
      "name": "setIntialValues",
      "outputs": [],
      "stateMutability": "nonpayable",
      "type": "function"
    },
    {
      "inputs": [
        {
          "internalType": "address",
          "name": "_l1Dealer",
          "type": "address"
        }
      ],
      "name": "setL1Dealer",
      "outputs": [],
      "stateMutability": "nonpayable",
      "type": "function"
    },
    {
      "inputs": [
        {
          "internalType": "address",
          "name": "_protocolTreasury",
          "type": "address"
        }
      ],
      "name": "setProtocolTreasury",
      "outputs": [],
      "stateMutability": "nonpayable",
      "type": "function"
    },
    {
      "inputs": [
        {
          "internalType": "uint32",
          "name": "_protocolTreasuryRatio",
          "type": "uint32"
        }
      ],
      "name": "setProtocolTreasuryRatio",
      "outputs": [],
      "stateMutability": "nonpayable",
      "type": "function"
    },
    {
      "inputs": [
        {
          "internalType": "uint64",
          "name": "_queueLengthSecs",
          "type": "uint64"
        }
      ],
      "name": "setQueueLengthSecs",
      "outputs": [],
      "stateMutability": "nonpayable",
      "type": "function"
    },
    {
      "inputs": [
        {
          "internalType": "address",
          "name": "_redemptionQueueAddress",
          "type": "address"
        }
      ],
      "name": "setRedemptionQueue",
      "outputs": [],
      "stateMutability": "nonpayable",
      "type": "function"
    },
    {
      "inputs": [
        {
          "internalType": "address",
          "name": "_rewardDispatcher",
          "type": "address"
        }
      ],
      "name": "setRewardDispatcher",
      "outputs": [],
      "stateMutability": "nonpayable",
      "type": "function"
    },
    {
      "inputs": [
        {
          "internalType": "bytes32",
          "name": "role",
          "type": "bytes32"
        },
        {
          "internalType": "bytes32",
          "name": "adminRole",
          "type": "bytes32"
        }
      ],
      "name": "setRoleAdmin",
      "outputs": [],
      "stateMutability": "nonpayable",
      "type": "function"
    },
    {
      "inputs": [
        {
          "internalType": "address",
          "name": "_sveMetis",
          "type": "address"
        }
      ],
      "name": "setSveMetis",
      "outputs": [],
      "stateMutability": "nonpayable",
      "type": "function"
    },
    {
      "inputs": [
        {
          "internalType": "address",
          "name": "_veMetis",
          "type": "address"
        }
      ],
      "name": "setVeMetis",
      "outputs": [],
      "stateMutability": "nonpayable",
      "type": "function"
    },
    {
      "inputs": [
        {
          "internalType": "address",
          "name": "_veMetisMinter",
          "type": "address"
        }
      ],
      "name": "setVeMetisMinterAddress",
      "outputs": [],
      "stateMutability": "nonpayable",
      "type": "function"
    },
    {
      "inputs": [],
      "name": "sveMetis",
      "outputs": [
        {
          "internalType": "address",
          "name": "",
          "type": "address"
        }
      ],
      "stateMutability": "view",
      "type": "function"
    },
    {
      "inputs": [],
      "name": "veMetis",
      "outputs": [
        {
          "internalType": "address",
          "name": "",
          "type": "address"
        }
      ],
      "stateMutability": "view",
      "type": "function"
    },
    {
      "inputs": [],
      "name": "veMetisMinter",
      "outputs": [
        {
          "internalType": "address",
          "name": "",
          "type": "address"
        }
      ],
      "stateMutability": "view",
      "type": "function"
    },
    {
      "stateMutability": "payable",
      "type": "receive"
    }
  ],
  "bytecode": "0x608060405234801561001057600080fd5b50613717806100206000396000f3fe6080604052600436106103035760003560e01c80638d40bd3511610190578063bf27726c116100dc578063e52083c611610095578063e78cea921161006f578063e78cea9214610b73578063f288a2e214610b9e578063f9aa973f14610bc9578063fda42e2114610bf457610343565b8063e52083c614610af2578063e597455414610b1d578063e63a391f14610b4857610343565b8063bf27726c146109f6578063cb9edeb114610a21578063d27bc94a14610a4c578063d547741f14610a75578063d862e8d914610a9e578063de55db9d14610ac957610343565b8063a217fddf11610149578063a7d6181911610123578063a7d6181914610937578063bad1e13914610962578063bbadf4271461098d578063bd99d7e1146109b857610343565b8063a217fddf146108b6578063a2191470146108e1578063a2be57ad1461090c57610343565b80638d40bd35146107a457806391d14854146107cd57806392c2becc1461080a5780639336ce801461083557806397ec19be1461086057806397fc71771461088b57610343565b80633b4c46d01161024f57806372ef154011610208578063803db96d116101e2578063803db96d1461070c5780638129fc1c1461073757806388ef06be1461074e5780638b587b9c1461077957610343565b806372ef15401461068b57806375b238fc146106b657806379502c55146106e157610343565b80633b4c46d01461058d5780633b8ad07f146105b657806343606f75146105e15780634d19eaf11461060a57806350c4a8a21461063557806371a1ea981461066057610343565b806324059831116102bc5780632d76710b116102965780632d76710b146104e55780632f2ff15d1461051057806336568abe1461053957806339ee2c3d1461056257610343565b80632405983114610454578063248a9ca31461047f5780632c59155a146104bc57610343565b8063046bafdd14610348578063093c4e21146103715780630c5a61f81461039a5780630e9429ba146103c35780631e4e009114610400578063219519551461042957610343565b36610343576040517f08c379a000000000000000000000000000000000000000000000000000000000815260040161033a90612c48565b60405180910390fd5b600080fd5b34801561035457600080fd5b5061036f600480360381019061036a9190612ccb565b610c1d565b005b34801561037d57600080fd5b5061039860048036038101906103939190612d38565b610d44565b005b3480156103a657600080fd5b506103c160048036038101906103bc9190612ccb565b610ed4565b005b3480156103cf57600080fd5b506103ea60048036038101906103e59190612d9b565b61106a565b6040516103f79190612dd7565b60405180910390f35b34801561040c57600080fd5b5061042760048036038101906104229190612e28565b611081565b005b34801561043557600080fd5b5061043e611162565b60405161044b9190612e77565b60405180910390f35b34801561046057600080fd5b506104696111a0565b6040516104769190612dd7565b60405180910390f35b34801561048b57600080fd5b506104a660048036038101906104a19190612e92565b6111c7565b6040516104b39190612ece565b60405180910390f35b3480156104c857600080fd5b506104e360048036038101906104de9190612ccb565b6111e7565b005b3480156104f157600080fd5b506104fa61130e565b6040516105079190612ef8565b60405180910390f35b34801561051c57600080fd5b5061053760048036038101906105329190612f13565b61134c565b005b34801561054557600080fd5b50610560600480360381019061055b9190612f13565b61142d565b005b34801561056e57600080fd5b506105776114b0565b6040516105849190612dd7565b60405180910390f35b34801561059957600080fd5b506105b460048036038101906105af9190612ccb565b6114d7565b005b3480156105c257600080fd5b506105cb6115fe565b6040516105d89190612dd7565b60405180910390f35b3480156105ed57600080fd5b5061060860048036038101906106039190612ccb565b611625565b005b34801561061657600080fd5b5061061f61174c565b60405161062c9190612dd7565b60405180910390f35b34801561064157600080fd5b5061064a611773565b6040516106579190612dd7565b60405180910390f35b34801561066c57600080fd5b5061067561179a565b6040516106829190612dd7565b60405180910390f35b34801561069757600080fd5b506106a06117c1565b6040516106ad9190612dd7565b60405180910390f35b3480156106c257600080fd5b506106cb6117e8565b6040516106d89190612ece565b60405180910390f35b3480156106ed57600080fd5b506106f661180c565b6040516107039190612fb2565b60405180910390f35b34801561071857600080fd5b50610721611830565b60405161072e9190612e77565b60405180910390f35b34801561074357600080fd5b5061074c61186e565b005b34801561075a57600080fd5b50610763611a26565b6040516107709190612dd7565b60405180910390f35b34801561078557600080fd5b5061078e611a4d565b60405161079b9190612fec565b60405180910390f35b3480156107b057600080fd5b506107cb60048036038101906107c69190612ccb565b611a8b565b005b3480156107d957600080fd5b506107f460048036038101906107ef9190612f13565b611bb2565b6040516108019190613022565b60405180910390f35b34801561081657600080fd5b5061081f611c48565b60405161082c9190612ece565b60405180910390f35b34801561084157600080fd5b5061084a611c6c565b6040516108579190612e77565b60405180910390f35b34801561086c57600080fd5b50610875611caa565b6040516108829190612e77565b60405180910390f35b34801561089757600080fd5b506108a0611ce8565b6040516108ad9190612dd7565b60405180910390f35b3480156108c257600080fd5b506108cb611d0f565b6040516108d89190612ece565b60405180910390f35b3480156108ed57600080fd5b506108f6611d16565b6040516109039190612e77565b60405180910390f35b34801561091857600080fd5b50610921611d54565b60405161092e9190612e77565b60405180910390f35b34801561094357600080fd5b5061094c611d92565b6040516109599190612dd7565b60405180910390f35b34801561096e57600080fd5b50610977611db9565b6040516109849190612dd7565b60405180910390f35b34801561099957600080fd5b506109a2611de0565b6040516109af9190612dd7565b60405180910390f35b3480156109c457600080fd5b506109df60048036038101906109da9190612e92565b611e07565b6040516109ed92919061303d565b60405180910390f35b348015610a0257600080fd5b50610a0b611e38565b604051610a189190612e77565b60405180910390f35b348015610a2d57600080fd5b50610a36611e76565b604051610a439190612dd7565b60405180910390f35b348015610a5857600080fd5b50610a736004803603810190610a6e9190613092565b611e9d565b005b348015610a8157600080fd5b50610a9c6004803603810190610a979190612f13565b612000565b005b348015610aaa57600080fd5b50610ab36120e1565b604051610ac09190612dd7565b60405180910390f35b348015610ad557600080fd5b50610af06004803603810190610aeb9190612ccb565b612108565b005b348015610afe57600080fd5b50610b0761222f565b604051610b149190612dd7565b60405180910390f35b348015610b2957600080fd5b50610b3261223b565b604051610b3f9190612e77565b60405180910390f35b348015610b5457600080fd5b50610b5d612279565b604051610b6a9190612ef8565b60405180910390f35b348015610b7f57600080fd5b50610b88612280565b604051610b959190612e77565b60405180910390f35b348015610baa57600080fd5b50610bb36122be565b604051610bc09190612ece565b60405180910390f35b348015610bd557600080fd5b50610bde6122e2565b604051610beb9190612dd7565b60405180910390f35b348015610c0057600080fd5b50610c1b6004803603810190610c1691906130bf565b612309565b005b7fa49807205ce4d355092ef5a8a18f56e8913cf4a201fbe287825b095693c2177560008054906101000a900473ffffffffffffffffffffffffffffffffffffffff1673ffffffffffffffffffffffffffffffffffffffff166391d1485482610c836124de565b6040518363ffffffff1660e01b8152600401610ca0929190613126565b602060405180830381865afa158015610cbd573d6000803e3d6000fd5b505050506040513d601f19601f82011682018060405250810190610ce1919061317b565b610cef57610cee816124e6565b5b8173ffffffffffffffffffffffffffffffffffffffff16602060007f6fc77dba7c1971f6af1f32b3c7728da581e8b9fe553e83800c1e287b9288663860001c8152602001908152602001600020819055505050565b7fa49807205ce4d355092ef5a8a18f56e8913cf4a201fbe287825b095693c2177560008054906101000a900473ffffffffffffffffffffffffffffffffffffffff1673ffffffffffffffffffffffffffffffffffffffff166391d1485482610daa6124de565b6040518363ffffffff1660e01b8152600401610dc7929190613126565b602060405180830381865afa158015610de4573d6000803e3d6000fd5b505050506040513d601f19601f82011682018060405250810190610e08919061317b565b610e1657610e15816124e6565b5b6000602060007f1ec8339790254679015c7b4db055ec6bb45de4d3ff3193d766a1cc6ce145728d60001c81526020019081526020016000205490508267ffffffffffffffff16602060007f1ec8339790254679015c7b4db055ec6bb45de4d3ff3193d766a1cc6ce145728d60001c8152602001908152602001600020819055507fc177a0244f4a8707676367719773686001fba49fd7289a82ac5b48ad94c2f6338184604051610ec79291906131a8565b60405180910390a1505050565b7fa49807205ce4d355092ef5a8a18f56e8913cf4a201fbe287825b095693c2177560008054906101000a900473ffffffffffffffffffffffffffffffffffffffff1673ffffffffffffffffffffffffffffffffffffffff166391d1485482610f3a6124de565b6040518363ffffffff1660e01b8152600401610f57929190613126565b602060405180830381865afa158015610f74573d6000803e3d6000fd5b505050506040513d601f19601f82011682018060405250810190610f98919061317b565b610fa657610fa5816124e6565b5b600073ffffffffffffffffffffffffffffffffffffffff168273ffffffffffffffffffffffffffffffffffffffff1603611015576040517f08c379a000000000000000000000000000000000000000000000000000000000815260040161100c90613243565b60405180910390fd5b8173ffffffffffffffffffffffffffffffffffffffff16602060007f6ea4018daf79dd2b85ff55e23caa9708d35a5af81f862526e25c36407a95ad8160001c8152602001908152602001600020819055505050565b602080528060005260406000206000915090505481565b7fa49807205ce4d355092ef5a8a18f56e8913cf4a201fbe287825b095693c2177560008054906101000a900473ffffffffffffffffffffffffffffffffffffffff1673ffffffffffffffffffffffffffffffffffffffff166391d14854826110e76124de565b6040518363ffffffff1660e01b8152600401611104929190613126565b602060405180830381865afa158015611121573d6000803e3d6000fd5b505050506040513d601f19601f82011682018060405250810190611145919061317b565b61115357611152816124e6565b5b61115d83836124fa565b505050565b6000602060007ffa6557a51a133888544923dacdca355721a35fbeebe974f1e7d28d3105e033cf60001c815260200190815260200160002054905090565b7fcaa210682aa7d6b03d19b857c87a6e4c61b2ea999c417f0652a36447d144f23860001c81565b600060216000838152602001908152602001600020600101549050919050565b7fa49807205ce4d355092ef5a8a18f56e8913cf4a201fbe287825b095693c2177560008054906101000a900473ffffffffffffffffffffffffffffffffffffffff1673ffffffffffffffffffffffffffffffffffffffff166391d148548261124d6124de565b6040518363ffffffff1660e01b815260040161126a929190613126565b602060405180830381865afa158015611287573d6000803e3d6000fd5b505050506040513d601f19601f820116820180604052508101906112ab919061317b565b6112b9576112b8816124e6565b5b8173ffffffffffffffffffffffffffffffffffffffff16602060007f3beeeeb89724bb62c1be7636d1b77a4ca5096701b9f62a5b667ba95489c0648f60001c8152602001908152602001600020819055505050565b6000602060007f1ec8339790254679015c7b4db055ec6bb45de4d3ff3193d766a1cc6ce145728d60001c815260200190815260200160002054905090565b7fa49807205ce4d355092ef5a8a18f56e8913cf4a201fbe287825b095693c2177560008054906101000a900473ffffffffffffffffffffffffffffffffffffffff1673ffffffffffffffffffffffffffffffffffffffff166391d14854826113b26124de565b6040518363ffffffff1660e01b81526004016113cf929190613126565b602060405180830381865afa1580156113ec573d6000803e3d6000fd5b505050506040513d601f19601f82011682018060405250810190611410919061317b565b61141e5761141d816124e6565b5b6114288383612556565b505050565b6114356124de565b73ffffffffffffffffffffffffffffffffffffffff168173ffffffffffffffffffffffffffffffffffffffff16146114a2576040517f08c379a0000000000000000000000000000000000000000000000000000000008152600401611499906132d5565b60405180910390fd5b6114ac8282612637565b5050565b7fe4a4e5425e0f84d8d68c8433df2512e8e48969299d032314614356a42435a73960001c81565b7fa49807205ce4d355092ef5a8a18f56e8913cf4a201fbe287825b095693c2177560008054906101000a900473ffffffffffffffffffffffffffffffffffffffff1673ffffffffffffffffffffffffffffffffffffffff166391d148548261153d6124de565b6040518363ffffffff1660e01b815260040161155a929190613126565b602060405180830381865afa158015611577573d6000803e3d6000fd5b505050506040513d601f19601f8201168201806040525081019061159b919061317b565b6115a9576115a8816124e6565b5b8173ffffffffffffffffffffffffffffffffffffffff16602060007fcaa210682aa7d6b03d19b857c87a6e4c61b2ea999c417f0652a36447d144f23860001c8152602001908152602001600020819055505050565b7f69661401bd068c022c278f73b3789a33e22d5eafe981e9265041b6fe72a122fe60001c81565b7fa49807205ce4d355092ef5a8a18f56e8913cf4a201fbe287825b095693c2177560008054906101000a900473ffffffffffffffffffffffffffffffffffffffff1673ffffffffffffffffffffffffffffffffffffffff166391d148548261168b6124de565b6040518363ffffffff1660e01b81526004016116a8929190613126565b602060405180830381865afa1580156116c5573d6000803e3d6000fd5b505050506040513d601f19601f820116820180604052508101906116e9919061317b565b6116f7576116f6816124e6565b5b8173ffffffffffffffffffffffffffffffffffffffff16602060007fee0b41063c9b42cf4cb1e7f8c47f5eeb6d29cf430aef897afc1cd2888dda3e0460001c8152602001908152602001600020819055505050565b7f1ec8339790254679015c7b4db055ec6bb45de4d3ff3193d766a1cc6ce145728d60001c81565b7f6fede10a232b276bc7c310abfbe151b58ba2286d825bc9e66c6e5fd488844e1060001c81565b7f3beeeeb89724bb62c1be7636d1b77a4ca5096701b9f62a5b667ba95489c0648f60001c81565b7f36051e26b7ee9ab8bfe79486c0d7a7a2112864a57aa54065540eccb3c4a4452260001c81565b7fa49807205ce4d355092ef5a8a18f56e8913cf4a201fbe287825b095693c2177581565b60008054906101000a900473ffffffffffffffffffffffffffffffffffffffff1681565b6000602060007f6ea4018daf79dd2b85ff55e23caa9708d35a5af81f862526e25c36407a95ad8160001c815260200190815260200160002054905090565b6000611878612719565b905060008160000160089054906101000a900460ff1615905060008260000160009054906101000a900467ffffffffffffffff1690506000808267ffffffffffffffff161480156118c65750825b9050600060018367ffffffffffffffff161480156118fb575060003073ffffffffffffffffffffffffffffffffffffffff163b145b905081158015611909575080155b15611940576040517ff92ee8a900000000000000000000000000000000000000000000000000000000815260040160405180910390fd5b60018560000160006101000a81548167ffffffffffffffff021916908367ffffffffffffffff16021790555083156119905760018560000160086101000a81548160ff0219169083151502179055505b61199930612741565b6119c37fa49807205ce4d355092ef5a8a18f56e8913cf4a201fbe287825b095693c2177533612556565b8315611a1f5760008560000160086101000a81548160ff0219169083151502179055507fc7f505b2f371ae2175ee4913f4499e1f2633a7b5936321eed1cdaeb6115181d26001604051611a169190613330565b60405180910390a15b5050505050565b7ffa6557a51a133888544923dacdca355721a35fbeebe974f1e7d28d3105e033cf60001c81565b6000602060007f6fede10a232b276bc7c310abfbe151b58ba2286d825bc9e66c6e5fd488844e1060001c815260200190815260200160002054905090565b7fa49807205ce4d355092ef5a8a18f56e8913cf4a201fbe287825b095693c2177560008054906101000a900473ffffffffffffffffffffffffffffffffffffffff1673ffffffffffffffffffffffffffffffffffffffff166391d1485482611af16124de565b6040518363ffffffff1660e01b8152600401611b0e929190613126565b602060405180830381865afa158015611b2b573d6000803e3d6000fd5b505050506040513d601f19601f82011682018060405250810190611b4f919061317b565b611b5d57611b5c816124e6565b5b8173ffffffffffffffffffffffffffffffffffffffff16602060007f69661401bd068c022c278f73b3789a33e22d5eafe981e9265041b6fe72a122fe60001c8152602001908152602001600020819055505050565b60006021600084815260200190815260200160002060020160009054906101000a900460ff1680611c4057506021600084815260200190815260200160002060000160008373ffffffffffffffffffffffffffffffffffffffff1673ffffffffffffffffffffffffffffffffffffffff16815260200190815260200160002060009054906101000a900460ff165b905092915050565b7f25cf2b509f2a7f322675b2a5322b182f44ad2c03ac941a0af17c9b178f5d5d5f81565b6000602060007f3beeeeb89724bb62c1be7636d1b77a4ca5096701b9f62a5b667ba95489c0648f60001c815260200190815260200160002054905090565b6000602060007fcaa210682aa7d6b03d19b857c87a6e4c61b2ea999c417f0652a36447d144f23860001c815260200190815260200160002054905090565b7fe3fb0f89bf43754026f5df1c4a405631deca482f630ed00c4f9897a30ea0764260001c81565b6000801b81565b6000602060007fee0b41063c9b42cf4cb1e7f8c47f5eeb6d29cf430aef897afc1cd2888dda3e0460001c815260200190815260200160002054905090565b6000602060007f69661401bd068c022c278f73b3789a33e22d5eafe981e9265041b6fe72a122fe60001c815260200190815260200160002054905090565b7f6ea4018daf79dd2b85ff55e23caa9708d35a5af81f862526e25c36407a95ad8160001c81565b7f454c90bb89af48c9c15cd0acb46e1f05be34b6d27d24973b724e6ff6477e129f60001c81565b7f9fb48ff2476bdf82119573e311cab5a3bbdadc90cac7a17cbe16c403581c2c3060001c81565b60216020528060005260406000206000915090508060010154908060020160009054906101000a900460ff16905082565b6000602060007f6fc77dba7c1971f6af1f32b3c7728da581e8b9fe553e83800c1e287b9288663860001c815260200190815260200160002054905090565b7fee0b41063c9b42cf4cb1e7f8c47f5eeb6d29cf430aef897afc1cd2888dda3e0460001c81565b7fa49807205ce4d355092ef5a8a18f56e8913cf4a201fbe287825b095693c2177560008054906101000a900473ffffffffffffffffffffffffffffffffffffffff1673ffffffffffffffffffffffffffffffffffffffff166391d1485482611f036124de565b6040518363ffffffff1660e01b8152600401611f20929190613126565b602060405180830381865afa158015611f3d573d6000803e3d6000fd5b505050506040513d601f19601f82011682018060405250810190611f61919061317b565b611f6f57611f6e816124e6565b5b620186a08263ffffffff161115611fbb576040517f08c379a0000000000000000000000000000000000000000000000000000000008152600401611fb2906133bd565b60405180910390fd5b8163ffffffff16602060007f6fede10a232b276bc7c310abfbe151b58ba2286d825bc9e66c6e5fd488844e1060001c8152602001908152602001600020819055505050565b7fa49807205ce4d355092ef5a8a18f56e8913cf4a201fbe287825b095693c2177560008054906101000a900473ffffffffffffffffffffffffffffffffffffffff1673ffffffffffffffffffffffffffffffffffffffff166391d14854826120666124de565b6040518363ffffffff1660e01b8152600401612083929190613126565b602060405180830381865afa1580156120a0573d6000803e3d6000fd5b505050506040513d601f19601f820116820180604052508101906120c4919061317b565b6120d2576120d1816124e6565b5b6120dc8383612637565b505050565b7f6fc77dba7c1971f6af1f32b3c7728da581e8b9fe553e83800c1e287b9288663860001c81565b7fa49807205ce4d355092ef5a8a18f56e8913cf4a201fbe287825b095693c2177560008054906101000a900473ffffffffffffffffffffffffffffffffffffffff1673ffffffffffffffffffffffffffffffffffffffff166391d148548261216e6124de565b6040518363ffffffff1660e01b815260040161218b929190613126565b602060405180830381865afa1580156121a8573d6000803e3d6000fd5b505050506040513d601f19601f820116820180604052508101906121cc919061317b565b6121da576121d9816124e6565b5b8173ffffffffffffffffffffffffffffffffffffffff16602060007ffa6557a51a133888544923dacdca355721a35fbeebe974f1e7d28d3105e033cf60001c8152602001908152602001600020819055505050565b670de0b6b3a764000081565b6000602060007f36051e26b7ee9ab8bfe79486c0d7a7a2112864a57aa54065540eccb3c4a4452260001c815260200190815260200160002054905090565b620f424081565b6000602060007fe4a4e5425e0f84d8d68c8433df2512e8e48969299d032314614356a42435a73960001c815260200190815260200160002054905090565b7ff66846415d2bf9eabda9e84793ff9c0ea96d87f50fc41e66aa16469c6a442f0581565b7fe01bea03000f908384fec12f1bb9cff12e05a5d91a94bfedd901d5696153a5a360001c81565b7fa49807205ce4d355092ef5a8a18f56e8913cf4a201fbe287825b095693c2177560008054906101000a900473ffffffffffffffffffffffffffffffffffffffff1673ffffffffffffffffffffffffffffffffffffffff166391d148548261236f6124de565b6040518363ffffffff1660e01b815260040161238c929190613126565b602060405180830381865afa1580156123a9573d6000803e3d6000fd5b505050506040513d601f19601f820116820180604052508101906123cd919061317b565b6123db576123da816124e6565b5b8473ffffffffffffffffffffffffffffffffffffffff16602060007f36051e26b7ee9ab8bfe79486c0d7a7a2112864a57aa54065540eccb3c4a4452260001c8152602001908152602001600020819055508373ffffffffffffffffffffffffffffffffffffffff16602060007fe4a4e5425e0f84d8d68c8433df2512e8e48969299d032314614356a42435a73960001c8152602001908152602001600020819055508273ffffffffffffffffffffffffffffffffffffffff16602060007f6ea4018daf79dd2b85ff55e23caa9708d35a5af81f862526e25c36407a95ad8160001c8152602001908152602001600020819055506124d782611e9d565b5050505050565b600033905090565b6124f7816124f26124de565b61279c565b50565b6000612505836111c7565b90508160216000858152602001908152602001600020600101819055508181847fbd79b86ffe0ab8e8776151514217cd7cacd52c909f66475c3af44e129f0b00ff60405160405180910390a4505050565b6125608282611bb2565b6126335760016021600084815260200190815260200160002060000160008373ffffffffffffffffffffffffffffffffffffffff1673ffffffffffffffffffffffffffffffffffffffff16815260200190815260200160002060006101000a81548160ff0219169083151502179055506125d86124de565b73ffffffffffffffffffffffffffffffffffffffff168173ffffffffffffffffffffffffffffffffffffffff16837f2f8788117e7eff1d82e926ec794901d17c78024a50270940304540a733656f0d60405160405180910390a45b5050565b6126418282611bb2565b156127155760006021600084815260200190815260200160002060000160008373ffffffffffffffffffffffffffffffffffffffff1673ffffffffffffffffffffffffffffffffffffffff16815260200190815260200160002060006101000a81548160ff0219169083151502179055506126ba6124de565b73ffffffffffffffffffffffffffffffffffffffff168173ffffffffffffffffffffffffffffffffffffffff16837ff6391f5c32d9c69d2a47ea670b442974b53935d1edc7fd64eb21e047a839171b60405160405180910390a45b5050565b60007ff0c57e16840df040f15088dc2f81fe391c3923bec73e23a9662efc9c229c6a00905090565b6127496128b3565b806000806101000a81548173ffffffffffffffffffffffffffffffffffffffff021916908373ffffffffffffffffffffffffffffffffffffffff1602179055506127916128f3565b612799612905565b50565b60008054906101000a900473ffffffffffffffffffffffffffffffffffffffff1673ffffffffffffffffffffffffffffffffffffffff166391d1485483836040518363ffffffff1660e01b81526004016127f7929190613126565b602060405180830381865afa158015612814573d6000803e3d6000fd5b505050506040513d601f19601f82011682018060405250810190612838919061317b565b6128af576128458161290f565b6128538360001c602061293c565b6040516020016128649291906134e6565b6040516020818303038152906040526040517f08c379a00000000000000000000000000000000000000000000000000000000081526004016128a6919061356a565b60405180910390fd5b5050565b6128bb612b82565b6128f1576040517fd7e6bcf800000000000000000000000000000000000000000000000000000000815260040160405180910390fd5b565b6128fb6128b3565b612903612ba2565b565b61290d6128b3565b565b60606129358273ffffffffffffffffffffffffffffffffffffffff16601460ff1661293c565b9050919050565b606060008390506000600284600261295491906135bb565b61295e91906135fd565b67ffffffffffffffff81111561297757612976613631565b5b6040519080825280601f01601f1916602001820160405280156129a95781602001600182028036833780820191505090505b5090507f3000000000000000000000000000000000000000000000000000000000000000816000815181106129e1576129e0613660565b5b60200101907effffffffffffffffffffffffffffffffffffffffffffffffffffffffffffff1916908160001a9053507f780000000000000000000000000000000000000000000000000000000000000081600181518110612a4557612a44613660565b5b60200101907effffffffffffffffffffffffffffffffffffffffffffffffffffffffffffff1916908160001a90535060006001856002612a8591906135bb565b612a8f91906135fd565b90505b6001811115612b2f577f3031323334353637383961626364656600000000000000000000000000000000600f841660108110612ad157612ad0613660565b5b1a60f81b828281518110612ae857612ae7613660565b5b60200101907effffffffffffffffffffffffffffffffffffffffffffffffffffffffffffff1916908160001a905350600483901c925080612b289061368f565b9050612a92565b5060008214612b775784846040517fe22e27eb000000000000000000000000000000000000000000000000000000008152600401612b6e9291906136b8565b60405180910390fd5b809250505092915050565b6000612b8c612719565b60000160089054906101000a900460ff16905090565b612baa6128b3565b6000612bb4612bc3565b90506001816000018190555050565b60007f9b779b17422d0df92223018b32b4d1fa46e071723d6817e2486d003becc55f00905090565b600082825260208201905092915050565b7f426173653a206e6f7420737570706f7274204d65746973207472616e73666572600082015250565b6000612c32602083612beb565b9150612c3d82612bfc565b602082019050919050565b60006020820190508181036000830152612c6181612c25565b9050919050565b600080fd5b600073ffffffffffffffffffffffffffffffffffffffff82169050919050565b6000612c9882612c6d565b9050919050565b612ca881612c8d565b8114612cb357600080fd5b50565b600081359050612cc581612c9f565b92915050565b600060208284031215612ce157612ce0612c68565b5b6000612cef84828501612cb6565b91505092915050565b600067ffffffffffffffff82169050919050565b612d1581612cf8565b8114612d2057600080fd5b50565b600081359050612d3281612d0c565b92915050565b600060208284031215612d4e57612d4d612c68565b5b6000612d5c84828501612d23565b91505092915050565b6000819050919050565b612d7881612d65565b8114612d8357600080fd5b50565b600081359050612d9581612d6f565b92915050565b600060208284031215612db157612db0612c68565b5b6000612dbf84828501612d86565b91505092915050565b612dd181612d65565b82525050565b6000602082019050612dec6000830184612dc8565b92915050565b6000819050919050565b612e0581612df2565b8114612e1057600080fd5b50565b600081359050612e2281612dfc565b92915050565b60008060408385031215612e3f57612e3e612c68565b5b6000612e4d85828601612e13565b9250506020612e5e85828601612e13565b9150509250929050565b612e7181612c8d565b82525050565b6000602082019050612e8c6000830184612e68565b92915050565b600060208284031215612ea857612ea7612c68565b5b6000612eb684828501612e13565b91505092915050565b612ec881612df2565b82525050565b6000602082019050612ee36000830184612ebf565b92915050565b612ef281612cf8565b82525050565b6000602082019050612f0d6000830184612ee9565b92915050565b60008060408385031215612f2a57612f29612c68565b5b6000612f3885828601612e13565b9250506020612f4985828601612cb6565b9150509250929050565b6000819050919050565b6000612f78612f73612f6e84612c6d565b612f53565b612c6d565b9050919050565b6000612f8a82612f5d565b9050919050565b6000612f9c82612f7f565b9050919050565b612fac81612f91565b82525050565b6000602082019050612fc76000830184612fa3565b92915050565b600063ffffffff82169050919050565b612fe681612fcd565b82525050565b60006020820190506130016000830184612fdd565b92915050565b60008115159050919050565b61301c81613007565b82525050565b60006020820190506130376000830184613013565b92915050565b60006040820190506130526000830185612ebf565b61305f6020830184613013565b9392505050565b61306f81612fcd565b811461307a57600080fd5b50565b60008135905061308c81613066565b92915050565b6000602082840312156130a8576130a7612c68565b5b60006130b68482850161307d565b91505092915050565b600080600080608085870312156130d9576130d8612c68565b5b60006130e787828801612cb6565b94505060206130f887828801612cb6565b935050604061310987828801612cb6565b925050606061311a8782880161307d565b91505092959194509250565b600060408201905061313b6000830185612ebf565b6131486020830184612e68565b9392505050565b61315881613007565b811461316357600080fd5b50565b6000815190506131758161314f565b92915050565b60006020828403121561319157613190612c68565b5b600061319f84828501613166565b91505092915050565b60006040820190506131bd6000830185612ee9565b6131ca6020830184612ee9565b9392505050565b7f436f6e6669673a2070726f746f636f6c5472656173757279206973207a65726f60008201527f2061646472657373000000000000000000000000000000000000000000000000602082015250565b600061322d602883612beb565b9150613238826131d1565b604082019050919050565b6000602082019050818103600083015261325c81613220565b9050919050565b7f416363657373436f6e74726f6c3a2063616e206f6e6c792072656e6f756e636560008201527f20726f6c657320666f722073656c660000000000000000000000000000000000602082015250565b60006132bf602f83612beb565b91506132ca82613263565b604082019050919050565b600060208201905081810360008301526132ee816132b2565b9050919050565b6000819050919050565b600061331a613315613310846132f5565b612f53565b612cf8565b9050919050565b61332a816132ff565b82525050565b60006020820190506133456000830184613321565b92915050565b7f436f6e6669673a2070726f746f636f6c5472656173757279526174696f206d7560008201527f7374206265206c657373207468616e2031303030300000000000000000000000602082015250565b60006133a7603583612beb565b91506133b28261334b565b604082019050919050565b600060208201905081810360008301526133d68161339a565b9050919050565b600081905092915050565b7f416363657373436f6e74726f6c3a206163636f756e7420000000000000000000600082015250565b600061341e6017836133dd565b9150613429826133e8565b601782019050919050565b600081519050919050565b60005b8381101561345d578082015181840152602081019050613442565b60008484015250505050565b600061347482613434565b61347e81856133dd565b935061348e81856020860161343f565b80840191505092915050565b7f206973206d697373696e6720726f6c6520000000000000000000000000000000600082015250565b60006134d06011836133dd565b91506134db8261349a565b601182019050919050565b60006134f182613411565b91506134fd8285613469565b9150613508826134c3565b91506135148284613469565b91508190509392505050565b6000601f19601f8301169050919050565b600061353c82613434565b6135468185612beb565b935061355681856020860161343f565b61355f81613520565b840191505092915050565b600060208201905081810360008301526135848184613531565b905092915050565b7f4e487b7100000000000000000000000000000000000000000000000000000000600052601160045260246000fd5b60006135c682612d65565b91506135d183612d65565b92508282026135df81612d65565b915082820484148315176135f6576135f561358c565b5b5092915050565b600061360882612d65565b915061361383612d65565b925082820190508082111561362b5761362a61358c565b5b92915050565b7f4e487b7100000000000000000000000000000000000000000000000000000000600052604160045260246000fd5b7f4e487b7100000000000000000000000000000000000000000000000000000000600052603260045260246000fd5b600061369a82612d65565b9150600082036136ad576136ac61358c565b5b600182039050919050565b60006040820190506136cd6000830185612dc8565b6136da6020830184612dc8565b939250505056fea26469706673582212205d06ec489dcf14d74c50be7f913115a0d4f70c7907a23d639527f75b5d3f4b2264736f6c63430008140033",
  "linkReferences": {},
  "deployedLinkReferences": {}
}