{
  "_format": "hh-sol-artifact-1",
  "contractName": "Config",
  "sourceName": "contracts/Config.sol",
  "abi": [
    {
      "inputs": [],
      "name": "InvalidInitialization",
      "type": "error"
    },
    {
      "inputs": [],
      "name": "NotInitializing",
      "type": "error"
    },
    {
      "inputs": [],
      "name": "ReentrancyGuardReentrantCall",
      "type": "error"
    },
    {
      "inputs": [
        {
          "internalType": "uint256",
          "name": "value",
          "type": "uint256"
        },
        {
          "internalType": "uint256",
          "name": "length",
          "type": "uint256"
        }
      ],
      "name": "StringsInsufficientHexLength",
      "type": "error"
    },
    {
      "anonymous": false,
      "inputs": [
        {
          "indexed": false,
          "internalType": "uint64",
          "name": "oldValue",
          "type": "uint64"
        },
        {
          "indexed": false,
          "internalType": "uint64",
          "name": "newValue",
          "type": "uint64"
        }
      ],
      "name": "CancelRedemptionFeeSet",
      "type": "event"
    },
    {
      "anonymous": false,
      "inputs": [
        {
          "indexed": false,
          "internalType": "uint64",
          "name": "version",
          "type": "uint64"
        }
      ],
      "name": "Initialized",
      "type": "event"
    },
    {
      "anonymous": false,
      "inputs": [
        {
          "indexed": false,
          "internalType": "uint64",
          "name": "oldValue",
          "type": "uint64"
        },
        {
          "indexed": false,
          "internalType": "uint64",
          "name": "newValue",
          "type": "uint64"
        }
      ],
      "name": "MinQueueLengthSecs",
      "type": "event"
    },
    {
      "anonymous": false,
      "inputs": [
        {
          "indexed": false,
          "internalType": "bool",
          "name": "oldValue",
          "type": "bool"
        },
        {
          "indexed": false,
          "internalType": "bool",
          "name": "newValue",
          "type": "bool"
        }
      ],
      "name": "PausedSet",
      "type": "event"
    },
    {
      "anonymous": false,
      "inputs": [
        {
          "indexed": false,
          "internalType": "uint64",
          "name": "oldValue",
          "type": "uint64"
        },
        {
          "indexed": false,
          "internalType": "uint64",
          "name": "newValue",
          "type": "uint64"
        }
      ],
      "name": "QueueLengthSecsSet",
      "type": "event"
    },
    {
      "anonymous": false,
      "inputs": [
        {
          "indexed": false,
          "internalType": "uint64",
          "name": "oldValue",
          "type": "uint64"
        },
        {
          "indexed": false,
          "internalType": "uint64",
          "name": "newValue",
          "type": "uint64"
        }
      ],
      "name": "ReduceMaturityStakeSecsSet",
      "type": "event"
    },
    {
      "anonymous": false,
      "inputs": [
        {
          "indexed": true,
          "internalType": "bytes32",
          "name": "role",
          "type": "bytes32"
        },
        {
          "indexed": true,
          "internalType": "bytes32",
          "name": "previousAdminRole",
          "type": "bytes32"
        },
        {
          "indexed": true,
          "internalType": "bytes32",
          "name": "newAdminRole",
          "type": "bytes32"
        }
      ],
      "name": "RoleAdminChanged",
      "type": "event"
    },
    {
      "anonymous": false,
      "inputs": [
        {
          "indexed": true,
          "internalType": "bytes32",
          "name": "role",
          "type": "bytes32"
        },
        {
          "indexed": true,
          "internalType": "address",
          "name": "account",
          "type": "address"
        },
        {
          "indexed": true,
          "internalType": "address",
          "name": "senderFini",
          "type": "address"
        }
      ],
      "name": "RoleGranted",
      "type": "event"
    },
    {
      "anonymous": false,
      "inputs": [
        {
          "indexed": true,
          "internalType": "bytes32",
          "name": "role",
          "type": "bytes32"
        },
        {
          "indexed": true,
          "internalType": "address",
          "name": "account",
          "type": "address"
        },
        {
          "indexed": true,
          "internalType": "address",
          "name": "sender",
          "type": "address"
        }
      ],
      "name": "RoleRevoked",
      "type": "event"
    },
    {
      "inputs": [],
      "name": "ADDRESS_BRIDGE",
      "outputs": [
        {
          "internalType": "uint256",
          "name": "",
          "type": "uint256"
        }
      ],
      "stateMutability": "view",
      "type": "function"
    },
    {
      "inputs": [],
      "name": "ADDRESS_L1_DEALER",
      "outputs": [
        {
          "internalType": "uint256",
          "name": "",
          "type": "uint256"
        }
      ],
      "stateMutability": "view",
      "type": "function"
    },
    {
      "inputs": [],
      "name": "ADDRESS_METIS",
      "outputs": [
        {
          "internalType": "uint256",
          "name": "",
          "type": "uint256"
        }
      ],
      "stateMutability": "view",
      "type": "function"
    },
    {
      "inputs": [],
      "name": "ADDRESS_PROTOCOL_TREASURY",
      "outputs": [
        {
          "internalType": "uint256",
          "name": "",
          "type": "uint256"
        }
      ],
      "stateMutability": "view",
      "type": "function"
    },
    {
      "inputs": [],
      "name": "ADDRESS_REDEMPTION_QUEUE",
      "outputs": [
        {
          "internalType": "uint256",
          "name": "",
          "type": "uint256"
        }
      ],
      "stateMutability": "view",
      "type": "function"
    },
    {
      "inputs": [],
      "name": "ADDRESS_REWARD_DISPATCHER",
      "outputs": [
        {
          "internalType": "uint256",
          "name": "",
          "type": "uint256"
        }
      ],
      "stateMutability": "view",
      "type": "function"
    },
    {
      "inputs": [],
      "name": "ADDRESS_VELIXVAULT",
      "outputs": [
        {
          "internalType": "uint256",
          "name": "",
          "type": "uint256"
        }
      ],
      "stateMutability": "view",
      "type": "function"
    },
    {
      "inputs": [],
      "name": "ADMIN_ROLE",
      "outputs": [
        {
          "internalType": "bytes32",
          "name": "",
          "type": "bytes32"
        }
      ],
      "stateMutability": "view",
      "type": "function"
    },
    {
      "inputs": [],
      "name": "BACKEND_ROLE",
      "outputs": [
        {
          "internalType": "bytes32",
          "name": "",
          "type": "bytes32"
        }
      ],
      "stateMutability": "view",
      "type": "function"
    },
    {
      "inputs": [],
      "name": "DEFAULT_ADMIN_ROLE",
      "outputs": [
        {
          "internalType": "bytes32",
          "name": "",
          "type": "bytes32"
        }
      ],
      "stateMutability": "view",
      "type": "function"
    },
    {
      "inputs": [],
      "name": "FEE_PRECISION",
      "outputs": [
        {
          "internalType": "uint64",
          "name": "",
          "type": "uint64"
        }
      ],
      "stateMutability": "view",
      "type": "function"
    },
    {
      "inputs": [],
      "name": "INITIAL_DEPOSIT_AMOUNT",
      "outputs": [
        {
          "internalType": "uint256",
          "name": "",
          "type": "uint256"
        }
      ],
      "stateMutability": "view",
      "type": "function"
    },
    {
      "inputs": [],
      "name": "TIMELOCK_ROLE",
      "outputs": [
        {
          "internalType": "bytes32",
          "name": "",
          "type": "bytes32"
        }
      ],
      "stateMutability": "view",
      "type": "function"
    },
    {
      "inputs": [],
      "name": "UINT32_PROTOCOL_TREASURY_RATIO",
      "outputs": [
        {
          "internalType": "uint256",
          "name": "",
          "type": "uint256"
        }
      ],
      "stateMutability": "view",
      "type": "function"
    },
    {
      "inputs": [],
      "name": "UINT64_CANCEL_REDEMPTION_FEE",
      "outputs": [
        {
          "internalType": "uint256",
          "name": "",
          "type": "uint256"
        }
      ],
      "stateMutability": "view",
      "type": "function"
    },
    {
      "inputs": [],
      "name": "UINT64_MIN_QUEUE_LENGTH_SECS",
      "outputs": [
        {
          "internalType": "uint256",
          "name": "",
          "type": "uint256"
        }
      ],
      "stateMutability": "view",
      "type": "function"
    },
    {
      "inputs": [],
      "name": "UINT64_QUEUE_LENGTH_SECS",
      "outputs": [
        {
          "internalType": "uint256",
          "name": "",
          "type": "uint256"
        }
      ],
      "stateMutability": "view",
      "type": "function"
    },
    {
      "inputs": [],
      "name": "UINT64_REDEMPTION_FEE",
      "outputs": [
        {
          "internalType": "uint256",
          "name": "",
          "type": "uint256"
        }
      ],
      "stateMutability": "view",
      "type": "function"
    },
    {
      "inputs": [],
      "name": "UINT64_REDUCE_MATURITY_STAKE_SECS",
      "outputs": [
        {
          "internalType": "uint256",
          "name": "",
          "type": "uint256"
        }
      ],
      "stateMutability": "view",
      "type": "function"
    },
    {
      "inputs": [
        {
          "internalType": "bytes32",
          "name": "",
          "type": "bytes32"
        }
      ],
      "name": "_roles",
      "outputs": [
        {
          "internalType": "bytes32",
          "name": "adminRole",
          "type": "bytes32"
        },
        {
          "internalType": "bool",
          "name": "allowAll",
          "type": "bool"
        }
      ],
      "stateMutability": "view",
      "type": "function"
    },
    {
      "inputs": [],
      "name": "_totalAssets",
      "outputs": [
        {
          "internalType": "uint256",
          "name": "",
          "type": "uint256"
        }
      ],
      "stateMutability": "view",
      "type": "function"
    },
    {
      "inputs": [],
      "name": "bridge",
      "outputs": [
        {
          "internalType": "address",
          "name": "",
          "type": "address"
        }
      ],
      "stateMutability": "view",
      "type": "function"
    },
    {
      "inputs": [],
      "name": "config",
      "outputs": [
        {
          "internalType": "contract IConfig",
          "name": "",
          "type": "address"
        }
      ],
      "stateMutability": "view",
      "type": "function"
    },
    {
      "inputs": [
        {
          "internalType": "uint256",
          "name": "",
          "type": "uint256"
        }
      ],
      "name": "configMap",
      "outputs": [
        {
          "internalType": "uint256",
          "name": "",
          "type": "uint256"
        }
      ],
      "stateMutability": "view",
      "type": "function"
    },
    {
      "inputs": [
        {
          "internalType": "bytes32",
          "name": "role",
          "type": "bytes32"
        }
      ],
      "name": "getRoleAdmin",
      "outputs": [
        {
          "internalType": "bytes32",
          "name": "",
          "type": "bytes32"
        }
      ],
      "stateMutability": "view",
      "type": "function"
    },
    {
      "inputs": [
        {
          "internalType": "bytes32",
          "name": "role",
          "type": "bytes32"
        },
        {
          "internalType": "address",
          "name": "account",
          "type": "address"
        }
      ],
      "name": "grantRole",
      "outputs": [],
      "stateMutability": "nonpayable",
      "type": "function"
    },
    {
      "inputs": [
        {
          "internalType": "bytes32",
          "name": "role",
          "type": "bytes32"
        },
        {
          "internalType": "address",
          "name": "account",
          "type": "address"
        }
      ],
      "name": "hasRole",
      "outputs": [
        {
          "internalType": "bool",
          "name": "",
          "type": "bool"
        }
      ],
      "stateMutability": "view",
      "type": "function"
    },
    {
      "inputs": [],
      "name": "initialize",
      "outputs": [],
      "stateMutability": "nonpayable",
      "type": "function"
    },
    {
      "inputs": [],
      "name": "l1Dealer",
      "outputs": [
        {
          "internalType": "address",
          "name": "",
          "type": "address"
        }
      ],
      "stateMutability": "view",
      "type": "function"
    },
    {
      "inputs": [],
      "name": "metis",
      "outputs": [
        {
          "internalType": "address",
          "name": "",
          "type": "address"
        }
      ],
      "stateMutability": "view",
      "type": "function"
    },
    {
      "inputs": [],
      "name": "protocolTreasury",
      "outputs": [
        {
          "internalType": "address",
          "name": "",
          "type": "address"
        }
      ],
      "stateMutability": "view",
      "type": "function"
    },
    {
      "inputs": [],
      "name": "protocolTreasuryRatio",
      "outputs": [
        {
          "internalType": "uint32",
          "name": "",
          "type": "uint32"
        }
      ],
      "stateMutability": "view",
      "type": "function"
    },
    {
      "inputs": [],
      "name": "queueLengthSecs",
      "outputs": [
        {
          "internalType": "uint64",
          "name": "",
          "type": "uint64"
        }
      ],
      "stateMutability": "view",
      "type": "function"
    },
    {
      "inputs": [],
      "name": "redemptionQueue",
      "outputs": [
        {
          "internalType": "address",
          "name": "",
          "type": "address"
        }
      ],
      "stateMutability": "view",
      "type": "function"
    },
    {
      "inputs": [
        {
          "internalType": "bytes32",
          "name": "role",
          "type": "bytes32"
        },
        {
          "internalType": "address",
          "name": "account",
          "type": "address"
        }
      ],
      "name": "renounceRole",
      "outputs": [],
      "stateMutability": "nonpayable",
      "type": "function"
    },
    {
      "inputs": [
        {
          "internalType": "bytes32",
          "name": "role",
          "type": "bytes32"
        },
        {
          "internalType": "address",
          "name": "account",
          "type": "address"
        }
      ],
      "name": "revokeRole",
      "outputs": [],
      "stateMutability": "nonpayable",
      "type": "function"
    },
    {
      "inputs": [],
      "name": "rewardDispatcher",
      "outputs": [
        {
          "internalType": "address",
          "name": "",
          "type": "address"
        }
      ],
      "stateMutability": "view",
      "type": "function"
    },
    {
      "inputs": [
        {
          "internalType": "address",
          "name": "_metis",
          "type": "address"
        },
        {
          "internalType": "address",
          "name": "_bridge",
          "type": "address"
        },
        {
          "internalType": "address",
          "name": "_protocolTreasury",
          "type": "address"
        },
        {
          "internalType": "uint32",
          "name": "_protocolTreasuryRatio",
          "type": "uint32"
        }
      ],
      "name": "setIntialValues",
      "outputs": [],
      "stateMutability": "nonpayable",
      "type": "function"
    },
    {
      "inputs": [
        {
          "internalType": "address",
          "name": "_l1Dealer",
          "type": "address"
        }
      ],
      "name": "setL1Dealer",
      "outputs": [],
      "stateMutability": "nonpayable",
      "type": "function"
    },
    {
      "inputs": [
        {
          "internalType": "address",
          "name": "_protocolTreasury",
          "type": "address"
        }
      ],
      "name": "setProtocolTreasury",
      "outputs": [],
      "stateMutability": "nonpayable",
      "type": "function"
    },
    {
      "inputs": [
        {
          "internalType": "uint32",
          "name": "_protocolTreasuryRatio",
          "type": "uint32"
        }
      ],
      "name": "setProtocolTreasuryRatio",
      "outputs": [],
      "stateMutability": "nonpayable",
      "type": "function"
    },
    {
      "inputs": [
        {
          "internalType": "uint64",
          "name": "_queueLengthSecs",
          "type": "uint64"
        }
      ],
      "name": "setQueueLengthSecs",
      "outputs": [],
      "stateMutability": "nonpayable",
      "type": "function"
    },
    {
      "inputs": [
        {
          "internalType": "address",
          "name": "_redemptionQueueAddress",
          "type": "address"
        }
      ],
      "name": "setRedemptionQueue",
      "outputs": [],
      "stateMutability": "nonpayable",
      "type": "function"
    },
    {
      "inputs": [
        {
          "internalType": "address",
          "name": "_rewardDispatcher",
          "type": "address"
        }
      ],
      "name": "setRewardDispatcher",
      "outputs": [],
      "stateMutability": "nonpayable",
      "type": "function"
    },
    {
      "inputs": [
        {
          "internalType": "bytes32",
          "name": "role",
          "type": "bytes32"
        },
        {
          "internalType": "bytes32",
          "name": "adminRole",
          "type": "bytes32"
        }
      ],
      "name": "setRoleAdmin",
      "outputs": [],
      "stateMutability": "nonpayable",
      "type": "function"
    },
    {
      "inputs": [
        {
          "internalType": "address",
          "name": "_velixVault",
          "type": "address"
        }
      ],
      "name": "setVelixVault",
      "outputs": [],
      "stateMutability": "nonpayable",
      "type": "function"
    },
    {
      "inputs": [],
      "name": "velixVault",
      "outputs": [
        {
          "internalType": "address",
          "name": "",
          "type": "address"
        }
      ],
      "stateMutability": "view",
      "type": "function"
    },
    {
      "stateMutability": "payable",
      "type": "receive"
    }
  ],
  "bytecode": "0x608060405234801561001057600080fd5b506132bc806100206000396000f3fe60806040526004361061028c5760003560e01c806388ef06be1161015a578063bd99d7e1116100c1578063e59745541161007a578063e5974554146109d3578063e63a391f146109fe578063e78cea9214610a29578063f288a2e214610a54578063f9aa973f14610a7f578063fda42e2114610aaa576102cc565b8063bd99d7e1146108c4578063ce04bebb14610902578063d27bc94a1461092d578063d547741f14610956578063de55db9d1461097f578063e52083c6146109a8576102cc565b806397fc71771161011357806397fc7177146107c2578063a217fddf146107ed578063a2be57ad14610818578063a7d6181914610843578063bad1e1391461086e578063bbadf42714610899576102cc565b806388ef06be146106b05780638b587b9c146106db5780638d40bd351461070657806391d148541461072f57806392c2becc1461076c57806397ec19be14610797576102cc565b80633b4c46d0116101fe57806372ef1540116101b757806372ef1540146105c457806375b238fc146105ef57806375fb88141461061a57806379502c5514610643578063803db96d1461066e5780638129fc1c14610699576102cc565b80633b4c46d0146104c45780633b8ad07f146104ed578063475785c7146105185780634d19eaf11461054357806350c4a8a21461056e57806351dded4d14610599576102cc565b8063240598311161025057806324059831146103b4578063248a9ca3146103df5780632d76710b1461041c5780632f2ff15d1461044757806336568abe1461047057806339ee2c3d14610499576102cc565b8063093c4e21146102d15780630c5a61f8146102fa5780630e9429ba146103235780631e4e0091146103605780632195195514610389576102cc565b366102cc576040517f08c379a00000000000000000000000000000000000000000000000000000000081526004016102c3906127ed565b60405180910390fd5b600080fd5b3480156102dd57600080fd5b506102f860048036038101906102f39190612852565b610ad3565b005b34801561030657600080fd5b50610321600480360381019061031c91906128dd565b610c63565b005b34801561032f57600080fd5b5061034a60048036038101906103459190612940565b610df9565b604051610357919061297c565b60405180910390f35b34801561036c57600080fd5b50610387600480360381019061038291906129cd565b610e11565b005b34801561039557600080fd5b5061039e610ef2565b6040516103ab9190612a1c565b60405180910390f35b3480156103c057600080fd5b506103c9610f30565b6040516103d6919061297c565b60405180910390f35b3480156103eb57600080fd5b5061040660048036038101906104019190612a37565b610f57565b6040516104139190612a73565b60405180910390f35b34801561042857600080fd5b50610431610f77565b60405161043e9190612a9d565b60405180910390f35b34801561045357600080fd5b5061046e60048036038101906104699190612ab8565b610fb5565b005b34801561047c57600080fd5b5061049760048036038101906104929190612ab8565b611096565b005b3480156104a557600080fd5b506104ae611119565b6040516104bb919061297c565b60405180910390f35b3480156104d057600080fd5b506104eb60048036038101906104e691906128dd565b611140565b005b3480156104f957600080fd5b50610502611267565b60405161050f919061297c565b60405180910390f35b34801561052457600080fd5b5061052d61128e565b60405161053a9190612a1c565b60405180910390f35b34801561054f57600080fd5b506105586112cc565b604051610565919061297c565b60405180910390f35b34801561057a57600080fd5b506105836112f3565b604051610590919061297c565b60405180910390f35b3480156105a557600080fd5b506105ae61131a565b6040516105bb919061297c565b60405180910390f35b3480156105d057600080fd5b506105d9611341565b6040516105e6919061297c565b60405180910390f35b3480156105fb57600080fd5b50610604611368565b6040516106119190612a73565b60405180910390f35b34801561062657600080fd5b50610641600480360381019061063c91906128dd565b61138c565b005b34801561064f57600080fd5b506106586114b3565b6040516106659190612b57565b60405180910390f35b34801561067a57600080fd5b506106836114d7565b6040516106909190612a1c565b60405180910390f35b3480156106a557600080fd5b506106ae611515565b005b3480156106bc57600080fd5b506106c56116cd565b6040516106d2919061297c565b60405180910390f35b3480156106e757600080fd5b506106f06116f4565b6040516106fd9190612b91565b60405180910390f35b34801561071257600080fd5b5061072d600480360381019061072891906128dd565b611732565b005b34801561073b57600080fd5b5061075660048036038101906107519190612ab8565b611859565b6040516107639190612bc7565b60405180910390f35b34801561077857600080fd5b506107816118ef565b60405161078e9190612a73565b60405180910390f35b3480156107a357600080fd5b506107ac611913565b6040516107b99190612a1c565b60405180910390f35b3480156107ce57600080fd5b506107d7611951565b6040516107e4919061297c565b60405180910390f35b3480156107f957600080fd5b50610802611978565b60405161080f9190612a73565b60405180910390f35b34801561082457600080fd5b5061082d61197f565b60405161083a9190612a1c565b60405180910390f35b34801561084f57600080fd5b506108586119bd565b604051610865919061297c565b60405180910390f35b34801561087a57600080fd5b506108836119e4565b604051610890919061297c565b60405180910390f35b3480156108a557600080fd5b506108ae611a0b565b6040516108bb919061297c565b60405180910390f35b3480156108d057600080fd5b506108eb60048036038101906108e69190612a37565b611a32565b6040516108f9929190612be2565b60405180910390f35b34801561090e57600080fd5b50610917611a63565b604051610924919061297c565b60405180910390f35b34801561093957600080fd5b50610954600480360381019061094f9190612c37565b611a69565b005b34801561096257600080fd5b5061097d60048036038101906109789190612ab8565b611bcc565b005b34801561098b57600080fd5b506109a660048036038101906109a191906128dd565b611cad565b005b3480156109b457600080fd5b506109bd611dd4565b6040516109ca919061297c565b60405180910390f35b3480156109df57600080fd5b506109e8611de0565b6040516109f59190612a1c565b60405180910390f35b348015610a0a57600080fd5b50610a13611e1e565b604051610a209190612a9d565b60405180910390f35b348015610a3557600080fd5b50610a3e611e25565b604051610a4b9190612a1c565b60405180910390f35b348015610a6057600080fd5b50610a69611e63565b604051610a769190612a73565b60405180910390f35b348015610a8b57600080fd5b50610a94611e87565b604051610aa1919061297c565b60405180910390f35b348015610ab657600080fd5b50610ad16004803603810190610acc9190612c64565b611eae565b005b7fa49807205ce4d355092ef5a8a18f56e8913cf4a201fbe287825b095693c2177560008054906101000a900473ffffffffffffffffffffffffffffffffffffffff1673ffffffffffffffffffffffffffffffffffffffff166391d1485482610b39612083565b6040518363ffffffff1660e01b8152600401610b56929190612ccb565b602060405180830381865afa158015610b73573d6000803e3d6000fd5b505050506040513d601f19601f82011682018060405250810190610b979190612d20565b610ba557610ba48161208b565b5b6000602160007f1ec8339790254679015c7b4db055ec6bb45de4d3ff3193d766a1cc6ce145728d60001c81526020019081526020016000205490508267ffffffffffffffff16602160007f1ec8339790254679015c7b4db055ec6bb45de4d3ff3193d766a1cc6ce145728d60001c8152602001908152602001600020819055507fc177a0244f4a8707676367719773686001fba49fd7289a82ac5b48ad94c2f6338184604051610c56929190612d4d565b60405180910390a1505050565b7fa49807205ce4d355092ef5a8a18f56e8913cf4a201fbe287825b095693c2177560008054906101000a900473ffffffffffffffffffffffffffffffffffffffff1673ffffffffffffffffffffffffffffffffffffffff166391d1485482610cc9612083565b6040518363ffffffff1660e01b8152600401610ce6929190612ccb565b602060405180830381865afa158015610d03573d6000803e3d6000fd5b505050506040513d601f19601f82011682018060405250810190610d279190612d20565b610d3557610d348161208b565b5b600073ffffffffffffffffffffffffffffffffffffffff168273ffffffffffffffffffffffffffffffffffffffff1603610da4576040517f08c379a0000000000000000000000000000000000000000000000000000000008152600401610d9b90612de8565b60405180910390fd5b8173ffffffffffffffffffffffffffffffffffffffff16602160007f6ea4018daf79dd2b85ff55e23caa9708d35a5af81f862526e25c36407a95ad8160001c8152602001908152602001600020819055505050565b60216020528060005260406000206000915090505481565b7fa49807205ce4d355092ef5a8a18f56e8913cf4a201fbe287825b095693c2177560008054906101000a900473ffffffffffffffffffffffffffffffffffffffff1673ffffffffffffffffffffffffffffffffffffffff166391d1485482610e77612083565b6040518363ffffffff1660e01b8152600401610e94929190612ccb565b602060405180830381865afa158015610eb1573d6000803e3d6000fd5b505050506040513d601f19601f82011682018060405250810190610ed59190612d20565b610ee357610ee28161208b565b5b610eed838361209f565b505050565b6000602160007ffa6557a51a133888544923dacdca355721a35fbeebe974f1e7d28d3105e033cf60001c815260200190815260200160002054905090565b7fcaa210682aa7d6b03d19b857c87a6e4c61b2ea999c417f0652a36447d144f23860001c81565b600060226000838152602001908152602001600020600101549050919050565b6000602160007f1ec8339790254679015c7b4db055ec6bb45de4d3ff3193d766a1cc6ce145728d60001c815260200190815260200160002054905090565b7fa49807205ce4d355092ef5a8a18f56e8913cf4a201fbe287825b095693c2177560008054906101000a900473ffffffffffffffffffffffffffffffffffffffff1673ffffffffffffffffffffffffffffffffffffffff166391d148548261101b612083565b6040518363ffffffff1660e01b8152600401611038929190612ccb565b602060405180830381865afa158015611055573d6000803e3d6000fd5b505050506040513d601f19601f820116820180604052508101906110799190612d20565b611087576110868161208b565b5b61109183836120fb565b505050565b61109e612083565b73ffffffffffffffffffffffffffffffffffffffff168173ffffffffffffffffffffffffffffffffffffffff161461110b576040517f08c379a000000000000000000000000000000000000000000000000000000000815260040161110290612e7a565b60405180910390fd5b61111582826121dc565b5050565b7fe4a4e5425e0f84d8d68c8433df2512e8e48969299d032314614356a42435a73960001c81565b7fa49807205ce4d355092ef5a8a18f56e8913cf4a201fbe287825b095693c2177560008054906101000a900473ffffffffffffffffffffffffffffffffffffffff1673ffffffffffffffffffffffffffffffffffffffff166391d14854826111a6612083565b6040518363ffffffff1660e01b81526004016111c3929190612ccb565b602060405180830381865afa1580156111e0573d6000803e3d6000fd5b505050506040513d601f19601f820116820180604052508101906112049190612d20565b611212576112118161208b565b5b8173ffffffffffffffffffffffffffffffffffffffff16602160007fcaa210682aa7d6b03d19b857c87a6e4c61b2ea999c417f0652a36447d144f23860001c8152602001908152602001600020819055505050565b7f69661401bd068c022c278f73b3789a33e22d5eafe981e9265041b6fe72a122fe60001c81565b6000602160007fb6907c3662b516b409b2dfc811949414b2398912e6fa671912cf81c947d1297660001c815260200190815260200160002054905090565b7f1ec8339790254679015c7b4db055ec6bb45de4d3ff3193d766a1cc6ce145728d60001c81565b7f6fede10a232b276bc7c310abfbe151b58ba2286d825bc9e66c6e5fd488844e1060001c81565b7fb6907c3662b516b409b2dfc811949414b2398912e6fa671912cf81c947d1297660001c81565b7f36051e26b7ee9ab8bfe79486c0d7a7a2112864a57aa54065540eccb3c4a4452260001c81565b7fa49807205ce4d355092ef5a8a18f56e8913cf4a201fbe287825b095693c2177581565b7fa49807205ce4d355092ef5a8a18f56e8913cf4a201fbe287825b095693c2177560008054906101000a900473ffffffffffffffffffffffffffffffffffffffff1673ffffffffffffffffffffffffffffffffffffffff166391d14854826113f2612083565b6040518363ffffffff1660e01b815260040161140f929190612ccb565b602060405180830381865afa15801561142c573d6000803e3d6000fd5b505050506040513d601f19601f820116820180604052508101906114509190612d20565b61145e5761145d8161208b565b5b8173ffffffffffffffffffffffffffffffffffffffff16602160007fb6907c3662b516b409b2dfc811949414b2398912e6fa671912cf81c947d1297660001c8152602001908152602001600020819055505050565b60008054906101000a900473ffffffffffffffffffffffffffffffffffffffff1681565b6000602160007f6ea4018daf79dd2b85ff55e23caa9708d35a5af81f862526e25c36407a95ad8160001c815260200190815260200160002054905090565b600061151f6122be565b905060008160000160089054906101000a900460ff1615905060008260000160009054906101000a900467ffffffffffffffff1690506000808267ffffffffffffffff1614801561156d5750825b9050600060018367ffffffffffffffff161480156115a2575060003073ffffffffffffffffffffffffffffffffffffffff163b145b9050811580156115b0575080155b156115e7576040517ff92ee8a900000000000000000000000000000000000000000000000000000000815260040160405180910390fd5b60018560000160006101000a81548167ffffffffffffffff021916908367ffffffffffffffff16021790555083156116375760018560000160086101000a81548160ff0219169083151502179055505b611640306122e6565b61166a7fa49807205ce4d355092ef5a8a18f56e8913cf4a201fbe287825b095693c21775336120fb565b83156116c65760008560000160086101000a81548160ff0219169083151502179055507fc7f505b2f371ae2175ee4913f4499e1f2633a7b5936321eed1cdaeb6115181d260016040516116bd9190612ed5565b60405180910390a15b5050505050565b7ffa6557a51a133888544923dacdca355721a35fbeebe974f1e7d28d3105e033cf60001c81565b6000602160007f6fede10a232b276bc7c310abfbe151b58ba2286d825bc9e66c6e5fd488844e1060001c815260200190815260200160002054905090565b7fa49807205ce4d355092ef5a8a18f56e8913cf4a201fbe287825b095693c2177560008054906101000a900473ffffffffffffffffffffffffffffffffffffffff1673ffffffffffffffffffffffffffffffffffffffff166391d1485482611798612083565b6040518363ffffffff1660e01b81526004016117b5929190612ccb565b602060405180830381865afa1580156117d2573d6000803e3d6000fd5b505050506040513d601f19601f820116820180604052508101906117f69190612d20565b611804576118038161208b565b5b8173ffffffffffffffffffffffffffffffffffffffff16602160007f69661401bd068c022c278f73b3789a33e22d5eafe981e9265041b6fe72a122fe60001c8152602001908152602001600020819055505050565b60006022600084815260200190815260200160002060020160009054906101000a900460ff16806118e757506022600084815260200190815260200160002060000160008373ffffffffffffffffffffffffffffffffffffffff1673ffffffffffffffffffffffffffffffffffffffff16815260200190815260200160002060009054906101000a900460ff165b905092915050565b7f25cf2b509f2a7f322675b2a5322b182f44ad2c03ac941a0af17c9b178f5d5d5f81565b6000602160007fcaa210682aa7d6b03d19b857c87a6e4c61b2ea999c417f0652a36447d144f23860001c815260200190815260200160002054905090565b7fe3fb0f89bf43754026f5df1c4a405631deca482f630ed00c4f9897a30ea0764260001c81565b6000801b81565b6000602160007f69661401bd068c022c278f73b3789a33e22d5eafe981e9265041b6fe72a122fe60001c815260200190815260200160002054905090565b7f6ea4018daf79dd2b85ff55e23caa9708d35a5af81f862526e25c36407a95ad8160001c81565b7f454c90bb89af48c9c15cd0acb46e1f05be34b6d27d24973b724e6ff6477e129f60001c81565b7f9fb48ff2476bdf82119573e311cab5a3bbdadc90cac7a17cbe16c403581c2c3060001c81565b60226020528060005260406000206000915090508060010154908060020160009054906101000a900460ff16905082565b60025481565b7fa49807205ce4d355092ef5a8a18f56e8913cf4a201fbe287825b095693c2177560008054906101000a900473ffffffffffffffffffffffffffffffffffffffff1673ffffffffffffffffffffffffffffffffffffffff166391d1485482611acf612083565b6040518363ffffffff1660e01b8152600401611aec929190612ccb565b602060405180830381865afa158015611b09573d6000803e3d6000fd5b505050506040513d601f19601f82011682018060405250810190611b2d9190612d20565b611b3b57611b3a8161208b565b5b620186a08263ffffffff161115611b87576040517f08c379a0000000000000000000000000000000000000000000000000000000008152600401611b7e90612f62565b60405180910390fd5b8163ffffffff16602160007f6fede10a232b276bc7c310abfbe151b58ba2286d825bc9e66c6e5fd488844e1060001c8152602001908152602001600020819055505050565b7fa49807205ce4d355092ef5a8a18f56e8913cf4a201fbe287825b095693c2177560008054906101000a900473ffffffffffffffffffffffffffffffffffffffff1673ffffffffffffffffffffffffffffffffffffffff166391d1485482611c32612083565b6040518363ffffffff1660e01b8152600401611c4f929190612ccb565b602060405180830381865afa158015611c6c573d6000803e3d6000fd5b505050506040513d601f19601f82011682018060405250810190611c909190612d20565b611c9e57611c9d8161208b565b5b611ca883836121dc565b505050565b7fa49807205ce4d355092ef5a8a18f56e8913cf4a201fbe287825b095693c2177560008054906101000a900473ffffffffffffffffffffffffffffffffffffffff1673ffffffffffffffffffffffffffffffffffffffff166391d1485482611d13612083565b6040518363ffffffff1660e01b8152600401611d30929190612ccb565b602060405180830381865afa158015611d4d573d6000803e3d6000fd5b505050506040513d601f19601f82011682018060405250810190611d719190612d20565b611d7f57611d7e8161208b565b5b8173ffffffffffffffffffffffffffffffffffffffff16602160007ffa6557a51a133888544923dacdca355721a35fbeebe974f1e7d28d3105e033cf60001c8152602001908152602001600020819055505050565b670de0b6b3a764000081565b6000602160007f36051e26b7ee9ab8bfe79486c0d7a7a2112864a57aa54065540eccb3c4a4452260001c815260200190815260200160002054905090565b620f424081565b6000602160007fe4a4e5425e0f84d8d68c8433df2512e8e48969299d032314614356a42435a73960001c815260200190815260200160002054905090565b7ff66846415d2bf9eabda9e84793ff9c0ea96d87f50fc41e66aa16469c6a442f0581565b7fe01bea03000f908384fec12f1bb9cff12e05a5d91a94bfedd901d5696153a5a360001c81565b7fa49807205ce4d355092ef5a8a18f56e8913cf4a201fbe287825b095693c2177560008054906101000a900473ffffffffffffffffffffffffffffffffffffffff1673ffffffffffffffffffffffffffffffffffffffff166391d1485482611f14612083565b6040518363ffffffff1660e01b8152600401611f31929190612ccb565b602060405180830381865afa158015611f4e573d6000803e3d6000fd5b505050506040513d601f19601f82011682018060405250810190611f729190612d20565b611f8057611f7f8161208b565b5b8473ffffffffffffffffffffffffffffffffffffffff16602160007f36051e26b7ee9ab8bfe79486c0d7a7a2112864a57aa54065540eccb3c4a4452260001c8152602001908152602001600020819055508373ffffffffffffffffffffffffffffffffffffffff16602160007fe4a4e5425e0f84d8d68c8433df2512e8e48969299d032314614356a42435a73960001c8152602001908152602001600020819055508273ffffffffffffffffffffffffffffffffffffffff16602160007f6ea4018daf79dd2b85ff55e23caa9708d35a5af81f862526e25c36407a95ad8160001c81526020019081526020016000208190555061207c82611a69565b5050505050565b600033905090565b61209c81612097612083565b612341565b50565b60006120aa83610f57565b90508160226000858152602001908152602001600020600101819055508181847fbd79b86ffe0ab8e8776151514217cd7cacd52c909f66475c3af44e129f0b00ff60405160405180910390a4505050565b6121058282611859565b6121d85760016022600084815260200190815260200160002060000160008373ffffffffffffffffffffffffffffffffffffffff1673ffffffffffffffffffffffffffffffffffffffff16815260200190815260200160002060006101000a81548160ff02191690831515021790555061217d612083565b73ffffffffffffffffffffffffffffffffffffffff168173ffffffffffffffffffffffffffffffffffffffff16837f2f8788117e7eff1d82e926ec794901d17c78024a50270940304540a733656f0d60405160405180910390a45b5050565b6121e68282611859565b156122ba5760006022600084815260200190815260200160002060000160008373ffffffffffffffffffffffffffffffffffffffff1673ffffffffffffffffffffffffffffffffffffffff16815260200190815260200160002060006101000a81548160ff02191690831515021790555061225f612083565b73ffffffffffffffffffffffffffffffffffffffff168173ffffffffffffffffffffffffffffffffffffffff16837ff6391f5c32d9c69d2a47ea670b442974b53935d1edc7fd64eb21e047a839171b60405160405180910390a45b5050565b60007ff0c57e16840df040f15088dc2f81fe391c3923bec73e23a9662efc9c229c6a00905090565b6122ee612458565b806000806101000a81548173ffffffffffffffffffffffffffffffffffffffff021916908373ffffffffffffffffffffffffffffffffffffffff160217905550612336612498565b61233e6124aa565b50565b60008054906101000a900473ffffffffffffffffffffffffffffffffffffffff1673ffffffffffffffffffffffffffffffffffffffff166391d1485483836040518363ffffffff1660e01b815260040161239c929190612ccb565b602060405180830381865afa1580156123b9573d6000803e3d6000fd5b505050506040513d601f19601f820116820180604052508101906123dd9190612d20565b612454576123ea816124b4565b6123f88360001c60206124e1565b60405160200161240992919061308b565b6040516020818303038152906040526040517f08c379a000000000000000000000000000000000000000000000000000000000815260040161244b919061310f565b60405180910390fd5b5050565b612460612727565b612496576040517fd7e6bcf800000000000000000000000000000000000000000000000000000000815260040160405180910390fd5b565b6124a0612458565b6124a8612747565b565b6124b2612458565b565b60606124da8273ffffffffffffffffffffffffffffffffffffffff16601460ff166124e1565b9050919050565b60606000839050600060028460026124f99190613160565b61250391906131a2565b67ffffffffffffffff81111561251c5761251b6131d6565b5b6040519080825280601f01601f19166020018201604052801561254e5781602001600182028036833780820191505090505b5090507f30000000000000000000000000000000000000000000000000000000000000008160008151811061258657612585613205565b5b60200101907effffffffffffffffffffffffffffffffffffffffffffffffffffffffffffff1916908160001a9053507f7800000000000000000000000000000000000000000000000000000000000000816001815181106125ea576125e9613205565b5b60200101907effffffffffffffffffffffffffffffffffffffffffffffffffffffffffffff1916908160001a9053506000600185600261262a9190613160565b61263491906131a2565b90505b60018111156126d4577f3031323334353637383961626364656600000000000000000000000000000000600f84166010811061267657612675613205565b5b1a60f81b82828151811061268d5761268c613205565b5b60200101907effffffffffffffffffffffffffffffffffffffffffffffffffffffffffffff1916908160001a905350600483901c9250806126cd90613234565b9050612637565b506000821461271c5784846040517fe22e27eb00000000000000000000000000000000000000000000000000000000815260040161271392919061325d565b60405180910390fd5b809250505092915050565b60006127316122be565b60000160089054906101000a900460ff16905090565b61274f612458565b6000612759612768565b90506001816000018190555050565b60007f9b779b17422d0df92223018b32b4d1fa46e071723d6817e2486d003becc55f00905090565b600082825260208201905092915050565b7f426173653a206e6f7420737570706f7274204d65746973207472616e73666572600082015250565b60006127d7602083612790565b91506127e2826127a1565b602082019050919050565b60006020820190508181036000830152612806816127ca565b9050919050565b600080fd5b600067ffffffffffffffff82169050919050565b61282f81612812565b811461283a57600080fd5b50565b60008135905061284c81612826565b92915050565b6000602082840312156128685761286761280d565b5b60006128768482850161283d565b91505092915050565b600073ffffffffffffffffffffffffffffffffffffffff82169050919050565b60006128aa8261287f565b9050919050565b6128ba8161289f565b81146128c557600080fd5b50565b6000813590506128d7816128b1565b92915050565b6000602082840312156128f3576128f261280d565b5b6000612901848285016128c8565b91505092915050565b6000819050919050565b61291d8161290a565b811461292857600080fd5b50565b60008135905061293a81612914565b92915050565b6000602082840312156129565761295561280d565b5b60006129648482850161292b565b91505092915050565b6129768161290a565b82525050565b6000602082019050612991600083018461296d565b92915050565b6000819050919050565b6129aa81612997565b81146129b557600080fd5b50565b6000813590506129c7816129a1565b92915050565b600080604083850312156129e4576129e361280d565b5b60006129f2858286016129b8565b9250506020612a03858286016129b8565b9150509250929050565b612a168161289f565b82525050565b6000602082019050612a316000830184612a0d565b92915050565b600060208284031215612a4d57612a4c61280d565b5b6000612a5b848285016129b8565b91505092915050565b612a6d81612997565b82525050565b6000602082019050612a886000830184612a64565b92915050565b612a9781612812565b82525050565b6000602082019050612ab26000830184612a8e565b92915050565b60008060408385031215612acf57612ace61280d565b5b6000612add858286016129b8565b9250506020612aee858286016128c8565b9150509250929050565b6000819050919050565b6000612b1d612b18612b138461287f565b612af8565b61287f565b9050919050565b6000612b2f82612b02565b9050919050565b6000612b4182612b24565b9050919050565b612b5181612b36565b82525050565b6000602082019050612b6c6000830184612b48565b92915050565b600063ffffffff82169050919050565b612b8b81612b72565b82525050565b6000602082019050612ba66000830184612b82565b92915050565b60008115159050919050565b612bc181612bac565b82525050565b6000602082019050612bdc6000830184612bb8565b92915050565b6000604082019050612bf76000830185612a64565b612c046020830184612bb8565b9392505050565b612c1481612b72565b8114612c1f57600080fd5b50565b600081359050612c3181612c0b565b92915050565b600060208284031215612c4d57612c4c61280d565b5b6000612c5b84828501612c22565b91505092915050565b60008060008060808587031215612c7e57612c7d61280d565b5b6000612c8c878288016128c8565b9450506020612c9d878288016128c8565b9350506040612cae878288016128c8565b9250506060612cbf87828801612c22565b91505092959194509250565b6000604082019050612ce06000830185612a64565b612ced6020830184612a0d565b9392505050565b612cfd81612bac565b8114612d0857600080fd5b50565b600081519050612d1a81612cf4565b92915050565b600060208284031215612d3657612d3561280d565b5b6000612d4484828501612d0b565b91505092915050565b6000604082019050612d626000830185612a8e565b612d6f6020830184612a8e565b9392505050565b7f436f6e6669673a2070726f746f636f6c5472656173757279206973207a65726f60008201527f2061646472657373000000000000000000000000000000000000000000000000602082015250565b6000612dd2602883612790565b9150612ddd82612d76565b604082019050919050565b60006020820190508181036000830152612e0181612dc5565b9050919050565b7f416363657373436f6e74726f6c3a2063616e206f6e6c792072656e6f756e636560008201527f20726f6c657320666f722073656c660000000000000000000000000000000000602082015250565b6000612e64602f83612790565b9150612e6f82612e08565b604082019050919050565b60006020820190508181036000830152612e9381612e57565b9050919050565b6000819050919050565b6000612ebf612eba612eb584612e9a565b612af8565b612812565b9050919050565b612ecf81612ea4565b82525050565b6000602082019050612eea6000830184612ec6565b92915050565b7f436f6e6669673a2070726f746f636f6c5472656173757279526174696f206d7560008201527f7374206265206c657373207468616e2031303030300000000000000000000000602082015250565b6000612f4c603583612790565b9150612f5782612ef0565b604082019050919050565b60006020820190508181036000830152612f7b81612f3f565b9050919050565b600081905092915050565b7f416363657373436f6e74726f6c3a206163636f756e7420000000000000000000600082015250565b6000612fc3601783612f82565b9150612fce82612f8d565b601782019050919050565b600081519050919050565b60005b83811015613002578082015181840152602081019050612fe7565b60008484015250505050565b600061301982612fd9565b6130238185612f82565b9350613033818560208601612fe4565b80840191505092915050565b7f206973206d697373696e6720726f6c6520000000000000000000000000000000600082015250565b6000613075601183612f82565b91506130808261303f565b601182019050919050565b600061309682612fb6565b91506130a2828561300e565b91506130ad82613068565b91506130b9828461300e565b91508190509392505050565b6000601f19601f8301169050919050565b60006130e182612fd9565b6130eb8185612790565b93506130fb818560208601612fe4565b613104816130c5565b840191505092915050565b6000602082019050818103600083015261312981846130d6565b905092915050565b7f4e487b7100000000000000000000000000000000000000000000000000000000600052601160045260246000fd5b600061316b8261290a565b91506131768361290a565b92508282026131848161290a565b9150828204841483151761319b5761319a613131565b5b5092915050565b60006131ad8261290a565b91506131b88361290a565b92508282019050808211156131d0576131cf613131565b5b92915050565b7f4e487b7100000000000000000000000000000000000000000000000000000000600052604160045260246000fd5b7f4e487b7100000000000000000000000000000000000000000000000000000000600052603260045260246000fd5b600061323f8261290a565b91506000820361325257613251613131565b5b600182039050919050565b6000604082019050613272600083018561296d565b61327f602083018461296d565b939250505056fea26469706673582212201fe4b7559061dd97f21ce985c060a884bdc28e6513e1a106dba0ffd9fc81552764736f6c63430008140033",
  "linkReferences": {},
  "deployedLinkReferences": {}
}