{
  "_format": "hh-sol-artifact-1",
  "contractName": "RewardDispatcher",
  "sourceName": "contracts/RewardDispatcher.sol",
  "abi": [
    {
      "inputs": [
        {
          "internalType": "address",
          "name": "target",
          "type": "address"
        }
      ],
      "name": "AddressEmptyCode",
      "type": "error"
    },
    {
      "inputs": [
        {
          "internalType": "address",
          "name": "account",
          "type": "address"
        }
      ],
      "name": "AddressInsufficientBalance",
      "type": "error"
    },
    {
      "inputs": [],
      "name": "FailedInnerCall",
      "type": "error"
    },
    {
      "inputs": [],
      "name": "InvalidInitialization",
      "type": "error"
    },
    {
      "inputs": [],
      "name": "NotInitializing",
      "type": "error"
    },
    {
      "inputs": [
        {
          "internalType": "address",
          "name": "token",
          "type": "address"
        }
      ],
      "name": "SafeERC20FailedOperation",
      "type": "error"
    },
    {
      "anonymous": false,
      "inputs": [
        {
          "indexed": false,
          "internalType": "uint256",
          "name": "amount",
          "type": "uint256"
        },
        {
          "indexed": false,
          "internalType": "uint256",
          "name": "protocolTreasuryAmount",
          "type": "uint256"
        },
        {
          "indexed": false,
          "internalType": "uint256",
          "name": "sveMetisAmount",
          "type": "uint256"
        }
      ],
      "name": "Dispatched",
      "type": "event"
    },
    {
      "anonymous": false,
      "inputs": [
        {
          "indexed": false,
          "internalType": "uint64",
          "name": "version",
          "type": "uint64"
        }
      ],
      "name": "Initialized",
      "type": "event"
    },
    {
      "inputs": [],
      "name": "BETA_USER_ROLE",
      "outputs": [
        {
          "internalType": "bytes32",
          "name": "",
          "type": "bytes32"
        }
      ],
      "stateMutability": "view",
      "type": "function"
    },
    {
      "inputs": [],
      "name": "DEFAULT_ADMIN_ROLE",
      "outputs": [
        {
          "internalType": "bytes32",
          "name": "",
          "type": "bytes32"
        }
      ],
      "stateMutability": "view",
      "type": "function"
    },
    {
      "inputs": [],
      "name": "INTERNAL_ROLE",
      "outputs": [
        {
          "internalType": "bytes32",
          "name": "",
          "type": "bytes32"
        }
      ],
      "stateMutability": "view",
      "type": "function"
    },
    {
      "inputs": [],
      "name": "bridge",
      "outputs": [
        {
          "internalType": "address",
          "name": "",
          "type": "address"
        }
      ],
      "stateMutability": "view",
      "type": "function"
    },
    {
      "inputs": [],
      "name": "config",
      "outputs": [
        {
          "internalType": "contract IConfig",
          "name": "",
          "type": "address"
        }
      ],
      "stateMutability": "view",
      "type": "function"
    },
    {
      "inputs": [],
      "name": "crossDomainMessenger",
      "outputs": [
        {
          "internalType": "address",
          "name": "",
          "type": "address"
        }
      ],
      "stateMutability": "view",
      "type": "function"
    },
    {
      "inputs": [
        {
          "internalType": "uint256",
          "name": "metisAmount",
          "type": "uint256"
        }
      ],
      "name": "dispatch",
      "outputs": [],
      "stateMutability": "nonpayable",
      "type": "function"
    },
    {
      "inputs": [
        {
          "internalType": "address",
          "name": "_config",
          "type": "address"
        }
      ],
      "name": "initialize",
      "outputs": [],
      "stateMutability": "nonpayable",
      "type": "function"
    },
    {
      "inputs": [],
      "name": "metis",
      "outputs": [
        {
          "internalType": "address",
          "name": "",
          "type": "address"
        }
      ],
      "stateMutability": "view",
      "type": "function"
    },
    {
      "inputs": [],
      "name": "sveMetis",
      "outputs": [
        {
          "internalType": "address",
          "name": "",
          "type": "address"
        }
      ],
      "stateMutability": "view",
      "type": "function"
    },
    {
      "inputs": [],
      "name": "veMetis",
      "outputs": [
        {
          "internalType": "address",
          "name": "",
          "type": "address"
        }
      ],
      "stateMutability": "view",
      "type": "function"
    },
    {
      "inputs": [],
      "name": "veMetisMinter",
      "outputs": [
        {
          "internalType": "address",
          "name": "",
          "type": "address"
        }
      ],
      "stateMutability": "view",
      "type": "function"
    }
  ],
  "bytecode": "0x608060405234801561001057600080fd5b50610c8e806100206000396000f3fe608060405234801561001057600080fd5b50600436106100d45760003560e01c8063bf27726c11610081578063e78cea921161005b578063e78cea92146101ce578063f1389bae146101e1578063f43b3613146101f457600080fd5b8063bf27726c14610193578063c4d66de8146101a6578063e5974554146101bb57600080fd5b8063a217fddf116100b2578063a217fddf14610151578063a219147014610159578063beff68241461016c57600080fd5b80635629ffd0146100d957806379502c55146101135780639336ce801461013e575b600080fd5b6101007feac7d12e691a65e32c753f5314b9ac42acdb8dd77f0033b2f2a2e2e012122a0d81565b6040519081526020015b60405180910390f35b600054610126906001600160a01b031681565b6040516001600160a01b03909116815260200161010a565b602154610126906001600160a01b031681565b610100600081565b602254610126906001600160a01b031681565b6101007fddd94edc7da5bca8f576c77964a4737ba5172c728e2d539e672f0229d1e9ec2d81565b602054610126906001600160a01b031681565b6101b96101b4366004610b3c565b610207565b005b601f54610126906001600160a01b031681565b602354610126906001600160a01b031681565b6101b96101ef366004610b59565b6105b2565b602454610126906001600160a01b031681565b7ff0c57e16840df040f15088dc2f81fe391c3923bec73e23a9662efc9c229c6a00805468010000000000000000810460ff16159067ffffffffffffffff166000811580156102525750825b905060008267ffffffffffffffff16600114801561026f5750303b155b90508115801561027d575080155b1561029b5760405163f92ee8a960e01b815260040160405180910390fd5b845467ffffffffffffffff1916600117855583156102cf57845468ff00000000000000001916680100000000000000001785555b6102d88661089b565b60008054906101000a90046001600160a01b03166001600160a01b031663e59745546040518163ffffffff1660e01b8152600401602060405180830381865afa158015610329573d6000803e3d6000fd5b505050506040513d601f19601f8201168201806040525081019061034d9190610b72565b601f80546001600160a01b0319166001600160a01b0392831617905560005460408051632fc9dc9b60e21b81529051919092169163bf27726c9160048083019260209291908290030181865afa1580156103ab573d6000803e3d6000fd5b505050506040513d601f19601f820116820180604052508101906103cf9190610b72565b602080546001600160a01b0319166001600160a01b03928316178155600054604080516301266d9d60e71b815290519190931692639336ce809260048083019391928290030181865afa15801561042a573d6000803e3d6000fd5b505050506040513d601f19601f8201168201806040525081019061044e9190610b72565b602180546001600160a01b0319166001600160a01b0392831617905560005460408051630a21914760e41b81529051919092169163a21914709160048083019260209291908290030181865afa1580156104ac573d6000803e3d6000fd5b505050506040513d601f19601f820116820180604052508101906104d09190610b72565b602280546001600160a01b0319166001600160a01b03928316179055601f5460205460405163095ea7b360e01b81529083166004820152600019602482015291169063095ea7b3906044016020604051808303816000875af115801561053a573d6000803e3d6000fd5b505050506040513d601f19601f8201168201806040525081019061055e9190610b8f565b5083156105aa57845468ff000000000000000019168555604051600181527fc7f505b2f371ae2175ee4913f4499e1f2633a7b5936321eed1cdaeb6115181d29060200160405180910390a15b505050505050565b801561069957601f546040516323b872dd60e01b8152336004820152306024820152604481018390526001600160a01b03909116906323b872dd906064016020604051808303816000875af115801561060f573d6000803e3d6000fd5b505050506040513d601f19601f820116820180604052508101906106339190610b8f565b506020546040516340c10f1960e01b8152306004820152602481018390526001600160a01b03909116906340c10f1990604401600060405180830381600087803b15801561068057600080fd5b505af1158015610694573d6000803e3d6000fd5b505050505b6021546040516370a0823160e01b81523060048201526000916001600160a01b0316906370a0823190602401602060405180830381865afa1580156106e2573d6000803e3d6000fd5b505050506040513d601f19601f820116820180604052508101906107069190610bb1565b9050600061271060008054906101000a90046001600160a01b03166001600160a01b0316638b587b9c6040518163ffffffff1660e01b8152600401602060405180830381865afa15801561075e573d6000803e3d6000fd5b505050506040513d601f19601f820116820180604052508101906107829190610bca565b6107929063ffffffff1684610c06565b61079c9190610c1d565b905060006107aa8284610c3f565b905061083760008054906101000a90046001600160a01b03166001600160a01b031663803db96d6040518163ffffffff1660e01b8152600401602060405180830381865afa158015610800573d6000803e3d6000fd5b505050506040513d601f19601f820116820180604052508101906108249190610b72565b6021546001600160a01b031690846108c5565b602254602154610854916001600160a01b039182169116836108c5565b60408051848152602081018490529081018290527f929c30b248a2b23bb2e1ab7c63cbbd5e53480d01e032310e7de1d3865e2fb9379060600160405180910390a150505050565b6108a3610931565b600080546001600160a01b0319166001600160a01b0392909216919091179055565b604080516001600160a01b038416602482015260448082018490528251808303909101815260649091019091526020810180517bffffffffffffffffffffffffffffffffffffffffffffffffffffffff1663a9059cbb60e01b17905261092c908490610981565b505050565b7ff0c57e16840df040f15088dc2f81fe391c3923bec73e23a9662efc9c229c6a005468010000000000000000900460ff1661097f57604051631afcd79f60e31b815260040160405180910390fd5b565b60006109966001600160a01b038416836109e9565b905080516000141580156109bb5750808060200190518101906109b99190610b8f565b155b1561092c57604051635274afe760e01b81526001600160a01b03841660048201526024015b60405180910390fd5b60606109f783836000610a00565b90505b92915050565b606081471015610a255760405163cd78605960e01b81523060048201526024016109e0565b600080856001600160a01b03168486604051610a419190610c52565b60006040518083038185875af1925050503d8060008114610a7e576040519150601f19603f3d011682016040523d82523d6000602084013e610a83565b606091505b5091509150610a93868383610a9f565b925050505b9392505050565b606082610ab457610aaf82610afb565b610a98565b8151158015610acb57506001600160a01b0384163b155b15610af457604051639996b31560e01b81526001600160a01b03851660048201526024016109e0565b5080610a98565b805115610b0b5780518082602001fd5b604051630a12f52160e11b815260040160405180910390fd5b50565b6001600160a01b0381168114610b2457600080fd5b600060208284031215610b4e57600080fd5b8135610a9881610b27565b600060208284031215610b6b57600080fd5b5035919050565b600060208284031215610b8457600080fd5b8151610a9881610b27565b600060208284031215610ba157600080fd5b81518015158114610a9857600080fd5b600060208284031215610bc357600080fd5b5051919050565b600060208284031215610bdc57600080fd5b815163ffffffff81168114610a9857600080fd5b634e487b7160e01b600052601160045260246000fd5b80820281158282048414176109fa576109fa610bf0565b600082610c3a57634e487b7160e01b600052601260045260246000fd5b500490565b818103818111156109fa576109fa610bf0565b6000825160005b81811015610c735760208186018101518583015201610c59565b50600092019182525091905056fea164736f6c6343000814000a",
  "linkReferences": {},
  "deployedLinkReferences": {}
}