{
  "_format": "hh-sol-artifact-1",
  "contractName": "SveMetis",
  "sourceName": "contracts/SveMetis.sol",
  "abi": [
    {
      "inputs": [
        {
          "internalType": "address",
          "name": "target",
          "type": "address"
        }
      ],
      "name": "AddressEmptyCode",
      "type": "error"
    },
    {
      "inputs": [
        {
          "internalType": "address",
          "name": "account",
          "type": "address"
        }
      ],
      "name": "AddressInsufficientBalance",
      "type": "error"
    },
    {
      "inputs": [
        {
          "internalType": "address",
          "name": "spender",
          "type": "address"
        },
        {
          "internalType": "uint256",
          "name": "allowance",
          "type": "uint256"
        },
        {
          "internalType": "uint256",
          "name": "needed",
          "type": "uint256"
        }
      ],
      "name": "ERC20InsufficientAllowance",
      "type": "error"
    },
    {
      "inputs": [
        {
          "internalType": "address",
          "name": "sender",
          "type": "address"
        },
        {
          "internalType": "uint256",
          "name": "balance",
          "type": "uint256"
        },
        {
          "internalType": "uint256",
          "name": "needed",
          "type": "uint256"
        }
      ],
      "name": "ERC20InsufficientBalance",
      "type": "error"
    },
    {
      "inputs": [
        {
          "internalType": "address",
          "name": "approver",
          "type": "address"
        }
      ],
      "name": "ERC20InvalidApprover",
      "type": "error"
    },
    {
      "inputs": [
        {
          "internalType": "address",
          "name": "receiver",
          "type": "address"
        }
      ],
      "name": "ERC20InvalidReceiver",
      "type": "error"
    },
    {
      "inputs": [
        {
          "internalType": "address",
          "name": "sender",
          "type": "address"
        }
      ],
      "name": "ERC20InvalidSender",
      "type": "error"
    },
    {
      "inputs": [
        {
          "internalType": "address",
          "name": "spender",
          "type": "address"
        }
      ],
      "name": "ERC20InvalidSpender",
      "type": "error"
    },
    {
      "inputs": [
        {
          "internalType": "address",
          "name": "receiver",
          "type": "address"
        },
        {
          "internalType": "uint256",
          "name": "assets",
          "type": "uint256"
        },
        {
          "internalType": "uint256",
          "name": "max",
          "type": "uint256"
        }
      ],
      "name": "ERC4626ExceededMaxDeposit",
      "type": "error"
    },
    {
      "inputs": [
        {
          "internalType": "address",
          "name": "receiver",
          "type": "address"
        },
        {
          "internalType": "uint256",
          "name": "shares",
          "type": "uint256"
        },
        {
          "internalType": "uint256",
          "name": "max",
          "type": "uint256"
        }
      ],
      "name": "ERC4626ExceededMaxMint",
      "type": "error"
    },
    {
      "inputs": [
        {
          "internalType": "address",
          "name": "owner",
          "type": "address"
        },
        {
          "internalType": "uint256",
          "name": "shares",
          "type": "uint256"
        },
        {
          "internalType": "uint256",
          "name": "max",
          "type": "uint256"
        }
      ],
      "name": "ERC4626ExceededMaxRedeem",
      "type": "error"
    },
    {
      "inputs": [
        {
          "internalType": "address",
          "name": "owner",
          "type": "address"
        },
        {
          "internalType": "uint256",
          "name": "assets",
          "type": "uint256"
        },
        {
          "internalType": "uint256",
          "name": "max",
          "type": "uint256"
        }
      ],
      "name": "ERC4626ExceededMaxWithdraw",
      "type": "error"
    },
    {
      "inputs": [],
      "name": "FailedInnerCall",
      "type": "error"
    },
    {
      "inputs": [],
      "name": "InvalidInitialization",
      "type": "error"
    },
    {
      "inputs": [],
      "name": "MathOverflowedMulDiv",
      "type": "error"
    },
    {
      "inputs": [],
      "name": "NotInitializing",
      "type": "error"
    },
    {
      "inputs": [
        {
          "internalType": "address",
          "name": "token",
          "type": "address"
        }
      ],
      "name": "SafeERC20FailedOperation",
      "type": "error"
    },
    {
      "inputs": [
        {
          "internalType": "uint256",
          "name": "value",
          "type": "uint256"
        },
        {
          "internalType": "uint256",
          "name": "length",
          "type": "uint256"
        }
      ],
      "name": "StringsInsufficientHexLength",
      "type": "error"
    },
    {
      "anonymous": false,
      "inputs": [
        {
          "indexed": true,
          "internalType": "address",
          "name": "owner",
          "type": "address"
        },
        {
          "indexed": true,
          "internalType": "address",
          "name": "spender",
          "type": "address"
        },
        {
          "indexed": false,
          "internalType": "uint256",
          "name": "value",
          "type": "uint256"
        }
      ],
      "name": "Approval",
      "type": "event"
    },
    {
      "anonymous": false,
      "inputs": [
        {
          "indexed": true,
          "internalType": "address",
          "name": "sender",
          "type": "address"
        },
        {
          "indexed": true,
          "internalType": "address",
          "name": "owner",
          "type": "address"
        },
        {
          "indexed": false,
          "internalType": "uint256",
          "name": "assets",
          "type": "uint256"
        },
        {
          "indexed": false,
          "internalType": "uint256",
          "name": "shares",
          "type": "uint256"
        }
      ],
      "name": "Deposit",
      "type": "event"
    },
    {
      "anonymous": false,
      "inputs": [
        {
          "indexed": false,
          "internalType": "uint64",
          "name": "version",
          "type": "uint64"
        }
      ],
      "name": "Initialized",
      "type": "event"
    },
    {
      "anonymous": false,
      "inputs": [
        {
          "indexed": true,
          "internalType": "address",
          "name": "from",
          "type": "address"
        },
        {
          "indexed": true,
          "internalType": "address",
          "name": "to",
          "type": "address"
        },
        {
          "indexed": false,
          "internalType": "uint256",
          "name": "value",
          "type": "uint256"
        }
      ],
      "name": "Transfer",
      "type": "event"
    },
    {
      "anonymous": false,
      "inputs": [
        {
          "indexed": true,
          "internalType": "address",
          "name": "sender",
          "type": "address"
        },
        {
          "indexed": true,
          "internalType": "address",
          "name": "receiver",
          "type": "address"
        },
        {
          "indexed": true,
          "internalType": "address",
          "name": "owner",
          "type": "address"
        },
        {
          "indexed": false,
          "internalType": "uint256",
          "name": "assets",
          "type": "uint256"
        },
        {
          "indexed": false,
          "internalType": "uint256",
          "name": "shares",
          "type": "uint256"
        }
      ],
      "name": "Withdraw",
      "type": "event"
    },
    {
      "inputs": [],
      "name": "BETA_USER_ROLE",
      "outputs": [
        {
          "internalType": "bytes32",
          "name": "",
          "type": "bytes32"
        }
      ],
      "stateMutability": "view",
      "type": "function"
    },
    {
      "inputs": [],
      "name": "DEFAULT_ADMIN_ROLE",
      "outputs": [
        {
          "internalType": "bytes32",
          "name": "",
          "type": "bytes32"
        }
      ],
      "stateMutability": "view",
      "type": "function"
    },
    {
      "inputs": [],
      "name": "INTERNAL_ROLE",
      "outputs": [
        {
          "internalType": "bytes32",
          "name": "",
          "type": "bytes32"
        }
      ],
      "stateMutability": "view",
      "type": "function"
    },
    {
      "inputs": [
        {
          "internalType": "address",
          "name": "owner",
          "type": "address"
        },
        {
          "internalType": "address",
          "name": "spender",
          "type": "address"
        }
      ],
      "name": "allowance",
      "outputs": [
        {
          "internalType": "uint256",
          "name": "",
          "type": "uint256"
        }
      ],
      "stateMutability": "view",
      "type": "function"
    },
    {
      "inputs": [
        {
          "internalType": "address",
          "name": "spender",
          "type": "address"
        },
        {
          "internalType": "uint256",
          "name": "value",
          "type": "uint256"
        }
      ],
      "name": "approve",
      "outputs": [
        {
          "internalType": "bool",
          "name": "",
          "type": "bool"
        }
      ],
      "stateMutability": "nonpayable",
      "type": "function"
    },
    {
      "inputs": [],
      "name": "asset",
      "outputs": [
        {
          "internalType": "address",
          "name": "",
          "type": "address"
        }
      ],
      "stateMutability": "view",
      "type": "function"
    },
    {
      "inputs": [
        {
          "internalType": "address",
          "name": "account",
          "type": "address"
        }
      ],
      "name": "balanceOf",
      "outputs": [
        {
          "internalType": "uint256",
          "name": "",
          "type": "uint256"
        }
      ],
      "stateMutability": "view",
      "type": "function"
    },
    {
      "inputs": [],
      "name": "config",
      "outputs": [
        {
          "internalType": "contract IConfig",
          "name": "",
          "type": "address"
        }
      ],
      "stateMutability": "view",
      "type": "function"
    },
    {
      "inputs": [
        {
          "internalType": "uint256",
          "name": "shares",
          "type": "uint256"
        }
      ],
      "name": "convertToAssets",
      "outputs": [
        {
          "internalType": "uint256",
          "name": "",
          "type": "uint256"
        }
      ],
      "stateMutability": "view",
      "type": "function"
    },
    {
      "inputs": [
        {
          "internalType": "uint256",
          "name": "assets",
          "type": "uint256"
        }
      ],
      "name": "convertToShares",
      "outputs": [
        {
          "internalType": "uint256",
          "name": "",
          "type": "uint256"
        }
      ],
      "stateMutability": "view",
      "type": "function"
    },
    {
      "inputs": [],
      "name": "decimals",
      "outputs": [
        {
          "internalType": "uint8",
          "name": "",
          "type": "uint8"
        }
      ],
      "stateMutability": "view",
      "type": "function"
    },
    {
      "inputs": [
        {
          "internalType": "uint256",
          "name": "assets",
          "type": "uint256"
        },
        {
          "internalType": "address",
          "name": "receiver",
          "type": "address"
        }
      ],
      "name": "deposit",
      "outputs": [
        {
          "internalType": "uint256",
          "name": "",
          "type": "uint256"
        }
      ],
      "stateMutability": "nonpayable",
      "type": "function"
    },
    {
      "inputs": [
        {
          "internalType": "address",
          "name": "_config",
          "type": "address"
        }
      ],
      "name": "initialize",
      "outputs": [],
      "stateMutability": "nonpayable",
      "type": "function"
    },
    {
      "inputs": [
        {
          "internalType": "address",
          "name": "",
          "type": "address"
        }
      ],
      "name": "maxDeposit",
      "outputs": [
        {
          "internalType": "uint256",
          "name": "",
          "type": "uint256"
        }
      ],
      "stateMutability": "view",
      "type": "function"
    },
    {
      "inputs": [
        {
          "internalType": "address",
          "name": "",
          "type": "address"
        }
      ],
      "name": "maxMint",
      "outputs": [
        {
          "internalType": "uint256",
          "name": "",
          "type": "uint256"
        }
      ],
      "stateMutability": "view",
      "type": "function"
    },
    {
      "inputs": [
        {
          "internalType": "address",
          "name": "owner",
          "type": "address"
        }
      ],
      "name": "maxRedeem",
      "outputs": [
        {
          "internalType": "uint256",
          "name": "",
          "type": "uint256"
        }
      ],
      "stateMutability": "view",
      "type": "function"
    },
    {
      "inputs": [
        {
          "internalType": "address",
          "name": "owner",
          "type": "address"
        }
      ],
      "name": "maxWithdraw",
      "outputs": [
        {
          "internalType": "uint256",
          "name": "",
          "type": "uint256"
        }
      ],
      "stateMutability": "view",
      "type": "function"
    },
    {
      "inputs": [
        {
          "internalType": "uint256",
          "name": "shares",
          "type": "uint256"
        },
        {
          "internalType": "address",
          "name": "receiver",
          "type": "address"
        }
      ],
      "name": "mint",
      "outputs": [
        {
          "internalType": "uint256",
          "name": "",
          "type": "uint256"
        }
      ],
      "stateMutability": "nonpayable",
      "type": "function"
    },
    {
      "inputs": [
        {
          "internalType": "uint256",
          "name": "assets",
          "type": "uint256"
        },
        {
          "internalType": "address",
          "name": "receiver",
          "type": "address"
        }
      ],
      "name": "mintAndDeposit",
      "outputs": [
        {
          "internalType": "uint256",
          "name": "",
          "type": "uint256"
        }
      ],
      "stateMutability": "nonpayable",
      "type": "function"
    },
    {
      "inputs": [],
      "name": "name",
      "outputs": [
        {
          "internalType": "string",
          "name": "",
          "type": "string"
        }
      ],
      "stateMutability": "view",
      "type": "function"
    },
    {
      "inputs": [
        {
          "internalType": "uint256",
          "name": "assets",
          "type": "uint256"
        }
      ],
      "name": "previewDeposit",
      "outputs": [
        {
          "internalType": "uint256",
          "name": "",
          "type": "uint256"
        }
      ],
      "stateMutability": "view",
      "type": "function"
    },
    {
      "inputs": [
        {
          "internalType": "uint256",
          "name": "shares",
          "type": "uint256"
        }
      ],
      "name": "previewMint",
      "outputs": [
        {
          "internalType": "uint256",
          "name": "",
          "type": "uint256"
        }
      ],
      "stateMutability": "view",
      "type": "function"
    },
    {
      "inputs": [
        {
          "internalType": "uint256",
          "name": "shares",
          "type": "uint256"
        }
      ],
      "name": "previewRedeem",
      "outputs": [
        {
          "internalType": "uint256",
          "name": "",
          "type": "uint256"
        }
      ],
      "stateMutability": "view",
      "type": "function"
    },
    {
      "inputs": [
        {
          "internalType": "uint256",
          "name": "assets",
          "type": "uint256"
        }
      ],
      "name": "previewWithdraw",
      "outputs": [
        {
          "internalType": "uint256",
          "name": "",
          "type": "uint256"
        }
      ],
      "stateMutability": "view",
      "type": "function"
    },
    {
      "inputs": [
        {
          "internalType": "uint256",
          "name": "shares",
          "type": "uint256"
        },
        {
          "internalType": "address",
          "name": "receiver",
          "type": "address"
        },
        {
          "internalType": "address",
          "name": "owner",
          "type": "address"
        }
      ],
      "name": "redeem",
      "outputs": [
        {
          "internalType": "uint256",
          "name": "",
          "type": "uint256"
        }
      ],
      "stateMutability": "nonpayable",
      "type": "function"
    },
    {
      "inputs": [],
      "name": "symbol",
      "outputs": [
        {
          "internalType": "string",
          "name": "",
          "type": "string"
        }
      ],
      "stateMutability": "view",
      "type": "function"
    },
    {
      "inputs": [],
      "name": "totalAssets",
      "outputs": [
        {
          "internalType": "uint256",
          "name": "",
          "type": "uint256"
        }
      ],
      "stateMutability": "view",
      "type": "function"
    },
    {
      "inputs": [],
      "name": "totalSupply",
      "outputs": [
        {
          "internalType": "uint256",
          "name": "",
          "type": "uint256"
        }
      ],
      "stateMutability": "view",
      "type": "function"
    },
    {
      "inputs": [
        {
          "internalType": "address",
          "name": "to",
          "type": "address"
        },
        {
          "internalType": "uint256",
          "name": "value",
          "type": "uint256"
        }
      ],
      "name": "transfer",
      "outputs": [
        {
          "internalType": "bool",
          "name": "",
          "type": "bool"
        }
      ],
      "stateMutability": "nonpayable",
      "type": "function"
    },
    {
      "inputs": [
        {
          "internalType": "address",
          "name": "from",
          "type": "address"
        },
        {
          "internalType": "address",
          "name": "to",
          "type": "address"
        },
        {
          "internalType": "uint256",
          "name": "value",
          "type": "uint256"
        }
      ],
      "name": "transferFrom",
      "outputs": [
        {
          "internalType": "bool",
          "name": "",
          "type": "bool"
        }
      ],
      "stateMutability": "nonpayable",
      "type": "function"
    },
    {
      "inputs": [
        {
          "internalType": "uint256",
          "name": "assets",
          "type": "uint256"
        },
        {
          "internalType": "address",
          "name": "receiver",
          "type": "address"
        },
        {
          "internalType": "address",
          "name": "owner",
          "type": "address"
        }
      ],
      "name": "withdraw",
      "outputs": [
        {
          "internalType": "uint256",
          "name": "",
          "type": "uint256"
        }
      ],
      "stateMutability": "nonpayable",
      "type": "function"
    }
  ],
  "bytecode": "0x608060405234801561001057600080fd5b506123aa806100206000396000f3fe608060405234801561001057600080fd5b50600436106101e55760003560e01c806379502c551161010f578063beff6824116100a2578063ce96cb7711610071578063ce96cb7714610476578063d905777e14610489578063dd62ed3e1461049c578063ef8b30f71461046357600080fd5b8063beff682414610427578063c4d66de81461044e578063c63d75b6146102fb578063c6e6f5921461046357600080fd5b8063a9059cbb116100de578063a9059cbb146103db578063b3d7f6b9146103ee578063b460af9414610401578063ba0876521461041457600080fd5b806379502c55146103a557806394bf804d146103b857806395d89b41146103cb578063a217fddf146103d357600080fd5b8063313ce567116101875780635629ffd0116101565780635629ffd0146103105780636e553f651461033757806370a082311461034a5780637166ebff1461039257600080fd5b8063313ce5671461029d57806338d52e0f146102b7578063402d267d146102fb5780634cdad5061461021a57600080fd5b8063095ea7b3116101c3578063095ea7b31461022d5780630a28a4771461025057806318160ddd1461026357806323b872dd1461028a57600080fd5b806301e1d114146101ea57806306fdde031461020557806307a2d13a1461021a575b600080fd5b6101f26104f4565b6040519081526020015b60405180910390f35b61020d61058a565b6040516101fc9190611df2565b6101f2610228366004611e25565b61065f565b61024061023b366004611e53565b610672565b60405190151581526020016101fc565b6101f261025e366004611e25565b61068a565b7f52c63247e1f47db19d5ce0460030c497f067ca4cebf71ba98eeadabe20bace02546101f2565b610240610298366004611e7f565b610697565b6102a56106bd565b60405160ff90911681526020016101fc565b7f0773e532dfede91f04b12a73d3d2acd361424f41f76b4fb79f090161e36b4e00546001600160a01b03165b6040516001600160a01b0390911681526020016101fc565b6101f2610309366004611ec0565b5060001990565b6101f27feac7d12e691a65e32c753f5314b9ac42acdb8dd77f0033b2f2a2e2e012122a0d81565b6101f2610345366004611edd565b6106fb565b6101f2610358366004611ec0565b6001600160a01b031660009081527f52c63247e1f47db19d5ce0460030c497f067ca4cebf71ba98eeadabe20bace00602052604090205490565b6101f26103a0366004611edd565b61072f565b6000546102e3906001600160a01b031681565b6101f26103c6366004611edd565b6109ff565b61020d610a1d565b6101f2600081565b6102406103e9366004611e53565b610a6e565b6101f26103fc366004611e25565b610a7c565b6101f261040f366004611f0d565b610a89565b6101f2610422366004611f0d565b610af4565b6101f27fddd94edc7da5bca8f576c77964a4737ba5172c728e2d539e672f0229d1e9ec2d81565b61046161045c366004611ec0565b610b56565b005b6101f2610471366004611e25565b610d38565b6101f2610484366004611ec0565b610d45565b6101f2610497366004611ec0565b610d88565b6101f26104aa366004611f4f565b6001600160a01b0391821660009081527f52c63247e1f47db19d5ce0460030c497f067ca4cebf71ba98eeadabe20bace016020908152604080832093909416825291909152205490565b6000807f0773e532dfede91f04b12a73d3d2acd361424f41f76b4fb79f090161e36b4e0080546040516370a0823160e01b81523060048201529192506001600160a01b0316906370a0823190602401602060405180830381865afa158015610560573d6000803e3d6000fd5b505050506040513d601f19601f820116820180604052508101906105849190611f7d565b91505090565b7f52c63247e1f47db19d5ce0460030c497f067ca4cebf71ba98eeadabe20bace0380546060917f52c63247e1f47db19d5ce0460030c497f067ca4cebf71ba98eeadabe20bace00916105db90611f96565b80601f016020809104026020016040519081016040528092919081815260200182805461060790611f96565b80156106545780601f1061062957610100808354040283529160200191610654565b820191906000526020600020905b81548152906001019060200180831161063757829003601f168201915b505050505091505090565b600061066c826000610dc5565b92915050565b600033610680818585610e1e565b5060019392505050565b600061066c826001610e30565b6000336106a5858285610e7f565b6106b0858585610f1c565b60019150505b9392505050565b6000807f0773e532dfede91f04b12a73d3d2acd361424f41f76b4fb79f090161e36b4e009050600081546105849190600160a01b900460ff16611fe6565b600060001961070e565b60405180910390fd5b600061071985610d38565b905061072733858784610f7b565b949350505050565b600080547feac7d12e691a65e32c753f5314b9ac42acdb8dd77f0033b2f2a2e2e012122a0d906001600160a01b03166391d148547fddd94edc7da5bca8f576c77964a4737ba5172c728e2d539e672f0229d1e9ec2d336040516001600160e01b031960e085901b16815260048101929092526001600160a01b03166024820152604401602060405180830381865afa1580156107cf573d6000803e3d6000fd5b505050506040513d601f19601f820116820180604052508101906107f39190611fff565b610800576108008161105e565b600061080b85610d38565b905060008060009054906101000a90046001600160a01b03166001600160a01b031663bf27726c6040518163ffffffff1660e01b8152600401602060405180830381865afa158015610861573d6000803e3d6000fd5b505050506040513d601f19601f820116820180604052508101906108859190612021565b905060008060009054906101000a90046001600160a01b03166001600160a01b031663e59745546040518163ffffffff1660e01b8152600401602060405180830381865afa1580156108db573d6000803e3d6000fd5b505050506040513d601f19601f820116820180604052508101906108ff9190612021565b90506109166001600160a01b03821633308a61106b565b60405163095ea7b360e01b81526001600160a01b0383811660048301526024820189905282169063095ea7b3906044016020604051808303816000875af1158015610965573d6000803e3d6000fd5b505050506040513d601f19601f820116820180604052508101906109899190611fff565b506040516340c10f1960e01b8152306004820152602481018890526001600160a01b038316906340c10f1990604401600060405180830381600087803b1580156109d257600080fd5b505af11580156109e6573d6000803e3d6000fd5b505050506109f486846110e7565b509095945050505050565b60006000196000610a0f85610a7c565b905061072733858388610f7b565b7f52c63247e1f47db19d5ce0460030c497f067ca4cebf71ba98eeadabe20bace0480546060917f52c63247e1f47db19d5ce0460030c497f067ca4cebf71ba98eeadabe20bace00916105db90611f96565b600033610680818585610f1c565b600061066c826001610dc5565b600080610a9583610d45565b905080851115610ad157604051633fa733bb60e21b81526001600160a01b03841660048201526024810186905260448101829052606401610705565b6000610adc8661068a565b9050610aeb3386868985611121565b95945050505050565b600080610b0083610d88565b905080851115610b3c57604051632e52afbb60e21b81526001600160a01b03841660048201526024810186905260448101829052606401610705565b6000610b478661065f565b9050610aeb338686848a611121565b7ff0c57e16840df040f15088dc2f81fe391c3923bec73e23a9662efc9c229c6a00805468010000000000000000810460ff16159067ffffffffffffffff16600081158015610ba15750825b905060008267ffffffffffffffff166001148015610bbe5750303b155b905081158015610bcc575080155b15610bea5760405163f92ee8a960e01b815260040160405180910390fd5b845467ffffffffffffffff191660011785558315610c1e57845468ff00000000000000001916680100000000000000001785555b610c27866112c8565b610c71604051806040016040528060088152602001677376654d6574697360c01b815250604051806040016040528060088152602001677376654d6574697360c01b8152506112ff565b600054604080516301266d9d60e71b81529051610ce5926001600160a01b031691639336ce809160048083019260209291908290030181865afa158015610cbc573d6000803e3d6000fd5b505050506040513d601f19601f82011682018060405250810190610ce09190612021565b611311565b8315610d3057845468ff000000000000000019168555604051600181527fc7f505b2f371ae2175ee4913f4499e1f2633a7b5936321eed1cdaeb6115181d29060200160405180910390a15b505050505050565b600061066c826000610e30565b6001600160a01b03811660009081527f52c63247e1f47db19d5ce0460030c497f067ca4cebf71ba98eeadabe20bace00602052604081205461066c906000610dc5565b6001600160a01b03811660009081527f52c63247e1f47db19d5ce0460030c497f067ca4cebf71ba98eeadabe20bace00602052604081205461066c565b60006106b6610dd26104f4565b610ddd90600161203e565b610de96000600a612135565b7f52c63247e1f47db19d5ce0460030c497f067ca4cebf71ba98eeadabe20bace0254610e15919061203e565b85919085611322565b610e2b8383836001611371565b505050565b60006106b6610e4082600a612135565b7f52c63247e1f47db19d5ce0460030c497f067ca4cebf71ba98eeadabe20bace0254610e6c919061203e565b610e746104f4565b610e1590600161203e565b6001600160a01b0383811660009081527f52c63247e1f47db19d5ce0460030c497f067ca4cebf71ba98eeadabe20bace0160209081526040808320938616835292905220546000198114610f165781811015610f0757604051637dc7a0d960e11b81526001600160a01b03841660048201526024810182905260448101839052606401610705565b610f1684848484036000611371565b50505050565b6001600160a01b038316610f4657604051634b637e8f60e11b815260006004820152602401610705565b6001600160a01b038216610f705760405163ec442f0560e01b815260006004820152602401610705565b610e2b83838361146a565b6000547feac7d12e691a65e32c753f5314b9ac42acdb8dd77f0033b2f2a2e2e012122a0d906001600160a01b03166391d148547fddd94edc7da5bca8f576c77964a4737ba5172c728e2d539e672f0229d1e9ec2d336040516001600160e01b031960e085901b16815260048101929092526001600160a01b03166024820152604401602060405180830381865afa15801561101a573d6000803e3d6000fd5b505050506040513d601f19601f8201168201806040525081019061103e9190611fff565b61104b5761104b8161105e565b611057858585856115ba565b5050505050565b611068813361164a565b50565b6040516001600160a01b038481166024830152838116604483015260648201839052610f169186918216906323b872dd906084015b604051602081830303815290604052915060e01b6020820180517bffffffffffffffffffffffffffffffffffffffffffffffffffffffff838183161783525050505061170e565b6001600160a01b0382166111115760405163ec442f0560e01b815260006004820152602401610705565b61111d6000838361146a565b5050565b6000547feac7d12e691a65e32c753f5314b9ac42acdb8dd77f0033b2f2a2e2e012122a0d906001600160a01b03166391d148547fddd94edc7da5bca8f576c77964a4737ba5172c728e2d539e672f0229d1e9ec2d336040516001600160e01b031960e085901b16815260048101929092526001600160a01b03166024820152604401602060405180830381865afa1580156111c0573d6000803e3d6000fd5b505050506040513d601f19601f820116820180604052508101906111e49190611fff565b6111f1576111f18161105e565b836001600160a01b0316866001600160a01b03161461121557611215848784610e7f565b61121f8483611771565b60006112527f0773e532dfede91f04b12a73d3d2acd361424f41f76b4fb79f090161e36b4e00546001600160a01b031690565b905061125f8187866117a7565b846001600160a01b0316866001600160a01b0316886001600160a01b03167ffbde797d201c681b91056529119e0b02407c7bb96a4a2c75c01fc9667232c8db87876040516112b7929190918252602082015260400190565b60405180910390a450505050505050565b6112d06117d8565b6000805473ffffffffffffffffffffffffffffffffffffffff19166001600160a01b0392909216919091179055565b6113076117d8565b61111d8282611828565b6113196117d8565b6110688161188b565b600080611330868686611934565b905061133b836119f8565b801561135757506000848061135257611352612144565b868809115b15610aeb5761136760018261203e565b9695505050505050565b7f52c63247e1f47db19d5ce0460030c497f067ca4cebf71ba98eeadabe20bace006001600160a01b0385166113bc5760405163e602df0560e01b815260006004820152602401610705565b6001600160a01b0384166113e657604051634a1406b160e11b815260006004820152602401610705565b6001600160a01b0380861660009081526001830160209081526040808320938816835292905220839055811561105757836001600160a01b0316856001600160a01b03167f8c5be1e5ebec7d5bd14f71427d1e84f3dd0314c0f7b2291e5b200ac8c7c3b9258560405161145b91815260200190565b60405180910390a35050505050565b7f52c63247e1f47db19d5ce0460030c497f067ca4cebf71ba98eeadabe20bace006001600160a01b0384166114b857818160020160008282546114ad919061203e565b9091555061152a9050565b6001600160a01b0384166000908152602082905260409020548281101561150b5760405163391434e360e21b81526001600160a01b03861660048201526024810182905260448101849052606401610705565b6001600160a01b03851660009081526020839052604090209083900390555b6001600160a01b038316611548576002810180548390039055611567565b6001600160a01b03831660009081526020829052604090208054830190555b826001600160a01b0316846001600160a01b03167fddf252ad1be2c89b69c2b068fc378daa952ba7f163c4a11628f55a4df523b3ef846040516115ac91815260200190565b60405180910390a350505050565b7f0773e532dfede91f04b12a73d3d2acd361424f41f76b4fb79f090161e36b4e0080546115f2906001600160a01b031686308661106b565b6115fc84836110e7565b836001600160a01b0316856001600160a01b03167fdcbc1c05240f31ff3ad067ef1ee35ce4997762752e3a095284754544f4c709d7858560405161145b929190918252602082015260400190565b600054604051632474521560e21b8152600481018490526001600160a01b038381166024830152909116906391d1485490604401602060405180830381865afa15801561169b573d6000803e3d6000fd5b505050506040513d601f19601f820116820180604052508101906116bf9190611fff565b61111d576116cc81611a25565b6116d7836020611a37565b6040516020016116e892919061215a565b60408051601f198184030181529082905262461bcd60e51b825261070591600401611df2565b60006117236001600160a01b03841683611bbc565b905080516000141580156117485750808060200190518101906117469190611fff565b155b15610e2b57604051635274afe760e01b81526001600160a01b0384166004820152602401610705565b6001600160a01b03821661179b57604051634b637e8f60e11b815260006004820152602401610705565b61111d8260008361146a565b6040516001600160a01b03838116602483015260448201839052610e2b91859182169063a9059cbb906064016110a0565b7ff0c57e16840df040f15088dc2f81fe391c3923bec73e23a9662efc9c229c6a005468010000000000000000900460ff1661182657604051631afcd79f60e31b815260040160405180910390fd5b565b6118306117d8565b7f52c63247e1f47db19d5ce0460030c497f067ca4cebf71ba98eeadabe20bace007f52c63247e1f47db19d5ce0460030c497f067ca4cebf71ba98eeadabe20bace0361187c8482612237565b5060048101610f168382612237565b6118936117d8565b7f0773e532dfede91f04b12a73d3d2acd361424f41f76b4fb79f090161e36b4e006000806118c084611bca565b91509150816118d05760126118d2565b805b83547fffffffffffffffffffffff00000000000000000000000000000000000000000016600160a01b60ff929092169190910273ffffffffffffffffffffffffffffffffffffffff1916176001600160a01b0394909416939093179091555050565b600083830281600019858709828110838203039150508060000361196b5783828161196157611961612144565b04925050506106b6565b80841161198b5760405163227bc15360e01b815260040160405180910390fd5b6000848688096000868103871696879004966002600389028118808a02820302808a02820302808a02820302808a02820302808a02820302808a02909103029181900381900460010186841190950394909402919094039290920491909117919091029150509392505050565b60006002826003811115611a0e57611a0e6122f7565b611a18919061230d565b60ff166001149050919050565b606061066c6001600160a01b03831660145b6060826000611a4784600261233d565b611a5290600261203e565b67ffffffffffffffff811115611a6a57611a6a6121db565b6040519080825280601f01601f191660200182016040528015611a94576020820181803683370190505b509050600360fc1b81600081518110611aaf57611aaf612354565b60200101906001600160f81b031916908160001a905350600f60fb1b81600181518110611ade57611ade612354565b60200101906001600160f81b031916908160001a9053506000611b0285600261233d565b611b0d90600161203e565b90505b6001811115611b92577f303132333435363738396162636465660000000000000000000000000000000083600f1660108110611b4e57611b4e612354565b1a60f81b828281518110611b6457611b64612354565b60200101906001600160f81b031916908160001a90535060049290921c91611b8b8161236a565b9050611b10565b5081156107275760405163e22e27eb60e01b81526004810186905260248101859052604401610705565b60606106b683836000611cbb565b60408051600481526024810182526020810180517bffffffffffffffffffffffffffffffffffffffffffffffffffffffff1663313ce56760e01b17905290516000918291829182916001600160a01b03871691611c2691612381565b600060405180830381855afa9150503d8060008114611c61576040519150601f19603f3d011682016040523d82523d6000602084013e611c66565b606091505b5091509150818015611c7a57506020815110155b15611cae57600081806020019051810190611c959190611f7d565b905060ff8111611cac576001969095509350505050565b505b5060009485945092505050565b606081471015611ce05760405163cd78605960e01b8152306004820152602401610705565b600080856001600160a01b03168486604051611cfc9190612381565b60006040518083038185875af1925050503d8060008114611d39576040519150601f19603f3d011682016040523d82523d6000602084013e611d3e565b606091505b5091509150611367868383606082611d5e57611d5982611da5565b6106b6565b8151158015611d7557506001600160a01b0384163b155b15611d9e57604051639996b31560e01b81526001600160a01b0385166004820152602401610705565b50806106b6565b805115611db55780518082602001fd5b604051630a12f52160e11b815260040160405180910390fd5b60005b83811015611de9578181015183820152602001611dd1565b50506000910152565b6020815260008251806020840152611e11816040850160208701611dce565b601f01601f19169190910160400192915050565b600060208284031215611e3757600080fd5b5035919050565b6001600160a01b038116811461106857600080fd5b60008060408385031215611e6657600080fd5b8235611e7181611e3e565b946020939093013593505050565b600080600060608486031215611e9457600080fd5b8335611e9f81611e3e565b92506020840135611eaf81611e3e565b929592945050506040919091013590565b600060208284031215611ed257600080fd5b81356106b681611e3e565b60008060408385031215611ef057600080fd5b823591506020830135611f0281611e3e565b809150509250929050565b600080600060608486031215611f2257600080fd5b833592506020840135611f3481611e3e565b91506040840135611f4481611e3e565b809150509250925092565b60008060408385031215611f6257600080fd5b8235611f6d81611e3e565b91506020830135611f0281611e3e565b600060208284031215611f8f57600080fd5b5051919050565b600181811c90821680611faa57607f821691505b602082108103611fca57634e487b7160e01b600052602260045260246000fd5b50919050565b634e487b7160e01b600052601160045260246000fd5b60ff818116838216019081111561066c5761066c611fd0565b60006020828403121561201157600080fd5b815180151581146106b657600080fd5b60006020828403121561203357600080fd5b81516106b681611e3e565b8082018082111561066c5761066c611fd0565b600181815b8085111561208c57816000190482111561207257612072611fd0565b8085161561207f57918102915b93841c9390800290612056565b509250929050565b6000826120a35750600161066c565b816120b05750600061066c565b81600181146120c657600281146120d0576120ec565b600191505061066c565b60ff8411156120e1576120e1611fd0565b50506001821b61066c565b5060208310610133831016604e8410600b841016171561210f575081810a61066c565b6121198383612051565b806000190482111561212d5761212d611fd0565b029392505050565b60006106b660ff841683612094565b634e487b7160e01b600052601260045260246000fd5b7f416363657373436f6e74726f6c3a206163636f756e7420000000000000000000815260008351612192816017850160208801611dce565b7f206973206d697373696e6720726f6c652000000000000000000000000000000060179184019182015283516121cf816028840160208801611dce565b01602801949350505050565b634e487b7160e01b600052604160045260246000fd5b601f821115610e2b57600081815260208120601f850160051c810160208610156122185750805b601f850160051c820191505b81811015610d3057828155600101612224565b815167ffffffffffffffff811115612251576122516121db565b6122658161225f8454611f96565b846121f1565b602080601f83116001811461229a57600084156122825750858301515b600019600386901b1c1916600185901b178555610d30565b600085815260208120601f198616915b828110156122c9578886015182559484019460019091019084016122aa565b50858210156122e75787850151600019600388901b60f8161c191681555b5050505050600190811b01905550565b634e487b7160e01b600052602160045260246000fd5b600060ff83168061232e57634e487b7160e01b600052601260045260246000fd5b8060ff84160691505092915050565b808202811582820484141761066c5761066c611fd0565b634e487b7160e01b600052603260045260246000fd5b60008161237957612379611fd0565b506000190190565b60008251612393818460208701611dce565b919091019291505056fea164736f6c6343000814000a",
  "linkReferences": {},
  "deployedLinkReferences": {}
}