{
  "_format": "hh-sol-artifact-1",
  "contractName": "SveMetis",
  "sourceName": "contracts/SveMetis.sol",
  "abi": [
    {
      "inputs": [
        {
          "internalType": "address",
          "name": "target",
          "type": "address"
        }
      ],
      "name": "AddressEmptyCode",
      "type": "error"
    },
    {
      "inputs": [
        {
          "internalType": "address",
          "name": "account",
          "type": "address"
        }
      ],
      "name": "AddressInsufficientBalance",
      "type": "error"
    },
    {
      "inputs": [
        {
          "internalType": "address",
          "name": "spender",
          "type": "address"
        },
        {
          "internalType": "uint256",
          "name": "allowance",
          "type": "uint256"
        },
        {
          "internalType": "uint256",
          "name": "needed",
          "type": "uint256"
        }
      ],
      "name": "ERC20InsufficientAllowance",
      "type": "error"
    },
    {
      "inputs": [
        {
          "internalType": "address",
          "name": "sender",
          "type": "address"
        },
        {
          "internalType": "uint256",
          "name": "balance",
          "type": "uint256"
        },
        {
          "internalType": "uint256",
          "name": "needed",
          "type": "uint256"
        }
      ],
      "name": "ERC20InsufficientBalance",
      "type": "error"
    },
    {
      "inputs": [
        {
          "internalType": "address",
          "name": "approver",
          "type": "address"
        }
      ],
      "name": "ERC20InvalidApprover",
      "type": "error"
    },
    {
      "inputs": [
        {
          "internalType": "address",
          "name": "receiver",
          "type": "address"
        }
      ],
      "name": "ERC20InvalidReceiver",
      "type": "error"
    },
    {
      "inputs": [
        {
          "internalType": "address",
          "name": "sender",
          "type": "address"
        }
      ],
      "name": "ERC20InvalidSender",
      "type": "error"
    },
    {
      "inputs": [
        {
          "internalType": "address",
          "name": "spender",
          "type": "address"
        }
      ],
      "name": "ERC20InvalidSpender",
      "type": "error"
    },
    {
      "inputs": [
        {
          "internalType": "address",
          "name": "receiver",
          "type": "address"
        },
        {
          "internalType": "uint256",
          "name": "assets",
          "type": "uint256"
        },
        {
          "internalType": "uint256",
          "name": "max",
          "type": "uint256"
        }
      ],
      "name": "ERC4626ExceededMaxDeposit",
      "type": "error"
    },
    {
      "inputs": [
        {
          "internalType": "address",
          "name": "receiver",
          "type": "address"
        },
        {
          "internalType": "uint256",
          "name": "shares",
          "type": "uint256"
        },
        {
          "internalType": "uint256",
          "name": "max",
          "type": "uint256"
        }
      ],
      "name": "ERC4626ExceededMaxMint",
      "type": "error"
    },
    {
      "inputs": [
        {
          "internalType": "address",
          "name": "owner",
          "type": "address"
        },
        {
          "internalType": "uint256",
          "name": "shares",
          "type": "uint256"
        },
        {
          "internalType": "uint256",
          "name": "max",
          "type": "uint256"
        }
      ],
      "name": "ERC4626ExceededMaxRedeem",
      "type": "error"
    },
    {
      "inputs": [
        {
          "internalType": "address",
          "name": "owner",
          "type": "address"
        },
        {
          "internalType": "uint256",
          "name": "assets",
          "type": "uint256"
        },
        {
          "internalType": "uint256",
          "name": "max",
          "type": "uint256"
        }
      ],
      "name": "ERC4626ExceededMaxWithdraw",
      "type": "error"
    },
    {
      "inputs": [],
      "name": "FailedInnerCall",
      "type": "error"
    },
    {
      "inputs": [],
      "name": "InvalidInitialization",
      "type": "error"
    },
    {
      "inputs": [],
      "name": "MathOverflowedMulDiv",
      "type": "error"
    },
    {
      "inputs": [],
      "name": "NotInitializing",
      "type": "error"
    },
    {
      "inputs": [
        {
          "internalType": "address",
          "name": "token",
          "type": "address"
        }
      ],
      "name": "SafeERC20FailedOperation",
      "type": "error"
    },
    {
      "anonymous": false,
      "inputs": [
        {
          "indexed": true,
          "internalType": "address",
          "name": "owner",
          "type": "address"
        },
        {
          "indexed": true,
          "internalType": "address",
          "name": "spender",
          "type": "address"
        },
        {
          "indexed": false,
          "internalType": "uint256",
          "name": "value",
          "type": "uint256"
        }
      ],
      "name": "Approval",
      "type": "event"
    },
    {
      "anonymous": false,
      "inputs": [
        {
          "indexed": true,
          "internalType": "address",
          "name": "sender",
          "type": "address"
        },
        {
          "indexed": true,
          "internalType": "address",
          "name": "owner",
          "type": "address"
        },
        {
          "indexed": false,
          "internalType": "uint256",
          "name": "assets",
          "type": "uint256"
        },
        {
          "indexed": false,
          "internalType": "uint256",
          "name": "shares",
          "type": "uint256"
        }
      ],
      "name": "Deposit",
      "type": "event"
    },
    {
      "anonymous": false,
      "inputs": [
        {
          "indexed": false,
          "internalType": "uint64",
          "name": "version",
          "type": "uint64"
        }
      ],
      "name": "Initialized",
      "type": "event"
    },
    {
      "anonymous": false,
      "inputs": [
        {
          "indexed": true,
          "internalType": "address",
          "name": "from",
          "type": "address"
        },
        {
          "indexed": true,
          "internalType": "address",
          "name": "to",
          "type": "address"
        },
        {
          "indexed": false,
          "internalType": "uint256",
          "name": "value",
          "type": "uint256"
        }
      ],
      "name": "Transfer",
      "type": "event"
    },
    {
      "anonymous": false,
      "inputs": [
        {
          "indexed": true,
          "internalType": "address",
          "name": "sender",
          "type": "address"
        },
        {
          "indexed": true,
          "internalType": "address",
          "name": "receiver",
          "type": "address"
        },
        {
          "indexed": true,
          "internalType": "address",
          "name": "owner",
          "type": "address"
        },
        {
          "indexed": false,
          "internalType": "uint256",
          "name": "assets",
          "type": "uint256"
        },
        {
          "indexed": false,
          "internalType": "uint256",
          "name": "shares",
          "type": "uint256"
        }
      ],
      "name": "Withdraw",
      "type": "event"
    },
    {
      "inputs": [],
      "name": "BETA_USER_ROLE",
      "outputs": [
        {
          "internalType": "bytes32",
          "name": "",
          "type": "bytes32"
        }
      ],
      "stateMutability": "view",
      "type": "function"
    },
    {
      "inputs": [],
      "name": "DEFAULT_ADMIN_ROLE",
      "outputs": [
        {
          "internalType": "bytes32",
          "name": "",
          "type": "bytes32"
        }
      ],
      "stateMutability": "view",
      "type": "function"
    },
    {
      "inputs": [],
      "name": "INTERNAL_ROLE",
      "outputs": [
        {
          "internalType": "bytes32",
          "name": "",
          "type": "bytes32"
        }
      ],
      "stateMutability": "view",
      "type": "function"
    },
    {
      "inputs": [
        {
          "internalType": "address",
          "name": "owner",
          "type": "address"
        },
        {
          "internalType": "address",
          "name": "spender",
          "type": "address"
        }
      ],
      "name": "allowance",
      "outputs": [
        {
          "internalType": "uint256",
          "name": "",
          "type": "uint256"
        }
      ],
      "stateMutability": "view",
      "type": "function"
    },
    {
      "inputs": [
        {
          "internalType": "address",
          "name": "spender",
          "type": "address"
        },
        {
          "internalType": "uint256",
          "name": "value",
          "type": "uint256"
        }
      ],
      "name": "approve",
      "outputs": [
        {
          "internalType": "bool",
          "name": "",
          "type": "bool"
        }
      ],
      "stateMutability": "nonpayable",
      "type": "function"
    },
    {
      "inputs": [],
      "name": "asset",
      "outputs": [
        {
          "internalType": "address",
          "name": "",
          "type": "address"
        }
      ],
      "stateMutability": "view",
      "type": "function"
    },
    {
      "inputs": [
        {
          "internalType": "address",
          "name": "account",
          "type": "address"
        }
      ],
      "name": "balanceOf",
      "outputs": [
        {
          "internalType": "uint256",
          "name": "",
          "type": "uint256"
        }
      ],
      "stateMutability": "view",
      "type": "function"
    },
    {
      "inputs": [],
      "name": "config",
      "outputs": [
        {
          "internalType": "contract IConfig",
          "name": "",
          "type": "address"
        }
      ],
      "stateMutability": "view",
      "type": "function"
    },
    {
      "inputs": [
        {
          "internalType": "uint256",
          "name": "shares",
          "type": "uint256"
        }
      ],
      "name": "convertToAssets",
      "outputs": [
        {
          "internalType": "uint256",
          "name": "",
          "type": "uint256"
        }
      ],
      "stateMutability": "view",
      "type": "function"
    },
    {
      "inputs": [
        {
          "internalType": "uint256",
          "name": "assets",
          "type": "uint256"
        }
      ],
      "name": "convertToShares",
      "outputs": [
        {
          "internalType": "uint256",
          "name": "",
          "type": "uint256"
        }
      ],
      "stateMutability": "view",
      "type": "function"
    },
    {
      "inputs": [],
      "name": "decimals",
      "outputs": [
        {
          "internalType": "uint8",
          "name": "",
          "type": "uint8"
        }
      ],
      "stateMutability": "view",
      "type": "function"
    },
    {
      "inputs": [
        {
          "internalType": "uint256",
          "name": "assets",
          "type": "uint256"
        },
        {
          "internalType": "address",
          "name": "receiver",
          "type": "address"
        }
      ],
      "name": "deposit",
      "outputs": [
        {
          "internalType": "uint256",
          "name": "",
          "type": "uint256"
        }
      ],
      "stateMutability": "nonpayable",
      "type": "function"
    },
    {
      "inputs": [
        {
          "internalType": "address",
          "name": "_config",
          "type": "address"
        }
      ],
      "name": "initialize",
      "outputs": [],
      "stateMutability": "nonpayable",
      "type": "function"
    },
    {
      "inputs": [
        {
          "internalType": "address",
          "name": "",
          "type": "address"
        }
      ],
      "name": "maxDeposit",
      "outputs": [
        {
          "internalType": "uint256",
          "name": "",
          "type": "uint256"
        }
      ],
      "stateMutability": "view",
      "type": "function"
    },
    {
      "inputs": [
        {
          "internalType": "address",
          "name": "",
          "type": "address"
        }
      ],
      "name": "maxMint",
      "outputs": [
        {
          "internalType": "uint256",
          "name": "",
          "type": "uint256"
        }
      ],
      "stateMutability": "view",
      "type": "function"
    },
    {
      "inputs": [
        {
          "internalType": "address",
          "name": "owner",
          "type": "address"
        }
      ],
      "name": "maxRedeem",
      "outputs": [
        {
          "internalType": "uint256",
          "name": "",
          "type": "uint256"
        }
      ],
      "stateMutability": "view",
      "type": "function"
    },
    {
      "inputs": [
        {
          "internalType": "address",
          "name": "owner",
          "type": "address"
        }
      ],
      "name": "maxWithdraw",
      "outputs": [
        {
          "internalType": "uint256",
          "name": "",
          "type": "uint256"
        }
      ],
      "stateMutability": "view",
      "type": "function"
    },
    {
      "inputs": [
        {
          "internalType": "uint256",
          "name": "shares",
          "type": "uint256"
        },
        {
          "internalType": "address",
          "name": "receiver",
          "type": "address"
        }
      ],
      "name": "mint",
      "outputs": [
        {
          "internalType": "uint256",
          "name": "",
          "type": "uint256"
        }
      ],
      "stateMutability": "nonpayable",
      "type": "function"
    },
    {
      "inputs": [
        {
          "internalType": "uint256",
          "name": "assets",
          "type": "uint256"
        },
        {
          "internalType": "address",
          "name": "receiver",
          "type": "address"
        }
      ],
      "name": "mintAndDeposit",
      "outputs": [
        {
          "internalType": "uint256",
          "name": "",
          "type": "uint256"
        }
      ],
      "stateMutability": "nonpayable",
      "type": "function"
    },
    {
      "inputs": [],
      "name": "name",
      "outputs": [
        {
          "internalType": "string",
          "name": "",
          "type": "string"
        }
      ],
      "stateMutability": "view",
      "type": "function"
    },
    {
      "inputs": [
        {
          "internalType": "uint256",
          "name": "assets",
          "type": "uint256"
        }
      ],
      "name": "previewDeposit",
      "outputs": [
        {
          "internalType": "uint256",
          "name": "",
          "type": "uint256"
        }
      ],
      "stateMutability": "view",
      "type": "function"
    },
    {
      "inputs": [
        {
          "internalType": "uint256",
          "name": "shares",
          "type": "uint256"
        }
      ],
      "name": "previewMint",
      "outputs": [
        {
          "internalType": "uint256",
          "name": "",
          "type": "uint256"
        }
      ],
      "stateMutability": "view",
      "type": "function"
    },
    {
      "inputs": [
        {
          "internalType": "uint256",
          "name": "shares",
          "type": "uint256"
        }
      ],
      "name": "previewRedeem",
      "outputs": [
        {
          "internalType": "uint256",
          "name": "",
          "type": "uint256"
        }
      ],
      "stateMutability": "view",
      "type": "function"
    },
    {
      "inputs": [
        {
          "internalType": "uint256",
          "name": "assets",
          "type": "uint256"
        }
      ],
      "name": "previewWithdraw",
      "outputs": [
        {
          "internalType": "uint256",
          "name": "",
          "type": "uint256"
        }
      ],
      "stateMutability": "view",
      "type": "function"
    },
    {
      "inputs": [
        {
          "internalType": "uint256",
          "name": "shares",
          "type": "uint256"
        },
        {
          "internalType": "address",
          "name": "receiver",
          "type": "address"
        },
        {
          "internalType": "address",
          "name": "owner",
          "type": "address"
        }
      ],
      "name": "redeem",
      "outputs": [
        {
          "internalType": "uint256",
          "name": "",
          "type": "uint256"
        }
      ],
      "stateMutability": "nonpayable",
      "type": "function"
    },
    {
      "inputs": [],
      "name": "symbol",
      "outputs": [
        {
          "internalType": "string",
          "name": "",
          "type": "string"
        }
      ],
      "stateMutability": "view",
      "type": "function"
    },
    {
      "inputs": [],
      "name": "totalAssets",
      "outputs": [
        {
          "internalType": "uint256",
          "name": "",
          "type": "uint256"
        }
      ],
      "stateMutability": "view",
      "type": "function"
    },
    {
      "inputs": [],
      "name": "totalSupply",
      "outputs": [
        {
          "internalType": "uint256",
          "name": "",
          "type": "uint256"
        }
      ],
      "stateMutability": "view",
      "type": "function"
    },
    {
      "inputs": [
        {
          "internalType": "address",
          "name": "to",
          "type": "address"
        },
        {
          "internalType": "uint256",
          "name": "value",
          "type": "uint256"
        }
      ],
      "name": "transfer",
      "outputs": [
        {
          "internalType": "bool",
          "name": "",
          "type": "bool"
        }
      ],
      "stateMutability": "nonpayable",
      "type": "function"
    },
    {
      "inputs": [
        {
          "internalType": "address",
          "name": "from",
          "type": "address"
        },
        {
          "internalType": "address",
          "name": "to",
          "type": "address"
        },
        {
          "internalType": "uint256",
          "name": "value",
          "type": "uint256"
        }
      ],
      "name": "transferFrom",
      "outputs": [
        {
          "internalType": "bool",
          "name": "",
          "type": "bool"
        }
      ],
      "stateMutability": "nonpayable",
      "type": "function"
    },
    {
      "inputs": [
        {
          "internalType": "uint256",
          "name": "assets",
          "type": "uint256"
        },
        {
          "internalType": "address",
          "name": "receiver",
          "type": "address"
        },
        {
          "internalType": "address",
          "name": "owner",
          "type": "address"
        }
      ],
      "name": "withdraw",
      "outputs": [
        {
          "internalType": "uint256",
          "name": "",
          "type": "uint256"
        }
      ],
      "stateMutability": "nonpayable",
      "type": "function"
    }
  ],
  "bytecode": "0x608060405234801561001057600080fd5b50611e32806100206000396000f3fe608060405234801561001057600080fd5b50600436106101e55760003560e01c806379502c551161010f578063beff6824116100a2578063ce96cb7711610071578063ce96cb7714610476578063d905777e14610489578063dd62ed3e1461049c578063ef8b30f71461046357600080fd5b8063beff682414610427578063c4d66de81461044e578063c63d75b6146102fb578063c6e6f5921461046357600080fd5b8063a9059cbb116100de578063a9059cbb146103db578063b3d7f6b9146103ee578063b460af9414610401578063ba0876521461041457600080fd5b806379502c55146103a557806394bf804d146103b857806395d89b41146103cb578063a217fddf146103d357600080fd5b8063313ce567116101875780635629ffd0116101565780635629ffd0146103105780636e553f651461033757806370a082311461034a5780637166ebff1461039257600080fd5b8063313ce5671461029d57806338d52e0f146102b7578063402d267d146102fb5780634cdad5061461021a57600080fd5b8063095ea7b3116101c3578063095ea7b31461022d5780630a28a4771461025057806318160ddd1461026357806323b872dd1461028a57600080fd5b806301e1d114146101ea57806306fdde031461020557806307a2d13a1461021a575b600080fd5b6101f26104f4565b6040519081526020015b60405180910390f35b61020d61058a565b6040516101fc919061193f565b6101f2610228366004611972565b61065f565b61024061023b3660046119a0565b610672565b60405190151581526020016101fc565b6101f261025e366004611972565b61068a565b7f52c63247e1f47db19d5ce0460030c497f067ca4cebf71ba98eeadabe20bace02546101f2565b6102406102983660046119cc565b610697565b6102a56106bd565b60405160ff90911681526020016101fc565b7f0773e532dfede91f04b12a73d3d2acd361424f41f76b4fb79f090161e36b4e00546001600160a01b03165b6040516001600160a01b0390911681526020016101fc565b6101f2610309366004611a0d565b5060001990565b6101f27feac7d12e691a65e32c753f5314b9ac42acdb8dd77f0033b2f2a2e2e012122a0d81565b6101f2610345366004611a2a565b6106fb565b6101f2610358366004611a0d565b6001600160a01b031660009081527f52c63247e1f47db19d5ce0460030c497f067ca4cebf71ba98eeadabe20bace00602052604090205490565b6101f26103a0366004611a2a565b61072f565b6000546102e3906001600160a01b031681565b6101f26103c6366004611a2a565b61092e565b61020d61094c565b6101f2600081565b6102406103e93660046119a0565b61099d565b6101f26103fc366004611972565b6109ab565b6101f261040f366004611a5a565b6109b8565b6101f2610422366004611a5a565b610a23565b6101f27fddd94edc7da5bca8f576c77964a4737ba5172c728e2d539e672f0229d1e9ec2d81565b61046161045c366004611a0d565b610a85565b005b6101f2610471366004611972565b610c91565b6101f2610484366004611a0d565b610c9e565b6101f2610497366004611a0d565b610ce1565b6101f26104aa366004611a9c565b6001600160a01b0391821660009081527f52c63247e1f47db19d5ce0460030c497f067ca4cebf71ba98eeadabe20bace016020908152604080832093909416825291909152205490565b6000807f0773e532dfede91f04b12a73d3d2acd361424f41f76b4fb79f090161e36b4e0080546040516370a0823160e01b81523060048201529192506001600160a01b0316906370a0823190602401602060405180830381865afa158015610560573d6000803e3d6000fd5b505050506040513d601f19601f820116820180604052508101906105849190611aca565b91505090565b7f52c63247e1f47db19d5ce0460030c497f067ca4cebf71ba98eeadabe20bace0380546060917f52c63247e1f47db19d5ce0460030c497f067ca4cebf71ba98eeadabe20bace00916105db90611ae3565b80601f016020809104026020016040519081016040528092919081815260200182805461060790611ae3565b80156106545780601f1061062957610100808354040283529160200191610654565b820191906000526020600020905b81548152906001019060200180831161063757829003601f168201915b505050505091505090565b600061066c826000610d1e565b92915050565b600033610680818585610d77565b5060019392505050565b600061066c826001610d89565b6000336106a5858285610dd8565b6106b0858585610e75565b60019150505b9392505050565b6000807f0773e532dfede91f04b12a73d3d2acd361424f41f76b4fb79f090161e36b4e009050600081546105849190600160a01b900460ff16611b33565b600060001961070e565b60405180910390fd5b600061071985610c91565b905061072733858784610ed4565b949350505050565b60008061073b84610c91565b905060008060009054906101000a90046001600160a01b03166001600160a01b031663bf27726c6040518163ffffffff1660e01b8152600401602060405180830381865afa158015610791573d6000803e3d6000fd5b505050506040513d601f19601f820116820180604052508101906107b59190611b4c565b905060008060009054906101000a90046001600160a01b03166001600160a01b031663e59745546040518163ffffffff1660e01b8152600401602060405180830381865afa15801561080b573d6000803e3d6000fd5b505050506040513d601f19601f8201168201806040525081019061082f9190611b4c565b90506108466001600160a01b038216333089610ee0565b60405163095ea7b360e01b81526001600160a01b0383811660048301526024820188905282169063095ea7b3906044016020604051808303816000875af1158015610895573d6000803e3d6000fd5b505050506040513d601f19601f820116820180604052508101906108b99190611b69565b506040516340c10f1960e01b8152306004820152602481018790526001600160a01b038316906340c10f1990604401600060405180830381600087803b15801561090257600080fd5b505af1158015610916573d6000803e3d6000fd5b505050506109248584610f5c565b5090949350505050565b6000600019600061093e856109ab565b905061072733858388610ed4565b7f52c63247e1f47db19d5ce0460030c497f067ca4cebf71ba98eeadabe20bace0480546060917f52c63247e1f47db19d5ce0460030c497f067ca4cebf71ba98eeadabe20bace00916105db90611ae3565b600033610680818585610e75565b600061066c826001610d1e565b6000806109c483610c9e565b905080851115610a0057604051633fa733bb60e21b81526001600160a01b03841660048201526024810186905260448101829052606401610705565b6000610a0b8661068a565b9050610a1a3386868985610f96565b95945050505050565b600080610a2f83610ce1565b905080851115610a6b57604051632e52afbb60e21b81526001600160a01b03841660048201526024810186905260448101829052606401610705565b6000610a768661065f565b9050610a1a338686848a610f96565b7ff0c57e16840df040f15088dc2f81fe391c3923bec73e23a9662efc9c229c6a00805468010000000000000000810460ff16159067ffffffffffffffff16600081158015610ad05750825b905060008267ffffffffffffffff166001148015610aed5750303b155b905081158015610afb575080155b15610b195760405163f92ee8a960e01b815260040160405180910390fd5b845467ffffffffffffffff191660011785558315610b4d57845468ff00000000000000001916680100000000000000001785555b610b568661106c565b610bca6040518060400160405280600f81526020017f205374616b65642076654d4554495300000000000000000000000000000000008152506040518060400160405280600881526020017f7376654d455449530000000000000000000000000000000000000000000000008152506110a3565b600054604080516301266d9d60e71b81529051610c3e926001600160a01b031691639336ce809160048083019260209291908290030181865afa158015610c15573d6000803e3d6000fd5b505050506040513d601f19601f82011682018060405250810190610c399190611b4c565b6110b5565b8315610c8957845468ff000000000000000019168555604051600181527fc7f505b2f371ae2175ee4913f4499e1f2633a7b5936321eed1cdaeb6115181d29060200160405180910390a15b505050505050565b600061066c826000610d89565b6001600160a01b03811660009081527f52c63247e1f47db19d5ce0460030c497f067ca4cebf71ba98eeadabe20bace00602052604081205461066c906000610d1e565b6001600160a01b03811660009081527f52c63247e1f47db19d5ce0460030c497f067ca4cebf71ba98eeadabe20bace00602052604081205461066c565b60006106b6610d2b6104f4565b610d36906001611b8b565b610d426000600a611c82565b7f52c63247e1f47db19d5ce0460030c497f067ca4cebf71ba98eeadabe20bace0254610d6e9190611b8b565b859190856110c9565b610d848383836001611118565b505050565b60006106b6610d9982600a611c82565b7f52c63247e1f47db19d5ce0460030c497f067ca4cebf71ba98eeadabe20bace0254610dc59190611b8b565b610dcd6104f4565b610d6e906001611b8b565b6001600160a01b0383811660009081527f52c63247e1f47db19d5ce0460030c497f067ca4cebf71ba98eeadabe20bace0160209081526040808320938616835292905220546000198114610e6f5781811015610e6057604051637dc7a0d960e11b81526001600160a01b03841660048201526024810182905260448101839052606401610705565b610e6f84848484036000611118565b50505050565b6001600160a01b038316610e9f57604051634b637e8f60e11b815260006004820152602401610705565b6001600160a01b038216610ec95760405163ec442f0560e01b815260006004820152602401610705565b610d84838383611212565b610e6f84848484611362565b6040516001600160a01b038481166024830152838116604483015260648201839052610e6f9186918216906323b872dd906084015b604051602081830303815290604052915060e01b6020820180517bffffffffffffffffffffffffffffffffffffffffffffffffffffffff83818316178352505050506113f2565b6001600160a01b038216610f865760405163ec442f0560e01b815260006004820152602401610705565b610f9260008383611212565b5050565b826001600160a01b0316856001600160a01b031614610fba57610fba838683610dd8565b610fc48382611455565b6000610ff77f0773e532dfede91f04b12a73d3d2acd361424f41f76b4fb79f090161e36b4e00546001600160a01b031690565b905061100481868561148b565b836001600160a01b0316856001600160a01b0316876001600160a01b03167ffbde797d201c681b91056529119e0b02407c7bb96a4a2c75c01fc9667232c8db868660405161105c929190918252602082015260400190565b60405180910390a4505050505050565b6110746114bc565b6000805473ffffffffffffffffffffffffffffffffffffffff19166001600160a01b0392909216919091179055565b6110ab6114bc565b610f92828261150c565b6110bd6114bc565b6110c68161156f565b50565b6000806110d7868686611618565b90506110e2836116dc565b80156110fe5750600084806110f9576110f9611c91565b868809115b15610a1a5761110e600182611b8b565b9695505050505050565b7f52c63247e1f47db19d5ce0460030c497f067ca4cebf71ba98eeadabe20bace006001600160a01b0385166111635760405163e602df0560e01b815260006004820152602401610705565b6001600160a01b03841661118d57604051634a1406b160e11b815260006004820152602401610705565b6001600160a01b0380861660009081526001830160209081526040808320938816835292905220839055811561120b57836001600160a01b0316856001600160a01b03167f8c5be1e5ebec7d5bd14f71427d1e84f3dd0314c0f7b2291e5b200ac8c7c3b9258560405161120291815260200190565b60405180910390a35b5050505050565b7f52c63247e1f47db19d5ce0460030c497f067ca4cebf71ba98eeadabe20bace006001600160a01b03841661126057818160020160008282546112559190611b8b565b909155506112d29050565b6001600160a01b038416600090815260208290526040902054828110156112b35760405163391434e360e21b81526001600160a01b03861660048201526024810182905260448101849052606401610705565b6001600160a01b03851660009081526020839052604090209083900390555b6001600160a01b0383166112f057600281018054839003905561130f565b6001600160a01b03831660009081526020829052604090208054830190555b826001600160a01b0316846001600160a01b03167fddf252ad1be2c89b69c2b068fc378daa952ba7f163c4a11628f55a4df523b3ef8460405161135491815260200190565b60405180910390a350505050565b7f0773e532dfede91f04b12a73d3d2acd361424f41f76b4fb79f090161e36b4e00805461139a906001600160a01b0316863086610ee0565b6113a48483610f5c565b836001600160a01b0316856001600160a01b03167fdcbc1c05240f31ff3ad067ef1ee35ce4997762752e3a095284754544f4c709d78585604051611202929190918252602082015260400190565b60006114076001600160a01b03841683611709565b9050805160001415801561142c57508080602001905181019061142a9190611b69565b155b15610d8457604051635274afe760e01b81526001600160a01b0384166004820152602401610705565b6001600160a01b03821661147f57604051634b637e8f60e11b815260006004820152602401610705565b610f9282600083611212565b6040516001600160a01b03838116602483015260448201839052610d8491859182169063a9059cbb90606401610f15565b7ff0c57e16840df040f15088dc2f81fe391c3923bec73e23a9662efc9c229c6a005468010000000000000000900460ff1661150a57604051631afcd79f60e31b815260040160405180910390fd5b565b6115146114bc565b7f52c63247e1f47db19d5ce0460030c497f067ca4cebf71ba98eeadabe20bace007f52c63247e1f47db19d5ce0460030c497f067ca4cebf71ba98eeadabe20bace036115608482611d03565b5060048101610e6f8382611d03565b6115776114bc565b7f0773e532dfede91f04b12a73d3d2acd361424f41f76b4fb79f090161e36b4e006000806115a484611717565b91509150816115b45760126115b6565b805b83547fffffffffffffffffffffff00000000000000000000000000000000000000000016600160a01b60ff929092169190910273ffffffffffffffffffffffffffffffffffffffff1916176001600160a01b0394909416939093179091555050565b600083830281600019858709828110838203039150508060000361164f5783828161164557611645611c91565b04925050506106b6565b80841161166f5760405163227bc15360e01b815260040160405180910390fd5b6000848688096000868103871696879004966002600389028118808a02820302808a02820302808a02820302808a02820302808a02820302808a02909103029181900381900460010186841190950394909402919094039290920491909117919091029150509392505050565b600060028260038111156116f2576116f2611dc3565b6116fc9190611dd9565b60ff166001149050919050565b60606106b683836000611808565b60408051600481526024810182526020810180517bffffffffffffffffffffffffffffffffffffffffffffffffffffffff1663313ce56760e01b17905290516000918291829182916001600160a01b0387169161177391611e09565b600060405180830381855afa9150503d80600081146117ae576040519150601f19603f3d011682016040523d82523d6000602084013e6117b3565b606091505b50915091508180156117c757506020815110155b156117fb576000818060200190518101906117e29190611aca565b905060ff81116117f9576001969095509350505050565b505b5060009485945092505050565b60608147101561182d5760405163cd78605960e01b8152306004820152602401610705565b600080856001600160a01b031684866040516118499190611e09565b60006040518083038185875af1925050503d8060008114611886576040519150601f19603f3d011682016040523d82523d6000602084013e61188b565b606091505b509150915061110e8683836060826118ab576118a6826118f2565b6106b6565b81511580156118c257506001600160a01b0384163b155b156118eb57604051639996b31560e01b81526001600160a01b0385166004820152602401610705565b50806106b6565b8051156119025780518082602001fd5b604051630a12f52160e11b815260040160405180910390fd5b60005b8381101561193657818101518382015260200161191e565b50506000910152565b602081526000825180602084015261195e81604085016020870161191b565b601f01601f19169190910160400192915050565b60006020828403121561198457600080fd5b5035919050565b6001600160a01b03811681146110c657600080fd5b600080604083850312156119b357600080fd5b82356119be8161198b565b946020939093013593505050565b6000806000606084860312156119e157600080fd5b83356119ec8161198b565b925060208401356119fc8161198b565b929592945050506040919091013590565b600060208284031215611a1f57600080fd5b81356106b68161198b565b60008060408385031215611a3d57600080fd5b823591506020830135611a4f8161198b565b809150509250929050565b600080600060608486031215611a6f57600080fd5b833592506020840135611a818161198b565b91506040840135611a918161198b565b809150509250925092565b60008060408385031215611aaf57600080fd5b8235611aba8161198b565b91506020830135611a4f8161198b565b600060208284031215611adc57600080fd5b5051919050565b600181811c90821680611af757607f821691505b602082108103611b1757634e487b7160e01b600052602260045260246000fd5b50919050565b634e487b7160e01b600052601160045260246000fd5b60ff818116838216019081111561066c5761066c611b1d565b600060208284031215611b5e57600080fd5b81516106b68161198b565b600060208284031215611b7b57600080fd5b815180151581146106b657600080fd5b8082018082111561066c5761066c611b1d565b600181815b80851115611bd9578160001904821115611bbf57611bbf611b1d565b80851615611bcc57918102915b93841c9390800290611ba3565b509250929050565b600082611bf05750600161066c565b81611bfd5750600061066c565b8160018114611c135760028114611c1d57611c39565b600191505061066c565b60ff841115611c2e57611c2e611b1d565b50506001821b61066c565b5060208310610133831016604e8410600b8410161715611c5c575081810a61066c565b611c668383611b9e565b8060001904821115611c7a57611c7a611b1d565b029392505050565b60006106b660ff841683611be1565b634e487b7160e01b600052601260045260246000fd5b634e487b7160e01b600052604160045260246000fd5b601f821115610d8457600081815260208120601f850160051c81016020861015611ce45750805b601f850160051c820191505b81811015610c8957828155600101611cf0565b815167ffffffffffffffff811115611d1d57611d1d611ca7565b611d3181611d2b8454611ae3565b84611cbd565b602080601f831160018114611d665760008415611d4e5750858301515b600019600386901b1c1916600185901b178555610c89565b600085815260208120601f198616915b82811015611d9557888601518255948401946001909101908401611d76565b5085821015611db35787850151600019600388901b60f8161c191681555b5050505050600190811b01905550565b634e487b7160e01b600052602160045260246000fd5b600060ff831680611dfa57634e487b7160e01b600052601260045260246000fd5b8060ff84160691505092915050565b60008251611e1b81846020870161191b565b919091019291505056fea164736f6c6343000814000a",
  "linkReferences": {},
  "deployedLinkReferences": {}
}