{
  "address": "0x9eC6d44e05D19140823Be6Ac1B14Cdf929B2d92B",
  "abi": [
    {
      "inputs": [],
      "name": "AlreadyRedeemed",
      "type": "error"
    },
    {
      "inputs": [],
      "name": "AlreadyReducedMaturity",
      "type": "error"
    },
    {
      "inputs": [
        {
          "internalType": "address",
          "name": "sender",
          "type": "address"
        },
        {
          "internalType": "uint256",
          "name": "tokenId",
          "type": "uint256"
        },
        {
          "internalType": "address",
          "name": "owner",
          "type": "address"
        }
      ],
      "name": "ERC721IncorrectOwner",
      "type": "error"
    },
    {
      "inputs": [
        {
          "internalType": "address",
          "name": "operator",
          "type": "address"
        },
        {
          "internalType": "uint256",
          "name": "tokenId",
          "type": "uint256"
        }
      ],
      "name": "ERC721InsufficientApproval",
      "type": "error"
    },
    {
      "inputs": [
        {
          "internalType": "address",
          "name": "approver",
          "type": "address"
        }
      ],
      "name": "ERC721InvalidApprover",
      "type": "error"
    },
    {
      "inputs": [
        {
          "internalType": "address",
          "name": "operator",
          "type": "address"
        }
      ],
      "name": "ERC721InvalidOperator",
      "type": "error"
    },
    {
      "inputs": [
        {
          "internalType": "address",
          "name": "owner",
          "type": "address"
        }
      ],
      "name": "ERC721InvalidOwner",
      "type": "error"
    },
    {
      "inputs": [
        {
          "internalType": "address",
          "name": "receiver",
          "type": "address"
        }
      ],
      "name": "ERC721InvalidReceiver",
      "type": "error"
    },
    {
      "inputs": [
        {
          "internalType": "address",
          "name": "sender",
          "type": "address"
        }
      ],
      "name": "ERC721InvalidSender",
      "type": "error"
    },
    {
      "inputs": [
        {
          "internalType": "uint256",
          "name": "tokenId",
          "type": "uint256"
        }
      ],
      "name": "ERC721NonexistentToken",
      "type": "error"
    },
    {
      "inputs": [],
      "name": "Erc721CallerNotOwnerOrApproved",
      "type": "error"
    },
    {
      "inputs": [
        {
          "internalType": "uint128",
          "name": "collectAmount",
          "type": "uint128"
        },
        {
          "internalType": "uint128",
          "name": "accruedAmount",
          "type": "uint128"
        }
      ],
      "name": "ExceedsCollectedFees",
      "type": "error"
    },
    {
      "inputs": [],
      "name": "InvalidInitialization",
      "type": "error"
    },
    {
      "inputs": [],
      "name": "NotInitializing",
      "type": "error"
    },
    {
      "inputs": [
        {
          "internalType": "uint256",
          "name": "currentTime",
          "type": "uint256"
        },
        {
          "internalType": "uint64",
          "name": "maturity",
          "type": "uint64"
        }
      ],
      "name": "NotMatureYet",
      "type": "error"
    },
    {
      "inputs": [],
      "name": "ReentrancyGuardReentrantCall",
      "type": "error"
    },
    {
      "inputs": [
        {
          "internalType": "address",
          "name": "token",
          "type": "address"
        }
      ],
      "name": "SafeERC20FailedOperation",
      "type": "error"
    },
    {
      "anonymous": false,
      "inputs": [
        {
          "indexed": true,
          "internalType": "address",
          "name": "owner",
          "type": "address"
        },
        {
          "indexed": true,
          "internalType": "address",
          "name": "approved",
          "type": "address"
        },
        {
          "indexed": true,
          "internalType": "uint256",
          "name": "tokenId",
          "type": "uint256"
        }
      ],
      "name": "Approval",
      "type": "event"
    },
    {
      "anonymous": false,
      "inputs": [
        {
          "indexed": true,
          "internalType": "address",
          "name": "owner",
          "type": "address"
        },
        {
          "indexed": true,
          "internalType": "address",
          "name": "operator",
          "type": "address"
        },
        {
          "indexed": false,
          "internalType": "bool",
          "name": "approved",
          "type": "bool"
        }
      ],
      "name": "ApprovalForAll",
      "type": "event"
    },
    {
      "anonymous": false,
      "inputs": [
        {
          "indexed": true,
          "internalType": "uint256",
          "name": "nftId",
          "type": "uint256"
        },
        {
          "indexed": true,
          "internalType": "address",
          "name": "sender",
          "type": "address"
        },
        {
          "indexed": true,
          "internalType": "address",
          "name": "recipient",
          "type": "address"
        },
        {
          "indexed": false,
          "internalType": "uint256",
          "name": "amountVeMetisRedeemed",
          "type": "uint256"
        },
        {
          "indexed": false,
          "internalType": "uint256",
          "name": "maturityTimestamp",
          "type": "uint256"
        }
      ],
      "name": "EnterRedemptionQueue",
      "type": "event"
    },
    {
      "anonymous": false,
      "inputs": [
        {
          "indexed": false,
          "internalType": "uint64",
          "name": "version",
          "type": "uint64"
        }
      ],
      "name": "Initialized",
      "type": "event"
    },
    {
      "anonymous": false,
      "inputs": [
        {
          "indexed": true,
          "internalType": "uint256",
          "name": "nftId",
          "type": "uint256"
        },
        {
          "indexed": true,
          "internalType": "address",
          "name": "sender",
          "type": "address"
        },
        {
          "indexed": true,
          "internalType": "address",
          "name": "recipient",
          "type": "address"
        },
        {
          "indexed": false,
          "internalType": "uint120",
          "name": "amountOut",
          "type": "uint120"
        }
      ],
      "name": "RedeemRedemptionTicketNft",
      "type": "event"
    },
    {
      "anonymous": false,
      "inputs": [
        {
          "indexed": true,
          "internalType": "address",
          "name": "from",
          "type": "address"
        },
        {
          "indexed": true,
          "internalType": "address",
          "name": "to",
          "type": "address"
        },
        {
          "indexed": true,
          "internalType": "uint256",
          "name": "tokenId",
          "type": "uint256"
        }
      ],
      "name": "Transfer",
      "type": "event"
    },
    {
      "inputs": [],
      "name": "ADMIN_ROLE",
      "outputs": [
        {
          "internalType": "bytes32",
          "name": "",
          "type": "bytes32"
        }
      ],
      "stateMutability": "view",
      "type": "function"
    },
    {
      "inputs": [],
      "name": "BACKEND_ROLE",
      "outputs": [
        {
          "internalType": "bytes32",
          "name": "",
          "type": "bytes32"
        }
      ],
      "stateMutability": "view",
      "type": "function"
    },
    {
      "inputs": [],
      "name": "DEFAULT_ADMIN_ROLE",
      "outputs": [
        {
          "internalType": "bytes32",
          "name": "",
          "type": "bytes32"
        }
      ],
      "stateMutability": "view",
      "type": "function"
    },
    {
      "inputs": [],
      "name": "FEE_PRECISION",
      "outputs": [
        {
          "internalType": "uint64",
          "name": "",
          "type": "uint64"
        }
      ],
      "stateMutability": "view",
      "type": "function"
    },
    {
      "inputs": [],
      "name": "INITIAL_DEPOSIT_AMOUNT",
      "outputs": [
        {
          "internalType": "uint256",
          "name": "",
          "type": "uint256"
        }
      ],
      "stateMutability": "view",
      "type": "function"
    },
    {
      "inputs": [],
      "name": "METIS",
      "outputs": [
        {
          "internalType": "contract IERC20",
          "name": "",
          "type": "address"
        }
      ],
      "stateMutability": "view",
      "type": "function"
    },
    {
      "inputs": [],
      "name": "TIMELOCK_ROLE",
      "outputs": [
        {
          "internalType": "bytes32",
          "name": "",
          "type": "bytes32"
        }
      ],
      "stateMutability": "view",
      "type": "function"
    },
    {
      "inputs": [
        {
          "internalType": "address",
          "name": "to",
          "type": "address"
        },
        {
          "internalType": "uint256",
          "name": "tokenId",
          "type": "uint256"
        }
      ],
      "name": "approve",
      "outputs": [],
      "stateMutability": "nonpayable",
      "type": "function"
    },
    {
      "inputs": [
        {
          "internalType": "address",
          "name": "owner",
          "type": "address"
        }
      ],
      "name": "balanceOf",
      "outputs": [
        {
          "internalType": "uint256",
          "name": "",
          "type": "uint256"
        }
      ],
      "stateMutability": "view",
      "type": "function"
    },
    {
      "inputs": [],
      "name": "config",
      "outputs": [
        {
          "internalType": "contract IConfig",
          "name": "",
          "type": "address"
        }
      ],
      "stateMutability": "view",
      "type": "function"
    },
    {
      "inputs": [
        {
          "internalType": "address",
          "name": "_recipient",
          "type": "address"
        },
        {
          "internalType": "uint120",
          "name": "_amountToRedeem",
          "type": "uint120"
        }
      ],
      "name": "enterRedemptionQueue",
      "outputs": [
        {
          "internalType": "uint256",
          "name": "_nftId",
          "type": "uint256"
        }
      ],
      "stateMutability": "nonpayable",
      "type": "function"
    },
    {
      "inputs": [
        {
          "internalType": "uint256",
          "name": "tokenId",
          "type": "uint256"
        }
      ],
      "name": "getApproved",
      "outputs": [
        {
          "internalType": "address",
          "name": "",
          "type": "address"
        }
      ],
      "stateMutability": "view",
      "type": "function"
    },
    {
      "inputs": [],
      "name": "getMetisAddress",
      "outputs": [
        {
          "internalType": "address",
          "name": "",
          "type": "address"
        }
      ],
      "stateMutability": "view",
      "type": "function"
    },
    {
      "inputs": [],
      "name": "getNftId",
      "outputs": [
        {
          "internalType": "uint64",
          "name": "",
          "type": "uint64"
        }
      ],
      "stateMutability": "view",
      "type": "function"
    },
    {
      "inputs": [
        {
          "internalType": "uint256",
          "name": "_nftId",
          "type": "uint256"
        }
      ],
      "name": "getNftInformation",
      "outputs": [
        {
          "components": [
            {
              "internalType": "bool",
              "name": "hasBeenRedeemed",
              "type": "bool"
            },
            {
              "internalType": "uint64",
              "name": "maturity",
              "type": "uint64"
            },
            {
              "internalType": "uint120",
              "name": "amount",
              "type": "uint120"
            }
          ],
          "internalType": "struct RedemptionQueue.RedemptionQueueItem",
          "name": "",
          "type": "tuple"
        }
      ],
      "stateMutability": "view",
      "type": "function"
    },
    {
      "inputs": [
        {
          "internalType": "address",
          "name": "_config",
          "type": "address"
        }
      ],
      "name": "initialize",
      "outputs": [],
      "stateMutability": "nonpayable",
      "type": "function"
    },
    {
      "inputs": [
        {
          "internalType": "address",
          "name": "owner",
          "type": "address"
        },
        {
          "internalType": "address",
          "name": "operator",
          "type": "address"
        }
      ],
      "name": "isApprovedForAll",
      "outputs": [
        {
          "internalType": "bool",
          "name": "",
          "type": "bool"
        }
      ],
      "stateMutability": "view",
      "type": "function"
    },
    {
      "inputs": [],
      "name": "name",
      "outputs": [
        {
          "internalType": "string",
          "name": "",
          "type": "string"
        }
      ],
      "stateMutability": "view",
      "type": "function"
    },
    {
      "inputs": [
        {
          "internalType": "uint256",
          "name": "nftId",
          "type": "uint256"
        }
      ],
      "name": "nftInformation",
      "outputs": [
        {
          "internalType": "bool",
          "name": "hasBeenRedeemed",
          "type": "bool"
        },
        {
          "internalType": "uint64",
          "name": "maturity",
          "type": "uint64"
        },
        {
          "internalType": "uint120",
          "name": "amount",
          "type": "uint120"
        }
      ],
      "stateMutability": "view",
      "type": "function"
    },
    {
      "inputs": [
        {
          "internalType": "uint256",
          "name": "tokenId",
          "type": "uint256"
        }
      ],
      "name": "ownerOf",
      "outputs": [
        {
          "internalType": "address",
          "name": "",
          "type": "address"
        }
      ],
      "stateMutability": "view",
      "type": "function"
    },
    {
      "inputs": [
        {
          "internalType": "uint256",
          "name": "_nftId",
          "type": "uint256"
        },
        {
          "internalType": "address",
          "name": "_recipient",
          "type": "address"
        }
      ],
      "name": "redeemRedemptionTicketNft",
      "outputs": [],
      "stateMutability": "nonpayable",
      "type": "function"
    },
    {
      "inputs": [],
      "name": "redemptionQueueAccounting",
      "outputs": [
        {
          "internalType": "uint128",
          "name": "etherLiabilities",
          "type": "uint128"
        },
        {
          "internalType": "uint128",
          "name": "unclaimedFees",
          "type": "uint128"
        }
      ],
      "stateMutability": "view",
      "type": "function"
    },
    {
      "inputs": [
        {
          "internalType": "address",
          "name": "from",
          "type": "address"
        },
        {
          "internalType": "address",
          "name": "to",
          "type": "address"
        },
        {
          "internalType": "uint256",
          "name": "tokenId",
          "type": "uint256"
        }
      ],
      "name": "safeTransferFrom",
      "outputs": [],
      "stateMutability": "nonpayable",
      "type": "function"
    },
    {
      "inputs": [
        {
          "internalType": "address",
          "name": "from",
          "type": "address"
        },
        {
          "internalType": "address",
          "name": "to",
          "type": "address"
        },
        {
          "internalType": "uint256",
          "name": "tokenId",
          "type": "uint256"
        },
        {
          "internalType": "bytes",
          "name": "data",
          "type": "bytes"
        }
      ],
      "name": "safeTransferFrom",
      "outputs": [],
      "stateMutability": "nonpayable",
      "type": "function"
    },
    {
      "inputs": [
        {
          "internalType": "address",
          "name": "operator",
          "type": "address"
        },
        {
          "internalType": "bool",
          "name": "approved",
          "type": "bool"
        }
      ],
      "name": "setApprovalForAll",
      "outputs": [],
      "stateMutability": "nonpayable",
      "type": "function"
    },
    {
      "inputs": [
        {
          "internalType": "bytes4",
          "name": "interfaceId",
          "type": "bytes4"
        }
      ],
      "name": "supportsInterface",
      "outputs": [
        {
          "internalType": "bool",
          "name": "",
          "type": "bool"
        }
      ],
      "stateMutability": "view",
      "type": "function"
    },
    {
      "inputs": [],
      "name": "symbol",
      "outputs": [
        {
          "internalType": "string",
          "name": "",
          "type": "string"
        }
      ],
      "stateMutability": "view",
      "type": "function"
    },
    {
      "inputs": [
        {
          "internalType": "uint256",
          "name": "tokenId",
          "type": "uint256"
        }
      ],
      "name": "tokenURI",
      "outputs": [
        {
          "internalType": "string",
          "name": "",
          "type": "string"
        }
      ],
      "stateMutability": "view",
      "type": "function"
    },
    {
      "inputs": [
        {
          "internalType": "address",
          "name": "from",
          "type": "address"
        },
        {
          "internalType": "address",
          "name": "to",
          "type": "address"
        },
        {
          "internalType": "uint256",
          "name": "tokenId",
          "type": "uint256"
        }
      ],
      "name": "transferFrom",
      "outputs": [],
      "stateMutability": "nonpayable",
      "type": "function"
    },
    {
      "inputs": [],
      "name": "veMetis",
      "outputs": [
        {
          "internalType": "contract IERC20",
          "name": "",
          "type": "address"
        }
      ],
      "stateMutability": "view",
      "type": "function"
    },
    {
      "stateMutability": "payable",
      "type": "receive"
    }
  ],
  "transactionHash": "0x8ed0a30cd1ce34ad73cedb1c34e870d8207775a4c9b14af45137af9caf248b71",
  "args": [],
  "numDeployments": 1,
  "solcInputHash": "ca04a30db5802d8d7cdc2a7d8c76f72c",
  "bytecode": "0x608060405234801561001057600080fd5b50613fc4806100206000396000f3fe6080604052600436106101d15760003560e01c806392c2becc116100f7578063c87b56dd11610095578063e985e9c511610064578063e985e9c5146106e7578063f0dadf2e14610724578063f288a2e21461074f578063fe663b811461077a57610211565b8063c87b56dd1461062b578063cc928d5214610668578063e52083c614610691578063e63a391f146106bc57610211565b8063a217fddf116100d1578063a217fddf14610585578063a22cb465146105b0578063b88d4fde146105d9578063c4d66de81461060257610211565b806392c2becc146105045780639336ce801461052f57806395d89b411461055a57610211565b80632e6dd4721161016f578063644c45e01161013e578063644c45e01461044657806370a082311461047157806375b238fc146104ae57806379502c55146104d957610211565b80632e6dd4721461037857806342842e0e146103a35780634f4798ae146103cc5780636352211e1461040957610211565b8063095ea7b3116101ab578063095ea7b3146102bb578063103cf9e3146102e457806316b796391461031057806323b872dd1461034f57610211565b806301ffc9a71461021657806306fdde0314610253578063081812fc1461027e57610211565b36610211576040517f08c379a000000000000000000000000000000000000000000000000000000000815260040161020890612e79565b60405180910390fd5b600080fd5b34801561022257600080fd5b5061023d60048036038101906102389190612f05565b6107b7565b60405161024a9190612f4d565b60405180910390f35b34801561025f57600080fd5b50610268610899565b6040516102759190612fe7565b60405180910390f35b34801561028a57600080fd5b506102a560048036038101906102a0919061303f565b61093a565b6040516102b291906130ad565b60405180910390f35b3480156102c757600080fd5b506102e260048036038101906102dd91906130f4565b610956565b005b3480156102f057600080fd5b506102f961096c565b60405161030792919061315f565b60405180910390f35b34801561031c57600080fd5b506103376004803603810190610332919061303f565b6109b6565b604051610346939291906131d5565b60405180910390f35b34801561035b57600080fd5b506103766004803603810190610371919061320c565b610a1c565b005b34801561038457600080fd5b5061038d610b1e565b60405161039a91906130ad565b60405180910390f35b3480156103af57600080fd5b506103ca60048036038101906103c5919061320c565b610b48565b005b3480156103d857600080fd5b506103f360048036038101906103ee919061328b565b610b68565b60405161040091906132da565b60405180910390f35b34801561041557600080fd5b50610430600480360381019061042b919061303f565b610caf565b60405161043d91906130ad565b60405180910390f35b34801561045257600080fd5b5061045b610cc1565b60405161046891906132f5565b60405180910390f35b34801561047d57600080fd5b5061049860048036038101906104939190613310565b610cdf565b6040516104a591906132da565b60405180910390f35b3480156104ba57600080fd5b506104c3610da8565b6040516104d09190613356565b60405180910390f35b3480156104e557600080fd5b506104ee610dcc565b6040516104fb91906133d0565b60405180910390f35b34801561051057600080fd5b50610519610df0565b6040516105269190613356565b60405180910390f35b34801561053b57600080fd5b50610544610e14565b604051610551919061340c565b60405180910390f35b34801561056657600080fd5b5061056f610e3a565b60405161057c9190612fe7565b60405180910390f35b34801561059157600080fd5b5061059a610edb565b6040516105a79190613356565b60405180910390f35b3480156105bc57600080fd5b506105d760048036038101906105d29190613453565b610ee2565b005b3480156105e557600080fd5b5061060060048036038101906105fb91906135c8565b610ef8565b005b34801561060e57600080fd5b5061062960048036038101906106249190613310565b610f1d565b005b34801561063757600080fd5b50610652600480360381019061064d919061303f565b6112be565b60405161065f9190612fe7565b60405180910390f35b34801561067457600080fd5b5061068f600480360381019061068a919061364b565b611327565b005b34801561069d57600080fd5b506106a6611484565b6040516106b391906132da565b60405180910390f35b3480156106c857600080fd5b506106d1611490565b6040516106de91906132f5565b60405180910390f35b3480156106f357600080fd5b5061070e6004803603810190610709919061368b565b611497565b60405161071b9190612f4d565b60405180910390f35b34801561073057600080fd5b50610739611539565b604051610746919061340c565b60405180910390f35b34801561075b57600080fd5b5061076461155f565b6040516107719190613356565b60405180910390f35b34801561078657600080fd5b506107a1600480360381019061079c919061303f565b611583565b6040516107ae919061373a565b60405180910390f35b60007f80ac58cd000000000000000000000000000000000000000000000000000000007bffffffffffffffffffffffffffffffffffffffffffffffffffffffff1916827bffffffffffffffffffffffffffffffffffffffffffffffffffffffff1916148061088257507f5b5e139f000000000000000000000000000000000000000000000000000000007bffffffffffffffffffffffffffffffffffffffffffffffffffffffff1916827bffffffffffffffffffffffffffffffffffffffffffffffffffffffff1916145b80610892575061089182611644565b5b9050919050565b606060006108a56116ae565b90508060000180546108b690613784565b80601f01602080910402602001604051908101604052809291908181526020018280546108e290613784565b801561092f5780601f106109045761010080835404028352916020019161092f565b820191906000526020600020905b81548152906001019060200180831161091257829003601f168201915b505050505091505090565b6000610945826116d6565b5061094f8261175e565b9050919050565b61096882826109636117a9565b6117b1565b5050565b60218060000160009054906101000a90046fffffffffffffffffffffffffffffffff16908060000160109054906101000a90046fffffffffffffffffffffffffffffffff16905082565b60226020528060005260406000206000915090508060000160009054906101000a900460ff16908060000160019054906101000a900467ffffffffffffffff16908060000160099054906101000a90046effffffffffffffffffffffffffffff16905083565b600073ffffffffffffffffffffffffffffffffffffffff168273ffffffffffffffffffffffffffffffffffffffff1603610a8e5760006040517f64a0ae92000000000000000000000000000000000000000000000000000000008152600401610a8591906130ad565b60405180910390fd5b6000610aa28383610a9d6117a9565b6117c3565b90508373ffffffffffffffffffffffffffffffffffffffff168173ffffffffffffffffffffffffffffffffffffffff1614610b18578382826040517f64283d7b000000000000000000000000000000000000000000000000000000008152600401610b0f939291906137b5565b60405180910390fd5b50505050565b6000602460009054906101000a900473ffffffffffffffffffffffffffffffffffffffff16905090565b610b6383838360405180602001604052806000815250610ef8565b505050565b6000610b726119f0565b600073ffffffffffffffffffffffffffffffffffffffff168373ffffffffffffffffffffffffffffffffffffffff1603610be1576040517f08c379a0000000000000000000000000000000000000000000000000000000008152600401610bd890613838565b60405180910390fd5b6000826effffffffffffffffffffffffffffff1611610c35576040517f08c379a0000000000000000000000000000000000000000000000000000000008152600401610c2c906138a4565b60405180910390fd5b610c3f8383611a47565b9050610ca13330846effffffffffffffffffffffffffffff16602360009054906101000a900473ffffffffffffffffffffffffffffffffffffffff1673ffffffffffffffffffffffffffffffffffffffff16611ce5909392919063ffffffff16565b610ca9611d67565b92915050565b6000610cba826116d6565b9050919050565b6000602060009054906101000a900467ffffffffffffffff16905090565b600080610cea6116ae565b9050600073ffffffffffffffffffffffffffffffffffffffff168373ffffffffffffffffffffffffffffffffffffffff1603610d5e5760006040517f89c62b64000000000000000000000000000000000000000000000000000000008152600401610d5591906130ad565b60405180910390fd5b8060030160008473ffffffffffffffffffffffffffffffffffffffff1673ffffffffffffffffffffffffffffffffffffffff16815260200190815260200160002054915050919050565b7fa49807205ce4d355092ef5a8a18f56e8913cf4a201fbe287825b095693c2177581565b60008054906101000a900473ffffffffffffffffffffffffffffffffffffffff1681565b7f25cf2b509f2a7f322675b2a5322b182f44ad2c03ac941a0af17c9b178f5d5d5f81565b602360009054906101000a900473ffffffffffffffffffffffffffffffffffffffff1681565b60606000610e466116ae565b9050806001018054610e5790613784565b80601f0160208091040260200160405190810160405280929190818152602001828054610e8390613784565b8015610ed05780601f10610ea557610100808354040283529160200191610ed0565b820191906000526020600020905b815481529060010190602001808311610eb357829003601f168201915b505050505091505090565b6000801b81565b610ef4610eed6117a9565b8383611d80565b5050565b610f03848484610a1c565b610f17610f0e6117a9565b85858585611efe565b50505050565b6000610f276120af565b905060008160000160089054906101000a900460ff1615905060008260000160009054906101000a900467ffffffffffffffff1690506000808267ffffffffffffffff16148015610f755750825b9050600060018367ffffffffffffffff16148015610faa575060003073ffffffffffffffffffffffffffffffffffffffff163b145b905081158015610fb8575080155b15610fef576040517ff92ee8a900000000000000000000000000000000000000000000000000000000815260040160405180910390fd5b60018560000160006101000a81548167ffffffffffffffff021916908367ffffffffffffffff160217905550831561103f5760018560000160086101000a81548160ff0219169083151502179055505b611048866120d7565b6110bc6040518060400160405280601781526020017f76654d65746973526564656d7074696f6e5469636b65740000000000000000008152506040518060400160405280601981526020017f76654d6574697320526564656d7074696f6e205469636b657400000000000000815250612132565b60008054906101000a900473ffffffffffffffffffffffffffffffffffffffff1673ffffffffffffffffffffffffffffffffffffffff1663e59745546040518163ffffffff1660e01b8152600401602060405180830381865afa158015611127573d6000803e3d6000fd5b505050506040513d601f19601f8201168201806040525081019061114b91906138d9565b602460006101000a81548173ffffffffffffffffffffffffffffffffffffffff021916908373ffffffffffffffffffffffffffffffffffffffff16021790555060008054906101000a900473ffffffffffffffffffffffffffffffffffffffff1673ffffffffffffffffffffffffffffffffffffffff16639336ce806040518163ffffffff1660e01b8152600401602060405180830381865afa1580156111f6573d6000803e3d6000fd5b505050506040513d601f19601f8201168201806040525081019061121a91906138d9565b602360006101000a81548173ffffffffffffffffffffffffffffffffffffffff021916908373ffffffffffffffffffffffffffffffffffffffff16021790555083156112b65760008560000160086101000a81548160ff0219169083151502179055507fc7f505b2f371ae2175ee4913f4499e1f2633a7b5936321eed1cdaeb6115181d260016040516112ad9190613941565b60405180910390a15b505050505050565b60606112c9826116d6565b5060006112d4612148565b905060008151116112f4576040518060200160405280600081525061131f565b806112fe8461215f565b60405160200161130f929190613998565b6040516020818303038152906040525b915050919050565b61132f6119f0565b600073ffffffffffffffffffffffffffffffffffffffff168173ffffffffffffffffffffffffffffffffffffffff160361139e576040517f08c379a000000000000000000000000000000000000000000000000000000000815260040161139590613838565b60405180910390fd5b60006113a98361222d565b905061140d8282604001516effffffffffffffffffffffffffffff16602460009054906101000a900473ffffffffffffffffffffffffffffffffffffffff1673ffffffffffffffffffffffffffffffffffffffff166125039092919063ffffffff16565b8173ffffffffffffffffffffffffffffffffffffffff163373ffffffffffffffffffffffffffffffffffffffff16847f2bb34f95ef23b2c81d8c149136c7ebb303c6525e5795d78e15be628068b2e5d2846040015160405161146f91906139bc565b60405180910390a450611480611d67565b5050565b670de0b6b3a764000081565b620f424081565b6000806114a26116ae565b90508060050160008573ffffffffffffffffffffffffffffffffffffffff1673ffffffffffffffffffffffffffffffffffffffff16815260200190815260200160002060008473ffffffffffffffffffffffffffffffffffffffff1673ffffffffffffffffffffffffffffffffffffffff16815260200190815260200160002060009054906101000a900460ff1691505092915050565b602460009054906101000a900473ffffffffffffffffffffffffffffffffffffffff1681565b7ff66846415d2bf9eabda9e84793ff9c0ea96d87f50fc41e66aa16469c6a442f0581565b61158b612dde565b602260008381526020019081526020016000206040518060600160405290816000820160009054906101000a900460ff161515151581526020016000820160019054906101000a900467ffffffffffffffff1667ffffffffffffffff1667ffffffffffffffff1681526020016000820160099054906101000a90046effffffffffffffffffffffffffffff166effffffffffffffffffffffffffffff166effffffffffffffffffffffffffffff16815250509050919050565b60007f01ffc9a7000000000000000000000000000000000000000000000000000000007bffffffffffffffffffffffffffffffffffffffffffffffffffffffff1916827bffffffffffffffffffffffffffffffffffffffffffffffffffffffff1916149050919050565b60007f80bb2b638cc20bc4d0a60d66940f3ab4a00c1d7b313497ca82fb0b4ab0079300905090565b6000806116e283612582565b9050600073ffffffffffffffffffffffffffffffffffffffff168173ffffffffffffffffffffffffffffffffffffffff160361175557826040517f7e27328900000000000000000000000000000000000000000000000000000000815260040161174c91906132da565b60405180910390fd5b80915050919050565b6000806117696116ae565b905080600401600084815260200190815260200160002060009054906101000a900473ffffffffffffffffffffffffffffffffffffffff16915050919050565b600033905090565b6117be83838360016125cd565b505050565b6000806117ce6116ae565b905060006117db85612582565b9050600073ffffffffffffffffffffffffffffffffffffffff168473ffffffffffffffffffffffffffffffffffffffff161461181d5761181c8185876127a1565b5b600073ffffffffffffffffffffffffffffffffffffffff168173ffffffffffffffffffffffffffffffffffffffff16146118b05761185f6000866000806125cd565b60018260030160008373ffffffffffffffffffffffffffffffffffffffff1673ffffffffffffffffffffffffffffffffffffffff168152602001908152602001600020600082825403925050819055505b600073ffffffffffffffffffffffffffffffffffffffff168673ffffffffffffffffffffffffffffffffffffffff16146119355760018260030160008873ffffffffffffffffffffffffffffffffffffffff1673ffffffffffffffffffffffffffffffffffffffff168152602001908152602001600020600082825401925050819055505b8582600201600087815260200190815260200160002060006101000a81548173ffffffffffffffffffffffffffffffffffffffff021916908373ffffffffffffffffffffffffffffffffffffffff160217905550848673ffffffffffffffffffffffffffffffffffffffff168273ffffffffffffffffffffffffffffffffffffffff167fddf252ad1be2c89b69c2b068fc378daa952ba7f163c4a11628f55a4df523b3ef60405160405180910390a480925050509392505050565b60006119fa612865565b90506002816000015403611a3a576040517f3ee5aeb500000000000000000000000000000000000000000000000000000000815260040160405180910390fd5b6002816000018190555050565b60008060008054906101000a900473ffffffffffffffffffffffffffffffffffffffff1673ffffffffffffffffffffffffffffffffffffffff16632d76710b6040518163ffffffff1660e01b8152600401602060405180830381865afa158015611ab5573d6000803e3d6000fd5b505050506040513d601f19601f82011682018060405250810190611ad99190613a03565b42611ae49190613a5f565b905060405180606001604052806000151581526020018267ffffffffffffffff168152602001846effffffffffffffffffffffffffffff1681525060226000602060009054906101000a900467ffffffffffffffff1667ffffffffffffffff16815260200190815260200160002060008201518160000160006101000a81548160ff02191690831515021790555060208201518160000160016101000a81548167ffffffffffffffff021916908367ffffffffffffffff16021790555060408201518160000160096101000a8154816effffffffffffffffffffffffffffff02191690836effffffffffffffffffffffffffffff160217905550905050611c0b84602060009054906101000a900467ffffffffffffffff1667ffffffffffffffff1661288d565b602060009054906101000a900467ffffffffffffffff1667ffffffffffffffff1691508373ffffffffffffffffffffffffffffffffffffffff163373ffffffffffffffffffffffffffffffffffffffff16837fc0d0e4dc9b213313c7ee4b0ef42d8c64029a48a77f2e72cf58595683a90ec5fb8685604051611c8e929190613afd565b60405180910390a46020600081819054906101000a900467ffffffffffffffff16611cb890613b26565b91906101000a81548167ffffffffffffffff021916908367ffffffffffffffff1602179055505092915050565b611d61848573ffffffffffffffffffffffffffffffffffffffff166323b872dd868686604051602401611d1a93929190613b56565b604051602081830303815290604052915060e01b6020820180517bffffffffffffffffffffffffffffffffffffffffffffffffffffffff83818316178352505050506128ab565b50505050565b6000611d71612865565b90506001816000018190555050565b6000611d8a6116ae565b9050600073ffffffffffffffffffffffffffffffffffffffff168373ffffffffffffffffffffffffffffffffffffffff1603611dfd57826040517f5b08ba18000000000000000000000000000000000000000000000000000000008152600401611df491906130ad565b60405180910390fd5b818160050160008673ffffffffffffffffffffffffffffffffffffffff1673ffffffffffffffffffffffffffffffffffffffff16815260200190815260200160002060008573ffffffffffffffffffffffffffffffffffffffff1673ffffffffffffffffffffffffffffffffffffffff16815260200190815260200160002060006101000a81548160ff0219169083151502179055508273ffffffffffffffffffffffffffffffffffffffff168473ffffffffffffffffffffffffffffffffffffffff167f17307eab39ab6107e8899845ad3d59bd9653f200f220920489ca2b5937696c3184604051611ef09190612f4d565b60405180910390a350505050565b60008373ffffffffffffffffffffffffffffffffffffffff163b11156120a8578273ffffffffffffffffffffffffffffffffffffffff1663150b7a02868685856040518563ffffffff1660e01b8152600401611f5d9493929190613be2565b6020604051808303816000875af1925050508015611f9957506040513d601f19601f82011682018060405250810190611f969190613c43565b60015b61201d573d8060008114611fc9576040519150601f19603f3d011682016040523d82523d6000602084013e611fce565b606091505b50600081510361201557836040517f64a0ae9200000000000000000000000000000000000000000000000000000000815260040161200c91906130ad565b60405180910390fd5b805181602001fd5b63150b7a0260e01b7bffffffffffffffffffffffffffffffffffffffffffffffffffffffff1916817bffffffffffffffffffffffffffffffffffffffffffffffffffffffff1916146120a657836040517f64a0ae9200000000000000000000000000000000000000000000000000000000815260040161209d91906130ad565b60405180910390fd5b505b5050505050565b60007ff0c57e16840df040f15088dc2f81fe391c3923bec73e23a9662efc9c229c6a00905090565b6120df61294d565b806000806101000a81548173ffffffffffffffffffffffffffffffffffffffff021916908373ffffffffffffffffffffffffffffffffffffffff16021790555061212761298d565b61212f61299f565b50565b61213a61294d565b61214482826129a9565b5050565b606060405180602001604052806000815250905090565b60606000600161216e846129e6565b01905060008167ffffffffffffffff81111561218d5761218c61349d565b5b6040519080825280601f01601f1916602001820160405280156121bf5781602001600182028036833780820191505090505b509050600082602001820190505b600115612222578080600190039150507f3031323334353637383961626364656600000000000000000000000000000000600a86061a8153600a858161221657612215613c70565b5b049450600085036121cd575b819350505050919050565b612235612dde565b61224861224183610caf565b3384612b39565b61227e576040517fe816274400000000000000000000000000000000000000000000000000000000815260040160405180910390fd5b602260008381526020019081526020016000206040518060600160405290816000820160009054906101000a900460ff161515151581526020016000820160019054906101000a900467ffffffffffffffff1667ffffffffffffffff1667ffffffffffffffff1681526020016000820160099054906101000a90046effffffffffffffffffffffffffffff166effffffffffffffffffffffffffffff166effffffffffffffffffffffffffffff1681525050905080600001511561236e576040517f1b4e0c3c00000000000000000000000000000000000000000000000000000000815260040160405180910390fd5b806020015167ffffffffffffffff164210156123c7574281602001516040517f375394cb0000000000000000000000000000000000000000000000000000000081526004016123be929190613c9f565b60405180910390fd5b6123d082612bfa565b60016022600084815260200190815260200160002060000160006101000a81548160ff02191690831515021790555060008054906101000a900473ffffffffffffffffffffffffffffffffffffffff1673ffffffffffffffffffffffffffffffffffffffff16639336ce806040518163ffffffff1660e01b8152600401602060405180830381865afa15801561246a573d6000803e3d6000fd5b505050506040513d601f19601f8201168201806040525081019061248e91906138d9565b73ffffffffffffffffffffffffffffffffffffffff16639dc29fac3083604001516040518363ffffffff1660e01b81526004016124cc929190613cc8565b600060405180830381600087803b1580156124e657600080fd5b505af11580156124fa573d6000803e3d6000fd5b50505050919050565b61257d838473ffffffffffffffffffffffffffffffffffffffff1663a9059cbb8585604051602401612536929190613cf1565b604051602081830303815290604052915060e01b6020820180517bffffffffffffffffffffffffffffffffffffffffffffffffffffffff83818316178352505050506128ab565b505050565b60008061258d6116ae565b905080600201600084815260200190815260200160002060009054906101000a900473ffffffffffffffffffffffffffffffffffffffff16915050919050565b60006125d76116ae565b905081806126125750600073ffffffffffffffffffffffffffffffffffffffff168373ffffffffffffffffffffffffffffffffffffffff1614155b15612746576000612622856116d6565b9050600073ffffffffffffffffffffffffffffffffffffffff168473ffffffffffffffffffffffffffffffffffffffff161415801561268d57508373ffffffffffffffffffffffffffffffffffffffff168173ffffffffffffffffffffffffffffffffffffffff1614155b80156126a0575061269e8185611497565b155b156126e257836040517fa9fbf51f0000000000000000000000000000000000000000000000000000000081526004016126d991906130ad565b60405180910390fd5b821561274457848673ffffffffffffffffffffffffffffffffffffffff168273ffffffffffffffffffffffffffffffffffffffff167f8c5be1e5ebec7d5bd14f71427d1e84f3dd0314c0f7b2291e5b200ac8c7c3b92560405160405180910390a45b505b8481600401600086815260200190815260200160002060006101000a81548173ffffffffffffffffffffffffffffffffffffffff021916908373ffffffffffffffffffffffffffffffffffffffff1602179055505050505050565b6127ac838383612b39565b61286057600073ffffffffffffffffffffffffffffffffffffffff168373ffffffffffffffffffffffffffffffffffffffff160361282157806040517f7e27328900000000000000000000000000000000000000000000000000000000815260040161281891906132da565b60405180910390fd5b81816040517f177e802f000000000000000000000000000000000000000000000000000000008152600401612857929190613cf1565b60405180910390fd5b505050565b60007f9b779b17422d0df92223018b32b4d1fa46e071723d6817e2486d003becc55f00905090565b6128a7828260405180602001604052806000815250612c80565b5050565b600080602060008451602086016000885af1806128ce576040513d6000823e3d81fd5b3d9250600051915050600082146128e9576001811415612905565b60008473ffffffffffffffffffffffffffffffffffffffff163b145b1561294757836040517f5274afe700000000000000000000000000000000000000000000000000000000815260040161293e91906130ad565b60405180910390fd5b50505050565b612955612ca4565b61298b576040517fd7e6bcf800000000000000000000000000000000000000000000000000000000815260040160405180910390fd5b565b61299561294d565b61299d612cc4565b565b6129a761294d565b565b6129b161294d565b60006129bb6116ae565b9050828160000190816129ce9190613ebc565b50818160010190816129e09190613ebc565b50505050565b600080600090507a184f03e93ff9f4daa797ed6e38ed64bf6a1f0100000000000000008310612a44577a184f03e93ff9f4daa797ed6e38ed64bf6a1f0100000000000000008381612a3a57612a39613c70565b5b0492506040810190505b6d04ee2d6d415b85acef81000000008310612a81576d04ee2d6d415b85acef81000000008381612a7757612a76613c70565b5b0492506020810190505b662386f26fc100008310612ab057662386f26fc100008381612aa657612aa5613c70565b5b0492506010810190505b6305f5e1008310612ad9576305f5e1008381612acf57612ace613c70565b5b0492506008810190505b6127108310612afe576127108381612af457612af3613c70565b5b0492506004810190505b60648310612b215760648381612b1757612b16613c70565b5b0492506002810190505b600a8310612b30576001810190505b80915050919050565b60008073ffffffffffffffffffffffffffffffffffffffff168373ffffffffffffffffffffffffffffffffffffffff1614158015612bf157508273ffffffffffffffffffffffffffffffffffffffff168473ffffffffffffffffffffffffffffffffffffffff161480612bb25750612bb18484611497565b5b80612bf057508273ffffffffffffffffffffffffffffffffffffffff16612bd88361175e565b73ffffffffffffffffffffffffffffffffffffffff16145b5b90509392505050565b6000612c0960008360006117c3565b9050600073ffffffffffffffffffffffffffffffffffffffff168173ffffffffffffffffffffffffffffffffffffffff1603612c7c57816040517f7e273289000000000000000000000000000000000000000000000000000000008152600401612c7391906132da565b60405180910390fd5b5050565b612c8a8383612ce5565b612c9f612c956117a9565b6000858585611efe565b505050565b6000612cae6120af565b60000160089054906101000a900460ff16905090565b612ccc61294d565b6000612cd6612865565b90506001816000018190555050565b600073ffffffffffffffffffffffffffffffffffffffff168273ffffffffffffffffffffffffffffffffffffffff1603612d575760006040517f64a0ae92000000000000000000000000000000000000000000000000000000008152600401612d4e91906130ad565b60405180910390fd5b6000612d65838360006117c3565b9050600073ffffffffffffffffffffffffffffffffffffffff168173ffffffffffffffffffffffffffffffffffffffff1614612dd95760006040517f73c6ac6e000000000000000000000000000000000000000000000000000000008152600401612dd091906130ad565b60405180910390fd5b505050565b6040518060600160405280600015158152602001600067ffffffffffffffff16815260200160006effffffffffffffffffffffffffffff1681525090565b600082825260208201905092915050565b7f426173653a206e6f7420737570706f7274204d65746973207472616e73666572600082015250565b6000612e63602083612e1c565b9150612e6e82612e2d565b602082019050919050565b60006020820190508181036000830152612e9281612e56565b9050919050565b6000604051905090565b600080fd5b600080fd5b60007fffffffff0000000000000000000000000000000000000000000000000000000082169050919050565b612ee281612ead565b8114612eed57600080fd5b50565b600081359050612eff81612ed9565b92915050565b600060208284031215612f1b57612f1a612ea3565b5b6000612f2984828501612ef0565b91505092915050565b60008115159050919050565b612f4781612f32565b82525050565b6000602082019050612f626000830184612f3e565b92915050565b600081519050919050565b60005b83811015612f91578082015181840152602081019050612f76565b60008484015250505050565b6000601f19601f8301169050919050565b6000612fb982612f68565b612fc38185612e1c565b9350612fd3818560208601612f73565b612fdc81612f9d565b840191505092915050565b600060208201905081810360008301526130018184612fae565b905092915050565b6000819050919050565b61301c81613009565b811461302757600080fd5b50565b60008135905061303981613013565b92915050565b60006020828403121561305557613054612ea3565b5b60006130638482850161302a565b91505092915050565b600073ffffffffffffffffffffffffffffffffffffffff82169050919050565b60006130978261306c565b9050919050565b6130a78161308c565b82525050565b60006020820190506130c2600083018461309e565b92915050565b6130d18161308c565b81146130dc57600080fd5b50565b6000813590506130ee816130c8565b92915050565b6000806040838503121561310b5761310a612ea3565b5b6000613119858286016130df565b925050602061312a8582860161302a565b9150509250929050565b60006fffffffffffffffffffffffffffffffff82169050919050565b61315981613134565b82525050565b60006040820190506131746000830185613150565b6131816020830184613150565b9392505050565b600067ffffffffffffffff82169050919050565b6131a581613188565b82525050565b60006effffffffffffffffffffffffffffff82169050919050565b6131cf816131ab565b82525050565b60006060820190506131ea6000830186612f3e565b6131f7602083018561319c565b61320460408301846131c6565b949350505050565b60008060006060848603121561322557613224612ea3565b5b6000613233868287016130df565b9350506020613244868287016130df565b92505060406132558682870161302a565b9150509250925092565b613268816131ab565b811461327357600080fd5b50565b6000813590506132858161325f565b92915050565b600080604083850312156132a2576132a1612ea3565b5b60006132b0858286016130df565b92505060206132c185828601613276565b9150509250929050565b6132d481613009565b82525050565b60006020820190506132ef60008301846132cb565b92915050565b600060208201905061330a600083018461319c565b92915050565b60006020828403121561332657613325612ea3565b5b6000613334848285016130df565b91505092915050565b6000819050919050565b6133508161333d565b82525050565b600060208201905061336b6000830184613347565b92915050565b6000819050919050565b600061339661339161338c8461306c565b613371565b61306c565b9050919050565b60006133a88261337b565b9050919050565b60006133ba8261339d565b9050919050565b6133ca816133af565b82525050565b60006020820190506133e560008301846133c1565b92915050565b60006133f68261339d565b9050919050565b613406816133eb565b82525050565b600060208201905061342160008301846133fd565b92915050565b61343081612f32565b811461343b57600080fd5b50565b60008135905061344d81613427565b92915050565b6000806040838503121561346a57613469612ea3565b5b6000613478858286016130df565b92505060206134898582860161343e565b9150509250929050565b600080fd5b600080fd5b7f4e487b7100000000000000000000000000000000000000000000000000000000600052604160045260246000fd5b6134d582612f9d565b810181811067ffffffffffffffff821117156134f4576134f361349d565b5b80604052505050565b6000613507612e99565b905061351382826134cc565b919050565b600067ffffffffffffffff8211156135335761353261349d565b5b61353c82612f9d565b9050602081019050919050565b82818337600083830152505050565b600061356b61356684613518565b6134fd565b90508281526020810184848401111561358757613586613498565b5b613592848285613549565b509392505050565b600082601f8301126135af576135ae613493565b5b81356135bf848260208601613558565b91505092915050565b600080600080608085870312156135e2576135e1612ea3565b5b60006135f0878288016130df565b9450506020613601878288016130df565b93505060406136128782880161302a565b925050606085013567ffffffffffffffff81111561363357613632612ea8565b5b61363f8782880161359a565b91505092959194509250565b6000806040838503121561366257613661612ea3565b5b60006136708582860161302a565b9250506020613681858286016130df565b9150509250929050565b600080604083850312156136a2576136a1612ea3565b5b60006136b0858286016130df565b92505060206136c1858286016130df565b9150509250929050565b6136d481612f32565b82525050565b6136e381613188565b82525050565b6136f2816131ab565b82525050565b60608201600082015161370e60008501826136cb565b50602082015161372160208501826136da565b50604082015161373460408501826136e9565b50505050565b600060608201905061374f60008301846136f8565b92915050565b7f4e487b7100000000000000000000000000000000000000000000000000000000600052602260045260246000fd5b6000600282049050600182168061379c57607f821691505b6020821081036137af576137ae613755565b5b50919050565b60006060820190506137ca600083018661309e565b6137d760208301856132cb565b6137e4604083018461309e565b949350505050565b7f526564656d7074696f6e51756575653a207a65726f2061646472657373000000600082015250565b6000613822601d83612e1c565b915061382d826137ec565b602082019050919050565b6000602082019050818103600083015261385181613815565b9050919050565b7f526564656d7074696f6e51756575653a20616d6f756e74206973207a65726f00600082015250565b600061388e601f83612e1c565b915061389982613858565b602082019050919050565b600060208201905081810360008301526138bd81613881565b9050919050565b6000815190506138d3816130c8565b92915050565b6000602082840312156138ef576138ee612ea3565b5b60006138fd848285016138c4565b91505092915050565b6000819050919050565b600061392b61392661392184613906565b613371565b613188565b9050919050565b61393b81613910565b82525050565b60006020820190506139566000830184613932565b92915050565b600081905092915050565b600061397282612f68565b61397c818561395c565b935061398c818560208601612f73565b80840191505092915050565b60006139a48285613967565b91506139b08284613967565b91508190509392505050565b60006020820190506139d160008301846131c6565b92915050565b6139e081613188565b81146139eb57600080fd5b50565b6000815190506139fd816139d7565b92915050565b600060208284031215613a1957613a18612ea3565b5b6000613a27848285016139ee565b91505092915050565b7f4e487b7100000000000000000000000000000000000000000000000000000000600052601160045260246000fd5b6000613a6a82613188565b9150613a7583613188565b9250828201905067ffffffffffffffff811115613a9557613a94613a30565b5b92915050565b6000613ab6613ab1613aac846131ab565b613371565b613009565b9050919050565b613ac681613a9b565b82525050565b6000613ae7613ae2613add84613188565b613371565b613009565b9050919050565b613af781613acc565b82525050565b6000604082019050613b126000830185613abd565b613b1f6020830184613aee565b9392505050565b6000613b3182613188565b915067ffffffffffffffff8203613b4b57613b4a613a30565b5b600182019050919050565b6000606082019050613b6b600083018661309e565b613b78602083018561309e565b613b8560408301846132cb565b949350505050565b600081519050919050565b600082825260208201905092915050565b6000613bb482613b8d565b613bbe8185613b98565b9350613bce818560208601612f73565b613bd781612f9d565b840191505092915050565b6000608082019050613bf7600083018761309e565b613c04602083018661309e565b613c1160408301856132cb565b8181036060830152613c238184613ba9565b905095945050505050565b600081519050613c3d81612ed9565b92915050565b600060208284031215613c5957613c58612ea3565b5b6000613c6784828501613c2e565b91505092915050565b7f4e487b7100000000000000000000000000000000000000000000000000000000600052601260045260246000fd5b6000604082019050613cb460008301856132cb565b613cc1602083018461319c565b9392505050565b6000604082019050613cdd600083018561309e565b613cea6020830184613abd565b9392505050565b6000604082019050613d06600083018561309e565b613d1360208301846132cb565b9392505050565b60008190508160005260206000209050919050565b60006020601f8301049050919050565b600082821b905092915050565b600060088302613d7c7fffffffffffffffffffffffffffffffffffffffffffffffffffffffffffffffff82613d3f565b613d868683613d3f565b95508019841693508086168417925050509392505050565b6000613db9613db4613daf84613009565b613371565b613009565b9050919050565b6000819050919050565b613dd383613d9e565b613de7613ddf82613dc0565b848454613d4c565b825550505050565b600090565b613dfc613def565b613e07818484613dca565b505050565b5b81811015613e2b57613e20600082613df4565b600181019050613e0d565b5050565b601f821115613e7057613e4181613d1a565b613e4a84613d2f565b81016020851015613e59578190505b613e6d613e6585613d2f565b830182613e0c565b50505b505050565b600082821c905092915050565b6000613e9360001984600802613e75565b1980831691505092915050565b6000613eac8383613e82565b9150826002028217905092915050565b613ec582612f68565b67ffffffffffffffff811115613ede57613edd61349d565b5b613ee88254613784565b613ef3828285613e2f565b600060209050601f831160018114613f265760008415613f14578287015190505b613f1e8582613ea0565b865550613f86565b601f198416613f3486613d1a565b60005b82811015613f5c57848901518255600182019150602085019450602081019050613f37565b86831015613f795784890151613f75601f891682613e82565b8355505b6001600288020188555050505b50505050505056fea26469706673582212206ba3d86278027461d8019626c5059a2deb58fd68423dff1c00dc08169aaa4a3864736f6c63430008140033",
  "devdoc": {
    "errors": {
      "ERC721IncorrectOwner(address,uint256,address)": [
        {
          "details": "Indicates an error related to the ownership over a particular token. Used in transfers.",
          "params": {
            "owner": "Address of the current owner of a token.",
            "sender": "Address whose tokens are being transferred.",
            "tokenId": "Identifier number of a token."
          }
        }
      ],
      "ERC721InsufficientApproval(address,uint256)": [
        {
          "details": "Indicates a failure with the `operator`s approval. Used in transfers.",
          "params": {
            "operator": "Address that may be allowed to operate on tokens without being their owner.",
            "tokenId": "Identifier number of a token."
          }
        }
      ],
      "ERC721InvalidApprover(address)": [
        {
          "details": "Indicates a failure with the `approver` of a token to be approved. Used in approvals.",
          "params": {
            "approver": "Address initiating an approval operation."
          }
        }
      ],
      "ERC721InvalidOperator(address)": [
        {
          "details": "Indicates a failure with the `operator` to be approved. Used in approvals.",
          "params": {
            "operator": "Address that may be allowed to operate on tokens without being their owner."
          }
        }
      ],
      "ERC721InvalidOwner(address)": [
        {
          "details": "Indicates that an address can't be an owner. For example, `address(0)` is a forbidden owner in ERC-20. Used in balance queries.",
          "params": {
            "owner": "Address of the current owner of a token."
          }
        }
      ],
      "ERC721InvalidReceiver(address)": [
        {
          "details": "Indicates a failure with the token `receiver`. Used in transfers.",
          "params": {
            "receiver": "Address to which tokens are being transferred."
          }
        }
      ],
      "ERC721InvalidSender(address)": [
        {
          "details": "Indicates a failure with the token `sender`. Used in transfers.",
          "params": {
            "sender": "Address whose tokens are being transferred."
          }
        }
      ],
      "ERC721NonexistentToken(uint256)": [
        {
          "details": "Indicates a `tokenId` whose `owner` is the zero address.",
          "params": {
            "tokenId": "Identifier number of a token."
          }
        }
      ],
      "ExceedsCollectedFees(uint128,uint128)": [
        {
          "params": {
            "accruedAmount": "How much fees are actually collectable",
            "collectAmount": "How much fee the ounsender is trying to collect"
          }
        }
      ],
      "InvalidInitialization()": [
        {
          "details": "The contract is already initialized."
        }
      ],
      "NotInitializing()": [
        {
          "details": "The contract is not initializing."
        }
      ],
      "NotMatureYet(uint256,uint64)": [
        {
          "params": {
            "currentTime": "Current time.",
            "maturity": "Time of maturity"
          }
        }
      ],
      "ReentrancyGuardReentrantCall()": [
        {
          "details": "Unauthorized reentrant call."
        }
      ],
      "SafeERC20FailedOperation(address)": [
        {
          "details": "An operation with an ERC-20 token failed."
        }
      ]
    },
    "events": {
      "Approval(address,address,uint256)": {
        "details": "Emitted when `owner` enables `approved` to manage the `tokenId` token."
      },
      "ApprovalForAll(address,address,bool)": {
        "details": "Emitted when `owner` enables or disables (`approved`) `operator` to manage all of its assets."
      },
      "EnterRedemptionQueue(uint256,address,address,uint256,uint256)": {
        "params": {
          "amountVeMetisRedeemed": "The amount of veMetis redeemed",
          "nftId": "The ID of the NFT",
          "recipient": "The recipient of the NFT",
          "sender": "The address of the msg.sender, who is redeeming veMetis"
        }
      },
      "Initialized(uint64)": {
        "details": "Triggered when the contract has been initialized or reinitialized."
      },
      "RedeemRedemptionTicketNft(uint256,address,address,uint120)": {
        "params": {
          "amountOut": "the amount of ether sent to the recipient",
          "nftId": "the if of the nft redeemed",
          "recipient": "the recipient of the ether",
          "sender": "the msg.sender"
        }
      },
      "Transfer(address,address,uint256)": {
        "details": "Emitted when `tokenId` token is transferred from `from` to `to`."
      }
    },
    "kind": "dev",
    "methods": {
      "approve(address,uint256)": {
        "details": "See {IERC721-approve}."
      },
      "balanceOf(address)": {
        "details": "See {IERC721-balanceOf}."
      },
      "enterRedemptionQueue(address,uint120)": {
        "details": "Must call approve/permit on veMetis contract prior to this call",
        "params": {
          "_amountToRedeem": "Amount of veMetis to redeem",
          "_nftId": "The ID of the veMetisRedemptionTicket NFT",
          "_recipient": "Recipient of the NFT. Must be ERC721 compatible if a contract"
        }
      },
      "getApproved(uint256)": {
        "details": "See {IERC721-getApproved}."
      },
      "isApprovedForAll(address,address)": {
        "details": "See {IERC721-isApprovedForAll}."
      },
      "name()": {
        "details": "See {IERC721Metadata-name}."
      },
      "ownerOf(uint256)": {
        "details": "See {IERC721-ownerOf}."
      },
      "redeemRedemptionTicketNft(uint256,address)": {
        "params": {
          "_nftId": "The ID of the NFT",
          "_recipient": "The recipient of the redeemed Metis"
        }
      },
      "safeTransferFrom(address,address,uint256)": {
        "details": "See {IERC721-safeTransferFrom}."
      },
      "safeTransferFrom(address,address,uint256,bytes)": {
        "details": "See {IERC721-safeTransferFrom}."
      },
      "setApprovalForAll(address,bool)": {
        "details": "See {IERC721-setApprovalForAll}."
      },
      "supportsInterface(bytes4)": {
        "details": "See {IERC165-supportsInterface}."
      },
      "symbol()": {
        "details": "See {IERC721Metadata-symbol}."
      },
      "tokenURI(uint256)": {
        "details": "See {IERC721Metadata-tokenURI}."
      },
      "transferFrom(address,address,uint256)": {
        "details": "See {IERC721-transferFrom}."
      }
    },
    "title": "RedemptionQueue",
    "version": 1
  },
  "userdoc": {
    "errors": {
      "AlreadyRedeemed()": [
        {
          "notice": "already redeemed"
        }
      ],
      "AlreadyReducedMaturity()": [
        {
          "notice": "Already reduced maturity"
        }
      ],
      "Erc721CallerNotOwnerOrApproved()": [
        {
          "notice": "ERC721: caller is not token owner or approved"
        }
      ],
      "ExceedsCollectedFees(uint128,uint128)": [
        {
          "notice": "When timelock/operator tries collecting more fees than they are due"
        }
      ],
      "NotMatureYet(uint256,uint64)": [
        {
          "notice": "NFT is not mature enough to redeem yet"
        }
      ]
    },
    "events": {
      "EnterRedemptionQueue(uint256,address,address,uint256,uint256)": {
        "notice": "When someone enters the redemption queue"
      },
      "RedeemRedemptionTicketNft(uint256,address,address,uint120)": {
        "notice": "When someone redeems their NFT for Metis"
      }
    },
    "kind": "user",
    "methods": {
      "ADMIN_ROLE()": {
        "notice": "The role for the admin"
      },
      "BACKEND_ROLE()": {
        "notice": "The role for the backend"
      },
      "DEFAULT_ADMIN_ROLE()": {
        "notice": "The default admin role"
      },
      "FEE_PRECISION()": {
        "notice": "The precision of the fee"
      },
      "INITIAL_DEPOSIT_AMOUNT()": {
        "notice": "sveMetis vault initial deposit amount"
      },
      "TIMELOCK_ROLE()": {
        "notice": "The role for the tmelock"
      },
      "config()": {
        "notice": "holds the address of the config contract"
      },
      "enterRedemptionQueue(address,uint120)": {
        "notice": "Enter the queue for redeeming veMetis 1-to-1. Must approve or permit first.Will generate a veMetisRedemptionTicket NFT that can be redeemed for the actual Metis later."
      },
      "nftInformation(uint256)": {
        "notice": "Information about a user's redemption ticket NFT"
      },
      "redeemRedemptionTicketNft(uint256,address)": {
        "notice": "Redeems a veMetisRedemptionTicket NFT for Metis. Must have reached the maturity date first."
      },
      "redemptionQueueAccounting()": {
        "notice": "Accounting redemption queue"
      }
    },
    "notice": "RedemptionQueue is the contract that manages the redemption queue for veMetis",
    "version": 1
  },
  "storageLayout": {
    "storage": [
      {
        "astId": 6728,
        "contract": "contracts/RedemptionQueue.sol:RedemptionQueue",
        "label": "config",
        "offset": 0,
        "slot": "0",
        "type": "t_contract(IConfig)7382"
      },
      {
        "astId": 6730,
        "contract": "contracts/RedemptionQueue.sol:RedemptionQueue",
        "label": "internalCalling",
        "offset": 0,
        "slot": "1",
        "type": "t_address"
      },
      {
        "astId": 6870,
        "contract": "contracts/RedemptionQueue.sol:RedemptionQueue",
        "label": "__gap",
        "offset": 0,
        "slot": "2",
        "type": "t_array(t_uint256)30_storage"
      },
      {
        "astId": 6910,
        "contract": "contracts/RedemptionQueue.sol:RedemptionQueue",
        "label": "nextNftId",
        "offset": 0,
        "slot": "32",
        "type": "t_uint64"
      },
      {
        "astId": 6914,
        "contract": "contracts/RedemptionQueue.sol:RedemptionQueue",
        "label": "redemptionQueueAccounting",
        "offset": 0,
        "slot": "33",
        "type": "t_struct(RedemptionQueueAccounting)6908_storage"
      },
      {
        "astId": 6920,
        "contract": "contracts/RedemptionQueue.sol:RedemptionQueue",
        "label": "nftInformation",
        "offset": 0,
        "slot": "34",
        "type": "t_mapping(t_uint256,t_struct(RedemptionQueueItem)6902_storage)"
      },
      {
        "astId": 6923,
        "contract": "contracts/RedemptionQueue.sol:RedemptionQueue",
        "label": "veMetis",
        "offset": 0,
        "slot": "35",
        "type": "t_contract(IERC20)1853"
      },
      {
        "astId": 6926,
        "contract": "contracts/RedemptionQueue.sol:RedemptionQueue",
        "label": "METIS",
        "offset": 0,
        "slot": "36",
        "type": "t_contract(IERC20)1853"
      }
    ],
    "types": {
      "t_address": {
        "encoding": "inplace",
        "label": "address",
        "numberOfBytes": "20"
      },
      "t_array(t_uint256)30_storage": {
        "base": "t_uint256",
        "encoding": "inplace",
        "label": "uint256[30]",
        "numberOfBytes": "960"
      },
      "t_bool": {
        "encoding": "inplace",
        "label": "bool",
        "numberOfBytes": "1"
      },
      "t_contract(IConfig)7382": {
        "encoding": "inplace",
        "label": "contract IConfig",
        "numberOfBytes": "20"
      },
      "t_contract(IERC20)1853": {
        "encoding": "inplace",
        "label": "contract IERC20",
        "numberOfBytes": "20"
      },
      "t_mapping(t_uint256,t_struct(RedemptionQueueItem)6902_storage)": {
        "encoding": "mapping",
        "key": "t_uint256",
        "label": "mapping(uint256 => struct RedemptionQueue.RedemptionQueueItem)",
        "numberOfBytes": "32",
        "value": "t_struct(RedemptionQueueItem)6902_storage"
      },
      "t_struct(RedemptionQueueAccounting)6908_storage": {
        "encoding": "inplace",
        "label": "struct RedemptionQueue.RedemptionQueueAccounting",
        "members": [
          {
            "astId": 6905,
            "contract": "contracts/RedemptionQueue.sol:RedemptionQueue",
            "label": "etherLiabilities",
            "offset": 0,
            "slot": "0",
            "type": "t_uint128"
          },
          {
            "astId": 6907,
            "contract": "contracts/RedemptionQueue.sol:RedemptionQueue",
            "label": "unclaimedFees",
            "offset": 16,
            "slot": "0",
            "type": "t_uint128"
          }
        ],
        "numberOfBytes": "32"
      },
      "t_struct(RedemptionQueueItem)6902_storage": {
        "encoding": "inplace",
        "label": "struct RedemptionQueue.RedemptionQueueItem",
        "members": [
          {
            "astId": 6897,
            "contract": "contracts/RedemptionQueue.sol:RedemptionQueue",
            "label": "hasBeenRedeemed",
            "offset": 0,
            "slot": "0",
            "type": "t_bool"
          },
          {
            "astId": 6899,
            "contract": "contracts/RedemptionQueue.sol:RedemptionQueue",
            "label": "maturity",
            "offset": 1,
            "slot": "0",
            "type": "t_uint64"
          },
          {
            "astId": 6901,
            "contract": "contracts/RedemptionQueue.sol:RedemptionQueue",
            "label": "amount",
            "offset": 9,
            "slot": "0",
            "type": "t_uint120"
          }
        ],
        "numberOfBytes": "32"
      },
      "t_uint120": {
        "encoding": "inplace",
        "label": "uint120",
        "numberOfBytes": "15"
      },
      "t_uint128": {
        "encoding": "inplace",
        "label": "uint128",
        "numberOfBytes": "16"
      },
      "t_uint256": {
        "encoding": "inplace",
        "label": "uint256",
        "numberOfBytes": "32"
      },
      "t_uint64": {
        "encoding": "inplace",
        "label": "uint64",
        "numberOfBytes": "8"
      }
    }
  }
}