{
  "address": "0x5da684576FEbAE4d491c8820580dc32396B90fF8",
  "abi": [
    {
      "inputs": [],
      "name": "AlreadyRedeemed",
      "type": "error"
    },
    {
      "inputs": [
        {
          "internalType": "address",
          "name": "sender",
          "type": "address"
        },
        {
          "internalType": "uint256",
          "name": "tokenId",
          "type": "uint256"
        },
        {
          "internalType": "address",
          "name": "owner",
          "type": "address"
        }
      ],
      "name": "ERC721IncorrectOwner",
      "type": "error"
    },
    {
      "inputs": [
        {
          "internalType": "address",
          "name": "operator",
          "type": "address"
        },
        {
          "internalType": "uint256",
          "name": "tokenId",
          "type": "uint256"
        }
      ],
      "name": "ERC721InsufficientApproval",
      "type": "error"
    },
    {
      "inputs": [
        {
          "internalType": "address",
          "name": "approver",
          "type": "address"
        }
      ],
      "name": "ERC721InvalidApprover",
      "type": "error"
    },
    {
      "inputs": [
        {
          "internalType": "address",
          "name": "operator",
          "type": "address"
        }
      ],
      "name": "ERC721InvalidOperator",
      "type": "error"
    },
    {
      "inputs": [
        {
          "internalType": "address",
          "name": "owner",
          "type": "address"
        }
      ],
      "name": "ERC721InvalidOwner",
      "type": "error"
    },
    {
      "inputs": [
        {
          "internalType": "address",
          "name": "receiver",
          "type": "address"
        }
      ],
      "name": "ERC721InvalidReceiver",
      "type": "error"
    },
    {
      "inputs": [
        {
          "internalType": "address",
          "name": "sender",
          "type": "address"
        }
      ],
      "name": "ERC721InvalidSender",
      "type": "error"
    },
    {
      "inputs": [
        {
          "internalType": "uint256",
          "name": "tokenId",
          "type": "uint256"
        }
      ],
      "name": "ERC721NonexistentToken",
      "type": "error"
    },
    {
      "inputs": [],
      "name": "Erc721CallerNotOwnerOrApproved",
      "type": "error"
    },
    {
      "inputs": [],
      "name": "InvalidInitialization",
      "type": "error"
    },
    {
      "inputs": [],
      "name": "NotInitializing",
      "type": "error"
    },
    {
      "inputs": [
        {
          "internalType": "uint256",
          "name": "currentTime",
          "type": "uint256"
        },
        {
          "internalType": "uint64",
          "name": "maturity",
          "type": "uint64"
        }
      ],
      "name": "NotMatureYet",
      "type": "error"
    },
    {
      "inputs": [],
      "name": "ReentrancyGuardReentrantCall",
      "type": "error"
    },
    {
      "inputs": [
        {
          "internalType": "address",
          "name": "token",
          "type": "address"
        }
      ],
      "name": "SafeERC20FailedOperation",
      "type": "error"
    },
    {
      "anonymous": false,
      "inputs": [
        {
          "indexed": true,
          "internalType": "address",
          "name": "owner",
          "type": "address"
        },
        {
          "indexed": true,
          "internalType": "address",
          "name": "approved",
          "type": "address"
        },
        {
          "indexed": true,
          "internalType": "uint256",
          "name": "tokenId",
          "type": "uint256"
        }
      ],
      "name": "Approval",
      "type": "event"
    },
    {
      "anonymous": false,
      "inputs": [
        {
          "indexed": true,
          "internalType": "address",
          "name": "owner",
          "type": "address"
        },
        {
          "indexed": true,
          "internalType": "address",
          "name": "operator",
          "type": "address"
        },
        {
          "indexed": false,
          "internalType": "bool",
          "name": "approved",
          "type": "bool"
        }
      ],
      "name": "ApprovalForAll",
      "type": "event"
    },
    {
      "anonymous": false,
      "inputs": [
        {
          "indexed": true,
          "internalType": "uint256",
          "name": "nftId",
          "type": "uint256"
        },
        {
          "indexed": true,
          "internalType": "address",
          "name": "sender",
          "type": "address"
        },
        {
          "indexed": true,
          "internalType": "address",
          "name": "recipient",
          "type": "address"
        },
        {
          "indexed": false,
          "internalType": "uint256",
          "name": "amountVeMetisRedeemed",
          "type": "uint256"
        },
        {
          "indexed": false,
          "internalType": "uint256",
          "name": "maturityTimestamp",
          "type": "uint256"
        }
      ],
      "name": "EnterRedemptionQueue",
      "type": "event"
    },
    {
      "anonymous": false,
      "inputs": [
        {
          "indexed": false,
          "internalType": "uint64",
          "name": "version",
          "type": "uint64"
        }
      ],
      "name": "Initialized",
      "type": "event"
    },
    {
      "anonymous": false,
      "inputs": [
        {
          "indexed": true,
          "internalType": "uint256",
          "name": "nftId",
          "type": "uint256"
        },
        {
          "indexed": true,
          "internalType": "address",
          "name": "sender",
          "type": "address"
        },
        {
          "indexed": true,
          "internalType": "address",
          "name": "recipient",
          "type": "address"
        },
        {
          "indexed": false,
          "internalType": "uint256",
          "name": "amountOut",
          "type": "uint256"
        }
      ],
      "name": "RedeemRedemptionTicketNft",
      "type": "event"
    },
    {
      "anonymous": false,
      "inputs": [
        {
          "indexed": true,
          "internalType": "address",
          "name": "from",
          "type": "address"
        },
        {
          "indexed": true,
          "internalType": "address",
          "name": "to",
          "type": "address"
        },
        {
          "indexed": true,
          "internalType": "uint256",
          "name": "tokenId",
          "type": "uint256"
        }
      ],
      "name": "Transfer",
      "type": "event"
    },
    {
      "inputs": [],
      "name": "ADMIN_ROLE",
      "outputs": [
        {
          "internalType": "bytes32",
          "name": "",
          "type": "bytes32"
        }
      ],
      "stateMutability": "view",
      "type": "function"
    },
    {
      "inputs": [],
      "name": "BACKEND_ROLE",
      "outputs": [
        {
          "internalType": "bytes32",
          "name": "",
          "type": "bytes32"
        }
      ],
      "stateMutability": "view",
      "type": "function"
    },
    {
      "inputs": [],
      "name": "DEFAULT_ADMIN_ROLE",
      "outputs": [
        {
          "internalType": "bytes32",
          "name": "",
          "type": "bytes32"
        }
      ],
      "stateMutability": "view",
      "type": "function"
    },
    {
      "inputs": [],
      "name": "FEE_PRECISION",
      "outputs": [
        {
          "internalType": "uint64",
          "name": "",
          "type": "uint64"
        }
      ],
      "stateMutability": "view",
      "type": "function"
    },
    {
      "inputs": [],
      "name": "INITIAL_DEPOSIT_AMOUNT",
      "outputs": [
        {
          "internalType": "uint256",
          "name": "",
          "type": "uint256"
        }
      ],
      "stateMutability": "view",
      "type": "function"
    },
    {
      "inputs": [],
      "name": "METIS",
      "outputs": [
        {
          "internalType": "contract IERC20",
          "name": "",
          "type": "address"
        }
      ],
      "stateMutability": "view",
      "type": "function"
    },
    {
      "inputs": [],
      "name": "TIMELOCK_ROLE",
      "outputs": [
        {
          "internalType": "bytes32",
          "name": "",
          "type": "bytes32"
        }
      ],
      "stateMutability": "view",
      "type": "function"
    },
    {
      "inputs": [],
      "name": "_totalAssets",
      "outputs": [
        {
          "internalType": "uint256",
          "name": "",
          "type": "uint256"
        }
      ],
      "stateMutability": "view",
      "type": "function"
    },
    {
      "inputs": [
        {
          "internalType": "address",
          "name": "to",
          "type": "address"
        },
        {
          "internalType": "uint256",
          "name": "tokenId",
          "type": "uint256"
        }
      ],
      "name": "approve",
      "outputs": [],
      "stateMutability": "nonpayable",
      "type": "function"
    },
    {
      "inputs": [
        {
          "internalType": "address",
          "name": "owner",
          "type": "address"
        }
      ],
      "name": "balanceOf",
      "outputs": [
        {
          "internalType": "uint256",
          "name": "",
          "type": "uint256"
        }
      ],
      "stateMutability": "view",
      "type": "function"
    },
    {
      "inputs": [],
      "name": "config",
      "outputs": [
        {
          "internalType": "contract IConfig",
          "name": "",
          "type": "address"
        }
      ],
      "stateMutability": "view",
      "type": "function"
    },
    {
      "inputs": [
        {
          "internalType": "address",
          "name": "_recipient",
          "type": "address"
        },
        {
          "internalType": "uint256",
          "name": "_amountToRedeem",
          "type": "uint256"
        }
      ],
      "name": "enterRedemptionQueue",
      "outputs": [
        {
          "internalType": "uint256",
          "name": "_nftId",
          "type": "uint256"
        }
      ],
      "stateMutability": "nonpayable",
      "type": "function"
    },
    {
      "inputs": [
        {
          "internalType": "uint256",
          "name": "tokenId",
          "type": "uint256"
        }
      ],
      "name": "getApproved",
      "outputs": [
        {
          "internalType": "address",
          "name": "",
          "type": "address"
        }
      ],
      "stateMutability": "view",
      "type": "function"
    },
    {
      "inputs": [],
      "name": "getMetisAddress",
      "outputs": [
        {
          "internalType": "address",
          "name": "",
          "type": "address"
        }
      ],
      "stateMutability": "view",
      "type": "function"
    },
    {
      "inputs": [],
      "name": "getNftId",
      "outputs": [
        {
          "internalType": "uint64",
          "name": "",
          "type": "uint64"
        }
      ],
      "stateMutability": "view",
      "type": "function"
    },
    {
      "inputs": [
        {
          "internalType": "uint256",
          "name": "_nftId",
          "type": "uint256"
        }
      ],
      "name": "getNftInformation",
      "outputs": [
        {
          "components": [
            {
              "internalType": "bool",
              "name": "hasBeenRedeemed",
              "type": "bool"
            },
            {
              "internalType": "uint64",
              "name": "maturity",
              "type": "uint64"
            },
            {
              "internalType": "uint256",
              "name": "amount",
              "type": "uint256"
            }
          ],
          "internalType": "struct IRedemptionQueue.RedemptionQueueItem",
          "name": "",
          "type": "tuple"
        }
      ],
      "stateMutability": "view",
      "type": "function"
    },
    {
      "inputs": [
        {
          "internalType": "address",
          "name": "_config",
          "type": "address"
        }
      ],
      "name": "initialize",
      "outputs": [],
      "stateMutability": "nonpayable",
      "type": "function"
    },
    {
      "inputs": [
        {
          "internalType": "address",
          "name": "owner",
          "type": "address"
        },
        {
          "internalType": "address",
          "name": "operator",
          "type": "address"
        }
      ],
      "name": "isApprovedForAll",
      "outputs": [
        {
          "internalType": "bool",
          "name": "",
          "type": "bool"
        }
      ],
      "stateMutability": "view",
      "type": "function"
    },
    {
      "inputs": [],
      "name": "name",
      "outputs": [
        {
          "internalType": "string",
          "name": "",
          "type": "string"
        }
      ],
      "stateMutability": "view",
      "type": "function"
    },
    {
      "inputs": [
        {
          "internalType": "uint256",
          "name": "nftId",
          "type": "uint256"
        }
      ],
      "name": "nftInformation",
      "outputs": [
        {
          "internalType": "bool",
          "name": "hasBeenRedeemed",
          "type": "bool"
        },
        {
          "internalType": "uint64",
          "name": "maturity",
          "type": "uint64"
        },
        {
          "internalType": "uint256",
          "name": "amount",
          "type": "uint256"
        }
      ],
      "stateMutability": "view",
      "type": "function"
    },
    {
      "inputs": [
        {
          "internalType": "uint256",
          "name": "tokenId",
          "type": "uint256"
        }
      ],
      "name": "ownerOf",
      "outputs": [
        {
          "internalType": "address",
          "name": "",
          "type": "address"
        }
      ],
      "stateMutability": "view",
      "type": "function"
    },
    {
      "inputs": [
        {
          "internalType": "uint256",
          "name": "_nftId",
          "type": "uint256"
        },
        {
          "internalType": "address",
          "name": "_recipient",
          "type": "address"
        }
      ],
      "name": "redeemRedemptionTicketNft",
      "outputs": [],
      "stateMutability": "nonpayable",
      "type": "function"
    },
    {
      "inputs": [
        {
          "internalType": "address",
          "name": "from",
          "type": "address"
        },
        {
          "internalType": "address",
          "name": "to",
          "type": "address"
        },
        {
          "internalType": "uint256",
          "name": "tokenId",
          "type": "uint256"
        }
      ],
      "name": "safeTransferFrom",
      "outputs": [],
      "stateMutability": "nonpayable",
      "type": "function"
    },
    {
      "inputs": [
        {
          "internalType": "address",
          "name": "from",
          "type": "address"
        },
        {
          "internalType": "address",
          "name": "to",
          "type": "address"
        },
        {
          "internalType": "uint256",
          "name": "tokenId",
          "type": "uint256"
        },
        {
          "internalType": "bytes",
          "name": "data",
          "type": "bytes"
        }
      ],
      "name": "safeTransferFrom",
      "outputs": [],
      "stateMutability": "nonpayable",
      "type": "function"
    },
    {
      "inputs": [
        {
          "internalType": "address",
          "name": "operator",
          "type": "address"
        },
        {
          "internalType": "bool",
          "name": "approved",
          "type": "bool"
        }
      ],
      "name": "setApprovalForAll",
      "outputs": [],
      "stateMutability": "nonpayable",
      "type": "function"
    },
    {
      "inputs": [
        {
          "internalType": "bytes4",
          "name": "interfaceId",
          "type": "bytes4"
        }
      ],
      "name": "supportsInterface",
      "outputs": [
        {
          "internalType": "bool",
          "name": "",
          "type": "bool"
        }
      ],
      "stateMutability": "view",
      "type": "function"
    },
    {
      "inputs": [],
      "name": "symbol",
      "outputs": [
        {
          "internalType": "string",
          "name": "",
          "type": "string"
        }
      ],
      "stateMutability": "view",
      "type": "function"
    },
    {
      "inputs": [
        {
          "internalType": "uint256",
          "name": "tokenId",
          "type": "uint256"
        }
      ],
      "name": "tokenURI",
      "outputs": [
        {
          "internalType": "string",
          "name": "",
          "type": "string"
        }
      ],
      "stateMutability": "view",
      "type": "function"
    },
    {
      "inputs": [
        {
          "internalType": "address",
          "name": "from",
          "type": "address"
        },
        {
          "internalType": "address",
          "name": "to",
          "type": "address"
        },
        {
          "internalType": "uint256",
          "name": "tokenId",
          "type": "uint256"
        }
      ],
      "name": "transferFrom",
      "outputs": [],
      "stateMutability": "nonpayable",
      "type": "function"
    },
    {
      "inputs": [],
      "name": "velixVault",
      "outputs": [
        {
          "internalType": "contract IVelixVault",
          "name": "",
          "type": "address"
        }
      ],
      "stateMutability": "view",
      "type": "function"
    },
    {
      "stateMutability": "payable",
      "type": "receive"
    }
  ],
  "transactionHash": "0x95dd3c39ccdb912e473bb10e913d76d5a8306b0a5dc26179c8fa44c7eb8226e3",
  "args": [],
  "numDeployments": 1,
  "solcInputHash": "b59eaf9e0f83b14ba89a041d9a590ad6",
  "bytecode": "0x608060405234801561001057600080fd5b50613ccd806100206000396000f3fe6080604052600436106101d15760003560e01c806395d89b41116100f7578063cc928d5211610095578063e985e9c511610064578063e985e9c5146106e6578063f0dadf2e14610723578063f288a2e21461074e578063fe663b811461077957610211565b8063cc928d521461063c578063ce04bebb14610665578063e52083c614610690578063e63a391f146106bb57610211565b8063a47be30b116100d1578063a47be30b14610570578063b88d4fde146105ad578063c4d66de8146105d6578063c87b56dd146105ff57610211565b806395d89b41146104f1578063a217fddf1461051c578063a22cb4651461054757610211565b806342842e0e1161016f57806370a082311161013e57806370a082311461043357806375b238fc1461047057806379502c551461049b57806392c2becc146104c657610211565b806342842e0e14610377578063475785c7146103a05780636352211e146103cb578063644c45e01461040857610211565b8063095ea7b3116101ab578063095ea7b3146102bb57806316b79639146102e457806323b872dd146103235780632e6dd4721461034c57610211565b806301ffc9a71461021657806306fdde0314610253578063081812fc1461027e57610211565b36610211576040517f08c379a000000000000000000000000000000000000000000000000000000000815260040161020890612c4a565b60405180910390fd5b600080fd5b34801561022257600080fd5b5061023d60048036038101906102389190612cd6565b6107b6565b60405161024a9190612d1e565b60405180910390f35b34801561025f57600080fd5b50610268610898565b6040516102759190612db8565b60405180910390f35b34801561028a57600080fd5b506102a560048036038101906102a09190612e10565b610939565b6040516102b29190612e7e565b60405180910390f35b3480156102c757600080fd5b506102e260048036038101906102dd9190612ec5565b610955565b005b3480156102f057600080fd5b5061030b60048036038101906103069190612e10565b61096b565b60405161031a93929190612f37565b60405180910390f35b34801561032f57600080fd5b5061034a60048036038101906103459190612f6e565b6109b6565b005b34801561035857600080fd5b50610361610ab8565b60405161036e9190612e7e565b60405180910390f35b34801561038357600080fd5b5061039e60048036038101906103999190612f6e565b610ae2565b005b3480156103ac57600080fd5b506103b5610b02565b6040516103c29190613020565b60405180910390f35b3480156103d757600080fd5b506103f260048036038101906103ed9190612e10565b610b28565b6040516103ff9190612e7e565b60405180910390f35b34801561041457600080fd5b5061041d610b3a565b60405161042a919061303b565b60405180910390f35b34801561043f57600080fd5b5061045a60048036038101906104559190613056565b610b58565b6040516104679190613083565b60405180910390f35b34801561047c57600080fd5b50610485610c21565b60405161049291906130b7565b60405180910390f35b3480156104a757600080fd5b506104b0610c45565b6040516104bd91906130f3565b60405180910390f35b3480156104d257600080fd5b506104db610c69565b6040516104e891906130b7565b60405180910390f35b3480156104fd57600080fd5b50610506610c8d565b6040516105139190612db8565b60405180910390f35b34801561052857600080fd5b50610531610d2e565b60405161053e91906130b7565b60405180910390f35b34801561055357600080fd5b5061056e6004803603810190610569919061313a565b610d35565b005b34801561057c57600080fd5b5061059760048036038101906105929190612ec5565b610d4b565b6040516105a49190613083565b60405180910390f35b3480156105b957600080fd5b506105d460048036038101906105cf91906132af565b610f24565b005b3480156105e257600080fd5b506105fd60048036038101906105f89190613056565b610f49565b005b34801561060b57600080fd5b5061062660048036038101906106219190612e10565b6112ea565b6040516106339190612db8565b60405180910390f35b34801561064857600080fd5b50610663600480360381019061065e9190613332565b611353565b005b34801561067157600080fd5b5061067a61149f565b6040516106879190613083565b60405180910390f35b34801561069c57600080fd5b506106a56114a5565b6040516106b29190613083565b60405180910390f35b3480156106c757600080fd5b506106d06114b1565b6040516106dd919061303b565b60405180910390f35b3480156106f257600080fd5b5061070d60048036038101906107089190613372565b6114b8565b60405161071a9190612d1e565b60405180910390f35b34801561072f57600080fd5b5061073861155a565b60405161074591906133d3565b60405180910390f35b34801561075a57600080fd5b50610763611580565b60405161077091906130b7565b60405180910390f35b34801561078557600080fd5b506107a0600480360381019061079b9190612e10565b6115a4565b6040516107ad919061345d565b60405180910390f35b60007f80ac58cd000000000000000000000000000000000000000000000000000000007bffffffffffffffffffffffffffffffffffffffffffffffffffffffff1916827bffffffffffffffffffffffffffffffffffffffffffffffffffffffff1916148061088157507f5b5e139f000000000000000000000000000000000000000000000000000000007bffffffffffffffffffffffffffffffffffffffffffffffffffffffff1916827bffffffffffffffffffffffffffffffffffffffffffffffffffffffff1916145b80610891575061089082611628565b5b9050919050565b606060006108a4611692565b90508060000180546108b5906134a7565b80601f01602080910402602001604051908101604052809291908181526020018280546108e1906134a7565b801561092e5780601f106109035761010080835404028352916020019161092e565b820191906000526020600020905b81548152906001019060200180831161091157829003601f168201915b505050505091505090565b6000610944826116ba565b5061094e82611742565b9050919050565b610967828261096261178d565b611795565b5050565b60226020528060005260406000206000915090508060000160009054906101000a900460ff16908060000160019054906101000a900467ffffffffffffffff16908060010154905083565b600073ffffffffffffffffffffffffffffffffffffffff168273ffffffffffffffffffffffffffffffffffffffff1603610a285760006040517f64a0ae92000000000000000000000000000000000000000000000000000000008152600401610a1f9190612e7e565b60405180910390fd5b6000610a3c8383610a3761178d565b6117a7565b90508373ffffffffffffffffffffffffffffffffffffffff168173ffffffffffffffffffffffffffffffffffffffff1614610ab2578382826040517f64283d7b000000000000000000000000000000000000000000000000000000008152600401610aa9939291906134d8565b60405180910390fd5b50505050565b6000602460009054906101000a900473ffffffffffffffffffffffffffffffffffffffff16905090565b610afd83838360405180602001604052806000815250610f24565b505050565b602360009054906101000a900473ffffffffffffffffffffffffffffffffffffffff1681565b6000610b33826116ba565b9050919050565b6000602160009054906101000a900467ffffffffffffffff16905090565b600080610b63611692565b9050600073ffffffffffffffffffffffffffffffffffffffff168373ffffffffffffffffffffffffffffffffffffffff1603610bd75760006040517f89c62b64000000000000000000000000000000000000000000000000000000008152600401610bce9190612e7e565b60405180910390fd5b8060030160008473ffffffffffffffffffffffffffffffffffffffff1673ffffffffffffffffffffffffffffffffffffffff16815260200190815260200160002054915050919050565b7fa49807205ce4d355092ef5a8a18f56e8913cf4a201fbe287825b095693c2177581565b60008054906101000a900473ffffffffffffffffffffffffffffffffffffffff1681565b7f25cf2b509f2a7f322675b2a5322b182f44ad2c03ac941a0af17c9b178f5d5d5f81565b60606000610c99611692565b9050806001018054610caa906134a7565b80601f0160208091040260200160405190810160405280929190818152602001828054610cd6906134a7565b8015610d235780601f10610cf857610100808354040283529160200191610d23565b820191906000526020600020905b815481529060010190602001808311610d0657829003601f168201915b505050505091505090565b6000801b81565b610d47610d4061178d565b83836119d4565b5050565b6000610d55611b52565b60008054906101000a900473ffffffffffffffffffffffffffffffffffffffff1673ffffffffffffffffffffffffffffffffffffffff1663475785c76040518163ffffffff1660e01b8152600401602060405180830381865afa158015610dc0573d6000803e3d6000fd5b505050506040513d601f19601f82011682018060405250810190610de49190613524565b73ffffffffffffffffffffffffffffffffffffffff16610e0261178d565b73ffffffffffffffffffffffffffffffffffffffff1614610e58576040517f08c379a0000000000000000000000000000000000000000000000000000000008152600401610e4f906135c3565b60405180910390fd5b600073ffffffffffffffffffffffffffffffffffffffff168373ffffffffffffffffffffffffffffffffffffffff1603610ec7576040517f08c379a0000000000000000000000000000000000000000000000000000000008152600401610ebe9061362f565b60405180910390fd5b60008211610f0a576040517f08c379a0000000000000000000000000000000000000000000000000000000008152600401610f019061369b565b60405180910390fd5b610f148383611ba9565b9050610f1e611e03565b92915050565b610f2f8484846109b6565b610f43610f3a61178d565b85858585611e1c565b50505050565b6000610f53611fcd565b905060008160000160089054906101000a900460ff1615905060008260000160009054906101000a900467ffffffffffffffff1690506000808267ffffffffffffffff16148015610fa15750825b9050600060018367ffffffffffffffff16148015610fd6575060003073ffffffffffffffffffffffffffffffffffffffff163b145b905081158015610fe4575080155b1561101b576040517ff92ee8a900000000000000000000000000000000000000000000000000000000815260040160405180910390fd5b60018560000160006101000a81548167ffffffffffffffff021916908367ffffffffffffffff160217905550831561106b5760018560000160086101000a81548160ff0219169083151502179055505b61107486611ff5565b6110e86040518060400160405280601781526020017f76654d65746973526564656d7074696f6e5469636b65740000000000000000008152506040518060400160405280601981526020017f76654d6574697320526564656d7074696f6e205469636b657400000000000000815250612050565b60008054906101000a900473ffffffffffffffffffffffffffffffffffffffff1673ffffffffffffffffffffffffffffffffffffffff1663e59745546040518163ffffffff1660e01b8152600401602060405180830381865afa158015611153573d6000803e3d6000fd5b505050506040513d601f19601f820116820180604052508101906111779190613524565b602460006101000a81548173ffffffffffffffffffffffffffffffffffffffff021916908373ffffffffffffffffffffffffffffffffffffffff16021790555060008054906101000a900473ffffffffffffffffffffffffffffffffffffffff1673ffffffffffffffffffffffffffffffffffffffff1663475785c76040518163ffffffff1660e01b8152600401602060405180830381865afa158015611222573d6000803e3d6000fd5b505050506040513d601f19601f820116820180604052508101906112469190613524565b602360006101000a81548173ffffffffffffffffffffffffffffffffffffffff021916908373ffffffffffffffffffffffffffffffffffffffff16021790555083156112e25760008560000160086101000a81548160ff0219169083151502179055507fc7f505b2f371ae2175ee4913f4499e1f2633a7b5936321eed1cdaeb6115181d260016040516112d991906136f6565b60405180910390a15b505050505050565b60606112f5826116ba565b506000611300612066565b90506000815111611320576040518060200160405280600081525061134b565b8061132a8461207d565b60405160200161133b92919061374d565b6040516020818303038152906040525b915050919050565b61135b611b52565b600073ffffffffffffffffffffffffffffffffffffffff168173ffffffffffffffffffffffffffffffffffffffff16036113ca576040517f08c379a00000000000000000000000000000000000000000000000000000000081526004016113c19061362f565b60405180910390fd5b60006113d58361214b565b9050611428828260400151602460009054906101000a900473ffffffffffffffffffffffffffffffffffffffff1673ffffffffffffffffffffffffffffffffffffffff166122e59092919063ffffffff16565b8173ffffffffffffffffffffffffffffffffffffffff163373ffffffffffffffffffffffffffffffffffffffff16847fc312b60e0b1e485858423488ec2182dbabb13ee34276e4eb3b48b655f6f4d573846040015160405161148a9190613083565b60405180910390a45061149b611e03565b5050565b60025481565b670de0b6b3a764000081565b620f424081565b6000806114c3611692565b90508060050160008573ffffffffffffffffffffffffffffffffffffffff1673ffffffffffffffffffffffffffffffffffffffff16815260200190815260200160002060008473ffffffffffffffffffffffffffffffffffffffff1673ffffffffffffffffffffffffffffffffffffffff16815260200190815260200160002060009054906101000a900460ff1691505092915050565b602460009054906101000a900473ffffffffffffffffffffffffffffffffffffffff1681565b7ff66846415d2bf9eabda9e84793ff9c0ea96d87f50fc41e66aa16469c6a442f0581565b6115ac612bc0565b602260008381526020019081526020016000206040518060600160405290816000820160009054906101000a900460ff161515151581526020016000820160019054906101000a900467ffffffffffffffff1667ffffffffffffffff1667ffffffffffffffff1681526020016001820154815250509050919050565b60007f01ffc9a7000000000000000000000000000000000000000000000000000000007bffffffffffffffffffffffffffffffffffffffffffffffffffffffff1916827bffffffffffffffffffffffffffffffffffffffffffffffffffffffff1916149050919050565b60007f80bb2b638cc20bc4d0a60d66940f3ab4a00c1d7b313497ca82fb0b4ab0079300905090565b6000806116c683612364565b9050600073ffffffffffffffffffffffffffffffffffffffff168173ffffffffffffffffffffffffffffffffffffffff160361173957826040517f7e2732890000000000000000000000000000000000000000000000000000000081526004016117309190613083565b60405180910390fd5b80915050919050565b60008061174d611692565b905080600401600084815260200190815260200160002060009054906101000a900473ffffffffffffffffffffffffffffffffffffffff16915050919050565b600033905090565b6117a283838360016123af565b505050565b6000806117b2611692565b905060006117bf85612364565b9050600073ffffffffffffffffffffffffffffffffffffffff168473ffffffffffffffffffffffffffffffffffffffff161461180157611800818587612583565b5b600073ffffffffffffffffffffffffffffffffffffffff168173ffffffffffffffffffffffffffffffffffffffff1614611894576118436000866000806123af565b60018260030160008373ffffffffffffffffffffffffffffffffffffffff1673ffffffffffffffffffffffffffffffffffffffff168152602001908152602001600020600082825403925050819055505b600073ffffffffffffffffffffffffffffffffffffffff168673ffffffffffffffffffffffffffffffffffffffff16146119195760018260030160008873ffffffffffffffffffffffffffffffffffffffff1673ffffffffffffffffffffffffffffffffffffffff168152602001908152602001600020600082825401925050819055505b8582600201600087815260200190815260200160002060006101000a81548173ffffffffffffffffffffffffffffffffffffffff021916908373ffffffffffffffffffffffffffffffffffffffff160217905550848673ffffffffffffffffffffffffffffffffffffffff168273ffffffffffffffffffffffffffffffffffffffff167fddf252ad1be2c89b69c2b068fc378daa952ba7f163c4a11628f55a4df523b3ef60405160405180910390a480925050509392505050565b60006119de611692565b9050600073ffffffffffffffffffffffffffffffffffffffff168373ffffffffffffffffffffffffffffffffffffffff1603611a5157826040517f5b08ba18000000000000000000000000000000000000000000000000000000008152600401611a489190612e7e565b60405180910390fd5b818160050160008673ffffffffffffffffffffffffffffffffffffffff1673ffffffffffffffffffffffffffffffffffffffff16815260200190815260200160002060008573ffffffffffffffffffffffffffffffffffffffff1673ffffffffffffffffffffffffffffffffffffffff16815260200190815260200160002060006101000a81548160ff0219169083151502179055508273ffffffffffffffffffffffffffffffffffffffff168473ffffffffffffffffffffffffffffffffffffffff167f17307eab39ab6107e8899845ad3d59bd9653f200f220920489ca2b5937696c3184604051611b449190612d1e565b60405180910390a350505050565b6000611b5c612647565b90506002816000015403611b9c576040517f3ee5aeb500000000000000000000000000000000000000000000000000000000815260040160405180910390fd5b6002816000018190555050565b60008060008054906101000a900473ffffffffffffffffffffffffffffffffffffffff1673ffffffffffffffffffffffffffffffffffffffff16632d76710b6040518163ffffffff1660e01b8152600401602060405180830381865afa158015611c17573d6000803e3d6000fd5b505050506040513d601f19601f82011682018060405250810190611c3b919061379d565b42611c4691906137f9565b905060405180606001604052806000151581526020018267ffffffffffffffff1681526020018481525060226000602160009054906101000a900467ffffffffffffffff1667ffffffffffffffff16815260200190815260200160002060008201518160000160006101000a81548160ff02191690831515021790555060208201518160000160016101000a81548167ffffffffffffffff021916908367ffffffffffffffff16021790555060408201518160010155905050611d2984602160009054906101000a900467ffffffffffffffff1667ffffffffffffffff1661266f565b602160009054906101000a900467ffffffffffffffff1667ffffffffffffffff1691508373ffffffffffffffffffffffffffffffffffffffff163373ffffffffffffffffffffffffffffffffffffffff16837fc0d0e4dc9b213313c7ee4b0ef42d8c64029a48a77f2e72cf58595683a90ec5fb8685604051611dac929190613866565b60405180910390a46021600081819054906101000a900467ffffffffffffffff16611dd69061388f565b91906101000a81548167ffffffffffffffff021916908367ffffffffffffffff1602179055505092915050565b6000611e0d612647565b90506001816000018190555050565b60008373ffffffffffffffffffffffffffffffffffffffff163b1115611fc6578273ffffffffffffffffffffffffffffffffffffffff1663150b7a02868685856040518563ffffffff1660e01b8152600401611e7b9493929190613914565b6020604051808303816000875af1925050508015611eb757506040513d601f19601f82011682018060405250810190611eb49190613975565b60015b611f3b573d8060008114611ee7576040519150601f19603f3d011682016040523d82523d6000602084013e611eec565b606091505b506000815103611f3357836040517f64a0ae92000000000000000000000000000000000000000000000000000000008152600401611f2a9190612e7e565b60405180910390fd5b805181602001fd5b63150b7a0260e01b7bffffffffffffffffffffffffffffffffffffffffffffffffffffffff1916817bffffffffffffffffffffffffffffffffffffffffffffffffffffffff191614611fc457836040517f64a0ae92000000000000000000000000000000000000000000000000000000008152600401611fbb9190612e7e565b60405180910390fd5b505b5050505050565b60007ff0c57e16840df040f15088dc2f81fe391c3923bec73e23a9662efc9c229c6a00905090565b611ffd61268d565b806000806101000a81548173ffffffffffffffffffffffffffffffffffffffff021916908373ffffffffffffffffffffffffffffffffffffffff1602179055506120456126cd565b61204d6126df565b50565b61205861268d565b61206282826126e9565b5050565b606060405180602001604052806000815250905090565b60606000600161208c84612726565b01905060008167ffffffffffffffff8111156120ab576120aa613184565b5b6040519080825280601f01601f1916602001820160405280156120dd5781602001600182028036833780820191505090505b509050600082602001820190505b600115612140578080600190039150507f3031323334353637383961626364656600000000000000000000000000000000600a86061a8153600a8581612134576121336139a2565b5b049450600085036120eb575b819350505050919050565b612153612bc0565b61216661215f83610b28565b3384612879565b61219c576040517fe816274400000000000000000000000000000000000000000000000000000000815260040160405180910390fd5b602260008381526020019081526020016000206040518060600160405290816000820160009054906101000a900460ff161515151581526020016000820160019054906101000a900467ffffffffffffffff1667ffffffffffffffff1667ffffffffffffffff168152602001600182015481525050905080600001511561224f576040517f1b4e0c3c00000000000000000000000000000000000000000000000000000000815260040160405180910390fd5b806020015167ffffffffffffffff164210156122a8574281602001516040517f375394cb00000000000000000000000000000000000000000000000000000000815260040161229f9291906139d1565b60405180910390fd5b6122b18261293a565b60016022600084815260200190815260200160002060000160006101000a81548160ff021916908315150217905550919050565b61235f838473ffffffffffffffffffffffffffffffffffffffff1663a9059cbb85856040516024016123189291906139fa565b604051602081830303815290604052915060e01b6020820180517bffffffffffffffffffffffffffffffffffffffffffffffffffffffff83818316178352505050506129c0565b505050565b60008061236f611692565b905080600201600084815260200190815260200160002060009054906101000a900473ffffffffffffffffffffffffffffffffffffffff16915050919050565b60006123b9611692565b905081806123f45750600073ffffffffffffffffffffffffffffffffffffffff168373ffffffffffffffffffffffffffffffffffffffff1614155b15612528576000612404856116ba565b9050600073ffffffffffffffffffffffffffffffffffffffff168473ffffffffffffffffffffffffffffffffffffffff161415801561246f57508373ffffffffffffffffffffffffffffffffffffffff168173ffffffffffffffffffffffffffffffffffffffff1614155b8015612482575061248081856114b8565b155b156124c457836040517fa9fbf51f0000000000000000000000000000000000000000000000000000000081526004016124bb9190612e7e565b60405180910390fd5b821561252657848673ffffffffffffffffffffffffffffffffffffffff168273ffffffffffffffffffffffffffffffffffffffff167f8c5be1e5ebec7d5bd14f71427d1e84f3dd0314c0f7b2291e5b200ac8c7c3b92560405160405180910390a45b505b8481600401600086815260200190815260200160002060006101000a81548173ffffffffffffffffffffffffffffffffffffffff021916908373ffffffffffffffffffffffffffffffffffffffff1602179055505050505050565b61258e838383612879565b61264257600073ffffffffffffffffffffffffffffffffffffffff168373ffffffffffffffffffffffffffffffffffffffff160361260357806040517f7e2732890000000000000000000000000000000000000000000000000000000081526004016125fa9190613083565b60405180910390fd5b81816040517f177e802f0000000000000000000000000000000000000000000000000000000081526004016126399291906139fa565b60405180910390fd5b505050565b60007f9b779b17422d0df92223018b32b4d1fa46e071723d6817e2486d003becc55f00905090565b612689828260405180602001604052806000815250612a62565b5050565b612695612a86565b6126cb576040517fd7e6bcf800000000000000000000000000000000000000000000000000000000815260040160405180910390fd5b565b6126d561268d565b6126dd612aa6565b565b6126e761268d565b565b6126f161268d565b60006126fb611692565b90508281600001908161270e9190613bc5565b50818160010190816127209190613bc5565b50505050565b600080600090507a184f03e93ff9f4daa797ed6e38ed64bf6a1f0100000000000000008310612784577a184f03e93ff9f4daa797ed6e38ed64bf6a1f010000000000000000838161277a576127796139a2565b5b0492506040810190505b6d04ee2d6d415b85acef810000000083106127c1576d04ee2d6d415b85acef810000000083816127b7576127b66139a2565b5b0492506020810190505b662386f26fc1000083106127f057662386f26fc1000083816127e6576127e56139a2565b5b0492506010810190505b6305f5e1008310612819576305f5e100838161280f5761280e6139a2565b5b0492506008810190505b612710831061283e576127108381612834576128336139a2565b5b0492506004810190505b606483106128615760648381612857576128566139a2565b5b0492506002810190505b600a8310612870576001810190505b80915050919050565b60008073ffffffffffffffffffffffffffffffffffffffff168373ffffffffffffffffffffffffffffffffffffffff161415801561293157508273ffffffffffffffffffffffffffffffffffffffff168473ffffffffffffffffffffffffffffffffffffffff1614806128f257506128f184846114b8565b5b8061293057508273ffffffffffffffffffffffffffffffffffffffff1661291883611742565b73ffffffffffffffffffffffffffffffffffffffff16145b5b90509392505050565b600061294960008360006117a7565b9050600073ffffffffffffffffffffffffffffffffffffffff168173ffffffffffffffffffffffffffffffffffffffff16036129bc57816040517f7e2732890000000000000000000000000000000000000000000000000000000081526004016129b39190613083565b60405180910390fd5b5050565b600080602060008451602086016000885af1806129e3576040513d6000823e3d81fd5b3d9250600051915050600082146129fe576001811415612a1a565b60008473ffffffffffffffffffffffffffffffffffffffff163b145b15612a5c57836040517f5274afe7000000000000000000000000000000000000000000000000000000008152600401612a539190612e7e565b60405180910390fd5b50505050565b612a6c8383612ac7565b612a81612a7761178d565b6000858585611e1c565b505050565b6000612a90611fcd565b60000160089054906101000a900460ff16905090565b612aae61268d565b6000612ab8612647565b90506001816000018190555050565b600073ffffffffffffffffffffffffffffffffffffffff168273ffffffffffffffffffffffffffffffffffffffff1603612b395760006040517f64a0ae92000000000000000000000000000000000000000000000000000000008152600401612b309190612e7e565b60405180910390fd5b6000612b47838360006117a7565b9050600073ffffffffffffffffffffffffffffffffffffffff168173ffffffffffffffffffffffffffffffffffffffff1614612bbb5760006040517f73c6ac6e000000000000000000000000000000000000000000000000000000008152600401612bb29190612e7e565b60405180910390fd5b505050565b6040518060600160405280600015158152602001600067ffffffffffffffff168152602001600081525090565b600082825260208201905092915050565b7f426173653a206e6f7420737570706f7274204d65746973207472616e73666572600082015250565b6000612c34602083612bed565b9150612c3f82612bfe565b602082019050919050565b60006020820190508181036000830152612c6381612c27565b9050919050565b6000604051905090565b600080fd5b600080fd5b60007fffffffff0000000000000000000000000000000000000000000000000000000082169050919050565b612cb381612c7e565b8114612cbe57600080fd5b50565b600081359050612cd081612caa565b92915050565b600060208284031215612cec57612ceb612c74565b5b6000612cfa84828501612cc1565b91505092915050565b60008115159050919050565b612d1881612d03565b82525050565b6000602082019050612d336000830184612d0f565b92915050565b600081519050919050565b60005b83811015612d62578082015181840152602081019050612d47565b60008484015250505050565b6000601f19601f8301169050919050565b6000612d8a82612d39565b612d948185612bed565b9350612da4818560208601612d44565b612dad81612d6e565b840191505092915050565b60006020820190508181036000830152612dd28184612d7f565b905092915050565b6000819050919050565b612ded81612dda565b8114612df857600080fd5b50565b600081359050612e0a81612de4565b92915050565b600060208284031215612e2657612e25612c74565b5b6000612e3484828501612dfb565b91505092915050565b600073ffffffffffffffffffffffffffffffffffffffff82169050919050565b6000612e6882612e3d565b9050919050565b612e7881612e5d565b82525050565b6000602082019050612e936000830184612e6f565b92915050565b612ea281612e5d565b8114612ead57600080fd5b50565b600081359050612ebf81612e99565b92915050565b60008060408385031215612edc57612edb612c74565b5b6000612eea85828601612eb0565b9250506020612efb85828601612dfb565b9150509250929050565b600067ffffffffffffffff82169050919050565b612f2281612f05565b82525050565b612f3181612dda565b82525050565b6000606082019050612f4c6000830186612d0f565b612f596020830185612f19565b612f666040830184612f28565b949350505050565b600080600060608486031215612f8757612f86612c74565b5b6000612f9586828701612eb0565b9350506020612fa686828701612eb0565b9250506040612fb786828701612dfb565b9150509250925092565b6000819050919050565b6000612fe6612fe1612fdc84612e3d565b612fc1565b612e3d565b9050919050565b6000612ff882612fcb565b9050919050565b600061300a82612fed565b9050919050565b61301a81612fff565b82525050565b60006020820190506130356000830184613011565b92915050565b60006020820190506130506000830184612f19565b92915050565b60006020828403121561306c5761306b612c74565b5b600061307a84828501612eb0565b91505092915050565b60006020820190506130986000830184612f28565b92915050565b6000819050919050565b6130b18161309e565b82525050565b60006020820190506130cc60008301846130a8565b92915050565b60006130dd82612fed565b9050919050565b6130ed816130d2565b82525050565b600060208201905061310860008301846130e4565b92915050565b61311781612d03565b811461312257600080fd5b50565b6000813590506131348161310e565b92915050565b6000806040838503121561315157613150612c74565b5b600061315f85828601612eb0565b925050602061317085828601613125565b9150509250929050565b600080fd5b600080fd5b7f4e487b7100000000000000000000000000000000000000000000000000000000600052604160045260246000fd5b6131bc82612d6e565b810181811067ffffffffffffffff821117156131db576131da613184565b5b80604052505050565b60006131ee612c6a565b90506131fa82826131b3565b919050565b600067ffffffffffffffff82111561321a57613219613184565b5b61322382612d6e565b9050602081019050919050565b82818337600083830152505050565b600061325261324d846131ff565b6131e4565b90508281526020810184848401111561326e5761326d61317f565b5b613279848285613230565b509392505050565b600082601f8301126132965761329561317a565b5b81356132a684826020860161323f565b91505092915050565b600080600080608085870312156132c9576132c8612c74565b5b60006132d787828801612eb0565b94505060206132e887828801612eb0565b93505060406132f987828801612dfb565b925050606085013567ffffffffffffffff81111561331a57613319612c79565b5b61332687828801613281565b91505092959194509250565b6000806040838503121561334957613348612c74565b5b600061335785828601612dfb565b925050602061336885828601612eb0565b9150509250929050565b6000806040838503121561338957613388612c74565b5b600061339785828601612eb0565b92505060206133a885828601612eb0565b9150509250929050565b60006133bd82612fed565b9050919050565b6133cd816133b2565b82525050565b60006020820190506133e860008301846133c4565b92915050565b6133f781612d03565b82525050565b61340681612f05565b82525050565b61341581612dda565b82525050565b60608201600082015161343160008501826133ee565b50602082015161344460208501826133fd565b506040820151613457604085018261340c565b50505050565b6000606082019050613472600083018461341b565b92915050565b7f4e487b7100000000000000000000000000000000000000000000000000000000600052602260045260246000fd5b600060028204905060018216806134bf57607f821691505b6020821081036134d2576134d1613478565b5b50919050565b60006060820190506134ed6000830186612e6f565b6134fa6020830185612f28565b6135076040830184612e6f565b949350505050565b60008151905061351e81612e99565b92915050565b60006020828403121561353a57613539612c74565b5b60006135488482850161350f565b91505092915050565b7f526564656d7074696f6e51756575653a2063616c6c6572206973206e6f74205660008201527f656c69785661756c740000000000000000000000000000000000000000000000602082015250565b60006135ad602983612bed565b91506135b882613551565b604082019050919050565b600060208201905081810360008301526135dc816135a0565b9050919050565b7f526564656d7074696f6e51756575653a207a65726f2061646472657373000000600082015250565b6000613619601d83612bed565b9150613624826135e3565b602082019050919050565b600060208201905081810360008301526136488161360c565b9050919050565b7f526564656d7074696f6e51756575653a20616d6f756e74206973207a65726f00600082015250565b6000613685601f83612bed565b91506136908261364f565b602082019050919050565b600060208201905081810360008301526136b481613678565b9050919050565b6000819050919050565b60006136e06136db6136d6846136bb565b612fc1565b612f05565b9050919050565b6136f0816136c5565b82525050565b600060208201905061370b60008301846136e7565b92915050565b600081905092915050565b600061372782612d39565b6137318185613711565b9350613741818560208601612d44565b80840191505092915050565b6000613759828561371c565b9150613765828461371c565b91508190509392505050565b61377a81612f05565b811461378557600080fd5b50565b60008151905061379781613771565b92915050565b6000602082840312156137b3576137b2612c74565b5b60006137c184828501613788565b91505092915050565b7f4e487b7100000000000000000000000000000000000000000000000000000000600052601160045260246000fd5b600061380482612f05565b915061380f83612f05565b9250828201905067ffffffffffffffff81111561382f5761382e6137ca565b5b92915050565b600061385061384b61384684612f05565b612fc1565b612dda565b9050919050565b61386081613835565b82525050565b600060408201905061387b6000830185612f28565b6138886020830184613857565b9392505050565b600061389a82612f05565b915067ffffffffffffffff82036138b4576138b36137ca565b5b600182019050919050565b600081519050919050565b600082825260208201905092915050565b60006138e6826138bf565b6138f081856138ca565b9350613900818560208601612d44565b61390981612d6e565b840191505092915050565b60006080820190506139296000830187612e6f565b6139366020830186612e6f565b6139436040830185612f28565b818103606083015261395581846138db565b905095945050505050565b60008151905061396f81612caa565b92915050565b60006020828403121561398b5761398a612c74565b5b600061399984828501613960565b91505092915050565b7f4e487b7100000000000000000000000000000000000000000000000000000000600052601260045260246000fd5b60006040820190506139e66000830185612f28565b6139f36020830184612f19565b9392505050565b6000604082019050613a0f6000830185612e6f565b613a1c6020830184612f28565b9392505050565b60008190508160005260206000209050919050565b60006020601f8301049050919050565b600082821b905092915050565b600060088302613a857fffffffffffffffffffffffffffffffffffffffffffffffffffffffffffffffff82613a48565b613a8f8683613a48565b95508019841693508086168417925050509392505050565b6000613ac2613abd613ab884612dda565b612fc1565b612dda565b9050919050565b6000819050919050565b613adc83613aa7565b613af0613ae882613ac9565b848454613a55565b825550505050565b600090565b613b05613af8565b613b10818484613ad3565b505050565b5b81811015613b3457613b29600082613afd565b600181019050613b16565b5050565b601f821115613b7957613b4a81613a23565b613b5384613a38565b81016020851015613b62578190505b613b76613b6e85613a38565b830182613b15565b50505b505050565b600082821c905092915050565b6000613b9c60001984600802613b7e565b1980831691505092915050565b6000613bb58383613b8b565b9150826002028217905092915050565b613bce82612d39565b67ffffffffffffffff811115613be757613be6613184565b5b613bf182546134a7565b613bfc828285613b38565b600060209050601f831160018114613c2f5760008415613c1d578287015190505b613c278582613ba9565b865550613c8f565b601f198416613c3d86613a23565b60005b82811015613c6557848901518255600182019150602085019450602081019050613c40565b86831015613c825784890151613c7e601f891682613b8b565b8355505b6001600288020188555050505b50505050505056fea264697066735822122005e60fdcab89d1e1ef6c9827601843f59b9077f39b9b4883117c40c0e0c5e36e64736f6c63430008140033",
  "devdoc": {
    "errors": {
      "ERC721IncorrectOwner(address,uint256,address)": [
        {
          "details": "Indicates an error related to the ownership over a particular token. Used in transfers.",
          "params": {
            "owner": "Address of the current owner of a token.",
            "sender": "Address whose tokens are being transferred.",
            "tokenId": "Identifier number of a token."
          }
        }
      ],
      "ERC721InsufficientApproval(address,uint256)": [
        {
          "details": "Indicates a failure with the `operator`s approval. Used in transfers.",
          "params": {
            "operator": "Address that may be allowed to operate on tokens without being their owner.",
            "tokenId": "Identifier number of a token."
          }
        }
      ],
      "ERC721InvalidApprover(address)": [
        {
          "details": "Indicates a failure with the `approver` of a token to be approved. Used in approvals.",
          "params": {
            "approver": "Address initiating an approval operation."
          }
        }
      ],
      "ERC721InvalidOperator(address)": [
        {
          "details": "Indicates a failure with the `operator` to be approved. Used in approvals.",
          "params": {
            "operator": "Address that may be allowed to operate on tokens without being their owner."
          }
        }
      ],
      "ERC721InvalidOwner(address)": [
        {
          "details": "Indicates that an address can't be an owner. For example, `address(0)` is a forbidden owner in ERC-20. Used in balance queries.",
          "params": {
            "owner": "Address of the current owner of a token."
          }
        }
      ],
      "ERC721InvalidReceiver(address)": [
        {
          "details": "Indicates a failure with the token `receiver`. Used in transfers.",
          "params": {
            "receiver": "Address to which tokens are being transferred."
          }
        }
      ],
      "ERC721InvalidSender(address)": [
        {
          "details": "Indicates a failure with the token `sender`. Used in transfers.",
          "params": {
            "sender": "Address whose tokens are being transferred."
          }
        }
      ],
      "ERC721NonexistentToken(uint256)": [
        {
          "details": "Indicates a `tokenId` whose `owner` is the zero address.",
          "params": {
            "tokenId": "Identifier number of a token."
          }
        }
      ],
      "InvalidInitialization()": [
        {
          "details": "The contract is already initialized."
        }
      ],
      "NotInitializing()": [
        {
          "details": "The contract is not initializing."
        }
      ],
      "NotMatureYet(uint256,uint64)": [
        {
          "params": {
            "currentTime": "Current time.",
            "maturity": "Time of maturity"
          }
        }
      ],
      "ReentrancyGuardReentrantCall()": [
        {
          "details": "Unauthorized reentrant call."
        }
      ],
      "SafeERC20FailedOperation(address)": [
        {
          "details": "An operation with an ERC-20 token failed."
        }
      ]
    },
    "events": {
      "Approval(address,address,uint256)": {
        "details": "Emitted when `owner` enables `approved` to manage the `tokenId` token."
      },
      "ApprovalForAll(address,address,bool)": {
        "details": "Emitted when `owner` enables or disables (`approved`) `operator` to manage all of its assets."
      },
      "Initialized(uint64)": {
        "details": "Triggered when the contract has been initialized or reinitialized."
      },
      "Transfer(address,address,uint256)": {
        "details": "Emitted when `tokenId` token is transferred from `from` to `to`."
      }
    },
    "kind": "dev",
    "methods": {
      "approve(address,uint256)": {
        "details": "See {IERC721-approve}."
      },
      "balanceOf(address)": {
        "details": "See {IERC721-balanceOf}."
      },
      "enterRedemptionQueue(address,uint256)": {
        "details": "Must call approve/permit on veMetis contract prior to this call",
        "params": {
          "_amountToRedeem": "Amount of veMetis to redeem",
          "_nftId": "The ID of the veMetisRedemptionTicket NFT",
          "_recipient": "Recipient of the NFT. Must be ERC721 compatible if a contract"
        }
      },
      "getApproved(uint256)": {
        "details": "See {IERC721-getApproved}."
      },
      "isApprovedForAll(address,address)": {
        "details": "See {IERC721-isApprovedForAll}."
      },
      "name()": {
        "details": "See {IERC721Metadata-name}."
      },
      "ownerOf(uint256)": {
        "details": "See {IERC721-ownerOf}."
      },
      "redeemRedemptionTicketNft(uint256,address)": {
        "params": {
          "_nftId": "The ID of the NFT",
          "_recipient": "The recipient of the redeemed Metis"
        }
      },
      "safeTransferFrom(address,address,uint256)": {
        "details": "See {IERC721-safeTransferFrom}."
      },
      "safeTransferFrom(address,address,uint256,bytes)": {
        "details": "See {IERC721-safeTransferFrom}."
      },
      "setApprovalForAll(address,bool)": {
        "details": "See {IERC721-setApprovalForAll}."
      },
      "supportsInterface(bytes4)": {
        "details": "See {IERC165-supportsInterface}."
      },
      "symbol()": {
        "details": "See {IERC721Metadata-symbol}."
      },
      "tokenURI(uint256)": {
        "details": "See {IERC721Metadata-tokenURI}."
      },
      "transferFrom(address,address,uint256)": {
        "details": "See {IERC721-transferFrom}."
      }
    },
    "title": "RedemptionQueue",
    "version": 1
  },
  "userdoc": {
    "errors": {
      "AlreadyRedeemed()": [
        {
          "notice": "already redeemed"
        }
      ],
      "Erc721CallerNotOwnerOrApproved()": [
        {
          "notice": "ERC721: caller is not token owner or approved"
        }
      ],
      "NotMatureYet(uint256,uint64)": [
        {
          "notice": "NFT is not mature enough to redeem yet"
        }
      ]
    },
    "kind": "user",
    "methods": {
      "ADMIN_ROLE()": {
        "notice": "The role for the admin"
      },
      "BACKEND_ROLE()": {
        "notice": "The role for the backend"
      },
      "DEFAULT_ADMIN_ROLE()": {
        "notice": "The default admin role"
      },
      "FEE_PRECISION()": {
        "notice": "The precision of the fee"
      },
      "INITIAL_DEPOSIT_AMOUNT()": {
        "notice": "sveMetis vault initial deposit amount"
      },
      "TIMELOCK_ROLE()": {
        "notice": "The role for the tmelock"
      },
      "config()": {
        "notice": "holds the address of the config contract"
      },
      "enterRedemptionQueue(address,uint256)": {
        "notice": "Enter the queue for redeeming veMetis 1-to-1. Must approve or permit first.Will generate a veMetisRedemptionTicket NFT that can be redeemed for the actual Metis later."
      },
      "nftInformation(uint256)": {
        "notice": "Information about a user's redemption ticket NFT"
      },
      "redeemRedemptionTicketNft(uint256,address)": {
        "notice": "Redeems a veMetisRedemptionTicket NFT for Metis. Must have reached the maturity date first."
      }
    },
    "notice": "RedemptionQueue is the contract that manages the redemption queue for veMetis",
    "version": 1
  },
  "storageLayout": {
    "storage": [
      {
        "astId": 8305,
        "contract": "contracts/RedemptionQueue.sol:RedemptionQueue",
        "label": "config",
        "offset": 0,
        "slot": "0",
        "type": "t_contract(IConfig)10175"
      },
      {
        "astId": 8307,
        "contract": "contracts/RedemptionQueue.sol:RedemptionQueue",
        "label": "internalCalling",
        "offset": 0,
        "slot": "1",
        "type": "t_address"
      },
      {
        "astId": 8309,
        "contract": "contracts/RedemptionQueue.sol:RedemptionQueue",
        "label": "_totalAssets",
        "offset": 0,
        "slot": "2",
        "type": "t_uint256"
      },
      {
        "astId": 8449,
        "contract": "contracts/RedemptionQueue.sol:RedemptionQueue",
        "label": "__gap",
        "offset": 0,
        "slot": "3",
        "type": "t_array(t_uint256)30_storage"
      },
      {
        "astId": 9287,
        "contract": "contracts/RedemptionQueue.sol:RedemptionQueue",
        "label": "nextNftId",
        "offset": 0,
        "slot": "33",
        "type": "t_uint64"
      },
      {
        "astId": 9293,
        "contract": "contracts/RedemptionQueue.sol:RedemptionQueue",
        "label": "nftInformation",
        "offset": 0,
        "slot": "34",
        "type": "t_mapping(t_uint256,t_struct(RedemptionQueueItem)10348_storage)"
      },
      {
        "astId": 9296,
        "contract": "contracts/RedemptionQueue.sol:RedemptionQueue",
        "label": "velixVault",
        "offset": 0,
        "slot": "35",
        "type": "t_contract(IVelixVault)10447"
      },
      {
        "astId": 9299,
        "contract": "contracts/RedemptionQueue.sol:RedemptionQueue",
        "label": "METIS",
        "offset": 0,
        "slot": "36",
        "type": "t_contract(IERC20)3404"
      }
    ],
    "types": {
      "t_address": {
        "encoding": "inplace",
        "label": "address",
        "numberOfBytes": "20"
      },
      "t_array(t_uint256)30_storage": {
        "base": "t_uint256",
        "encoding": "inplace",
        "label": "uint256[30]",
        "numberOfBytes": "960"
      },
      "t_bool": {
        "encoding": "inplace",
        "label": "bool",
        "numberOfBytes": "1"
      },
      "t_contract(IConfig)10175": {
        "encoding": "inplace",
        "label": "contract IConfig",
        "numberOfBytes": "20"
      },
      "t_contract(IERC20)3404": {
        "encoding": "inplace",
        "label": "contract IERC20",
        "numberOfBytes": "20"
      },
      "t_contract(IVelixVault)10447": {
        "encoding": "inplace",
        "label": "contract IVelixVault",
        "numberOfBytes": "20"
      },
      "t_mapping(t_uint256,t_struct(RedemptionQueueItem)10348_storage)": {
        "encoding": "mapping",
        "key": "t_uint256",
        "label": "mapping(uint256 => struct IRedemptionQueue.RedemptionQueueItem)",
        "numberOfBytes": "32",
        "value": "t_struct(RedemptionQueueItem)10348_storage"
      },
      "t_struct(RedemptionQueueItem)10348_storage": {
        "encoding": "inplace",
        "label": "struct IRedemptionQueue.RedemptionQueueItem",
        "members": [
          {
            "astId": 10343,
            "contract": "contracts/RedemptionQueue.sol:RedemptionQueue",
            "label": "hasBeenRedeemed",
            "offset": 0,
            "slot": "0",
            "type": "t_bool"
          },
          {
            "astId": 10345,
            "contract": "contracts/RedemptionQueue.sol:RedemptionQueue",
            "label": "maturity",
            "offset": 1,
            "slot": "0",
            "type": "t_uint64"
          },
          {
            "astId": 10347,
            "contract": "contracts/RedemptionQueue.sol:RedemptionQueue",
            "label": "amount",
            "offset": 0,
            "slot": "1",
            "type": "t_uint256"
          }
        ],
        "numberOfBytes": "64"
      },
      "t_uint256": {
        "encoding": "inplace",
        "label": "uint256",
        "numberOfBytes": "32"
      },
      "t_uint64": {
        "encoding": "inplace",
        "label": "uint64",
        "numberOfBytes": "8"
      }
    }
  }
}