{
  "_format": "hh-sol-artifact-1",
  "contractName": "Config",
  "sourceName": "contracts/Config.sol",
  "abi": [
    {
      "inputs": [],
      "name": "InvalidInitialization",
      "type": "error"
    },
    {
      "inputs": [],
      "name": "NotInitializing",
      "type": "error"
    },
    {
      "inputs": [],
      "name": "ReentrancyGuardReentrantCall",
      "type": "error"
    },
    {
      "inputs": [
        {
          "internalType": "uint256",
          "name": "value",
          "type": "uint256"
        },
        {
          "internalType": "uint256",
          "name": "length",
          "type": "uint256"
        }
      ],
      "name": "StringsInsufficientHexLength",
      "type": "error"
    },
    {
      "anonymous": false,
      "inputs": [
        {
          "indexed": false,
          "internalType": "uint64",
          "name": "oldValue",
          "type": "uint64"
        },
        {
          "indexed": false,
          "internalType": "uint64",
          "name": "newValue",
          "type": "uint64"
        }
      ],
      "name": "CancelRedemptionFeeSet",
      "type": "event"
    },
    {
      "anonymous": false,
      "inputs": [
        {
          "indexed": false,
          "internalType": "uint64",
          "name": "version",
          "type": "uint64"
        }
      ],
      "name": "Initialized",
      "type": "event"
    },
    {
      "anonymous": false,
      "inputs": [
        {
          "indexed": false,
          "internalType": "uint64",
          "name": "oldValue",
          "type": "uint64"
        },
        {
          "indexed": false,
          "internalType": "uint64",
          "name": "newValue",
          "type": "uint64"
        }
      ],
      "name": "MinQueueLengthSecs",
      "type": "event"
    },
    {
      "anonymous": false,
      "inputs": [
        {
          "indexed": false,
          "internalType": "bool",
          "name": "oldValue",
          "type": "bool"
        },
        {
          "indexed": false,
          "internalType": "bool",
          "name": "newValue",
          "type": "bool"
        }
      ],
      "name": "PausedSet",
      "type": "event"
    },
    {
      "anonymous": false,
      "inputs": [
        {
          "indexed": false,
          "internalType": "uint64",
          "name": "oldValue",
          "type": "uint64"
        },
        {
          "indexed": false,
          "internalType": "uint64",
          "name": "newValue",
          "type": "uint64"
        }
      ],
      "name": "QueueLengthSecsSet",
      "type": "event"
    },
    {
      "anonymous": false,
      "inputs": [
        {
          "indexed": false,
          "internalType": "uint64",
          "name": "oldValue",
          "type": "uint64"
        },
        {
          "indexed": false,
          "internalType": "uint64",
          "name": "newValue",
          "type": "uint64"
        }
      ],
      "name": "RedemptionFeeSet",
      "type": "event"
    },
    {
      "anonymous": false,
      "inputs": [
        {
          "indexed": false,
          "internalType": "uint64",
          "name": "oldValue",
          "type": "uint64"
        },
        {
          "indexed": false,
          "internalType": "uint64",
          "name": "newValue",
          "type": "uint64"
        }
      ],
      "name": "ReduceMaturityStakeSecsSet",
      "type": "event"
    },
    {
      "anonymous": false,
      "inputs": [
        {
          "indexed": true,
          "internalType": "bytes32",
          "name": "role",
          "type": "bytes32"
        },
        {
          "indexed": true,
          "internalType": "bytes32",
          "name": "previousAdminRole",
          "type": "bytes32"
        },
        {
          "indexed": true,
          "internalType": "bytes32",
          "name": "newAdminRole",
          "type": "bytes32"
        }
      ],
      "name": "RoleAdminChanged",
      "type": "event"
    },
    {
      "anonymous": false,
      "inputs": [
        {
          "indexed": true,
          "internalType": "bytes32",
          "name": "role",
          "type": "bytes32"
        },
        {
          "indexed": true,
          "internalType": "address",
          "name": "account",
          "type": "address"
        },
        {
          "indexed": true,
          "internalType": "address",
          "name": "senderFini",
          "type": "address"
        }
      ],
      "name": "RoleGranted",
      "type": "event"
    },
    {
      "anonymous": false,
      "inputs": [
        {
          "indexed": true,
          "internalType": "bytes32",
          "name": "role",
          "type": "bytes32"
        },
        {
          "indexed": true,
          "internalType": "address",
          "name": "account",
          "type": "address"
        },
        {
          "indexed": true,
          "internalType": "address",
          "name": "sender",
          "type": "address"
        }
      ],
      "name": "RoleRevoked",
      "type": "event"
    },
    {
      "inputs": [],
      "name": "ADDRESS_BRIDGE",
      "outputs": [
        {
          "internalType": "uint256",
          "name": "",
          "type": "uint256"
        }
      ],
      "stateMutability": "view",
      "type": "function"
    },
    {
      "inputs": [],
      "name": "ADDRESS_L1_DEALER",
      "outputs": [
        {
          "internalType": "uint256",
          "name": "",
          "type": "uint256"
        }
      ],
      "stateMutability": "view",
      "type": "function"
    },
    {
      "inputs": [],
      "name": "ADDRESS_METIS",
      "outputs": [
        {
          "internalType": "uint256",
          "name": "",
          "type": "uint256"
        }
      ],
      "stateMutability": "view",
      "type": "function"
    },
    {
      "inputs": [],
      "name": "ADDRESS_PROTOCOL_TREASURY",
      "outputs": [
        {
          "internalType": "uint256",
          "name": "",
          "type": "uint256"
        }
      ],
      "stateMutability": "view",
      "type": "function"
    },
    {
      "inputs": [],
      "name": "ADDRESS_REDEMPTION_QUEUE",
      "outputs": [
        {
          "internalType": "uint256",
          "name": "",
          "type": "uint256"
        }
      ],
      "stateMutability": "view",
      "type": "function"
    },
    {
      "inputs": [],
      "name": "ADDRESS_REWARD_DISPATCHER",
      "outputs": [
        {
          "internalType": "uint256",
          "name": "",
          "type": "uint256"
        }
      ],
      "stateMutability": "view",
      "type": "function"
    },
    {
      "inputs": [],
      "name": "ADDRESS_SVEMETIS",
      "outputs": [
        {
          "internalType": "uint256",
          "name": "",
          "type": "uint256"
        }
      ],
      "stateMutability": "view",
      "type": "function"
    },
    {
      "inputs": [],
      "name": "ADDRESS_VEMETIS",
      "outputs": [
        {
          "internalType": "uint256",
          "name": "",
          "type": "uint256"
        }
      ],
      "stateMutability": "view",
      "type": "function"
    },
    {
      "inputs": [],
      "name": "ADDRESS_VEMETIS_MINTER",
      "outputs": [
        {
          "internalType": "uint256",
          "name": "",
          "type": "uint256"
        }
      ],
      "stateMutability": "view",
      "type": "function"
    },
    {
      "inputs": [],
      "name": "ADMIN_ROLE",
      "outputs": [
        {
          "internalType": "bytes32",
          "name": "",
          "type": "bytes32"
        }
      ],
      "stateMutability": "view",
      "type": "function"
    },
    {
      "inputs": [],
      "name": "BACKEND_ROLE",
      "outputs": [
        {
          "internalType": "bytes32",
          "name": "",
          "type": "bytes32"
        }
      ],
      "stateMutability": "view",
      "type": "function"
    },
    {
      "inputs": [],
      "name": "DEFAULT_ADMIN_ROLE",
      "outputs": [
        {
          "internalType": "bytes32",
          "name": "",
          "type": "bytes32"
        }
      ],
      "stateMutability": "view",
      "type": "function"
    },
    {
      "inputs": [],
      "name": "FEE_PRECISION",
      "outputs": [
        {
          "internalType": "uint64",
          "name": "",
          "type": "uint64"
        }
      ],
      "stateMutability": "view",
      "type": "function"
    },
    {
      "inputs": [],
      "name": "INITIAL_DEPOSIT_AMOUNT",
      "outputs": [
        {
          "internalType": "uint256",
          "name": "",
          "type": "uint256"
        }
      ],
      "stateMutability": "view",
      "type": "function"
    },
    {
      "inputs": [],
      "name": "TIMELOCK_ROLE",
      "outputs": [
        {
          "internalType": "bytes32",
          "name": "",
          "type": "bytes32"
        }
      ],
      "stateMutability": "view",
      "type": "function"
    },
    {
      "inputs": [],
      "name": "UINT32_PROTOCOL_TREASURY_RATIO",
      "outputs": [
        {
          "internalType": "uint256",
          "name": "",
          "type": "uint256"
        }
      ],
      "stateMutability": "view",
      "type": "function"
    },
    {
      "inputs": [],
      "name": "UINT64_CANCEL_REDEMPTION_FEE",
      "outputs": [
        {
          "internalType": "uint256",
          "name": "",
          "type": "uint256"
        }
      ],
      "stateMutability": "view",
      "type": "function"
    },
    {
      "inputs": [],
      "name": "UINT64_MIN_QUEUE_LENGTH_SECS",
      "outputs": [
        {
          "internalType": "uint256",
          "name": "",
          "type": "uint256"
        }
      ],
      "stateMutability": "view",
      "type": "function"
    },
    {
      "inputs": [],
      "name": "UINT64_QUEUE_LENGTH_SECS",
      "outputs": [
        {
          "internalType": "uint256",
          "name": "",
          "type": "uint256"
        }
      ],
      "stateMutability": "view",
      "type": "function"
    },
    {
      "inputs": [],
      "name": "UINT64_REDEMPTION_FEE",
      "outputs": [
        {
          "internalType": "uint256",
          "name": "",
          "type": "uint256"
        }
      ],
      "stateMutability": "view",
      "type": "function"
    },
    {
      "inputs": [],
      "name": "UINT64_REDUCE_MATURITY_STAKE_SECS",
      "outputs": [
        {
          "internalType": "uint256",
          "name": "",
          "type": "uint256"
        }
      ],
      "stateMutability": "view",
      "type": "function"
    },
    {
      "inputs": [
        {
          "internalType": "bytes32",
          "name": "",
          "type": "bytes32"
        }
      ],
      "name": "_roles",
      "outputs": [
        {
          "internalType": "bytes32",
          "name": "adminRole",
          "type": "bytes32"
        },
        {
          "internalType": "bool",
          "name": "allowAll",
          "type": "bool"
        }
      ],
      "stateMutability": "view",
      "type": "function"
    },
    {
      "inputs": [],
      "name": "bridge",
      "outputs": [
        {
          "internalType": "address",
          "name": "",
          "type": "address"
        }
      ],
      "stateMutability": "view",
      "type": "function"
    },
    {
      "inputs": [],
      "name": "cancelRedemptionFee",
      "outputs": [
        {
          "internalType": "uint64",
          "name": "",
          "type": "uint64"
        }
      ],
      "stateMutability": "view",
      "type": "function"
    },
    {
      "inputs": [],
      "name": "config",
      "outputs": [
        {
          "internalType": "contract IConfig",
          "name": "",
          "type": "address"
        }
      ],
      "stateMutability": "view",
      "type": "function"
    },
    {
      "inputs": [
        {
          "internalType": "uint256",
          "name": "",
          "type": "uint256"
        }
      ],
      "name": "configMap",
      "outputs": [
        {
          "internalType": "uint256",
          "name": "",
          "type": "uint256"
        }
      ],
      "stateMutability": "view",
      "type": "function"
    },
    {
      "inputs": [
        {
          "internalType": "bytes32",
          "name": "role",
          "type": "bytes32"
        }
      ],
      "name": "getRoleAdmin",
      "outputs": [
        {
          "internalType": "bytes32",
          "name": "",
          "type": "bytes32"
        }
      ],
      "stateMutability": "view",
      "type": "function"
    },
    {
      "inputs": [
        {
          "internalType": "bytes32",
          "name": "role",
          "type": "bytes32"
        },
        {
          "internalType": "address",
          "name": "account",
          "type": "address"
        }
      ],
      "name": "grantRole",
      "outputs": [],
      "stateMutability": "nonpayable",
      "type": "function"
    },
    {
      "inputs": [
        {
          "internalType": "bytes32",
          "name": "role",
          "type": "bytes32"
        },
        {
          "internalType": "address",
          "name": "account",
          "type": "address"
        }
      ],
      "name": "hasRole",
      "outputs": [
        {
          "internalType": "bool",
          "name": "",
          "type": "bool"
        }
      ],
      "stateMutability": "view",
      "type": "function"
    },
    {
      "inputs": [],
      "name": "initialize",
      "outputs": [],
      "stateMutability": "nonpayable",
      "type": "function"
    },
    {
      "inputs": [],
      "name": "l1Dealer",
      "outputs": [
        {
          "internalType": "address",
          "name": "",
          "type": "address"
        }
      ],
      "stateMutability": "view",
      "type": "function"
    },
    {
      "inputs": [],
      "name": "metis",
      "outputs": [
        {
          "internalType": "address",
          "name": "",
          "type": "address"
        }
      ],
      "stateMutability": "view",
      "type": "function"
    },
    {
      "inputs": [],
      "name": "minQueueLengthSecs",
      "outputs": [
        {
          "internalType": "uint64",
          "name": "",
          "type": "uint64"
        }
      ],
      "stateMutability": "view",
      "type": "function"
    },
    {
      "inputs": [],
      "name": "protocolTreasury",
      "outputs": [
        {
          "internalType": "address",
          "name": "",
          "type": "address"
        }
      ],
      "stateMutability": "view",
      "type": "function"
    },
    {
      "inputs": [],
      "name": "protocolTreasuryRatio",
      "outputs": [
        {
          "internalType": "uint32",
          "name": "",
          "type": "uint32"
        }
      ],
      "stateMutability": "view",
      "type": "function"
    },
    {
      "inputs": [],
      "name": "queueLengthSecs",
      "outputs": [
        {
          "internalType": "uint64",
          "name": "",
          "type": "uint64"
        }
      ],
      "stateMutability": "view",
      "type": "function"
    },
    {
      "inputs": [],
      "name": "redemptionFee",
      "outputs": [
        {
          "internalType": "uint64",
          "name": "",
          "type": "uint64"
        }
      ],
      "stateMutability": "view",
      "type": "function"
    },
    {
      "inputs": [],
      "name": "redemptionQueue",
      "outputs": [
        {
          "internalType": "address",
          "name": "",
          "type": "address"
        }
      ],
      "stateMutability": "view",
      "type": "function"
    },
    {
      "inputs": [],
      "name": "reduceMaturityStakeSecs",
      "outputs": [
        {
          "internalType": "uint64",
          "name": "",
          "type": "uint64"
        }
      ],
      "stateMutability": "view",
      "type": "function"
    },
    {
      "inputs": [
        {
          "internalType": "bytes32",
          "name": "role",
          "type": "bytes32"
        },
        {
          "internalType": "address",
          "name": "account",
          "type": "address"
        }
      ],
      "name": "renounceRole",
      "outputs": [],
      "stateMutability": "nonpayable",
      "type": "function"
    },
    {
      "inputs": [
        {
          "internalType": "bytes32",
          "name": "role",
          "type": "bytes32"
        },
        {
          "internalType": "address",
          "name": "account",
          "type": "address"
        }
      ],
      "name": "revokeRole",
      "outputs": [],
      "stateMutability": "nonpayable",
      "type": "function"
    },
    {
      "inputs": [],
      "name": "rewardDispatcher",
      "outputs": [
        {
          "internalType": "address",
          "name": "",
          "type": "address"
        }
      ],
      "stateMutability": "view",
      "type": "function"
    },
    {
      "inputs": [
        {
          "internalType": "uint64",
          "name": "_cancelRedemptionFee",
          "type": "uint64"
        }
      ],
      "name": "setCancelRedemptionFee",
      "outputs": [],
      "stateMutability": "nonpayable",
      "type": "function"
    },
    {
      "inputs": [
        {
          "internalType": "address",
          "name": "_metis",
          "type": "address"
        },
        {
          "internalType": "address",
          "name": "_bridge",
          "type": "address"
        },
        {
          "internalType": "address",
          "name": "_protocolTreasury",
          "type": "address"
        },
        {
          "internalType": "uint32",
          "name": "_protocolTreasuryRatio",
          "type": "uint32"
        }
      ],
      "name": "setIntialValues",
      "outputs": [],
      "stateMutability": "nonpayable",
      "type": "function"
    },
    {
      "inputs": [
        {
          "internalType": "address",
          "name": "_l1Dealer",
          "type": "address"
        }
      ],
      "name": "setL1Dealer",
      "outputs": [],
      "stateMutability": "nonpayable",
      "type": "function"
    },
    {
      "inputs": [
        {
          "internalType": "uint64",
          "name": "_minQueueLengthSecs",
          "type": "uint64"
        }
      ],
      "name": "setMinQueueLengthSecs",
      "outputs": [],
      "stateMutability": "nonpayable",
      "type": "function"
    },
    {
      "inputs": [
        {
          "internalType": "address",
          "name": "_protocolTreasury",
          "type": "address"
        }
      ],
      "name": "setProtocolTreasury",
      "outputs": [],
      "stateMutability": "nonpayable",
      "type": "function"
    },
    {
      "inputs": [
        {
          "internalType": "uint32",
          "name": "_protocolTreasuryRatio",
          "type": "uint32"
        }
      ],
      "name": "setProtocolTreasuryRatio",
      "outputs": [],
      "stateMutability": "nonpayable",
      "type": "function"
    },
    {
      "inputs": [
        {
          "internalType": "uint64",
          "name": "_queueLengthSecs",
          "type": "uint64"
        }
      ],
      "name": "setQueueLengthSecs",
      "outputs": [],
      "stateMutability": "nonpayable",
      "type": "function"
    },
    {
      "inputs": [
        {
          "internalType": "uint64",
          "name": "_redemptionFee",
          "type": "uint64"
        }
      ],
      "name": "setRedemptionFee",
      "outputs": [],
      "stateMutability": "nonpayable",
      "type": "function"
    },
    {
      "inputs": [
        {
          "internalType": "address",
          "name": "_redemptionQueueAddress",
          "type": "address"
        }
      ],
      "name": "setRedemptionQueue",
      "outputs": [],
      "stateMutability": "nonpayable",
      "type": "function"
    },
    {
      "inputs": [
        {
          "internalType": "uint64",
          "name": "_reduceMaturityStakeSecs",
          "type": "uint64"
        }
      ],
      "name": "setReduceMaturityStakeSecs",
      "outputs": [],
      "stateMutability": "nonpayable",
      "type": "function"
    },
    {
      "inputs": [
        {
          "internalType": "address",
          "name": "_rewardDispatcher",
          "type": "address"
        }
      ],
      "name": "setRewardDispatcher",
      "outputs": [],
      "stateMutability": "nonpayable",
      "type": "function"
    },
    {
      "inputs": [
        {
          "internalType": "bytes32",
          "name": "role",
          "type": "bytes32"
        },
        {
          "internalType": "bytes32",
          "name": "adminRole",
          "type": "bytes32"
        }
      ],
      "name": "setRoleAdmin",
      "outputs": [],
      "stateMutability": "nonpayable",
      "type": "function"
    },
    {
      "inputs": [
        {
          "internalType": "address",
          "name": "_sveMetis",
          "type": "address"
        }
      ],
      "name": "setSveMetis",
      "outputs": [],
      "stateMutability": "nonpayable",
      "type": "function"
    },
    {
      "inputs": [
        {
          "internalType": "address",
          "name": "_veMetis",
          "type": "address"
        }
      ],
      "name": "setVeMetis",
      "outputs": [],
      "stateMutability": "nonpayable",
      "type": "function"
    },
    {
      "inputs": [
        {
          "internalType": "address",
          "name": "_veMetisMinter",
          "type": "address"
        }
      ],
      "name": "setVeMetisMinterAddress",
      "outputs": [],
      "stateMutability": "nonpayable",
      "type": "function"
    },
    {
      "inputs": [],
      "name": "sveMetis",
      "outputs": [
        {
          "internalType": "address",
          "name": "",
          "type": "address"
        }
      ],
      "stateMutability": "view",
      "type": "function"
    },
    {
      "inputs": [],
      "name": "veMetis",
      "outputs": [
        {
          "internalType": "address",
          "name": "",
          "type": "address"
        }
      ],
      "stateMutability": "view",
      "type": "function"
    },
    {
      "inputs": [],
      "name": "veMetisMinter",
      "outputs": [
        {
          "internalType": "address",
          "name": "",
          "type": "address"
        }
      ],
      "stateMutability": "view",
      "type": "function"
    },
    {
      "stateMutability": "payable",
      "type": "receive"
    }
  ],
  "bytecode": "0x608060405234801561001057600080fd5b50614123806100206000396000f3fe60806040526004361061039b5760003560e01c80638b587b9c116101dc578063bbf12d5111610102578063de55db9d116100a0578063e78cea921161006f578063e78cea9214610d5b578063f288a2e214610d86578063f9aa973f14610db1578063fda42e2114610ddc576103db565b8063de55db9d14610cb1578063e52083c614610cda578063e597455414610d05578063e63a391f14610d30576103db565b8063cb9edeb1116100dc578063cb9edeb114610c09578063d27bc94a14610c34578063d547741f14610c5d578063d862e8d914610c86576103db565b8063bbf12d5114610b77578063bd99d7e114610ba0578063bf27726c14610bde576103db565b80639ac930221161017a578063a7d6181911610149578063a7d6181914610acb578063b749eff814610af6578063bad1e13914610b21578063bbadf42714610b4c576103db565b80639ac9302214610a21578063a217fddf14610a4a578063a219147014610a75578063a2be57ad14610aa0576103db565b806392c2becc116101b657806392c2becc146109755780639336ce80146109a057806397ec19be146109cb57806397fc7177146109f6576103db565b80638b587b9c146108e45780638d40bd351461090f57806391d1485414610938576103db565b806339ee2c3d116102c15780635c0298591161025f57806379502c551161022e57806379502c551461084c578063803db96d146108775780638129fc1c146108a257806388ef06be146108b9576103db565b80635c029859146107a057806371a1ea98146107cb57806372ef1540146107f657806375b238fc14610821576103db565b806343606f751161029b57806343606f75146106f6578063458f58151461071f5780634d19eaf11461074a57806350c4a8a214610775576103db565b806339ee2c3d146106775780633b4c46d0146106a25780633b8ad07f146106cb576103db565b806321951955116103395780632d76710b116103085780632d76710b146105d15780632f2ff15d146105fc57806336519ccc1461062557806336568abe1461064e576103db565b806321951955146105155780632405983114610540578063248a9ca31461056b5780632c59155a146105a8576103db565b80630e9429ba116103755780630e9429ba1461045b57806315cce613146104985780631c86aa35146104c15780631e4e0091146104ec576103db565b8063046bafdd146103e0578063093c4e21146104095780630c5a61f814610432576103db565b366103db576040517f08c379a00000000000000000000000000000000000000000000000000000000081526004016103d2906135c2565b60405180910390fd5b600080fd5b3480156103ec57600080fd5b5061040760048036038101906104029190613645565b610e05565b005b34801561041557600080fd5b50610430600480360381019061042b91906136b2565b610f2c565b005b34801561043e57600080fd5b5061045960048036038101906104549190613645565b6110bc565b005b34801561046757600080fd5b50610482600480360381019061047d9190613715565b611252565b60405161048f9190613751565b60405180910390f35b3480156104a457600080fd5b506104bf60048036038101906104ba91906136b2565b611269565b005b3480156104cd57600080fd5b506104d66113f9565b6040516104e3919061377b565b60405180910390f35b3480156104f857600080fd5b50610513600480360381019061050e91906137cc565b611437565b005b34801561052157600080fd5b5061052a611518565b604051610537919061381b565b60405180910390f35b34801561054c57600080fd5b50610555611556565b6040516105629190613751565b60405180910390f35b34801561057757600080fd5b50610592600480360381019061058d9190613836565b61157d565b60405161059f9190613872565b60405180910390f35b3480156105b457600080fd5b506105cf60048036038101906105ca9190613645565b61159d565b005b3480156105dd57600080fd5b506105e66116c4565b6040516105f3919061377b565b60405180910390f35b34801561060857600080fd5b50610623600480360381019061061e919061388d565b611702565b005b34801561063157600080fd5b5061064c600480360381019061064791906136b2565b6117e3565b005b34801561065a57600080fd5b506106756004803603810190610670919061388d565b611973565b005b34801561068357600080fd5b5061068c6119f6565b6040516106999190613751565b60405180910390f35b3480156106ae57600080fd5b506106c960048036038101906106c49190613645565b611a1d565b005b3480156106d757600080fd5b506106e0611b44565b6040516106ed9190613751565b60405180910390f35b34801561070257600080fd5b5061071d60048036038101906107189190613645565b611b6b565b005b34801561072b57600080fd5b50610734611c92565b604051610741919061377b565b60405180910390f35b34801561075657600080fd5b5061075f611cd0565b60405161076c9190613751565b60405180910390f35b34801561078157600080fd5b5061078a611cf7565b6040516107979190613751565b60405180910390f35b3480156107ac57600080fd5b506107b5611d1e565b6040516107c2919061377b565b60405180910390f35b3480156107d757600080fd5b506107e0611d5c565b6040516107ed9190613751565b60405180910390f35b34801561080257600080fd5b5061080b611d83565b6040516108189190613751565b60405180910390f35b34801561082d57600080fd5b50610836611daa565b6040516108439190613872565b60405180910390f35b34801561085857600080fd5b50610861611dce565b60405161086e919061392c565b60405180910390f35b34801561088357600080fd5b5061088c611df2565b604051610899919061381b565b60405180910390f35b3480156108ae57600080fd5b506108b7611e30565b005b3480156108c557600080fd5b506108ce611fe8565b6040516108db9190613751565b60405180910390f35b3480156108f057600080fd5b506108f961200f565b6040516109069190613966565b60405180910390f35b34801561091b57600080fd5b5061093660048036038101906109319190613645565b61204d565b005b34801561094457600080fd5b5061095f600480360381019061095a919061388d565b612174565b60405161096c919061399c565b60405180910390f35b34801561098157600080fd5b5061098a61220a565b6040516109979190613872565b60405180910390f35b3480156109ac57600080fd5b506109b561222e565b6040516109c2919061381b565b60405180910390f35b3480156109d757600080fd5b506109e061226c565b6040516109ed919061381b565b60405180910390f35b348015610a0257600080fd5b50610a0b6122aa565b604051610a189190613751565b60405180910390f35b348015610a2d57600080fd5b50610a486004803603810190610a4391906136b2565b6122d1565b005b348015610a5657600080fd5b50610a5f6124bb565b604051610a6c9190613872565b60405180910390f35b348015610a8157600080fd5b50610a8a6124c2565b604051610a97919061381b565b60405180910390f35b348015610aac57600080fd5b50610ab5612500565b604051610ac2919061381b565b60405180910390f35b348015610ad757600080fd5b50610ae061253e565b604051610aed9190613751565b60405180910390f35b348015610b0257600080fd5b50610b0b612565565b604051610b18919061377b565b60405180910390f35b348015610b2d57600080fd5b50610b366125a3565b604051610b439190613751565b60405180910390f35b348015610b5857600080fd5b50610b616125ca565b604051610b6e9190613751565b60405180910390f35b348015610b8357600080fd5b50610b9e6004803603810190610b9991906136b2565b6125f1565b005b348015610bac57600080fd5b50610bc76004803603810190610bc29190613836565b612781565b604051610bd59291906139b7565b60405180910390f35b348015610bea57600080fd5b50610bf36127b2565b604051610c00919061381b565b60405180910390f35b348015610c1557600080fd5b50610c1e6127f0565b604051610c2b9190613751565b60405180910390f35b348015610c4057600080fd5b50610c5b6004803603810190610c569190613a0c565b612817565b005b348015610c6957600080fd5b50610c846004803603810190610c7f919061388d565b61297a565b005b348015610c9257600080fd5b50610c9b612a5b565b604051610ca89190613751565b60405180910390f35b348015610cbd57600080fd5b50610cd86004803603810190610cd39190613645565b612a82565b005b348015610ce657600080fd5b50610cef612ba9565b604051610cfc9190613751565b60405180910390f35b348015610d1157600080fd5b50610d1a612bb5565b604051610d27919061381b565b60405180910390f35b348015610d3c57600080fd5b50610d45612bf3565b604051610d52919061377b565b60405180910390f35b348015610d6757600080fd5b50610d70612bfa565b604051610d7d919061381b565b60405180910390f35b348015610d9257600080fd5b50610d9b612c38565b604051610da89190613872565b60405180910390f35b348015610dbd57600080fd5b50610dc6612c5c565b604051610dd39190613751565b60405180910390f35b348015610de857600080fd5b50610e036004803603810190610dfe9190613a39565b612c83565b005b7fa49807205ce4d355092ef5a8a18f56e8913cf4a201fbe287825b095693c2177560008054906101000a900473ffffffffffffffffffffffffffffffffffffffff1673ffffffffffffffffffffffffffffffffffffffff166391d1485482610e6b612e58565b6040518363ffffffff1660e01b8152600401610e88929190613aa0565b602060405180830381865afa158015610ea5573d6000803e3d6000fd5b505050506040513d601f19601f82011682018060405250810190610ec99190613af5565b610ed757610ed681612e60565b5b8173ffffffffffffffffffffffffffffffffffffffff16602060007f6fc77dba7c1971f6af1f32b3c7728da581e8b9fe553e83800c1e287b9288663860001c8152602001908152602001600020819055505050565b7fa49807205ce4d355092ef5a8a18f56e8913cf4a201fbe287825b095693c2177560008054906101000a900473ffffffffffffffffffffffffffffffffffffffff1673ffffffffffffffffffffffffffffffffffffffff166391d1485482610f92612e58565b6040518363ffffffff1660e01b8152600401610faf929190613aa0565b602060405180830381865afa158015610fcc573d6000803e3d6000fd5b505050506040513d601f19601f82011682018060405250810190610ff09190613af5565b610ffe57610ffd81612e60565b5b6000602060007f1ec8339790254679015c7b4db055ec6bb45de4d3ff3193d766a1cc6ce145728d60001c81526020019081526020016000205490508267ffffffffffffffff16602060007f1ec8339790254679015c7b4db055ec6bb45de4d3ff3193d766a1cc6ce145728d60001c8152602001908152602001600020819055507fc177a0244f4a8707676367719773686001fba49fd7289a82ac5b48ad94c2f63381846040516110af929190613b22565b60405180910390a1505050565b7fa49807205ce4d355092ef5a8a18f56e8913cf4a201fbe287825b095693c2177560008054906101000a900473ffffffffffffffffffffffffffffffffffffffff1673ffffffffffffffffffffffffffffffffffffffff166391d1485482611122612e58565b6040518363ffffffff1660e01b815260040161113f929190613aa0565b602060405180830381865afa15801561115c573d6000803e3d6000fd5b505050506040513d601f19601f820116820180604052508101906111809190613af5565b61118e5761118d81612e60565b5b600073ffffffffffffffffffffffffffffffffffffffff168273ffffffffffffffffffffffffffffffffffffffff16036111fd576040517f08c379a00000000000000000000000000000000000000000000000000000000081526004016111f490613bbd565b60405180910390fd5b8173ffffffffffffffffffffffffffffffffffffffff16602060007f6ea4018daf79dd2b85ff55e23caa9708d35a5af81f862526e25c36407a95ad8160001c8152602001908152602001600020819055505050565b602080528060005260406000206000915090505481565b7fa49807205ce4d355092ef5a8a18f56e8913cf4a201fbe287825b095693c2177560008054906101000a900473ffffffffffffffffffffffffffffffffffffffff1673ffffffffffffffffffffffffffffffffffffffff166391d14854826112cf612e58565b6040518363ffffffff1660e01b81526004016112ec929190613aa0565b602060405180830381865afa158015611309573d6000803e3d6000fd5b505050506040513d601f19601f8201168201806040525081019061132d9190613af5565b61133b5761133a81612e60565b5b6000602060007fe01bea03000f908384fec12f1bb9cff12e05a5d91a94bfedd901d5696153a5a360001c81526020019081526020016000205490508267ffffffffffffffff16602060007fe01bea03000f908384fec12f1bb9cff12e05a5d91a94bfedd901d5696153a5a360001c8152602001908152602001600020819055507f094db2fc85da62fe7db5c756dcf97f9bcaab1859f63028762569efb6e1960b3581846040516113ec929190613b22565b60405180910390a1505050565b6000602060007fe01bea03000f908384fec12f1bb9cff12e05a5d91a94bfedd901d5696153a5a360001c815260200190815260200160002054905090565b7fa49807205ce4d355092ef5a8a18f56e8913cf4a201fbe287825b095693c2177560008054906101000a900473ffffffffffffffffffffffffffffffffffffffff1673ffffffffffffffffffffffffffffffffffffffff166391d148548261149d612e58565b6040518363ffffffff1660e01b81526004016114ba929190613aa0565b602060405180830381865afa1580156114d7573d6000803e3d6000fd5b505050506040513d601f19601f820116820180604052508101906114fb9190613af5565b6115095761150881612e60565b5b6115138383612e74565b505050565b6000602060007ffa6557a51a133888544923dacdca355721a35fbeebe974f1e7d28d3105e033cf60001c815260200190815260200160002054905090565b7fcaa210682aa7d6b03d19b857c87a6e4c61b2ea999c417f0652a36447d144f23860001c81565b600060216000838152602001908152602001600020600101549050919050565b7fa49807205ce4d355092ef5a8a18f56e8913cf4a201fbe287825b095693c2177560008054906101000a900473ffffffffffffffffffffffffffffffffffffffff1673ffffffffffffffffffffffffffffffffffffffff166391d1485482611603612e58565b6040518363ffffffff1660e01b8152600401611620929190613aa0565b602060405180830381865afa15801561163d573d6000803e3d6000fd5b505050506040513d601f19601f820116820180604052508101906116619190613af5565b61166f5761166e81612e60565b5b8173ffffffffffffffffffffffffffffffffffffffff16602060007f3beeeeb89724bb62c1be7636d1b77a4ca5096701b9f62a5b667ba95489c0648f60001c8152602001908152602001600020819055505050565b6000602060007f1ec8339790254679015c7b4db055ec6bb45de4d3ff3193d766a1cc6ce145728d60001c815260200190815260200160002054905090565b7fa49807205ce4d355092ef5a8a18f56e8913cf4a201fbe287825b095693c2177560008054906101000a900473ffffffffffffffffffffffffffffffffffffffff1673ffffffffffffffffffffffffffffffffffffffff166391d1485482611768612e58565b6040518363ffffffff1660e01b8152600401611785929190613aa0565b602060405180830381865afa1580156117a2573d6000803e3d6000fd5b505050506040513d601f19601f820116820180604052508101906117c69190613af5565b6117d4576117d381612e60565b5b6117de8383612ed0565b505050565b7fa49807205ce4d355092ef5a8a18f56e8913cf4a201fbe287825b095693c2177560008054906101000a900473ffffffffffffffffffffffffffffffffffffffff1673ffffffffffffffffffffffffffffffffffffffff166391d1485482611849612e58565b6040518363ffffffff1660e01b8152600401611866929190613aa0565b602060405180830381865afa158015611883573d6000803e3d6000fd5b505050506040513d601f19601f820116820180604052508101906118a79190613af5565b6118b5576118b481612e60565b5b6000602060007f454c90bb89af48c9c15cd0acb46e1f05be34b6d27d24973b724e6ff6477e129f60001c81526020019081526020016000205490508267ffffffffffffffff16602060007f454c90bb89af48c9c15cd0acb46e1f05be34b6d27d24973b724e6ff6477e129f60001c8152602001908152602001600020819055507fad4e3ddfd2fea080fa83643e0fb6524ed21aede7baea710edb83a6e790dc9b668184604051611966929190613b22565b60405180910390a1505050565b61197b612e58565b73ffffffffffffffffffffffffffffffffffffffff168173ffffffffffffffffffffffffffffffffffffffff16146119e8576040517f08c379a00000000000000000000000000000000000000000000000000000000081526004016119df90613c4f565b60405180910390fd5b6119f28282612fb1565b5050565b7fe4a4e5425e0f84d8d68c8433df2512e8e48969299d032314614356a42435a73960001c81565b7fa49807205ce4d355092ef5a8a18f56e8913cf4a201fbe287825b095693c2177560008054906101000a900473ffffffffffffffffffffffffffffffffffffffff1673ffffffffffffffffffffffffffffffffffffffff166391d1485482611a83612e58565b6040518363ffffffff1660e01b8152600401611aa0929190613aa0565b602060405180830381865afa158015611abd573d6000803e3d6000fd5b505050506040513d601f19601f82011682018060405250810190611ae19190613af5565b611aef57611aee81612e60565b5b8173ffffffffffffffffffffffffffffffffffffffff16602060007fcaa210682aa7d6b03d19b857c87a6e4c61b2ea999c417f0652a36447d144f23860001c8152602001908152602001600020819055505050565b7f69661401bd068c022c278f73b3789a33e22d5eafe981e9265041b6fe72a122fe60001c81565b7fa49807205ce4d355092ef5a8a18f56e8913cf4a201fbe287825b095693c2177560008054906101000a900473ffffffffffffffffffffffffffffffffffffffff1673ffffffffffffffffffffffffffffffffffffffff166391d1485482611bd1612e58565b6040518363ffffffff1660e01b8152600401611bee929190613aa0565b602060405180830381865afa158015611c0b573d6000803e3d6000fd5b505050506040513d601f19601f82011682018060405250810190611c2f9190613af5565b611c3d57611c3c81612e60565b5b8173ffffffffffffffffffffffffffffffffffffffff16602060007fee0b41063c9b42cf4cb1e7f8c47f5eeb6d29cf430aef897afc1cd2888dda3e0460001c8152602001908152602001600020819055505050565b6000602060007fe3fb0f89bf43754026f5df1c4a405631deca482f630ed00c4f9897a30ea0764260001c815260200190815260200160002054905090565b7f1ec8339790254679015c7b4db055ec6bb45de4d3ff3193d766a1cc6ce145728d60001c81565b7f6fede10a232b276bc7c310abfbe151b58ba2286d825bc9e66c6e5fd488844e1060001c81565b6000602060007f454c90bb89af48c9c15cd0acb46e1f05be34b6d27d24973b724e6ff6477e129f60001c815260200190815260200160002054905090565b7f3beeeeb89724bb62c1be7636d1b77a4ca5096701b9f62a5b667ba95489c0648f60001c81565b7f36051e26b7ee9ab8bfe79486c0d7a7a2112864a57aa54065540eccb3c4a4452260001c81565b7fa49807205ce4d355092ef5a8a18f56e8913cf4a201fbe287825b095693c2177581565b60008054906101000a900473ffffffffffffffffffffffffffffffffffffffff1681565b6000602060007f6ea4018daf79dd2b85ff55e23caa9708d35a5af81f862526e25c36407a95ad8160001c815260200190815260200160002054905090565b6000611e3a613093565b905060008160000160089054906101000a900460ff1615905060008260000160009054906101000a900467ffffffffffffffff1690506000808267ffffffffffffffff16148015611e885750825b9050600060018367ffffffffffffffff16148015611ebd575060003073ffffffffffffffffffffffffffffffffffffffff163b145b905081158015611ecb575080155b15611f02576040517ff92ee8a900000000000000000000000000000000000000000000000000000000815260040160405180910390fd5b60018560000160006101000a81548167ffffffffffffffff021916908367ffffffffffffffff1602179055508315611f525760018560000160086101000a81548160ff0219169083151502179055505b611f5b306130bb565b611f857fa49807205ce4d355092ef5a8a18f56e8913cf4a201fbe287825b095693c2177533612ed0565b8315611fe15760008560000160086101000a81548160ff0219169083151502179055507fc7f505b2f371ae2175ee4913f4499e1f2633a7b5936321eed1cdaeb6115181d26001604051611fd89190613caa565b60405180910390a15b5050505050565b7ffa6557a51a133888544923dacdca355721a35fbeebe974f1e7d28d3105e033cf60001c81565b6000602060007f6fede10a232b276bc7c310abfbe151b58ba2286d825bc9e66c6e5fd488844e1060001c815260200190815260200160002054905090565b7fa49807205ce4d355092ef5a8a18f56e8913cf4a201fbe287825b095693c2177560008054906101000a900473ffffffffffffffffffffffffffffffffffffffff1673ffffffffffffffffffffffffffffffffffffffff166391d14854826120b3612e58565b6040518363ffffffff1660e01b81526004016120d0929190613aa0565b602060405180830381865afa1580156120ed573d6000803e3d6000fd5b505050506040513d601f19601f820116820180604052508101906121119190613af5565b61211f5761211e81612e60565b5b8173ffffffffffffffffffffffffffffffffffffffff16602060007f69661401bd068c022c278f73b3789a33e22d5eafe981e9265041b6fe72a122fe60001c8152602001908152602001600020819055505050565b60006021600084815260200190815260200160002060020160009054906101000a900460ff168061220257506021600084815260200190815260200160002060000160008373ffffffffffffffffffffffffffffffffffffffff1673ffffffffffffffffffffffffffffffffffffffff16815260200190815260200160002060009054906101000a900460ff165b905092915050565b7f25cf2b509f2a7f322675b2a5322b182f44ad2c03ac941a0af17c9b178f5d5d5f81565b6000602060007f3beeeeb89724bb62c1be7636d1b77a4ca5096701b9f62a5b667ba95489c0648f60001c815260200190815260200160002054905090565b6000602060007fcaa210682aa7d6b03d19b857c87a6e4c61b2ea999c417f0652a36447d144f23860001c815260200190815260200160002054905090565b7fe3fb0f89bf43754026f5df1c4a405631deca482f630ed00c4f9897a30ea0764260001c81565b7fa49807205ce4d355092ef5a8a18f56e8913cf4a201fbe287825b095693c2177560008054906101000a900473ffffffffffffffffffffffffffffffffffffffff1673ffffffffffffffffffffffffffffffffffffffff166391d1485482612337612e58565b6040518363ffffffff1660e01b8152600401612354929190613aa0565b602060405180830381865afa158015612371573d6000803e3d6000fd5b505050506040513d601f19601f820116820180604052508101906123959190613af5565b6123a3576123a281612e60565b5b620f424067ffffffffffffffff168267ffffffffffffffff1611156123fd576040517f08c379a00000000000000000000000000000000000000000000000000000000081526004016123f490613d37565b60405180910390fd5b6000602060007fe3fb0f89bf43754026f5df1c4a405631deca482f630ed00c4f9897a30ea0764260001c81526020019081526020016000205490508267ffffffffffffffff16602060007fe3fb0f89bf43754026f5df1c4a405631deca482f630ed00c4f9897a30ea0764260001c8152602001908152602001600020819055507f0c7d5fe001c239827c24ae8f25cdd01e2d07d62948524e073b7d42ac813d7d4081846040516124ae929190613b22565b60405180910390a1505050565b6000801b81565b6000602060007fee0b41063c9b42cf4cb1e7f8c47f5eeb6d29cf430aef897afc1cd2888dda3e0460001c815260200190815260200160002054905090565b6000602060007f69661401bd068c022c278f73b3789a33e22d5eafe981e9265041b6fe72a122fe60001c815260200190815260200160002054905090565b7f6ea4018daf79dd2b85ff55e23caa9708d35a5af81f862526e25c36407a95ad8160001c81565b6000602060007f9fb48ff2476bdf82119573e311cab5a3bbdadc90cac7a17cbe16c403581c2c3060001c815260200190815260200160002054905090565b7f454c90bb89af48c9c15cd0acb46e1f05be34b6d27d24973b724e6ff6477e129f60001c81565b7f9fb48ff2476bdf82119573e311cab5a3bbdadc90cac7a17cbe16c403581c2c3060001c81565b7fa49807205ce4d355092ef5a8a18f56e8913cf4a201fbe287825b095693c2177560008054906101000a900473ffffffffffffffffffffffffffffffffffffffff1673ffffffffffffffffffffffffffffffffffffffff166391d1485482612657612e58565b6040518363ffffffff1660e01b8152600401612674929190613aa0565b602060405180830381865afa158015612691573d6000803e3d6000fd5b505050506040513d601f19601f820116820180604052508101906126b59190613af5565b6126c3576126c281612e60565b5b6000602060007f9fb48ff2476bdf82119573e311cab5a3bbdadc90cac7a17cbe16c403581c2c3060001c81526020019081526020016000205490508267ffffffffffffffff16602060007f9fb48ff2476bdf82119573e311cab5a3bbdadc90cac7a17cbe16c403581c2c3060001c8152602001908152602001600020819055507f8dadadc3ec262154dcac682573c557bcf085c6767fa0e65010d5e1308ebf90018184604051612774929190613b22565b60405180910390a1505050565b60216020528060005260406000206000915090508060010154908060020160009054906101000a900460ff16905082565b6000602060007f6fc77dba7c1971f6af1f32b3c7728da581e8b9fe553e83800c1e287b9288663860001c815260200190815260200160002054905090565b7fee0b41063c9b42cf4cb1e7f8c47f5eeb6d29cf430aef897afc1cd2888dda3e0460001c81565b7fa49807205ce4d355092ef5a8a18f56e8913cf4a201fbe287825b095693c2177560008054906101000a900473ffffffffffffffffffffffffffffffffffffffff1673ffffffffffffffffffffffffffffffffffffffff166391d148548261287d612e58565b6040518363ffffffff1660e01b815260040161289a929190613aa0565b602060405180830381865afa1580156128b7573d6000803e3d6000fd5b505050506040513d601f19601f820116820180604052508101906128db9190613af5565b6128e9576128e881612e60565b5b620186a08263ffffffff161115612935576040517f08c379a000000000000000000000000000000000000000000000000000000000815260040161292c90613dc9565b60405180910390fd5b8163ffffffff16602060007f6fede10a232b276bc7c310abfbe151b58ba2286d825bc9e66c6e5fd488844e1060001c8152602001908152602001600020819055505050565b7fa49807205ce4d355092ef5a8a18f56e8913cf4a201fbe287825b095693c2177560008054906101000a900473ffffffffffffffffffffffffffffffffffffffff1673ffffffffffffffffffffffffffffffffffffffff166391d14854826129e0612e58565b6040518363ffffffff1660e01b81526004016129fd929190613aa0565b602060405180830381865afa158015612a1a573d6000803e3d6000fd5b505050506040513d601f19601f82011682018060405250810190612a3e9190613af5565b612a4c57612a4b81612e60565b5b612a568383612fb1565b505050565b7f6fc77dba7c1971f6af1f32b3c7728da581e8b9fe553e83800c1e287b9288663860001c81565b7fa49807205ce4d355092ef5a8a18f56e8913cf4a201fbe287825b095693c2177560008054906101000a900473ffffffffffffffffffffffffffffffffffffffff1673ffffffffffffffffffffffffffffffffffffffff166391d1485482612ae8612e58565b6040518363ffffffff1660e01b8152600401612b05929190613aa0565b602060405180830381865afa158015612b22573d6000803e3d6000fd5b505050506040513d601f19601f82011682018060405250810190612b469190613af5565b612b5457612b5381612e60565b5b8173ffffffffffffffffffffffffffffffffffffffff16602060007ffa6557a51a133888544923dacdca355721a35fbeebe974f1e7d28d3105e033cf60001c8152602001908152602001600020819055505050565b670de0b6b3a764000081565b6000602060007f36051e26b7ee9ab8bfe79486c0d7a7a2112864a57aa54065540eccb3c4a4452260001c815260200190815260200160002054905090565b620f424081565b6000602060007fe4a4e5425e0f84d8d68c8433df2512e8e48969299d032314614356a42435a73960001c815260200190815260200160002054905090565b7ff66846415d2bf9eabda9e84793ff9c0ea96d87f50fc41e66aa16469c6a442f0581565b7fe01bea03000f908384fec12f1bb9cff12e05a5d91a94bfedd901d5696153a5a360001c81565b7fa49807205ce4d355092ef5a8a18f56e8913cf4a201fbe287825b095693c2177560008054906101000a900473ffffffffffffffffffffffffffffffffffffffff1673ffffffffffffffffffffffffffffffffffffffff166391d1485482612ce9612e58565b6040518363ffffffff1660e01b8152600401612d06929190613aa0565b602060405180830381865afa158015612d23573d6000803e3d6000fd5b505050506040513d601f19601f82011682018060405250810190612d479190613af5565b612d5557612d5481612e60565b5b8473ffffffffffffffffffffffffffffffffffffffff16602060007f36051e26b7ee9ab8bfe79486c0d7a7a2112864a57aa54065540eccb3c4a4452260001c8152602001908152602001600020819055508373ffffffffffffffffffffffffffffffffffffffff16602060007fe4a4e5425e0f84d8d68c8433df2512e8e48969299d032314614356a42435a73960001c8152602001908152602001600020819055508273ffffffffffffffffffffffffffffffffffffffff16602060007f6ea4018daf79dd2b85ff55e23caa9708d35a5af81f862526e25c36407a95ad8160001c815260200190815260200160002081905550612e5182612817565b5050505050565b600033905090565b612e7181612e6c612e58565b613116565b50565b6000612e7f8361157d565b90508160216000858152602001908152602001600020600101819055508181847fbd79b86ffe0ab8e8776151514217cd7cacd52c909f66475c3af44e129f0b00ff60405160405180910390a4505050565b612eda8282612174565b612fad5760016021600084815260200190815260200160002060000160008373ffffffffffffffffffffffffffffffffffffffff1673ffffffffffffffffffffffffffffffffffffffff16815260200190815260200160002060006101000a81548160ff021916908315150217905550612f52612e58565b73ffffffffffffffffffffffffffffffffffffffff168173ffffffffffffffffffffffffffffffffffffffff16837f2f8788117e7eff1d82e926ec794901d17c78024a50270940304540a733656f0d60405160405180910390a45b5050565b612fbb8282612174565b1561308f5760006021600084815260200190815260200160002060000160008373ffffffffffffffffffffffffffffffffffffffff1673ffffffffffffffffffffffffffffffffffffffff16815260200190815260200160002060006101000a81548160ff021916908315150217905550613034612e58565b73ffffffffffffffffffffffffffffffffffffffff168173ffffffffffffffffffffffffffffffffffffffff16837ff6391f5c32d9c69d2a47ea670b442974b53935d1edc7fd64eb21e047a839171b60405160405180910390a45b5050565b60007ff0c57e16840df040f15088dc2f81fe391c3923bec73e23a9662efc9c229c6a00905090565b6130c361322d565b806000806101000a81548173ffffffffffffffffffffffffffffffffffffffff021916908373ffffffffffffffffffffffffffffffffffffffff16021790555061310b61326d565b61311361327f565b50565b60008054906101000a900473ffffffffffffffffffffffffffffffffffffffff1673ffffffffffffffffffffffffffffffffffffffff166391d1485483836040518363ffffffff1660e01b8152600401613171929190613aa0565b602060405180830381865afa15801561318e573d6000803e3d6000fd5b505050506040513d601f19601f820116820180604052508101906131b29190613af5565b613229576131bf81613289565b6131cd8360001c60206132b6565b6040516020016131de929190613ef2565b6040516020818303038152906040526040517f08c379a00000000000000000000000000000000000000000000000000000000081526004016132209190613f76565b60405180910390fd5b5050565b6132356134fc565b61326b576040517fd7e6bcf800000000000000000000000000000000000000000000000000000000815260040160405180910390fd5b565b61327561322d565b61327d61351c565b565b61328761322d565b565b60606132af8273ffffffffffffffffffffffffffffffffffffffff16601460ff166132b6565b9050919050565b60606000839050600060028460026132ce9190613fc7565b6132d89190614009565b67ffffffffffffffff8111156132f1576132f061403d565b5b6040519080825280601f01601f1916602001820160405280156133235781602001600182028036833780820191505090505b5090507f30000000000000000000000000000000000000000000000000000000000000008160008151811061335b5761335a61406c565b5b60200101907effffffffffffffffffffffffffffffffffffffffffffffffffffffffffffff1916908160001a9053507f7800000000000000000000000000000000000000000000000000000000000000816001815181106133bf576133be61406c565b5b60200101907effffffffffffffffffffffffffffffffffffffffffffffffffffffffffffff1916908160001a905350600060018560026133ff9190613fc7565b6134099190614009565b90505b60018111156134a9577f3031323334353637383961626364656600000000000000000000000000000000600f84166010811061344b5761344a61406c565b5b1a60f81b8282815181106134625761346161406c565b5b60200101907effffffffffffffffffffffffffffffffffffffffffffffffffffffffffffff1916908160001a905350600483901c9250806134a29061409b565b905061340c565b50600082146134f15784846040517fe22e27eb0000000000000000000000000000000000000000000000000000000081526004016134e89291906140c4565b60405180910390fd5b809250505092915050565b6000613506613093565b60000160089054906101000a900460ff16905090565b61352461322d565b600061352e61353d565b90506001816000018190555050565b60007f9b779b17422d0df92223018b32b4d1fa46e071723d6817e2486d003becc55f00905090565b600082825260208201905092915050565b7f426173653a206e6f7420737570706f7274204d65746973207472616e73666572600082015250565b60006135ac602083613565565b91506135b782613576565b602082019050919050565b600060208201905081810360008301526135db8161359f565b9050919050565b600080fd5b600073ffffffffffffffffffffffffffffffffffffffff82169050919050565b6000613612826135e7565b9050919050565b61362281613607565b811461362d57600080fd5b50565b60008135905061363f81613619565b92915050565b60006020828403121561365b5761365a6135e2565b5b600061366984828501613630565b91505092915050565b600067ffffffffffffffff82169050919050565b61368f81613672565b811461369a57600080fd5b50565b6000813590506136ac81613686565b92915050565b6000602082840312156136c8576136c76135e2565b5b60006136d68482850161369d565b91505092915050565b6000819050919050565b6136f2816136df565b81146136fd57600080fd5b50565b60008135905061370f816136e9565b92915050565b60006020828403121561372b5761372a6135e2565b5b600061373984828501613700565b91505092915050565b61374b816136df565b82525050565b60006020820190506137666000830184613742565b92915050565b61377581613672565b82525050565b6000602082019050613790600083018461376c565b92915050565b6000819050919050565b6137a981613796565b81146137b457600080fd5b50565b6000813590506137c6816137a0565b92915050565b600080604083850312156137e3576137e26135e2565b5b60006137f1858286016137b7565b9250506020613802858286016137b7565b9150509250929050565b61381581613607565b82525050565b6000602082019050613830600083018461380c565b92915050565b60006020828403121561384c5761384b6135e2565b5b600061385a848285016137b7565b91505092915050565b61386c81613796565b82525050565b60006020820190506138876000830184613863565b92915050565b600080604083850312156138a4576138a36135e2565b5b60006138b2858286016137b7565b92505060206138c385828601613630565b9150509250929050565b6000819050919050565b60006138f26138ed6138e8846135e7565b6138cd565b6135e7565b9050919050565b6000613904826138d7565b9050919050565b6000613916826138f9565b9050919050565b6139268161390b565b82525050565b6000602082019050613941600083018461391d565b92915050565b600063ffffffff82169050919050565b61396081613947565b82525050565b600060208201905061397b6000830184613957565b92915050565b60008115159050919050565b61399681613981565b82525050565b60006020820190506139b1600083018461398d565b92915050565b60006040820190506139cc6000830185613863565b6139d9602083018461398d565b9392505050565b6139e981613947565b81146139f457600080fd5b50565b600081359050613a06816139e0565b92915050565b600060208284031215613a2257613a216135e2565b5b6000613a30848285016139f7565b91505092915050565b60008060008060808587031215613a5357613a526135e2565b5b6000613a6187828801613630565b9450506020613a7287828801613630565b9350506040613a8387828801613630565b9250506060613a94878288016139f7565b91505092959194509250565b6000604082019050613ab56000830185613863565b613ac2602083018461380c565b9392505050565b613ad281613981565b8114613add57600080fd5b50565b600081519050613aef81613ac9565b92915050565b600060208284031215613b0b57613b0a6135e2565b5b6000613b1984828501613ae0565b91505092915050565b6000604082019050613b37600083018561376c565b613b44602083018461376c565b9392505050565b7f436f6e6669673a2070726f746f636f6c5472656173757279206973207a65726f60008201527f2061646472657373000000000000000000000000000000000000000000000000602082015250565b6000613ba7602883613565565b9150613bb282613b4b565b604082019050919050565b60006020820190508181036000830152613bd681613b9a565b9050919050565b7f416363657373436f6e74726f6c3a2063616e206f6e6c792072656e6f756e636560008201527f20726f6c657320666f722073656c660000000000000000000000000000000000602082015250565b6000613c39602f83613565565b9150613c4482613bdd565b604082019050919050565b60006020820190508181036000830152613c6881613c2c565b9050919050565b6000819050919050565b6000613c94613c8f613c8a84613c6f565b6138cd565b613672565b9050919050565b613ca481613c79565b82525050565b6000602082019050613cbf6000830184613c9b565b92915050565b7f436f6e6669673a20726564656d7074696f6e466565206d757374206265206c6560008201527f7373207468616e20313030303030300000000000000000000000000000000000602082015250565b6000613d21602f83613565565b9150613d2c82613cc5565b604082019050919050565b60006020820190508181036000830152613d5081613d14565b9050919050565b7f436f6e6669673a2070726f746f636f6c5472656173757279526174696f206d7560008201527f7374206265206c657373207468616e2031303030300000000000000000000000602082015250565b6000613db3603583613565565b9150613dbe82613d57565b604082019050919050565b60006020820190508181036000830152613de281613da6565b9050919050565b600081905092915050565b7f416363657373436f6e74726f6c3a206163636f756e7420000000000000000000600082015250565b6000613e2a601783613de9565b9150613e3582613df4565b601782019050919050565b600081519050919050565b60005b83811015613e69578082015181840152602081019050613e4e565b60008484015250505050565b6000613e8082613e40565b613e8a8185613de9565b9350613e9a818560208601613e4b565b80840191505092915050565b7f206973206d697373696e6720726f6c6520000000000000000000000000000000600082015250565b6000613edc601183613de9565b9150613ee782613ea6565b601182019050919050565b6000613efd82613e1d565b9150613f098285613e75565b9150613f1482613ecf565b9150613f208284613e75565b91508190509392505050565b6000601f19601f8301169050919050565b6000613f4882613e40565b613f528185613565565b9350613f62818560208601613e4b565b613f6b81613f2c565b840191505092915050565b60006020820190508181036000830152613f908184613f3d565b905092915050565b7f4e487b7100000000000000000000000000000000000000000000000000000000600052601160045260246000fd5b6000613fd2826136df565b9150613fdd836136df565b9250828202613feb816136df565b9150828204841483151761400257614001613f98565b5b5092915050565b6000614014826136df565b915061401f836136df565b925082820190508082111561403757614036613f98565b5b92915050565b7f4e487b7100000000000000000000000000000000000000000000000000000000600052604160045260246000fd5b7f4e487b7100000000000000000000000000000000000000000000000000000000600052603260045260246000fd5b60006140a6826136df565b9150600082036140b9576140b8613f98565b5b600182039050919050565b60006040820190506140d96000830185613742565b6140e66020830184613742565b939250505056fea264697066735822122050c7062fb07a17719b8c64f1198306ab80d73b4101c9089d90846ee73b1969c364736f6c63430008140033",
  "linkReferences": {},
  "deployedLinkReferences": {}
}