{
  "_format": "hh-sol-artifact-1",
  "contractName": "RedemptionQueue",
  "sourceName": "contracts/RedemptionQueue.sol",
  "abi": [
    {
      "inputs": [],
      "name": "AlreadyRedeemed",
      "type": "error"
    },
    {
      "inputs": [],
      "name": "AlreadyReducedMaturity",
      "type": "error"
    },
    {
      "inputs": [
        {
          "internalType": "address",
          "name": "sender",
          "type": "address"
        },
        {
          "internalType": "uint256",
          "name": "tokenId",
          "type": "uint256"
        },
        {
          "internalType": "address",
          "name": "owner",
          "type": "address"
        }
      ],
      "name": "ERC721IncorrectOwner",
      "type": "error"
    },
    {
      "inputs": [
        {
          "internalType": "address",
          "name": "operator",
          "type": "address"
        },
        {
          "internalType": "uint256",
          "name": "tokenId",
          "type": "uint256"
        }
      ],
      "name": "ERC721InsufficientApproval",
      "type": "error"
    },
    {
      "inputs": [
        {
          "internalType": "address",
          "name": "approver",
          "type": "address"
        }
      ],
      "name": "ERC721InvalidApprover",
      "type": "error"
    },
    {
      "inputs": [
        {
          "internalType": "address",
          "name": "operator",
          "type": "address"
        }
      ],
      "name": "ERC721InvalidOperator",
      "type": "error"
    },
    {
      "inputs": [
        {
          "internalType": "address",
          "name": "owner",
          "type": "address"
        }
      ],
      "name": "ERC721InvalidOwner",
      "type": "error"
    },
    {
      "inputs": [
        {
          "internalType": "address",
          "name": "receiver",
          "type": "address"
        }
      ],
      "name": "ERC721InvalidReceiver",
      "type": "error"
    },
    {
      "inputs": [
        {
          "internalType": "address",
          "name": "sender",
          "type": "address"
        }
      ],
      "name": "ERC721InvalidSender",
      "type": "error"
    },
    {
      "inputs": [
        {
          "internalType": "uint256",
          "name": "tokenId",
          "type": "uint256"
        }
      ],
      "name": "ERC721NonexistentToken",
      "type": "error"
    },
    {
      "inputs": [],
      "name": "Erc721CallerNotOwnerOrApproved",
      "type": "error"
    },
    {
      "inputs": [
        {
          "internalType": "uint128",
          "name": "collectAmount",
          "type": "uint128"
        },
        {
          "internalType": "uint128",
          "name": "accruedAmount",
          "type": "uint128"
        }
      ],
      "name": "ExceedsCollectedFees",
      "type": "error"
    },
    {
      "inputs": [],
      "name": "InvalidInitialization",
      "type": "error"
    },
    {
      "inputs": [],
      "name": "LpTokenNotLocked",
      "type": "error"
    },
    {
      "inputs": [],
      "name": "NotInitializing",
      "type": "error"
    },
    {
      "inputs": [
        {
          "internalType": "uint256",
          "name": "currentTime",
          "type": "uint256"
        },
        {
          "internalType": "uint64",
          "name": "maturity",
          "type": "uint64"
        }
      ],
      "name": "NotMatureYet",
      "type": "error"
    },
    {
      "inputs": [],
      "name": "ReduceTimeExceedsLimit",
      "type": "error"
    },
    {
      "inputs": [],
      "name": "ReentrancyGuardReentrantCall",
      "type": "error"
    },
    {
      "inputs": [
        {
          "internalType": "uint8",
          "name": "bits",
          "type": "uint8"
        },
        {
          "internalType": "uint256",
          "name": "value",
          "type": "uint256"
        }
      ],
      "name": "SafeCastOverflowedUintDowncast",
      "type": "error"
    },
    {
      "inputs": [
        {
          "internalType": "address",
          "name": "token",
          "type": "address"
        }
      ],
      "name": "SafeERC20FailedOperation",
      "type": "error"
    },
    {
      "inputs": [
        {
          "internalType": "uint256",
          "name": "value",
          "type": "uint256"
        },
        {
          "internalType": "uint256",
          "name": "length",
          "type": "uint256"
        }
      ],
      "name": "StringsInsufficientHexLength",
      "type": "error"
    },
    {
      "anonymous": false,
      "inputs": [
        {
          "indexed": true,
          "internalType": "address",
          "name": "owner",
          "type": "address"
        },
        {
          "indexed": true,
          "internalType": "address",
          "name": "approved",
          "type": "address"
        },
        {
          "indexed": true,
          "internalType": "uint256",
          "name": "tokenId",
          "type": "uint256"
        }
      ],
      "name": "Approval",
      "type": "event"
    },
    {
      "anonymous": false,
      "inputs": [
        {
          "indexed": true,
          "internalType": "address",
          "name": "owner",
          "type": "address"
        },
        {
          "indexed": true,
          "internalType": "address",
          "name": "operator",
          "type": "address"
        },
        {
          "indexed": false,
          "internalType": "bool",
          "name": "approved",
          "type": "bool"
        }
      ],
      "name": "ApprovalForAll",
      "type": "event"
    },
    {
      "anonymous": false,
      "inputs": [
        {
          "indexed": true,
          "internalType": "uint256",
          "name": "nftId",
          "type": "uint256"
        },
        {
          "indexed": true,
          "internalType": "address",
          "name": "sender",
          "type": "address"
        },
        {
          "indexed": true,
          "internalType": "address",
          "name": "recipient",
          "type": "address"
        },
        {
          "indexed": false,
          "internalType": "uint120",
          "name": "veMetisOut",
          "type": "uint120"
        },
        {
          "indexed": false,
          "internalType": "uint120",
          "name": "cancelRedemptionFee",
          "type": "uint120"
        }
      ],
      "name": "CancelRedemptionTicketNft",
      "type": "event"
    },
    {
      "anonymous": false,
      "inputs": [
        {
          "indexed": false,
          "internalType": "address",
          "name": "recipient",
          "type": "address"
        },
        {
          "indexed": false,
          "internalType": "uint128",
          "name": "collectAmount",
          "type": "uint128"
        }
      ],
      "name": "CollectRedemptionFees",
      "type": "event"
    },
    {
      "anonymous": false,
      "inputs": [
        {
          "indexed": true,
          "internalType": "uint256",
          "name": "nftId",
          "type": "uint256"
        },
        {
          "indexed": true,
          "internalType": "address",
          "name": "sender",
          "type": "address"
        },
        {
          "indexed": true,
          "internalType": "address",
          "name": "recipient",
          "type": "address"
        },
        {
          "indexed": false,
          "internalType": "uint256",
          "name": "amountVeMetisRedeemed",
          "type": "uint256"
        },
        {
          "indexed": false,
          "internalType": "uint120",
          "name": "redemptionFeeAmount",
          "type": "uint120"
        },
        {
          "indexed": false,
          "internalType": "uint64",
          "name": "maturityTimestamp",
          "type": "uint64"
        },
        {
          "indexed": false,
          "internalType": "uint256",
          "name": "cancelRedemptionFee",
          "type": "uint256"
        }
      ],
      "name": "EnterRedemptionQueue",
      "type": "event"
    },
    {
      "anonymous": false,
      "inputs": [
        {
          "indexed": false,
          "internalType": "uint64",
          "name": "version",
          "type": "uint64"
        }
      ],
      "name": "Initialized",
      "type": "event"
    },
    {
      "anonymous": false,
      "inputs": [
        {
          "indexed": true,
          "internalType": "uint256",
          "name": "nftId",
          "type": "uint256"
        },
        {
          "indexed": true,
          "internalType": "address",
          "name": "sender",
          "type": "address"
        },
        {
          "indexed": true,
          "internalType": "address",
          "name": "recipient",
          "type": "address"
        },
        {
          "indexed": false,
          "internalType": "uint120",
          "name": "amountOut",
          "type": "uint120"
        }
      ],
      "name": "RedeemRedemptionTicketNft",
      "type": "event"
    },
    {
      "anonymous": false,
      "inputs": [
        {
          "indexed": true,
          "internalType": "uint256",
          "name": "nftId",
          "type": "uint256"
        },
        {
          "indexed": false,
          "internalType": "address",
          "name": "lpLockToken",
          "type": "address"
        },
        {
          "indexed": false,
          "internalType": "uint256",
          "name": "lpLockAmount",
          "type": "uint256"
        },
        {
          "indexed": false,
          "internalType": "uint64",
          "name": "reduceTime",
          "type": "uint64"
        },
        {
          "indexed": false,
          "internalType": "uint64",
          "name": "newMaturityTimestamp",
          "type": "uint64"
        }
      ],
      "name": "ReduceRedemptionMaturity",
      "type": "event"
    },
    {
      "anonymous": false,
      "inputs": [
        {
          "indexed": true,
          "internalType": "address",
          "name": "from",
          "type": "address"
        },
        {
          "indexed": true,
          "internalType": "address",
          "name": "to",
          "type": "address"
        },
        {
          "indexed": true,
          "internalType": "uint256",
          "name": "tokenId",
          "type": "uint256"
        }
      ],
      "name": "Transfer",
      "type": "event"
    },
    {
      "anonymous": false,
      "inputs": [
        {
          "indexed": true,
          "internalType": "uint256",
          "name": "nftId",
          "type": "uint256"
        },
        {
          "indexed": false,
          "internalType": "address",
          "name": "lpToken",
          "type": "address"
        },
        {
          "indexed": false,
          "internalType": "uint256",
          "name": "lpAmount",
          "type": "uint256"
        }
      ],
      "name": "UnlockLpToken",
      "type": "event"
    },
    {
      "inputs": [],
      "name": "ADMIN_ROLE",
      "outputs": [
        {
          "internalType": "bytes32",
          "name": "",
          "type": "bytes32"
        }
      ],
      "stateMutability": "view",
      "type": "function"
    },
    {
      "inputs": [],
      "name": "BACKEND_ROLE",
      "outputs": [
        {
          "internalType": "bytes32",
          "name": "",
          "type": "bytes32"
        }
      ],
      "stateMutability": "view",
      "type": "function"
    },
    {
      "inputs": [],
      "name": "DEFAULT_ADMIN_ROLE",
      "outputs": [
        {
          "internalType": "bytes32",
          "name": "",
          "type": "bytes32"
        }
      ],
      "stateMutability": "view",
      "type": "function"
    },
    {
      "inputs": [],
      "name": "FEE_PRECISION",
      "outputs": [
        {
          "internalType": "uint64",
          "name": "",
          "type": "uint64"
        }
      ],
      "stateMutability": "view",
      "type": "function"
    },
    {
      "inputs": [],
      "name": "INITIAL_DEPOSIT_AMOUNT",
      "outputs": [
        {
          "internalType": "uint256",
          "name": "",
          "type": "uint256"
        }
      ],
      "stateMutability": "view",
      "type": "function"
    },
    {
      "inputs": [],
      "name": "METIS",
      "outputs": [
        {
          "internalType": "contract IERC20",
          "name": "",
          "type": "address"
        }
      ],
      "stateMutability": "view",
      "type": "function"
    },
    {
      "inputs": [],
      "name": "TIMELOCK_ROLE",
      "outputs": [
        {
          "internalType": "bytes32",
          "name": "",
          "type": "bytes32"
        }
      ],
      "stateMutability": "view",
      "type": "function"
    },
    {
      "inputs": [
        {
          "internalType": "address",
          "name": "to",
          "type": "address"
        },
        {
          "internalType": "uint256",
          "name": "tokenId",
          "type": "uint256"
        }
      ],
      "name": "approve",
      "outputs": [],
      "stateMutability": "nonpayable",
      "type": "function"
    },
    {
      "inputs": [
        {
          "internalType": "address",
          "name": "owner",
          "type": "address"
        }
      ],
      "name": "balanceOf",
      "outputs": [
        {
          "internalType": "uint256",
          "name": "",
          "type": "uint256"
        }
      ],
      "stateMutability": "view",
      "type": "function"
    },
    {
      "inputs": [
        {
          "internalType": "address",
          "name": "_recipient",
          "type": "address"
        },
        {
          "internalType": "uint256",
          "name": "_nftId",
          "type": "uint256"
        }
      ],
      "name": "cancelRedemptionTicketNft",
      "outputs": [
        {
          "internalType": "uint120",
          "name": "_veMetisOut",
          "type": "uint120"
        }
      ],
      "stateMutability": "nonpayable",
      "type": "function"
    },
    {
      "inputs": [
        {
          "internalType": "uint128",
          "name": "_collectAmount",
          "type": "uint128"
        }
      ],
      "name": "collectRedemptionFees",
      "outputs": [],
      "stateMutability": "nonpayable",
      "type": "function"
    },
    {
      "inputs": [],
      "name": "config",
      "outputs": [
        {
          "internalType": "contract IConfig",
          "name": "",
          "type": "address"
        }
      ],
      "stateMutability": "view",
      "type": "function"
    },
    {
      "inputs": [
        {
          "internalType": "address",
          "name": "_recipient",
          "type": "address"
        },
        {
          "internalType": "uint120",
          "name": "_amountToRedeem",
          "type": "uint120"
        }
      ],
      "name": "enterRedemptionQueue",
      "outputs": [
        {
          "internalType": "uint256",
          "name": "_nftId",
          "type": "uint256"
        }
      ],
      "stateMutability": "nonpayable",
      "type": "function"
    },
    {
      "inputs": [
        {
          "internalType": "address",
          "name": "lpToken",
          "type": "address"
        },
        {
          "internalType": "uint64",
          "name": "reduceTime",
          "type": "uint64"
        },
        {
          "internalType": "uint256",
          "name": "redeemAmount",
          "type": "uint256"
        }
      ],
      "name": "estimateLpAmount",
      "outputs": [
        {
          "internalType": "uint256",
          "name": "lpAmount",
          "type": "uint256"
        },
        {
          "internalType": "uint256",
          "name": "amount0",
          "type": "uint256"
        },
        {
          "internalType": "uint256",
          "name": "amount1",
          "type": "uint256"
        }
      ],
      "stateMutability": "view",
      "type": "function"
    },
    {
      "inputs": [
        {
          "internalType": "uint256",
          "name": "tokenId",
          "type": "uint256"
        }
      ],
      "name": "getApproved",
      "outputs": [
        {
          "internalType": "address",
          "name": "",
          "type": "address"
        }
      ],
      "stateMutability": "view",
      "type": "function"
    },
    {
      "inputs": [],
      "name": "getNftId",
      "outputs": [
        {
          "internalType": "uint64",
          "name": "",
          "type": "uint64"
        }
      ],
      "stateMutability": "view",
      "type": "function"
    },
    {
      "inputs": [
        {
          "internalType": "uint256",
          "name": "_nftId",
          "type": "uint256"
        }
      ],
      "name": "getNftInformation",
      "outputs": [
        {
          "components": [
            {
              "internalType": "bool",
              "name": "hasBeenRedeemed",
              "type": "bool"
            },
            {
              "internalType": "uint64",
              "name": "maturity",
              "type": "uint64"
            },
            {
              "internalType": "uint120",
              "name": "amount",
              "type": "uint120"
            },
            {
              "internalType": "uint64",
              "name": "cancelRedemptionFee",
              "type": "uint64"
            },
            {
              "internalType": "uint64",
              "name": "lpLockMaturity",
              "type": "uint64"
            },
            {
              "internalType": "address",
              "name": "lpLockToken",
              "type": "address"
            },
            {
              "internalType": "uint256",
              "name": "lpLockAmount",
              "type": "uint256"
            },
            {
              "internalType": "bool",
              "name": "lpClaimed",
              "type": "bool"
            }
          ],
          "internalType": "struct RedemptionQueue.RedemptionQueueItem",
          "name": "",
          "type": "tuple"
        }
      ],
      "stateMutability": "view",
      "type": "function"
    },
    {
      "inputs": [
        {
          "internalType": "address",
          "name": "lpToken",
          "type": "address"
        },
        {
          "internalType": "uint256",
          "name": "lpAmount",
          "type": "uint256"
        },
        {
          "internalType": "uint256",
          "name": "redeemAmount",
          "type": "uint256"
        }
      ],
      "name": "getReduceTime",
      "outputs": [
        {
          "internalType": "uint64",
          "name": "",
          "type": "uint64"
        }
      ],
      "stateMutability": "view",
      "type": "function"
    },
    {
      "inputs": [
        {
          "internalType": "address",
          "name": "_config",
          "type": "address"
        }
      ],
      "name": "initialize",
      "outputs": [],
      "stateMutability": "nonpayable",
      "type": "function"
    },
    {
      "inputs": [
        {
          "internalType": "address",
          "name": "owner",
          "type": "address"
        },
        {
          "internalType": "address",
          "name": "operator",
          "type": "address"
        }
      ],
      "name": "isApprovedForAll",
      "outputs": [
        {
          "internalType": "bool",
          "name": "",
          "type": "bool"
        }
      ],
      "stateMutability": "view",
      "type": "function"
    },
    {
      "inputs": [
        {
          "internalType": "address",
          "name": "",
          "type": "address"
        }
      ],
      "name": "lpFactors",
      "outputs": [
        {
          "internalType": "uint256",
          "name": "",
          "type": "uint256"
        }
      ],
      "stateMutability": "view",
      "type": "function"
    },
    {
      "inputs": [],
      "name": "name",
      "outputs": [
        {
          "internalType": "string",
          "name": "",
          "type": "string"
        }
      ],
      "stateMutability": "view",
      "type": "function"
    },
    {
      "inputs": [
        {
          "internalType": "uint256",
          "name": "nftId",
          "type": "uint256"
        }
      ],
      "name": "nftInformation",
      "outputs": [
        {
          "internalType": "bool",
          "name": "hasBeenRedeemed",
          "type": "bool"
        },
        {
          "internalType": "uint64",
          "name": "maturity",
          "type": "uint64"
        },
        {
          "internalType": "uint120",
          "name": "amount",
          "type": "uint120"
        },
        {
          "internalType": "uint64",
          "name": "cancelRedemptionFee",
          "type": "uint64"
        },
        {
          "internalType": "uint64",
          "name": "lpLockMaturity",
          "type": "uint64"
        },
        {
          "internalType": "address",
          "name": "lpLockToken",
          "type": "address"
        },
        {
          "internalType": "uint256",
          "name": "lpLockAmount",
          "type": "uint256"
        },
        {
          "internalType": "bool",
          "name": "lpClaimed",
          "type": "bool"
        }
      ],
      "stateMutability": "view",
      "type": "function"
    },
    {
      "inputs": [
        {
          "internalType": "uint256",
          "name": "tokenId",
          "type": "uint256"
        }
      ],
      "name": "ownerOf",
      "outputs": [
        {
          "internalType": "address",
          "name": "",
          "type": "address"
        }
      ],
      "stateMutability": "view",
      "type": "function"
    },
    {
      "inputs": [
        {
          "internalType": "uint256",
          "name": "_nftId",
          "type": "uint256"
        },
        {
          "internalType": "address",
          "name": "_recipient",
          "type": "address"
        }
      ],
      "name": "redeemRedemptionTicketNft",
      "outputs": [],
      "stateMutability": "nonpayable",
      "type": "function"
    },
    {
      "inputs": [],
      "name": "redemptionQueueAccounting",
      "outputs": [
        {
          "internalType": "uint128",
          "name": "etherLiabilities",
          "type": "uint128"
        },
        {
          "internalType": "uint128",
          "name": "unclaimedFees",
          "type": "uint128"
        }
      ],
      "stateMutability": "view",
      "type": "function"
    },
    {
      "inputs": [
        {
          "internalType": "uint256",
          "name": "_nftId",
          "type": "uint256"
        },
        {
          "internalType": "address",
          "name": "lpToken",
          "type": "address"
        },
        {
          "internalType": "uint256",
          "name": "lpAmount",
          "type": "uint256"
        }
      ],
      "name": "reduceRedemptionMaturity",
      "outputs": [],
      "stateMutability": "nonpayable",
      "type": "function"
    },
    {
      "inputs": [
        {
          "internalType": "address",
          "name": "from",
          "type": "address"
        },
        {
          "internalType": "address",
          "name": "to",
          "type": "address"
        },
        {
          "internalType": "uint256",
          "name": "tokenId",
          "type": "uint256"
        }
      ],
      "name": "safeTransferFrom",
      "outputs": [],
      "stateMutability": "nonpayable",
      "type": "function"
    },
    {
      "inputs": [
        {
          "internalType": "address",
          "name": "from",
          "type": "address"
        },
        {
          "internalType": "address",
          "name": "to",
          "type": "address"
        },
        {
          "internalType": "uint256",
          "name": "tokenId",
          "type": "uint256"
        },
        {
          "internalType": "bytes",
          "name": "data",
          "type": "bytes"
        }
      ],
      "name": "safeTransferFrom",
      "outputs": [],
      "stateMutability": "nonpayable",
      "type": "function"
    },
    {
      "inputs": [
        {
          "internalType": "address",
          "name": "operator",
          "type": "address"
        },
        {
          "internalType": "bool",
          "name": "approved",
          "type": "bool"
        }
      ],
      "name": "setApprovalForAll",
      "outputs": [],
      "stateMutability": "nonpayable",
      "type": "function"
    },
    {
      "inputs": [
        {
          "internalType": "address",
          "name": "lpToken",
          "type": "address"
        },
        {
          "internalType": "uint256",
          "name": "factor",
          "type": "uint256"
        }
      ],
      "name": "setLpFactor",
      "outputs": [],
      "stateMutability": "nonpayable",
      "type": "function"
    },
    {
      "inputs": [
        {
          "internalType": "bytes4",
          "name": "interfaceId",
          "type": "bytes4"
        }
      ],
      "name": "supportsInterface",
      "outputs": [
        {
          "internalType": "bool",
          "name": "",
          "type": "bool"
        }
      ],
      "stateMutability": "view",
      "type": "function"
    },
    {
      "inputs": [],
      "name": "symbol",
      "outputs": [
        {
          "internalType": "string",
          "name": "",
          "type": "string"
        }
      ],
      "stateMutability": "view",
      "type": "function"
    },
    {
      "inputs": [
        {
          "internalType": "uint256",
          "name": "tokenId",
          "type": "uint256"
        }
      ],
      "name": "tokenURI",
      "outputs": [
        {
          "internalType": "string",
          "name": "",
          "type": "string"
        }
      ],
      "stateMutability": "view",
      "type": "function"
    },
    {
      "inputs": [
        {
          "internalType": "address",
          "name": "from",
          "type": "address"
        },
        {
          "internalType": "address",
          "name": "to",
          "type": "address"
        },
        {
          "internalType": "uint256",
          "name": "tokenId",
          "type": "uint256"
        }
      ],
      "name": "transferFrom",
      "outputs": [],
      "stateMutability": "nonpayable",
      "type": "function"
    },
    {
      "inputs": [
        {
          "internalType": "uint256",
          "name": "_nftId",
          "type": "uint256"
        }
      ],
      "name": "unlockLpToken",
      "outputs": [],
      "stateMutability": "nonpayable",
      "type": "function"
    },
    {
      "inputs": [],
      "name": "veMetis",
      "outputs": [
        {
          "internalType": "contract IERC20",
          "name": "",
          "type": "address"
        }
      ],
      "stateMutability": "view",
      "type": "function"
    },
    {
      "stateMutability": "payable",
      "type": "receive"
    }
  ],
  "bytecode": "0x608060405234801561001057600080fd5b50616c0880620000216000396000f3fe60806040526004361061021e5760003560e01c806379502c5511610123578063c4d66de8116100ab578063e63a391f1161006f578063e63a391f1461087d578063e985e9c5146108a8578063f0dadf2e146108e5578063f288a2e214610910578063fe663b811461093b5761025e565b8063c4d66de814610786578063c87b56dd146107af578063cc16ca93146107ec578063cc928d5214610829578063e52083c6146108525761025e565b8063a217fddf116100f2578063a217fddf146106a1578063a22cb465146106cc578063a28a89f4146106f5578063ad94eb9314610734578063b88d4fde1461075d5761025e565b806379502c55146105f557806392c2becc146106205780639336ce801461064b57806395d89b41146106765761025e565b80634f4798ae116101a657806364cb16881161017557806364cb168814610512578063669634fa1461053b57806370a082311461056457806375b238fc146105a1578063770b7b38146105cc5761025e565b80634f4798ae146104305780636352211e1461046d578063644c45e0146104aa578063648c7c70146104d55761025e565b8063103cf9e3116101ed578063103cf9e314610331578063118ce7091461035d57806316b796391461039a57806323b872dd146103de57806342842e0e146104075761025e565b806301ffc9a71461026357806306fdde03146102a0578063081812fc146102cb578063095ea7b3146103085761025e565b3661025e576040517f08c379a000000000000000000000000000000000000000000000000000000000815260040161025590615199565b60405180910390fd5b600080fd5b34801561026f57600080fd5b5061028a60048036038101906102859190615225565b610978565b604051610297919061526d565b60405180910390f35b3480156102ac57600080fd5b506102b5610a5a565b6040516102c29190615307565b60405180910390f35b3480156102d757600080fd5b506102f260048036038101906102ed919061535f565b610afb565b6040516102ff91906153cd565b60405180910390f35b34801561031457600080fd5b5061032f600480360381019061032a9190615414565b610b17565b005b34801561033d57600080fd5b50610346610b2d565b60405161035492919061547f565b60405180910390f35b34801561036957600080fd5b50610384600480360381019061037f91906154a8565b610b77565b604051610391919061551e565b60405180910390f35b3480156103a657600080fd5b506103c160048036038101906103bc919061535f565b610bd8565b6040516103d5989796959493929190615572565b60405180910390f35b3480156103ea57600080fd5b50610405600480360381019061040091906155f0565b610cb1565b005b34801561041357600080fd5b5061042e600480360381019061042991906155f0565b610db3565b005b34801561043c57600080fd5b506104576004803603810190610452919061566f565b610dd3565b60405161046491906156af565b60405180910390f35b34801561047957600080fd5b50610494600480360381019061048f919061535f565b610f1a565b6040516104a191906153cd565b60405180910390f35b3480156104b657600080fd5b506104bf610f2c565b6040516104cc919061551e565b60405180910390f35b3480156104e157600080fd5b506104fc60048036038101906104f791906156ca565b610f4a565b60405161050991906156af565b60405180910390f35b34801561051e57600080fd5b5061053960048036038101906105349190615723565b610f62565b005b34801561054757600080fd5b50610562600480360381019061055d919061535f565b6112b2565b005b34801561057057600080fd5b5061058b600480360381019061058691906156ca565b611623565b60405161059891906156af565b60405180910390f35b3480156105ad57600080fd5b506105b66116ec565b6040516105c39190615769565b60405180910390f35b3480156105d857600080fd5b506105f360048036038101906105ee9190615784565b611710565b005b34801561060157600080fd5b5061060a611bc6565b6040516106179190615836565b60405180910390f35b34801561062c57600080fd5b50610635611bea565b6040516106429190615769565b60405180910390f35b34801561065757600080fd5b50610660611c0e565b60405161066d9190615872565b60405180910390f35b34801561068257600080fd5b5061068b611c34565b6040516106989190615307565b60405180910390f35b3480156106ad57600080fd5b506106b6611cd5565b6040516106c39190615769565b60405180910390f35b3480156106d857600080fd5b506106f360048036038101906106ee91906158b9565b611cdc565b005b34801561070157600080fd5b5061071c60048036038101906107179190615925565b611cf2565b60405161072b93929190615978565b60405180910390f35b34801561074057600080fd5b5061075b60048036038101906107569190615414565b611f77565b005b34801561076957600080fd5b50610784600480360381019061077f9190615ae4565b612057565b005b34801561079257600080fd5b506107ad60048036038101906107a891906156ca565b61207c565b005b3480156107bb57600080fd5b506107d660048036038101906107d1919061535f565b61241d565b6040516107e39190615307565b60405180910390f35b3480156107f857600080fd5b50610813600480360381019061080e9190615414565b612486565b6040516108209190615b67565b60405180910390f35b34801561083557600080fd5b50610850600480360381019061084b9190615b82565b612aad565b005b34801561085e57600080fd5b50610867612c0a565b60405161087491906156af565b60405180910390f35b34801561088957600080fd5b50610892612c16565b60405161089f919061551e565b60405180910390f35b3480156108b457600080fd5b506108cf60048036038101906108ca9190615bc2565b612c1d565b6040516108dc919061526d565b60405180910390f35b3480156108f157600080fd5b506108fa612cbf565b6040516109079190615872565b60405180910390f35b34801561091c57600080fd5b50610925612ce5565b6040516109329190615769565b60405180910390f35b34801561094757600080fd5b50610962600480360381019061095d919061535f565b612d09565b60405161096f9190615cef565b60405180910390f35b60007f80ac58cd000000000000000000000000000000000000000000000000000000007bffffffffffffffffffffffffffffffffffffffffffffffffffffffff1916827bffffffffffffffffffffffffffffffffffffffffffffffffffffffff19161480610a4357507f5b5e139f000000000000000000000000000000000000000000000000000000007bffffffffffffffffffffffffffffffffffffffffffffffffffffffff1916827bffffffffffffffffffffffffffffffffffffffffffffffffffffffff1916145b80610a535750610a5282612eaa565b5b9050919050565b60606000610a66612f14565b9050806000018054610a7790615d3a565b80601f0160208091040260200160405190810160405280929190818152602001828054610aa390615d3a565b8015610af05780601f10610ac557610100808354040283529160200191610af0565b820191906000526020600020905b815481529060010190602001808311610ad357829003601f168201915b505050505091505090565b6000610b0682612f3c565b50610b1082612fc4565b9050919050565b610b298282610b2461300f565b613017565b5050565b60218060000160009054906101000a90046fffffffffffffffffffffffffffffffff16908060000160109054906101000a90046fffffffffffffffffffffffffffffffff16905082565b60008183602560008773ffffffffffffffffffffffffffffffffffffffff1673ffffffffffffffffffffffffffffffffffffffff16815260200190815260200160002054610bc59190615d9a565b610bcf9190615e0b565b90509392505050565b60226020528060005260406000206000915090508060000160009054906101000a900460ff16908060000160019054906101000a900467ffffffffffffffff16908060000160099054906101000a90046effffffffffffffffffffffffffffff16908060000160189054906101000a900467ffffffffffffffff16908060010160009054906101000a900467ffffffffffffffff16908060010160089054906101000a900473ffffffffffffffffffffffffffffffffffffffff16908060020154908060030160009054906101000a900460ff16905088565b600073ffffffffffffffffffffffffffffffffffffffff168273ffffffffffffffffffffffffffffffffffffffff1603610d235760006040517f64a0ae92000000000000000000000000000000000000000000000000000000008152600401610d1a91906153cd565b60405180910390fd5b6000610d378383610d3261300f565b613029565b90508373ffffffffffffffffffffffffffffffffffffffff168173ffffffffffffffffffffffffffffffffffffffff1614610dad578382826040517f64283d7b000000000000000000000000000000000000000000000000000000008152600401610da493929190615e3c565b60405180910390fd5b50505050565b610dce83838360405180602001604052806000815250612057565b505050565b6000610ddd613256565b600073ffffffffffffffffffffffffffffffffffffffff168373ffffffffffffffffffffffffffffffffffffffff1603610e4c576040517f08c379a0000000000000000000000000000000000000000000000000000000008152600401610e4390615ebf565b60405180910390fd5b6000826effffffffffffffffffffffffffffff1611610ea0576040517f08c379a0000000000000000000000000000000000000000000000000000000008152600401610e9790615f2b565b60405180910390fd5b610eaa83836132ad565b9050610f0c3330846effffffffffffffffffffffffffffff16602360009054906101000a900473ffffffffffffffffffffffffffffffffffffffff1673ffffffffffffffffffffffffffffffffffffffff16613a3f909392919063ffffffff16565b610f14613ac1565b92915050565b6000610f2582612f3c565b9050919050565b6000602060009054906101000a900467ffffffffffffffff16905090565b60256020528060005260406000206000915090505481565b7fa49807205ce4d355092ef5a8a18f56e8913cf4a201fbe287825b095693c2177560008054906101000a900473ffffffffffffffffffffffffffffffffffffffff1673ffffffffffffffffffffffffffffffffffffffff166391d1485482610fc861300f565b6040518363ffffffff1660e01b8152600401610fe5929190615f4b565b602060405180830381865afa158015611002573d6000803e3d6000fd5b505050506040513d601f19601f820116820180604052508101906110269190615f89565b6110345761103381613ada565b5b6000826fffffffffffffffffffffffffffffffff1611611089576040517f08c379a000000000000000000000000000000000000000000000000000000000815260040161108090615f2b565b60405180910390fd5b6000602160000160109054906101000a90046fffffffffffffffffffffffffffffffff169050806fffffffffffffffffffffffffffffffff16836fffffffffffffffffffffffffffffffff16111561111a5782816040517fcf1950de00000000000000000000000000000000000000000000000000000000815260040161111192919061547f565b60405180910390fd5b82602160000160108282829054906101000a90046fffffffffffffffffffffffffffffffff1661114a9190615fb6565b92506101000a8154816fffffffffffffffffffffffffffffffff02191690836fffffffffffffffffffffffffffffffff16021790555060008060009054906101000a900473ffffffffffffffffffffffffffffffffffffffff1673ffffffffffffffffffffffffffffffffffffffff1663803db96d6040518163ffffffff1660e01b8152600401602060405180830381865afa1580156111ee573d6000803e3d6000fd5b505050506040513d601f19601f82011682018060405250810190611212919061600f565b905061127381856fffffffffffffffffffffffffffffffff16602360009054906101000a900473ffffffffffffffffffffffffffffffffffffffff1673ffffffffffffffffffffffffffffffffffffffff16613aee9092919063ffffffff16565b7f80352cad384db4ac5f719c28fc1f7d83351c3fbbf124ef6759a7f2b1d35aeff481856040516112a492919061603c565b60405180910390a150505050565b6112c56112be82610f1a565b3383613b6d565b6112fb576040517fe816274400000000000000000000000000000000000000000000000000000000815260040160405180910390fd5b600060226000838152602001908152602001600020604051806101000160405290816000820160009054906101000a900460ff161515151581526020016000820160019054906101000a900467ffffffffffffffff1667ffffffffffffffff1667ffffffffffffffff1681526020016000820160099054906101000a90046effffffffffffffffffffffffffffff166effffffffffffffffffffffffffffff166effffffffffffffffffffffffffffff1681526020016000820160189054906101000a900467ffffffffffffffff1667ffffffffffffffff1667ffffffffffffffff1681526020016001820160009054906101000a900467ffffffffffffffff1667ffffffffffffffff1667ffffffffffffffff1681526020016001820160089054906101000a900473ffffffffffffffffffffffffffffffffffffffff1673ffffffffffffffffffffffffffffffffffffffff1673ffffffffffffffffffffffffffffffffffffffff168152602001600282015481526020016003820160009054906101000a900460ff161515151581525050905060008160c0015114806114a557508060e001515b156114dc576040517fd7f8a1a600000000000000000000000000000000000000000000000000000000815260040160405180910390fd5b42816080015167ffffffffffffffff161115611535574281608001516040517f375394cb00000000000000000000000000000000000000000000000000000000815260040161152c929190616065565b60405180910390fd5b60016022600084815260200190815260200160002060030160006101000a81548160ff0219169083151502179055506115c9338260c001516022600086815260200190815260200160002060010160089054906101000a900473ffffffffffffffffffffffffffffffffffffffff1673ffffffffffffffffffffffffffffffffffffffff16613aee9092919063ffffffff16565b817f052fc4ee1d2551c76d7db76a9ff4aac13733984e37d9ef2422b37e5a161e31088260a001518360c0015160405161160392919061608e565b60405180910390a280600001511561161f5761161e82613c2e565b5b5050565b60008061162e612f14565b9050600073ffffffffffffffffffffffffffffffffffffffff168373ffffffffffffffffffffffffffffffffffffffff16036116a25760006040517f89c62b6400000000000000000000000000000000000000000000000000000000815260040161169991906153cd565b60405180910390fd5b8060030160008473ffffffffffffffffffffffffffffffffffffffff1673ffffffffffffffffffffffffffffffffffffffff16815260200190815260200160002054915050919050565b7fa49807205ce4d355092ef5a8a18f56e8913cf4a201fbe287825b095693c2177581565b611718613256565b600073ffffffffffffffffffffffffffffffffffffffff168273ffffffffffffffffffffffffffffffffffffffff1603611787576040517f08c379a000000000000000000000000000000000000000000000000000000000815260040161177e90615ebf565b60405180910390fd5b600081116117ca576040517f08c379a00000000000000000000000000000000000000000000000000000000081526004016117c190615f2b565b60405180910390fd5b6117dd6117d684610f1a565b3385613b6d565b611813576040517fe816274400000000000000000000000000000000000000000000000000000000815260040160405180910390fd5b600060226000858152602001908152602001600020905060008160000160019054906101000a900467ffffffffffffffff1667ffffffffffffffff169050600082600201541115611890576040517fe7c075d500000000000000000000000000000000000000000000000000000000815260040160405180910390fd5b60004282106118aa5742826118a591906160b7565b6118ad565b60005b905060006118ec86868660000160099054906101000a90046effffffffffffffffffffffffffffff166effffffffffffffffffffffffffffff16610b77565b90508160008054906101000a900473ffffffffffffffffffffffffffffffffffffffff1673ffffffffffffffffffffffffffffffffffffffff16631c86aa356040518163ffffffff1660e01b8152600401602060405180830381865afa15801561195a573d6000803e3d6000fd5b505050506040513d601f19601f8201168201806040525081019061197e9190616100565b82611989919061612d565b67ffffffffffffffff1611156119cb576040517f2f6a6ab400000000000000000000000000000000000000000000000000000000815260040160405180910390fd5b808460000160018282829054906101000a900467ffffffffffffffff166119f29190616169565b92506101000a81548167ffffffffffffffff021916908367ffffffffffffffff160217905550848460020181905550858460010160086101000a81548173ffffffffffffffffffffffffffffffffffffffff021916908373ffffffffffffffffffffffffffffffffffffffff16021790555060008054906101000a900473ffffffffffffffffffffffffffffffffffffffff1673ffffffffffffffffffffffffffffffffffffffff1663b749eff86040518163ffffffff1660e01b8152600401602060405180830381865afa158015611acf573d6000803e3d6000fd5b505050506040513d601f19601f82011682018060405250810190611af39190616100565b67ffffffffffffffff1642611b0891906161a5565b8460010160006101000a81548167ffffffffffffffff021916908367ffffffffffffffff160217905550611b5f3330878973ffffffffffffffffffffffffffffffffffffffff16613a3f909392919063ffffffff16565b867f71f2159d09f60bf28fb365c9ac2f25357bce540dba3a5fa11630e7418cb9a7378787848860000160019054906101000a900467ffffffffffffffff16604051611bad94939291906161d9565b60405180910390a250505050611bc1613ac1565b505050565b60008054906101000a900473ffffffffffffffffffffffffffffffffffffffff1681565b7f25cf2b509f2a7f322675b2a5322b182f44ad2c03ac941a0af17c9b178f5d5d5f81565b602360009054906101000a900473ffffffffffffffffffffffffffffffffffffffff1681565b60606000611c40612f14565b9050806001018054611c5190615d3a565b80601f0160208091040260200160405190810160405280929190818152602001828054611c7d90615d3a565b8015611cca5780601f10611c9f57610100808354040283529160200191611cca565b820191906000526020600020905b815481529060010190602001808311611cad57829003601f168201915b505050505091505090565b6000801b81565b611cee611ce761300f565b8383613cb4565b5050565b6000806000602560008773ffffffffffffffffffffffffffffffffffffffff1673ffffffffffffffffffffffffffffffffffffffff168152602001908152602001600020548567ffffffffffffffff1685611d4d9190615d9a565b611d579190615e0b565b92506000808773ffffffffffffffffffffffffffffffffffffffff166040516024016040516020818303038152906040527f0902f1ac000000000000000000000000000000000000000000000000000000007bffffffffffffffffffffffffffffffffffffffffffffffffffffffff19166020820180517bffffffffffffffffffffffffffffffffffffffffffffffffffffffff8381831617835250505050604051611e039190616265565b600060405180830381855afa9150503d8060008114611e3e576040519150601f19603f3d011682016040523d82523d6000602084013e611e43565b606091505b509150915081611e88576040517f08c379a0000000000000000000000000000000000000000000000000000000008152600401611e7f906162ee565b60405180910390fd5b60008082806020019051810190611e9f9190616390565b509150915060008a73ffffffffffffffffffffffffffffffffffffffff166318160ddd6040518163ffffffff1660e01b8152600401602060405180830381865afa158015611ef1573d6000803e3d6000fd5b505050506040513d601f19601f82011682018060405250810190611f1591906163f8565b905080836dffffffffffffffffffffffffffff1689611f349190615d9a565b611f3e9190615e0b565b965080826dffffffffffffffffffffffffffff1689611f5d9190615d9a565b611f679190615e0b565b9550505050505093509350939050565b611fa07f25cf2b509f2a7f322675b2a5322b182f44ad2c03ac941a0af17c9b178f5d5d5f613ada565b600073ffffffffffffffffffffffffffffffffffffffff168273ffffffffffffffffffffffffffffffffffffffff160361200f576040517f08c379a000000000000000000000000000000000000000000000000000000000815260040161200690615ebf565b60405180910390fd5b80602560008473ffffffffffffffffffffffffffffffffffffffff1673ffffffffffffffffffffffffffffffffffffffff168152602001908152602001600020819055505050565b612062848484610cb1565b61207661206d61300f565b85858585613e32565b50505050565b6000612086613fe3565b905060008160000160089054906101000a900460ff1615905060008260000160009054906101000a900467ffffffffffffffff1690506000808267ffffffffffffffff161480156120d45750825b9050600060018367ffffffffffffffff16148015612109575060003073ffffffffffffffffffffffffffffffffffffffff163b145b905081158015612117575080155b1561214e576040517ff92ee8a900000000000000000000000000000000000000000000000000000000815260040160405180910390fd5b60018560000160006101000a81548167ffffffffffffffff021916908367ffffffffffffffff160217905550831561219e5760018560000160086101000a81548160ff0219169083151502179055505b6121a78661400b565b61221b6040518060400160405280601781526020017f76654d65746973526564656d7074696f6e5469636b65740000000000000000008152506040518060400160405280601f81526020017f76654d6574697320526564656d7074696f6e205175657565205469636b657400815250614066565b60008054906101000a900473ffffffffffffffffffffffffffffffffffffffff1673ffffffffffffffffffffffffffffffffffffffff1663e59745546040518163ffffffff1660e01b8152600401602060405180830381865afa158015612286573d6000803e3d6000fd5b505050506040513d601f19601f820116820180604052508101906122aa919061600f565b602460006101000a81548173ffffffffffffffffffffffffffffffffffffffff021916908373ffffffffffffffffffffffffffffffffffffffff16021790555060008054906101000a900473ffffffffffffffffffffffffffffffffffffffff1673ffffffffffffffffffffffffffffffffffffffff16639336ce806040518163ffffffff1660e01b8152600401602060405180830381865afa158015612355573d6000803e3d6000fd5b505050506040513d601f19601f82011682018060405250810190612379919061600f565b602360006101000a81548173ffffffffffffffffffffffffffffffffffffffff021916908373ffffffffffffffffffffffffffffffffffffffff16021790555083156124155760008560000160086101000a81548160ff0219169083151502179055507fc7f505b2f371ae2175ee4913f4499e1f2633a7b5936321eed1cdaeb6115181d2600160405161240c9190616460565b60405180910390a15b505050505050565b606061242882612f3c565b50600061243361407c565b90506000815111612453576040518060200160405280600081525061247e565b8061245d84614093565b60405160200161246e9291906164b7565b6040516020818303038152906040525b915050919050565b6000612490613256565b600073ffffffffffffffffffffffffffffffffffffffff168373ffffffffffffffffffffffffffffffffffffffff16036124ff576040517f08c379a00000000000000000000000000000000000000000000000000000000081526004016124f690615ebf565b60405180910390fd5b61251261250b83610f1a565b3384613b6d565b612548576040517fe816274400000000000000000000000000000000000000000000000000000000815260040160405180910390fd5b600060216040518060400160405290816000820160009054906101000a90046fffffffffffffffffffffffffffffffff166fffffffffffffffffffffffffffffffff166fffffffffffffffffffffffffffffffff1681526020016000820160109054906101000a90046fffffffffffffffffffffffffffffffff166fffffffffffffffffffffffffffffffff166fffffffffffffffffffffffffffffffff16815250509050600060226000858152602001908152602001600020604051806101000160405290816000820160009054906101000a900460ff161515151581526020016000820160019054906101000a900467ffffffffffffffff1667ffffffffffffffff1667ffffffffffffffff1681526020016000820160099054906101000a90046effffffffffffffffffffffffffffff166effffffffffffffffffffffffffffff166effffffffffffffffffffffffffffff1681526020016000820160189054906101000a900467ffffffffffffffff1667ffffffffffffffff1667ffffffffffffffff1681526020016001820160009054906101000a900467ffffffffffffffff1667ffffffffffffffff1667ffffffffffffffff1681526020016001820160089054906101000a900473ffffffffffffffffffffffffffffffffffffffff1673ffffffffffffffffffffffffffffffffffffffff1673ffffffffffffffffffffffffffffffffffffffff168152602001600282015481526020016003820160009054906101000a900460ff16151515158152505090506000816040015190508160000151156127c8576040517f1b4e0c3c00000000000000000000000000000000000000000000000000000000815260040160405180910390fd5b806effffffffffffffffffffffffffffff16836000018181516127eb9190615fb6565b9150906fffffffffffffffffffffffffffffffff1690816fffffffffffffffffffffffffffffffff16815250506000612865620f424067ffffffffffffffff16846060015167ffffffffffffffff16846effffffffffffffffffffffffffffff166128569190615d9a565b6128609190615e0b565b614161565b9050806effffffffffffffffffffffffffffff168460200181815161288a91906164db565b9150906fffffffffffffffffffffffffffffffff1690816fffffffffffffffffffffffffffffffff168152505080826128c3919061651f565b945060008360c00151905060008111156129185760018460e001901515908115158152505061291788828660a0015173ffffffffffffffffffffffffffffffffffffffff16613aee9092919063ffffffff16565b5b61292187613c2e565b84602160008201518160000160006101000a8154816fffffffffffffffffffffffffffffffff02191690836fffffffffffffffffffffffffffffffff16021790555060208201518160000160106101000a8154816fffffffffffffffffffffffffffffffff02191690836fffffffffffffffffffffffffffffffff16021790555090505060016022600089815260200190815260200160002060000160006101000a81548160ff0219169083151502179055508773ffffffffffffffffffffffffffffffffffffffff163373ffffffffffffffffffffffffffffffffffffffff16887fb1ce6b2969b7d61d4343479ca670be873e4e4fa738c98c347b45cc193bddb1db8986604051612a34929190616562565b60405180910390a4612a9a88876effffffffffffffffffffffffffffff16602360009054906101000a900473ffffffffffffffffffffffffffffffffffffffff1673ffffffffffffffffffffffffffffffffffffffff16613aee9092919063ffffffff16565b5050505050612aa7613ac1565b92915050565b612ab5613256565b600073ffffffffffffffffffffffffffffffffffffffff168173ffffffffffffffffffffffffffffffffffffffff1603612b24576040517f08c379a0000000000000000000000000000000000000000000000000000000008152600401612b1b90615ebf565b60405180910390fd5b6000612b2f836141c4565b9050612b938282604001516effffffffffffffffffffffffffffff16602460009054906101000a900473ffffffffffffffffffffffffffffffffffffffff1673ffffffffffffffffffffffffffffffffffffffff16613aee9092919063ffffffff16565b8173ffffffffffffffffffffffffffffffffffffffff163373ffffffffffffffffffffffffffffffffffffffff16847f2bb34f95ef23b2c81d8c149136c7ebb303c6525e5795d78e15be628068b2e5d28460400151604051612bf59190615b67565b60405180910390a450612c06613ac1565b5050565b670de0b6b3a764000081565b620f424081565b600080612c28612f14565b90508060050160008573ffffffffffffffffffffffffffffffffffffffff1673ffffffffffffffffffffffffffffffffffffffff16815260200190815260200160002060008473ffffffffffffffffffffffffffffffffffffffff1673ffffffffffffffffffffffffffffffffffffffff16815260200190815260200160002060009054906101000a900460ff1691505092915050565b602460009054906101000a900473ffffffffffffffffffffffffffffffffffffffff1681565b7ff66846415d2bf9eabda9e84793ff9c0ea96d87f50fc41e66aa16469c6a442f0581565b612d116150ae565b60226000838152602001908152602001600020604051806101000160405290816000820160009054906101000a900460ff161515151581526020016000820160019054906101000a900467ffffffffffffffff1667ffffffffffffffff1667ffffffffffffffff1681526020016000820160099054906101000a90046effffffffffffffffffffffffffffff166effffffffffffffffffffffffffffff166effffffffffffffffffffffffffffff1681526020016000820160189054906101000a900467ffffffffffffffff1667ffffffffffffffff1667ffffffffffffffff1681526020016001820160009054906101000a900467ffffffffffffffff1667ffffffffffffffff1667ffffffffffffffff1681526020016001820160089054906101000a900473ffffffffffffffffffffffffffffffffffffffff1673ffffffffffffffffffffffffffffffffffffffff1673ffffffffffffffffffffffffffffffffffffffff168152602001600282015481526020016003820160009054906101000a900460ff1615151515815250509050919050565b60007f01ffc9a7000000000000000000000000000000000000000000000000000000007bffffffffffffffffffffffffffffffffffffffffffffffffffffffff1916827bffffffffffffffffffffffffffffffffffffffffffffffffffffffff1916149050919050565b60007f80bb2b638cc20bc4d0a60d66940f3ab4a00c1d7b313497ca82fb0b4ab0079300905090565b600080612f488361460f565b9050600073ffffffffffffffffffffffffffffffffffffffff168173ffffffffffffffffffffffffffffffffffffffff1603612fbb57826040517f7e273289000000000000000000000000000000000000000000000000000000008152600401612fb291906156af565b60405180910390fd5b80915050919050565b600080612fcf612f14565b905080600401600084815260200190815260200160002060009054906101000a900473ffffffffffffffffffffffffffffffffffffffff16915050919050565b600033905090565b613024838383600161465a565b505050565b600080613034612f14565b905060006130418561460f565b9050600073ffffffffffffffffffffffffffffffffffffffff168473ffffffffffffffffffffffffffffffffffffffff16146130835761308281858761482e565b5b600073ffffffffffffffffffffffffffffffffffffffff168173ffffffffffffffffffffffffffffffffffffffff1614613116576130c560008660008061465a565b60018260030160008373ffffffffffffffffffffffffffffffffffffffff1673ffffffffffffffffffffffffffffffffffffffff168152602001908152602001600020600082825403925050819055505b600073ffffffffffffffffffffffffffffffffffffffff168673ffffffffffffffffffffffffffffffffffffffff161461319b5760018260030160008873ffffffffffffffffffffffffffffffffffffffff1673ffffffffffffffffffffffffffffffffffffffff168152602001908152602001600020600082825401925050819055505b8582600201600087815260200190815260200160002060006101000a81548173ffffffffffffffffffffffffffffffffffffffff021916908373ffffffffffffffffffffffffffffffffffffffff160217905550848673ffffffffffffffffffffffffffffffffffffffff168273ffffffffffffffffffffffffffffffffffffffff167fddf252ad1be2c89b69c2b068fc378daa952ba7f163c4a11628f55a4df523b3ef60405160405180910390a480925050509392505050565b60006132606148f2565b905060028160000154036132a0576040517f3ee5aeb500000000000000000000000000000000000000000000000000000000815260040160405180910390fd5b6002816000018190555050565b60008060216040518060400160405290816000820160009054906101000a90046fffffffffffffffffffffffffffffffff166fffffffffffffffffffffffffffffffff166fffffffffffffffffffffffffffffffff1681526020016000820160109054906101000a90046fffffffffffffffffffffffffffffffff166fffffffffffffffffffffffffffffffff166fffffffffffffffffffffffffffffffff16815250509050600061342a620f424067ffffffffffffffff1660008054906101000a900473ffffffffffffffffffffffffffffffffffffffff1673ffffffffffffffffffffffffffffffffffffffff1663458f58156040518163ffffffff1660e01b8152600401602060405180830381865afa1580156133d1573d6000803e3d6000fd5b505050506040513d601f19601f820116820180604052508101906133f59190616100565b67ffffffffffffffff16866effffffffffffffffffffffffffffff1661341b9190615d9a565b6134259190615e0b565b614161565b90506000818561343a919061651f565b9050806effffffffffffffffffffffffffffff168360000181815161345f91906164db565b9150906fffffffffffffffffffffffffffffffff1690816fffffffffffffffffffffffffffffffff1681525050816effffffffffffffffffffffffffffff16836020018181516134af91906164db565b9150906fffffffffffffffffffffffffffffffff1690816fffffffffffffffffffffffffffffffff168152505060008060009054906101000a900473ffffffffffffffffffffffffffffffffffffffff1673ffffffffffffffffffffffffffffffffffffffff16632d76710b6040518163ffffffff1660e01b8152600401602060405180830381865afa15801561354a573d6000803e3d6000fd5b505050506040513d601f19601f8201168201806040525081019061356e9190616100565b42613579919061612d565b90506040518061010001604052806000151581526020018267ffffffffffffffff168152602001836effffffffffffffffffffffffffffff16815260200160008054906101000a900473ffffffffffffffffffffffffffffffffffffffff1673ffffffffffffffffffffffffffffffffffffffff16635c0298596040518163ffffffff1660e01b8152600401602060405180830381865afa158015613622573d6000803e3d6000fd5b505050506040513d601f19601f820116820180604052508101906136469190616100565b67ffffffffffffffff168152602001600067ffffffffffffffff168152602001600073ffffffffffffffffffffffffffffffffffffffff168152602001600081526020016000151581525060226000602060009054906101000a900467ffffffffffffffff1667ffffffffffffffff16815260200190815260200160002060008201518160000160006101000a81548160ff02191690831515021790555060208201518160000160016101000a81548167ffffffffffffffff021916908367ffffffffffffffff16021790555060408201518160000160096101000a8154816effffffffffffffffffffffffffffff02191690836effffffffffffffffffffffffffffff16021790555060608201518160000160186101000a81548167ffffffffffffffff021916908367ffffffffffffffff16021790555060808201518160010160006101000a81548167ffffffffffffffff021916908367ffffffffffffffff16021790555060a08201518160010160086101000a81548173ffffffffffffffffffffffffffffffffffffffff021916908373ffffffffffffffffffffffffffffffffffffffff16021790555060c0820151816002015560e08201518160030160006101000a81548160ff02191690831515021790555090505061384c87602060009054906101000a900467ffffffffffffffff1667ffffffffffffffff1661491a565b602060009054906101000a900467ffffffffffffffff1667ffffffffffffffff1694508673ffffffffffffffffffffffffffffffffffffffff163373ffffffffffffffffffffffffffffffffffffffff16867f6d276369c2c335a7a5cd8eeda9c75ea535f37c65e580d36fd3ab8ce3d1297a0089878660008054906101000a900473ffffffffffffffffffffffffffffffffffffffff1673ffffffffffffffffffffffffffffffffffffffff16635c0298596040518163ffffffff1660e01b8152600401602060405180830381865afa15801561392d573d6000803e3d6000fd5b505050506040513d601f19601f820116820180604052508101906139519190616100565b60405161396194939291906165ed565b60405180910390a46020600081819054906101000a900467ffffffffffffffff1661398b90616632565b91906101000a81548167ffffffffffffffff021916908367ffffffffffffffff16021790555083602160008201518160000160006101000a8154816fffffffffffffffffffffffffffffffff02191690836fffffffffffffffffffffffffffffffff16021790555060208201518160000160106101000a8154816fffffffffffffffffffffffffffffffff02191690836fffffffffffffffffffffffffffffffff1602179055509050505050505092915050565b613abb848573ffffffffffffffffffffffffffffffffffffffff166323b872dd868686604051602401613a7493929190616662565b604051602081830303815290604052915060e01b6020820180517bffffffffffffffffffffffffffffffffffffffffffffffffffffffff8381831617835250505050614938565b50505050565b6000613acb6148f2565b90506001816000018190555050565b613aeb81613ae661300f565b6149da565b50565b613b68838473ffffffffffffffffffffffffffffffffffffffff1663a9059cbb8585604051602401613b2192919061608e565b604051602081830303815290604052915060e01b6020820180517bffffffffffffffffffffffffffffffffffffffffffffffffffffffff8381831617835250505050614938565b505050565b60008073ffffffffffffffffffffffffffffffffffffffff168373ffffffffffffffffffffffffffffffffffffffff1614158015613c2557508273ffffffffffffffffffffffffffffffffffffffff168473ffffffffffffffffffffffffffffffffffffffff161480613be65750613be58484612c1d565b5b80613c2457508273ffffffffffffffffffffffffffffffffffffffff16613c0c83612fc4565b73ffffffffffffffffffffffffffffffffffffffff16145b5b90509392505050565b6000613c3d6000836000613029565b9050600073ffffffffffffffffffffffffffffffffffffffff168173ffffffffffffffffffffffffffffffffffffffff1603613cb057816040517f7e273289000000000000000000000000000000000000000000000000000000008152600401613ca791906156af565b60405180910390fd5b5050565b6000613cbe612f14565b9050600073ffffffffffffffffffffffffffffffffffffffff168373ffffffffffffffffffffffffffffffffffffffff1603613d3157826040517f5b08ba18000000000000000000000000000000000000000000000000000000008152600401613d2891906153cd565b60405180910390fd5b818160050160008673ffffffffffffffffffffffffffffffffffffffff1673ffffffffffffffffffffffffffffffffffffffff16815260200190815260200160002060008573ffffffffffffffffffffffffffffffffffffffff1673ffffffffffffffffffffffffffffffffffffffff16815260200190815260200160002060006101000a81548160ff0219169083151502179055508273ffffffffffffffffffffffffffffffffffffffff168473ffffffffffffffffffffffffffffffffffffffff167f17307eab39ab6107e8899845ad3d59bd9653f200f220920489ca2b5937696c3184604051613e24919061526d565b60405180910390a350505050565b60008373ffffffffffffffffffffffffffffffffffffffff163b1115613fdc578273ffffffffffffffffffffffffffffffffffffffff1663150b7a02868685856040518563ffffffff1660e01b8152600401613e9194939291906166e3565b6020604051808303816000875af1925050508015613ecd57506040513d601f19601f82011682018060405250810190613eca9190616744565b60015b613f51573d8060008114613efd576040519150601f19603f3d011682016040523d82523d6000602084013e613f02565b606091505b506000815103613f4957836040517f64a0ae92000000000000000000000000000000000000000000000000000000008152600401613f4091906153cd565b60405180910390fd5b805181602001fd5b63150b7a0260e01b7bffffffffffffffffffffffffffffffffffffffffffffffffffffffff1916817bffffffffffffffffffffffffffffffffffffffffffffffffffffffff191614613fda57836040517f64a0ae92000000000000000000000000000000000000000000000000000000008152600401613fd191906153cd565b60405180910390fd5b505b5050505050565b60007ff0c57e16840df040f15088dc2f81fe391c3923bec73e23a9662efc9c229c6a00905090565b614013614af1565b806000806101000a81548173ffffffffffffffffffffffffffffffffffffffff021916908373ffffffffffffffffffffffffffffffffffffffff16021790555061405b614b31565b614063614b43565b50565b61406e614af1565b6140788282614b4d565b5050565b606060405180602001604052806000815250905090565b6060600060016140a284614b8a565b01905060008167ffffffffffffffff8111156140c1576140c06159b9565b5b6040519080825280601f01601f1916602001820160405280156140f35781602001600182028036833780820191505090505b509050600082602001820190505b600115614156578080600190039150507f3031323334353637383961626364656600000000000000000000000000000000600a86061a8153600a858161414a57614149615ddc565b5b04945060008503614101575b819350505050919050565b60006effffffffffffffffffffffffffffff80168211156141bc576078826040517f6dfcc6500000000000000000000000000000000000000000000000000000000081526004016141b39291906167b9565b60405180910390fd5b819050919050565b6141cc6150ae565b6141df6141d883610f1a565b3384613b6d565b614215576040517fe816274400000000000000000000000000000000000000000000000000000000815260040160405180910390fd5b60226000838152602001908152602001600020604051806101000160405290816000820160009054906101000a900460ff161515151581526020016000820160019054906101000a900467ffffffffffffffff1667ffffffffffffffff1667ffffffffffffffff1681526020016000820160099054906101000a90046effffffffffffffffffffffffffffff166effffffffffffffffffffffffffffff166effffffffffffffffffffffffffffff1681526020016000820160189054906101000a900467ffffffffffffffff1667ffffffffffffffff1667ffffffffffffffff1681526020016001820160009054906101000a900467ffffffffffffffff1667ffffffffffffffff1667ffffffffffffffff1681526020016001820160089054906101000a900473ffffffffffffffffffffffffffffffffffffffff1673ffffffffffffffffffffffffffffffffffffffff1673ffffffffffffffffffffffffffffffffffffffff168152602001600282015481526020016003820160009054906101000a900460ff16151515158152505090508060000151156143e5576040517f1b4e0c3c00000000000000000000000000000000000000000000000000000000815260040160405180910390fd5b806020015167ffffffffffffffff1642101561443e574281602001516040517f375394cb000000000000000000000000000000000000000000000000000000008152600401614435929190616065565b60405180910390fd5b80604001516effffffffffffffffffffffffffffff16602160000160008282829054906101000a90046fffffffffffffffffffffffffffffffff166144839190615fb6565b92506101000a8154816fffffffffffffffffffffffffffffffff02191690836fffffffffffffffffffffffffffffffff16021790555060008160c0015114806144cd57508060e001515b156144dc576144db82613c2e565b5b60016022600084815260200190815260200160002060000160006101000a81548160ff02191690831515021790555060008054906101000a900473ffffffffffffffffffffffffffffffffffffffff1673ffffffffffffffffffffffffffffffffffffffff16639336ce806040518163ffffffff1660e01b8152600401602060405180830381865afa158015614576573d6000803e3d6000fd5b505050506040513d601f19601f8201168201806040525081019061459a919061600f565b73ffffffffffffffffffffffffffffffffffffffff16639dc29fac3083604001516040518363ffffffff1660e01b81526004016145d89291906167e2565b600060405180830381600087803b1580156145f257600080fd5b505af1158015614606573d6000803e3d6000fd5b50505050919050565b60008061461a612f14565b905080600201600084815260200190815260200160002060009054906101000a900473ffffffffffffffffffffffffffffffffffffffff16915050919050565b6000614664612f14565b9050818061469f5750600073ffffffffffffffffffffffffffffffffffffffff168373ffffffffffffffffffffffffffffffffffffffff1614155b156147d35760006146af85612f3c565b9050600073ffffffffffffffffffffffffffffffffffffffff168473ffffffffffffffffffffffffffffffffffffffff161415801561471a57508373ffffffffffffffffffffffffffffffffffffffff168173ffffffffffffffffffffffffffffffffffffffff1614155b801561472d575061472b8185612c1d565b155b1561476f57836040517fa9fbf51f00000000000000000000000000000000000000000000000000000000815260040161476691906153cd565b60405180910390fd5b82156147d157848673ffffffffffffffffffffffffffffffffffffffff168273ffffffffffffffffffffffffffffffffffffffff167f8c5be1e5ebec7d5bd14f71427d1e84f3dd0314c0f7b2291e5b200ac8c7c3b92560405160405180910390a45b505b8481600401600086815260200190815260200160002060006101000a81548173ffffffffffffffffffffffffffffffffffffffff021916908373ffffffffffffffffffffffffffffffffffffffff1602179055505050505050565b614839838383613b6d565b6148ed57600073ffffffffffffffffffffffffffffffffffffffff168373ffffffffffffffffffffffffffffffffffffffff16036148ae57806040517f7e2732890000000000000000000000000000000000000000000000000000000081526004016148a591906156af565b60405180910390fd5b81816040517f177e802f0000000000000000000000000000000000000000000000000000000081526004016148e492919061608e565b60405180910390fd5b505050565b60007f9b779b17422d0df92223018b32b4d1fa46e071723d6817e2486d003becc55f00905090565b614934828260405180602001604052806000815250614cdd565b5050565b600080602060008451602086016000885af18061495b576040513d6000823e3d81fd5b3d925060005191505060008214614976576001811415614992565b60008473ffffffffffffffffffffffffffffffffffffffff163b145b156149d457836040517f5274afe70000000000000000000000000000000000000000000000000000000081526004016149cb91906153cd565b60405180910390fd5b50505050565b60008054906101000a900473ffffffffffffffffffffffffffffffffffffffff1673ffffffffffffffffffffffffffffffffffffffff166391d1485483836040518363ffffffff1660e01b8152600401614a35929190615f4b565b602060405180830381865afa158015614a52573d6000803e3d6000fd5b505050506040513d601f19601f82011682018060405250810190614a769190615f89565b614aed57614a8381614d01565b614a918360001c6020614d2e565b604051602001614aa29291906168a3565b6040516020818303038152906040526040517f08c379a0000000000000000000000000000000000000000000000000000000008152600401614ae49190615307565b60405180910390fd5b5050565b614af9614f74565b614b2f576040517fd7e6bcf800000000000000000000000000000000000000000000000000000000815260040160405180910390fd5b565b614b39614af1565b614b41614f94565b565b614b4b614af1565b565b614b55614af1565b6000614b5f612f14565b905082816000019081614b729190616a7f565b5081816001019081614b849190616a7f565b50505050565b600080600090507a184f03e93ff9f4daa797ed6e38ed64bf6a1f0100000000000000008310614be8577a184f03e93ff9f4daa797ed6e38ed64bf6a1f0100000000000000008381614bde57614bdd615ddc565b5b0492506040810190505b6d04ee2d6d415b85acef81000000008310614c25576d04ee2d6d415b85acef81000000008381614c1b57614c1a615ddc565b5b0492506020810190505b662386f26fc100008310614c5457662386f26fc100008381614c4a57614c49615ddc565b5b0492506010810190505b6305f5e1008310614c7d576305f5e1008381614c7357614c72615ddc565b5b0492506008810190505b6127108310614ca2576127108381614c9857614c97615ddc565b5b0492506004810190505b60648310614cc55760648381614cbb57614cba615ddc565b5b0492506002810190505b600a8310614cd4576001810190505b80915050919050565b614ce78383614fb5565b614cfc614cf261300f565b6000858585613e32565b505050565b6060614d278273ffffffffffffffffffffffffffffffffffffffff16601460ff16614d2e565b9050919050565b6060600083905060006002846002614d469190615d9a565b614d5091906161a5565b67ffffffffffffffff811115614d6957614d686159b9565b5b6040519080825280601f01601f191660200182016040528015614d9b5781602001600182028036833780820191505090505b5090507f300000000000000000000000000000000000000000000000000000000000000081600081518110614dd357614dd2616b51565b5b60200101907effffffffffffffffffffffffffffffffffffffffffffffffffffffffffffff1916908160001a9053507f780000000000000000000000000000000000000000000000000000000000000081600181518110614e3757614e36616b51565b5b60200101907effffffffffffffffffffffffffffffffffffffffffffffffffffffffffffff1916908160001a90535060006001856002614e779190615d9a565b614e8191906161a5565b90505b6001811115614f21577f3031323334353637383961626364656600000000000000000000000000000000600f841660108110614ec357614ec2616b51565b5b1a60f81b828281518110614eda57614ed9616b51565b5b60200101907effffffffffffffffffffffffffffffffffffffffffffffffffffffffffffff1916908160001a905350600483901c925080614f1a90616b80565b9050614e84565b5060008214614f695784846040517fe22e27eb000000000000000000000000000000000000000000000000000000008152600401614f60929190616ba9565b60405180910390fd5b809250505092915050565b6000614f7e613fe3565b60000160089054906101000a900460ff16905090565b614f9c614af1565b6000614fa66148f2565b90506001816000018190555050565b600073ffffffffffffffffffffffffffffffffffffffff168273ffffffffffffffffffffffffffffffffffffffff16036150275760006040517f64a0ae9200000000000000000000000000000000000000000000000000000000815260040161501e91906153cd565b60405180910390fd5b600061503583836000613029565b9050600073ffffffffffffffffffffffffffffffffffffffff168173ffffffffffffffffffffffffffffffffffffffff16146150a95760006040517f73c6ac6e0000000000000000000000000000000000000000000000000000000081526004016150a091906153cd565b60405180910390fd5b505050565b604051806101000160405280600015158152602001600067ffffffffffffffff16815260200160006effffffffffffffffffffffffffffff168152602001600067ffffffffffffffff168152602001600067ffffffffffffffff168152602001600073ffffffffffffffffffffffffffffffffffffffff168152602001600081526020016000151581525090565b600082825260208201905092915050565b7f426173653a206e6f7420737570706f7274204d65746973207472616e73666572600082015250565b600061518360208361513c565b915061518e8261514d565b602082019050919050565b600060208201905081810360008301526151b281615176565b9050919050565b6000604051905090565b600080fd5b600080fd5b60007fffffffff0000000000000000000000000000000000000000000000000000000082169050919050565b615202816151cd565b811461520d57600080fd5b50565b60008135905061521f816151f9565b92915050565b60006020828403121561523b5761523a6151c3565b5b600061524984828501615210565b91505092915050565b60008115159050919050565b61526781615252565b82525050565b6000602082019050615282600083018461525e565b92915050565b600081519050919050565b60005b838110156152b1578082015181840152602081019050615296565b60008484015250505050565b6000601f19601f8301169050919050565b60006152d982615288565b6152e3818561513c565b93506152f3818560208601615293565b6152fc816152bd565b840191505092915050565b6000602082019050818103600083015261532181846152ce565b905092915050565b6000819050919050565b61533c81615329565b811461534757600080fd5b50565b60008135905061535981615333565b92915050565b600060208284031215615375576153746151c3565b5b60006153838482850161534a565b91505092915050565b600073ffffffffffffffffffffffffffffffffffffffff82169050919050565b60006153b78261538c565b9050919050565b6153c7816153ac565b82525050565b60006020820190506153e260008301846153be565b92915050565b6153f1816153ac565b81146153fc57600080fd5b50565b60008135905061540e816153e8565b92915050565b6000806040838503121561542b5761542a6151c3565b5b6000615439858286016153ff565b925050602061544a8582860161534a565b9150509250929050565b60006fffffffffffffffffffffffffffffffff82169050919050565b61547981615454565b82525050565b60006040820190506154946000830185615470565b6154a16020830184615470565b9392505050565b6000806000606084860312156154c1576154c06151c3565b5b60006154cf868287016153ff565b93505060206154e08682870161534a565b92505060406154f18682870161534a565b9150509250925092565b600067ffffffffffffffff82169050919050565b615518816154fb565b82525050565b6000602082019050615533600083018461550f565b92915050565b60006effffffffffffffffffffffffffffff82169050919050565b61555d81615539565b82525050565b61556c81615329565b82525050565b600061010082019050615588600083018b61525e565b615595602083018a61550f565b6155a26040830189615554565b6155af606083018861550f565b6155bc608083018761550f565b6155c960a08301866153be565b6155d660c0830185615563565b6155e360e083018461525e565b9998505050505050505050565b600080600060608486031215615609576156086151c3565b5b6000615617868287016153ff565b9350506020615628868287016153ff565b92505060406156398682870161534a565b9150509250925092565b61564c81615539565b811461565757600080fd5b50565b60008135905061566981615643565b92915050565b60008060408385031215615686576156856151c3565b5b6000615694858286016153ff565b92505060206156a58582860161565a565b9150509250929050565b60006020820190506156c46000830184615563565b92915050565b6000602082840312156156e0576156df6151c3565b5b60006156ee848285016153ff565b91505092915050565b61570081615454565b811461570b57600080fd5b50565b60008135905061571d816156f7565b92915050565b600060208284031215615739576157386151c3565b5b60006157478482850161570e565b91505092915050565b6000819050919050565b61576381615750565b82525050565b600060208201905061577e600083018461575a565b92915050565b60008060006060848603121561579d5761579c6151c3565b5b60006157ab8682870161534a565b93505060206157bc868287016153ff565b92505060406157cd8682870161534a565b9150509250925092565b6000819050919050565b60006157fc6157f76157f28461538c565b6157d7565b61538c565b9050919050565b600061580e826157e1565b9050919050565b600061582082615803565b9050919050565b61583081615815565b82525050565b600060208201905061584b6000830184615827565b92915050565b600061585c82615803565b9050919050565b61586c81615851565b82525050565b60006020820190506158876000830184615863565b92915050565b61589681615252565b81146158a157600080fd5b50565b6000813590506158b38161588d565b92915050565b600080604083850312156158d0576158cf6151c3565b5b60006158de858286016153ff565b92505060206158ef858286016158a4565b9150509250929050565b615902816154fb565b811461590d57600080fd5b50565b60008135905061591f816158f9565b92915050565b60008060006060848603121561593e5761593d6151c3565b5b600061594c868287016153ff565b935050602061595d86828701615910565b925050604061596e8682870161534a565b9150509250925092565b600060608201905061598d6000830186615563565b61599a6020830185615563565b6159a76040830184615563565b949350505050565b600080fd5b600080fd5b7f4e487b7100000000000000000000000000000000000000000000000000000000600052604160045260246000fd5b6159f1826152bd565b810181811067ffffffffffffffff82111715615a1057615a0f6159b9565b5b80604052505050565b6000615a236151b9565b9050615a2f82826159e8565b919050565b600067ffffffffffffffff821115615a4f57615a4e6159b9565b5b615a58826152bd565b9050602081019050919050565b82818337600083830152505050565b6000615a87615a8284615a34565b615a19565b905082815260208101848484011115615aa357615aa26159b4565b5b615aae848285615a65565b509392505050565b600082601f830112615acb57615aca6159af565b5b8135615adb848260208601615a74565b91505092915050565b60008060008060808587031215615afe57615afd6151c3565b5b6000615b0c878288016153ff565b9450506020615b1d878288016153ff565b9350506040615b2e8782880161534a565b925050606085013567ffffffffffffffff811115615b4f57615b4e6151c8565b5b615b5b87828801615ab6565b91505092959194509250565b6000602082019050615b7c6000830184615554565b92915050565b60008060408385031215615b9957615b986151c3565b5b6000615ba78582860161534a565b9250506020615bb8858286016153ff565b9150509250929050565b60008060408385031215615bd957615bd86151c3565b5b6000615be7858286016153ff565b9250506020615bf8858286016153ff565b9150509250929050565b615c0b81615252565b82525050565b615c1a816154fb565b82525050565b615c2981615539565b82525050565b615c38816153ac565b82525050565b615c4781615329565b82525050565b61010082016000820151615c646000850182615c02565b506020820151615c776020850182615c11565b506040820151615c8a6040850182615c20565b506060820151615c9d6060850182615c11565b506080820151615cb06080850182615c11565b5060a0820151615cc360a0850182615c2f565b5060c0820151615cd660c0850182615c3e565b5060e0820151615ce960e0850182615c02565b50505050565b600061010082019050615d056000830184615c4d565b92915050565b7f4e487b7100000000000000000000000000000000000000000000000000000000600052602260045260246000fd5b60006002820490506001821680615d5257607f821691505b602082108103615d6557615d64615d0b565b5b50919050565b7f4e487b7100000000000000000000000000000000000000000000000000000000600052601160045260246000fd5b6000615da582615329565b9150615db083615329565b9250828202615dbe81615329565b91508282048414831517615dd557615dd4615d6b565b5b5092915050565b7f4e487b7100000000000000000000000000000000000000000000000000000000600052601260045260246000fd5b6000615e1682615329565b9150615e2183615329565b925082615e3157615e30615ddc565b5b828204905092915050565b6000606082019050615e5160008301866153be565b615e5e6020830185615563565b615e6b60408301846153be565b949350505050565b7f526564656d7074696f6e51756575653a207a65726f2061646472657373000000600082015250565b6000615ea9601d8361513c565b9150615eb482615e73565b602082019050919050565b60006020820190508181036000830152615ed881615e9c565b9050919050565b7f526564656d7074696f6e51756575653a20616d6f756e74206973207a65726f00600082015250565b6000615f15601f8361513c565b9150615f2082615edf565b602082019050919050565b60006020820190508181036000830152615f4481615f08565b9050919050565b6000604082019050615f60600083018561575a565b615f6d60208301846153be565b9392505050565b600081519050615f838161588d565b92915050565b600060208284031215615f9f57615f9e6151c3565b5b6000615fad84828501615f74565b91505092915050565b6000615fc182615454565b9150615fcc83615454565b925082820390506fffffffffffffffffffffffffffffffff811115615ff457615ff3615d6b565b5b92915050565b600081519050616009816153e8565b92915050565b600060208284031215616025576160246151c3565b5b600061603384828501615ffa565b91505092915050565b600060408201905061605160008301856153be565b61605e6020830184615470565b9392505050565b600060408201905061607a6000830185615563565b616087602083018461550f565b9392505050565b60006040820190506160a360008301856153be565b6160b06020830184615563565b9392505050565b60006160c282615329565b91506160cd83615329565b92508282039050818111156160e5576160e4615d6b565b5b92915050565b6000815190506160fa816158f9565b92915050565b600060208284031215616116576161156151c3565b5b6000616124848285016160eb565b91505092915050565b6000616138826154fb565b9150616143836154fb565b9250828201905067ffffffffffffffff81111561616357616162615d6b565b5b92915050565b6000616174826154fb565b915061617f836154fb565b9250828203905067ffffffffffffffff81111561619f5761619e615d6b565b5b92915050565b60006161b082615329565b91506161bb83615329565b92508282019050808211156161d3576161d2615d6b565b5b92915050565b60006080820190506161ee60008301876153be565b6161fb6020830186615563565b616208604083018561550f565b616215606083018461550f565b95945050505050565b600081519050919050565b600081905092915050565b600061623f8261621e565b6162498185616229565b9350616259818560208601615293565b80840191505092915050565b60006162718284616234565b915081905092915050565b7f526564656d7074696f6e51756575653a2067657452657365727665732066616960008201527f6c65640000000000000000000000000000000000000000000000000000000000602082015250565b60006162d860238361513c565b91506162e38261627c565b604082019050919050565b60006020820190508181036000830152616307816162cb565b9050919050565b60006dffffffffffffffffffffffffffff82169050919050565b6163318161630e565b811461633c57600080fd5b50565b60008151905061634e81616328565b92915050565b600063ffffffff82169050919050565b61636d81616354565b811461637857600080fd5b50565b60008151905061638a81616364565b92915050565b6000806000606084860312156163a9576163a86151c3565b5b60006163b78682870161633f565b93505060206163c88682870161633f565b92505060406163d98682870161637b565b9150509250925092565b6000815190506163f281615333565b92915050565b60006020828403121561640e5761640d6151c3565b5b600061641c848285016163e3565b91505092915050565b6000819050919050565b600061644a61644561644084616425565b6157d7565b6154fb565b9050919050565b61645a8161642f565b82525050565b60006020820190506164756000830184616451565b92915050565b600081905092915050565b600061649182615288565b61649b818561647b565b93506164ab818560208601615293565b80840191505092915050565b60006164c38285616486565b91506164cf8284616486565b91508190509392505050565b60006164e682615454565b91506164f183615454565b925082820190506fffffffffffffffffffffffffffffffff81111561651957616518615d6b565b5b92915050565b600061652a82615539565b915061653583615539565b925082820390506effffffffffffffffffffffffffffff81111561655c5761655b615d6b565b5b92915050565b60006040820190506165776000830185615554565b6165846020830184615554565b9392505050565b60006165a66165a161659c84615539565b6157d7565b615329565b9050919050565b6165b68161658b565b82525050565b60006165d76165d26165cd846154fb565b6157d7565b615329565b9050919050565b6165e7816165bc565b82525050565b600060808201905061660260008301876165ad565b61660f6020830186615554565b61661c604083018561550f565b61662960608301846165de565b95945050505050565b600061663d826154fb565b915067ffffffffffffffff820361665757616656615d6b565b5b600182019050919050565b600060608201905061667760008301866153be565b61668460208301856153be565b6166916040830184615563565b949350505050565b600082825260208201905092915050565b60006166b58261621e565b6166bf8185616699565b93506166cf818560208601615293565b6166d8816152bd565b840191505092915050565b60006080820190506166f860008301876153be565b61670560208301866153be565b6167126040830185615563565b818103606083015261672481846166aa565b905095945050505050565b60008151905061673e816151f9565b92915050565b60006020828403121561675a576167596151c3565b5b60006167688482850161672f565b91505092915050565b6000819050919050565b600060ff82169050919050565b60006167a361679e61679984616771565b6157d7565b61677b565b9050919050565b6167b381616788565b82525050565b60006040820190506167ce60008301856167aa565b6167db6020830184615563565b9392505050565b60006040820190506167f760008301856153be565b61680460208301846165ad565b9392505050565b7f416363657373436f6e74726f6c3a206163636f756e7420000000000000000000600082015250565b600061684160178361647b565b915061684c8261680b565b601782019050919050565b7f206973206d697373696e6720726f6c6520000000000000000000000000000000600082015250565b600061688d60118361647b565b915061689882616857565b601182019050919050565b60006168ae82616834565b91506168ba8285616486565b91506168c582616880565b91506168d18284616486565b91508190509392505050565b60008190508160005260206000209050919050565b60006020601f8301049050919050565b600082821b905092915050565b60006008830261693f7fffffffffffffffffffffffffffffffffffffffffffffffffffffffffffffffff82616902565b6169498683616902565b95508019841693508086168417925050509392505050565b600061697c61697761697284615329565b6157d7565b615329565b9050919050565b6000819050919050565b61699683616961565b6169aa6169a282616983565b84845461690f565b825550505050565b600090565b6169bf6169b2565b6169ca81848461698d565b505050565b5b818110156169ee576169e36000826169b7565b6001810190506169d0565b5050565b601f821115616a3357616a04816168dd565b616a0d846168f2565b81016020851015616a1c578190505b616a30616a28856168f2565b8301826169cf565b50505b505050565b600082821c905092915050565b6000616a5660001984600802616a38565b1980831691505092915050565b6000616a6f8383616a45565b9150826002028217905092915050565b616a8882615288565b67ffffffffffffffff811115616aa157616aa06159b9565b5b616aab8254615d3a565b616ab68282856169f2565b600060209050601f831160018114616ae95760008415616ad7578287015190505b616ae18582616a63565b865550616b49565b601f198416616af7866168dd565b60005b82811015616b1f57848901518255600182019150602085019450602081019050616afa565b86831015616b3c5784890151616b38601f891682616a45565b8355505b6001600288020188555050505b505050505050565b7f4e487b7100000000000000000000000000000000000000000000000000000000600052603260045260246000fd5b6000616b8b82615329565b915060008203616b9e57616b9d615d6b565b5b600182039050919050565b6000604082019050616bbe6000830185615563565b616bcb6020830184615563565b939250505056fea26469706673582212208259b85193f650a747216993cd173950193b7c67b9f5ef74ecd19ab6078f99dd64736f6c63430008140033",
  "linkReferences": {},
  "deployedLinkReferences": {}
}