{
  "_format": "hh-sol-artifact-1",
  "contractName": "RedemptionQueue",
  "sourceName": "contracts/RedemptionQueue.sol",
  "abi": [
    {
      "inputs": [],
      "name": "AlreadyRedeemed",
      "type": "error"
    },
    {
      "inputs": [],
      "name": "AlreadyReducedMaturity",
      "type": "error"
    },
    {
      "inputs": [
        {
          "internalType": "address",
          "name": "sender",
          "type": "address"
        },
        {
          "internalType": "uint256",
          "name": "tokenId",
          "type": "uint256"
        },
        {
          "internalType": "address",
          "name": "owner",
          "type": "address"
        }
      ],
      "name": "ERC721IncorrectOwner",
      "type": "error"
    },
    {
      "inputs": [
        {
          "internalType": "address",
          "name": "operator",
          "type": "address"
        },
        {
          "internalType": "uint256",
          "name": "tokenId",
          "type": "uint256"
        }
      ],
      "name": "ERC721InsufficientApproval",
      "type": "error"
    },
    {
      "inputs": [
        {
          "internalType": "address",
          "name": "approver",
          "type": "address"
        }
      ],
      "name": "ERC721InvalidApprover",
      "type": "error"
    },
    {
      "inputs": [
        {
          "internalType": "address",
          "name": "operator",
          "type": "address"
        }
      ],
      "name": "ERC721InvalidOperator",
      "type": "error"
    },
    {
      "inputs": [
        {
          "internalType": "address",
          "name": "owner",
          "type": "address"
        }
      ],
      "name": "ERC721InvalidOwner",
      "type": "error"
    },
    {
      "inputs": [
        {
          "internalType": "address",
          "name": "receiver",
          "type": "address"
        }
      ],
      "name": "ERC721InvalidReceiver",
      "type": "error"
    },
    {
      "inputs": [
        {
          "internalType": "address",
          "name": "sender",
          "type": "address"
        }
      ],
      "name": "ERC721InvalidSender",
      "type": "error"
    },
    {
      "inputs": [
        {
          "internalType": "uint256",
          "name": "tokenId",
          "type": "uint256"
        }
      ],
      "name": "ERC721NonexistentToken",
      "type": "error"
    },
    {
      "inputs": [],
      "name": "Erc721CallerNotOwnerOrApproved",
      "type": "error"
    },
    {
      "inputs": [
        {
          "internalType": "uint128",
          "name": "collectAmount",
          "type": "uint128"
        },
        {
          "internalType": "uint128",
          "name": "accruedAmount",
          "type": "uint128"
        }
      ],
      "name": "ExceedsCollectedFees",
      "type": "error"
    },
    {
      "inputs": [],
      "name": "InvalidInitialization",
      "type": "error"
    },
    {
      "inputs": [],
      "name": "LpTokenNotLocked",
      "type": "error"
    },
    {
      "inputs": [],
      "name": "NotInitializing",
      "type": "error"
    },
    {
      "inputs": [
        {
          "internalType": "uint256",
          "name": "currentTime",
          "type": "uint256"
        },
        {
          "internalType": "uint64",
          "name": "maturity",
          "type": "uint64"
        }
      ],
      "name": "NotMatureYet",
      "type": "error"
    },
    {
      "inputs": [],
      "name": "ReduceTimeExceedsLimit",
      "type": "error"
    },
    {
      "inputs": [],
      "name": "ReentrancyGuardReentrantCall",
      "type": "error"
    },
    {
      "inputs": [
        {
          "internalType": "uint8",
          "name": "bits",
          "type": "uint8"
        },
        {
          "internalType": "uint256",
          "name": "value",
          "type": "uint256"
        }
      ],
      "name": "SafeCastOverflowedUintDowncast",
      "type": "error"
    },
    {
      "inputs": [
        {
          "internalType": "address",
          "name": "token",
          "type": "address"
        }
      ],
      "name": "SafeERC20FailedOperation",
      "type": "error"
    },
    {
      "inputs": [
        {
          "internalType": "uint256",
          "name": "value",
          "type": "uint256"
        },
        {
          "internalType": "uint256",
          "name": "length",
          "type": "uint256"
        }
      ],
      "name": "StringsInsufficientHexLength",
      "type": "error"
    },
    {
      "anonymous": false,
      "inputs": [
        {
          "indexed": true,
          "internalType": "address",
          "name": "owner",
          "type": "address"
        },
        {
          "indexed": true,
          "internalType": "address",
          "name": "approved",
          "type": "address"
        },
        {
          "indexed": true,
          "internalType": "uint256",
          "name": "tokenId",
          "type": "uint256"
        }
      ],
      "name": "Approval",
      "type": "event"
    },
    {
      "anonymous": false,
      "inputs": [
        {
          "indexed": true,
          "internalType": "address",
          "name": "owner",
          "type": "address"
        },
        {
          "indexed": true,
          "internalType": "address",
          "name": "operator",
          "type": "address"
        },
        {
          "indexed": false,
          "internalType": "bool",
          "name": "approved",
          "type": "bool"
        }
      ],
      "name": "ApprovalForAll",
      "type": "event"
    },
    {
      "anonymous": false,
      "inputs": [
        {
          "indexed": true,
          "internalType": "uint256",
          "name": "nftId",
          "type": "uint256"
        },
        {
          "indexed": true,
          "internalType": "address",
          "name": "sender",
          "type": "address"
        },
        {
          "indexed": true,
          "internalType": "address",
          "name": "recipient",
          "type": "address"
        },
        {
          "indexed": false,
          "internalType": "uint120",
          "name": "veMetisOut",
          "type": "uint120"
        },
        {
          "indexed": false,
          "internalType": "uint120",
          "name": "cancelRedemptionFee",
          "type": "uint120"
        }
      ],
      "name": "CancelRedemptionTicketNft",
      "type": "event"
    },
    {
      "anonymous": false,
      "inputs": [
        {
          "indexed": false,
          "internalType": "address",
          "name": "recipient",
          "type": "address"
        },
        {
          "indexed": false,
          "internalType": "uint128",
          "name": "collectAmount",
          "type": "uint128"
        }
      ],
      "name": "CollectRedemptionFees",
      "type": "event"
    },
    {
      "anonymous": false,
      "inputs": [
        {
          "indexed": true,
          "internalType": "uint256",
          "name": "nftId",
          "type": "uint256"
        },
        {
          "indexed": true,
          "internalType": "address",
          "name": "sender",
          "type": "address"
        },
        {
          "indexed": true,
          "internalType": "address",
          "name": "recipient",
          "type": "address"
        },
        {
          "indexed": false,
          "internalType": "uint256",
          "name": "amountVeMetisRedeemed",
          "type": "uint256"
        },
        {
          "indexed": false,
          "internalType": "uint120",
          "name": "redemptionFeeAmount",
          "type": "uint120"
        },
        {
          "indexed": false,
          "internalType": "uint64",
          "name": "maturityTimestamp",
          "type": "uint64"
        },
        {
          "indexed": false,
          "internalType": "uint256",
          "name": "cancelRedemptionFee",
          "type": "uint256"
        }
      ],
      "name": "EnterRedemptionQueue",
      "type": "event"
    },
    {
      "anonymous": false,
      "inputs": [
        {
          "indexed": false,
          "internalType": "uint64",
          "name": "version",
          "type": "uint64"
        }
      ],
      "name": "Initialized",
      "type": "event"
    },
    {
      "anonymous": false,
      "inputs": [
        {
          "indexed": true,
          "internalType": "uint256",
          "name": "nftId",
          "type": "uint256"
        },
        {
          "indexed": true,
          "internalType": "address",
          "name": "sender",
          "type": "address"
        },
        {
          "indexed": true,
          "internalType": "address",
          "name": "recipient",
          "type": "address"
        },
        {
          "indexed": false,
          "internalType": "uint120",
          "name": "amountOut",
          "type": "uint120"
        }
      ],
      "name": "RedeemRedemptionTicketNft",
      "type": "event"
    },
    {
      "anonymous": false,
      "inputs": [
        {
          "indexed": true,
          "internalType": "uint256",
          "name": "nftId",
          "type": "uint256"
        },
        {
          "indexed": false,
          "internalType": "address",
          "name": "lpLockToken",
          "type": "address"
        },
        {
          "indexed": false,
          "internalType": "uint256",
          "name": "lpLockAmount",
          "type": "uint256"
        },
        {
          "indexed": false,
          "internalType": "uint64",
          "name": "reduceTime",
          "type": "uint64"
        },
        {
          "indexed": false,
          "internalType": "uint64",
          "name": "newMaturityTimestamp",
          "type": "uint64"
        }
      ],
      "name": "ReduceRedemptionMaturity",
      "type": "event"
    },
    {
      "anonymous": false,
      "inputs": [
        {
          "indexed": true,
          "internalType": "address",
          "name": "from",
          "type": "address"
        },
        {
          "indexed": true,
          "internalType": "address",
          "name": "to",
          "type": "address"
        },
        {
          "indexed": true,
          "internalType": "uint256",
          "name": "tokenId",
          "type": "uint256"
        }
      ],
      "name": "Transfer",
      "type": "event"
    },
    {
      "anonymous": false,
      "inputs": [
        {
          "indexed": true,
          "internalType": "uint256",
          "name": "nftId",
          "type": "uint256"
        },
        {
          "indexed": false,
          "internalType": "address",
          "name": "lpToken",
          "type": "address"
        },
        {
          "indexed": false,
          "internalType": "uint256",
          "name": "lpAmount",
          "type": "uint256"
        }
      ],
      "name": "UnlockLpToken",
      "type": "event"
    },
    {
      "inputs": [],
      "name": "ADMIN_ROLE",
      "outputs": [
        {
          "internalType": "bytes32",
          "name": "",
          "type": "bytes32"
        }
      ],
      "stateMutability": "view",
      "type": "function"
    },
    {
      "inputs": [],
      "name": "BACKEND_ROLE",
      "outputs": [
        {
          "internalType": "bytes32",
          "name": "",
          "type": "bytes32"
        }
      ],
      "stateMutability": "view",
      "type": "function"
    },
    {
      "inputs": [],
      "name": "DEFAULT_ADMIN_ROLE",
      "outputs": [
        {
          "internalType": "bytes32",
          "name": "",
          "type": "bytes32"
        }
      ],
      "stateMutability": "view",
      "type": "function"
    },
    {
      "inputs": [],
      "name": "FEE_PRECISION",
      "outputs": [
        {
          "internalType": "uint64",
          "name": "",
          "type": "uint64"
        }
      ],
      "stateMutability": "view",
      "type": "function"
    },
    {
      "inputs": [],
      "name": "INITIAL_DEPOSIT_AMOUNT",
      "outputs": [
        {
          "internalType": "uint256",
          "name": "",
          "type": "uint256"
        }
      ],
      "stateMutability": "view",
      "type": "function"
    },
    {
      "inputs": [],
      "name": "METIS",
      "outputs": [
        {
          "internalType": "contract IERC20",
          "name": "",
          "type": "address"
        }
      ],
      "stateMutability": "view",
      "type": "function"
    },
    {
      "inputs": [],
      "name": "TIMELOCK_ROLE",
      "outputs": [
        {
          "internalType": "bytes32",
          "name": "",
          "type": "bytes32"
        }
      ],
      "stateMutability": "view",
      "type": "function"
    },
    {
      "inputs": [
        {
          "internalType": "address",
          "name": "to",
          "type": "address"
        },
        {
          "internalType": "uint256",
          "name": "tokenId",
          "type": "uint256"
        }
      ],
      "name": "approve",
      "outputs": [],
      "stateMutability": "nonpayable",
      "type": "function"
    },
    {
      "inputs": [
        {
          "internalType": "address",
          "name": "owner",
          "type": "address"
        }
      ],
      "name": "balanceOf",
      "outputs": [
        {
          "internalType": "uint256",
          "name": "",
          "type": "uint256"
        }
      ],
      "stateMutability": "view",
      "type": "function"
    },
    {
      "inputs": [
        {
          "internalType": "address",
          "name": "_recipient",
          "type": "address"
        },
        {
          "internalType": "uint256",
          "name": "_nftId",
          "type": "uint256"
        }
      ],
      "name": "cancelRedemptionTicketNft",
      "outputs": [
        {
          "internalType": "uint120",
          "name": "_veMetisOut",
          "type": "uint120"
        }
      ],
      "stateMutability": "nonpayable",
      "type": "function"
    },
    {
      "inputs": [
        {
          "internalType": "uint128",
          "name": "_collectAmount",
          "type": "uint128"
        }
      ],
      "name": "collectRedemptionFees",
      "outputs": [],
      "stateMutability": "nonpayable",
      "type": "function"
    },
    {
      "inputs": [],
      "name": "config",
      "outputs": [
        {
          "internalType": "contract IConfig",
          "name": "",
          "type": "address"
        }
      ],
      "stateMutability": "view",
      "type": "function"
    },
    {
      "inputs": [
        {
          "internalType": "address",
          "name": "_recipient",
          "type": "address"
        },
        {
          "internalType": "uint120",
          "name": "_amountToRedeem",
          "type": "uint120"
        }
      ],
      "name": "enterRedemptionQueue",
      "outputs": [
        {
          "internalType": "uint256",
          "name": "_nftId",
          "type": "uint256"
        }
      ],
      "stateMutability": "nonpayable",
      "type": "function"
    },
    {
      "inputs": [
        {
          "internalType": "address",
          "name": "lpToken",
          "type": "address"
        },
        {
          "internalType": "uint64",
          "name": "reduceTime",
          "type": "uint64"
        },
        {
          "internalType": "uint256",
          "name": "redeemAmount",
          "type": "uint256"
        }
      ],
      "name": "estimateLpAmount",
      "outputs": [
        {
          "internalType": "uint256",
          "name": "lpAmount",
          "type": "uint256"
        },
        {
          "internalType": "uint256",
          "name": "amount0",
          "type": "uint256"
        },
        {
          "internalType": "uint256",
          "name": "amount1",
          "type": "uint256"
        }
      ],
      "stateMutability": "view",
      "type": "function"
    },
    {
      "inputs": [
        {
          "internalType": "uint256",
          "name": "tokenId",
          "type": "uint256"
        }
      ],
      "name": "getApproved",
      "outputs": [
        {
          "internalType": "address",
          "name": "",
          "type": "address"
        }
      ],
      "stateMutability": "view",
      "type": "function"
    },
    {
      "inputs": [],
      "name": "getNftId",
      "outputs": [
        {
          "internalType": "uint64",
          "name": "",
          "type": "uint64"
        }
      ],
      "stateMutability": "view",
      "type": "function"
    },
    {
      "inputs": [
        {
          "internalType": "address",
          "name": "lpToken",
          "type": "address"
        },
        {
          "internalType": "uint256",
          "name": "lpAmount",
          "type": "uint256"
        },
        {
          "internalType": "uint256",
          "name": "redeemAmount",
          "type": "uint256"
        }
      ],
      "name": "getReduceTime",
      "outputs": [
        {
          "internalType": "uint64",
          "name": "",
          "type": "uint64"
        }
      ],
      "stateMutability": "view",
      "type": "function"
    },
    {
      "inputs": [
        {
          "internalType": "address",
          "name": "_config",
          "type": "address"
        }
      ],
      "name": "initialize",
      "outputs": [],
      "stateMutability": "nonpayable",
      "type": "function"
    },
    {
      "inputs": [
        {
          "internalType": "address",
          "name": "owner",
          "type": "address"
        },
        {
          "internalType": "address",
          "name": "operator",
          "type": "address"
        }
      ],
      "name": "isApprovedForAll",
      "outputs": [
        {
          "internalType": "bool",
          "name": "",
          "type": "bool"
        }
      ],
      "stateMutability": "view",
      "type": "function"
    },
    {
      "inputs": [
        {
          "internalType": "address",
          "name": "",
          "type": "address"
        }
      ],
      "name": "lpFactors",
      "outputs": [
        {
          "internalType": "uint256",
          "name": "",
          "type": "uint256"
        }
      ],
      "stateMutability": "view",
      "type": "function"
    },
    {
      "inputs": [],
      "name": "name",
      "outputs": [
        {
          "internalType": "string",
          "name": "",
          "type": "string"
        }
      ],
      "stateMutability": "view",
      "type": "function"
    },
    {
      "inputs": [
        {
          "internalType": "uint256",
          "name": "nftId",
          "type": "uint256"
        }
      ],
      "name": "nftInformation",
      "outputs": [
        {
          "internalType": "bool",
          "name": "hasBeenRedeemed",
          "type": "bool"
        },
        {
          "internalType": "uint64",
          "name": "maturity",
          "type": "uint64"
        },
        {
          "internalType": "uint120",
          "name": "amount",
          "type": "uint120"
        },
        {
          "internalType": "uint64",
          "name": "cancelRedemptionFee",
          "type": "uint64"
        },
        {
          "internalType": "uint64",
          "name": "lpLockMaturity",
          "type": "uint64"
        },
        {
          "internalType": "address",
          "name": "lpLockToken",
          "type": "address"
        },
        {
          "internalType": "uint256",
          "name": "lpLockAmount",
          "type": "uint256"
        },
        {
          "internalType": "bool",
          "name": "lpClaimed",
          "type": "bool"
        }
      ],
      "stateMutability": "view",
      "type": "function"
    },
    {
      "inputs": [
        {
          "internalType": "uint256",
          "name": "tokenId",
          "type": "uint256"
        }
      ],
      "name": "ownerOf",
      "outputs": [
        {
          "internalType": "address",
          "name": "",
          "type": "address"
        }
      ],
      "stateMutability": "view",
      "type": "function"
    },
    {
      "inputs": [
        {
          "internalType": "uint256",
          "name": "_nftId",
          "type": "uint256"
        },
        {
          "internalType": "address",
          "name": "_recipient",
          "type": "address"
        }
      ],
      "name": "redeemRedemptionTicketNft",
      "outputs": [],
      "stateMutability": "nonpayable",
      "type": "function"
    },
    {
      "inputs": [],
      "name": "redemptionQueueAccounting",
      "outputs": [
        {
          "internalType": "uint128",
          "name": "etherLiabilities",
          "type": "uint128"
        },
        {
          "internalType": "uint128",
          "name": "unclaimedFees",
          "type": "uint128"
        }
      ],
      "stateMutability": "view",
      "type": "function"
    },
    {
      "inputs": [
        {
          "internalType": "uint256",
          "name": "_nftId",
          "type": "uint256"
        },
        {
          "internalType": "address",
          "name": "lpToken",
          "type": "address"
        },
        {
          "internalType": "uint256",
          "name": "lpAmount",
          "type": "uint256"
        }
      ],
      "name": "reduceRedemptionMaturity",
      "outputs": [],
      "stateMutability": "nonpayable",
      "type": "function"
    },
    {
      "inputs": [
        {
          "internalType": "address",
          "name": "from",
          "type": "address"
        },
        {
          "internalType": "address",
          "name": "to",
          "type": "address"
        },
        {
          "internalType": "uint256",
          "name": "tokenId",
          "type": "uint256"
        }
      ],
      "name": "safeTransferFrom",
      "outputs": [],
      "stateMutability": "nonpayable",
      "type": "function"
    },
    {
      "inputs": [
        {
          "internalType": "address",
          "name": "from",
          "type": "address"
        },
        {
          "internalType": "address",
          "name": "to",
          "type": "address"
        },
        {
          "internalType": "uint256",
          "name": "tokenId",
          "type": "uint256"
        },
        {
          "internalType": "bytes",
          "name": "data",
          "type": "bytes"
        }
      ],
      "name": "safeTransferFrom",
      "outputs": [],
      "stateMutability": "nonpayable",
      "type": "function"
    },
    {
      "inputs": [
        {
          "internalType": "address",
          "name": "operator",
          "type": "address"
        },
        {
          "internalType": "bool",
          "name": "approved",
          "type": "bool"
        }
      ],
      "name": "setApprovalForAll",
      "outputs": [],
      "stateMutability": "nonpayable",
      "type": "function"
    },
    {
      "inputs": [
        {
          "internalType": "address",
          "name": "lpToken",
          "type": "address"
        },
        {
          "internalType": "uint256",
          "name": "factor",
          "type": "uint256"
        }
      ],
      "name": "setLpFactor",
      "outputs": [],
      "stateMutability": "nonpayable",
      "type": "function"
    },
    {
      "inputs": [
        {
          "internalType": "bytes4",
          "name": "interfaceId",
          "type": "bytes4"
        }
      ],
      "name": "supportsInterface",
      "outputs": [
        {
          "internalType": "bool",
          "name": "",
          "type": "bool"
        }
      ],
      "stateMutability": "view",
      "type": "function"
    },
    {
      "inputs": [],
      "name": "symbol",
      "outputs": [
        {
          "internalType": "string",
          "name": "",
          "type": "string"
        }
      ],
      "stateMutability": "view",
      "type": "function"
    },
    {
      "inputs": [
        {
          "internalType": "uint256",
          "name": "tokenId",
          "type": "uint256"
        }
      ],
      "name": "tokenURI",
      "outputs": [
        {
          "internalType": "string",
          "name": "",
          "type": "string"
        }
      ],
      "stateMutability": "view",
      "type": "function"
    },
    {
      "inputs": [
        {
          "internalType": "address",
          "name": "from",
          "type": "address"
        },
        {
          "internalType": "address",
          "name": "to",
          "type": "address"
        },
        {
          "internalType": "uint256",
          "name": "tokenId",
          "type": "uint256"
        }
      ],
      "name": "transferFrom",
      "outputs": [],
      "stateMutability": "nonpayable",
      "type": "function"
    },
    {
      "inputs": [
        {
          "internalType": "uint256",
          "name": "_nftId",
          "type": "uint256"
        }
      ],
      "name": "unlockLpToken",
      "outputs": [],
      "stateMutability": "nonpayable",
      "type": "function"
    },
    {
      "inputs": [],
      "name": "veMetis",
      "outputs": [
        {
          "internalType": "contract IERC20",
          "name": "",
          "type": "address"
        }
      ],
      "stateMutability": "view",
      "type": "function"
    },
    {
      "stateMutability": "payable",
      "type": "receive"
    }
  ],
  "bytecode": "0x608060405234801561001057600080fd5b5061691680620000216000396000f3fe6080604052600436106102135760003560e01c806379502c5511610118578063c4d66de8116100a0578063e52083c61161006f578063e52083c614610847578063e63a391f14610872578063e985e9c51461089d578063f0dadf2e146108da578063f288a2e21461090557610253565b8063c4d66de81461077b578063c87b56dd146107a4578063cc16ca93146107e1578063cc928d521461081e57610253565b8063a217fddf116100e7578063a217fddf14610696578063a22cb465146106c1578063a28a89f4146106ea578063ad94eb9314610729578063b88d4fde1461075257610253565b806379502c55146105ea57806392c2becc146106155780639336ce801461064057806395d89b411461066b57610253565b80634f4798ae1161019b57806364cb16881161016a57806364cb168814610507578063669634fa1461053057806370a082311461055957806375b238fc14610596578063770b7b38146105c157610253565b80634f4798ae146104255780636352211e14610462578063644c45e01461049f578063648c7c70146104ca57610253565b8063103cf9e3116101e2578063103cf9e314610326578063118ce7091461035257806316b796391461038f57806323b872dd146103d357806342842e0e146103fc57610253565b806301ffc9a71461025857806306fdde0314610295578063081812fc146102c0578063095ea7b3146102fd57610253565b36610253576040517f08c379a000000000000000000000000000000000000000000000000000000000815260040161024a90614fb0565b60405180910390fd5b600080fd5b34801561026457600080fd5b5061027f600480360381019061027a919061503c565b610930565b60405161028c9190615084565b60405180910390f35b3480156102a157600080fd5b506102aa610a12565b6040516102b7919061511e565b60405180910390f35b3480156102cc57600080fd5b506102e760048036038101906102e29190615176565b610ab3565b6040516102f491906151e4565b60405180910390f35b34801561030957600080fd5b50610324600480360381019061031f919061522b565b610acf565b005b34801561033257600080fd5b5061033b610ae5565b604051610349929190615296565b60405180910390f35b34801561035e57600080fd5b50610379600480360381019061037491906152bf565b610b2f565b6040516103869190615335565b60405180910390f35b34801561039b57600080fd5b506103b660048036038101906103b19190615176565b610b90565b6040516103ca989796959493929190615389565b60405180910390f35b3480156103df57600080fd5b506103fa60048036038101906103f59190615407565b610c69565b005b34801561040857600080fd5b50610423600480360381019061041e9190615407565b610d6b565b005b34801561043157600080fd5b5061044c60048036038101906104479190615486565b610d8b565b60405161045991906154c6565b60405180910390f35b34801561046e57600080fd5b5061048960048036038101906104849190615176565b610ed2565b60405161049691906151e4565b60405180910390f35b3480156104ab57600080fd5b506104b4610ee4565b6040516104c19190615335565b60405180910390f35b3480156104d657600080fd5b506104f160048036038101906104ec91906154e1565b610f02565b6040516104fe91906154c6565b60405180910390f35b34801561051357600080fd5b5061052e6004803603810190610529919061553a565b610f1a565b005b34801561053c57600080fd5b5061055760048036038101906105529190615176565b61126a565b005b34801561056557600080fd5b50610580600480360381019061057b91906154e1565b6115db565b60405161058d91906154c6565b60405180910390f35b3480156105a257600080fd5b506105ab6116a4565b6040516105b89190615580565b60405180910390f35b3480156105cd57600080fd5b506105e860048036038101906105e3919061559b565b6116c8565b005b3480156105f657600080fd5b506105ff611b7e565b60405161060c919061564d565b60405180910390f35b34801561062157600080fd5b5061062a611ba2565b6040516106379190615580565b60405180910390f35b34801561064c57600080fd5b50610655611bc6565b6040516106629190615689565b60405180910390f35b34801561067757600080fd5b50610680611bec565b60405161068d919061511e565b60405180910390f35b3480156106a257600080fd5b506106ab611c8d565b6040516106b89190615580565b60405180910390f35b3480156106cd57600080fd5b506106e860048036038101906106e391906156d0565b611c94565b005b3480156106f657600080fd5b50610711600480360381019061070c919061573c565b611caa565b6040516107209392919061578f565b60405180910390f35b34801561073557600080fd5b50610750600480360381019061074b919061522b565b611f2f565b005b34801561075e57600080fd5b50610779600480360381019061077491906158fb565b61200f565b005b34801561078757600080fd5b506107a2600480360381019061079d91906154e1565b612034565b005b3480156107b057600080fd5b506107cb60048036038101906107c69190615176565b6123d5565b6040516107d8919061511e565b60405180910390f35b3480156107ed57600080fd5b506108086004803603810190610803919061522b565b61243e565b604051610815919061597e565b60405180910390f35b34801561082a57600080fd5b5061084560048036038101906108409190615999565b612a65565b005b34801561085357600080fd5b5061085c612bc2565b60405161086991906154c6565b60405180910390f35b34801561087e57600080fd5b50610887612bce565b6040516108949190615335565b60405180910390f35b3480156108a957600080fd5b506108c460048036038101906108bf91906159d9565b612bd5565b6040516108d19190615084565b60405180910390f35b3480156108e657600080fd5b506108ef612c77565b6040516108fc9190615689565b60405180910390f35b34801561091157600080fd5b5061091a612c9d565b6040516109279190615580565b60405180910390f35b60007f80ac58cd000000000000000000000000000000000000000000000000000000007bffffffffffffffffffffffffffffffffffffffffffffffffffffffff1916827bffffffffffffffffffffffffffffffffffffffffffffffffffffffff191614806109fb57507f5b5e139f000000000000000000000000000000000000000000000000000000007bffffffffffffffffffffffffffffffffffffffffffffffffffffffff1916827bffffffffffffffffffffffffffffffffffffffffffffffffffffffff1916145b80610a0b5750610a0a82612cc1565b5b9050919050565b60606000610a1e612d2b565b9050806000018054610a2f90615a48565b80601f0160208091040260200160405190810160405280929190818152602001828054610a5b90615a48565b8015610aa85780601f10610a7d57610100808354040283529160200191610aa8565b820191906000526020600020905b815481529060010190602001808311610a8b57829003601f168201915b505050505091505090565b6000610abe82612d53565b50610ac882612ddb565b9050919050565b610ae18282610adc612e26565b612e2e565b5050565b60218060000160009054906101000a90046fffffffffffffffffffffffffffffffff16908060000160109054906101000a90046fffffffffffffffffffffffffffffffff16905082565b60008183602560008773ffffffffffffffffffffffffffffffffffffffff1673ffffffffffffffffffffffffffffffffffffffff16815260200190815260200160002054610b7d9190615aa8565b610b879190615b19565b90509392505050565b60226020528060005260406000206000915090508060000160009054906101000a900460ff16908060000160019054906101000a900467ffffffffffffffff16908060000160099054906101000a90046effffffffffffffffffffffffffffff16908060000160189054906101000a900467ffffffffffffffff16908060010160009054906101000a900467ffffffffffffffff16908060010160089054906101000a900473ffffffffffffffffffffffffffffffffffffffff16908060020154908060030160009054906101000a900460ff16905088565b600073ffffffffffffffffffffffffffffffffffffffff168273ffffffffffffffffffffffffffffffffffffffff1603610cdb5760006040517f64a0ae92000000000000000000000000000000000000000000000000000000008152600401610cd291906151e4565b60405180910390fd5b6000610cef8383610cea612e26565b612e40565b90508373ffffffffffffffffffffffffffffffffffffffff168173ffffffffffffffffffffffffffffffffffffffff1614610d65578382826040517f64283d7b000000000000000000000000000000000000000000000000000000008152600401610d5c93929190615b4a565b60405180910390fd5b50505050565b610d868383836040518060200160405280600081525061200f565b505050565b6000610d9561306d565b600073ffffffffffffffffffffffffffffffffffffffff168373ffffffffffffffffffffffffffffffffffffffff1603610e04576040517f08c379a0000000000000000000000000000000000000000000000000000000008152600401610dfb90615bcd565b60405180910390fd5b6000826effffffffffffffffffffffffffffff1611610e58576040517f08c379a0000000000000000000000000000000000000000000000000000000008152600401610e4f90615c39565b60405180910390fd5b610e6283836130c4565b9050610ec43330846effffffffffffffffffffffffffffff16602360009054906101000a900473ffffffffffffffffffffffffffffffffffffffff1673ffffffffffffffffffffffffffffffffffffffff16613856909392919063ffffffff16565b610ecc6138d8565b92915050565b6000610edd82612d53565b9050919050565b6000602060009054906101000a900467ffffffffffffffff16905090565b60256020528060005260406000206000915090505481565b7fa49807205ce4d355092ef5a8a18f56e8913cf4a201fbe287825b095693c2177560008054906101000a900473ffffffffffffffffffffffffffffffffffffffff1673ffffffffffffffffffffffffffffffffffffffff166391d1485482610f80612e26565b6040518363ffffffff1660e01b8152600401610f9d929190615c59565b602060405180830381865afa158015610fba573d6000803e3d6000fd5b505050506040513d601f19601f82011682018060405250810190610fde9190615c97565b610fec57610feb816138f1565b5b6000826fffffffffffffffffffffffffffffffff1611611041576040517f08c379a000000000000000000000000000000000000000000000000000000000815260040161103890615c39565b60405180910390fd5b6000602160000160109054906101000a90046fffffffffffffffffffffffffffffffff169050806fffffffffffffffffffffffffffffffff16836fffffffffffffffffffffffffffffffff1611156110d25782816040517fcf1950de0000000000000000000000000000000000000000000000000000000081526004016110c9929190615296565b60405180910390fd5b82602160000160108282829054906101000a90046fffffffffffffffffffffffffffffffff166111029190615cc4565b92506101000a8154816fffffffffffffffffffffffffffffffff02191690836fffffffffffffffffffffffffffffffff16021790555060008060009054906101000a900473ffffffffffffffffffffffffffffffffffffffff1673ffffffffffffffffffffffffffffffffffffffff1663803db96d6040518163ffffffff1660e01b8152600401602060405180830381865afa1580156111a6573d6000803e3d6000fd5b505050506040513d601f19601f820116820180604052508101906111ca9190615d1d565b905061122b81856fffffffffffffffffffffffffffffffff16602360009054906101000a900473ffffffffffffffffffffffffffffffffffffffff1673ffffffffffffffffffffffffffffffffffffffff166139059092919063ffffffff16565b7f80352cad384db4ac5f719c28fc1f7d83351c3fbbf124ef6759a7f2b1d35aeff4818560405161125c929190615d4a565b60405180910390a150505050565b61127d61127682610ed2565b3383613984565b6112b3576040517fe816274400000000000000000000000000000000000000000000000000000000815260040160405180910390fd5b600060226000838152602001908152602001600020604051806101000160405290816000820160009054906101000a900460ff161515151581526020016000820160019054906101000a900467ffffffffffffffff1667ffffffffffffffff1667ffffffffffffffff1681526020016000820160099054906101000a90046effffffffffffffffffffffffffffff166effffffffffffffffffffffffffffff166effffffffffffffffffffffffffffff1681526020016000820160189054906101000a900467ffffffffffffffff1667ffffffffffffffff1667ffffffffffffffff1681526020016001820160009054906101000a900467ffffffffffffffff1667ffffffffffffffff1667ffffffffffffffff1681526020016001820160089054906101000a900473ffffffffffffffffffffffffffffffffffffffff1673ffffffffffffffffffffffffffffffffffffffff1673ffffffffffffffffffffffffffffffffffffffff168152602001600282015481526020016003820160009054906101000a900460ff161515151581525050905060008160c00151148061145d57508060e001515b15611494576040517fd7f8a1a600000000000000000000000000000000000000000000000000000000815260040160405180910390fd5b42816080015167ffffffffffffffff1611156114ed574281608001516040517f375394cb0000000000000000000000000000000000000000000000000000000081526004016114e4929190615d73565b60405180910390fd5b60016022600084815260200190815260200160002060030160006101000a81548160ff021916908315150217905550611581338260c001516022600086815260200190815260200160002060010160089054906101000a900473ffffffffffffffffffffffffffffffffffffffff1673ffffffffffffffffffffffffffffffffffffffff166139059092919063ffffffff16565b817f052fc4ee1d2551c76d7db76a9ff4aac13733984e37d9ef2422b37e5a161e31088260a001518360c001516040516115bb929190615d9c565b60405180910390a28060000151156115d7576115d682613a45565b5b5050565b6000806115e6612d2b565b9050600073ffffffffffffffffffffffffffffffffffffffff168373ffffffffffffffffffffffffffffffffffffffff160361165a5760006040517f89c62b6400000000000000000000000000000000000000000000000000000000815260040161165191906151e4565b60405180910390fd5b8060030160008473ffffffffffffffffffffffffffffffffffffffff1673ffffffffffffffffffffffffffffffffffffffff16815260200190815260200160002054915050919050565b7fa49807205ce4d355092ef5a8a18f56e8913cf4a201fbe287825b095693c2177581565b6116d061306d565b600073ffffffffffffffffffffffffffffffffffffffff168273ffffffffffffffffffffffffffffffffffffffff160361173f576040517f08c379a000000000000000000000000000000000000000000000000000000000815260040161173690615bcd565b60405180910390fd5b60008111611782576040517f08c379a000000000000000000000000000000000000000000000000000000000815260040161177990615c39565b60405180910390fd5b61179561178e84610ed2565b3385613984565b6117cb576040517fe816274400000000000000000000000000000000000000000000000000000000815260040160405180910390fd5b600060226000858152602001908152602001600020905060008160000160019054906101000a900467ffffffffffffffff1667ffffffffffffffff169050600082600201541115611848576040517fe7c075d500000000000000000000000000000000000000000000000000000000815260040160405180910390fd5b600042821061186257428261185d9190615dc5565b611865565b60005b905060006118a486868660000160099054906101000a90046effffffffffffffffffffffffffffff166effffffffffffffffffffffffffffff16610b2f565b90508160008054906101000a900473ffffffffffffffffffffffffffffffffffffffff1673ffffffffffffffffffffffffffffffffffffffff16631c86aa356040518163ffffffff1660e01b8152600401602060405180830381865afa158015611912573d6000803e3d6000fd5b505050506040513d601f19601f820116820180604052508101906119369190615e0e565b826119419190615e3b565b67ffffffffffffffff161115611983576040517f2f6a6ab400000000000000000000000000000000000000000000000000000000815260040160405180910390fd5b808460000160018282829054906101000a900467ffffffffffffffff166119aa9190615e77565b92506101000a81548167ffffffffffffffff021916908367ffffffffffffffff160217905550848460020181905550858460010160086101000a81548173ffffffffffffffffffffffffffffffffffffffff021916908373ffffffffffffffffffffffffffffffffffffffff16021790555060008054906101000a900473ffffffffffffffffffffffffffffffffffffffff1673ffffffffffffffffffffffffffffffffffffffff1663b749eff86040518163ffffffff1660e01b8152600401602060405180830381865afa158015611a87573d6000803e3d6000fd5b505050506040513d601f19601f82011682018060405250810190611aab9190615e0e565b67ffffffffffffffff1642611ac09190615eb3565b8460010160006101000a81548167ffffffffffffffff021916908367ffffffffffffffff160217905550611b173330878973ffffffffffffffffffffffffffffffffffffffff16613856909392919063ffffffff16565b867f71f2159d09f60bf28fb365c9ac2f25357bce540dba3a5fa11630e7418cb9a7378787848860000160019054906101000a900467ffffffffffffffff16604051611b659493929190615ee7565b60405180910390a250505050611b796138d8565b505050565b60008054906101000a900473ffffffffffffffffffffffffffffffffffffffff1681565b7f25cf2b509f2a7f322675b2a5322b182f44ad2c03ac941a0af17c9b178f5d5d5f81565b602360009054906101000a900473ffffffffffffffffffffffffffffffffffffffff1681565b60606000611bf8612d2b565b9050806001018054611c0990615a48565b80601f0160208091040260200160405190810160405280929190818152602001828054611c3590615a48565b8015611c825780601f10611c5757610100808354040283529160200191611c82565b820191906000526020600020905b815481529060010190602001808311611c6557829003601f168201915b505050505091505090565b6000801b81565b611ca6611c9f612e26565b8383613acb565b5050565b6000806000602560008773ffffffffffffffffffffffffffffffffffffffff1673ffffffffffffffffffffffffffffffffffffffff168152602001908152602001600020548567ffffffffffffffff1685611d059190615aa8565b611d0f9190615b19565b92506000808773ffffffffffffffffffffffffffffffffffffffff166040516024016040516020818303038152906040527f0902f1ac000000000000000000000000000000000000000000000000000000007bffffffffffffffffffffffffffffffffffffffffffffffffffffffff19166020820180517bffffffffffffffffffffffffffffffffffffffffffffffffffffffff8381831617835250505050604051611dbb9190615f73565b600060405180830381855afa9150503d8060008114611df6576040519150601f19603f3d011682016040523d82523d6000602084013e611dfb565b606091505b509150915081611e40576040517f08c379a0000000000000000000000000000000000000000000000000000000008152600401611e3790615ffc565b60405180910390fd5b60008082806020019051810190611e57919061609e565b509150915060008a73ffffffffffffffffffffffffffffffffffffffff166318160ddd6040518163ffffffff1660e01b8152600401602060405180830381865afa158015611ea9573d6000803e3d6000fd5b505050506040513d601f19601f82011682018060405250810190611ecd9190616106565b905080836dffffffffffffffffffffffffffff1689611eec9190615aa8565b611ef69190615b19565b965080826dffffffffffffffffffffffffffff1689611f159190615aa8565b611f1f9190615b19565b9550505050505093509350939050565b611f587f25cf2b509f2a7f322675b2a5322b182f44ad2c03ac941a0af17c9b178f5d5d5f6138f1565b600073ffffffffffffffffffffffffffffffffffffffff168273ffffffffffffffffffffffffffffffffffffffff1603611fc7576040517f08c379a0000000000000000000000000000000000000000000000000000000008152600401611fbe90615bcd565b60405180910390fd5b80602560008473ffffffffffffffffffffffffffffffffffffffff1673ffffffffffffffffffffffffffffffffffffffff168152602001908152602001600020819055505050565b61201a848484610c69565b61202e612025612e26565b85858585613c49565b50505050565b600061203e613dfa565b905060008160000160089054906101000a900460ff1615905060008260000160009054906101000a900467ffffffffffffffff1690506000808267ffffffffffffffff1614801561208c5750825b9050600060018367ffffffffffffffff161480156120c1575060003073ffffffffffffffffffffffffffffffffffffffff163b145b9050811580156120cf575080155b15612106576040517ff92ee8a900000000000000000000000000000000000000000000000000000000815260040160405180910390fd5b60018560000160006101000a81548167ffffffffffffffff021916908367ffffffffffffffff16021790555083156121565760018560000160086101000a81548160ff0219169083151502179055505b61215f86613e22565b6121d36040518060400160405280601781526020017f76654d65746973526564656d7074696f6e5469636b65740000000000000000008152506040518060400160405280601f81526020017f76654d6574697320526564656d7074696f6e205175657565205469636b657400815250613e7d565b60008054906101000a900473ffffffffffffffffffffffffffffffffffffffff1673ffffffffffffffffffffffffffffffffffffffff1663e59745546040518163ffffffff1660e01b8152600401602060405180830381865afa15801561223e573d6000803e3d6000fd5b505050506040513d601f19601f820116820180604052508101906122629190615d1d565b602460006101000a81548173ffffffffffffffffffffffffffffffffffffffff021916908373ffffffffffffffffffffffffffffffffffffffff16021790555060008054906101000a900473ffffffffffffffffffffffffffffffffffffffff1673ffffffffffffffffffffffffffffffffffffffff16639336ce806040518163ffffffff1660e01b8152600401602060405180830381865afa15801561230d573d6000803e3d6000fd5b505050506040513d601f19601f820116820180604052508101906123319190615d1d565b602360006101000a81548173ffffffffffffffffffffffffffffffffffffffff021916908373ffffffffffffffffffffffffffffffffffffffff16021790555083156123cd5760008560000160086101000a81548160ff0219169083151502179055507fc7f505b2f371ae2175ee4913f4499e1f2633a7b5936321eed1cdaeb6115181d260016040516123c4919061616e565b60405180910390a15b505050505050565b60606123e082612d53565b5060006123eb613e93565b9050600081511161240b5760405180602001604052806000815250612436565b8061241584613eaa565b6040516020016124269291906161c5565b6040516020818303038152906040525b915050919050565b600061244861306d565b600073ffffffffffffffffffffffffffffffffffffffff168373ffffffffffffffffffffffffffffffffffffffff16036124b7576040517f08c379a00000000000000000000000000000000000000000000000000000000081526004016124ae90615bcd565b60405180910390fd5b6124ca6124c383610ed2565b3384613984565b612500576040517fe816274400000000000000000000000000000000000000000000000000000000815260040160405180910390fd5b600060216040518060400160405290816000820160009054906101000a90046fffffffffffffffffffffffffffffffff166fffffffffffffffffffffffffffffffff166fffffffffffffffffffffffffffffffff1681526020016000820160109054906101000a90046fffffffffffffffffffffffffffffffff166fffffffffffffffffffffffffffffffff166fffffffffffffffffffffffffffffffff16815250509050600060226000858152602001908152602001600020604051806101000160405290816000820160009054906101000a900460ff161515151581526020016000820160019054906101000a900467ffffffffffffffff1667ffffffffffffffff1667ffffffffffffffff1681526020016000820160099054906101000a90046effffffffffffffffffffffffffffff166effffffffffffffffffffffffffffff166effffffffffffffffffffffffffffff1681526020016000820160189054906101000a900467ffffffffffffffff1667ffffffffffffffff1667ffffffffffffffff1681526020016001820160009054906101000a900467ffffffffffffffff1667ffffffffffffffff1667ffffffffffffffff1681526020016001820160089054906101000a900473ffffffffffffffffffffffffffffffffffffffff1673ffffffffffffffffffffffffffffffffffffffff1673ffffffffffffffffffffffffffffffffffffffff168152602001600282015481526020016003820160009054906101000a900460ff1615151515815250509050600081604001519050816000015115612780576040517f1b4e0c3c00000000000000000000000000000000000000000000000000000000815260040160405180910390fd5b806effffffffffffffffffffffffffffff16836000018181516127a39190615cc4565b9150906fffffffffffffffffffffffffffffffff1690816fffffffffffffffffffffffffffffffff1681525050600061281d620f424067ffffffffffffffff16846060015167ffffffffffffffff16846effffffffffffffffffffffffffffff1661280e9190615aa8565b6128189190615b19565b613f78565b9050806effffffffffffffffffffffffffffff168460200181815161284291906161e9565b9150906fffffffffffffffffffffffffffffffff1690816fffffffffffffffffffffffffffffffff1681525050808261287b919061622d565b945060008360c00151905060008111156128d05760018460e00190151590811515815250506128cf88828660a0015173ffffffffffffffffffffffffffffffffffffffff166139059092919063ffffffff16565b5b6128d987613a45565b84602160008201518160000160006101000a8154816fffffffffffffffffffffffffffffffff02191690836fffffffffffffffffffffffffffffffff16021790555060208201518160000160106101000a8154816fffffffffffffffffffffffffffffffff02191690836fffffffffffffffffffffffffffffffff16021790555090505060016022600089815260200190815260200160002060000160006101000a81548160ff0219169083151502179055508773ffffffffffffffffffffffffffffffffffffffff163373ffffffffffffffffffffffffffffffffffffffff16887fb1ce6b2969b7d61d4343479ca670be873e4e4fa738c98c347b45cc193bddb1db89866040516129ec929190616270565b60405180910390a4612a5288876effffffffffffffffffffffffffffff16602360009054906101000a900473ffffffffffffffffffffffffffffffffffffffff1673ffffffffffffffffffffffffffffffffffffffff166139059092919063ffffffff16565b5050505050612a5f6138d8565b92915050565b612a6d61306d565b600073ffffffffffffffffffffffffffffffffffffffff168173ffffffffffffffffffffffffffffffffffffffff1603612adc576040517f08c379a0000000000000000000000000000000000000000000000000000000008152600401612ad390615bcd565b60405180910390fd5b6000612ae783613fdb565b9050612b4b8282604001516effffffffffffffffffffffffffffff16602460009054906101000a900473ffffffffffffffffffffffffffffffffffffffff1673ffffffffffffffffffffffffffffffffffffffff166139059092919063ffffffff16565b8173ffffffffffffffffffffffffffffffffffffffff163373ffffffffffffffffffffffffffffffffffffffff16847f2bb34f95ef23b2c81d8c149136c7ebb303c6525e5795d78e15be628068b2e5d28460400151604051612bad919061597e565b60405180910390a450612bbe6138d8565b5050565b670de0b6b3a764000081565b620f424081565b600080612be0612d2b565b90508060050160008573ffffffffffffffffffffffffffffffffffffffff1673ffffffffffffffffffffffffffffffffffffffff16815260200190815260200160002060008473ffffffffffffffffffffffffffffffffffffffff1673ffffffffffffffffffffffffffffffffffffffff16815260200190815260200160002060009054906101000a900460ff1691505092915050565b602460009054906101000a900473ffffffffffffffffffffffffffffffffffffffff1681565b7ff66846415d2bf9eabda9e84793ff9c0ea96d87f50fc41e66aa16469c6a442f0581565b60007f01ffc9a7000000000000000000000000000000000000000000000000000000007bffffffffffffffffffffffffffffffffffffffffffffffffffffffff1916827bffffffffffffffffffffffffffffffffffffffffffffffffffffffff1916149050919050565b60007f80bb2b638cc20bc4d0a60d66940f3ab4a00c1d7b313497ca82fb0b4ab0079300905090565b600080612d5f83614426565b9050600073ffffffffffffffffffffffffffffffffffffffff168173ffffffffffffffffffffffffffffffffffffffff1603612dd257826040517f7e273289000000000000000000000000000000000000000000000000000000008152600401612dc991906154c6565b60405180910390fd5b80915050919050565b600080612de6612d2b565b905080600401600084815260200190815260200160002060009054906101000a900473ffffffffffffffffffffffffffffffffffffffff16915050919050565b600033905090565b612e3b8383836001614471565b505050565b600080612e4b612d2b565b90506000612e5885614426565b9050600073ffffffffffffffffffffffffffffffffffffffff168473ffffffffffffffffffffffffffffffffffffffff1614612e9a57612e99818587614645565b5b600073ffffffffffffffffffffffffffffffffffffffff168173ffffffffffffffffffffffffffffffffffffffff1614612f2d57612edc600086600080614471565b60018260030160008373ffffffffffffffffffffffffffffffffffffffff1673ffffffffffffffffffffffffffffffffffffffff168152602001908152602001600020600082825403925050819055505b600073ffffffffffffffffffffffffffffffffffffffff168673ffffffffffffffffffffffffffffffffffffffff1614612fb25760018260030160008873ffffffffffffffffffffffffffffffffffffffff1673ffffffffffffffffffffffffffffffffffffffff168152602001908152602001600020600082825401925050819055505b8582600201600087815260200190815260200160002060006101000a81548173ffffffffffffffffffffffffffffffffffffffff021916908373ffffffffffffffffffffffffffffffffffffffff160217905550848673ffffffffffffffffffffffffffffffffffffffff168273ffffffffffffffffffffffffffffffffffffffff167fddf252ad1be2c89b69c2b068fc378daa952ba7f163c4a11628f55a4df523b3ef60405160405180910390a480925050509392505050565b6000613077614709565b905060028160000154036130b7576040517f3ee5aeb500000000000000000000000000000000000000000000000000000000815260040160405180910390fd5b6002816000018190555050565b60008060216040518060400160405290816000820160009054906101000a90046fffffffffffffffffffffffffffffffff166fffffffffffffffffffffffffffffffff166fffffffffffffffffffffffffffffffff1681526020016000820160109054906101000a90046fffffffffffffffffffffffffffffffff166fffffffffffffffffffffffffffffffff166fffffffffffffffffffffffffffffffff168152505090506000613241620f424067ffffffffffffffff1660008054906101000a900473ffffffffffffffffffffffffffffffffffffffff1673ffffffffffffffffffffffffffffffffffffffff1663458f58156040518163ffffffff1660e01b8152600401602060405180830381865afa1580156131e8573d6000803e3d6000fd5b505050506040513d601f19601f8201168201806040525081019061320c9190615e0e565b67ffffffffffffffff16866effffffffffffffffffffffffffffff166132329190615aa8565b61323c9190615b19565b613f78565b905060008185613251919061622d565b9050806effffffffffffffffffffffffffffff168360000181815161327691906161e9565b9150906fffffffffffffffffffffffffffffffff1690816fffffffffffffffffffffffffffffffff1681525050816effffffffffffffffffffffffffffff16836020018181516132c691906161e9565b9150906fffffffffffffffffffffffffffffffff1690816fffffffffffffffffffffffffffffffff168152505060008060009054906101000a900473ffffffffffffffffffffffffffffffffffffffff1673ffffffffffffffffffffffffffffffffffffffff16632d76710b6040518163ffffffff1660e01b8152600401602060405180830381865afa158015613361573d6000803e3d6000fd5b505050506040513d601f19601f820116820180604052508101906133859190615e0e565b426133909190615e3b565b90506040518061010001604052806000151581526020018267ffffffffffffffff168152602001836effffffffffffffffffffffffffffff16815260200160008054906101000a900473ffffffffffffffffffffffffffffffffffffffff1673ffffffffffffffffffffffffffffffffffffffff16635c0298596040518163ffffffff1660e01b8152600401602060405180830381865afa158015613439573d6000803e3d6000fd5b505050506040513d601f19601f8201168201806040525081019061345d9190615e0e565b67ffffffffffffffff168152602001600067ffffffffffffffff168152602001600073ffffffffffffffffffffffffffffffffffffffff168152602001600081526020016000151581525060226000602060009054906101000a900467ffffffffffffffff1667ffffffffffffffff16815260200190815260200160002060008201518160000160006101000a81548160ff02191690831515021790555060208201518160000160016101000a81548167ffffffffffffffff021916908367ffffffffffffffff16021790555060408201518160000160096101000a8154816effffffffffffffffffffffffffffff02191690836effffffffffffffffffffffffffffff16021790555060608201518160000160186101000a81548167ffffffffffffffff021916908367ffffffffffffffff16021790555060808201518160010160006101000a81548167ffffffffffffffff021916908367ffffffffffffffff16021790555060a08201518160010160086101000a81548173ffffffffffffffffffffffffffffffffffffffff021916908373ffffffffffffffffffffffffffffffffffffffff16021790555060c0820151816002015560e08201518160030160006101000a81548160ff02191690831515021790555090505061366387602060009054906101000a900467ffffffffffffffff1667ffffffffffffffff16614731565b602060009054906101000a900467ffffffffffffffff1667ffffffffffffffff1694508673ffffffffffffffffffffffffffffffffffffffff163373ffffffffffffffffffffffffffffffffffffffff16867f6d276369c2c335a7a5cd8eeda9c75ea535f37c65e580d36fd3ab8ce3d1297a0089878660008054906101000a900473ffffffffffffffffffffffffffffffffffffffff1673ffffffffffffffffffffffffffffffffffffffff16635c0298596040518163ffffffff1660e01b8152600401602060405180830381865afa158015613744573d6000803e3d6000fd5b505050506040513d601f19601f820116820180604052508101906137689190615e0e565b60405161377894939291906162fb565b60405180910390a46020600081819054906101000a900467ffffffffffffffff166137a290616340565b91906101000a81548167ffffffffffffffff021916908367ffffffffffffffff16021790555083602160008201518160000160006101000a8154816fffffffffffffffffffffffffffffffff02191690836fffffffffffffffffffffffffffffffff16021790555060208201518160000160106101000a8154816fffffffffffffffffffffffffffffffff02191690836fffffffffffffffffffffffffffffffff1602179055509050505050505092915050565b6138d2848573ffffffffffffffffffffffffffffffffffffffff166323b872dd86868660405160240161388b93929190616370565b604051602081830303815290604052915060e01b6020820180517bffffffffffffffffffffffffffffffffffffffffffffffffffffffff838183161783525050505061474f565b50505050565b60006138e2614709565b90506001816000018190555050565b613902816138fd612e26565b6147f1565b50565b61397f838473ffffffffffffffffffffffffffffffffffffffff1663a9059cbb8585604051602401613938929190615d9c565b604051602081830303815290604052915060e01b6020820180517bffffffffffffffffffffffffffffffffffffffffffffffffffffffff838183161783525050505061474f565b505050565b60008073ffffffffffffffffffffffffffffffffffffffff168373ffffffffffffffffffffffffffffffffffffffff1614158015613a3c57508273ffffffffffffffffffffffffffffffffffffffff168473ffffffffffffffffffffffffffffffffffffffff1614806139fd57506139fc8484612bd5565b5b80613a3b57508273ffffffffffffffffffffffffffffffffffffffff16613a2383612ddb565b73ffffffffffffffffffffffffffffffffffffffff16145b5b90509392505050565b6000613a546000836000612e40565b9050600073ffffffffffffffffffffffffffffffffffffffff168173ffffffffffffffffffffffffffffffffffffffff1603613ac757816040517f7e273289000000000000000000000000000000000000000000000000000000008152600401613abe91906154c6565b60405180910390fd5b5050565b6000613ad5612d2b565b9050600073ffffffffffffffffffffffffffffffffffffffff168373ffffffffffffffffffffffffffffffffffffffff1603613b4857826040517f5b08ba18000000000000000000000000000000000000000000000000000000008152600401613b3f91906151e4565b60405180910390fd5b818160050160008673ffffffffffffffffffffffffffffffffffffffff1673ffffffffffffffffffffffffffffffffffffffff16815260200190815260200160002060008573ffffffffffffffffffffffffffffffffffffffff1673ffffffffffffffffffffffffffffffffffffffff16815260200190815260200160002060006101000a81548160ff0219169083151502179055508273ffffffffffffffffffffffffffffffffffffffff168473ffffffffffffffffffffffffffffffffffffffff167f17307eab39ab6107e8899845ad3d59bd9653f200f220920489ca2b5937696c3184604051613c3b9190615084565b60405180910390a350505050565b60008373ffffffffffffffffffffffffffffffffffffffff163b1115613df3578273ffffffffffffffffffffffffffffffffffffffff1663150b7a02868685856040518563ffffffff1660e01b8152600401613ca894939291906163f1565b6020604051808303816000875af1925050508015613ce457506040513d601f19601f82011682018060405250810190613ce19190616452565b60015b613d68573d8060008114613d14576040519150601f19603f3d011682016040523d82523d6000602084013e613d19565b606091505b506000815103613d6057836040517f64a0ae92000000000000000000000000000000000000000000000000000000008152600401613d5791906151e4565b60405180910390fd5b805181602001fd5b63150b7a0260e01b7bffffffffffffffffffffffffffffffffffffffffffffffffffffffff1916817bffffffffffffffffffffffffffffffffffffffffffffffffffffffff191614613df157836040517f64a0ae92000000000000000000000000000000000000000000000000000000008152600401613de891906151e4565b60405180910390fd5b505b5050505050565b60007ff0c57e16840df040f15088dc2f81fe391c3923bec73e23a9662efc9c229c6a00905090565b613e2a614908565b806000806101000a81548173ffffffffffffffffffffffffffffffffffffffff021916908373ffffffffffffffffffffffffffffffffffffffff160217905550613e72614948565b613e7a61495a565b50565b613e85614908565b613e8f8282614964565b5050565b606060405180602001604052806000815250905090565b606060006001613eb9846149a1565b01905060008167ffffffffffffffff811115613ed857613ed76157d0565b5b6040519080825280601f01601f191660200182016040528015613f0a5781602001600182028036833780820191505090505b509050600082602001820190505b600115613f6d578080600190039150507f3031323334353637383961626364656600000000000000000000000000000000600a86061a8153600a8581613f6157613f60615aea565b5b04945060008503613f18575b819350505050919050565b60006effffffffffffffffffffffffffffff8016821115613fd3576078826040517f6dfcc650000000000000000000000000000000000000000000000000000000008152600401613fca9291906164c7565b60405180910390fd5b819050919050565b613fe3614ec5565b613ff6613fef83610ed2565b3384613984565b61402c576040517fe816274400000000000000000000000000000000000000000000000000000000815260040160405180910390fd5b60226000838152602001908152602001600020604051806101000160405290816000820160009054906101000a900460ff161515151581526020016000820160019054906101000a900467ffffffffffffffff1667ffffffffffffffff1667ffffffffffffffff1681526020016000820160099054906101000a90046effffffffffffffffffffffffffffff166effffffffffffffffffffffffffffff166effffffffffffffffffffffffffffff1681526020016000820160189054906101000a900467ffffffffffffffff1667ffffffffffffffff1667ffffffffffffffff1681526020016001820160009054906101000a900467ffffffffffffffff1667ffffffffffffffff1667ffffffffffffffff1681526020016001820160089054906101000a900473ffffffffffffffffffffffffffffffffffffffff1673ffffffffffffffffffffffffffffffffffffffff1673ffffffffffffffffffffffffffffffffffffffff168152602001600282015481526020016003820160009054906101000a900460ff16151515158152505090508060000151156141fc576040517f1b4e0c3c00000000000000000000000000000000000000000000000000000000815260040160405180910390fd5b806020015167ffffffffffffffff16421015614255574281602001516040517f375394cb00000000000000000000000000000000000000000000000000000000815260040161424c929190615d73565b60405180910390fd5b80604001516effffffffffffffffffffffffffffff16602160000160008282829054906101000a90046fffffffffffffffffffffffffffffffff1661429a9190615cc4565b92506101000a8154816fffffffffffffffffffffffffffffffff02191690836fffffffffffffffffffffffffffffffff16021790555060008160c0015114806142e457508060e001515b156142f3576142f282613a45565b5b60016022600084815260200190815260200160002060000160006101000a81548160ff02191690831515021790555060008054906101000a900473ffffffffffffffffffffffffffffffffffffffff1673ffffffffffffffffffffffffffffffffffffffff16639336ce806040518163ffffffff1660e01b8152600401602060405180830381865afa15801561438d573d6000803e3d6000fd5b505050506040513d601f19601f820116820180604052508101906143b19190615d1d565b73ffffffffffffffffffffffffffffffffffffffff16639dc29fac3083604001516040518363ffffffff1660e01b81526004016143ef9291906164f0565b600060405180830381600087803b15801561440957600080fd5b505af115801561441d573d6000803e3d6000fd5b50505050919050565b600080614431612d2b565b905080600201600084815260200190815260200160002060009054906101000a900473ffffffffffffffffffffffffffffffffffffffff16915050919050565b600061447b612d2b565b905081806144b65750600073ffffffffffffffffffffffffffffffffffffffff168373ffffffffffffffffffffffffffffffffffffffff1614155b156145ea5760006144c685612d53565b9050600073ffffffffffffffffffffffffffffffffffffffff168473ffffffffffffffffffffffffffffffffffffffff161415801561453157508373ffffffffffffffffffffffffffffffffffffffff168173ffffffffffffffffffffffffffffffffffffffff1614155b801561454457506145428185612bd5565b155b1561458657836040517fa9fbf51f00000000000000000000000000000000000000000000000000000000815260040161457d91906151e4565b60405180910390fd5b82156145e857848673ffffffffffffffffffffffffffffffffffffffff168273ffffffffffffffffffffffffffffffffffffffff167f8c5be1e5ebec7d5bd14f71427d1e84f3dd0314c0f7b2291e5b200ac8c7c3b92560405160405180910390a45b505b8481600401600086815260200190815260200160002060006101000a81548173ffffffffffffffffffffffffffffffffffffffff021916908373ffffffffffffffffffffffffffffffffffffffff1602179055505050505050565b614650838383613984565b61470457600073ffffffffffffffffffffffffffffffffffffffff168373ffffffffffffffffffffffffffffffffffffffff16036146c557806040517f7e2732890000000000000000000000000000000000000000000000000000000081526004016146bc91906154c6565b60405180910390fd5b81816040517f177e802f0000000000000000000000000000000000000000000000000000000081526004016146fb929190615d9c565b60405180910390fd5b505050565b60007f9b779b17422d0df92223018b32b4d1fa46e071723d6817e2486d003becc55f00905090565b61474b828260405180602001604052806000815250614af4565b5050565b600080602060008451602086016000885af180614772576040513d6000823e3d81fd5b3d92506000519150506000821461478d5760018114156147a9565b60008473ffffffffffffffffffffffffffffffffffffffff163b145b156147eb57836040517f5274afe70000000000000000000000000000000000000000000000000000000081526004016147e291906151e4565b60405180910390fd5b50505050565b60008054906101000a900473ffffffffffffffffffffffffffffffffffffffff1673ffffffffffffffffffffffffffffffffffffffff166391d1485483836040518363ffffffff1660e01b815260040161484c929190615c59565b602060405180830381865afa158015614869573d6000803e3d6000fd5b505050506040513d601f19601f8201168201806040525081019061488d9190615c97565b6149045761489a81614b18565b6148a88360001c6020614b45565b6040516020016148b99291906165b1565b6040516020818303038152906040526040517f08c379a00000000000000000000000000000000000000000000000000000000081526004016148fb919061511e565b60405180910390fd5b5050565b614910614d8b565b614946576040517fd7e6bcf800000000000000000000000000000000000000000000000000000000815260040160405180910390fd5b565b614950614908565b614958614dab565b565b614962614908565b565b61496c614908565b6000614976612d2b565b905082816000019081614989919061678d565b508181600101908161499b919061678d565b50505050565b600080600090507a184f03e93ff9f4daa797ed6e38ed64bf6a1f01000000000000000083106149ff577a184f03e93ff9f4daa797ed6e38ed64bf6a1f01000000000000000083816149f5576149f4615aea565b5b0492506040810190505b6d04ee2d6d415b85acef81000000008310614a3c576d04ee2d6d415b85acef81000000008381614a3257614a31615aea565b5b0492506020810190505b662386f26fc100008310614a6b57662386f26fc100008381614a6157614a60615aea565b5b0492506010810190505b6305f5e1008310614a94576305f5e1008381614a8a57614a89615aea565b5b0492506008810190505b6127108310614ab9576127108381614aaf57614aae615aea565b5b0492506004810190505b60648310614adc5760648381614ad257614ad1615aea565b5b0492506002810190505b600a8310614aeb576001810190505b80915050919050565b614afe8383614dcc565b614b13614b09612e26565b6000858585613c49565b505050565b6060614b3e8273ffffffffffffffffffffffffffffffffffffffff16601460ff16614b45565b9050919050565b6060600083905060006002846002614b5d9190615aa8565b614b679190615eb3565b67ffffffffffffffff811115614b8057614b7f6157d0565b5b6040519080825280601f01601f191660200182016040528015614bb25781602001600182028036833780820191505090505b5090507f300000000000000000000000000000000000000000000000000000000000000081600081518110614bea57614be961685f565b5b60200101907effffffffffffffffffffffffffffffffffffffffffffffffffffffffffffff1916908160001a9053507f780000000000000000000000000000000000000000000000000000000000000081600181518110614c4e57614c4d61685f565b5b60200101907effffffffffffffffffffffffffffffffffffffffffffffffffffffffffffff1916908160001a90535060006001856002614c8e9190615aa8565b614c989190615eb3565b90505b6001811115614d38577f3031323334353637383961626364656600000000000000000000000000000000600f841660108110614cda57614cd961685f565b5b1a60f81b828281518110614cf157614cf061685f565b5b60200101907effffffffffffffffffffffffffffffffffffffffffffffffffffffffffffff1916908160001a905350600483901c925080614d319061688e565b9050614c9b565b5060008214614d805784846040517fe22e27eb000000000000000000000000000000000000000000000000000000008152600401614d779291906168b7565b60405180910390fd5b809250505092915050565b6000614d95613dfa565b60000160089054906101000a900460ff16905090565b614db3614908565b6000614dbd614709565b90506001816000018190555050565b600073ffffffffffffffffffffffffffffffffffffffff168273ffffffffffffffffffffffffffffffffffffffff1603614e3e5760006040517f64a0ae92000000000000000000000000000000000000000000000000000000008152600401614e3591906151e4565b60405180910390fd5b6000614e4c83836000612e40565b9050600073ffffffffffffffffffffffffffffffffffffffff168173ffffffffffffffffffffffffffffffffffffffff1614614ec05760006040517f73c6ac6e000000000000000000000000000000000000000000000000000000008152600401614eb791906151e4565b60405180910390fd5b505050565b604051806101000160405280600015158152602001600067ffffffffffffffff16815260200160006effffffffffffffffffffffffffffff168152602001600067ffffffffffffffff168152602001600067ffffffffffffffff168152602001600073ffffffffffffffffffffffffffffffffffffffff168152602001600081526020016000151581525090565b600082825260208201905092915050565b7f426173653a206e6f7420737570706f7274204d65746973207472616e73666572600082015250565b6000614f9a602083614f53565b9150614fa582614f64565b602082019050919050565b60006020820190508181036000830152614fc981614f8d565b9050919050565b6000604051905090565b600080fd5b600080fd5b60007fffffffff0000000000000000000000000000000000000000000000000000000082169050919050565b61501981614fe4565b811461502457600080fd5b50565b60008135905061503681615010565b92915050565b60006020828403121561505257615051614fda565b5b600061506084828501615027565b91505092915050565b60008115159050919050565b61507e81615069565b82525050565b60006020820190506150996000830184615075565b92915050565b600081519050919050565b60005b838110156150c85780820151818401526020810190506150ad565b60008484015250505050565b6000601f19601f8301169050919050565b60006150f08261509f565b6150fa8185614f53565b935061510a8185602086016150aa565b615113816150d4565b840191505092915050565b6000602082019050818103600083015261513881846150e5565b905092915050565b6000819050919050565b61515381615140565b811461515e57600080fd5b50565b6000813590506151708161514a565b92915050565b60006020828403121561518c5761518b614fda565b5b600061519a84828501615161565b91505092915050565b600073ffffffffffffffffffffffffffffffffffffffff82169050919050565b60006151ce826151a3565b9050919050565b6151de816151c3565b82525050565b60006020820190506151f960008301846151d5565b92915050565b615208816151c3565b811461521357600080fd5b50565b600081359050615225816151ff565b92915050565b6000806040838503121561524257615241614fda565b5b600061525085828601615216565b925050602061526185828601615161565b9150509250929050565b60006fffffffffffffffffffffffffffffffff82169050919050565b6152908161526b565b82525050565b60006040820190506152ab6000830185615287565b6152b86020830184615287565b9392505050565b6000806000606084860312156152d8576152d7614fda565b5b60006152e686828701615216565b93505060206152f786828701615161565b925050604061530886828701615161565b9150509250925092565b600067ffffffffffffffff82169050919050565b61532f81615312565b82525050565b600060208201905061534a6000830184615326565b92915050565b60006effffffffffffffffffffffffffffff82169050919050565b61537481615350565b82525050565b61538381615140565b82525050565b60006101008201905061539f600083018b615075565b6153ac602083018a615326565b6153b9604083018961536b565b6153c66060830188615326565b6153d36080830187615326565b6153e060a08301866151d5565b6153ed60c083018561537a565b6153fa60e0830184615075565b9998505050505050505050565b6000806000606084860312156154205761541f614fda565b5b600061542e86828701615216565b935050602061543f86828701615216565b925050604061545086828701615161565b9150509250925092565b61546381615350565b811461546e57600080fd5b50565b6000813590506154808161545a565b92915050565b6000806040838503121561549d5761549c614fda565b5b60006154ab85828601615216565b92505060206154bc85828601615471565b9150509250929050565b60006020820190506154db600083018461537a565b92915050565b6000602082840312156154f7576154f6614fda565b5b600061550584828501615216565b91505092915050565b6155178161526b565b811461552257600080fd5b50565b6000813590506155348161550e565b92915050565b6000602082840312156155505761554f614fda565b5b600061555e84828501615525565b91505092915050565b6000819050919050565b61557a81615567565b82525050565b60006020820190506155956000830184615571565b92915050565b6000806000606084860312156155b4576155b3614fda565b5b60006155c286828701615161565b93505060206155d386828701615216565b92505060406155e486828701615161565b9150509250925092565b6000819050919050565b600061561361560e615609846151a3565b6155ee565b6151a3565b9050919050565b6000615625826155f8565b9050919050565b60006156378261561a565b9050919050565b6156478161562c565b82525050565b6000602082019050615662600083018461563e565b92915050565b60006156738261561a565b9050919050565b61568381615668565b82525050565b600060208201905061569e600083018461567a565b92915050565b6156ad81615069565b81146156b857600080fd5b50565b6000813590506156ca816156a4565b92915050565b600080604083850312156156e7576156e6614fda565b5b60006156f585828601615216565b9250506020615706858286016156bb565b9150509250929050565b61571981615312565b811461572457600080fd5b50565b60008135905061573681615710565b92915050565b60008060006060848603121561575557615754614fda565b5b600061576386828701615216565b935050602061577486828701615727565b925050604061578586828701615161565b9150509250925092565b60006060820190506157a4600083018661537a565b6157b1602083018561537a565b6157be604083018461537a565b949350505050565b600080fd5b600080fd5b7f4e487b7100000000000000000000000000000000000000000000000000000000600052604160045260246000fd5b615808826150d4565b810181811067ffffffffffffffff82111715615827576158266157d0565b5b80604052505050565b600061583a614fd0565b905061584682826157ff565b919050565b600067ffffffffffffffff821115615866576158656157d0565b5b61586f826150d4565b9050602081019050919050565b82818337600083830152505050565b600061589e6158998461584b565b615830565b9050828152602081018484840111156158ba576158b96157cb565b5b6158c584828561587c565b509392505050565b600082601f8301126158e2576158e16157c6565b5b81356158f284826020860161588b565b91505092915050565b6000806000806080858703121561591557615914614fda565b5b600061592387828801615216565b945050602061593487828801615216565b935050604061594587828801615161565b925050606085013567ffffffffffffffff81111561596657615965614fdf565b5b615972878288016158cd565b91505092959194509250565b6000602082019050615993600083018461536b565b92915050565b600080604083850312156159b0576159af614fda565b5b60006159be85828601615161565b92505060206159cf85828601615216565b9150509250929050565b600080604083850312156159f0576159ef614fda565b5b60006159fe85828601615216565b9250506020615a0f85828601615216565b9150509250929050565b7f4e487b7100000000000000000000000000000000000000000000000000000000600052602260045260246000fd5b60006002820490506001821680615a6057607f821691505b602082108103615a7357615a72615a19565b5b50919050565b7f4e487b7100000000000000000000000000000000000000000000000000000000600052601160045260246000fd5b6000615ab382615140565b9150615abe83615140565b9250828202615acc81615140565b91508282048414831517615ae357615ae2615a79565b5b5092915050565b7f4e487b7100000000000000000000000000000000000000000000000000000000600052601260045260246000fd5b6000615b2482615140565b9150615b2f83615140565b925082615b3f57615b3e615aea565b5b828204905092915050565b6000606082019050615b5f60008301866151d5565b615b6c602083018561537a565b615b7960408301846151d5565b949350505050565b7f526564656d7074696f6e51756575653a207a65726f2061646472657373000000600082015250565b6000615bb7601d83614f53565b9150615bc282615b81565b602082019050919050565b60006020820190508181036000830152615be681615baa565b9050919050565b7f526564656d7074696f6e51756575653a20616d6f756e74206973207a65726f00600082015250565b6000615c23601f83614f53565b9150615c2e82615bed565b602082019050919050565b60006020820190508181036000830152615c5281615c16565b9050919050565b6000604082019050615c6e6000830185615571565b615c7b60208301846151d5565b9392505050565b600081519050615c91816156a4565b92915050565b600060208284031215615cad57615cac614fda565b5b6000615cbb84828501615c82565b91505092915050565b6000615ccf8261526b565b9150615cda8361526b565b925082820390506fffffffffffffffffffffffffffffffff811115615d0257615d01615a79565b5b92915050565b600081519050615d17816151ff565b92915050565b600060208284031215615d3357615d32614fda565b5b6000615d4184828501615d08565b91505092915050565b6000604082019050615d5f60008301856151d5565b615d6c6020830184615287565b9392505050565b6000604082019050615d88600083018561537a565b615d956020830184615326565b9392505050565b6000604082019050615db160008301856151d5565b615dbe602083018461537a565b9392505050565b6000615dd082615140565b9150615ddb83615140565b9250828203905081811115615df357615df2615a79565b5b92915050565b600081519050615e0881615710565b92915050565b600060208284031215615e2457615e23614fda565b5b6000615e3284828501615df9565b91505092915050565b6000615e4682615312565b9150615e5183615312565b9250828201905067ffffffffffffffff811115615e7157615e70615a79565b5b92915050565b6000615e8282615312565b9150615e8d83615312565b9250828203905067ffffffffffffffff811115615ead57615eac615a79565b5b92915050565b6000615ebe82615140565b9150615ec983615140565b9250828201905080821115615ee157615ee0615a79565b5b92915050565b6000608082019050615efc60008301876151d5565b615f09602083018661537a565b615f166040830185615326565b615f236060830184615326565b95945050505050565b600081519050919050565b600081905092915050565b6000615f4d82615f2c565b615f578185615f37565b9350615f678185602086016150aa565b80840191505092915050565b6000615f7f8284615f42565b915081905092915050565b7f526564656d7074696f6e51756575653a2067657452657365727665732066616960008201527f6c65640000000000000000000000000000000000000000000000000000000000602082015250565b6000615fe6602383614f53565b9150615ff182615f8a565b604082019050919050565b6000602082019050818103600083015261601581615fd9565b9050919050565b60006dffffffffffffffffffffffffffff82169050919050565b61603f8161601c565b811461604a57600080fd5b50565b60008151905061605c81616036565b92915050565b600063ffffffff82169050919050565b61607b81616062565b811461608657600080fd5b50565b60008151905061609881616072565b92915050565b6000806000606084860312156160b7576160b6614fda565b5b60006160c58682870161604d565b93505060206160d68682870161604d565b92505060406160e786828701616089565b9150509250925092565b6000815190506161008161514a565b92915050565b60006020828403121561611c5761611b614fda565b5b600061612a848285016160f1565b91505092915050565b6000819050919050565b600061615861615361614e84616133565b6155ee565b615312565b9050919050565b6161688161613d565b82525050565b6000602082019050616183600083018461615f565b92915050565b600081905092915050565b600061619f8261509f565b6161a98185616189565b93506161b98185602086016150aa565b80840191505092915050565b60006161d18285616194565b91506161dd8284616194565b91508190509392505050565b60006161f48261526b565b91506161ff8361526b565b925082820190506fffffffffffffffffffffffffffffffff81111561622757616226615a79565b5b92915050565b600061623882615350565b915061624383615350565b925082820390506effffffffffffffffffffffffffffff81111561626a57616269615a79565b5b92915050565b6000604082019050616285600083018561536b565b616292602083018461536b565b9392505050565b60006162b46162af6162aa84615350565b6155ee565b615140565b9050919050565b6162c481616299565b82525050565b60006162e56162e06162db84615312565b6155ee565b615140565b9050919050565b6162f5816162ca565b82525050565b600060808201905061631060008301876162bb565b61631d602083018661536b565b61632a6040830185615326565b61633760608301846162ec565b95945050505050565b600061634b82615312565b915067ffffffffffffffff820361636557616364615a79565b5b600182019050919050565b600060608201905061638560008301866151d5565b61639260208301856151d5565b61639f604083018461537a565b949350505050565b600082825260208201905092915050565b60006163c382615f2c565b6163cd81856163a7565b93506163dd8185602086016150aa565b6163e6816150d4565b840191505092915050565b600060808201905061640660008301876151d5565b61641360208301866151d5565b616420604083018561537a565b818103606083015261643281846163b8565b905095945050505050565b60008151905061644c81615010565b92915050565b60006020828403121561646857616467614fda565b5b60006164768482850161643d565b91505092915050565b6000819050919050565b600060ff82169050919050565b60006164b16164ac6164a78461647f565b6155ee565b616489565b9050919050565b6164c181616496565b82525050565b60006040820190506164dc60008301856164b8565b6164e9602083018461537a565b9392505050565b600060408201905061650560008301856151d5565b61651260208301846162bb565b9392505050565b7f416363657373436f6e74726f6c3a206163636f756e7420000000000000000000600082015250565b600061654f601783616189565b915061655a82616519565b601782019050919050565b7f206973206d697373696e6720726f6c6520000000000000000000000000000000600082015250565b600061659b601183616189565b91506165a682616565565b601182019050919050565b60006165bc82616542565b91506165c88285616194565b91506165d38261658e565b91506165df8284616194565b91508190509392505050565b60008190508160005260206000209050919050565b60006020601f8301049050919050565b600082821b905092915050565b60006008830261664d7fffffffffffffffffffffffffffffffffffffffffffffffffffffffffffffffff82616610565b6166578683616610565b95508019841693508086168417925050509392505050565b600061668a61668561668084615140565b6155ee565b615140565b9050919050565b6000819050919050565b6166a48361666f565b6166b86166b082616691565b84845461661d565b825550505050565b600090565b6166cd6166c0565b6166d881848461669b565b505050565b5b818110156166fc576166f16000826166c5565b6001810190506166de565b5050565b601f82111561674157616712816165eb565b61671b84616600565b8101602085101561672a578190505b61673e61673685616600565b8301826166dd565b50505b505050565b600082821c905092915050565b600061676460001984600802616746565b1980831691505092915050565b600061677d8383616753565b9150826002028217905092915050565b6167968261509f565b67ffffffffffffffff8111156167af576167ae6157d0565b5b6167b98254615a48565b6167c4828285616700565b600060209050601f8311600181146167f757600084156167e5578287015190505b6167ef8582616771565b865550616857565b601f198416616805866165eb565b60005b8281101561682d57848901518255600182019150602085019450602081019050616808565b8683101561684a5784890151616846601f891682616753565b8355505b6001600288020188555050505b505050505050565b7f4e487b7100000000000000000000000000000000000000000000000000000000600052603260045260246000fd5b600061689982615140565b9150600082036168ac576168ab615a79565b5b600182039050919050565b60006040820190506168cc600083018561537a565b6168d9602083018461537a565b939250505056fea2646970667358221220d8aeeb56f3ba3ef0b90ee94704aaa360dfb93ef791a77cb451b0296fa4f805b864736f6c63430008140033",
  "linkReferences": {},
  "deployedLinkReferences": {}
}