{
  "_format": "hh-sol-artifact-1",
  "contractName": "RedemptionQueue",
  "sourceName": "contracts/RedemptionQueue.sol",
  "abi": [
    {
      "inputs": [],
      "name": "AlreadyRedeemed",
      "type": "error"
    },
    {
      "inputs": [],
      "name": "AlreadyReducedMaturity",
      "type": "error"
    },
    {
      "inputs": [
        {
          "internalType": "address",
          "name": "sender",
          "type": "address"
        },
        {
          "internalType": "uint256",
          "name": "tokenId",
          "type": "uint256"
        },
        {
          "internalType": "address",
          "name": "owner",
          "type": "address"
        }
      ],
      "name": "ERC721IncorrectOwner",
      "type": "error"
    },
    {
      "inputs": [
        {
          "internalType": "address",
          "name": "operator",
          "type": "address"
        },
        {
          "internalType": "uint256",
          "name": "tokenId",
          "type": "uint256"
        }
      ],
      "name": "ERC721InsufficientApproval",
      "type": "error"
    },
    {
      "inputs": [
        {
          "internalType": "address",
          "name": "approver",
          "type": "address"
        }
      ],
      "name": "ERC721InvalidApprover",
      "type": "error"
    },
    {
      "inputs": [
        {
          "internalType": "address",
          "name": "operator",
          "type": "address"
        }
      ],
      "name": "ERC721InvalidOperator",
      "type": "error"
    },
    {
      "inputs": [
        {
          "internalType": "address",
          "name": "owner",
          "type": "address"
        }
      ],
      "name": "ERC721InvalidOwner",
      "type": "error"
    },
    {
      "inputs": [
        {
          "internalType": "address",
          "name": "receiver",
          "type": "address"
        }
      ],
      "name": "ERC721InvalidReceiver",
      "type": "error"
    },
    {
      "inputs": [
        {
          "internalType": "address",
          "name": "sender",
          "type": "address"
        }
      ],
      "name": "ERC721InvalidSender",
      "type": "error"
    },
    {
      "inputs": [
        {
          "internalType": "uint256",
          "name": "tokenId",
          "type": "uint256"
        }
      ],
      "name": "ERC721NonexistentToken",
      "type": "error"
    },
    {
      "inputs": [],
      "name": "Erc721CallerNotOwnerOrApproved",
      "type": "error"
    },
    {
      "inputs": [
        {
          "internalType": "uint128",
          "name": "collectAmount",
          "type": "uint128"
        },
        {
          "internalType": "uint128",
          "name": "accruedAmount",
          "type": "uint128"
        }
      ],
      "name": "ExceedsCollectedFees",
      "type": "error"
    },
    {
      "inputs": [],
      "name": "InvalidInitialization",
      "type": "error"
    },
    {
      "inputs": [],
      "name": "LpTokenNotLocked",
      "type": "error"
    },
    {
      "inputs": [],
      "name": "NotInitializing",
      "type": "error"
    },
    {
      "inputs": [
        {
          "internalType": "uint256",
          "name": "currentTime",
          "type": "uint256"
        },
        {
          "internalType": "uint64",
          "name": "maturity",
          "type": "uint64"
        }
      ],
      "name": "NotMatureYet",
      "type": "error"
    },
    {
      "inputs": [],
      "name": "ReduceTimeExceedsLimit",
      "type": "error"
    },
    {
      "inputs": [],
      "name": "ReentrancyGuardReentrantCall",
      "type": "error"
    },
    {
      "inputs": [
        {
          "internalType": "uint8",
          "name": "bits",
          "type": "uint8"
        },
        {
          "internalType": "uint256",
          "name": "value",
          "type": "uint256"
        }
      ],
      "name": "SafeCastOverflowedUintDowncast",
      "type": "error"
    },
    {
      "inputs": [
        {
          "internalType": "address",
          "name": "token",
          "type": "address"
        }
      ],
      "name": "SafeERC20FailedOperation",
      "type": "error"
    },
    {
      "inputs": [
        {
          "internalType": "uint256",
          "name": "value",
          "type": "uint256"
        },
        {
          "internalType": "uint256",
          "name": "length",
          "type": "uint256"
        }
      ],
      "name": "StringsInsufficientHexLength",
      "type": "error"
    },
    {
      "anonymous": false,
      "inputs": [
        {
          "indexed": true,
          "internalType": "address",
          "name": "owner",
          "type": "address"
        },
        {
          "indexed": true,
          "internalType": "address",
          "name": "approved",
          "type": "address"
        },
        {
          "indexed": true,
          "internalType": "uint256",
          "name": "tokenId",
          "type": "uint256"
        }
      ],
      "name": "Approval",
      "type": "event"
    },
    {
      "anonymous": false,
      "inputs": [
        {
          "indexed": true,
          "internalType": "address",
          "name": "owner",
          "type": "address"
        },
        {
          "indexed": true,
          "internalType": "address",
          "name": "operator",
          "type": "address"
        },
        {
          "indexed": false,
          "internalType": "bool",
          "name": "approved",
          "type": "bool"
        }
      ],
      "name": "ApprovalForAll",
      "type": "event"
    },
    {
      "anonymous": false,
      "inputs": [
        {
          "indexed": true,
          "internalType": "uint256",
          "name": "nftId",
          "type": "uint256"
        },
        {
          "indexed": true,
          "internalType": "address",
          "name": "sender",
          "type": "address"
        },
        {
          "indexed": true,
          "internalType": "address",
          "name": "recipient",
          "type": "address"
        },
        {
          "indexed": false,
          "internalType": "uint120",
          "name": "veMetisOut",
          "type": "uint120"
        },
        {
          "indexed": false,
          "internalType": "uint120",
          "name": "cancelRedemptionFee",
          "type": "uint120"
        }
      ],
      "name": "CancelRedemptionTicketNft",
      "type": "event"
    },
    {
      "anonymous": false,
      "inputs": [
        {
          "indexed": false,
          "internalType": "address",
          "name": "recipient",
          "type": "address"
        },
        {
          "indexed": false,
          "internalType": "uint128",
          "name": "collectAmount",
          "type": "uint128"
        }
      ],
      "name": "CollectRedemptionFees",
      "type": "event"
    },
    {
      "anonymous": false,
      "inputs": [
        {
          "indexed": true,
          "internalType": "uint256",
          "name": "nftId",
          "type": "uint256"
        },
        {
          "indexed": true,
          "internalType": "address",
          "name": "sender",
          "type": "address"
        },
        {
          "indexed": true,
          "internalType": "address",
          "name": "recipient",
          "type": "address"
        },
        {
          "indexed": false,
          "internalType": "uint256",
          "name": "amountEMetisRedeemed",
          "type": "uint256"
        },
        {
          "indexed": false,
          "internalType": "uint120",
          "name": "redemptionFeeAmount",
          "type": "uint120"
        },
        {
          "indexed": false,
          "internalType": "uint64",
          "name": "maturityTimestamp",
          "type": "uint64"
        },
        {
          "indexed": false,
          "internalType": "uint256",
          "name": "cancelRedemptionFee",
          "type": "uint256"
        }
      ],
      "name": "EnterRedemptionQueue",
      "type": "event"
    },
    {
      "anonymous": false,
      "inputs": [
        {
          "indexed": false,
          "internalType": "uint64",
          "name": "version",
          "type": "uint64"
        }
      ],
      "name": "Initialized",
      "type": "event"
    },
    {
      "anonymous": false,
      "inputs": [
        {
          "indexed": true,
          "internalType": "uint256",
          "name": "nftId",
          "type": "uint256"
        },
        {
          "indexed": true,
          "internalType": "address",
          "name": "sender",
          "type": "address"
        },
        {
          "indexed": true,
          "internalType": "address",
          "name": "recipient",
          "type": "address"
        },
        {
          "indexed": false,
          "internalType": "uint120",
          "name": "amountOut",
          "type": "uint120"
        }
      ],
      "name": "RedeemRedemptionTicketNft",
      "type": "event"
    },
    {
      "anonymous": false,
      "inputs": [
        {
          "indexed": true,
          "internalType": "uint256",
          "name": "nftId",
          "type": "uint256"
        },
        {
          "indexed": false,
          "internalType": "address",
          "name": "lpLockToken",
          "type": "address"
        },
        {
          "indexed": false,
          "internalType": "uint256",
          "name": "lpLockAmount",
          "type": "uint256"
        },
        {
          "indexed": false,
          "internalType": "uint64",
          "name": "reduceTime",
          "type": "uint64"
        },
        {
          "indexed": false,
          "internalType": "uint64",
          "name": "newMaturityTimestamp",
          "type": "uint64"
        }
      ],
      "name": "ReduceRedemptionMaturity",
      "type": "event"
    },
    {
      "anonymous": false,
      "inputs": [
        {
          "indexed": true,
          "internalType": "address",
          "name": "from",
          "type": "address"
        },
        {
          "indexed": true,
          "internalType": "address",
          "name": "to",
          "type": "address"
        },
        {
          "indexed": true,
          "internalType": "uint256",
          "name": "tokenId",
          "type": "uint256"
        }
      ],
      "name": "Transfer",
      "type": "event"
    },
    {
      "anonymous": false,
      "inputs": [
        {
          "indexed": true,
          "internalType": "uint256",
          "name": "nftId",
          "type": "uint256"
        },
        {
          "indexed": false,
          "internalType": "address",
          "name": "lpToken",
          "type": "address"
        },
        {
          "indexed": false,
          "internalType": "uint256",
          "name": "lpAmount",
          "type": "uint256"
        }
      ],
      "name": "UnlockLpToken",
      "type": "event"
    },
    {
      "inputs": [],
      "name": "ADMIN_ROLE",
      "outputs": [
        {
          "internalType": "bytes32",
          "name": "",
          "type": "bytes32"
        }
      ],
      "stateMutability": "view",
      "type": "function"
    },
    {
      "inputs": [],
      "name": "BACKEND_ROLE",
      "outputs": [
        {
          "internalType": "bytes32",
          "name": "",
          "type": "bytes32"
        }
      ],
      "stateMutability": "view",
      "type": "function"
    },
    {
      "inputs": [],
      "name": "DEFAULT_ADMIN_ROLE",
      "outputs": [
        {
          "internalType": "bytes32",
          "name": "",
          "type": "bytes32"
        }
      ],
      "stateMutability": "view",
      "type": "function"
    },
    {
      "inputs": [],
      "name": "FEE_PRECISION",
      "outputs": [
        {
          "internalType": "uint64",
          "name": "",
          "type": "uint64"
        }
      ],
      "stateMutability": "view",
      "type": "function"
    },
    {
      "inputs": [],
      "name": "INITIAL_DEPOSIT_AMOUNT",
      "outputs": [
        {
          "internalType": "uint256",
          "name": "",
          "type": "uint256"
        }
      ],
      "stateMutability": "view",
      "type": "function"
    },
    {
      "inputs": [],
      "name": "METIS",
      "outputs": [
        {
          "internalType": "contract IERC20",
          "name": "",
          "type": "address"
        }
      ],
      "stateMutability": "view",
      "type": "function"
    },
    {
      "inputs": [],
      "name": "TIMELOCK_ROLE",
      "outputs": [
        {
          "internalType": "bytes32",
          "name": "",
          "type": "bytes32"
        }
      ],
      "stateMutability": "view",
      "type": "function"
    },
    {
      "inputs": [
        {
          "internalType": "address",
          "name": "to",
          "type": "address"
        },
        {
          "internalType": "uint256",
          "name": "tokenId",
          "type": "uint256"
        }
      ],
      "name": "approve",
      "outputs": [],
      "stateMutability": "nonpayable",
      "type": "function"
    },
    {
      "inputs": [
        {
          "internalType": "address",
          "name": "owner",
          "type": "address"
        }
      ],
      "name": "balanceOf",
      "outputs": [
        {
          "internalType": "uint256",
          "name": "",
          "type": "uint256"
        }
      ],
      "stateMutability": "view",
      "type": "function"
    },
    {
      "inputs": [
        {
          "internalType": "address",
          "name": "_recipient",
          "type": "address"
        },
        {
          "internalType": "uint256",
          "name": "_nftId",
          "type": "uint256"
        }
      ],
      "name": "cancelRedemptionTicketNft",
      "outputs": [
        {
          "internalType": "uint120",
          "name": "_veMetisOut",
          "type": "uint120"
        }
      ],
      "stateMutability": "nonpayable",
      "type": "function"
    },
    {
      "inputs": [
        {
          "internalType": "uint128",
          "name": "_collectAmount",
          "type": "uint128"
        }
      ],
      "name": "collectRedemptionFees",
      "outputs": [],
      "stateMutability": "nonpayable",
      "type": "function"
    },
    {
      "inputs": [],
      "name": "config",
      "outputs": [
        {
          "internalType": "contract IConfig",
          "name": "",
          "type": "address"
        }
      ],
      "stateMutability": "view",
      "type": "function"
    },
    {
      "inputs": [
        {
          "internalType": "address",
          "name": "_recipient",
          "type": "address"
        },
        {
          "internalType": "uint120",
          "name": "_amountToRedeem",
          "type": "uint120"
        }
      ],
      "name": "enterRedemptionQueue",
      "outputs": [
        {
          "internalType": "uint256",
          "name": "_nftId",
          "type": "uint256"
        }
      ],
      "stateMutability": "nonpayable",
      "type": "function"
    },
    {
      "inputs": [
        {
          "internalType": "address",
          "name": "lpToken",
          "type": "address"
        },
        {
          "internalType": "uint64",
          "name": "reduceTime",
          "type": "uint64"
        },
        {
          "internalType": "uint256",
          "name": "redeemAmount",
          "type": "uint256"
        }
      ],
      "name": "estimateLpAmount",
      "outputs": [
        {
          "internalType": "uint256",
          "name": "lpAmount",
          "type": "uint256"
        },
        {
          "internalType": "uint256",
          "name": "amount0",
          "type": "uint256"
        },
        {
          "internalType": "uint256",
          "name": "amount1",
          "type": "uint256"
        }
      ],
      "stateMutability": "view",
      "type": "function"
    },
    {
      "inputs": [
        {
          "internalType": "uint256",
          "name": "tokenId",
          "type": "uint256"
        }
      ],
      "name": "getApproved",
      "outputs": [
        {
          "internalType": "address",
          "name": "",
          "type": "address"
        }
      ],
      "stateMutability": "view",
      "type": "function"
    },
    {
      "inputs": [
        {
          "internalType": "address",
          "name": "lpToken",
          "type": "address"
        },
        {
          "internalType": "uint256",
          "name": "lpAmount",
          "type": "uint256"
        },
        {
          "internalType": "uint256",
          "name": "redeemAmount",
          "type": "uint256"
        }
      ],
      "name": "getReduceTime",
      "outputs": [
        {
          "internalType": "uint64",
          "name": "",
          "type": "uint64"
        }
      ],
      "stateMutability": "view",
      "type": "function"
    },
    {
      "inputs": [
        {
          "internalType": "address",
          "name": "_config",
          "type": "address"
        }
      ],
      "name": "initialize",
      "outputs": [],
      "stateMutability": "nonpayable",
      "type": "function"
    },
    {
      "inputs": [
        {
          "internalType": "address",
          "name": "owner",
          "type": "address"
        },
        {
          "internalType": "address",
          "name": "operator",
          "type": "address"
        }
      ],
      "name": "isApprovedForAll",
      "outputs": [
        {
          "internalType": "bool",
          "name": "",
          "type": "bool"
        }
      ],
      "stateMutability": "view",
      "type": "function"
    },
    {
      "inputs": [
        {
          "internalType": "address",
          "name": "",
          "type": "address"
        }
      ],
      "name": "lpFactors",
      "outputs": [
        {
          "internalType": "uint256",
          "name": "",
          "type": "uint256"
        }
      ],
      "stateMutability": "view",
      "type": "function"
    },
    {
      "inputs": [],
      "name": "name",
      "outputs": [
        {
          "internalType": "string",
          "name": "",
          "type": "string"
        }
      ],
      "stateMutability": "view",
      "type": "function"
    },
    {
      "inputs": [
        {
          "internalType": "uint256",
          "name": "nftId",
          "type": "uint256"
        }
      ],
      "name": "nftInformation",
      "outputs": [
        {
          "internalType": "bool",
          "name": "hasBeenRedeemed",
          "type": "bool"
        },
        {
          "internalType": "uint64",
          "name": "maturity",
          "type": "uint64"
        },
        {
          "internalType": "uint120",
          "name": "amount",
          "type": "uint120"
        },
        {
          "internalType": "uint64",
          "name": "cancelRedemptionFee",
          "type": "uint64"
        },
        {
          "internalType": "uint64",
          "name": "lpLockMaturity",
          "type": "uint64"
        },
        {
          "internalType": "address",
          "name": "lpLockToken",
          "type": "address"
        },
        {
          "internalType": "uint256",
          "name": "lpLockAmount",
          "type": "uint256"
        },
        {
          "internalType": "bool",
          "name": "lpClaimed",
          "type": "bool"
        }
      ],
      "stateMutability": "view",
      "type": "function"
    },
    {
      "inputs": [
        {
          "internalType": "uint256",
          "name": "tokenId",
          "type": "uint256"
        }
      ],
      "name": "ownerOf",
      "outputs": [
        {
          "internalType": "address",
          "name": "",
          "type": "address"
        }
      ],
      "stateMutability": "view",
      "type": "function"
    },
    {
      "inputs": [
        {
          "internalType": "uint256",
          "name": "_nftId",
          "type": "uint256"
        },
        {
          "internalType": "address",
          "name": "_recipient",
          "type": "address"
        }
      ],
      "name": "redeemRedemptionTicketNft",
      "outputs": [],
      "stateMutability": "nonpayable",
      "type": "function"
    },
    {
      "inputs": [],
      "name": "redemptionQueueAccounting",
      "outputs": [
        {
          "internalType": "uint128",
          "name": "etherLiabilities",
          "type": "uint128"
        },
        {
          "internalType": "uint128",
          "name": "unclaimedFees",
          "type": "uint128"
        }
      ],
      "stateMutability": "view",
      "type": "function"
    },
    {
      "inputs": [
        {
          "internalType": "uint256",
          "name": "_nftId",
          "type": "uint256"
        },
        {
          "internalType": "address",
          "name": "lpToken",
          "type": "address"
        },
        {
          "internalType": "uint256",
          "name": "lpAmount",
          "type": "uint256"
        }
      ],
      "name": "reduceRedemptionMaturity",
      "outputs": [],
      "stateMutability": "nonpayable",
      "type": "function"
    },
    {
      "inputs": [
        {
          "internalType": "address",
          "name": "from",
          "type": "address"
        },
        {
          "internalType": "address",
          "name": "to",
          "type": "address"
        },
        {
          "internalType": "uint256",
          "name": "tokenId",
          "type": "uint256"
        }
      ],
      "name": "safeTransferFrom",
      "outputs": [],
      "stateMutability": "nonpayable",
      "type": "function"
    },
    {
      "inputs": [
        {
          "internalType": "address",
          "name": "from",
          "type": "address"
        },
        {
          "internalType": "address",
          "name": "to",
          "type": "address"
        },
        {
          "internalType": "uint256",
          "name": "tokenId",
          "type": "uint256"
        },
        {
          "internalType": "bytes",
          "name": "data",
          "type": "bytes"
        }
      ],
      "name": "safeTransferFrom",
      "outputs": [],
      "stateMutability": "nonpayable",
      "type": "function"
    },
    {
      "inputs": [
        {
          "internalType": "address",
          "name": "operator",
          "type": "address"
        },
        {
          "internalType": "bool",
          "name": "approved",
          "type": "bool"
        }
      ],
      "name": "setApprovalForAll",
      "outputs": [],
      "stateMutability": "nonpayable",
      "type": "function"
    },
    {
      "inputs": [
        {
          "internalType": "address",
          "name": "lpToken",
          "type": "address"
        },
        {
          "internalType": "uint256",
          "name": "factor",
          "type": "uint256"
        }
      ],
      "name": "setLpFactor",
      "outputs": [],
      "stateMutability": "nonpayable",
      "type": "function"
    },
    {
      "inputs": [
        {
          "internalType": "bytes4",
          "name": "interfaceId",
          "type": "bytes4"
        }
      ],
      "name": "supportsInterface",
      "outputs": [
        {
          "internalType": "bool",
          "name": "",
          "type": "bool"
        }
      ],
      "stateMutability": "view",
      "type": "function"
    },
    {
      "inputs": [],
      "name": "symbol",
      "outputs": [
        {
          "internalType": "string",
          "name": "",
          "type": "string"
        }
      ],
      "stateMutability": "view",
      "type": "function"
    },
    {
      "inputs": [
        {
          "internalType": "uint256",
          "name": "tokenId",
          "type": "uint256"
        }
      ],
      "name": "tokenURI",
      "outputs": [
        {
          "internalType": "string",
          "name": "",
          "type": "string"
        }
      ],
      "stateMutability": "view",
      "type": "function"
    },
    {
      "inputs": [
        {
          "internalType": "address",
          "name": "from",
          "type": "address"
        },
        {
          "internalType": "address",
          "name": "to",
          "type": "address"
        },
        {
          "internalType": "uint256",
          "name": "tokenId",
          "type": "uint256"
        }
      ],
      "name": "transferFrom",
      "outputs": [],
      "stateMutability": "nonpayable",
      "type": "function"
    },
    {
      "inputs": [
        {
          "internalType": "uint256",
          "name": "_nftId",
          "type": "uint256"
        }
      ],
      "name": "unlockLpToken",
      "outputs": [],
      "stateMutability": "nonpayable",
      "type": "function"
    },
    {
      "inputs": [],
      "name": "veMetis",
      "outputs": [
        {
          "internalType": "contract IERC20",
          "name": "",
          "type": "address"
        }
      ],
      "stateMutability": "view",
      "type": "function"
    },
    {
      "stateMutability": "payable",
      "type": "receive"
    }
  ],
  "bytecode": "0x608060405234801561001057600080fd5b506168c280620000216000396000f3fe6080604052600436106102085760003560e01c806379502c5511610118578063c4d66de8116100a0578063e52083c61161006f578063e52083c614610811578063e63a391f1461083c578063e985e9c514610867578063f0dadf2e146108a4578063f288a2e2146108cf57610248565b8063c4d66de814610745578063c87b56dd1461076e578063cc16ca93146107ab578063cc928d52146107e857610248565b8063a217fddf116100e7578063a217fddf14610660578063a22cb4651461068b578063a28a89f4146106b4578063ad94eb93146106f3578063b88d4fde1461071c57610248565b806379502c55146105b457806392c2becc146105df5780639336ce801461060a57806395d89b411461063557610248565b806342842e0e1161019b57806364cb16881161016a57806364cb1688146104d1578063669634fa146104fa57806370a082311461052357806375b238fc14610560578063770b7b381461058b57610248565b806342842e0e146103f15780634f4798ae1461041a5780636352211e14610457578063648c7c701461049457610248565b8063103cf9e3116101d7578063103cf9e31461031b578063118ce7091461034757806316b796391461038457806323b872dd146103c857610248565b806301ffc9a71461024d57806306fdde031461028a578063081812fc146102b5578063095ea7b3146102f257610248565b36610248576040517f08c379a000000000000000000000000000000000000000000000000000000000815260040161023f90614f5c565b60405180910390fd5b600080fd5b34801561025957600080fd5b50610274600480360381019061026f9190614fe8565b6108fa565b6040516102819190615030565b60405180910390f35b34801561029657600080fd5b5061029f6109dc565b6040516102ac91906150ca565b60405180910390f35b3480156102c157600080fd5b506102dc60048036038101906102d79190615122565b610a7d565b6040516102e99190615190565b60405180910390f35b3480156102fe57600080fd5b50610319600480360381019061031491906151d7565b610a99565b005b34801561032757600080fd5b50610330610aaf565b60405161033e929190615242565b60405180910390f35b34801561035357600080fd5b5061036e6004803603810190610369919061526b565b610af9565b60405161037b91906152e1565b60405180910390f35b34801561039057600080fd5b506103ab60048036038101906103a69190615122565b610b5a565b6040516103bf989796959493929190615335565b60405180910390f35b3480156103d457600080fd5b506103ef60048036038101906103ea91906153b3565b610c33565b005b3480156103fd57600080fd5b50610418600480360381019061041391906153b3565b610d35565b005b34801561042657600080fd5b50610441600480360381019061043c9190615432565b610d55565b60405161044e9190615472565b60405180910390f35b34801561046357600080fd5b5061047e60048036038101906104799190615122565b610e9c565b60405161048b9190615190565b60405180910390f35b3480156104a057600080fd5b506104bb60048036038101906104b6919061548d565b610eae565b6040516104c89190615472565b60405180910390f35b3480156104dd57600080fd5b506104f860048036038101906104f391906154e6565b610ec6565b005b34801561050657600080fd5b50610521600480360381019061051c9190615122565b611216565b005b34801561052f57600080fd5b5061054a6004803603810190610545919061548d565b611587565b6040516105579190615472565b60405180910390f35b34801561056c57600080fd5b50610575611650565b604051610582919061552c565b60405180910390f35b34801561059757600080fd5b506105b260048036038101906105ad9190615547565b611674565b005b3480156105c057600080fd5b506105c9611b2a565b6040516105d691906155f9565b60405180910390f35b3480156105eb57600080fd5b506105f4611b4e565b604051610601919061552c565b60405180910390f35b34801561061657600080fd5b5061061f611b72565b60405161062c9190615635565b60405180910390f35b34801561064157600080fd5b5061064a611b98565b60405161065791906150ca565b60405180910390f35b34801561066c57600080fd5b50610675611c39565b604051610682919061552c565b60405180910390f35b34801561069757600080fd5b506106b260048036038101906106ad919061567c565b611c40565b005b3480156106c057600080fd5b506106db60048036038101906106d691906156e8565b611c56565b6040516106ea9392919061573b565b60405180910390f35b3480156106ff57600080fd5b5061071a600480360381019061071591906151d7565b611edb565b005b34801561072857600080fd5b50610743600480360381019061073e91906158a7565b611fbb565b005b34801561075157600080fd5b5061076c6004803603810190610767919061548d565b611fe0565b005b34801561077a57600080fd5b5061079560048036038101906107909190615122565b612381565b6040516107a291906150ca565b60405180910390f35b3480156107b757600080fd5b506107d260048036038101906107cd91906151d7565b6123ea565b6040516107df919061592a565b60405180910390f35b3480156107f457600080fd5b5061080f600480360381019061080a9190615945565b612a11565b005b34801561081d57600080fd5b50610826612b6e565b6040516108339190615472565b60405180910390f35b34801561084857600080fd5b50610851612b7a565b60405161085e91906152e1565b60405180910390f35b34801561087357600080fd5b5061088e60048036038101906108899190615985565b612b81565b60405161089b9190615030565b60405180910390f35b3480156108b057600080fd5b506108b9612c23565b6040516108c69190615635565b60405180910390f35b3480156108db57600080fd5b506108e4612c49565b6040516108f1919061552c565b60405180910390f35b60007f80ac58cd000000000000000000000000000000000000000000000000000000007bffffffffffffffffffffffffffffffffffffffffffffffffffffffff1916827bffffffffffffffffffffffffffffffffffffffffffffffffffffffff191614806109c557507f5b5e139f000000000000000000000000000000000000000000000000000000007bffffffffffffffffffffffffffffffffffffffffffffffffffffffff1916827bffffffffffffffffffffffffffffffffffffffffffffffffffffffff1916145b806109d557506109d482612c6d565b5b9050919050565b606060006109e8612cd7565b90508060000180546109f9906159f4565b80601f0160208091040260200160405190810160405280929190818152602001828054610a25906159f4565b8015610a725780601f10610a4757610100808354040283529160200191610a72565b820191906000526020600020905b815481529060010190602001808311610a5557829003601f168201915b505050505091505090565b6000610a8882612cff565b50610a9282612d87565b9050919050565b610aab8282610aa6612dd2565b612dda565b5050565b60218060000160009054906101000a90046fffffffffffffffffffffffffffffffff16908060000160109054906101000a90046fffffffffffffffffffffffffffffffff16905082565b60008183602560008773ffffffffffffffffffffffffffffffffffffffff1673ffffffffffffffffffffffffffffffffffffffff16815260200190815260200160002054610b479190615a54565b610b519190615ac5565b90509392505050565b60226020528060005260406000206000915090508060000160009054906101000a900460ff16908060000160019054906101000a900467ffffffffffffffff16908060000160099054906101000a90046effffffffffffffffffffffffffffff16908060000160189054906101000a900467ffffffffffffffff16908060010160009054906101000a900467ffffffffffffffff16908060010160089054906101000a900473ffffffffffffffffffffffffffffffffffffffff16908060020154908060030160009054906101000a900460ff16905088565b600073ffffffffffffffffffffffffffffffffffffffff168273ffffffffffffffffffffffffffffffffffffffff1603610ca55760006040517f64a0ae92000000000000000000000000000000000000000000000000000000008152600401610c9c9190615190565b60405180910390fd5b6000610cb98383610cb4612dd2565b612dec565b90508373ffffffffffffffffffffffffffffffffffffffff168173ffffffffffffffffffffffffffffffffffffffff1614610d2f578382826040517f64283d7b000000000000000000000000000000000000000000000000000000008152600401610d2693929190615af6565b60405180910390fd5b50505050565b610d5083838360405180602001604052806000815250611fbb565b505050565b6000610d5f613019565b600073ffffffffffffffffffffffffffffffffffffffff168373ffffffffffffffffffffffffffffffffffffffff1603610dce576040517f08c379a0000000000000000000000000000000000000000000000000000000008152600401610dc590615b79565b60405180910390fd5b6000826effffffffffffffffffffffffffffff1611610e22576040517f08c379a0000000000000000000000000000000000000000000000000000000008152600401610e1990615be5565b60405180910390fd5b610e2c8383613070565b9050610e8e3330846effffffffffffffffffffffffffffff16602360009054906101000a900473ffffffffffffffffffffffffffffffffffffffff1673ffffffffffffffffffffffffffffffffffffffff16613802909392919063ffffffff16565b610e96613884565b92915050565b6000610ea782612cff565b9050919050565b60256020528060005260406000206000915090505481565b7fa49807205ce4d355092ef5a8a18f56e8913cf4a201fbe287825b095693c2177560008054906101000a900473ffffffffffffffffffffffffffffffffffffffff1673ffffffffffffffffffffffffffffffffffffffff166391d1485482610f2c612dd2565b6040518363ffffffff1660e01b8152600401610f49929190615c05565b602060405180830381865afa158015610f66573d6000803e3d6000fd5b505050506040513d601f19601f82011682018060405250810190610f8a9190615c43565b610f9857610f978161389d565b5b6000826fffffffffffffffffffffffffffffffff1611610fed576040517f08c379a0000000000000000000000000000000000000000000000000000000008152600401610fe490615be5565b60405180910390fd5b6000602160000160109054906101000a90046fffffffffffffffffffffffffffffffff169050806fffffffffffffffffffffffffffffffff16836fffffffffffffffffffffffffffffffff16111561107e5782816040517fcf1950de000000000000000000000000000000000000000000000000000000008152600401611075929190615242565b60405180910390fd5b82602160000160108282829054906101000a90046fffffffffffffffffffffffffffffffff166110ae9190615c70565b92506101000a8154816fffffffffffffffffffffffffffffffff02191690836fffffffffffffffffffffffffffffffff16021790555060008060009054906101000a900473ffffffffffffffffffffffffffffffffffffffff1673ffffffffffffffffffffffffffffffffffffffff1663803db96d6040518163ffffffff1660e01b8152600401602060405180830381865afa158015611152573d6000803e3d6000fd5b505050506040513d601f19601f820116820180604052508101906111769190615cc9565b90506111d781856fffffffffffffffffffffffffffffffff16602360009054906101000a900473ffffffffffffffffffffffffffffffffffffffff1673ffffffffffffffffffffffffffffffffffffffff166138b19092919063ffffffff16565b7f80352cad384db4ac5f719c28fc1f7d83351c3fbbf124ef6759a7f2b1d35aeff48185604051611208929190615cf6565b60405180910390a150505050565b61122961122282610e9c565b3383613930565b61125f576040517fe816274400000000000000000000000000000000000000000000000000000000815260040160405180910390fd5b600060226000838152602001908152602001600020604051806101000160405290816000820160009054906101000a900460ff161515151581526020016000820160019054906101000a900467ffffffffffffffff1667ffffffffffffffff1667ffffffffffffffff1681526020016000820160099054906101000a90046effffffffffffffffffffffffffffff166effffffffffffffffffffffffffffff166effffffffffffffffffffffffffffff1681526020016000820160189054906101000a900467ffffffffffffffff1667ffffffffffffffff1667ffffffffffffffff1681526020016001820160009054906101000a900467ffffffffffffffff1667ffffffffffffffff1667ffffffffffffffff1681526020016001820160089054906101000a900473ffffffffffffffffffffffffffffffffffffffff1673ffffffffffffffffffffffffffffffffffffffff1673ffffffffffffffffffffffffffffffffffffffff168152602001600282015481526020016003820160009054906101000a900460ff161515151581525050905060008160c00151148061140957508060e001515b15611440576040517fd7f8a1a600000000000000000000000000000000000000000000000000000000815260040160405180910390fd5b42816080015167ffffffffffffffff161115611499574281608001516040517f375394cb000000000000000000000000000000000000000000000000000000008152600401611490929190615d1f565b60405180910390fd5b60016022600084815260200190815260200160002060030160006101000a81548160ff02191690831515021790555061152d338260c001516022600086815260200190815260200160002060010160089054906101000a900473ffffffffffffffffffffffffffffffffffffffff1673ffffffffffffffffffffffffffffffffffffffff166138b19092919063ffffffff16565b817f052fc4ee1d2551c76d7db76a9ff4aac13733984e37d9ef2422b37e5a161e31088260a001518360c00151604051611567929190615d48565b60405180910390a280600001511561158357611582826139f1565b5b5050565b600080611592612cd7565b9050600073ffffffffffffffffffffffffffffffffffffffff168373ffffffffffffffffffffffffffffffffffffffff16036116065760006040517f89c62b640000000000000000000000000000000000000000000000000000000081526004016115fd9190615190565b60405180910390fd5b8060030160008473ffffffffffffffffffffffffffffffffffffffff1673ffffffffffffffffffffffffffffffffffffffff16815260200190815260200160002054915050919050565b7fa49807205ce4d355092ef5a8a18f56e8913cf4a201fbe287825b095693c2177581565b61167c613019565b600073ffffffffffffffffffffffffffffffffffffffff168273ffffffffffffffffffffffffffffffffffffffff16036116eb576040517f08c379a00000000000000000000000000000000000000000000000000000000081526004016116e290615b79565b60405180910390fd5b6000811161172e576040517f08c379a000000000000000000000000000000000000000000000000000000000815260040161172590615be5565b60405180910390fd5b61174161173a84610e9c565b3385613930565b611777576040517fe816274400000000000000000000000000000000000000000000000000000000815260040160405180910390fd5b600060226000858152602001908152602001600020905060008160000160019054906101000a900467ffffffffffffffff1667ffffffffffffffff1690506000826002015411156117f4576040517fe7c075d500000000000000000000000000000000000000000000000000000000815260040160405180910390fd5b600042821061180e5742826118099190615d71565b611811565b60005b9050600061185086868660000160099054906101000a90046effffffffffffffffffffffffffffff166effffffffffffffffffffffffffffff16610af9565b90508160008054906101000a900473ffffffffffffffffffffffffffffffffffffffff1673ffffffffffffffffffffffffffffffffffffffff16631c86aa356040518163ffffffff1660e01b8152600401602060405180830381865afa1580156118be573d6000803e3d6000fd5b505050506040513d601f19601f820116820180604052508101906118e29190615dba565b826118ed9190615de7565b67ffffffffffffffff16111561192f576040517f2f6a6ab400000000000000000000000000000000000000000000000000000000815260040160405180910390fd5b808460000160018282829054906101000a900467ffffffffffffffff166119569190615e23565b92506101000a81548167ffffffffffffffff021916908367ffffffffffffffff160217905550848460020181905550858460010160086101000a81548173ffffffffffffffffffffffffffffffffffffffff021916908373ffffffffffffffffffffffffffffffffffffffff16021790555060008054906101000a900473ffffffffffffffffffffffffffffffffffffffff1673ffffffffffffffffffffffffffffffffffffffff1663b749eff86040518163ffffffff1660e01b8152600401602060405180830381865afa158015611a33573d6000803e3d6000fd5b505050506040513d601f19601f82011682018060405250810190611a579190615dba565b67ffffffffffffffff1642611a6c9190615e5f565b8460010160006101000a81548167ffffffffffffffff021916908367ffffffffffffffff160217905550611ac33330878973ffffffffffffffffffffffffffffffffffffffff16613802909392919063ffffffff16565b867f71f2159d09f60bf28fb365c9ac2f25357bce540dba3a5fa11630e7418cb9a7378787848860000160019054906101000a900467ffffffffffffffff16604051611b119493929190615e93565b60405180910390a250505050611b25613884565b505050565b60008054906101000a900473ffffffffffffffffffffffffffffffffffffffff1681565b7f25cf2b509f2a7f322675b2a5322b182f44ad2c03ac941a0af17c9b178f5d5d5f81565b602360009054906101000a900473ffffffffffffffffffffffffffffffffffffffff1681565b60606000611ba4612cd7565b9050806001018054611bb5906159f4565b80601f0160208091040260200160405190810160405280929190818152602001828054611be1906159f4565b8015611c2e5780601f10611c0357610100808354040283529160200191611c2e565b820191906000526020600020905b815481529060010190602001808311611c1157829003601f168201915b505050505091505090565b6000801b81565b611c52611c4b612dd2565b8383613a77565b5050565b6000806000602560008773ffffffffffffffffffffffffffffffffffffffff1673ffffffffffffffffffffffffffffffffffffffff168152602001908152602001600020548567ffffffffffffffff1685611cb19190615a54565b611cbb9190615ac5565b92506000808773ffffffffffffffffffffffffffffffffffffffff166040516024016040516020818303038152906040527f0902f1ac000000000000000000000000000000000000000000000000000000007bffffffffffffffffffffffffffffffffffffffffffffffffffffffff19166020820180517bffffffffffffffffffffffffffffffffffffffffffffffffffffffff8381831617835250505050604051611d679190615f1f565b600060405180830381855afa9150503d8060008114611da2576040519150601f19603f3d011682016040523d82523d6000602084013e611da7565b606091505b509150915081611dec576040517f08c379a0000000000000000000000000000000000000000000000000000000008152600401611de390615fa8565b60405180910390fd5b60008082806020019051810190611e03919061604a565b509150915060008a73ffffffffffffffffffffffffffffffffffffffff166318160ddd6040518163ffffffff1660e01b8152600401602060405180830381865afa158015611e55573d6000803e3d6000fd5b505050506040513d601f19601f82011682018060405250810190611e7991906160b2565b905080836dffffffffffffffffffffffffffff1689611e989190615a54565b611ea29190615ac5565b965080826dffffffffffffffffffffffffffff1689611ec19190615a54565b611ecb9190615ac5565b9550505050505093509350939050565b611f047f25cf2b509f2a7f322675b2a5322b182f44ad2c03ac941a0af17c9b178f5d5d5f61389d565b600073ffffffffffffffffffffffffffffffffffffffff168273ffffffffffffffffffffffffffffffffffffffff1603611f73576040517f08c379a0000000000000000000000000000000000000000000000000000000008152600401611f6a90615b79565b60405180910390fd5b80602560008473ffffffffffffffffffffffffffffffffffffffff1673ffffffffffffffffffffffffffffffffffffffff168152602001908152602001600020819055505050565b611fc6848484610c33565b611fda611fd1612dd2565b85858585613bf5565b50505050565b6000611fea613da6565b905060008160000160089054906101000a900460ff1615905060008260000160009054906101000a900467ffffffffffffffff1690506000808267ffffffffffffffff161480156120385750825b9050600060018367ffffffffffffffff1614801561206d575060003073ffffffffffffffffffffffffffffffffffffffff163b145b90508115801561207b575080155b156120b2576040517ff92ee8a900000000000000000000000000000000000000000000000000000000815260040160405180910390fd5b60018560000160006101000a81548167ffffffffffffffff021916908367ffffffffffffffff16021790555083156121025760018560000160086101000a81548160ff0219169083151502179055505b61210b86613dce565b61217f6040518060400160405280601781526020017f76654d65746973526564656d7074696f6e5469636b65740000000000000000008152506040518060400160405280601f81526020017f76654d6574697320526564656d7074696f6e205175657565205469636b657400815250613e29565b60008054906101000a900473ffffffffffffffffffffffffffffffffffffffff1673ffffffffffffffffffffffffffffffffffffffff1663e59745546040518163ffffffff1660e01b8152600401602060405180830381865afa1580156121ea573d6000803e3d6000fd5b505050506040513d601f19601f8201168201806040525081019061220e9190615cc9565b602460006101000a81548173ffffffffffffffffffffffffffffffffffffffff021916908373ffffffffffffffffffffffffffffffffffffffff16021790555060008054906101000a900473ffffffffffffffffffffffffffffffffffffffff1673ffffffffffffffffffffffffffffffffffffffff16639336ce806040518163ffffffff1660e01b8152600401602060405180830381865afa1580156122b9573d6000803e3d6000fd5b505050506040513d601f19601f820116820180604052508101906122dd9190615cc9565b602360006101000a81548173ffffffffffffffffffffffffffffffffffffffff021916908373ffffffffffffffffffffffffffffffffffffffff16021790555083156123795760008560000160086101000a81548160ff0219169083151502179055507fc7f505b2f371ae2175ee4913f4499e1f2633a7b5936321eed1cdaeb6115181d26001604051612370919061611a565b60405180910390a15b505050505050565b606061238c82612cff565b506000612397613e3f565b905060008151116123b757604051806020016040528060008152506123e2565b806123c184613e56565b6040516020016123d2929190616171565b6040516020818303038152906040525b915050919050565b60006123f4613019565b600073ffffffffffffffffffffffffffffffffffffffff168373ffffffffffffffffffffffffffffffffffffffff1603612463576040517f08c379a000000000000000000000000000000000000000000000000000000000815260040161245a90615b79565b60405180910390fd5b61247661246f83610e9c565b3384613930565b6124ac576040517fe816274400000000000000000000000000000000000000000000000000000000815260040160405180910390fd5b600060216040518060400160405290816000820160009054906101000a90046fffffffffffffffffffffffffffffffff166fffffffffffffffffffffffffffffffff166fffffffffffffffffffffffffffffffff1681526020016000820160109054906101000a90046fffffffffffffffffffffffffffffffff166fffffffffffffffffffffffffffffffff166fffffffffffffffffffffffffffffffff16815250509050600060226000858152602001908152602001600020604051806101000160405290816000820160009054906101000a900460ff161515151581526020016000820160019054906101000a900467ffffffffffffffff1667ffffffffffffffff1667ffffffffffffffff1681526020016000820160099054906101000a90046effffffffffffffffffffffffffffff166effffffffffffffffffffffffffffff166effffffffffffffffffffffffffffff1681526020016000820160189054906101000a900467ffffffffffffffff1667ffffffffffffffff1667ffffffffffffffff1681526020016001820160009054906101000a900467ffffffffffffffff1667ffffffffffffffff1667ffffffffffffffff1681526020016001820160089054906101000a900473ffffffffffffffffffffffffffffffffffffffff1673ffffffffffffffffffffffffffffffffffffffff1673ffffffffffffffffffffffffffffffffffffffff168152602001600282015481526020016003820160009054906101000a900460ff161515151581525050905060008160400151905081600001511561272c576040517f1b4e0c3c00000000000000000000000000000000000000000000000000000000815260040160405180910390fd5b806effffffffffffffffffffffffffffff168360000181815161274f9190615c70565b9150906fffffffffffffffffffffffffffffffff1690816fffffffffffffffffffffffffffffffff168152505060006127c9620f424067ffffffffffffffff16846060015167ffffffffffffffff16846effffffffffffffffffffffffffffff166127ba9190615a54565b6127c49190615ac5565b613f24565b9050806effffffffffffffffffffffffffffff16846020018181516127ee9190616195565b9150906fffffffffffffffffffffffffffffffff1690816fffffffffffffffffffffffffffffffff1681525050808261282791906161d9565b945060008360c001519050600081111561287c5760018460e001901515908115158152505061287b88828660a0015173ffffffffffffffffffffffffffffffffffffffff166138b19092919063ffffffff16565b5b612885876139f1565b84602160008201518160000160006101000a8154816fffffffffffffffffffffffffffffffff02191690836fffffffffffffffffffffffffffffffff16021790555060208201518160000160106101000a8154816fffffffffffffffffffffffffffffffff02191690836fffffffffffffffffffffffffffffffff16021790555090505060016022600089815260200190815260200160002060000160006101000a81548160ff0219169083151502179055508773ffffffffffffffffffffffffffffffffffffffff163373ffffffffffffffffffffffffffffffffffffffff16887fb1ce6b2969b7d61d4343479ca670be873e4e4fa738c98c347b45cc193bddb1db898660405161299892919061621c565b60405180910390a46129fe88876effffffffffffffffffffffffffffff16602360009054906101000a900473ffffffffffffffffffffffffffffffffffffffff1673ffffffffffffffffffffffffffffffffffffffff166138b19092919063ffffffff16565b5050505050612a0b613884565b92915050565b612a19613019565b600073ffffffffffffffffffffffffffffffffffffffff168173ffffffffffffffffffffffffffffffffffffffff1603612a88576040517f08c379a0000000000000000000000000000000000000000000000000000000008152600401612a7f90615b79565b60405180910390fd5b6000612a9383613f87565b9050612af78282604001516effffffffffffffffffffffffffffff16602460009054906101000a900473ffffffffffffffffffffffffffffffffffffffff1673ffffffffffffffffffffffffffffffffffffffff166138b19092919063ffffffff16565b8173ffffffffffffffffffffffffffffffffffffffff163373ffffffffffffffffffffffffffffffffffffffff16847f2bb34f95ef23b2c81d8c149136c7ebb303c6525e5795d78e15be628068b2e5d28460400151604051612b59919061592a565b60405180910390a450612b6a613884565b5050565b670de0b6b3a764000081565b620f424081565b600080612b8c612cd7565b90508060050160008573ffffffffffffffffffffffffffffffffffffffff1673ffffffffffffffffffffffffffffffffffffffff16815260200190815260200160002060008473ffffffffffffffffffffffffffffffffffffffff1673ffffffffffffffffffffffffffffffffffffffff16815260200190815260200160002060009054906101000a900460ff1691505092915050565b602460009054906101000a900473ffffffffffffffffffffffffffffffffffffffff1681565b7ff66846415d2bf9eabda9e84793ff9c0ea96d87f50fc41e66aa16469c6a442f0581565b60007f01ffc9a7000000000000000000000000000000000000000000000000000000007bffffffffffffffffffffffffffffffffffffffffffffffffffffffff1916827bffffffffffffffffffffffffffffffffffffffffffffffffffffffff1916149050919050565b60007f80bb2b638cc20bc4d0a60d66940f3ab4a00c1d7b313497ca82fb0b4ab0079300905090565b600080612d0b836143d2565b9050600073ffffffffffffffffffffffffffffffffffffffff168173ffffffffffffffffffffffffffffffffffffffff1603612d7e57826040517f7e273289000000000000000000000000000000000000000000000000000000008152600401612d759190615472565b60405180910390fd5b80915050919050565b600080612d92612cd7565b905080600401600084815260200190815260200160002060009054906101000a900473ffffffffffffffffffffffffffffffffffffffff16915050919050565b600033905090565b612de7838383600161441d565b505050565b600080612df7612cd7565b90506000612e04856143d2565b9050600073ffffffffffffffffffffffffffffffffffffffff168473ffffffffffffffffffffffffffffffffffffffff1614612e4657612e458185876145f1565b5b600073ffffffffffffffffffffffffffffffffffffffff168173ffffffffffffffffffffffffffffffffffffffff1614612ed957612e8860008660008061441d565b60018260030160008373ffffffffffffffffffffffffffffffffffffffff1673ffffffffffffffffffffffffffffffffffffffff168152602001908152602001600020600082825403925050819055505b600073ffffffffffffffffffffffffffffffffffffffff168673ffffffffffffffffffffffffffffffffffffffff1614612f5e5760018260030160008873ffffffffffffffffffffffffffffffffffffffff1673ffffffffffffffffffffffffffffffffffffffff168152602001908152602001600020600082825401925050819055505b8582600201600087815260200190815260200160002060006101000a81548173ffffffffffffffffffffffffffffffffffffffff021916908373ffffffffffffffffffffffffffffffffffffffff160217905550848673ffffffffffffffffffffffffffffffffffffffff168273ffffffffffffffffffffffffffffffffffffffff167fddf252ad1be2c89b69c2b068fc378daa952ba7f163c4a11628f55a4df523b3ef60405160405180910390a480925050509392505050565b60006130236146b5565b90506002816000015403613063576040517f3ee5aeb500000000000000000000000000000000000000000000000000000000815260040160405180910390fd5b6002816000018190555050565b60008060216040518060400160405290816000820160009054906101000a90046fffffffffffffffffffffffffffffffff166fffffffffffffffffffffffffffffffff166fffffffffffffffffffffffffffffffff1681526020016000820160109054906101000a90046fffffffffffffffffffffffffffffffff166fffffffffffffffffffffffffffffffff166fffffffffffffffffffffffffffffffff1681525050905060006131ed620f424067ffffffffffffffff1660008054906101000a900473ffffffffffffffffffffffffffffffffffffffff1673ffffffffffffffffffffffffffffffffffffffff1663458f58156040518163ffffffff1660e01b8152600401602060405180830381865afa158015613194573d6000803e3d6000fd5b505050506040513d601f19601f820116820180604052508101906131b89190615dba565b67ffffffffffffffff16866effffffffffffffffffffffffffffff166131de9190615a54565b6131e89190615ac5565b613f24565b9050600081856131fd91906161d9565b9050806effffffffffffffffffffffffffffff16836000018181516132229190616195565b9150906fffffffffffffffffffffffffffffffff1690816fffffffffffffffffffffffffffffffff1681525050816effffffffffffffffffffffffffffff16836020018181516132729190616195565b9150906fffffffffffffffffffffffffffffffff1690816fffffffffffffffffffffffffffffffff168152505060008060009054906101000a900473ffffffffffffffffffffffffffffffffffffffff1673ffffffffffffffffffffffffffffffffffffffff16632d76710b6040518163ffffffff1660e01b8152600401602060405180830381865afa15801561330d573d6000803e3d6000fd5b505050506040513d601f19601f820116820180604052508101906133319190615dba565b4261333c9190615de7565b90506040518061010001604052806000151581526020018267ffffffffffffffff168152602001836effffffffffffffffffffffffffffff16815260200160008054906101000a900473ffffffffffffffffffffffffffffffffffffffff1673ffffffffffffffffffffffffffffffffffffffff16635c0298596040518163ffffffff1660e01b8152600401602060405180830381865afa1580156133e5573d6000803e3d6000fd5b505050506040513d601f19601f820116820180604052508101906134099190615dba565b67ffffffffffffffff168152602001600067ffffffffffffffff168152602001600073ffffffffffffffffffffffffffffffffffffffff168152602001600081526020016000151581525060226000602060009054906101000a900467ffffffffffffffff1667ffffffffffffffff16815260200190815260200160002060008201518160000160006101000a81548160ff02191690831515021790555060208201518160000160016101000a81548167ffffffffffffffff021916908367ffffffffffffffff16021790555060408201518160000160096101000a8154816effffffffffffffffffffffffffffff02191690836effffffffffffffffffffffffffffff16021790555060608201518160000160186101000a81548167ffffffffffffffff021916908367ffffffffffffffff16021790555060808201518160010160006101000a81548167ffffffffffffffff021916908367ffffffffffffffff16021790555060a08201518160010160086101000a81548173ffffffffffffffffffffffffffffffffffffffff021916908373ffffffffffffffffffffffffffffffffffffffff16021790555060c0820151816002015560e08201518160030160006101000a81548160ff02191690831515021790555090505061360f87602060009054906101000a900467ffffffffffffffff1667ffffffffffffffff166146dd565b602060009054906101000a900467ffffffffffffffff1667ffffffffffffffff1694508673ffffffffffffffffffffffffffffffffffffffff163373ffffffffffffffffffffffffffffffffffffffff16867f6d276369c2c335a7a5cd8eeda9c75ea535f37c65e580d36fd3ab8ce3d1297a0089878660008054906101000a900473ffffffffffffffffffffffffffffffffffffffff1673ffffffffffffffffffffffffffffffffffffffff16635c0298596040518163ffffffff1660e01b8152600401602060405180830381865afa1580156136f0573d6000803e3d6000fd5b505050506040513d601f19601f820116820180604052508101906137149190615dba565b60405161372494939291906162a7565b60405180910390a46020600081819054906101000a900467ffffffffffffffff1661374e906162ec565b91906101000a81548167ffffffffffffffff021916908367ffffffffffffffff16021790555083602160008201518160000160006101000a8154816fffffffffffffffffffffffffffffffff02191690836fffffffffffffffffffffffffffffffff16021790555060208201518160000160106101000a8154816fffffffffffffffffffffffffffffffff02191690836fffffffffffffffffffffffffffffffff1602179055509050505050505092915050565b61387e848573ffffffffffffffffffffffffffffffffffffffff166323b872dd8686866040516024016138379392919061631c565b604051602081830303815290604052915060e01b6020820180517bffffffffffffffffffffffffffffffffffffffffffffffffffffffff83818316178352505050506146fb565b50505050565b600061388e6146b5565b90506001816000018190555050565b6138ae816138a9612dd2565b61479d565b50565b61392b838473ffffffffffffffffffffffffffffffffffffffff1663a9059cbb85856040516024016138e4929190615d48565b604051602081830303815290604052915060e01b6020820180517bffffffffffffffffffffffffffffffffffffffffffffffffffffffff83818316178352505050506146fb565b505050565b60008073ffffffffffffffffffffffffffffffffffffffff168373ffffffffffffffffffffffffffffffffffffffff16141580156139e857508273ffffffffffffffffffffffffffffffffffffffff168473ffffffffffffffffffffffffffffffffffffffff1614806139a957506139a88484612b81565b5b806139e757508273ffffffffffffffffffffffffffffffffffffffff166139cf83612d87565b73ffffffffffffffffffffffffffffffffffffffff16145b5b90509392505050565b6000613a006000836000612dec565b9050600073ffffffffffffffffffffffffffffffffffffffff168173ffffffffffffffffffffffffffffffffffffffff1603613a7357816040517f7e273289000000000000000000000000000000000000000000000000000000008152600401613a6a9190615472565b60405180910390fd5b5050565b6000613a81612cd7565b9050600073ffffffffffffffffffffffffffffffffffffffff168373ffffffffffffffffffffffffffffffffffffffff1603613af457826040517f5b08ba18000000000000000000000000000000000000000000000000000000008152600401613aeb9190615190565b60405180910390fd5b818160050160008673ffffffffffffffffffffffffffffffffffffffff1673ffffffffffffffffffffffffffffffffffffffff16815260200190815260200160002060008573ffffffffffffffffffffffffffffffffffffffff1673ffffffffffffffffffffffffffffffffffffffff16815260200190815260200160002060006101000a81548160ff0219169083151502179055508273ffffffffffffffffffffffffffffffffffffffff168473ffffffffffffffffffffffffffffffffffffffff167f17307eab39ab6107e8899845ad3d59bd9653f200f220920489ca2b5937696c3184604051613be79190615030565b60405180910390a350505050565b60008373ffffffffffffffffffffffffffffffffffffffff163b1115613d9f578273ffffffffffffffffffffffffffffffffffffffff1663150b7a02868685856040518563ffffffff1660e01b8152600401613c54949392919061639d565b6020604051808303816000875af1925050508015613c9057506040513d601f19601f82011682018060405250810190613c8d91906163fe565b60015b613d14573d8060008114613cc0576040519150601f19603f3d011682016040523d82523d6000602084013e613cc5565b606091505b506000815103613d0c57836040517f64a0ae92000000000000000000000000000000000000000000000000000000008152600401613d039190615190565b60405180910390fd5b805181602001fd5b63150b7a0260e01b7bffffffffffffffffffffffffffffffffffffffffffffffffffffffff1916817bffffffffffffffffffffffffffffffffffffffffffffffffffffffff191614613d9d57836040517f64a0ae92000000000000000000000000000000000000000000000000000000008152600401613d949190615190565b60405180910390fd5b505b5050505050565b60007ff0c57e16840df040f15088dc2f81fe391c3923bec73e23a9662efc9c229c6a00905090565b613dd66148b4565b806000806101000a81548173ffffffffffffffffffffffffffffffffffffffff021916908373ffffffffffffffffffffffffffffffffffffffff160217905550613e1e6148f4565b613e26614906565b50565b613e316148b4565b613e3b8282614910565b5050565b606060405180602001604052806000815250905090565b606060006001613e658461494d565b01905060008167ffffffffffffffff811115613e8457613e8361577c565b5b6040519080825280601f01601f191660200182016040528015613eb65781602001600182028036833780820191505090505b509050600082602001820190505b600115613f19578080600190039150507f3031323334353637383961626364656600000000000000000000000000000000600a86061a8153600a8581613f0d57613f0c615a96565b5b04945060008503613ec4575b819350505050919050565b60006effffffffffffffffffffffffffffff8016821115613f7f576078826040517f6dfcc650000000000000000000000000000000000000000000000000000000008152600401613f76929190616473565b60405180910390fd5b819050919050565b613f8f614e71565b613fa2613f9b83610e9c565b3384613930565b613fd8576040517fe816274400000000000000000000000000000000000000000000000000000000815260040160405180910390fd5b60226000838152602001908152602001600020604051806101000160405290816000820160009054906101000a900460ff161515151581526020016000820160019054906101000a900467ffffffffffffffff1667ffffffffffffffff1667ffffffffffffffff1681526020016000820160099054906101000a90046effffffffffffffffffffffffffffff166effffffffffffffffffffffffffffff166effffffffffffffffffffffffffffff1681526020016000820160189054906101000a900467ffffffffffffffff1667ffffffffffffffff1667ffffffffffffffff1681526020016001820160009054906101000a900467ffffffffffffffff1667ffffffffffffffff1667ffffffffffffffff1681526020016001820160089054906101000a900473ffffffffffffffffffffffffffffffffffffffff1673ffffffffffffffffffffffffffffffffffffffff1673ffffffffffffffffffffffffffffffffffffffff168152602001600282015481526020016003820160009054906101000a900460ff16151515158152505090508060000151156141a8576040517f1b4e0c3c00000000000000000000000000000000000000000000000000000000815260040160405180910390fd5b806020015167ffffffffffffffff16421015614201574281602001516040517f375394cb0000000000000000000000000000000000000000000000000000000081526004016141f8929190615d1f565b60405180910390fd5b80604001516effffffffffffffffffffffffffffff16602160000160008282829054906101000a90046fffffffffffffffffffffffffffffffff166142469190615c70565b92506101000a8154816fffffffffffffffffffffffffffffffff02191690836fffffffffffffffffffffffffffffffff16021790555060008160c00151148061429057508060e001515b1561429f5761429e826139f1565b5b60016022600084815260200190815260200160002060000160006101000a81548160ff02191690831515021790555060008054906101000a900473ffffffffffffffffffffffffffffffffffffffff1673ffffffffffffffffffffffffffffffffffffffff16639336ce806040518163ffffffff1660e01b8152600401602060405180830381865afa158015614339573d6000803e3d6000fd5b505050506040513d601f19601f8201168201806040525081019061435d9190615cc9565b73ffffffffffffffffffffffffffffffffffffffff16639dc29fac3083604001516040518363ffffffff1660e01b815260040161439b92919061649c565b600060405180830381600087803b1580156143b557600080fd5b505af11580156143c9573d6000803e3d6000fd5b50505050919050565b6000806143dd612cd7565b905080600201600084815260200190815260200160002060009054906101000a900473ffffffffffffffffffffffffffffffffffffffff16915050919050565b6000614427612cd7565b905081806144625750600073ffffffffffffffffffffffffffffffffffffffff168373ffffffffffffffffffffffffffffffffffffffff1614155b1561459657600061447285612cff565b9050600073ffffffffffffffffffffffffffffffffffffffff168473ffffffffffffffffffffffffffffffffffffffff16141580156144dd57508373ffffffffffffffffffffffffffffffffffffffff168173ffffffffffffffffffffffffffffffffffffffff1614155b80156144f057506144ee8185612b81565b155b1561453257836040517fa9fbf51f0000000000000000000000000000000000000000000000000000000081526004016145299190615190565b60405180910390fd5b821561459457848673ffffffffffffffffffffffffffffffffffffffff168273ffffffffffffffffffffffffffffffffffffffff167f8c5be1e5ebec7d5bd14f71427d1e84f3dd0314c0f7b2291e5b200ac8c7c3b92560405160405180910390a45b505b8481600401600086815260200190815260200160002060006101000a81548173ffffffffffffffffffffffffffffffffffffffff021916908373ffffffffffffffffffffffffffffffffffffffff1602179055505050505050565b6145fc838383613930565b6146b057600073ffffffffffffffffffffffffffffffffffffffff168373ffffffffffffffffffffffffffffffffffffffff160361467157806040517f7e2732890000000000000000000000000000000000000000000000000000000081526004016146689190615472565b60405180910390fd5b81816040517f177e802f0000000000000000000000000000000000000000000000000000000081526004016146a7929190615d48565b60405180910390fd5b505050565b60007f9b779b17422d0df92223018b32b4d1fa46e071723d6817e2486d003becc55f00905090565b6146f7828260405180602001604052806000815250614aa0565b5050565b600080602060008451602086016000885af18061471e576040513d6000823e3d81fd5b3d925060005191505060008214614739576001811415614755565b60008473ffffffffffffffffffffffffffffffffffffffff163b145b1561479757836040517f5274afe700000000000000000000000000000000000000000000000000000000815260040161478e9190615190565b60405180910390fd5b50505050565b60008054906101000a900473ffffffffffffffffffffffffffffffffffffffff1673ffffffffffffffffffffffffffffffffffffffff166391d1485483836040518363ffffffff1660e01b81526004016147f8929190615c05565b602060405180830381865afa158015614815573d6000803e3d6000fd5b505050506040513d601f19601f820116820180604052508101906148399190615c43565b6148b05761484681614ac4565b6148548360001c6020614af1565b60405160200161486592919061655d565b6040516020818303038152906040526040517f08c379a00000000000000000000000000000000000000000000000000000000081526004016148a791906150ca565b60405180910390fd5b5050565b6148bc614d37565b6148f2576040517fd7e6bcf800000000000000000000000000000000000000000000000000000000815260040160405180910390fd5b565b6148fc6148b4565b614904614d57565b565b61490e6148b4565b565b6149186148b4565b6000614922612cd7565b9050828160000190816149359190616739565b50818160010190816149479190616739565b50505050565b600080600090507a184f03e93ff9f4daa797ed6e38ed64bf6a1f01000000000000000083106149ab577a184f03e93ff9f4daa797ed6e38ed64bf6a1f01000000000000000083816149a1576149a0615a96565b5b0492506040810190505b6d04ee2d6d415b85acef810000000083106149e8576d04ee2d6d415b85acef810000000083816149de576149dd615a96565b5b0492506020810190505b662386f26fc100008310614a1757662386f26fc100008381614a0d57614a0c615a96565b5b0492506010810190505b6305f5e1008310614a40576305f5e1008381614a3657614a35615a96565b5b0492506008810190505b6127108310614a65576127108381614a5b57614a5a615a96565b5b0492506004810190505b60648310614a885760648381614a7e57614a7d615a96565b5b0492506002810190505b600a8310614a97576001810190505b80915050919050565b614aaa8383614d78565b614abf614ab5612dd2565b6000858585613bf5565b505050565b6060614aea8273ffffffffffffffffffffffffffffffffffffffff16601460ff16614af1565b9050919050565b6060600083905060006002846002614b099190615a54565b614b139190615e5f565b67ffffffffffffffff811115614b2c57614b2b61577c565b5b6040519080825280601f01601f191660200182016040528015614b5e5781602001600182028036833780820191505090505b5090507f300000000000000000000000000000000000000000000000000000000000000081600081518110614b9657614b9561680b565b5b60200101907effffffffffffffffffffffffffffffffffffffffffffffffffffffffffffff1916908160001a9053507f780000000000000000000000000000000000000000000000000000000000000081600181518110614bfa57614bf961680b565b5b60200101907effffffffffffffffffffffffffffffffffffffffffffffffffffffffffffff1916908160001a90535060006001856002614c3a9190615a54565b614c449190615e5f565b90505b6001811115614ce4577f3031323334353637383961626364656600000000000000000000000000000000600f841660108110614c8657614c8561680b565b5b1a60f81b828281518110614c9d57614c9c61680b565b5b60200101907effffffffffffffffffffffffffffffffffffffffffffffffffffffffffffff1916908160001a905350600483901c925080614cdd9061683a565b9050614c47565b5060008214614d2c5784846040517fe22e27eb000000000000000000000000000000000000000000000000000000008152600401614d23929190616863565b60405180910390fd5b809250505092915050565b6000614d41613da6565b60000160089054906101000a900460ff16905090565b614d5f6148b4565b6000614d696146b5565b90506001816000018190555050565b600073ffffffffffffffffffffffffffffffffffffffff168273ffffffffffffffffffffffffffffffffffffffff1603614dea5760006040517f64a0ae92000000000000000000000000000000000000000000000000000000008152600401614de19190615190565b60405180910390fd5b6000614df883836000612dec565b9050600073ffffffffffffffffffffffffffffffffffffffff168173ffffffffffffffffffffffffffffffffffffffff1614614e6c5760006040517f73c6ac6e000000000000000000000000000000000000000000000000000000008152600401614e639190615190565b60405180910390fd5b505050565b604051806101000160405280600015158152602001600067ffffffffffffffff16815260200160006effffffffffffffffffffffffffffff168152602001600067ffffffffffffffff168152602001600067ffffffffffffffff168152602001600073ffffffffffffffffffffffffffffffffffffffff168152602001600081526020016000151581525090565b600082825260208201905092915050565b7f426173653a206e6f7420737570706f7274204d65746973207472616e73666572600082015250565b6000614f46602083614eff565b9150614f5182614f10565b602082019050919050565b60006020820190508181036000830152614f7581614f39565b9050919050565b6000604051905090565b600080fd5b600080fd5b60007fffffffff0000000000000000000000000000000000000000000000000000000082169050919050565b614fc581614f90565b8114614fd057600080fd5b50565b600081359050614fe281614fbc565b92915050565b600060208284031215614ffe57614ffd614f86565b5b600061500c84828501614fd3565b91505092915050565b60008115159050919050565b61502a81615015565b82525050565b60006020820190506150456000830184615021565b92915050565b600081519050919050565b60005b83811015615074578082015181840152602081019050615059565b60008484015250505050565b6000601f19601f8301169050919050565b600061509c8261504b565b6150a68185614eff565b93506150b6818560208601615056565b6150bf81615080565b840191505092915050565b600060208201905081810360008301526150e48184615091565b905092915050565b6000819050919050565b6150ff816150ec565b811461510a57600080fd5b50565b60008135905061511c816150f6565b92915050565b60006020828403121561513857615137614f86565b5b60006151468482850161510d565b91505092915050565b600073ffffffffffffffffffffffffffffffffffffffff82169050919050565b600061517a8261514f565b9050919050565b61518a8161516f565b82525050565b60006020820190506151a56000830184615181565b92915050565b6151b48161516f565b81146151bf57600080fd5b50565b6000813590506151d1816151ab565b92915050565b600080604083850312156151ee576151ed614f86565b5b60006151fc858286016151c2565b925050602061520d8582860161510d565b9150509250929050565b60006fffffffffffffffffffffffffffffffff82169050919050565b61523c81615217565b82525050565b60006040820190506152576000830185615233565b6152646020830184615233565b9392505050565b60008060006060848603121561528457615283614f86565b5b6000615292868287016151c2565b93505060206152a38682870161510d565b92505060406152b48682870161510d565b9150509250925092565b600067ffffffffffffffff82169050919050565b6152db816152be565b82525050565b60006020820190506152f660008301846152d2565b92915050565b60006effffffffffffffffffffffffffffff82169050919050565b615320816152fc565b82525050565b61532f816150ec565b82525050565b60006101008201905061534b600083018b615021565b615358602083018a6152d2565b6153656040830189615317565b61537260608301886152d2565b61537f60808301876152d2565b61538c60a0830186615181565b61539960c0830185615326565b6153a660e0830184615021565b9998505050505050505050565b6000806000606084860312156153cc576153cb614f86565b5b60006153da868287016151c2565b93505060206153eb868287016151c2565b92505060406153fc8682870161510d565b9150509250925092565b61540f816152fc565b811461541a57600080fd5b50565b60008135905061542c81615406565b92915050565b6000806040838503121561544957615448614f86565b5b6000615457858286016151c2565b92505060206154688582860161541d565b9150509250929050565b60006020820190506154876000830184615326565b92915050565b6000602082840312156154a3576154a2614f86565b5b60006154b1848285016151c2565b91505092915050565b6154c381615217565b81146154ce57600080fd5b50565b6000813590506154e0816154ba565b92915050565b6000602082840312156154fc576154fb614f86565b5b600061550a848285016154d1565b91505092915050565b6000819050919050565b61552681615513565b82525050565b6000602082019050615541600083018461551d565b92915050565b6000806000606084860312156155605761555f614f86565b5b600061556e8682870161510d565b935050602061557f868287016151c2565b92505060406155908682870161510d565b9150509250925092565b6000819050919050565b60006155bf6155ba6155b58461514f565b61559a565b61514f565b9050919050565b60006155d1826155a4565b9050919050565b60006155e3826155c6565b9050919050565b6155f3816155d8565b82525050565b600060208201905061560e60008301846155ea565b92915050565b600061561f826155c6565b9050919050565b61562f81615614565b82525050565b600060208201905061564a6000830184615626565b92915050565b61565981615015565b811461566457600080fd5b50565b60008135905061567681615650565b92915050565b6000806040838503121561569357615692614f86565b5b60006156a1858286016151c2565b92505060206156b285828601615667565b9150509250929050565b6156c5816152be565b81146156d057600080fd5b50565b6000813590506156e2816156bc565b92915050565b60008060006060848603121561570157615700614f86565b5b600061570f868287016151c2565b9350506020615720868287016156d3565b92505060406157318682870161510d565b9150509250925092565b60006060820190506157506000830186615326565b61575d6020830185615326565b61576a6040830184615326565b949350505050565b600080fd5b600080fd5b7f4e487b7100000000000000000000000000000000000000000000000000000000600052604160045260246000fd5b6157b482615080565b810181811067ffffffffffffffff821117156157d3576157d261577c565b5b80604052505050565b60006157e6614f7c565b90506157f282826157ab565b919050565b600067ffffffffffffffff8211156158125761581161577c565b5b61581b82615080565b9050602081019050919050565b82818337600083830152505050565b600061584a615845846157f7565b6157dc565b90508281526020810184848401111561586657615865615777565b5b615871848285615828565b509392505050565b600082601f83011261588e5761588d615772565b5b813561589e848260208601615837565b91505092915050565b600080600080608085870312156158c1576158c0614f86565b5b60006158cf878288016151c2565b94505060206158e0878288016151c2565b93505060406158f18782880161510d565b925050606085013567ffffffffffffffff81111561591257615911614f8b565b5b61591e87828801615879565b91505092959194509250565b600060208201905061593f6000830184615317565b92915050565b6000806040838503121561595c5761595b614f86565b5b600061596a8582860161510d565b925050602061597b858286016151c2565b9150509250929050565b6000806040838503121561599c5761599b614f86565b5b60006159aa858286016151c2565b92505060206159bb858286016151c2565b9150509250929050565b7f4e487b7100000000000000000000000000000000000000000000000000000000600052602260045260246000fd5b60006002820490506001821680615a0c57607f821691505b602082108103615a1f57615a1e6159c5565b5b50919050565b7f4e487b7100000000000000000000000000000000000000000000000000000000600052601160045260246000fd5b6000615a5f826150ec565b9150615a6a836150ec565b9250828202615a78816150ec565b91508282048414831517615a8f57615a8e615a25565b5b5092915050565b7f4e487b7100000000000000000000000000000000000000000000000000000000600052601260045260246000fd5b6000615ad0826150ec565b9150615adb836150ec565b925082615aeb57615aea615a96565b5b828204905092915050565b6000606082019050615b0b6000830186615181565b615b186020830185615326565b615b256040830184615181565b949350505050565b7f526564656d7074696f6e51756575653a207a65726f2061646472657373000000600082015250565b6000615b63601d83614eff565b9150615b6e82615b2d565b602082019050919050565b60006020820190508181036000830152615b9281615b56565b9050919050565b7f526564656d7074696f6e51756575653a20616d6f756e74206973207a65726f00600082015250565b6000615bcf601f83614eff565b9150615bda82615b99565b602082019050919050565b60006020820190508181036000830152615bfe81615bc2565b9050919050565b6000604082019050615c1a600083018561551d565b615c276020830184615181565b9392505050565b600081519050615c3d81615650565b92915050565b600060208284031215615c5957615c58614f86565b5b6000615c6784828501615c2e565b91505092915050565b6000615c7b82615217565b9150615c8683615217565b925082820390506fffffffffffffffffffffffffffffffff811115615cae57615cad615a25565b5b92915050565b600081519050615cc3816151ab565b92915050565b600060208284031215615cdf57615cde614f86565b5b6000615ced84828501615cb4565b91505092915050565b6000604082019050615d0b6000830185615181565b615d186020830184615233565b9392505050565b6000604082019050615d346000830185615326565b615d4160208301846152d2565b9392505050565b6000604082019050615d5d6000830185615181565b615d6a6020830184615326565b9392505050565b6000615d7c826150ec565b9150615d87836150ec565b9250828203905081811115615d9f57615d9e615a25565b5b92915050565b600081519050615db4816156bc565b92915050565b600060208284031215615dd057615dcf614f86565b5b6000615dde84828501615da5565b91505092915050565b6000615df2826152be565b9150615dfd836152be565b9250828201905067ffffffffffffffff811115615e1d57615e1c615a25565b5b92915050565b6000615e2e826152be565b9150615e39836152be565b9250828203905067ffffffffffffffff811115615e5957615e58615a25565b5b92915050565b6000615e6a826150ec565b9150615e75836150ec565b9250828201905080821115615e8d57615e8c615a25565b5b92915050565b6000608082019050615ea86000830187615181565b615eb56020830186615326565b615ec260408301856152d2565b615ecf60608301846152d2565b95945050505050565b600081519050919050565b600081905092915050565b6000615ef982615ed8565b615f038185615ee3565b9350615f13818560208601615056565b80840191505092915050565b6000615f2b8284615eee565b915081905092915050565b7f526564656d7074696f6e51756575653a2067657452657365727665732066616960008201527f6c65640000000000000000000000000000000000000000000000000000000000602082015250565b6000615f92602383614eff565b9150615f9d82615f36565b604082019050919050565b60006020820190508181036000830152615fc181615f85565b9050919050565b60006dffffffffffffffffffffffffffff82169050919050565b615feb81615fc8565b8114615ff657600080fd5b50565b60008151905061600881615fe2565b92915050565b600063ffffffff82169050919050565b6160278161600e565b811461603257600080fd5b50565b6000815190506160448161601e565b92915050565b60008060006060848603121561606357616062614f86565b5b600061607186828701615ff9565b935050602061608286828701615ff9565b925050604061609386828701616035565b9150509250925092565b6000815190506160ac816150f6565b92915050565b6000602082840312156160c8576160c7614f86565b5b60006160d68482850161609d565b91505092915050565b6000819050919050565b60006161046160ff6160fa846160df565b61559a565b6152be565b9050919050565b616114816160e9565b82525050565b600060208201905061612f600083018461610b565b92915050565b600081905092915050565b600061614b8261504b565b6161558185616135565b9350616165818560208601615056565b80840191505092915050565b600061617d8285616140565b91506161898284616140565b91508190509392505050565b60006161a082615217565b91506161ab83615217565b925082820190506fffffffffffffffffffffffffffffffff8111156161d3576161d2615a25565b5b92915050565b60006161e4826152fc565b91506161ef836152fc565b925082820390506effffffffffffffffffffffffffffff81111561621657616215615a25565b5b92915050565b60006040820190506162316000830185615317565b61623e6020830184615317565b9392505050565b600061626061625b616256846152fc565b61559a565b6150ec565b9050919050565b61627081616245565b82525050565b600061629161628c616287846152be565b61559a565b6150ec565b9050919050565b6162a181616276565b82525050565b60006080820190506162bc6000830187616267565b6162c96020830186615317565b6162d660408301856152d2565b6162e36060830184616298565b95945050505050565b60006162f7826152be565b915067ffffffffffffffff820361631157616310615a25565b5b600182019050919050565b60006060820190506163316000830186615181565b61633e6020830185615181565b61634b6040830184615326565b949350505050565b600082825260208201905092915050565b600061636f82615ed8565b6163798185616353565b9350616389818560208601615056565b61639281615080565b840191505092915050565b60006080820190506163b26000830187615181565b6163bf6020830186615181565b6163cc6040830185615326565b81810360608301526163de8184616364565b905095945050505050565b6000815190506163f881614fbc565b92915050565b60006020828403121561641457616413614f86565b5b6000616422848285016163e9565b91505092915050565b6000819050919050565b600060ff82169050919050565b600061645d6164586164538461642b565b61559a565b616435565b9050919050565b61646d81616442565b82525050565b60006040820190506164886000830185616464565b6164956020830184615326565b9392505050565b60006040820190506164b16000830185615181565b6164be6020830184616267565b9392505050565b7f416363657373436f6e74726f6c3a206163636f756e7420000000000000000000600082015250565b60006164fb601783616135565b9150616506826164c5565b601782019050919050565b7f206973206d697373696e6720726f6c6520000000000000000000000000000000600082015250565b6000616547601183616135565b915061655282616511565b601182019050919050565b6000616568826164ee565b91506165748285616140565b915061657f8261653a565b915061658b8284616140565b91508190509392505050565b60008190508160005260206000209050919050565b60006020601f8301049050919050565b600082821b905092915050565b6000600883026165f97fffffffffffffffffffffffffffffffffffffffffffffffffffffffffffffffff826165bc565b61660386836165bc565b95508019841693508086168417925050509392505050565b600061663661663161662c846150ec565b61559a565b6150ec565b9050919050565b6000819050919050565b6166508361661b565b61666461665c8261663d565b8484546165c9565b825550505050565b600090565b61667961666c565b616684818484616647565b505050565b5b818110156166a85761669d600082616671565b60018101905061668a565b5050565b601f8211156166ed576166be81616597565b6166c7846165ac565b810160208510156166d6578190505b6166ea6166e2856165ac565b830182616689565b50505b505050565b600082821c905092915050565b6000616710600019846008026166f2565b1980831691505092915050565b600061672983836166ff565b9150826002028217905092915050565b6167428261504b565b67ffffffffffffffff81111561675b5761675a61577c565b5b61676582546159f4565b6167708282856166ac565b600060209050601f8311600181146167a35760008415616791578287015190505b61679b858261671d565b865550616803565b601f1984166167b186616597565b60005b828110156167d9578489015182556001820191506020850194506020810190506167b4565b868310156167f657848901516167f2601f8916826166ff565b8355505b6001600288020188555050505b505050505050565b7f4e487b7100000000000000000000000000000000000000000000000000000000600052603260045260246000fd5b6000616845826150ec565b91506000820361685857616857615a25565b5b600182039050919050565b60006040820190506168786000830185615326565b6168856020830184615326565b939250505056fea264697066735822122044ad5f4756259390b70122dd3ed1c9a5b7ac3d2e832bbbd268bb509845bc364d64736f6c63430008140033",
  "linkReferences": {},
  "deployedLinkReferences": {}
}