{
  "_format": "hh-sol-artifact-1",
  "contractName": "RewardDispatcher",
  "sourceName": "contracts/RewardDispatcher.sol",
  "abi": [
    {
      "inputs": [],
      "name": "InvalidInitialization",
      "type": "error"
    },
    {
      "inputs": [],
      "name": "NotInitializing",
      "type": "error"
    },
    {
      "inputs": [],
      "name": "ReentrancyGuardReentrantCall",
      "type": "error"
    },
    {
      "inputs": [
        {
          "internalType": "address",
          "name": "token",
          "type": "address"
        }
      ],
      "name": "SafeERC20FailedOperation",
      "type": "error"
    },
    {
      "inputs": [
        {
          "internalType": "uint256",
          "name": "value",
          "type": "uint256"
        },
        {
          "internalType": "uint256",
          "name": "length",
          "type": "uint256"
        }
      ],
      "name": "StringsInsufficientHexLength",
      "type": "error"
    },
    {
      "anonymous": false,
      "inputs": [
        {
          "indexed": false,
          "internalType": "uint256",
          "name": "amount",
          "type": "uint256"
        },
        {
          "indexed": false,
          "internalType": "uint256",
          "name": "toTreasuryAmount",
          "type": "uint256"
        },
        {
          "indexed": false,
          "internalType": "uint256",
          "name": "toVaultAmount",
          "type": "uint256"
        }
      ],
      "name": "Dispatched",
      "type": "event"
    },
    {
      "anonymous": false,
      "inputs": [
        {
          "indexed": false,
          "internalType": "uint64",
          "name": "version",
          "type": "uint64"
        }
      ],
      "name": "Initialized",
      "type": "event"
    },
    {
      "inputs": [],
      "name": "ADMIN_ROLE",
      "outputs": [
        {
          "internalType": "bytes32",
          "name": "",
          "type": "bytes32"
        }
      ],
      "stateMutability": "view",
      "type": "function"
    },
    {
      "inputs": [],
      "name": "BACKEND_ROLE",
      "outputs": [
        {
          "internalType": "bytes32",
          "name": "",
          "type": "bytes32"
        }
      ],
      "stateMutability": "view",
      "type": "function"
    },
    {
      "inputs": [],
      "name": "DEFAULT_ADMIN_ROLE",
      "outputs": [
        {
          "internalType": "bytes32",
          "name": "",
          "type": "bytes32"
        }
      ],
      "stateMutability": "view",
      "type": "function"
    },
    {
      "inputs": [],
      "name": "FEE_PRECISION",
      "outputs": [
        {
          "internalType": "uint64",
          "name": "",
          "type": "uint64"
        }
      ],
      "stateMutability": "view",
      "type": "function"
    },
    {
      "inputs": [],
      "name": "INITIAL_DEPOSIT_AMOUNT",
      "outputs": [
        {
          "internalType": "uint256",
          "name": "",
          "type": "uint256"
        }
      ],
      "stateMutability": "view",
      "type": "function"
    },
    {
      "inputs": [],
      "name": "TIMELOCK_ROLE",
      "outputs": [
        {
          "internalType": "bytes32",
          "name": "",
          "type": "bytes32"
        }
      ],
      "stateMutability": "view",
      "type": "function"
    },
    {
      "inputs": [],
      "name": "config",
      "outputs": [
        {
          "internalType": "contract IConfig",
          "name": "",
          "type": "address"
        }
      ],
      "stateMutability": "view",
      "type": "function"
    },
    {
      "inputs": [],
      "name": "dispatch",
      "outputs": [],
      "stateMutability": "nonpayable",
      "type": "function"
    },
    {
      "inputs": [
        {
          "internalType": "address",
          "name": "_config",
          "type": "address"
        }
      ],
      "name": "initialize",
      "outputs": [],
      "stateMutability": "nonpayable",
      "type": "function"
    },
    {
      "inputs": [],
      "name": "treasuryBalance",
      "outputs": [
        {
          "internalType": "uint256",
          "name": "",
          "type": "uint256"
        }
      ],
      "stateMutability": "view",
      "type": "function"
    },
    {
      "inputs": [],
      "name": "veMetis",
      "outputs": [
        {
          "internalType": "contract IERC20",
          "name": "",
          "type": "address"
        }
      ],
      "stateMutability": "view",
      "type": "function"
    },
    {
      "inputs": [
        {
          "internalType": "uint256",
          "name": "amount",
          "type": "uint256"
        },
        {
          "internalType": "bool",
          "name": "redeem",
          "type": "bool"
        }
      ],
      "name": "withdrawTreasury",
      "outputs": [],
      "stateMutability": "nonpayable",
      "type": "function"
    },
    {
      "stateMutability": "payable",
      "type": "receive"
    }
  ],
  "bytecode": "0x608060405234801561001057600080fd5b50611d74806100206000396000f3fe6080604052600436106100ab5760003560e01c8063a298fb2011610064578063a298fb20146101f2578063c4d66de81461021b578063e52083c614610244578063e63a391f1461026f578063e9c4a3ac1461029a578063f288a2e2146102b1576100eb565b8063313dab20146100f057806375b238fc1461011b57806379502c551461014657806392c2becc146101715780639336ce801461019c578063a217fddf146101c7576100eb565b366100eb576040517f08c379a00000000000000000000000000000000000000000000000000000000081526004016100e2906113c0565b60405180910390fd5b600080fd5b3480156100fc57600080fd5b506101056102dc565b60405161011291906113f9565b60405180910390f35b34801561012757600080fd5b506101306102e2565b60405161013d919061142d565b60405180910390f35b34801561015257600080fd5b5061015b610306565b60405161016891906114c7565b60405180910390f35b34801561017d57600080fd5b5061018661032a565b604051610193919061142d565b60405180910390f35b3480156101a857600080fd5b506101b161034e565b6040516101be9190611503565b60405180910390f35b3480156101d357600080fd5b506101dc610374565b6040516101e9919061142d565b60405180910390f35b3480156101fe57600080fd5b5061021960048036038101906102149190611587565b61037b565b005b34801561022757600080fd5b50610242600480360381019061023d9190611605565b6105e6565b005b34801561025057600080fd5b50610259610844565b60405161026691906113f9565b60405180910390f35b34801561027b57600080fd5b50610284610850565b6040516102919190611655565b60405180910390f35b3480156102a657600080fd5b506102af610857565b005b3480156102bd57600080fd5b506102c6610cc0565b6040516102d3919061142d565b60405180910390f35b60215481565b7fa49807205ce4d355092ef5a8a18f56e8913cf4a201fbe287825b095693c2177581565b60008054906101000a900473ffffffffffffffffffffffffffffffffffffffff1681565b7f25cf2b509f2a7f322675b2a5322b182f44ad2c03ac941a0af17c9b178f5d5d5f81565b602060009054906101000a900473ffffffffffffffffffffffffffffffffffffffff1681565b6000801b81565b6103a47f25cf2b509f2a7f322675b2a5322b182f44ad2c03ac941a0af17c9b178f5d5d5f610ce4565b6021548211156103e9576040517f08c379a00000000000000000000000000000000000000000000000000000000081526004016103e0906116e2565b60405180910390fd5b81602160008282546103fb9190611731565b9250508190555080156105065760008054906101000a900473ffffffffffffffffffffffffffffffffffffffff1673ffffffffffffffffffffffffffffffffffffffff1663bf27726c6040518163ffffffff1660e01b8152600401602060405180830381865afa158015610473573d6000803e3d6000fd5b505050506040513d601f19601f82011682018060405250810190610497919061177a565b73ffffffffffffffffffffffffffffffffffffffff1663bdb6a622836040518263ffffffff1660e01b81526004016104cf91906113f9565b600060405180830381600087803b1580156104e957600080fd5b505af11580156104fd573d6000803e3d6000fd5b505050506105e2565b6105e160008054906101000a900473ffffffffffffffffffffffffffffffffffffffff1673ffffffffffffffffffffffffffffffffffffffff1663803db96d6040518163ffffffff1660e01b8152600401602060405180830381865afa158015610574573d6000803e3d6000fd5b505050506040513d601f19601f82011682018060405250810190610598919061177a565b83602060009054906101000a900473ffffffffffffffffffffffffffffffffffffffff1673ffffffffffffffffffffffffffffffffffffffff16610cf89092919063ffffffff16565b5b5050565b60006105f0610d77565b905060008160000160089054906101000a900460ff1615905060008260000160009054906101000a900467ffffffffffffffff1690506000808267ffffffffffffffff1614801561063e5750825b9050600060018367ffffffffffffffff16148015610673575060003073ffffffffffffffffffffffffffffffffffffffff163b145b905081158015610681575080155b156106b8576040517ff92ee8a900000000000000000000000000000000000000000000000000000000815260040160405180910390fd5b60018560000160006101000a81548167ffffffffffffffff021916908367ffffffffffffffff16021790555083156107085760018560000160086101000a81548160ff0219169083151502179055505b61071186610d9f565b60008054906101000a900473ffffffffffffffffffffffffffffffffffffffff1673ffffffffffffffffffffffffffffffffffffffff16639336ce806040518163ffffffff1660e01b8152600401602060405180830381865afa15801561077c573d6000803e3d6000fd5b505050506040513d601f19601f820116820180604052508101906107a0919061177a565b602060006101000a81548173ffffffffffffffffffffffffffffffffffffffff021916908373ffffffffffffffffffffffffffffffffffffffff160217905550831561083c5760008560000160086101000a81548160ff0219169083151502179055507fc7f505b2f371ae2175ee4913f4499e1f2633a7b5936321eed1cdaeb6115181d2600160405161083391906117e2565b60405180910390a15b505050505050565b670de0b6b3a764000081565b620f424081565b61085f610dfa565b6108887f25cf2b509f2a7f322675b2a5322b182f44ad2c03ac941a0af17c9b178f5d5d5f610ce4565b6000602060009054906101000a900473ffffffffffffffffffffffffffffffffffffffff1673ffffffffffffffffffffffffffffffffffffffff166370a08231306040518263ffffffff1660e01b81526004016108e5919061180c565b602060405180830381865afa158015610902573d6000803e3d6000fd5b505050506040513d601f19601f82011682018060405250810190610926919061183c565b90506000811161096b576040517f08c379a0000000000000000000000000000000000000000000000000000000008152600401610962906118b5565b60405180910390fd5b6000620f424067ffffffffffffffff1660008054906101000a900473ffffffffffffffffffffffffffffffffffffffff1673ffffffffffffffffffffffffffffffffffffffff16638b587b9c6040518163ffffffff1660e01b8152600401602060405180830381865afa1580156109e6573d6000803e3d6000fd5b505050506040513d601f19601f82011682018060405250810190610a0a9190611911565b63ffffffff1683610a1b919061193e565b610a2591906119af565b905060008183610a359190611731565b90508160216000828254610a4991906119e0565b92505081905550602060009054906101000a900473ffffffffffffffffffffffffffffffffffffffff1673ffffffffffffffffffffffffffffffffffffffff1663095ea7b360008054906101000a900473ffffffffffffffffffffffffffffffffffffffff1673ffffffffffffffffffffffffffffffffffffffff1663a21914706040518163ffffffff1660e01b8152600401602060405180830381865afa158015610af9573d6000803e3d6000fd5b505050506040513d601f19601f82011682018060405250810190610b1d919061177a565b836040518363ffffffff1660e01b8152600401610b3b929190611a14565b6020604051808303816000875af1158015610b5a573d6000803e3d6000fd5b505050506040513d601f19601f82011682018060405250810190610b7e9190611a52565b5060008054906101000a900473ffffffffffffffffffffffffffffffffffffffff1673ffffffffffffffffffffffffffffffffffffffff1663a21914706040518163ffffffff1660e01b8152600401602060405180830381865afa158015610bea573d6000803e3d6000fd5b505050506040513d601f19601f82011682018060405250810190610c0e919061177a565b73ffffffffffffffffffffffffffffffffffffffff166311217d55826040518263ffffffff1660e01b8152600401610c4691906113f9565b600060405180830381600087803b158015610c6057600080fd5b505af1158015610c74573d6000803e3d6000fd5b505050507f929c30b248a2b23bb2e1ab7c63cbbd5e53480d01e032310e7de1d3865e2fb937838383604051610cab93929190611a7f565b60405180910390a1505050610cbe610e51565b565b7ff66846415d2bf9eabda9e84793ff9c0ea96d87f50fc41e66aa16469c6a442f0581565b610cf581610cf0610e6a565b610e72565b50565b610d72838473ffffffffffffffffffffffffffffffffffffffff1663a9059cbb8585604051602401610d2b929190611a14565b604051602081830303815290604052915060e01b6020820180517bffffffffffffffffffffffffffffffffffffffffffffffffffffffff8381831617835250505050610f89565b505050565b60007ff0c57e16840df040f15088dc2f81fe391c3923bec73e23a9662efc9c229c6a00905090565b610da761102b565b806000806101000a81548173ffffffffffffffffffffffffffffffffffffffff021916908373ffffffffffffffffffffffffffffffffffffffff160217905550610def61106b565b610df761107d565b50565b6000610e04611087565b90506002816000015403610e44576040517f3ee5aeb500000000000000000000000000000000000000000000000000000000815260040160405180910390fd5b6002816000018190555050565b6000610e5b611087565b90506001816000018190555050565b600033905090565b60008054906101000a900473ffffffffffffffffffffffffffffffffffffffff1673ffffffffffffffffffffffffffffffffffffffff166391d1485483836040518363ffffffff1660e01b8152600401610ecd929190611ab6565b602060405180830381865afa158015610eea573d6000803e3d6000fd5b505050506040513d601f19601f82011682018060405250810190610f0e9190611a52565b610f8557610f1b816110af565b610f298360001c60206110dc565b604051602001610f3a929190611be8565b6040516020818303038152906040526040517f08c379a0000000000000000000000000000000000000000000000000000000008152600401610f7c9190611c6c565b60405180910390fd5b5050565b600080602060008451602086016000885af180610fac576040513d6000823e3d81fd5b3d925060005191505060008214610fc7576001811415610fe3565b60008473ffffffffffffffffffffffffffffffffffffffff163b145b1561102557836040517f5274afe700000000000000000000000000000000000000000000000000000000815260040161101c919061180c565b60405180910390fd5b50505050565b611033611322565b611069576040517fd7e6bcf800000000000000000000000000000000000000000000000000000000815260040160405180910390fd5b565b61107361102b565b61107b611342565b565b61108561102b565b565b60007f9b779b17422d0df92223018b32b4d1fa46e071723d6817e2486d003becc55f00905090565b60606110d58273ffffffffffffffffffffffffffffffffffffffff16601460ff166110dc565b9050919050565b60606000839050600060028460026110f4919061193e565b6110fe91906119e0565b67ffffffffffffffff81111561111757611116611c8e565b5b6040519080825280601f01601f1916602001820160405280156111495781602001600182028036833780820191505090505b5090507f30000000000000000000000000000000000000000000000000000000000000008160008151811061118157611180611cbd565b5b60200101907effffffffffffffffffffffffffffffffffffffffffffffffffffffffffffff1916908160001a9053507f7800000000000000000000000000000000000000000000000000000000000000816001815181106111e5576111e4611cbd565b5b60200101907effffffffffffffffffffffffffffffffffffffffffffffffffffffffffffff1916908160001a90535060006001856002611225919061193e565b61122f91906119e0565b90505b60018111156112cf577f3031323334353637383961626364656600000000000000000000000000000000600f84166010811061127157611270611cbd565b5b1a60f81b82828151811061128857611287611cbd565b5b60200101907effffffffffffffffffffffffffffffffffffffffffffffffffffffffffffff1916908160001a905350600483901c9250806112c890611cec565b9050611232565b50600082146113175784846040517fe22e27eb00000000000000000000000000000000000000000000000000000000815260040161130e929190611d15565b60405180910390fd5b809250505092915050565b600061132c610d77565b60000160089054906101000a900460ff16905090565b61134a61102b565b6000611354611087565b90506001816000018190555050565b600082825260208201905092915050565b7f426173653a206e6f7420737570706f7274204d65746973207472616e73666572600082015250565b60006113aa602083611363565b91506113b582611374565b602082019050919050565b600060208201905081810360008301526113d98161139d565b9050919050565b6000819050919050565b6113f3816113e0565b82525050565b600060208201905061140e60008301846113ea565b92915050565b6000819050919050565b61142781611414565b82525050565b6000602082019050611442600083018461141e565b92915050565b600073ffffffffffffffffffffffffffffffffffffffff82169050919050565b6000819050919050565b600061148d61148861148384611448565b611468565b611448565b9050919050565b600061149f82611472565b9050919050565b60006114b182611494565b9050919050565b6114c1816114a6565b82525050565b60006020820190506114dc60008301846114b8565b92915050565b60006114ed82611494565b9050919050565b6114fd816114e2565b82525050565b600060208201905061151860008301846114f4565b92915050565b600080fd5b61152c816113e0565b811461153757600080fd5b50565b60008135905061154981611523565b92915050565b60008115159050919050565b6115648161154f565b811461156f57600080fd5b50565b6000813590506115818161155b565b92915050565b6000806040838503121561159e5761159d61151e565b5b60006115ac8582860161153a565b92505060206115bd85828601611572565b9150509250929050565b60006115d282611448565b9050919050565b6115e2816115c7565b81146115ed57600080fd5b50565b6000813590506115ff816115d9565b92915050565b60006020828403121561161b5761161a61151e565b5b6000611629848285016115f0565b91505092915050565b600067ffffffffffffffff82169050919050565b61164f81611632565b82525050565b600060208201905061166a6000830184611646565b92915050565b7f526577617264446973706174636865723a20696e73756666696369656e74206260008201527f616c616e63650000000000000000000000000000000000000000000000000000602082015250565b60006116cc602683611363565b91506116d782611670565b604082019050919050565b600060208201905081810360008301526116fb816116bf565b9050919050565b7f4e487b7100000000000000000000000000000000000000000000000000000000600052601160045260246000fd5b600061173c826113e0565b9150611747836113e0565b925082820390508181111561175f5761175e611702565b5b92915050565b600081519050611774816115d9565b92915050565b6000602082840312156117905761178f61151e565b5b600061179e84828501611765565b91505092915050565b6000819050919050565b60006117cc6117c76117c2846117a7565b611468565b611632565b9050919050565b6117dc816117b1565b82525050565b60006020820190506117f760008301846117d3565b92915050565b611806816115c7565b82525050565b600060208201905061182160008301846117fd565b92915050565b60008151905061183681611523565b92915050565b6000602082840312156118525761185161151e565b5b600061186084828501611827565b91505092915050565b7f526577617264446973706174636865723a206e6f207265776172640000000000600082015250565b600061189f601b83611363565b91506118aa82611869565b602082019050919050565b600060208201905081810360008301526118ce81611892565b9050919050565b600063ffffffff82169050919050565b6118ee816118d5565b81146118f957600080fd5b50565b60008151905061190b816118e5565b92915050565b6000602082840312156119275761192661151e565b5b6000611935848285016118fc565b91505092915050565b6000611949826113e0565b9150611954836113e0565b9250828202611962816113e0565b9150828204841483151761197957611978611702565b5b5092915050565b7f4e487b7100000000000000000000000000000000000000000000000000000000600052601260045260246000fd5b60006119ba826113e0565b91506119c5836113e0565b9250826119d5576119d4611980565b5b828204905092915050565b60006119eb826113e0565b91506119f6836113e0565b9250828201905080821115611a0e57611a0d611702565b5b92915050565b6000604082019050611a2960008301856117fd565b611a3660208301846113ea565b9392505050565b600081519050611a4c8161155b565b92915050565b600060208284031215611a6857611a6761151e565b5b6000611a7684828501611a3d565b91505092915050565b6000606082019050611a9460008301866113ea565b611aa160208301856113ea565b611aae60408301846113ea565b949350505050565b6000604082019050611acb600083018561141e565b611ad860208301846117fd565b9392505050565b600081905092915050565b7f416363657373436f6e74726f6c3a206163636f756e7420000000000000000000600082015250565b6000611b20601783611adf565b9150611b2b82611aea565b601782019050919050565b600081519050919050565b60005b83811015611b5f578082015181840152602081019050611b44565b60008484015250505050565b6000611b7682611b36565b611b808185611adf565b9350611b90818560208601611b41565b80840191505092915050565b7f206973206d697373696e6720726f6c6520000000000000000000000000000000600082015250565b6000611bd2601183611adf565b9150611bdd82611b9c565b601182019050919050565b6000611bf382611b13565b9150611bff8285611b6b565b9150611c0a82611bc5565b9150611c168284611b6b565b91508190509392505050565b6000601f19601f8301169050919050565b6000611c3e82611b36565b611c488185611363565b9350611c58818560208601611b41565b611c6181611c22565b840191505092915050565b60006020820190508181036000830152611c868184611c33565b905092915050565b7f4e487b7100000000000000000000000000000000000000000000000000000000600052604160045260246000fd5b7f4e487b7100000000000000000000000000000000000000000000000000000000600052603260045260246000fd5b6000611cf7826113e0565b915060008203611d0a57611d09611702565b5b600182039050919050565b6000604082019050611d2a60008301856113ea565b611d3760208301846113ea565b939250505056fea26469706673582212208fcdda0d0c2c2294817b8422b73a552f24b2f1fa61891c2eabd3c17937e0967364736f6c63430008140033",
  "linkReferences": {},
  "deployedLinkReferences": {}
}