{
  "_format": "hh-sol-artifact-1",
  "contractName": "VeMetisMinter",
  "sourceName": "contracts/VeMetisMinter.sol",
  "abi": [
    {
      "inputs": [],
      "name": "InvalidInitialization",
      "type": "error"
    },
    {
      "inputs": [],
      "name": "NotInitializing",
      "type": "error"
    },
    {
      "inputs": [],
      "name": "ReentrancyGuardReentrantCall",
      "type": "error"
    },
    {
      "inputs": [
        {
          "internalType": "address",
          "name": "token",
          "type": "address"
        }
      ],
      "name": "SafeERC20FailedOperation",
      "type": "error"
    },
    {
      "inputs": [
        {
          "internalType": "uint256",
          "name": "value",
          "type": "uint256"
        },
        {
          "internalType": "uint256",
          "name": "length",
          "type": "uint256"
        }
      ],
      "name": "StringsInsufficientHexLength",
      "type": "error"
    },
    {
      "anonymous": false,
      "inputs": [
        {
          "indexed": false,
          "internalType": "uint256",
          "name": "amount",
          "type": "uint256"
        }
      ],
      "name": "DepositToL1Dealer",
      "type": "event"
    },
    {
      "anonymous": false,
      "inputs": [
        {
          "indexed": false,
          "internalType": "uint64",
          "name": "version",
          "type": "uint64"
        }
      ],
      "name": "Initialized",
      "type": "event"
    },
    {
      "anonymous": false,
      "inputs": [
        {
          "indexed": true,
          "internalType": "address",
          "name": "account",
          "type": "address"
        },
        {
          "indexed": false,
          "internalType": "uint256",
          "name": "amount",
          "type": "uint256"
        }
      ],
      "name": "Minted",
      "type": "event"
    },
    {
      "inputs": [],
      "name": "ADMIN_ROLE",
      "outputs": [
        {
          "internalType": "bytes32",
          "name": "",
          "type": "bytes32"
        }
      ],
      "stateMutability": "view",
      "type": "function"
    },
    {
      "inputs": [],
      "name": "BACKEND_ROLE",
      "outputs": [
        {
          "internalType": "bytes32",
          "name": "",
          "type": "bytes32"
        }
      ],
      "stateMutability": "view",
      "type": "function"
    },
    {
      "inputs": [],
      "name": "DEFAULT_ADMIN_ROLE",
      "outputs": [
        {
          "internalType": "bytes32",
          "name": "",
          "type": "bytes32"
        }
      ],
      "stateMutability": "view",
      "type": "function"
    },
    {
      "inputs": [],
      "name": "FEE_PRECISION",
      "outputs": [
        {
          "internalType": "uint64",
          "name": "",
          "type": "uint64"
        }
      ],
      "stateMutability": "view",
      "type": "function"
    },
    {
      "inputs": [],
      "name": "INITIAL_DEPOSIT_AMOUNT",
      "outputs": [
        {
          "internalType": "uint256",
          "name": "",
          "type": "uint256"
        }
      ],
      "stateMutability": "view",
      "type": "function"
    },
    {
      "inputs": [],
      "name": "TIMELOCK_ROLE",
      "outputs": [
        {
          "internalType": "bytes32",
          "name": "",
          "type": "bytes32"
        }
      ],
      "stateMutability": "view",
      "type": "function"
    },
    {
      "inputs": [],
      "name": "bridge",
      "outputs": [
        {
          "internalType": "address",
          "name": "",
          "type": "address"
        }
      ],
      "stateMutability": "view",
      "type": "function"
    },
    {
      "inputs": [],
      "name": "config",
      "outputs": [
        {
          "internalType": "contract IConfig",
          "name": "",
          "type": "address"
        }
      ],
      "stateMutability": "view",
      "type": "function"
    },
    {
      "inputs": [],
      "name": "crossDomainMessenger",
      "outputs": [
        {
          "internalType": "address",
          "name": "",
          "type": "address"
        }
      ],
      "stateMutability": "view",
      "type": "function"
    },
    {
      "inputs": [
        {
          "internalType": "uint256",
          "name": "amount",
          "type": "uint256"
        }
      ],
      "name": "depositToL1Dealer",
      "outputs": [],
      "stateMutability": "payable",
      "type": "function"
    },
    {
      "inputs": [
        {
          "internalType": "uint256",
          "name": "amount",
          "type": "uint256"
        }
      ],
      "name": "depositToRedemptionQueue",
      "outputs": [],
      "stateMutability": "payable",
      "type": "function"
    },
    {
      "inputs": [
        {
          "internalType": "address",
          "name": "_config",
          "type": "address"
        }
      ],
      "name": "initialize",
      "outputs": [],
      "stateMutability": "nonpayable",
      "type": "function"
    },
    {
      "inputs": [],
      "name": "metis",
      "outputs": [
        {
          "internalType": "address",
          "name": "",
          "type": "address"
        }
      ],
      "stateMutability": "view",
      "type": "function"
    },
    {
      "inputs": [
        {
          "internalType": "address",
          "name": "account",
          "type": "address"
        },
        {
          "internalType": "uint256",
          "name": "amount",
          "type": "uint256"
        }
      ],
      "name": "mint",
      "outputs": [],
      "stateMutability": "nonpayable",
      "type": "function"
    },
    {
      "inputs": [
        {
          "internalType": "uint256",
          "name": "amount",
          "type": "uint256"
        }
      ],
      "name": "mintFromL1",
      "outputs": [],
      "stateMutability": "nonpayable",
      "type": "function"
    },
    {
      "inputs": [
        {
          "internalType": "uint256",
          "name": "amount",
          "type": "uint256"
        }
      ],
      "name": "redeemToTreasury",
      "outputs": [],
      "stateMutability": "nonpayable",
      "type": "function"
    },
    {
      "inputs": [],
      "name": "sveMetis",
      "outputs": [
        {
          "internalType": "address",
          "name": "",
          "type": "address"
        }
      ],
      "stateMutability": "view",
      "type": "function"
    },
    {
      "inputs": [],
      "name": "veMetis",
      "outputs": [
        {
          "internalType": "address",
          "name": "",
          "type": "address"
        }
      ],
      "stateMutability": "view",
      "type": "function"
    },
    {
      "stateMutability": "payable",
      "type": "receive"
    }
  ],
  "bytecode": "0x608060405234801561001057600080fd5b50612b9c806100206000396000f3fe60806040526004361061010d5760003560e01c8063c4d66de811610095578063e63a391f11610064578063e63a391f1461035d578063e78cea9214610388578063eb82afb3146103b3578063f288a2e2146103dc578063f43b3613146104075761014d565b8063c4d66de8146102c2578063ce40eb30146102eb578063e52083c614610307578063e5974554146103325761014d565b806392c2becc116100dc57806392c2becc146101ed5780639336ce8014610218578063a217fddf14610243578063a21914701461026e578063bdb6a622146102995761014d565b806328c9edcd1461015257806340c10f191461016e57806375b238fc1461019757806379502c55146101c25761014d565b3661014d576040517f08c379a000000000000000000000000000000000000000000000000000000000815260040161014490612076565b60405180910390fd5b600080fd5b61016c600480360381019061016791906120d1565b610432565b005b34801561017a57600080fd5b506101956004803603810190610190919061215c565b61057c565b005b3480156101a357600080fd5b506101ac6106ca565b6040516101b991906121b5565b60405180910390f35b3480156101ce57600080fd5b506101d76106ee565b6040516101e4919061222f565b60405180910390f35b3480156101f957600080fd5b50610202610712565b60405161020f91906121b5565b60405180910390f35b34801561022457600080fd5b5061022d610736565b60405161023a9190612259565b60405180910390f35b34801561024f57600080fd5b5061025861075c565b60405161026591906121b5565b60405180910390f35b34801561027a57600080fd5b50610283610763565b6040516102909190612259565b60405180910390f35b3480156102a557600080fd5b506102c060048036038101906102bb91906120d1565b610789565b005b3480156102ce57600080fd5b506102e960048036038101906102e49190612274565b610c2d565b005b610305600480360381019061030091906120d1565b6111c9565b005b34801561031357600080fd5b5061031c61151c565b60405161032991906122b0565b60405180910390f35b34801561033e57600080fd5b50610347611528565b6040516103549190612259565b60405180910390f35b34801561036957600080fd5b5061037261154e565b60405161037f91906122ee565b60405180910390f35b34801561039457600080fd5b5061039d611555565b6040516103aa9190612259565b60405180910390f35b3480156103bf57600080fd5b506103da60048036038101906103d591906120d1565b61157b565b005b3480156103e857600080fd5b506103f16118ce565b6040516103fe91906121b5565b60405180910390f35b34801561041357600080fd5b5061041c6118f2565b6040516104299190612259565b60405180910390f35b61045b7f25cf2b509f2a7f322675b2a5322b182f44ad2c03ac941a0af17c9b178f5d5d5f611918565b6000811161049e576040517f08c379a000000000000000000000000000000000000000000000000000000000815260040161049590612355565b60405180910390fd5b61057960008054906101000a900473ffffffffffffffffffffffffffffffffffffffff1673ffffffffffffffffffffffffffffffffffffffff166397ec19be6040518163ffffffff1660e01b8152600401602060405180830381865afa15801561050c573d6000803e3d6000fd5b505050506040513d601f19601f82011682018060405250810190610530919061238a565b82602260009054906101000a900473ffffffffffffffffffffffffffffffffffffffff1673ffffffffffffffffffffffffffffffffffffffff1661192c9092919063ffffffff16565b50565b6105846119ab565b6105da61058f611a02565b3083602260009054906101000a900473ffffffffffffffffffffffffffffffffffffffff1673ffffffffffffffffffffffffffffffffffffffff16611a0a909392919063ffffffff16565b602060009054906101000a900473ffffffffffffffffffffffffffffffffffffffff1673ffffffffffffffffffffffffffffffffffffffff166340c10f1983836040518363ffffffff1660e01b81526004016106379291906123b7565b600060405180830381600087803b15801561065157600080fd5b505af1158015610665573d6000803e3d6000fd5b50505050610671611a02565b73ffffffffffffffffffffffffffffffffffffffff167f30385c845b448a36257a6a1716e6ad2e1bc2cbe333cde1e69fe849ad6511adfe826040516106b691906122b0565b60405180910390a26106c6611a8c565b5050565b7fa49807205ce4d355092ef5a8a18f56e8913cf4a201fbe287825b095693c2177581565b60008054906101000a900473ffffffffffffffffffffffffffffffffffffffff1681565b7f25cf2b509f2a7f322675b2a5322b182f44ad2c03ac941a0af17c9b178f5d5d5f81565b602060009054906101000a900473ffffffffffffffffffffffffffffffffffffffff1681565b6000801b81565b602160009054906101000a900473ffffffffffffffffffffffffffffffffffffffff1681565b60008054906101000a900473ffffffffffffffffffffffffffffffffffffffff1673ffffffffffffffffffffffffffffffffffffffff1663219519556040518163ffffffff1660e01b8152600401602060405180830381865afa1580156107f4573d6000803e3d6000fd5b505050506040513d601f19601f82011682018060405250810190610818919061238a565b8073ffffffffffffffffffffffffffffffffffffffff16610837611a02565b73ffffffffffffffffffffffffffffffffffffffff161461088d576040517f08c379a00000000000000000000000000000000000000000000000000000000081526004016108849061242c565b60405180910390fd5b80600160006101000a81548173ffffffffffffffffffffffffffffffffffffffff021916908373ffffffffffffffffffffffffffffffffffffffff16021790555060008211610911576040517f08c379a000000000000000000000000000000000000000000000000000000000815260040161090890612355565b60405180910390fd5b81602260009054906101000a900473ffffffffffffffffffffffffffffffffffffffff1673ffffffffffffffffffffffffffffffffffffffff166370a08231306040518263ffffffff1660e01b815260040161096d9190612259565b602060405180830381865afa15801561098a573d6000803e3d6000fd5b505050506040513d601f19601f820116820180604052508101906109ae9190612461565b10156109ef576040517f08c379a00000000000000000000000000000000000000000000000000000000081526004016109e690612500565b60405180910390fd5b602060009054906101000a900473ffffffffffffffffffffffffffffffffffffffff1673ffffffffffffffffffffffffffffffffffffffff16639dc29fac60008054906101000a900473ffffffffffffffffffffffffffffffffffffffff1673ffffffffffffffffffffffffffffffffffffffff1663219519556040518163ffffffff1660e01b8152600401602060405180830381865afa158015610a98573d6000803e3d6000fd5b505050506040513d601f19601f82011682018060405250810190610abc919061238a565b846040518363ffffffff1660e01b8152600401610ada9291906123b7565b600060405180830381600087803b158015610af457600080fd5b505af1158015610b08573d6000803e3d6000fd5b50505050610be760008054906101000a900473ffffffffffffffffffffffffffffffffffffffff1673ffffffffffffffffffffffffffffffffffffffff1663803db96d6040518163ffffffff1660e01b8152600401602060405180830381865afa158015610b7a573d6000803e3d6000fd5b505050506040513d601f19601f82011682018060405250810190610b9e919061238a565b83602260009054906101000a900473ffffffffffffffffffffffffffffffffffffffff1673ffffffffffffffffffffffffffffffffffffffff1661192c9092919063ffffffff16565b6000600160006101000a81548173ffffffffffffffffffffffffffffffffffffffff021916908373ffffffffffffffffffffffffffffffffffffffff1602179055505050565b6000610c37611aa5565b905060008160000160089054906101000a900460ff1615905060008260000160009054906101000a900467ffffffffffffffff1690506000808267ffffffffffffffff16148015610c855750825b9050600060018367ffffffffffffffff16148015610cba575060003073ffffffffffffffffffffffffffffffffffffffff163b145b905081158015610cc8575080155b15610cff576040517ff92ee8a900000000000000000000000000000000000000000000000000000000815260040160405180910390fd5b60018560000160006101000a81548167ffffffffffffffff021916908367ffffffffffffffff1602179055508315610d4f5760018560000160086101000a81548160ff0219169083151502179055505b610d5886611acd565b60008054906101000a900473ffffffffffffffffffffffffffffffffffffffff1673ffffffffffffffffffffffffffffffffffffffff16639336ce806040518163ffffffff1660e01b8152600401602060405180830381865afa158015610dc3573d6000803e3d6000fd5b505050506040513d601f19601f82011682018060405250810190610de7919061238a565b602060006101000a81548173ffffffffffffffffffffffffffffffffffffffff021916908373ffffffffffffffffffffffffffffffffffffffff16021790555060008054906101000a900473ffffffffffffffffffffffffffffffffffffffff1673ffffffffffffffffffffffffffffffffffffffff1663a21914706040518163ffffffff1660e01b8152600401602060405180830381865afa158015610e92573d6000803e3d6000fd5b505050506040513d601f19601f82011682018060405250810190610eb6919061238a565b602160006101000a81548173ffffffffffffffffffffffffffffffffffffffff021916908373ffffffffffffffffffffffffffffffffffffffff16021790555060008054906101000a900473ffffffffffffffffffffffffffffffffffffffff1673ffffffffffffffffffffffffffffffffffffffff1663e59745546040518163ffffffff1660e01b8152600401602060405180830381865afa158015610f61573d6000803e3d6000fd5b505050506040513d601f19601f82011682018060405250810190610f85919061238a565b602260006101000a81548173ffffffffffffffffffffffffffffffffffffffff021916908373ffffffffffffffffffffffffffffffffffffffff16021790555060008054906101000a900473ffffffffffffffffffffffffffffffffffffffff1673ffffffffffffffffffffffffffffffffffffffff1663e78cea926040518163ffffffff1660e01b8152600401602060405180830381865afa158015611030573d6000803e3d6000fd5b505050506040513d601f19601f82011682018060405250810190611054919061238a565b602360006101000a81548173ffffffffffffffffffffffffffffffffffffffff021916908373ffffffffffffffffffffffffffffffffffffffff160217905550602360009054906101000a900473ffffffffffffffffffffffffffffffffffffffff1673ffffffffffffffffffffffffffffffffffffffff16633cb747bf6040518163ffffffff1660e01b8152600401602060405180830381865afa158015611101573d6000803e3d6000fd5b505050506040513d601f19601f82011682018060405250810190611125919061238a565b602460006101000a81548173ffffffffffffffffffffffffffffffffffffffff021916908373ffffffffffffffffffffffffffffffffffffffff16021790555083156111c15760008560000160086101000a81548160ff0219169083151502179055507fc7f505b2f371ae2175ee4913f4499e1f2633a7b5936321eed1cdaeb6115181d260016040516111b8919061255b565b60405180910390a15b505050505050565b6111f27f25cf2b509f2a7f322675b2a5322b182f44ad2c03ac941a0af17c9b178f5d5d5f611918565b80602260009054906101000a900473ffffffffffffffffffffffffffffffffffffffff1673ffffffffffffffffffffffffffffffffffffffff1663dd62ed3e30602360009054906101000a900473ffffffffffffffffffffffffffffffffffffffff166040518363ffffffff1660e01b8152600401611272929190612576565b602060405180830381865afa15801561128f573d6000803e3d6000fd5b505050506040513d601f19601f820116820180604052508101906112b39190612461565b101561139d57602260009054906101000a900473ffffffffffffffffffffffffffffffffffffffff1673ffffffffffffffffffffffffffffffffffffffff1663095ea7b3602360009054906101000a900473ffffffffffffffffffffffffffffffffffffffff167fffffffffffffffffffffffffffffffffffffffffffffffffffffffffffffffff6040518363ffffffff1660e01b81526004016113589291906123b7565b6020604051808303816000875af1158015611377573d6000803e3d6000fd5b505050506040513d601f19601f8201168201806040525081019061139b91906125d7565b505b602360009054906101000a900473ffffffffffffffffffffffffffffffffffffffff1673ffffffffffffffffffffffffffffffffffffffff1663a3a7954834602260009054906101000a900473ffffffffffffffffffffffffffffffffffffffff1660008054906101000a900473ffffffffffffffffffffffffffffffffffffffff1673ffffffffffffffffffffffffffffffffffffffff1663a2be57ad6040518163ffffffff1660e01b8152600401602060405180830381865afa15801561146a573d6000803e3d6000fd5b505050506040513d601f19601f8201168201806040525081019061148e919061238a565b8560006040518663ffffffff1660e01b81526004016114b09493929190612686565b6000604051808303818588803b1580156114c957600080fd5b505af11580156114dd573d6000803e3d6000fd5b50505050507f63d055acece0ee34be8519ce7bbed8c78507ab47ed5896dee842a6bae30ec9788160405161151191906122b0565b60405180910390a150565b670de0b6b3a764000081565b602260009054906101000a900473ffffffffffffffffffffffffffffffffffffffff1681565b620f424081565b602360009054906101000a900473ffffffffffffffffffffffffffffffffffffffff1681565b6115836119ab565b602460009054906101000a900473ffffffffffffffffffffffffffffffffffffffff1673ffffffffffffffffffffffffffffffffffffffff166115c4611a02565b73ffffffffffffffffffffffffffffffffffffffff161461161a576040517f08c379a000000000000000000000000000000000000000000000000000000000815260040161161190612750565b60405180910390fd5b60008054906101000a900473ffffffffffffffffffffffffffffffffffffffff1673ffffffffffffffffffffffffffffffffffffffff1663a2be57ad6040518163ffffffff1660e01b8152600401602060405180830381865afa158015611685573d6000803e3d6000fd5b505050506040513d601f19601f820116820180604052508101906116a9919061238a565b73ffffffffffffffffffffffffffffffffffffffff16602460009054906101000a900473ffffffffffffffffffffffffffffffffffffffff1673ffffffffffffffffffffffffffffffffffffffff16636e296e456040518163ffffffff1660e01b8152600401602060405180830381865afa15801561172c573d6000803e3d6000fd5b505050506040513d601f19601f82011682018060405250810190611750919061238a565b73ffffffffffffffffffffffffffffffffffffffff16146117a6576040517f08c379a000000000000000000000000000000000000000000000000000000000815260040161179d906127e2565b60405180910390fd5b602060009054906101000a900473ffffffffffffffffffffffffffffffffffffffff1673ffffffffffffffffffffffffffffffffffffffff166340c10f1960008054906101000a900473ffffffffffffffffffffffffffffffffffffffff1673ffffffffffffffffffffffffffffffffffffffff1663219519556040518163ffffffff1660e01b8152600401602060405180830381865afa15801561184f573d6000803e3d6000fd5b505050506040513d601f19601f82011682018060405250810190611873919061238a565b836040518363ffffffff1660e01b81526004016118919291906123b7565b600060405180830381600087803b1580156118ab57600080fd5b505af11580156118bf573d6000803e3d6000fd5b505050506118cb611a8c565b50565b7ff66846415d2bf9eabda9e84793ff9c0ea96d87f50fc41e66aa16469c6a442f0581565b602460009054906101000a900473ffffffffffffffffffffffffffffffffffffffff1681565b61192981611924611a02565b611b28565b50565b6119a6838473ffffffffffffffffffffffffffffffffffffffff1663a9059cbb858560405160240161195f9291906123b7565b604051602081830303815290604052915060e01b6020820180517bffffffffffffffffffffffffffffffffffffffffffffffffffffffff8381831617835250505050611c3f565b505050565b60006119b5611ce1565b905060028160000154036119f5576040517f3ee5aeb500000000000000000000000000000000000000000000000000000000815260040160405180910390fd5b6002816000018190555050565b600033905090565b611a86848573ffffffffffffffffffffffffffffffffffffffff166323b872dd868686604051602401611a3f93929190612802565b604051602081830303815290604052915060e01b6020820180517bffffffffffffffffffffffffffffffffffffffffffffffffffffffff8381831617835250505050611c3f565b50505050565b6000611a96611ce1565b90506001816000018190555050565b60007ff0c57e16840df040f15088dc2f81fe391c3923bec73e23a9662efc9c229c6a00905090565b611ad5611d09565b806000806101000a81548173ffffffffffffffffffffffffffffffffffffffff021916908373ffffffffffffffffffffffffffffffffffffffff160217905550611b1d611d49565b611b25611d5b565b50565b60008054906101000a900473ffffffffffffffffffffffffffffffffffffffff1673ffffffffffffffffffffffffffffffffffffffff166391d1485483836040518363ffffffff1660e01b8152600401611b83929190612839565b602060405180830381865afa158015611ba0573d6000803e3d6000fd5b505050506040513d601f19601f82011682018060405250810190611bc491906125d7565b611c3b57611bd181611d65565b611bdf8360001c6020611d92565b604051602001611bf092919061296b565b6040516020818303038152906040526040517f08c379a0000000000000000000000000000000000000000000000000000000008152600401611c3291906129ef565b60405180910390fd5b5050565b600080602060008451602086016000885af180611c62576040513d6000823e3d81fd5b3d925060005191505060008214611c7d576001811415611c99565b60008473ffffffffffffffffffffffffffffffffffffffff163b145b15611cdb57836040517f5274afe7000000000000000000000000000000000000000000000000000000008152600401611cd29190612259565b60405180910390fd5b50505050565b60007f9b779b17422d0df92223018b32b4d1fa46e071723d6817e2486d003becc55f00905090565b611d11611fd8565b611d47576040517fd7e6bcf800000000000000000000000000000000000000000000000000000000815260040160405180910390fd5b565b611d51611d09565b611d59611ff8565b565b611d63611d09565b565b6060611d8b8273ffffffffffffffffffffffffffffffffffffffff16601460ff16611d92565b9050919050565b6060600083905060006002846002611daa9190612a40565b611db49190612a82565b67ffffffffffffffff811115611dcd57611dcc612ab6565b5b6040519080825280601f01601f191660200182016040528015611dff5781602001600182028036833780820191505090505b5090507f300000000000000000000000000000000000000000000000000000000000000081600081518110611e3757611e36612ae5565b5b60200101907effffffffffffffffffffffffffffffffffffffffffffffffffffffffffffff1916908160001a9053507f780000000000000000000000000000000000000000000000000000000000000081600181518110611e9b57611e9a612ae5565b5b60200101907effffffffffffffffffffffffffffffffffffffffffffffffffffffffffffff1916908160001a90535060006001856002611edb9190612a40565b611ee59190612a82565b90505b6001811115611f85577f3031323334353637383961626364656600000000000000000000000000000000600f841660108110611f2757611f26612ae5565b5b1a60f81b828281518110611f3e57611f3d612ae5565b5b60200101907effffffffffffffffffffffffffffffffffffffffffffffffffffffffffffff1916908160001a905350600483901c925080611f7e90612b14565b9050611ee8565b5060008214611fcd5784846040517fe22e27eb000000000000000000000000000000000000000000000000000000008152600401611fc4929190612b3d565b60405180910390fd5b809250505092915050565b6000611fe2611aa5565b60000160089054906101000a900460ff16905090565b612000611d09565b600061200a611ce1565b90506001816000018190555050565b600082825260208201905092915050565b7f426173653a206e6f7420737570706f7274204d65746973207472616e73666572600082015250565b6000612060602083612019565b915061206b8261202a565b602082019050919050565b6000602082019050818103600083015261208f81612053565b9050919050565b600080fd5b6000819050919050565b6120ae8161209b565b81146120b957600080fd5b50565b6000813590506120cb816120a5565b92915050565b6000602082840312156120e7576120e6612096565b5b60006120f5848285016120bc565b91505092915050565b600073ffffffffffffffffffffffffffffffffffffffff82169050919050565b6000612129826120fe565b9050919050565b6121398161211e565b811461214457600080fd5b50565b60008135905061215681612130565b92915050565b6000806040838503121561217357612172612096565b5b600061218185828601612147565b9250506020612192858286016120bc565b9150509250929050565b6000819050919050565b6121af8161219c565b82525050565b60006020820190506121ca60008301846121a6565b92915050565b6000819050919050565b60006121f56121f06121eb846120fe565b6121d0565b6120fe565b9050919050565b6000612207826121da565b9050919050565b6000612219826121fc565b9050919050565b6122298161220e565b82525050565b60006020820190506122446000830184612220565b92915050565b6122538161211e565b82525050565b600060208201905061226e600083018461224a565b92915050565b60006020828403121561228a57612289612096565b5b600061229884828501612147565b91505092915050565b6122aa8161209b565b82525050565b60006020820190506122c560008301846122a1565b92915050565b600067ffffffffffffffff82169050919050565b6122e8816122cb565b82525050565b600060208201905061230360008301846122df565b92915050565b7f56654d657469734d696e7465723a20616d6f756e74206973207a65726f000000600082015250565b600061233f601d83612019565b915061234a82612309565b602082019050919050565b6000602082019050818103600083015261236e81612332565b9050919050565b60008151905061238481612130565b92915050565b6000602082840312156123a05761239f612096565b5b60006123ae84828501612375565b91505092915050565b60006040820190506123cc600083018561224a565b6123d960208301846122a1565b9392505050565b7f696e7465726e616c206f6e6c7900000000000000000000000000000000000000600082015250565b6000612416600d83612019565b9150612421826123e0565b602082019050919050565b6000602082019050818103600083015261244581612409565b9050919050565b60008151905061245b816120a5565b92915050565b60006020828403121561247757612476612096565b5b60006124858482850161244c565b91505092915050565b7f56654d657469734d696e7465723a20696e73756666696369656e742062616c6160008201527f6e63650000000000000000000000000000000000000000000000000000000000602082015250565b60006124ea602383612019565b91506124f58261248e565b604082019050919050565b60006020820190508181036000830152612519816124dd565b9050919050565b6000819050919050565b600061254561254061253b84612520565b6121d0565b6122cb565b9050919050565b6125558161252a565b82525050565b6000602082019050612570600083018461254c565b92915050565b600060408201905061258b600083018561224a565b612598602083018461224a565b9392505050565b60008115159050919050565b6125b48161259f565b81146125bf57600080fd5b50565b6000815190506125d1816125ab565b92915050565b6000602082840312156125ed576125ec612096565b5b60006125fb848285016125c2565b91505092915050565b6000819050919050565b600063ffffffff82169050919050565b600061263961263461262f84612604565b6121d0565b61260e565b9050919050565b6126498161261e565b82525050565b600082825260208201905092915050565b50565b600061267060008361264f565b915061267b82612660565b600082019050919050565b600060a08201905061269b600083018761224a565b6126a8602083018661224a565b6126b560408301856122a1565b6126c26060830184612640565b81810360808301526126d381612663565b905095945050505050565b7f56654d657469734d696e7465723a2063616c6c6572206973206e6f742074686560008201527f2063726f7373446f6d61696e4d657373656e6765720000000000000000000000602082015250565b600061273a603583612019565b9150612745826126de565b604082019050919050565b600060208201905081810360008301526127698161272d565b9050919050565b7f56654d657469734d696e7465723a2063616c6c6572206973206e6f742074686560008201527f206c314465616c65720000000000000000000000000000000000000000000000602082015250565b60006127cc602983612019565b91506127d782612770565b604082019050919050565b600060208201905081810360008301526127fb816127bf565b9050919050565b6000606082019050612817600083018661224a565b612824602083018561224a565b61283160408301846122a1565b949350505050565b600060408201905061284e60008301856121a6565b61285b602083018461224a565b9392505050565b600081905092915050565b7f416363657373436f6e74726f6c3a206163636f756e7420000000000000000000600082015250565b60006128a3601783612862565b91506128ae8261286d565b601782019050919050565b600081519050919050565b60005b838110156128e25780820151818401526020810190506128c7565b60008484015250505050565b60006128f9826128b9565b6129038185612862565b93506129138185602086016128c4565b80840191505092915050565b7f206973206d697373696e6720726f6c6520000000000000000000000000000000600082015250565b6000612955601183612862565b91506129608261291f565b601182019050919050565b600061297682612896565b915061298282856128ee565b915061298d82612948565b915061299982846128ee565b91508190509392505050565b6000601f19601f8301169050919050565b60006129c1826128b9565b6129cb8185612019565b93506129db8185602086016128c4565b6129e4816129a5565b840191505092915050565b60006020820190508181036000830152612a0981846129b6565b905092915050565b7f4e487b7100000000000000000000000000000000000000000000000000000000600052601160045260246000fd5b6000612a4b8261209b565b9150612a568361209b565b9250828202612a648161209b565b91508282048414831517612a7b57612a7a612a11565b5b5092915050565b6000612a8d8261209b565b9150612a988361209b565b9250828201905080821115612ab057612aaf612a11565b5b92915050565b7f4e487b7100000000000000000000000000000000000000000000000000000000600052604160045260246000fd5b7f4e487b7100000000000000000000000000000000000000000000000000000000600052603260045260246000fd5b6000612b1f8261209b565b915060008203612b3257612b31612a11565b5b600182039050919050565b6000604082019050612b5260008301856122a1565b612b5f60208301846122a1565b939250505056fea2646970667358221220f146ddecba4fbf79e69e4e3dd8d8253b4809bd9f60bfb58e38453f9947d33dda64736f6c63430008140033",
  "linkReferences": {},
  "deployedLinkReferences": {}
}