{
  "_format": "hh-sol-artifact-1",
  "contractName": "SveMetis",
  "sourceName": "contracts/SveMetis.sol",
  "abi": [
    {
      "inputs": [
        {
          "internalType": "address",
          "name": "spender",
          "type": "address"
        },
        {
          "internalType": "uint256",
          "name": "allowance",
          "type": "uint256"
        },
        {
          "internalType": "uint256",
          "name": "needed",
          "type": "uint256"
        }
      ],
      "name": "ERC20InsufficientAllowance",
      "type": "error"
    },
    {
      "inputs": [
        {
          "internalType": "address",
          "name": "sender",
          "type": "address"
        },
        {
          "internalType": "uint256",
          "name": "balance",
          "type": "uint256"
        },
        {
          "internalType": "uint256",
          "name": "needed",
          "type": "uint256"
        }
      ],
      "name": "ERC20InsufficientBalance",
      "type": "error"
    },
    {
      "inputs": [
        {
          "internalType": "address",
          "name": "approver",
          "type": "address"
        }
      ],
      "name": "ERC20InvalidApprover",
      "type": "error"
    },
    {
      "inputs": [
        {
          "internalType": "address",
          "name": "receiver",
          "type": "address"
        }
      ],
      "name": "ERC20InvalidReceiver",
      "type": "error"
    },
    {
      "inputs": [
        {
          "internalType": "address",
          "name": "sender",
          "type": "address"
        }
      ],
      "name": "ERC20InvalidSender",
      "type": "error"
    },
    {
      "inputs": [
        {
          "internalType": "address",
          "name": "spender",
          "type": "address"
        }
      ],
      "name": "ERC20InvalidSpender",
      "type": "error"
    },
    {
      "inputs": [
        {
          "internalType": "address",
          "name": "receiver",
          "type": "address"
        },
        {
          "internalType": "uint256",
          "name": "assets",
          "type": "uint256"
        },
        {
          "internalType": "uint256",
          "name": "max",
          "type": "uint256"
        }
      ],
      "name": "ERC4626ExceededMaxDeposit",
      "type": "error"
    },
    {
      "inputs": [
        {
          "internalType": "address",
          "name": "receiver",
          "type": "address"
        },
        {
          "internalType": "uint256",
          "name": "shares",
          "type": "uint256"
        },
        {
          "internalType": "uint256",
          "name": "max",
          "type": "uint256"
        }
      ],
      "name": "ERC4626ExceededMaxMint",
      "type": "error"
    },
    {
      "inputs": [
        {
          "internalType": "address",
          "name": "owner",
          "type": "address"
        },
        {
          "internalType": "uint256",
          "name": "shares",
          "type": "uint256"
        },
        {
          "internalType": "uint256",
          "name": "max",
          "type": "uint256"
        }
      ],
      "name": "ERC4626ExceededMaxRedeem",
      "type": "error"
    },
    {
      "inputs": [
        {
          "internalType": "address",
          "name": "owner",
          "type": "address"
        },
        {
          "internalType": "uint256",
          "name": "assets",
          "type": "uint256"
        },
        {
          "internalType": "uint256",
          "name": "max",
          "type": "uint256"
        }
      ],
      "name": "ERC4626ExceededMaxWithdraw",
      "type": "error"
    },
    {
      "inputs": [],
      "name": "InvalidInitialization",
      "type": "error"
    },
    {
      "inputs": [],
      "name": "NotInitializing",
      "type": "error"
    },
    {
      "inputs": [],
      "name": "ReentrancyGuardReentrantCall",
      "type": "error"
    },
    {
      "inputs": [
        {
          "internalType": "address",
          "name": "token",
          "type": "address"
        }
      ],
      "name": "SafeERC20FailedOperation",
      "type": "error"
    },
    {
      "anonymous": false,
      "inputs": [
        {
          "indexed": true,
          "internalType": "address",
          "name": "owner",
          "type": "address"
        },
        {
          "indexed": true,
          "internalType": "address",
          "name": "spender",
          "type": "address"
        },
        {
          "indexed": false,
          "internalType": "uint256",
          "name": "value",
          "type": "uint256"
        }
      ],
      "name": "Approval",
      "type": "event"
    },
    {
      "anonymous": false,
      "inputs": [
        {
          "indexed": true,
          "internalType": "address",
          "name": "caller",
          "type": "address"
        },
        {
          "indexed": false,
          "internalType": "uint256",
          "name": "assets",
          "type": "uint256"
        }
      ],
      "name": "AssetsAdded",
      "type": "event"
    },
    {
      "anonymous": false,
      "inputs": [
        {
          "indexed": true,
          "internalType": "address",
          "name": "sender",
          "type": "address"
        },
        {
          "indexed": true,
          "internalType": "address",
          "name": "owner",
          "type": "address"
        },
        {
          "indexed": false,
          "internalType": "uint256",
          "name": "assets",
          "type": "uint256"
        },
        {
          "indexed": false,
          "internalType": "uint256",
          "name": "shares",
          "type": "uint256"
        }
      ],
      "name": "Deposit",
      "type": "event"
    },
    {
      "anonymous": false,
      "inputs": [
        {
          "indexed": false,
          "internalType": "uint64",
          "name": "version",
          "type": "uint64"
        }
      ],
      "name": "Initialized",
      "type": "event"
    },
    {
      "anonymous": false,
      "inputs": [
        {
          "indexed": true,
          "internalType": "address",
          "name": "from",
          "type": "address"
        },
        {
          "indexed": true,
          "internalType": "address",
          "name": "to",
          "type": "address"
        },
        {
          "indexed": false,
          "internalType": "uint256",
          "name": "value",
          "type": "uint256"
        }
      ],
      "name": "Transfer",
      "type": "event"
    },
    {
      "anonymous": false,
      "inputs": [
        {
          "indexed": true,
          "internalType": "address",
          "name": "sender",
          "type": "address"
        },
        {
          "indexed": true,
          "internalType": "address",
          "name": "receiver",
          "type": "address"
        },
        {
          "indexed": true,
          "internalType": "address",
          "name": "owner",
          "type": "address"
        },
        {
          "indexed": false,
          "internalType": "uint256",
          "name": "assets",
          "type": "uint256"
        },
        {
          "indexed": false,
          "internalType": "uint256",
          "name": "shares",
          "type": "uint256"
        }
      ],
      "name": "Withdraw",
      "type": "event"
    },
    {
      "inputs": [],
      "name": "ADMIN_ROLE",
      "outputs": [
        {
          "internalType": "bytes32",
          "name": "",
          "type": "bytes32"
        }
      ],
      "stateMutability": "view",
      "type": "function"
    },
    {
      "inputs": [],
      "name": "BACKEND_ROLE",
      "outputs": [
        {
          "internalType": "bytes32",
          "name": "",
          "type": "bytes32"
        }
      ],
      "stateMutability": "view",
      "type": "function"
    },
    {
      "inputs": [],
      "name": "DEFAULT_ADMIN_ROLE",
      "outputs": [
        {
          "internalType": "bytes32",
          "name": "",
          "type": "bytes32"
        }
      ],
      "stateMutability": "view",
      "type": "function"
    },
    {
      "inputs": [],
      "name": "FEE_PRECISION",
      "outputs": [
        {
          "internalType": "uint64",
          "name": "",
          "type": "uint64"
        }
      ],
      "stateMutability": "view",
      "type": "function"
    },
    {
      "inputs": [],
      "name": "INITIAL_DEPOSIT_AMOUNT",
      "outputs": [
        {
          "internalType": "uint256",
          "name": "",
          "type": "uint256"
        }
      ],
      "stateMutability": "view",
      "type": "function"
    },
    {
      "inputs": [],
      "name": "TIMELOCK_ROLE",
      "outputs": [
        {
          "internalType": "bytes32",
          "name": "",
          "type": "bytes32"
        }
      ],
      "stateMutability": "view",
      "type": "function"
    },
    {
      "inputs": [],
      "name": "_totalAssets",
      "outputs": [
        {
          "internalType": "uint256",
          "name": "",
          "type": "uint256"
        }
      ],
      "stateMutability": "view",
      "type": "function"
    },
    {
      "inputs": [
        {
          "internalType": "uint256",
          "name": "assets",
          "type": "uint256"
        }
      ],
      "name": "addAssets",
      "outputs": [],
      "stateMutability": "nonpayable",
      "type": "function"
    },
    {
      "inputs": [
        {
          "internalType": "address",
          "name": "owner",
          "type": "address"
        },
        {
          "internalType": "address",
          "name": "spender",
          "type": "address"
        }
      ],
      "name": "allowance",
      "outputs": [
        {
          "internalType": "uint256",
          "name": "",
          "type": "uint256"
        }
      ],
      "stateMutability": "view",
      "type": "function"
    },
    {
      "inputs": [
        {
          "internalType": "address",
          "name": "spender",
          "type": "address"
        },
        {
          "internalType": "uint256",
          "name": "value",
          "type": "uint256"
        }
      ],
      "name": "approve",
      "outputs": [
        {
          "internalType": "bool",
          "name": "",
          "type": "bool"
        }
      ],
      "stateMutability": "nonpayable",
      "type": "function"
    },
    {
      "inputs": [],
      "name": "asset",
      "outputs": [
        {
          "internalType": "address",
          "name": "",
          "type": "address"
        }
      ],
      "stateMutability": "view",
      "type": "function"
    },
    {
      "inputs": [
        {
          "internalType": "address",
          "name": "account",
          "type": "address"
        }
      ],
      "name": "balanceOf",
      "outputs": [
        {
          "internalType": "uint256",
          "name": "",
          "type": "uint256"
        }
      ],
      "stateMutability": "view",
      "type": "function"
    },
    {
      "inputs": [],
      "name": "config",
      "outputs": [
        {
          "internalType": "contract IConfig",
          "name": "",
          "type": "address"
        }
      ],
      "stateMutability": "view",
      "type": "function"
    },
    {
      "inputs": [
        {
          "internalType": "uint256",
          "name": "shares",
          "type": "uint256"
        }
      ],
      "name": "convertToAssets",
      "outputs": [
        {
          "internalType": "uint256",
          "name": "",
          "type": "uint256"
        }
      ],
      "stateMutability": "view",
      "type": "function"
    },
    {
      "inputs": [
        {
          "internalType": "uint256",
          "name": "assets",
          "type": "uint256"
        }
      ],
      "name": "convertToShares",
      "outputs": [
        {
          "internalType": "uint256",
          "name": "",
          "type": "uint256"
        }
      ],
      "stateMutability": "view",
      "type": "function"
    },
    {
      "inputs": [],
      "name": "decimals",
      "outputs": [
        {
          "internalType": "uint8",
          "name": "",
          "type": "uint8"
        }
      ],
      "stateMutability": "view",
      "type": "function"
    },
    {
      "inputs": [],
      "name": "deployer",
      "outputs": [
        {
          "internalType": "address",
          "name": "",
          "type": "address"
        }
      ],
      "stateMutability": "view",
      "type": "function"
    },
    {
      "inputs": [
        {
          "internalType": "uint256",
          "name": "assets",
          "type": "uint256"
        },
        {
          "internalType": "address",
          "name": "receiver",
          "type": "address"
        }
      ],
      "name": "deposit",
      "outputs": [
        {
          "internalType": "uint256",
          "name": "",
          "type": "uint256"
        }
      ],
      "stateMutability": "nonpayable",
      "type": "function"
    },
    {
      "inputs": [
        {
          "internalType": "uint256",
          "name": "assets",
          "type": "uint256"
        },
        {
          "internalType": "address",
          "name": "receiver",
          "type": "address"
        }
      ],
      "name": "depositFromVeMetisMinter",
      "outputs": [
        {
          "internalType": "uint256",
          "name": "",
          "type": "uint256"
        }
      ],
      "stateMutability": "nonpayable",
      "type": "function"
    },
    {
      "inputs": [
        {
          "internalType": "address",
          "name": "_config",
          "type": "address"
        }
      ],
      "name": "initialize",
      "outputs": [],
      "stateMutability": "nonpayable",
      "type": "function"
    },
    {
      "inputs": [
        {
          "internalType": "address",
          "name": "",
          "type": "address"
        }
      ],
      "name": "maxDeposit",
      "outputs": [
        {
          "internalType": "uint256",
          "name": "",
          "type": "uint256"
        }
      ],
      "stateMutability": "view",
      "type": "function"
    },
    {
      "inputs": [
        {
          "internalType": "address",
          "name": "",
          "type": "address"
        }
      ],
      "name": "maxMint",
      "outputs": [
        {
          "internalType": "uint256",
          "name": "",
          "type": "uint256"
        }
      ],
      "stateMutability": "view",
      "type": "function"
    },
    {
      "inputs": [
        {
          "internalType": "address",
          "name": "owner",
          "type": "address"
        }
      ],
      "name": "maxRedeem",
      "outputs": [
        {
          "internalType": "uint256",
          "name": "",
          "type": "uint256"
        }
      ],
      "stateMutability": "view",
      "type": "function"
    },
    {
      "inputs": [
        {
          "internalType": "address",
          "name": "owner",
          "type": "address"
        }
      ],
      "name": "maxWithdraw",
      "outputs": [
        {
          "internalType": "uint256",
          "name": "",
          "type": "uint256"
        }
      ],
      "stateMutability": "view",
      "type": "function"
    },
    {
      "inputs": [
        {
          "internalType": "uint256",
          "name": "shares",
          "type": "uint256"
        },
        {
          "internalType": "address",
          "name": "receiver",
          "type": "address"
        }
      ],
      "name": "mint",
      "outputs": [
        {
          "internalType": "uint256",
          "name": "",
          "type": "uint256"
        }
      ],
      "stateMutability": "nonpayable",
      "type": "function"
    },
    {
      "inputs": [],
      "name": "name",
      "outputs": [
        {
          "internalType": "string",
          "name": "",
          "type": "string"
        }
      ],
      "stateMutability": "view",
      "type": "function"
    },
    {
      "inputs": [
        {
          "internalType": "uint256",
          "name": "assets",
          "type": "uint256"
        }
      ],
      "name": "previewDeposit",
      "outputs": [
        {
          "internalType": "uint256",
          "name": "",
          "type": "uint256"
        }
      ],
      "stateMutability": "view",
      "type": "function"
    },
    {
      "inputs": [
        {
          "internalType": "uint256",
          "name": "shares",
          "type": "uint256"
        }
      ],
      "name": "previewMint",
      "outputs": [
        {
          "internalType": "uint256",
          "name": "",
          "type": "uint256"
        }
      ],
      "stateMutability": "view",
      "type": "function"
    },
    {
      "inputs": [
        {
          "internalType": "uint256",
          "name": "shares",
          "type": "uint256"
        }
      ],
      "name": "previewRedeem",
      "outputs": [
        {
          "internalType": "uint256",
          "name": "",
          "type": "uint256"
        }
      ],
      "stateMutability": "view",
      "type": "function"
    },
    {
      "inputs": [
        {
          "internalType": "uint256",
          "name": "assets",
          "type": "uint256"
        }
      ],
      "name": "previewWithdraw",
      "outputs": [
        {
          "internalType": "uint256",
          "name": "",
          "type": "uint256"
        }
      ],
      "stateMutability": "view",
      "type": "function"
    },
    {
      "inputs": [
        {
          "internalType": "uint256",
          "name": "shares",
          "type": "uint256"
        },
        {
          "internalType": "address",
          "name": "receiver",
          "type": "address"
        },
        {
          "internalType": "address",
          "name": "owner",
          "type": "address"
        }
      ],
      "name": "redeem",
      "outputs": [
        {
          "internalType": "uint256",
          "name": "",
          "type": "uint256"
        }
      ],
      "stateMutability": "nonpayable",
      "type": "function"
    },
    {
      "inputs": [],
      "name": "symbol",
      "outputs": [
        {
          "internalType": "string",
          "name": "",
          "type": "string"
        }
      ],
      "stateMutability": "view",
      "type": "function"
    },
    {
      "inputs": [],
      "name": "totalAssets",
      "outputs": [
        {
          "internalType": "uint256",
          "name": "",
          "type": "uint256"
        }
      ],
      "stateMutability": "view",
      "type": "function"
    },
    {
      "inputs": [],
      "name": "totalSupply",
      "outputs": [
        {
          "internalType": "uint256",
          "name": "",
          "type": "uint256"
        }
      ],
      "stateMutability": "view",
      "type": "function"
    },
    {
      "inputs": [
        {
          "internalType": "address",
          "name": "to",
          "type": "address"
        },
        {
          "internalType": "uint256",
          "name": "value",
          "type": "uint256"
        }
      ],
      "name": "transfer",
      "outputs": [
        {
          "internalType": "bool",
          "name": "",
          "type": "bool"
        }
      ],
      "stateMutability": "nonpayable",
      "type": "function"
    },
    {
      "inputs": [
        {
          "internalType": "address",
          "name": "from",
          "type": "address"
        },
        {
          "internalType": "address",
          "name": "to",
          "type": "address"
        },
        {
          "internalType": "uint256",
          "name": "value",
          "type": "uint256"
        }
      ],
      "name": "transferFrom",
      "outputs": [
        {
          "internalType": "bool",
          "name": "",
          "type": "bool"
        }
      ],
      "stateMutability": "nonpayable",
      "type": "function"
    },
    {
      "inputs": [
        {
          "internalType": "uint256",
          "name": "assets",
          "type": "uint256"
        },
        {
          "internalType": "address",
          "name": "receiver",
          "type": "address"
        },
        {
          "internalType": "address",
          "name": "owner",
          "type": "address"
        }
      ],
      "name": "withdraw",
      "outputs": [
        {
          "internalType": "uint256",
          "name": "",
          "type": "uint256"
        }
      ],
      "stateMutability": "nonpayable",
      "type": "function"
    },
    {
      "stateMutability": "payable",
      "type": "receive"
    }
  ],
  "bytecode": "0x608060405234801561001057600080fd5b506135fb806100206000396000f3fe60806040526004361061021e5760003560e01c806394bf804d11610123578063c6e6f592116100ab578063dd62ed3e1161006f578063dd62ed3e14610903578063e52083c614610940578063e63a391f1461096b578063ef8b30f714610996578063f288a2e2146109d35761025e565b8063c6e6f592146107f6578063ce04bebb14610833578063ce96cb771461085e578063d5f394881461089b578063d905777e146108c65761025e565b8063b3d7f6b9116100f2578063b3d7f6b9146106d9578063b460af9414610716578063ba08765214610753578063c4d66de814610790578063c63d75b6146107b95761025e565b806394bf804d1461060957806395d89b4114610646578063a217fddf14610671578063a9059cbb1461069c5761025e565b806338d52e0f116101a657806370a082311161017557806370a082311461050e57806375b238fc1461054b57806379502c55146105765780638824aa4b146105a157806392c2becc146105de5761025e565b806338d52e0f1461042c578063402d267d146104575780634cdad506146104945780636e553f65146104d15761025e565b80630a28a477116101ed5780630a28a4771461033357806311217d551461037057806318160ddd1461039957806323b872dd146103c4578063313ce567146104015761025e565b806301e1d1141461026357806306fdde031461028e57806307a2d13a146102b9578063095ea7b3146102f65761025e565b3661025e576040517f08c379a0000000000000000000000000000000000000000000000000000000008152600401610255906128be565b60405180910390fd5b600080fd5b34801561026f57600080fd5b506102786109fe565b60405161028591906128f7565b60405180910390f35b34801561029a57600080fd5b506102a3610a08565b6040516102b09190612991565b60405180910390f35b3480156102c557600080fd5b506102e060048036038101906102db91906129e4565b610aa9565b6040516102ed91906128f7565b60405180910390f35b34801561030257600080fd5b5061031d60048036038101906103189190612a6f565b610abd565b60405161032a9190612aca565b60405180910390f35b34801561033f57600080fd5b5061035a600480360381019061035591906129e4565b610ae0565b60405161036791906128f7565b60405180910390f35b34801561037c57600080fd5b50610397600480360381019061039291906129e4565b610af4565b005b3480156103a557600080fd5b506103ae610d2e565b6040516103bb91906128f7565b60405180910390f35b3480156103d057600080fd5b506103eb60048036038101906103e69190612ae5565b610d46565b6040516103f89190612aca565b60405180910390f35b34801561040d57600080fd5b50610416610d75565b6040516104239190612b54565b60405180910390f35b34801561043857600080fd5b50610441610dac565b60405161044e9190612b7e565b60405180910390f35b34801561046357600080fd5b5061047e60048036038101906104799190612b99565b610de4565b60405161048b91906128f7565b60405180910390f35b3480156104a057600080fd5b506104bb60048036038101906104b691906129e4565b610e0e565b6040516104c891906128f7565b60405180910390f35b3480156104dd57600080fd5b506104f860048036038101906104f39190612bc6565b610e22565b60405161050591906128f7565b60405180910390f35b34801561051a57600080fd5b5061053560048036038101906105309190612b99565b610ea4565b60405161054291906128f7565b60405180910390f35b34801561055757600080fd5b50610560610efb565b60405161056d9190612c1f565b60405180910390f35b34801561058257600080fd5b5061058b610f1f565b6040516105989190612c99565b60405180910390f35b3480156105ad57600080fd5b506105c860048036038101906105c39190612bc6565b610f43565b6040516105d591906128f7565b60405180910390f35b3480156105ea57600080fd5b506105f36110e0565b6040516106009190612c1f565b60405180910390f35b34801561061557600080fd5b50610630600480360381019061062b9190612bc6565b611104565b60405161063d91906128f7565b60405180910390f35b34801561065257600080fd5b5061065b611186565b6040516106689190612991565b60405180910390f35b34801561067d57600080fd5b50610686611227565b6040516106939190612c1f565b60405180910390f35b3480156106a857600080fd5b506106c360048036038101906106be9190612a6f565b61122e565b6040516106d09190612aca565b60405180910390f35b3480156106e557600080fd5b5061070060048036038101906106fb91906129e4565b611251565b60405161070d91906128f7565b60405180910390f35b34801561072257600080fd5b5061073d60048036038101906107389190612cb4565b611265565b60405161074a91906128f7565b60405180910390f35b34801561075f57600080fd5b5061077a60048036038101906107759190612cb4565b6112e9565b60405161078791906128f7565b60405180910390f35b34801561079c57600080fd5b506107b760048036038101906107b29190612b99565b61136d565b005b3480156107c557600080fd5b506107e060048036038101906107db9190612b99565b61164f565b6040516107ed91906128f7565b60405180910390f35b34801561080257600080fd5b5061081d600480360381019061081891906129e4565b611679565b60405161082a91906128f7565b60405180910390f35b34801561083f57600080fd5b5061084861168d565b60405161085591906128f7565b60405180910390f35b34801561086a57600080fd5b5061088560048036038101906108809190612b99565b611693565b60405161089291906128f7565b60405180910390f35b3480156108a757600080fd5b506108b06116af565b6040516108bd9190612b7e565b60405180910390f35b3480156108d257600080fd5b506108ed60048036038101906108e89190612b99565b6116d5565b6040516108fa91906128f7565b60405180910390f35b34801561090f57600080fd5b5061092a60048036038101906109259190612d07565b6116e7565b60405161093791906128f7565b60405180910390f35b34801561094c57600080fd5b5061095561177c565b60405161096291906128f7565b60405180910390f35b34801561097757600080fd5b50610980611788565b60405161098d9190612d6a565b60405180910390f35b3480156109a257600080fd5b506109bd60048036038101906109b891906129e4565b61178f565b6040516109ca91906128f7565b60405180910390f35b3480156109df57600080fd5b506109e86117a3565b6040516109f59190612c1f565b60405180910390f35b6000602154905090565b60606000610a146117c7565b9050806003018054610a2590612db4565b80601f0160208091040260200160405190810160405280929190818152602001828054610a5190612db4565b8015610a9e5780601f10610a7357610100808354040283529160200191610a9e565b820191906000526020600020905b815481529060010190602001808311610a8157829003601f168201915b505050505091505090565b6000610ab68260006117ef565b9050919050565b600080610ac8611848565b9050610ad5818585611850565b600191505092915050565b6000610aed826001611862565b9050919050565b60008054906101000a900473ffffffffffffffffffffffffffffffffffffffff1673ffffffffffffffffffffffffffffffffffffffff1663219519556040518163ffffffff1660e01b8152600401602060405180830381865afa158015610b5f573d6000803e3d6000fd5b505050506040513d601f19601f82011682018060405250810190610b839190612dfa565b8073ffffffffffffffffffffffffffffffffffffffff16610ba2611848565b73ffffffffffffffffffffffffffffffffffffffff1614610bf8576040517f08c379a0000000000000000000000000000000000000000000000000000000008152600401610bef90612e73565b60405180910390fd5b80600160006101000a81548173ffffffffffffffffffffffffffffffffffffffff021916908373ffffffffffffffffffffffffffffffffffffffff1602179055506000610c43610dac565b9050610c79610c50611848565b30858473ffffffffffffffffffffffffffffffffffffffff166118bb909392919063ffffffff16565b8260216000828254610c8b9190612ec2565b92505081905550610c9a611848565b73ffffffffffffffffffffffffffffffffffffffff167fc378fe46345084151dff4a66b9b76df7c4f769260bb3bb47fa7a4d3d932fdc6984604051610cdf91906128f7565b60405180910390a2506000600160006101000a81548173ffffffffffffffffffffffffffffffffffffffff021916908373ffffffffffffffffffffffffffffffffffffffff1602179055505050565b600080610d396117c7565b9050806002015491505090565b600080610d51611848565b9050610d5e85828561193d565b610d698585856119d1565b60019150509392505050565b600080610d80611ac5565b9050610d8a611aed565b8160000160149054906101000a900460ff16610da69190612ef6565b91505090565b600080610db7611ac5565b90508060000160009054906101000a900473ffffffffffffffffffffffffffffffffffffffff1691505090565b60007fffffffffffffffffffffffffffffffffffffffffffffffffffffffffffffffff9050919050565b6000610e1b8260006117ef565b9050919050565b600080610e2e83610de4565b905080841115610e79578284826040517f79012fb2000000000000000000000000000000000000000000000000000000008152600401610e7093929190612f2b565b60405180910390fd5b6000610e848561178f565b9050610e99610e91611848565b858784611af2565b809250505092915050565b600080610eaf6117c7565b90508060000160008473ffffffffffffffffffffffffffffffffffffffff1673ffffffffffffffffffffffffffffffffffffffff16815260200190815260200160002054915050919050565b7fa49807205ce4d355092ef5a8a18f56e8913cf4a201fbe287825b095693c2177581565b60008054906101000a900473ffffffffffffffffffffffffffffffffffffffff1681565b60008060009054906101000a900473ffffffffffffffffffffffffffffffffffffffff1673ffffffffffffffffffffffffffffffffffffffff1663bf27726c6040518163ffffffff1660e01b8152600401602060405180830381865afa158015610fb1573d6000803e3d6000fd5b505050506040513d601f19601f82011682018060405250810190610fd59190612dfa565b8073ffffffffffffffffffffffffffffffffffffffff16610ff4611848565b73ffffffffffffffffffffffffffffffffffffffff161461104a576040517f08c379a000000000000000000000000000000000000000000000000000000000815260040161104190612e73565b60405180910390fd5b80600160006101000a81548173ffffffffffffffffffffffffffffffffffffffff021916908373ffffffffffffffffffffffffffffffffffffffff1602179055506110958484610e22565b91506000600160006101000a81548173ffffffffffffffffffffffffffffffffffffffff021916908373ffffffffffffffffffffffffffffffffffffffff1602179055505092915050565b7f25cf2b509f2a7f322675b2a5322b182f44ad2c03ac941a0af17c9b178f5d5d5f81565b6000806111108361164f565b90508084111561115b578284826040517f284ff66700000000000000000000000000000000000000000000000000000000815260040161115293929190612f2b565b60405180910390fd5b600061116685611251565b905061117b611173611848565b858388611af2565b809250505092915050565b606060006111926117c7565b90508060040180546111a390612db4565b80601f01602080910402602001604051908101604052809291908181526020018280546111cf90612db4565b801561121c5780601f106111f15761010080835404028352916020019161121c565b820191906000526020600020905b8154815290600101906020018083116111ff57829003601f168201915b505050505091505090565b6000801b81565b600080611239611848565b90506112468185856119d1565b600191505092915050565b600061125e8260016117ef565b9050919050565b60008061127183611693565b9050808511156112bc578285826040517ffe9cceec0000000000000000000000000000000000000000000000000000000081526004016112b393929190612f2b565b60405180910390fd5b60006112c786610ae0565b90506112dd6112d4611848565b86868985611b6b565b80925050509392505050565b6000806112f5836116d5565b905080851115611340578285826040517fb94abeec00000000000000000000000000000000000000000000000000000000815260040161133793929190612f2b565b60405180910390fd5b600061134b86610e0e565b9050611361611358611848565b8686848a611b6b565b80925050509392505050565b6000611377611c6a565b905060008160000160089054906101000a900460ff1615905060008260000160009054906101000a900467ffffffffffffffff1690506000808267ffffffffffffffff161480156113c55750825b9050600060018367ffffffffffffffff161480156113fa575060003073ffffffffffffffffffffffffffffffffffffffff163b145b905081158015611408575080155b1561143f576040517ff92ee8a900000000000000000000000000000000000000000000000000000000815260040160405180910390fd5b60018560000160006101000a81548167ffffffffffffffff021916908367ffffffffffffffff160217905550831561148f5760018560000160086101000a81548160ff0219169083151502179055505b61149886611c92565b61150c6040518060400160405280600f81526020017f205374616b65642076654d6574697300000000000000000000000000000000008152506040518060400160405280600881526020017f7376654d65746973000000000000000000000000000000000000000000000000815250611ced565b6115a360008054906101000a900473ffffffffffffffffffffffffffffffffffffffff1673ffffffffffffffffffffffffffffffffffffffff16639336ce806040518163ffffffff1660e01b8152600401602060405180830381865afa15801561157a573d6000803e3d6000fd5b505050506040513d601f19601f8201168201806040525081019061159e9190612dfa565b611d03565b6115ab611848565b602060006101000a81548173ffffffffffffffffffffffffffffffffffffffff021916908373ffffffffffffffffffffffffffffffffffffffff16021790555083156116475760008560000160086101000a81548160ff0219169083151502179055507fc7f505b2f371ae2175ee4913f4499e1f2633a7b5936321eed1cdaeb6115181d2600160405161163e9190612f9d565b60405180910390a15b505050505050565b60007fffffffffffffffffffffffffffffffffffffffffffffffffffffffffffffffff9050919050565b6000611686826000611862565b9050919050565b60215481565b60006116a86116a183610ea4565b60006117ef565b9050919050565b602060009054906101000a900473ffffffffffffffffffffffffffffffffffffffff1681565b60006116e082610ea4565b9050919050565b6000806116f26117c7565b90508060010160008573ffffffffffffffffffffffffffffffffffffffff1673ffffffffffffffffffffffffffffffffffffffff16815260200190815260200160002060008473ffffffffffffffffffffffffffffffffffffffff1673ffffffffffffffffffffffffffffffffffffffff1681526020019081526020016000205491505092915050565b670de0b6b3a764000081565b620f424081565b600061179c826000611862565b9050919050565b7ff66846415d2bf9eabda9e84793ff9c0ea96d87f50fc41e66aa16469c6a442f0581565b60007f52c63247e1f47db19d5ce0460030c497f067ca4cebf71ba98eeadabe20bace00905090565b600061184060016117fe6109fe565b6118089190612ec2565b611810611aed565b600a61181c91906130eb565b611824610d2e565b61182e9190612ec2565b8486611d17909392919063ffffffff16565b905092915050565b600033905090565b61185d8383836001611d66565b505050565b60006118b361186f611aed565b600a61187b91906130eb565b611883610d2e565b61188d9190612ec2565b60016118976109fe565b6118a19190612ec2565b8486611d17909392919063ffffffff16565b905092915050565b611937848573ffffffffffffffffffffffffffffffffffffffff166323b872dd8686866040516024016118f093929190613136565b604051602081830303815290604052915060e01b6020820180517bffffffffffffffffffffffffffffffffffffffffffffffffffffffff8381831617835250505050611f4c565b50505050565b600061194984846116e7565b90507fffffffffffffffffffffffffffffffffffffffffffffffffffffffffffffffff81146119cb57818110156119bb578281836040517ffb8f41b20000000000000000000000000000000000000000000000000000000081526004016119b293929190612f2b565b60405180910390fd5b6119ca84848484036000611d66565b5b50505050565b600073ffffffffffffffffffffffffffffffffffffffff168373ffffffffffffffffffffffffffffffffffffffff1603611a435760006040517f96c6fd1e000000000000000000000000000000000000000000000000000000008152600401611a3a9190612b7e565b60405180910390fd5b600073ffffffffffffffffffffffffffffffffffffffff168273ffffffffffffffffffffffffffffffffffffffff1603611ab55760006040517fec442f05000000000000000000000000000000000000000000000000000000008152600401611aac9190612b7e565b60405180910390fd5b611ac0838383611fee565b505050565b60007f0773e532dfede91f04b12a73d3d2acd361424f41f76b4fb79f090161e36b4e00905090565b600090565b611afe8484848461222d565b8160216000828254611b109190612ec2565b925050819055508373ffffffffffffffffffffffffffffffffffffffff167fc378fe46345084151dff4a66b9b76df7c4f769260bb3bb47fa7a4d3d932fdc6983604051611b5d91906128f7565b60405180910390a250505050565b8273ffffffffffffffffffffffffffffffffffffffff168573ffffffffffffffffffffffffffffffffffffffff1614611baa57611ba983868361193d565b5b8160216000828254611bbc919061316d565b92505081905550611bcd83826122e1565b6000611bd7610dac565b9050611be4818685612363565b8373ffffffffffffffffffffffffffffffffffffffff168573ffffffffffffffffffffffffffffffffffffffff168773ffffffffffffffffffffffffffffffffffffffff167ffbde797d201c681b91056529119e0b02407c7bb96a4a2c75c01fc9667232c8db8686604051611c5a9291906131a1565b60405180910390a4505050505050565b60007ff0c57e16840df040f15088dc2f81fe391c3923bec73e23a9662efc9c229c6a00905090565b611c9a6123e2565b806000806101000a81548173ffffffffffffffffffffffffffffffffffffffff021916908373ffffffffffffffffffffffffffffffffffffffff160217905550611ce2612422565b611cea612434565b50565b611cf56123e2565b611cff828261243e565b5050565b611d0b6123e2565b611d148161247b565b50565b6000611d47611d2583612512565b8015611d42575060008480611d3d57611d3c6131ca565b5b868809115b612540565b611d5286868661254c565b611d5c9190612ec2565b9050949350505050565b6000611d706117c7565b9050600073ffffffffffffffffffffffffffffffffffffffff168573ffffffffffffffffffffffffffffffffffffffff1603611de45760006040517fe602df05000000000000000000000000000000000000000000000000000000008152600401611ddb9190612b7e565b60405180910390fd5b600073ffffffffffffffffffffffffffffffffffffffff168473ffffffffffffffffffffffffffffffffffffffff1603611e565760006040517f94280d62000000000000000000000000000000000000000000000000000000008152600401611e4d9190612b7e565b60405180910390fd5b828160010160008773ffffffffffffffffffffffffffffffffffffffff1673ffffffffffffffffffffffffffffffffffffffff16815260200190815260200160002060008673ffffffffffffffffffffffffffffffffffffffff1673ffffffffffffffffffffffffffffffffffffffff168152602001908152602001600020819055508115611f45578373ffffffffffffffffffffffffffffffffffffffff168573ffffffffffffffffffffffffffffffffffffffff167f8c5be1e5ebec7d5bd14f71427d1e84f3dd0314c0f7b2291e5b200ac8c7c3b92585604051611f3c91906128f7565b60405180910390a35b5050505050565b600080602060008451602086016000885af180611f6f576040513d6000823e3d81fd5b3d925060005191505060008214611f8a576001811415611fa6565b60008473ffffffffffffffffffffffffffffffffffffffff163b145b15611fe857836040517f5274afe7000000000000000000000000000000000000000000000000000000008152600401611fdf9190612b7e565b60405180910390fd5b50505050565b6000611ff86117c7565b9050600073ffffffffffffffffffffffffffffffffffffffff168473ffffffffffffffffffffffffffffffffffffffff160361204e57818160020160008282546120429190612ec2565b92505081905550612127565b60008160000160008673ffffffffffffffffffffffffffffffffffffffff1673ffffffffffffffffffffffffffffffffffffffff168152602001908152602001600020549050828110156120dd578481846040517fe450d38c0000000000000000000000000000000000000000000000000000000081526004016120d493929190612f2b565b60405180910390fd5b8281038260000160008773ffffffffffffffffffffffffffffffffffffffff1673ffffffffffffffffffffffffffffffffffffffff16815260200190815260200160002081905550505b600073ffffffffffffffffffffffffffffffffffffffff168373ffffffffffffffffffffffffffffffffffffffff1603612172578181600201600082825403925050819055506121c2565b818160000160008573ffffffffffffffffffffffffffffffffffffffff1673ffffffffffffffffffffffffffffffffffffffff168152602001908152602001600020600082825401925050819055505b8273ffffffffffffffffffffffffffffffffffffffff168473ffffffffffffffffffffffffffffffffffffffff167fddf252ad1be2c89b69c2b068fc378daa952ba7f163c4a11628f55a4df523b3ef8460405161221f91906128f7565b60405180910390a350505050565b6000612237611ac5565b90506122698160000160009054906101000a900473ffffffffffffffffffffffffffffffffffffffff168630866118bb565b612273848361263a565b8373ffffffffffffffffffffffffffffffffffffffff168573ffffffffffffffffffffffffffffffffffffffff167fdcbc1c05240f31ff3ad067ef1ee35ce4997762752e3a095284754544f4c709d785856040516122d29291906131a1565b60405180910390a35050505050565b600073ffffffffffffffffffffffffffffffffffffffff168273ffffffffffffffffffffffffffffffffffffffff16036123535760006040517f96c6fd1e00000000000000000000000000000000000000000000000000000000815260040161234a9190612b7e565b60405180910390fd5b61235f82600083611fee565b5050565b6123dd838473ffffffffffffffffffffffffffffffffffffffff1663a9059cbb85856040516024016123969291906131f9565b604051602081830303815290604052915060e01b6020820180517bffffffffffffffffffffffffffffffffffffffffffffffffffffffff8381831617835250505050611f4c565b505050565b6123ea6126bc565b612420576040517fd7e6bcf800000000000000000000000000000000000000000000000000000000815260040160405180910390fd5b565b61242a6123e2565b6124326126dc565b565b61243c6123e2565b565b6124466123e2565b60006124506117c7565b90508281600301908161246391906133f3565b508181600401908161247591906133f3565b50505050565b6124836123e2565b600061248d611ac5565b905060008061249b846126fd565b91509150816124ab5760126124ad565b805b8360000160146101000a81548160ff021916908360ff160217905550838360000160006101000a81548173ffffffffffffffffffffffffffffffffffffffff021916908373ffffffffffffffffffffffffffffffffffffffff16021790555050505050565b60006001600283600381111561252b5761252a6134c5565b5b61253591906134f4565b60ff16149050919050565b60008115159050919050565b60008083850290506000801985870982811083820303915050600081036125875783828161257d5761257c6131ca565b5b0492505050612633565b8084116125a7576125a66125a1600086146012601161280d565b612827565b5b600084868809905082811182039150808303925060008560000386169050808604955080840493506001818260000304019050808302841793506000600287600302189050808702600203810290508087026002038102905080870260020381029050808702600203810290508087026002038102905080870260020381029050808502955050505050505b9392505050565b600073ffffffffffffffffffffffffffffffffffffffff168273ffffffffffffffffffffffffffffffffffffffff16036126ac5760006040517fec442f050000000000000000000000000000000000000000000000000000000081526004016126a39190612b7e565b60405180910390fd5b6126b860008383611fee565b5050565b60006126c6611c6a565b60000160089054906101000a900460ff16905090565b6126e46123e2565b60006126ee612839565b90506001816000018190555050565b6000806000808473ffffffffffffffffffffffffffffffffffffffff1660405160240160405160208183030381529060405263313ce56760e01b6020820180517bffffffffffffffffffffffffffffffffffffffffffffffffffffffff8381831617835250505050604051612772919061356c565b600060405180830381855afa9150503d80600081146127ad576040519150601f19603f3d011682016040523d82523d6000602084013e6127b2565b606091505b50915091508180156127c657506020815110155b156127fe576000818060200190518101906127e19190613598565b905060ff801681116127fc5760018194509450505050612808565b505b6000809350935050505b915091565b600061281884612540565b82841802821890509392505050565b634e487b71600052806020526024601cfd5b60007f9b779b17422d0df92223018b32b4d1fa46e071723d6817e2486d003becc55f00905090565b600082825260208201905092915050565b7f426173653a206e6f7420737570706f7274204d65746973207472616e73666572600082015250565b60006128a8602083612861565b91506128b382612872565b602082019050919050565b600060208201905081810360008301526128d78161289b565b9050919050565b6000819050919050565b6128f1816128de565b82525050565b600060208201905061290c60008301846128e8565b92915050565b600081519050919050565b60005b8381101561293b578082015181840152602081019050612920565b60008484015250505050565b6000601f19601f8301169050919050565b600061296382612912565b61296d8185612861565b935061297d81856020860161291d565b61298681612947565b840191505092915050565b600060208201905081810360008301526129ab8184612958565b905092915050565b600080fd5b6129c1816128de565b81146129cc57600080fd5b50565b6000813590506129de816129b8565b92915050565b6000602082840312156129fa576129f96129b3565b5b6000612a08848285016129cf565b91505092915050565b600073ffffffffffffffffffffffffffffffffffffffff82169050919050565b6000612a3c82612a11565b9050919050565b612a4c81612a31565b8114612a5757600080fd5b50565b600081359050612a6981612a43565b92915050565b60008060408385031215612a8657612a856129b3565b5b6000612a9485828601612a5a565b9250506020612aa5858286016129cf565b9150509250929050565b60008115159050919050565b612ac481612aaf565b82525050565b6000602082019050612adf6000830184612abb565b92915050565b600080600060608486031215612afe57612afd6129b3565b5b6000612b0c86828701612a5a565b9350506020612b1d86828701612a5a565b9250506040612b2e868287016129cf565b9150509250925092565b600060ff82169050919050565b612b4e81612b38565b82525050565b6000602082019050612b696000830184612b45565b92915050565b612b7881612a31565b82525050565b6000602082019050612b936000830184612b6f565b92915050565b600060208284031215612baf57612bae6129b3565b5b6000612bbd84828501612a5a565b91505092915050565b60008060408385031215612bdd57612bdc6129b3565b5b6000612beb858286016129cf565b9250506020612bfc85828601612a5a565b9150509250929050565b6000819050919050565b612c1981612c06565b82525050565b6000602082019050612c346000830184612c10565b92915050565b6000819050919050565b6000612c5f612c5a612c5584612a11565b612c3a565b612a11565b9050919050565b6000612c7182612c44565b9050919050565b6000612c8382612c66565b9050919050565b612c9381612c78565b82525050565b6000602082019050612cae6000830184612c8a565b92915050565b600080600060608486031215612ccd57612ccc6129b3565b5b6000612cdb868287016129cf565b9350506020612cec86828701612a5a565b9250506040612cfd86828701612a5a565b9150509250925092565b60008060408385031215612d1e57612d1d6129b3565b5b6000612d2c85828601612a5a565b9250506020612d3d85828601612a5a565b9150509250929050565b600067ffffffffffffffff82169050919050565b612d6481612d47565b82525050565b6000602082019050612d7f6000830184612d5b565b92915050565b7f4e487b7100000000000000000000000000000000000000000000000000000000600052602260045260246000fd5b60006002820490506001821680612dcc57607f821691505b602082108103612ddf57612dde612d85565b5b50919050565b600081519050612df481612a43565b92915050565b600060208284031215612e1057612e0f6129b3565b5b6000612e1e84828501612de5565b91505092915050565b7f696e7465726e616c206f6e6c7900000000000000000000000000000000000000600082015250565b6000612e5d600d83612861565b9150612e6882612e27565b602082019050919050565b60006020820190508181036000830152612e8c81612e50565b9050919050565b7f4e487b7100000000000000000000000000000000000000000000000000000000600052601160045260246000fd5b6000612ecd826128de565b9150612ed8836128de565b9250828201905080821115612ef057612eef612e93565b5b92915050565b6000612f0182612b38565b9150612f0c83612b38565b9250828201905060ff811115612f2557612f24612e93565b5b92915050565b6000606082019050612f406000830186612b6f565b612f4d60208301856128e8565b612f5a60408301846128e8565b949350505050565b6000819050919050565b6000612f87612f82612f7d84612f62565b612c3a565b612d47565b9050919050565b612f9781612f6c565b82525050565b6000602082019050612fb26000830184612f8e565b92915050565b60008160011c9050919050565b6000808291508390505b600185111561300f57808604811115612feb57612fea612e93565b5b6001851615612ffa5780820291505b808102905061300885612fb8565b9450612fcf565b94509492505050565b60008261302857600190506130e4565b8161303657600090506130e4565b816001811461304c576002811461305657613085565b60019150506130e4565b60ff84111561306857613067612e93565b5b8360020a91508482111561307f5761307e612e93565b5b506130e4565b5060208310610133831016604e8410600b84101617156130ba5782820a9050838111156130b5576130b4612e93565b5b6130e4565b6130c78484846001612fc5565b925090508184048111156130de576130dd612e93565b5b81810290505b9392505050565b60006130f6826128de565b915061310183612b38565b925061312e7fffffffffffffffffffffffffffffffffffffffffffffffffffffffffffffffff8484613018565b905092915050565b600060608201905061314b6000830186612b6f565b6131586020830185612b6f565b61316560408301846128e8565b949350505050565b6000613178826128de565b9150613183836128de565b925082820390508181111561319b5761319a612e93565b5b92915050565b60006040820190506131b660008301856128e8565b6131c360208301846128e8565b9392505050565b7f4e487b7100000000000000000000000000000000000000000000000000000000600052601260045260246000fd5b600060408201905061320e6000830185612b6f565b61321b60208301846128e8565b9392505050565b7f4e487b7100000000000000000000000000000000000000000000000000000000600052604160045260246000fd5b60008190508160005260206000209050919050565b60006020601f8301049050919050565b600082821b905092915050565b6000600883026132b37fffffffffffffffffffffffffffffffffffffffffffffffffffffffffffffffff82613276565b6132bd8683613276565b95508019841693508086168417925050509392505050565b60006132f06132eb6132e6846128de565b612c3a565b6128de565b9050919050565b6000819050919050565b61330a836132d5565b61331e613316826132f7565b848454613283565b825550505050565b600090565b613333613326565b61333e818484613301565b505050565b5b818110156133625761335760008261332b565b600181019050613344565b5050565b601f8211156133a75761337881613251565b61338184613266565b81016020851015613390578190505b6133a461339c85613266565b830182613343565b50505b505050565b600082821c905092915050565b60006133ca600019846008026133ac565b1980831691505092915050565b60006133e383836133b9565b9150826002028217905092915050565b6133fc82612912565b67ffffffffffffffff81111561341557613414613222565b5b61341f8254612db4565b61342a828285613366565b600060209050601f83116001811461345d576000841561344b578287015190505b61345585826133d7565b8655506134bd565b601f19841661346b86613251565b60005b828110156134935784890151825560018201915060208501945060208101905061346e565b868310156134b057848901516134ac601f8916826133b9565b8355505b6001600288020188555050505b505050505050565b7f4e487b7100000000000000000000000000000000000000000000000000000000600052602160045260246000fd5b60006134ff82612b38565b915061350a83612b38565b92508261351a576135196131ca565b5b828206905092915050565b600081519050919050565b600081905092915050565b600061354682613525565b6135508185613530565b935061356081856020860161291d565b80840191505092915050565b6000613578828461353b565b915081905092915050565b600081519050613592816129b8565b92915050565b6000602082840312156135ae576135ad6129b3565b5b60006135bc84828501613583565b9150509291505056fea26469706673582212209eddce86c0c29355e665867b8616901dde5e0a2e58aa7e42b389f2e17d54c95d64736f6c63430008140033",
  "linkReferences": {},
  "deployedLinkReferences": {}
}