{
  "_format": "hh-sol-artifact-1",
  "contractName": "RewardDispatcher",
  "sourceName": "contracts/RewardDispatcher.sol",
  "abi": [
    {
      "inputs": [],
      "name": "InvalidInitialization",
      "type": "error"
    },
    {
      "inputs": [],
      "name": "NotInitializing",
      "type": "error"
    },
    {
      "inputs": [],
      "name": "ReentrancyGuardReentrantCall",
      "type": "error"
    },
    {
      "inputs": [
        {
          "internalType": "address",
          "name": "token",
          "type": "address"
        }
      ],
      "name": "SafeERC20FailedOperation",
      "type": "error"
    },
    {
      "inputs": [
        {
          "internalType": "uint256",
          "name": "value",
          "type": "uint256"
        },
        {
          "internalType": "uint256",
          "name": "length",
          "type": "uint256"
        }
      ],
      "name": "StringsInsufficientHexLength",
      "type": "error"
    },
    {
      "anonymous": false,
      "inputs": [
        {
          "indexed": false,
          "internalType": "uint256",
          "name": "amount",
          "type": "uint256"
        },
        {
          "indexed": false,
          "internalType": "uint256",
          "name": "toTreasuryAmount",
          "type": "uint256"
        },
        {
          "indexed": false,
          "internalType": "uint256",
          "name": "toVaultAmount",
          "type": "uint256"
        }
      ],
      "name": "Dispatched",
      "type": "event"
    },
    {
      "anonymous": false,
      "inputs": [
        {
          "indexed": false,
          "internalType": "uint64",
          "name": "version",
          "type": "uint64"
        }
      ],
      "name": "Initialized",
      "type": "event"
    },
    {
      "inputs": [],
      "name": "ADMIN_ROLE",
      "outputs": [
        {
          "internalType": "bytes32",
          "name": "",
          "type": "bytes32"
        }
      ],
      "stateMutability": "view",
      "type": "function"
    },
    {
      "inputs": [],
      "name": "BACKEND_ROLE",
      "outputs": [
        {
          "internalType": "bytes32",
          "name": "",
          "type": "bytes32"
        }
      ],
      "stateMutability": "view",
      "type": "function"
    },
    {
      "inputs": [],
      "name": "DEFAULT_ADMIN_ROLE",
      "outputs": [
        {
          "internalType": "bytes32",
          "name": "",
          "type": "bytes32"
        }
      ],
      "stateMutability": "view",
      "type": "function"
    },
    {
      "inputs": [],
      "name": "FEE_PRECISION",
      "outputs": [
        {
          "internalType": "uint64",
          "name": "",
          "type": "uint64"
        }
      ],
      "stateMutability": "view",
      "type": "function"
    },
    {
      "inputs": [],
      "name": "INITIAL_DEPOSIT_AMOUNT",
      "outputs": [
        {
          "internalType": "uint256",
          "name": "",
          "type": "uint256"
        }
      ],
      "stateMutability": "view",
      "type": "function"
    },
    {
      "inputs": [],
      "name": "TIMELOCK_ROLE",
      "outputs": [
        {
          "internalType": "bytes32",
          "name": "",
          "type": "bytes32"
        }
      ],
      "stateMutability": "view",
      "type": "function"
    },
    {
      "inputs": [],
      "name": "config",
      "outputs": [
        {
          "internalType": "contract IConfig",
          "name": "",
          "type": "address"
        }
      ],
      "stateMutability": "view",
      "type": "function"
    },
    {
      "inputs": [],
      "name": "dispatch",
      "outputs": [],
      "stateMutability": "nonpayable",
      "type": "function"
    },
    {
      "inputs": [
        {
          "internalType": "address",
          "name": "_config",
          "type": "address"
        }
      ],
      "name": "initialize",
      "outputs": [],
      "stateMutability": "nonpayable",
      "type": "function"
    },
    {
      "inputs": [],
      "name": "treasuryBalance",
      "outputs": [
        {
          "internalType": "uint256",
          "name": "",
          "type": "uint256"
        }
      ],
      "stateMutability": "view",
      "type": "function"
    },
    {
      "inputs": [
        {
          "internalType": "uint256",
          "name": "amount",
          "type": "uint256"
        },
        {
          "internalType": "bool",
          "name": "redeem",
          "type": "bool"
        }
      ],
      "name": "withdrawTreasury",
      "outputs": [],
      "stateMutability": "nonpayable",
      "type": "function"
    },
    {
      "stateMutability": "payable",
      "type": "receive"
    }
  ],
  "bytecode": "0x608060405234801561001057600080fd5b50611d52806100206000396000f3fe6080604052600436106100a05760003560e01c8063a298fb2011610064578063a298fb20146101bc578063c4d66de8146101e5578063e52083c61461020e578063e63a391f14610239578063e9c4a3ac14610264578063f288a2e21461027b576100e0565b8063313dab20146100e557806375b238fc1461011057806379502c551461013b57806392c2becc14610166578063a217fddf14610191576100e0565b366100e0576040517f08c379a00000000000000000000000000000000000000000000000000000000081526004016100d7906113da565b60405180910390fd5b600080fd5b3480156100f157600080fd5b506100fa6102a6565b6040516101079190611413565b60405180910390f35b34801561011c57600080fd5b506101256102ac565b6040516101329190611447565b60405180910390f35b34801561014757600080fd5b506101506102d0565b60405161015d91906114e1565b60405180910390f35b34801561017257600080fd5b5061017b6102f4565b6040516101889190611447565b60405180910390f35b34801561019d57600080fd5b506101a6610318565b6040516101b39190611447565b60405180910390f35b3480156101c857600080fd5b506101e360048036038101906101de9190611565565b61031f565b005b3480156101f157600080fd5b5061020c600480360381019061020791906115e3565b6105f6565b005b34801561021a57600080fd5b50610223610785565b6040516102309190611413565b60405180910390f35b34801561024557600080fd5b5061024e610791565b60405161025b9190611633565b60405180910390f35b34801561027057600080fd5b50610279610798565b005b34801561028757600080fd5b50610290610cda565b60405161029d9190611447565b60405180910390f35b60205481565b7fa49807205ce4d355092ef5a8a18f56e8913cf4a201fbe287825b095693c2177581565b60008054906101000a900473ffffffffffffffffffffffffffffffffffffffff1681565b7f25cf2b509f2a7f322675b2a5322b182f44ad2c03ac941a0af17c9b178f5d5d5f81565b6000801b81565b6103487f25cf2b509f2a7f322675b2a5322b182f44ad2c03ac941a0af17c9b178f5d5d5f610cfe565b60205482111561038d576040517f08c379a0000000000000000000000000000000000000000000000000000000008152600401610384906116c0565b60405180910390fd5b816020600082825461039f919061170f565b9250508190555080156104aa5760008054906101000a900473ffffffffffffffffffffffffffffffffffffffff1673ffffffffffffffffffffffffffffffffffffffff1663bf27726c6040518163ffffffff1660e01b8152600401602060405180830381865afa158015610417573d6000803e3d6000fd5b505050506040513d601f19601f8201168201806040525081019061043b9190611758565b73ffffffffffffffffffffffffffffffffffffffff1663bdb6a622836040518263ffffffff1660e01b81526004016104739190611413565b600060405180830381600087803b15801561048d57600080fd5b505af11580156104a1573d6000803e3d6000fd5b505050506105f2565b6105f160008054906101000a900473ffffffffffffffffffffffffffffffffffffffff1673ffffffffffffffffffffffffffffffffffffffff1663803db96d6040518163ffffffff1660e01b8152600401602060405180830381865afa158015610518573d6000803e3d6000fd5b505050506040513d601f19601f8201168201806040525081019061053c9190611758565b8360008054906101000a900473ffffffffffffffffffffffffffffffffffffffff1673ffffffffffffffffffffffffffffffffffffffff16639336ce806040518163ffffffff1660e01b8152600401602060405180830381865afa1580156105a8573d6000803e3d6000fd5b505050506040513d601f19601f820116820180604052508101906105cc9190611758565b73ffffffffffffffffffffffffffffffffffffffff16610d129092919063ffffffff16565b5b5050565b6000610600610d91565b905060008160000160089054906101000a900460ff1615905060008260000160009054906101000a900467ffffffffffffffff1690506000808267ffffffffffffffff1614801561064e5750825b9050600060018367ffffffffffffffff16148015610683575060003073ffffffffffffffffffffffffffffffffffffffff163b145b905081158015610691575080155b156106c8576040517ff92ee8a900000000000000000000000000000000000000000000000000000000815260040160405180910390fd5b60018560000160006101000a81548167ffffffffffffffff021916908367ffffffffffffffff16021790555083156107185760018560000160086101000a81548160ff0219169083151502179055505b61072186610db9565b831561077d5760008560000160086101000a81548160ff0219169083151502179055507fc7f505b2f371ae2175ee4913f4499e1f2633a7b5936321eed1cdaeb6115181d2600160405161077491906117c0565b60405180910390a15b505050505050565b670de0b6b3a764000081565b620f424081565b6107a0610e14565b6107c97f25cf2b509f2a7f322675b2a5322b182f44ad2c03ac941a0af17c9b178f5d5d5f610cfe565b60008060009054906101000a900473ffffffffffffffffffffffffffffffffffffffff1673ffffffffffffffffffffffffffffffffffffffff16639336ce806040518163ffffffff1660e01b8152600401602060405180830381865afa158015610837573d6000803e3d6000fd5b505050506040513d601f19601f8201168201806040525081019061085b9190611758565b73ffffffffffffffffffffffffffffffffffffffff166370a08231306040518263ffffffff1660e01b815260040161089391906117ea565b602060405180830381865afa1580156108b0573d6000803e3d6000fd5b505050506040513d601f19601f820116820180604052508101906108d4919061181a565b905060008111610919576040517f08c379a000000000000000000000000000000000000000000000000000000000815260040161091090611893565b60405180910390fd5b6000620f424067ffffffffffffffff1660008054906101000a900473ffffffffffffffffffffffffffffffffffffffff1673ffffffffffffffffffffffffffffffffffffffff16638b587b9c6040518163ffffffff1660e01b8152600401602060405180830381865afa158015610994573d6000803e3d6000fd5b505050506040513d601f19601f820116820180604052508101906109b891906118ef565b63ffffffff16836109c9919061191c565b6109d3919061198d565b9050600081836109e3919061170f565b905081602060008282546109f791906119be565b9250508190555060008054906101000a900473ffffffffffffffffffffffffffffffffffffffff1673ffffffffffffffffffffffffffffffffffffffff16639336ce806040518163ffffffff1660e01b8152600401602060405180830381865afa158015610a69573d6000803e3d6000fd5b505050506040513d601f19601f82011682018060405250810190610a8d9190611758565b73ffffffffffffffffffffffffffffffffffffffff1663095ea7b360008054906101000a900473ffffffffffffffffffffffffffffffffffffffff1673ffffffffffffffffffffffffffffffffffffffff1663a21914706040518163ffffffff1660e01b8152600401602060405180830381865afa158015610b13573d6000803e3d6000fd5b505050506040513d601f19601f82011682018060405250810190610b379190611758565b836040518363ffffffff1660e01b8152600401610b559291906119f2565b6020604051808303816000875af1158015610b74573d6000803e3d6000fd5b505050506040513d601f19601f82011682018060405250810190610b989190611a30565b5060008054906101000a900473ffffffffffffffffffffffffffffffffffffffff1673ffffffffffffffffffffffffffffffffffffffff1663a21914706040518163ffffffff1660e01b8152600401602060405180830381865afa158015610c04573d6000803e3d6000fd5b505050506040513d601f19601f82011682018060405250810190610c289190611758565b73ffffffffffffffffffffffffffffffffffffffff166311217d55826040518263ffffffff1660e01b8152600401610c609190611413565b600060405180830381600087803b158015610c7a57600080fd5b505af1158015610c8e573d6000803e3d6000fd5b505050507f929c30b248a2b23bb2e1ab7c63cbbd5e53480d01e032310e7de1d3865e2fb937838383604051610cc593929190611a5d565b60405180910390a1505050610cd8610e6b565b565b7ff66846415d2bf9eabda9e84793ff9c0ea96d87f50fc41e66aa16469c6a442f0581565b610d0f81610d0a610e84565b610e8c565b50565b610d8c838473ffffffffffffffffffffffffffffffffffffffff1663a9059cbb8585604051602401610d459291906119f2565b604051602081830303815290604052915060e01b6020820180517bffffffffffffffffffffffffffffffffffffffffffffffffffffffff8381831617835250505050610fa3565b505050565b60007ff0c57e16840df040f15088dc2f81fe391c3923bec73e23a9662efc9c229c6a00905090565b610dc1611045565b806000806101000a81548173ffffffffffffffffffffffffffffffffffffffff021916908373ffffffffffffffffffffffffffffffffffffffff160217905550610e09611085565b610e11611097565b50565b6000610e1e6110a1565b90506002816000015403610e5e576040517f3ee5aeb500000000000000000000000000000000000000000000000000000000815260040160405180910390fd5b6002816000018190555050565b6000610e756110a1565b90506001816000018190555050565b600033905090565b60008054906101000a900473ffffffffffffffffffffffffffffffffffffffff1673ffffffffffffffffffffffffffffffffffffffff166391d1485483836040518363ffffffff1660e01b8152600401610ee7929190611a94565b602060405180830381865afa158015610f04573d6000803e3d6000fd5b505050506040513d601f19601f82011682018060405250810190610f289190611a30565b610f9f57610f35816110c9565b610f438360001c60206110f6565b604051602001610f54929190611bc6565b6040516020818303038152906040526040517f08c379a0000000000000000000000000000000000000000000000000000000008152600401610f969190611c4a565b60405180910390fd5b5050565b600080602060008451602086016000885af180610fc6576040513d6000823e3d81fd5b3d925060005191505060008214610fe1576001811415610ffd565b60008473ffffffffffffffffffffffffffffffffffffffff163b145b1561103f57836040517f5274afe700000000000000000000000000000000000000000000000000000000815260040161103691906117ea565b60405180910390fd5b50505050565b61104d61133c565b611083576040517fd7e6bcf800000000000000000000000000000000000000000000000000000000815260040160405180910390fd5b565b61108d611045565b61109561135c565b565b61109f611045565b565b60007f9b779b17422d0df92223018b32b4d1fa46e071723d6817e2486d003becc55f00905090565b60606110ef8273ffffffffffffffffffffffffffffffffffffffff16601460ff166110f6565b9050919050565b606060008390506000600284600261110e919061191c565b61111891906119be565b67ffffffffffffffff81111561113157611130611c6c565b5b6040519080825280601f01601f1916602001820160405280156111635781602001600182028036833780820191505090505b5090507f30000000000000000000000000000000000000000000000000000000000000008160008151811061119b5761119a611c9b565b5b60200101907effffffffffffffffffffffffffffffffffffffffffffffffffffffffffffff1916908160001a9053507f7800000000000000000000000000000000000000000000000000000000000000816001815181106111ff576111fe611c9b565b5b60200101907effffffffffffffffffffffffffffffffffffffffffffffffffffffffffffff1916908160001a9053506000600185600261123f919061191c565b61124991906119be565b90505b60018111156112e9577f3031323334353637383961626364656600000000000000000000000000000000600f84166010811061128b5761128a611c9b565b5b1a60f81b8282815181106112a2576112a1611c9b565b5b60200101907effffffffffffffffffffffffffffffffffffffffffffffffffffffffffffff1916908160001a905350600483901c9250806112e290611cca565b905061124c565b50600082146113315784846040517fe22e27eb000000000000000000000000000000000000000000000000000000008152600401611328929190611cf3565b60405180910390fd5b809250505092915050565b6000611346610d91565b60000160089054906101000a900460ff16905090565b611364611045565b600061136e6110a1565b90506001816000018190555050565b600082825260208201905092915050565b7f426173653a206e6f7420737570706f7274204d65746973207472616e73666572600082015250565b60006113c460208361137d565b91506113cf8261138e565b602082019050919050565b600060208201905081810360008301526113f3816113b7565b9050919050565b6000819050919050565b61140d816113fa565b82525050565b60006020820190506114286000830184611404565b92915050565b6000819050919050565b6114418161142e565b82525050565b600060208201905061145c6000830184611438565b92915050565b600073ffffffffffffffffffffffffffffffffffffffff82169050919050565b6000819050919050565b60006114a76114a261149d84611462565b611482565b611462565b9050919050565b60006114b98261148c565b9050919050565b60006114cb826114ae565b9050919050565b6114db816114c0565b82525050565b60006020820190506114f660008301846114d2565b92915050565b600080fd5b61150a816113fa565b811461151557600080fd5b50565b60008135905061152781611501565b92915050565b60008115159050919050565b6115428161152d565b811461154d57600080fd5b50565b60008135905061155f81611539565b92915050565b6000806040838503121561157c5761157b6114fc565b5b600061158a85828601611518565b925050602061159b85828601611550565b9150509250929050565b60006115b082611462565b9050919050565b6115c0816115a5565b81146115cb57600080fd5b50565b6000813590506115dd816115b7565b92915050565b6000602082840312156115f9576115f86114fc565b5b6000611607848285016115ce565b91505092915050565b600067ffffffffffffffff82169050919050565b61162d81611610565b82525050565b60006020820190506116486000830184611624565b92915050565b7f526577617264446973706174636865723a20696e73756666696369656e74206260008201527f616c616e63650000000000000000000000000000000000000000000000000000602082015250565b60006116aa60268361137d565b91506116b58261164e565b604082019050919050565b600060208201905081810360008301526116d98161169d565b9050919050565b7f4e487b7100000000000000000000000000000000000000000000000000000000600052601160045260246000fd5b600061171a826113fa565b9150611725836113fa565b925082820390508181111561173d5761173c6116e0565b5b92915050565b600081519050611752816115b7565b92915050565b60006020828403121561176e5761176d6114fc565b5b600061177c84828501611743565b91505092915050565b6000819050919050565b60006117aa6117a56117a084611785565b611482565b611610565b9050919050565b6117ba8161178f565b82525050565b60006020820190506117d560008301846117b1565b92915050565b6117e4816115a5565b82525050565b60006020820190506117ff60008301846117db565b92915050565b60008151905061181481611501565b92915050565b6000602082840312156118305761182f6114fc565b5b600061183e84828501611805565b91505092915050565b7f526577617264446973706174636865723a206e6f207265776172640000000000600082015250565b600061187d601b8361137d565b915061188882611847565b602082019050919050565b600060208201905081810360008301526118ac81611870565b9050919050565b600063ffffffff82169050919050565b6118cc816118b3565b81146118d757600080fd5b50565b6000815190506118e9816118c3565b92915050565b600060208284031215611905576119046114fc565b5b6000611913848285016118da565b91505092915050565b6000611927826113fa565b9150611932836113fa565b9250828202611940816113fa565b91508282048414831517611957576119566116e0565b5b5092915050565b7f4e487b7100000000000000000000000000000000000000000000000000000000600052601260045260246000fd5b6000611998826113fa565b91506119a3836113fa565b9250826119b3576119b261195e565b5b828204905092915050565b60006119c9826113fa565b91506119d4836113fa565b92508282019050808211156119ec576119eb6116e0565b5b92915050565b6000604082019050611a0760008301856117db565b611a146020830184611404565b9392505050565b600081519050611a2a81611539565b92915050565b600060208284031215611a4657611a456114fc565b5b6000611a5484828501611a1b565b91505092915050565b6000606082019050611a726000830186611404565b611a7f6020830185611404565b611a8c6040830184611404565b949350505050565b6000604082019050611aa96000830185611438565b611ab660208301846117db565b9392505050565b600081905092915050565b7f416363657373436f6e74726f6c3a206163636f756e7420000000000000000000600082015250565b6000611afe601783611abd565b9150611b0982611ac8565b601782019050919050565b600081519050919050565b60005b83811015611b3d578082015181840152602081019050611b22565b60008484015250505050565b6000611b5482611b14565b611b5e8185611abd565b9350611b6e818560208601611b1f565b80840191505092915050565b7f206973206d697373696e6720726f6c6520000000000000000000000000000000600082015250565b6000611bb0601183611abd565b9150611bbb82611b7a565b601182019050919050565b6000611bd182611af1565b9150611bdd8285611b49565b9150611be882611ba3565b9150611bf48284611b49565b91508190509392505050565b6000601f19601f8301169050919050565b6000611c1c82611b14565b611c26818561137d565b9350611c36818560208601611b1f565b611c3f81611c00565b840191505092915050565b60006020820190508181036000830152611c648184611c11565b905092915050565b7f4e487b7100000000000000000000000000000000000000000000000000000000600052604160045260246000fd5b7f4e487b7100000000000000000000000000000000000000000000000000000000600052603260045260246000fd5b6000611cd5826113fa565b915060008203611ce857611ce76116e0565b5b600182039050919050565b6000604082019050611d086000830185611404565b611d156020830184611404565b939250505056fea26469706673582212201f07e70bad2600f5942bd31b62fdbcce122b6059b68381ffb55a1d3336c74e5464736f6c63430008140033",
  "linkReferences": {},
  "deployedLinkReferences": {}
}