{
  "_format": "hh-sol-artifact-1",
  "contractName": "RewardDispatcher",
  "sourceName": "contracts/RewardDispatcher.sol",
  "abi": [
    {
      "inputs": [],
      "name": "InvalidInitialization",
      "type": "error"
    },
    {
      "inputs": [],
      "name": "NotInitializing",
      "type": "error"
    },
    {
      "inputs": [],
      "name": "ReentrancyGuardReentrantCall",
      "type": "error"
    },
    {
      "inputs": [
        {
          "internalType": "address",
          "name": "token",
          "type": "address"
        }
      ],
      "name": "SafeERC20FailedOperation",
      "type": "error"
    },
    {
      "inputs": [
        {
          "internalType": "uint256",
          "name": "value",
          "type": "uint256"
        },
        {
          "internalType": "uint256",
          "name": "length",
          "type": "uint256"
        }
      ],
      "name": "StringsInsufficientHexLength",
      "type": "error"
    },
    {
      "anonymous": false,
      "inputs": [
        {
          "indexed": false,
          "internalType": "uint256",
          "name": "amount",
          "type": "uint256"
        },
        {
          "indexed": false,
          "internalType": "uint256",
          "name": "toTreasuryAmount",
          "type": "uint256"
        },
        {
          "indexed": false,
          "internalType": "uint256",
          "name": "toVaultAmount",
          "type": "uint256"
        }
      ],
      "name": "Dispatched",
      "type": "event"
    },
    {
      "anonymous": false,
      "inputs": [
        {
          "indexed": false,
          "internalType": "uint64",
          "name": "version",
          "type": "uint64"
        }
      ],
      "name": "Initialized",
      "type": "event"
    },
    {
      "inputs": [],
      "name": "ADMIN_ROLE",
      "outputs": [
        {
          "internalType": "bytes32",
          "name": "",
          "type": "bytes32"
        }
      ],
      "stateMutability": "view",
      "type": "function"
    },
    {
      "inputs": [],
      "name": "BACKEND_ROLE",
      "outputs": [
        {
          "internalType": "bytes32",
          "name": "",
          "type": "bytes32"
        }
      ],
      "stateMutability": "view",
      "type": "function"
    },
    {
      "inputs": [],
      "name": "DEFAULT_ADMIN_ROLE",
      "outputs": [
        {
          "internalType": "bytes32",
          "name": "",
          "type": "bytes32"
        }
      ],
      "stateMutability": "view",
      "type": "function"
    },
    {
      "inputs": [],
      "name": "FEE_PRECISION",
      "outputs": [
        {
          "internalType": "uint64",
          "name": "",
          "type": "uint64"
        }
      ],
      "stateMutability": "view",
      "type": "function"
    },
    {
      "inputs": [],
      "name": "INITIAL_DEPOSIT_AMOUNT",
      "outputs": [
        {
          "internalType": "uint256",
          "name": "",
          "type": "uint256"
        }
      ],
      "stateMutability": "view",
      "type": "function"
    },
    {
      "inputs": [],
      "name": "TIMELOCK_ROLE",
      "outputs": [
        {
          "internalType": "bytes32",
          "name": "",
          "type": "bytes32"
        }
      ],
      "stateMutability": "view",
      "type": "function"
    },
    {
      "inputs": [],
      "name": "_totalAssets",
      "outputs": [
        {
          "internalType": "uint256",
          "name": "",
          "type": "uint256"
        }
      ],
      "stateMutability": "view",
      "type": "function"
    },
    {
      "inputs": [],
      "name": "config",
      "outputs": [
        {
          "internalType": "contract IConfig",
          "name": "",
          "type": "address"
        }
      ],
      "stateMutability": "view",
      "type": "function"
    },
    {
      "inputs": [],
      "name": "dispatch",
      "outputs": [],
      "stateMutability": "nonpayable",
      "type": "function"
    },
    {
      "inputs": [
        {
          "internalType": "address",
          "name": "_config",
          "type": "address"
        }
      ],
      "name": "initialize",
      "outputs": [],
      "stateMutability": "nonpayable",
      "type": "function"
    },
    {
      "inputs": [],
      "name": "treasuryBalance",
      "outputs": [
        {
          "internalType": "uint256",
          "name": "",
          "type": "uint256"
        }
      ],
      "stateMutability": "view",
      "type": "function"
    },
    {
      "stateMutability": "payable",
      "type": "receive"
    }
  ],
  "bytecode": "0x608060405234801561001057600080fd5b50611af4806100206000396000f3fe6080604052600436106100a05760003560e01c8063c4d66de811610064578063c4d66de8146101bc578063ce04bebb146101e5578063e52083c614610210578063e63a391f1461023b578063e9c4a3ac14610266578063f288a2e21461027d576100e0565b8063313dab20146100e557806375b238fc1461011057806379502c551461013b57806392c2becc14610166578063a217fddf14610191576100e0565b366100e0576040517f08c379a00000000000000000000000000000000000000000000000000000000081526004016100d790611252565b60405180910390fd5b600080fd5b3480156100f157600080fd5b506100fa6102a8565b604051610107919061128b565b60405180910390f35b34801561011c57600080fd5b506101256102ae565b60405161013291906112bf565b60405180910390f35b34801561014757600080fd5b506101506102d2565b60405161015d9190611359565b60405180910390f35b34801561017257600080fd5b5061017b6102f6565b60405161018891906112bf565b60405180910390f35b34801561019d57600080fd5b506101a661031a565b6040516101b391906112bf565b60405180910390f35b3480156101c857600080fd5b506101e360048036038101906101de91906113b7565b610321565b005b3480156101f157600080fd5b506101fa6104b0565b604051610207919061128b565b60405180910390f35b34801561021c57600080fd5b506102256104b6565b604051610232919061128b565b60405180910390f35b34801561024757600080fd5b506102506104c2565b60405161025d9190611407565b60405180910390f35b34801561027257600080fd5b5061027b6104c9565b005b34801561028957600080fd5b50610292610b52565b60405161029f91906112bf565b60405180910390f35b60215481565b7fa49807205ce4d355092ef5a8a18f56e8913cf4a201fbe287825b095693c2177581565b60008054906101000a900473ffffffffffffffffffffffffffffffffffffffff1681565b7f25cf2b509f2a7f322675b2a5322b182f44ad2c03ac941a0af17c9b178f5d5d5f81565b6000801b81565b600061032b610b76565b905060008160000160089054906101000a900460ff1615905060008260000160009054906101000a900467ffffffffffffffff1690506000808267ffffffffffffffff161480156103795750825b9050600060018367ffffffffffffffff161480156103ae575060003073ffffffffffffffffffffffffffffffffffffffff163b145b9050811580156103bc575080155b156103f3576040517ff92ee8a900000000000000000000000000000000000000000000000000000000815260040160405180910390fd5b60018560000160006101000a81548167ffffffffffffffff021916908367ffffffffffffffff16021790555083156104435760018560000160086101000a81548160ff0219169083151502179055505b61044c86610b9e565b83156104a85760008560000160086101000a81548160ff0219169083151502179055507fc7f505b2f371ae2175ee4913f4499e1f2633a7b5936321eed1cdaeb6115181d2600160405161049f919061145d565b60405180910390a15b505050505050565b60025481565b670de0b6b3a764000081565b620f424081565b6104d1610bf9565b6104fa7f25cf2b509f2a7f322675b2a5322b182f44ad2c03ac941a0af17c9b178f5d5d5f610c50565b60008060009054906101000a900473ffffffffffffffffffffffffffffffffffffffff1673ffffffffffffffffffffffffffffffffffffffff1663e59745546040518163ffffffff1660e01b8152600401602060405180830381865afa158015610568573d6000803e3d6000fd5b505050506040513d601f19601f8201168201806040525081019061058c919061148d565b73ffffffffffffffffffffffffffffffffffffffff166370a08231306040518263ffffffff1660e01b81526004016105c491906114c9565b602060405180830381865afa1580156105e1573d6000803e3d6000fd5b505050506040513d601f19601f820116820180604052508101906106059190611510565b90506000811161064a576040517f08c379a0000000000000000000000000000000000000000000000000000000008152600401610641906115af565b60405180910390fd5b6000620f424067ffffffffffffffff1660008054906101000a900473ffffffffffffffffffffffffffffffffffffffff1673ffffffffffffffffffffffffffffffffffffffff16638b587b9c6040518163ffffffff1660e01b8152600401602060405180830381865afa1580156106c5573d6000803e3d6000fd5b505050506040513d601f19601f820116820180604052508101906106e9919061160b565b63ffffffff16836106fa9190611667565b61070491906116d8565b9050600081836107149190611709565b90508160216000828254610728919061173d565b9250508190555061087660008054906101000a900473ffffffffffffffffffffffffffffffffffffffff1673ffffffffffffffffffffffffffffffffffffffff1663803db96d6040518163ffffffff1660e01b8152600401602060405180830381865afa15801561079d573d6000803e3d6000fd5b505050506040513d601f19601f820116820180604052508101906107c1919061148d565b8460008054906101000a900473ffffffffffffffffffffffffffffffffffffffff1673ffffffffffffffffffffffffffffffffffffffff1663e59745546040518163ffffffff1660e01b8152600401602060405180830381865afa15801561082d573d6000803e3d6000fd5b505050506040513d601f19601f82011682018060405250810190610851919061148d565b73ffffffffffffffffffffffffffffffffffffffff16610c649092919063ffffffff16565b60008054906101000a900473ffffffffffffffffffffffffffffffffffffffff1673ffffffffffffffffffffffffffffffffffffffff1663e59745546040518163ffffffff1660e01b8152600401602060405180830381865afa1580156108e1573d6000803e3d6000fd5b505050506040513d601f19601f82011682018060405250810190610905919061148d565b73ffffffffffffffffffffffffffffffffffffffff1663095ea7b360008054906101000a900473ffffffffffffffffffffffffffffffffffffffff1673ffffffffffffffffffffffffffffffffffffffff1663475785c76040518163ffffffff1660e01b8152600401602060405180830381865afa15801561098b573d6000803e3d6000fd5b505050506040513d601f19601f820116820180604052508101906109af919061148d565b836040518363ffffffff1660e01b81526004016109cd929190611771565b6020604051808303816000875af11580156109ec573d6000803e3d6000fd5b505050506040513d601f19601f82011682018060405250810190610a1091906117d2565b5060008054906101000a900473ffffffffffffffffffffffffffffffffffffffff1673ffffffffffffffffffffffffffffffffffffffff1663475785c76040518163ffffffff1660e01b8152600401602060405180830381865afa158015610a7c573d6000803e3d6000fd5b505050506040513d601f19601f82011682018060405250810190610aa0919061148d565b73ffffffffffffffffffffffffffffffffffffffff166311217d55826040518263ffffffff1660e01b8152600401610ad8919061128b565b600060405180830381600087803b158015610af257600080fd5b505af1158015610b06573d6000803e3d6000fd5b505050507f929c30b248a2b23bb2e1ab7c63cbbd5e53480d01e032310e7de1d3865e2fb937838383604051610b3d939291906117ff565b60405180910390a1505050610b50610ce3565b565b7ff66846415d2bf9eabda9e84793ff9c0ea96d87f50fc41e66aa16469c6a442f0581565b60007ff0c57e16840df040f15088dc2f81fe391c3923bec73e23a9662efc9c229c6a00905090565b610ba6610cfc565b806000806101000a81548173ffffffffffffffffffffffffffffffffffffffff021916908373ffffffffffffffffffffffffffffffffffffffff160217905550610bee610d3c565b610bf6610d4e565b50565b6000610c03610d58565b90506002816000015403610c43576040517f3ee5aeb500000000000000000000000000000000000000000000000000000000815260040160405180910390fd5b6002816000018190555050565b610c6181610c5c610d80565b610d88565b50565b610cde838473ffffffffffffffffffffffffffffffffffffffff1663a9059cbb8585604051602401610c97929190611771565b604051602081830303815290604052915060e01b6020820180517bffffffffffffffffffffffffffffffffffffffffffffffffffffffff8381831617835250505050610e9f565b505050565b6000610ced610d58565b90506001816000018190555050565b610d04610f41565b610d3a576040517fd7e6bcf800000000000000000000000000000000000000000000000000000000815260040160405180910390fd5b565b610d44610cfc565b610d4c610f61565b565b610d56610cfc565b565b60007f9b779b17422d0df92223018b32b4d1fa46e071723d6817e2486d003becc55f00905090565b600033905090565b60008054906101000a900473ffffffffffffffffffffffffffffffffffffffff1673ffffffffffffffffffffffffffffffffffffffff166391d1485483836040518363ffffffff1660e01b8152600401610de3929190611836565b602060405180830381865afa158015610e00573d6000803e3d6000fd5b505050506040513d601f19601f82011682018060405250810190610e2491906117d2565b610e9b57610e3181610f82565b610e3f8360001c6020610faf565b604051602001610e50929190611968565b6040516020818303038152906040526040517f08c379a0000000000000000000000000000000000000000000000000000000008152600401610e9291906119ec565b60405180910390fd5b5050565b600080602060008451602086016000885af180610ec2576040513d6000823e3d81fd5b3d925060005191505060008214610edd576001811415610ef9565b60008473ffffffffffffffffffffffffffffffffffffffff163b145b15610f3b57836040517f5274afe7000000000000000000000000000000000000000000000000000000008152600401610f3291906114c9565b60405180910390fd5b50505050565b6000610f4b610b76565b60000160089054906101000a900460ff16905090565b610f69610cfc565b6000610f73610d58565b90506001816000018190555050565b6060610fa88273ffffffffffffffffffffffffffffffffffffffff16601460ff16610faf565b9050919050565b6060600083905060006002846002610fc79190611667565b610fd1919061173d565b67ffffffffffffffff811115610fea57610fe9611a0e565b5b6040519080825280601f01601f19166020018201604052801561101c5781602001600182028036833780820191505090505b5090507f30000000000000000000000000000000000000000000000000000000000000008160008151811061105457611053611a3d565b5b60200101907effffffffffffffffffffffffffffffffffffffffffffffffffffffffffffff1916908160001a9053507f7800000000000000000000000000000000000000000000000000000000000000816001815181106110b8576110b7611a3d565b5b60200101907effffffffffffffffffffffffffffffffffffffffffffffffffffffffffffff1916908160001a905350600060018560026110f89190611667565b611102919061173d565b90505b60018111156111a2577f3031323334353637383961626364656600000000000000000000000000000000600f84166010811061114457611143611a3d565b5b1a60f81b82828151811061115b5761115a611a3d565b5b60200101907effffffffffffffffffffffffffffffffffffffffffffffffffffffffffffff1916908160001a905350600483901c92508061119b90611a6c565b9050611105565b50600082146111ea5784846040517fe22e27eb0000000000000000000000000000000000000000000000000000000081526004016111e1929190611a95565b60405180910390fd5b809250505092915050565b600082825260208201905092915050565b7f426173653a206e6f7420737570706f7274204d65746973207472616e73666572600082015250565b600061123c6020836111f5565b915061124782611206565b602082019050919050565b6000602082019050818103600083015261126b8161122f565b9050919050565b6000819050919050565b61128581611272565b82525050565b60006020820190506112a0600083018461127c565b92915050565b6000819050919050565b6112b9816112a6565b82525050565b60006020820190506112d460008301846112b0565b92915050565b600073ffffffffffffffffffffffffffffffffffffffff82169050919050565b6000819050919050565b600061131f61131a611315846112da565b6112fa565b6112da565b9050919050565b600061133182611304565b9050919050565b600061134382611326565b9050919050565b61135381611338565b82525050565b600060208201905061136e600083018461134a565b92915050565b600080fd5b6000611384826112da565b9050919050565b61139481611379565b811461139f57600080fd5b50565b6000813590506113b18161138b565b92915050565b6000602082840312156113cd576113cc611374565b5b60006113db848285016113a2565b91505092915050565b600067ffffffffffffffff82169050919050565b611401816113e4565b82525050565b600060208201905061141c60008301846113f8565b92915050565b6000819050919050565b600061144761144261143d84611422565b6112fa565b6113e4565b9050919050565b6114578161142c565b82525050565b6000602082019050611472600083018461144e565b92915050565b6000815190506114878161138b565b92915050565b6000602082840312156114a3576114a2611374565b5b60006114b184828501611478565b91505092915050565b6114c381611379565b82525050565b60006020820190506114de60008301846114ba565b92915050565b6114ed81611272565b81146114f857600080fd5b50565b60008151905061150a816114e4565b92915050565b60006020828403121561152657611525611374565b5b6000611534848285016114fb565b91505092915050565b7f526577617264446973706174636865723a206e6f20726577617264206176616960008201527f6c61626c65000000000000000000000000000000000000000000000000000000602082015250565b60006115996025836111f5565b91506115a48261153d565b604082019050919050565b600060208201905081810360008301526115c88161158c565b9050919050565b600063ffffffff82169050919050565b6115e8816115cf565b81146115f357600080fd5b50565b600081519050611605816115df565b92915050565b60006020828403121561162157611620611374565b5b600061162f848285016115f6565b91505092915050565b7f4e487b7100000000000000000000000000000000000000000000000000000000600052601160045260246000fd5b600061167282611272565b915061167d83611272565b925082820261168b81611272565b915082820484148315176116a2576116a1611638565b5b5092915050565b7f4e487b7100000000000000000000000000000000000000000000000000000000600052601260045260246000fd5b60006116e382611272565b91506116ee83611272565b9250826116fe576116fd6116a9565b5b828204905092915050565b600061171482611272565b915061171f83611272565b925082820390508181111561173757611736611638565b5b92915050565b600061174882611272565b915061175383611272565b925082820190508082111561176b5761176a611638565b5b92915050565b600060408201905061178660008301856114ba565b611793602083018461127c565b9392505050565b60008115159050919050565b6117af8161179a565b81146117ba57600080fd5b50565b6000815190506117cc816117a6565b92915050565b6000602082840312156117e8576117e7611374565b5b60006117f6848285016117bd565b91505092915050565b6000606082019050611814600083018661127c565b611821602083018561127c565b61182e604083018461127c565b949350505050565b600060408201905061184b60008301856112b0565b61185860208301846114ba565b9392505050565b600081905092915050565b7f416363657373436f6e74726f6c3a206163636f756e7420000000000000000000600082015250565b60006118a060178361185f565b91506118ab8261186a565b601782019050919050565b600081519050919050565b60005b838110156118df5780820151818401526020810190506118c4565b60008484015250505050565b60006118f6826118b6565b611900818561185f565b93506119108185602086016118c1565b80840191505092915050565b7f206973206d697373696e6720726f6c6520000000000000000000000000000000600082015250565b600061195260118361185f565b915061195d8261191c565b601182019050919050565b600061197382611893565b915061197f82856118eb565b915061198a82611945565b915061199682846118eb565b91508190509392505050565b6000601f19601f8301169050919050565b60006119be826118b6565b6119c881856111f5565b93506119d88185602086016118c1565b6119e1816119a2565b840191505092915050565b60006020820190508181036000830152611a0681846119b3565b905092915050565b7f4e487b7100000000000000000000000000000000000000000000000000000000600052604160045260246000fd5b7f4e487b7100000000000000000000000000000000000000000000000000000000600052603260045260246000fd5b6000611a7782611272565b915060008203611a8a57611a89611638565b5b600182039050919050565b6000604082019050611aaa600083018561127c565b611ab7602083018461127c565b939250505056fea2646970667358221220f4a4b3f272fcd0d54b801505ffce3e2b85328a89cb6581d53d141fde65a6d89f64736f6c63430008140033",
  "linkReferences": {},
  "deployedLinkReferences": {}
}